{
  "contractName": "IotaHeroUtil",
  "abi": [
    {
      "anonymous": false,
      "inputs": [
        {
          "indexed": true,
          "internalType": "address",
          "name": "owner",
          "type": "address"
        },
        {
          "indexed": true,
          "internalType": "address",
          "name": "approved",
          "type": "address"
        },
        {
          "indexed": true,
          "internalType": "uint256",
          "name": "tokenId",
          "type": "uint256"
        }
      ],
      "name": "Approval",
      "type": "event"
    },
    {
      "anonymous": false,
      "inputs": [
        {
          "indexed": true,
          "internalType": "address",
          "name": "owner",
          "type": "address"
        },
        {
          "indexed": true,
          "internalType": "address",
          "name": "operator",
          "type": "address"
        },
        {
          "indexed": false,
          "internalType": "bool",
          "name": "approved",
          "type": "bool"
        }
      ],
      "name": "ApprovalForAll",
      "type": "event"
    },
    {
      "anonymous": false,
      "inputs": [
        {
          "indexed": true,
          "internalType": "address",
          "name": "owner",
          "type": "address"
        },
        {
          "indexed": false,
          "internalType": "uint256",
          "name": "id",
          "type": "uint256"
        },
        {
          "indexed": false,
          "internalType": "uint256",
          "name": "dna",
          "type": "uint256"
        }
      ],
      "name": "HeroMinted",
      "type": "event"
    },
    {
      "anonymous": false,
      "inputs": [
        {
          "indexed": true,
          "internalType": "address",
          "name": "previousOwner",
          "type": "address"
        },
        {
          "indexed": true,
          "internalType": "address",
          "name": "newOwner",
          "type": "address"
        }
      ],
      "name": "OwnershipTransferred",
      "type": "event"
    },
    {
      "anonymous": false,
      "inputs": [
        {
          "indexed": true,
          "internalType": "address",
          "name": "from",
          "type": "address"
        },
        {
          "indexed": true,
          "internalType": "address",
          "name": "to",
          "type": "address"
        },
        {
          "indexed": true,
          "internalType": "uint256",
          "name": "tokenId",
          "type": "uint256"
        }
      ],
      "name": "Transfer",
      "type": "event"
    },
    {
      "inputs": [
        {
          "internalType": "address",
          "name": "to",
          "type": "address"
        },
        {
          "internalType": "uint256",
          "name": "tokenId",
          "type": "uint256"
        }
      ],
      "name": "approve",
      "outputs": [],
      "stateMutability": "nonpayable",
      "type": "function"
    },
    {
      "inputs": [
        {
          "internalType": "address",
          "name": "owner",
          "type": "address"
        }
      ],
      "name": "balanceOf",
      "outputs": [
        {
          "internalType": "uint256",
          "name": "",
          "type": "uint256"
        }
      ],
      "stateMutability": "view",
      "type": "function"
    },
    {
      "inputs": [
        {
          "internalType": "uint256",
          "name": "tokenId",
          "type": "uint256"
        }
      ],
      "name": "getApproved",
      "outputs": [
        {
          "internalType": "address",
          "name": "",
          "type": "address"
        }
      ],
      "stateMutability": "view",
      "type": "function"
    },
    {
      "inputs": [
        {
          "internalType": "uint256",
          "name": "",
          "type": "uint256"
        }
      ],
      "name": "heroes",
      "outputs": [
        {
          "internalType": "uint256",
          "name": "id",
          "type": "uint256"
        },
        {
          "internalType": "uint256",
          "name": "dna",
          "type": "uint256"
        },
        {
          "internalType": "uint256",
          "name": "xp",
          "type": "uint256"
        },
        {
          "internalType": "uint256",
          "name": "mental",
          "type": "uint256"
        },
        {
          "internalType": "uint256",
          "name": "physical",
          "type": "uint256"
        },
        {
          "internalType": "uint16",
          "name": "level",
          "type": "uint16"
        },
        {
          "internalType": "uint256",
          "name": "restingTill",
          "type": "uint256"
        },
        {
          "internalType": "uint256",
          "name": "debug",
          "type": "uint256"
        },
        {
          "internalType": "string",
          "name": "name",
          "type": "string"
        }
      ],
      "stateMutability": "view",
      "type": "function"
    },
    {
      "inputs": [
        {
          "internalType": "address",
          "name": "owner",
          "type": "address"
        },
        {
          "internalType": "address",
          "name": "operator",
          "type": "address"
        }
      ],
      "name": "isApprovedForAll",
      "outputs": [
        {
          "internalType": "bool",
          "name": "",
          "type": "bool"
        }
      ],
      "stateMutability": "view",
      "type": "function"
    },
    {
      "inputs": [],
      "name": "name",
      "outputs": [
        {
          "internalType": "string",
          "name": "",
          "type": "string"
        }
      ],
      "stateMutability": "view",
      "type": "function"
    },
    {
      "inputs": [
        {
          "internalType": "uint256",
          "name": "_heroId",
          "type": "uint256"
        },
        {
          "internalType": "string",
          "name": "_name",
          "type": "string"
        }
      ],
      "name": "nameChange",
      "outputs": [],
      "stateMutability": "nonpayable",
      "type": "function"
    },
    {
      "inputs": [],
      "name": "owner",
      "outputs": [
        {
          "internalType": "address",
          "name": "",
          "type": "address"
        }
      ],
      "stateMutability": "view",
      "type": "function"
    },
    {
      "inputs": [
        {
          "internalType": "uint256",
          "name": "tokenId",
          "type": "uint256"
        }
      ],
      "name": "ownerOf",
      "outputs": [
        {
          "internalType": "address",
          "name": "",
          "type": "address"
        }
      ],
      "stateMutability": "view",
      "type": "function"
    },
    {
      "inputs": [],
      "name": "renounceOwnership",
      "outputs": [],
      "stateMutability": "nonpayable",
      "type": "function"
    },
    {
      "inputs": [
        {
          "internalType": "address",
          "name": "from",
          "type": "address"
        },
        {
          "internalType": "address",
          "name": "to",
          "type": "address"
        },
        {
          "internalType": "uint256",
          "name": "tokenId",
          "type": "uint256"
        }
      ],
      "name": "safeTransferFrom",
      "outputs": [],
      "stateMutability": "nonpayable",
      "type": "function"
    },
    {
      "inputs": [
        {
          "internalType": "address",
          "name": "from",
          "type": "address"
        },
        {
          "internalType": "address",
          "name": "to",
          "type": "address"
        },
        {
          "internalType": "uint256",
          "name": "tokenId",
          "type": "uint256"
        },
        {
          "internalType": "bytes",
          "name": "_data",
          "type": "bytes"
        }
      ],
      "name": "safeTransferFrom",
      "outputs": [],
      "stateMutability": "nonpayable",
      "type": "function"
    },
    {
      "inputs": [
        {
          "internalType": "address",
          "name": "operator",
          "type": "address"
        },
        {
          "internalType": "bool",
          "name": "approved",
          "type": "bool"
        }
      ],
      "name": "setApprovalForAll",
      "outputs": [],
      "stateMutability": "nonpayable",
      "type": "function"
    },
    {
      "inputs": [],
      "name": "spawnHero",
      "outputs": [],
      "stateMutability": "nonpayable",
      "type": "function"
    },
    {
      "inputs": [
        {
          "internalType": "bytes4",
          "name": "interfaceId",
          "type": "bytes4"
        }
      ],
      "name": "supportsInterface",
      "outputs": [
        {
          "internalType": "bool",
          "name": "",
          "type": "bool"
        }
      ],
      "stateMutability": "view",
      "type": "function"
    },
    {
      "inputs": [],
      "name": "symbol",
      "outputs": [
        {
          "internalType": "string",
          "name": "",
          "type": "string"
        }
      ],
      "stateMutability": "view",
      "type": "function"
    },
    {
      "inputs": [
        {
          "internalType": "uint256",
          "name": "tokenId",
          "type": "uint256"
        }
      ],
      "name": "tokenURI",
      "outputs": [
        {
          "internalType": "string",
          "name": "",
          "type": "string"
        }
      ],
      "stateMutability": "view",
      "type": "function"
    },
    {
      "inputs": [
        {
          "internalType": "address",
          "name": "from",
          "type": "address"
        },
        {
          "internalType": "address",
          "name": "to",
          "type": "address"
        },
        {
          "internalType": "uint256",
          "name": "tokenId",
          "type": "uint256"
        }
      ],
      "name": "transferFrom",
      "outputs": [],
      "stateMutability": "nonpayable",
      "type": "function"
    },
    {
      "inputs": [
        {
          "internalType": "address",
          "name": "newOwner",
          "type": "address"
        }
      ],
      "name": "transferOwnership",
      "outputs": [],
      "stateMutability": "nonpayable",
      "type": "function"
    },
    {
      "inputs": [],
      "name": "withdraw",
      "outputs": [],
      "stateMutability": "payable",
      "type": "function"
    },
    {
      "inputs": [],
      "name": "getHeroes",
      "outputs": [
        {
          "components": [
            {
              "internalType": "uint256",
              "name": "id",
              "type": "uint256"
            },
            {
              "internalType": "uint256",
              "name": "dna",
              "type": "uint256"
            },
            {
              "internalType": "uint256",
              "name": "xp",
              "type": "uint256"
            },
            {
              "internalType": "uint256",
              "name": "mental",
              "type": "uint256"
            },
            {
              "internalType": "uint256",
              "name": "physical",
              "type": "uint256"
            },
            {
              "internalType": "uint16",
              "name": "level",
              "type": "uint16"
            },
            {
              "internalType": "uint256",
              "name": "restingTill",
              "type": "uint256"
            },
            {
              "internalType": "uint256",
              "name": "debug",
              "type": "uint256"
            },
            {
              "internalType": "string",
              "name": "name",
              "type": "string"
            }
          ],
          "internalType": "struct IotaHeroFactory.Hero[]",
          "name": "",
          "type": "tuple[]"
        }
      ],
      "stateMutability": "view",
      "type": "function"
    },
    {
      "inputs": [
        {
          "internalType": "address",
          "name": "_owner",
          "type": "address"
        }
      ],
      "name": "getOwnerHeroes",
      "outputs": [
        {
          "components": [
            {
              "internalType": "uint256",
              "name": "id",
              "type": "uint256"
            },
            {
              "internalType": "uint256",
              "name": "dna",
              "type": "uint256"
            },
            {
              "internalType": "uint256",
              "name": "xp",
              "type": "uint256"
            },
            {
              "internalType": "uint256",
              "name": "mental",
              "type": "uint256"
            },
            {
              "internalType": "uint256",
              "name": "physical",
              "type": "uint256"
            },
            {
              "internalType": "uint16",
              "name": "level",
              "type": "uint16"
            },
            {
              "internalType": "uint256",
              "name": "restingTill",
              "type": "uint256"
            },
            {
              "internalType": "uint256",
              "name": "debug",
              "type": "uint256"
            },
            {
              "internalType": "string",
              "name": "name",
              "type": "string"
            }
          ],
          "internalType": "struct IotaHeroFactory.Hero[]",
          "name": "",
          "type": "tuple[]"
        }
      ],
      "stateMutability": "view",
      "type": "function"
    }
  ],
  "bytecode": "0x60806040526000600755601e6008553480156200001b57600080fd5b506040518060400160405280600881526020017f496f74614865726f0000000000000000000000000000000000000000000000008152506040518060400160405280600281526020017f49480000000000000000000000000000000000000000000000000000000000008152508160009080519060200190620000a0929190620001b0565b508060019080519060200190620000b9929190620001b0565b505050620000dc620000d0620000e260201b60201c565b620000ea60201b60201c565b620002c5565b600033905090565b6000600660009054906101000a900473ffffffffffffffffffffffffffffffffffffffff16905081600660006101000a81548173ffffffffffffffffffffffffffffffffffffffff021916908373ffffffffffffffffffffffffffffffffffffffff1602179055508173ffffffffffffffffffffffffffffffffffffffff168173ffffffffffffffffffffffffffffffffffffffff167f8be0079c531659141344cd1fd0a4f28419497f9722a3daafe3b4186f6b6457e060405160405180910390a35050565b828054620001be906200028f565b90600052602060002090601f016020900481019282620001e257600085556200022e565b82601f10620001fd57805160ff19168380011785556200022e565b828001600101855582156200022e579182015b828111156200022d57825182559160200191906001019062000210565b5b5090506200023d919062000241565b5090565b5b808211156200025c57600081600090555060010162000242565b5090565b7f4e487b7100000000000000000000000000000000000000000000000000000000600052602260045260246000fd5b60006002820490506001821680620002a857607f821691505b60208210811415620002bf57620002be62000260565b5b50919050565b6139ae80620002d56000396000f3fe6080604052600436106101355760003560e01c80638da5cb5b116100ab578063a8d4a03b1161006f578063a8d4a03b146103df578063b88d4fde14610424578063c87b56dd1461044d578063ddf368a21461048a578063e985e9c5146104c7578063f2fde38b1461050457610135565b80638da5cb5b1461031e57806395d89b41146103495780639a8d2882146103745780639f72ed761461039f578063a22cb465146103b657610135565b80633ccfd60b116100fd5780633ccfd60b1461023157806342842e0e1461023b57806348646f7b146102645780636352211e1461028d57806370a08231146102ca578063715018a61461030757610135565b806301ffc9a71461013a57806306fdde0314610177578063081812fc146101a2578063095ea7b3146101df57806323b872dd14610208575b600080fd5b34801561014657600080fd5b50610161600480360381019061015c919061240f565b61052d565b60405161016e9190612457565b60405180910390f35b34801561018357600080fd5b5061018c61060f565b604051610199919061250b565b60405180910390f35b3480156101ae57600080fd5b506101c960048036038101906101c49190612563565b6106a1565b6040516101d691906125d1565b60405180910390f35b3480156101eb57600080fd5b5061020660048036038101906102019190612618565b610726565b005b34801561021457600080fd5b5061022f600480360381019061022a9190612658565b61083e565b005b61023961089e565b005b34801561024757600080fd5b50610262600480360381019061025d9190612658565b610970565b005b34801561027057600080fd5b5061028b600480360381019061028691906127e0565b610990565b005b34801561029957600080fd5b506102b460048036038101906102af9190612563565b610a16565b6040516102c191906125d1565b60405180910390f35b3480156102d657600080fd5b506102f160048036038101906102ec919061283c565b610ac8565b6040516102fe9190612878565b60405180910390f35b34801561031357600080fd5b5061031c610b80565b005b34801561032a57600080fd5b50610333610c08565b60405161034091906125d1565b60405180910390f35b34801561035557600080fd5b5061035e610c32565b60405161036b919061250b565b60405180910390f35b34801561038057600080fd5b50610389610cc4565b6040516103969190612a90565b60405180910390f35b3480156103ab57600080fd5b506103b4610e1c565b005b3480156103c257600080fd5b506103dd60048036038101906103d89190612ade565b610e37565b005b3480156103eb57600080fd5b5061040660048036038101906104019190612563565b610e4d565b60405161041b99989796959493929190612b2d565b60405180910390f35b34801561043057600080fd5b5061044b60048036038101906104469190612c62565b610f41565b005b34801561045957600080fd5b50610474600480360381019061046f9190612563565b610fa3565b604051610481919061250b565b60405180910390f35b34801561049657600080fd5b506104b160048036038101906104ac919061283c565b61104a565b6040516104be9190612a90565b60405180910390f35b3480156104d357600080fd5b506104ee60048036038101906104e99190612ce5565b61126a565b6040516104fb9190612457565b60405180910390f35b34801561051057600080fd5b5061052b6004803603810190610526919061283c565b6112fe565b005b60007f80ac58cd000000000000000000000000000000000000000000000000000000007bffffffffffffffffffffffffffffffffffffffffffffffffffffffff1916827bffffffffffffffffffffffffffffffffffffffffffffffffffffffff191614806105f857507f5b5e139f000000000000000000000000000000000000000000000000000000007bffffffffffffffffffffffffffffffffffffffffffffffffffffffff1916827bffffffffffffffffffffffffffffffffffffffffffffffffffffffff1916145b806106085750610607826113f6565b5b9050919050565b60606000805461061e90612d54565b80601f016020809104026020016040519081016040528092919081815260200182805461064a90612d54565b80156106975780601f1061066c57610100808354040283529160200191610697565b820191906000526020600020905b81548152906001019060200180831161067a57829003601f168201915b5050505050905090565b60006106ac82611460565b6106eb576040517f08c379a00000000000000000000000000000000000000000000000000000000081526004016106e290612df8565b60405180910390fd5b6004600083815260200190815260200160002060009054906101000a900473ffffffffffffffffffffffffffffffffffffffff169050919050565b600061073182610a16565b90508073ffffffffffffffffffffffffffffffffffffffff168373ffffffffffffffffffffffffffffffffffffffff1614156107a2576040517f08c379a000000000000000000000000000000000000000000000000000000000815260040161079990612e8a565b60405180910390fd5b8073ffffffffffffffffffffffffffffffffffffffff166107c16114cc565b73ffffffffffffffffffffffffffffffffffffffff1614806107f057506107ef816107ea6114cc565b61126a565b5b61082f576040517f08c379a000000000000000000000000000000000000000000000000000000000815260040161082690612f1c565b60405180910390fd5b61083983836114d4565b505050565b61084f6108496114cc565b8261158d565b61088e576040517f08c379a000000000000000000000000000000000000000000000000000000000815260040161088590612fae565b60405180910390fd5b61089983838361166b565b505050565b6108a66114cc565b73ffffffffffffffffffffffffffffffffffffffff166108c4610c08565b73ffffffffffffffffffffffffffffffffffffffff161461091a576040517f08c379a00000000000000000000000000000000000000000000000000000000081526004016109119061301a565b60405180910390fd5b6000610924610c08565b90508073ffffffffffffffffffffffffffffffffffffffff166108fc479081150290604051600060405180830381858888f1935050505015801561096c573d6000803e3d6000fd5b5050565b61098b83838360405180602001604052806000815250610f41565b505050565b8161099a81610a16565b73ffffffffffffffffffffffffffffffffffffffff163373ffffffffffffffffffffffffffffffffffffffff16146109d157600080fd5b6000600984815481106109e7576109e661303a565b5b9060005260206000209060090201905082816008019080519060200190610a0f9291906122b0565b5050505050565b6000806002600084815260200190815260200160002060009054906101000a900473ffffffffffffffffffffffffffffffffffffffff169050600073ffffffffffffffffffffffffffffffffffffffff168173ffffffffffffffffffffffffffffffffffffffff161415610abf576040517f08c379a0000000000000000000000000000000000000000000000000000000008152600401610ab6906130db565b60405180910390fd5b80915050919050565b60008073ffffffffffffffffffffffffffffffffffffffff168273ffffffffffffffffffffffffffffffffffffffff161415610b39576040517f08c379a0000000000000000000000000000000000000000000000000000000008152600401610b309061316d565b60405180910390fd5b600360008373ffffffffffffffffffffffffffffffffffffffff1673ffffffffffffffffffffffffffffffffffffffff168152602001908152602001600020549050919050565b610b886114cc565b73ffffffffffffffffffffffffffffffffffffffff16610ba6610c08565b73ffffffffffffffffffffffffffffffffffffffff1614610bfc576040517f08c379a0000000000000000000000000000000000000000000000000000000008152600401610bf39061301a565b60405180910390fd5b610c0660006118c7565b565b6000600660009054906101000a900473ffffffffffffffffffffffffffffffffffffffff16905090565b606060018054610c4190612d54565b80601f0160208091040260200160405190810160405280929190818152602001828054610c6d90612d54565b8015610cba5780601f10610c8f57610100808354040283529160200191610cba565b820191906000526020600020905b815481529060010190602001808311610c9d57829003601f168201915b5050505050905090565b60606009805480602002602001604051908101604052809291908181526020016000905b82821015610e1357838290600052602060002090600902016040518061012001604052908160008201548152602001600182015481526020016002820154815260200160038201548152602001600482015481526020016005820160009054906101000a900461ffff1661ffff1661ffff1681526020016006820154815260200160078201548152602001600882018054610d8290612d54565b80601f0160208091040260200160405190810160405280929190818152602001828054610dae90612d54565b8015610dfb5780601f10610dd057610100808354040283529160200191610dfb565b820191906000526020600020905b815481529060010190602001808311610dde57829003601f168201915b50505050508152505081526020019060010190610ce8565b50505050905090565b6000610e2960075461198d565b9050610e34816119e0565b50565b610e49610e426114cc565b8383611b72565b5050565b60098181548110610e5d57600080fd5b90600052602060002090600902016000915090508060000154908060010154908060020154908060030154908060040154908060050160009054906101000a900461ffff1690806006015490806007015490806008018054610ebe90612d54565b80601f0160208091040260200160405190810160405280929190818152602001828054610eea90612d54565b8015610f375780601f10610f0c57610100808354040283529160200191610f37565b820191906000526020600020905b815481529060010190602001808311610f1a57829003601f168201915b5050505050905089565b610f52610f4c6114cc565b8361158d565b610f91576040517f08c379a0000000000000000000000000000000000000000000000000000000008152600401610f8890612fae565b60405180910390fd5b610f9d84848484611cdf565b50505050565b6060610fae82611460565b610fed576040517f08c379a0000000000000000000000000000000000000000000000000000000008152600401610fe4906131ff565b60405180910390fd5b6000610ff7611d3b565b905060008151116110175760405180602001604052806000815250611042565b8061102184611d52565b60405160200161103292919061325b565b6040516020818303038152906040525b915050919050565b6060600061105783610ac8565b67ffffffffffffffff8111156110705761106f6126b5565b5b6040519080825280602002602001820160405280156110a957816020015b611096612336565b81526020019060019003908161108e5790505b5090506000805b60098054905081101561125f578473ffffffffffffffffffffffffffffffffffffffff166110dd82610a16565b73ffffffffffffffffffffffffffffffffffffffff16141561124c576009818154811061110d5761110c61303a565b5b90600052602060002090600902016040518061012001604052908160008201548152602001600182015481526020016002820154815260200160038201548152602001600482015481526020016005820160009054906101000a900461ffff1661ffff1661ffff168152602001600682015481526020016007820154815260200160088201805461119d90612d54565b80601f01602080910402602001604051908101604052809291908181526020018280546111c990612d54565b80156112165780601f106111eb57610100808354040283529160200191611216565b820191906000526020600020905b8154815290600101906020018083116111f957829003601f168201915b5050505050815250508383815181106112325761123161303a565b5b60200260200101819052508180611248906132ae565b9250505b8080611257906132ae565b9150506110b0565b508192505050919050565b6000600560008473ffffffffffffffffffffffffffffffffffffffff1673ffffffffffffffffffffffffffffffffffffffff16815260200190815260200160002060008373ffffffffffffffffffffffffffffffffffffffff1673ffffffffffffffffffffffffffffffffffffffff16815260200190815260200160002060009054906101000a900460ff16905092915050565b6113066114cc565b73ffffffffffffffffffffffffffffffffffffffff16611324610c08565b73ffffffffffffffffffffffffffffffffffffffff161461137a576040517f08c379a00000000000000000000000000000000000000000000000000000000081526004016113719061301a565b60405180910390fd5b600073ffffffffffffffffffffffffffffffffffffffff168173ffffffffffffffffffffffffffffffffffffffff1614156113ea576040517f08c379a00000000000000000000000000000000000000000000000000000000081526004016113e190613369565b60405180910390fd5b6113f3816118c7565b50565b60007f01ffc9a7000000000000000000000000000000000000000000000000000000007bffffffffffffffffffffffffffffffffffffffffffffffffffffffff1916827bffffffffffffffffffffffffffffffffffffffffffffffffffffffff1916149050919050565b60008073ffffffffffffffffffffffffffffffffffffffff166002600084815260200190815260200160002060009054906101000a900473ffffffffffffffffffffffffffffffffffffffff1673ffffffffffffffffffffffffffffffffffffffff1614159050919050565b600033905090565b816004600083815260200190815260200160002060006101000a81548173ffffffffffffffffffffffffffffffffffffffff021916908373ffffffffffffffffffffffffffffffffffffffff160217905550808273ffffffffffffffffffffffffffffffffffffffff1661154783610a16565b73ffffffffffffffffffffffffffffffffffffffff167f8c5be1e5ebec7d5bd14f71427d1e84f3dd0314c0f7b2291e5b200ac8c7c3b92560405160405180910390a45050565b600061159882611460565b6115d7576040517f08c379a00000000000000000000000000000000000000000000000000000000081526004016115ce906133fb565b60405180910390fd5b60006115e283610a16565b90508073ffffffffffffffffffffffffffffffffffffffff168473ffffffffffffffffffffffffffffffffffffffff16148061165157508373ffffffffffffffffffffffffffffffffffffffff16611639846106a1565b73ffffffffffffffffffffffffffffffffffffffff16145b806116625750611661818561126a565b5b91505092915050565b8273ffffffffffffffffffffffffffffffffffffffff1661168b82610a16565b73ffffffffffffffffffffffffffffffffffffffff16146116e1576040517f08c379a00000000000000000000000000000000000000000000000000000000081526004016116d89061348d565b60405180910390fd5b600073ffffffffffffffffffffffffffffffffffffffff168273ffffffffffffffffffffffffffffffffffffffff161415611751576040517f08c379a00000000000000000000000000000000000000000000000000000000081526004016117489061351f565b60405180910390fd5b61175c838383611eb3565b6117676000826114d4565b6001600360008573ffffffffffffffffffffffffffffffffffffffff1673ffffffffffffffffffffffffffffffffffffffff16815260200190815260200160002060008282546117b7919061353f565b925050819055506001600360008473ffffffffffffffffffffffffffffffffffffffff1673ffffffffffffffffffffffffffffffffffffffff168152602001908152602001600020600082825461180e9190613573565b92505081905550816002600083815260200190815260200160002060006101000a81548173ffffffffffffffffffffffffffffffffffffffff021916908373ffffffffffffffffffffffffffffffffffffffff160217905550808273ffffffffffffffffffffffffffffffffffffffff168473ffffffffffffffffffffffffffffffffffffffff167fddf252ad1be2c89b69c2b068fc378daa952ba7f163c4a11628f55a4df523b3ef60405160405180910390a4505050565b6000600660009054906101000a900473ffffffffffffffffffffffffffffffffffffffff16905081600660006101000a81548173ffffffffffffffffffffffffffffffffffffffff021916908373ffffffffffffffffffffffffffffffffffffffff1602179055508173ffffffffffffffffffffffffffffffffffffffff168173ffffffffffffffffffffffffffffffffffffffff167f8be0079c531659141344cd1fd0a4f28419497f9722a3daafe3b4186f6b6457e060405160405180910390a35050565b600080824261199c9190613573565b6040516020016119ac91906135ea565b6040516020818303038152906040528051906020012060001c905064e8d4a51000816119d89190613634565b915050919050565b600060405180610120016040528060075481526020018381526020016101f48152602001600a8152602001600a8152602001600161ffff168152602001428152602001600081526020016040518060200160405280600081525081525090506009819080600181540180825580915050600190039060005260206000209060090201600090919091909150600082015181600001556020820151816001015560408201518160020155606082015181600301556080820151816004015560a08201518160050160006101000a81548161ffff021916908361ffff16021790555060c0820151816006015560e08201518160070155610100820151816008019080519060200190611af19291906122b0565b505050611b0033600754611eb8565b3373ffffffffffffffffffffffffffffffffffffffff167fad1c7ab5bfbe86a51764200b1532f3893b41563e78abe6d6eac4bbd987f38c6860075484604051611b4a929190613665565b60405180910390a2611b686001600754611ed690919063ffffffff16565b6007819055505050565b8173ffffffffffffffffffffffffffffffffffffffff168373ffffffffffffffffffffffffffffffffffffffff161415611be1576040517f08c379a0000000000000000000000000000000000000000000000000000000008152600401611bd8906136da565b60405180910390fd5b80600560008573ffffffffffffffffffffffffffffffffffffffff1673ffffffffffffffffffffffffffffffffffffffff16815260200190815260200160002060008473ffffffffffffffffffffffffffffffffffffffff1673ffffffffffffffffffffffffffffffffffffffff16815260200190815260200160002060006101000a81548160ff0219169083151502179055508173ffffffffffffffffffffffffffffffffffffffff168373ffffffffffffffffffffffffffffffffffffffff167f17307eab39ab6107e8899845ad3d59bd9653f200f220920489ca2b5937696c3183604051611cd29190612457565b60405180910390a3505050565b611cea84848461166b565b611cf684848484611eec565b611d35576040517f08c379a0000000000000000000000000000000000000000000000000000000008152600401611d2c9061376c565b60405180910390fd5b50505050565b606060405180602001604052806000815250905090565b60606000821415611d9a576040518060400160405280600181526020017f30000000000000000000000000000000000000000000000000000000000000008152509050611eae565b600082905060005b60008214611dcc578080611db5906132ae565b915050600a82611dc5919061378c565b9150611da2565b60008167ffffffffffffffff811115611de857611de76126b5565b5b6040519080825280601f01601f191660200182016040528015611e1a5781602001600182028036833780820191505090505b5090505b60008514611ea757600182611e33919061353f565b9150600a85611e429190613634565b6030611e4e9190613573565b60f81b818381518110611e6457611e6361303a565b5b60200101907effffffffffffffffffffffffffffffffffffffffffffffffffffffffffffff1916908160001a905350600a85611ea0919061378c565b9450611e1e565b8093505050505b919050565b505050565b611ed2828260405180602001604052806000815250612074565b5050565b60008183611ee49190613573565b905092915050565b6000611f0d8473ffffffffffffffffffffffffffffffffffffffff166120cf565b15612067578373ffffffffffffffffffffffffffffffffffffffff1663150b7a02611f366114cc565b8786866040518563ffffffff1660e01b8152600401611f589493929190613812565b6020604051808303816000875af1925050508015611f9457506040513d601f19601f82011682018060405250810190611f919190613873565b60015b612017573d8060008114611fc4576040519150601f19603f3d011682016040523d82523d6000602084013e611fc9565b606091505b5060008151141561200f576040517f08c379a00000000000000000000000000000000000000000000000000000000081526004016120069061376c565b60405180910390fd5b805181602001fd5b63150b7a0260e01b7bffffffffffffffffffffffffffffffffffffffffffffffffffffffff1916817bffffffffffffffffffffffffffffffffffffffffffffffffffffffff19161491505061206c565b600190505b949350505050565b61207e83836120e2565b61208b6000848484611eec565b6120ca576040517f08c379a00000000000000000000000000000000000000000000000000000000081526004016120c19061376c565b60405180910390fd5b505050565b600080823b905060008111915050919050565b600073ffffffffffffffffffffffffffffffffffffffff168273ffffffffffffffffffffffffffffffffffffffff161415612152576040517f08c379a0000000000000000000000000000000000000000000000000000000008152600401612149906138ec565b60405180910390fd5b61215b81611460565b1561219b576040517f08c379a000000000000000000000000000000000000000000000000000000000815260040161219290613958565b60405180910390fd5b6121a760008383611eb3565b6001600360008473ffffffffffffffffffffffffffffffffffffffff1673ffffffffffffffffffffffffffffffffffffffff16815260200190815260200160002060008282546121f79190613573565b92505081905550816002600083815260200190815260200160002060006101000a81548173ffffffffffffffffffffffffffffffffffffffff021916908373ffffffffffffffffffffffffffffffffffffffff160217905550808273ffffffffffffffffffffffffffffffffffffffff16600073ffffffffffffffffffffffffffffffffffffffff167fddf252ad1be2c89b69c2b068fc378daa952ba7f163c4a11628f55a4df523b3ef60405160405180910390a45050565b8280546122bc90612d54565b90600052602060002090601f0160209004810192826122de5760008555612325565b82601f106122f757805160ff1916838001178555612325565b82800160010185558215612325579182015b82811115612324578251825591602001919060010190612309565b5b5090506123329190612386565b5090565b6040518061012001604052806000815260200160008152602001600081526020016000815260200160008152602001600061ffff1681526020016000815260200160008152602001606081525090565b5b8082111561239f576000816000905550600101612387565b5090565b6000604051905090565b600080fd5b600080fd5b60007fffffffff0000000000000000000000000000000000000000000000000000000082169050919050565b6123ec816123b7565b81146123f757600080fd5b50565b600081359050612409816123e3565b92915050565b600060208284031215612425576124246123ad565b5b6000612433848285016123fa565b91505092915050565b60008115159050919050565b6124518161243c565b82525050565b600060208201905061246c6000830184612448565b92915050565b600081519050919050565b600082825260208201905092915050565b60005b838110156124ac578082015181840152602081019050612491565b838111156124bb576000848401525b50505050565b6000601f19601f8301169050919050565b60006124dd82612472565b6124e7818561247d565b93506124f781856020860161248e565b612500816124c1565b840191505092915050565b6000602082019050818103600083015261252581846124d2565b905092915050565b6000819050919050565b6125408161252d565b811461254b57600080fd5b50565b60008135905061255d81612537565b92915050565b600060208284031215612579576125786123ad565b5b60006125878482850161254e565b91505092915050565b600073ffffffffffffffffffffffffffffffffffffffff82169050919050565b60006125bb82612590565b9050919050565b6125cb816125b0565b82525050565b60006020820190506125e660008301846125c2565b92915050565b6125f5816125b0565b811461260057600080fd5b50565b600081359050612612816125ec565b92915050565b6000806040838503121561262f5761262e6123ad565b5b600061263d85828601612603565b925050602061264e8582860161254e565b9150509250929050565b600080600060608486031215612671576126706123ad565b5b600061267f86828701612603565b935050602061269086828701612603565b92505060406126a18682870161254e565b9150509250925092565b600080fd5b600080fd5b7f4e487b7100000000000000000000000000000000000000000000000000000000600052604160045260246000fd5b6126ed826124c1565b810181811067ffffffffffffffff8211171561270c5761270b6126b5565b5b80604052505050565b600061271f6123a3565b905061272b82826126e4565b919050565b600067ffffffffffffffff82111561274b5761274a6126b5565b5b612754826124c1565b9050602081019050919050565b82818337600083830152505050565b600061278361277e84612730565b612715565b90508281526020810184848401111561279f5761279e6126b0565b5b6127aa848285612761565b509392505050565b600082601f8301126127c7576127c66126ab565b5b81356127d7848260208601612770565b91505092915050565b600080604083850312156127f7576127f66123ad565b5b60006128058582860161254e565b925050602083013567ffffffffffffffff811115612826576128256123b2565b5b612832858286016127b2565b9150509250929050565b600060208284031215612852576128516123ad565b5b600061286084828501612603565b91505092915050565b6128728161252d565b82525050565b600060208201905061288d6000830184612869565b92915050565b600081519050919050565b600082825260208201905092915050565b6000819050602082019050919050565b6128c88161252d565b82525050565b600061ffff82169050919050565b6128e5816128ce565b82525050565b600082825260208201905092915050565b600061290782612472565b61291181856128eb565b935061292181856020860161248e565b61292a816124c1565b840191505092915050565b60006101208301600083015161294e60008601826128bf565b50602083015161296160208601826128bf565b50604083015161297460408601826128bf565b50606083015161298760608601826128bf565b50608083015161299a60808601826128bf565b5060a08301516129ad60a08601826128dc565b5060c08301516129c060c08601826128bf565b5060e08301516129d360e08601826128bf565b506101008301518482036101008601526129ed82826128fc565b9150508091505092915050565b6000612a068383612935565b905092915050565b6000602082019050919050565b6000612a2682612893565b612a30818561289e565b935083602082028501612a42856128af565b8060005b85811015612a7e5784840389528151612a5f85826129fa565b9450612a6a83612a0e565b925060208a01995050600181019050612a46565b50829750879550505050505092915050565b60006020820190508181036000830152612aaa8184612a1b565b905092915050565b612abb8161243c565b8114612ac657600080fd5b50565b600081359050612ad881612ab2565b92915050565b60008060408385031215612af557612af46123ad565b5b6000612b0385828601612603565b9250506020612b1485828601612ac9565b9150509250929050565b612b27816128ce565b82525050565b600061012082019050612b43600083018c612869565b612b50602083018b612869565b612b5d604083018a612869565b612b6a6060830189612869565b612b776080830188612869565b612b8460a0830187612b1e565b612b9160c0830186612869565b612b9e60e0830185612869565b818103610100830152612bb181846124d2565b90509a9950505050505050505050565b600067ffffffffffffffff821115612bdc57612bdb6126b5565b5b612be5826124c1565b9050602081019050919050565b6000612c05612c0084612bc1565b612715565b905082815260208101848484011115612c2157612c206126b0565b5b612c2c848285612761565b509392505050565b600082601f830112612c4957612c486126ab565b5b8135612c59848260208601612bf2565b91505092915050565b60008060008060808587031215612c7c57612c7b6123ad565b5b6000612c8a87828801612603565b9450506020612c9b87828801612603565b9350506040612cac8782880161254e565b925050606085013567ffffffffffffffff811115612ccd57612ccc6123b2565b5b612cd987828801612c34565b91505092959194509250565b60008060408385031215612cfc57612cfb6123ad565b5b6000612d0a85828601612603565b9250506020612d1b85828601612603565b9150509250929050565b7f4e487b7100000000000000000000000000000000000000000000000000000000600052602260045260246000fd5b60006002820490506001821680612d6c57607f821691505b60208210811415612d8057612d7f612d25565b5b50919050565b7f4552433732313a20617070726f76656420717565727920666f72206e6f6e657860008201527f697374656e7420746f6b656e0000000000000000000000000000000000000000602082015250565b6000612de2602c8361247d565b9150612ded82612d86565b604082019050919050565b60006020820190508181036000830152612e1181612dd5565b9050919050565b7f4552433732313a20617070726f76616c20746f2063757272656e74206f776e6560008201527f7200000000000000000000000000000000000000000000000000000000000000602082015250565b6000612e7460218361247d565b9150612e7f82612e18565b604082019050919050565b60006020820190508181036000830152612ea381612e67565b9050919050565b7f4552433732313a20617070726f76652063616c6c6572206973206e6f74206f7760008201527f6e6572206e6f7220617070726f76656420666f7220616c6c0000000000000000602082015250565b6000612f0660388361247d565b9150612f1182612eaa565b604082019050919050565b60006020820190508181036000830152612f3581612ef9565b9050919050565b7f4552433732313a207472616e736665722063616c6c6572206973206e6f74206f60008201527f776e6572206e6f7220617070726f766564000000000000000000000000000000602082015250565b6000612f9860318361247d565b9150612fa382612f3c565b604082019050919050565b60006020820190508181036000830152612fc781612f8b565b9050919050565b7f4f776e61626c653a2063616c6c6572206973206e6f7420746865206f776e6572600082015250565b600061300460208361247d565b915061300f82612fce565b602082019050919050565b6000602082019050818103600083015261303381612ff7565b9050919050565b7f4e487b7100000000000000000000000000000000000000000000000000000000600052603260045260246000fd5b7f4552433732313a206f776e657220717565727920666f72206e6f6e657869737460008201527f656e7420746f6b656e0000000000000000000000000000000000000000000000602082015250565b60006130c560298361247d565b91506130d082613069565b604082019050919050565b600060208201905081810360008301526130f4816130b8565b9050919050565b7f4552433732313a2062616c616e636520717565727920666f7220746865207a6560008201527f726f206164647265737300000000000000000000000000000000000000000000602082015250565b6000613157602a8361247d565b9150613162826130fb565b604082019050919050565b600060208201905081810360008301526131868161314a565b9050919050565b7f4552433732314d657461646174613a2055524920717565727920666f72206e6f60008201527f6e6578697374656e7420746f6b656e0000000000000000000000000000000000602082015250565b60006131e9602f8361247d565b91506131f48261318d565b604082019050919050565b60006020820190508181036000830152613218816131dc565b9050919050565b600081905092915050565b600061323582612472565b61323f818561321f565b935061324f81856020860161248e565b80840191505092915050565b6000613267828561322a565b9150613273828461322a565b91508190509392505050565b7f4e487b7100000000000000000000000000000000000000000000000000000000600052601160045260246000fd5b60006132b98261252d565b91507fffffffffffffffffffffffffffffffffffffffffffffffffffffffffffffffff8214156132ec576132eb61327f565b5b600182019050919050565b7f4f776e61626c653a206e6577206f776e657220697320746865207a65726f206160008201527f6464726573730000000000000000000000000000000000000000000000000000602082015250565b600061335360268361247d565b915061335e826132f7565b604082019050919050565b6000602082019050818103600083015261338281613346565b9050919050565b7f4552433732313a206f70657261746f7220717565727920666f72206e6f6e657860008201527f697374656e7420746f6b656e0000000000000000000000000000000000000000602082015250565b60006133e5602c8361247d565b91506133f082613389565b604082019050919050565b60006020820190508181036000830152613414816133d8565b9050919050565b7f4552433732313a207472616e73666572206f6620746f6b656e2074686174206960008201527f73206e6f74206f776e0000000000000000000000000000000000000000000000602082015250565b600061347760298361247d565b91506134828261341b565b604082019050919050565b600060208201905081810360008301526134a68161346a565b9050919050565b7f4552433732313a207472616e7366657220746f20746865207a65726f2061646460008201527f7265737300000000000000000000000000000000000000000000000000000000602082015250565b600061350960248361247d565b9150613514826134ad565b604082019050919050565b60006020820190508181036000830152613538816134fc565b9050919050565b600061354a8261252d565b91506135558361252d565b9250828210156135685761356761327f565b5b828203905092915050565b600061357e8261252d565b91506135898361252d565b9250827fffffffffffffffffffffffffffffffffffffffffffffffffffffffffffffffff038211156135be576135bd61327f565b5b828201905092915050565b6000819050919050565b6135e46135df8261252d565b6135c9565b82525050565b60006135f682846135d3565b60208201915081905092915050565b7f4e487b7100000000000000000000000000000000000000000000000000000000600052601260045260246000fd5b600061363f8261252d565b915061364a8361252d565b92508261365a57613659613605565b5b828206905092915050565b600060408201905061367a6000830185612869565b6136876020830184612869565b9392505050565b7f4552433732313a20617070726f766520746f2063616c6c657200000000000000600082015250565b60006136c460198361247d565b91506136cf8261368e565b602082019050919050565b600060208201905081810360008301526136f3816136b7565b9050919050565b7f4552433732313a207472616e7366657220746f206e6f6e20455243373231526560008201527f63656976657220696d706c656d656e7465720000000000000000000000000000602082015250565b600061375660328361247d565b9150613761826136fa565b604082019050919050565b6000602082019050818103600083015261378581613749565b9050919050565b60006137978261252d565b91506137a28361252d565b9250826137b2576137b1613605565b5b828204905092915050565b600081519050919050565b600082825260208201905092915050565b60006137e4826137bd565b6137ee81856137c8565b93506137fe81856020860161248e565b613807816124c1565b840191505092915050565b600060808201905061382760008301876125c2565b61383460208301866125c2565b6138416040830185612869565b818103606083015261385381846137d9565b905095945050505050565b60008151905061386d816123e3565b92915050565b600060208284031215613889576138886123ad565b5b60006138978482850161385e565b91505092915050565b7f4552433732313a206d696e7420746f20746865207a65726f2061646472657373600082015250565b60006138d660208361247d565b91506138e1826138a0565b602082019050919050565b60006020820190508181036000830152613905816138c9565b9050919050565b7f4552433732313a20746f6b656e20616c7265616479206d696e74656400000000600082015250565b6000613942601c8361247d565b915061394d8261390c565b602082019050919050565b6000602082019050818103600083015261397181613935565b905091905056fea2646970667358221220840f130158ef4e0ff6d61a6c457cae0e7cd43e923c079a6af0f026c95ef24bd164736f6c634300080a0033",
  "immutableReferences": {},
  "source": "// SPDX-License-Identifier: MIT\r\npragma solidity ^0.8.7;\r\nimport \"./IotaHeroGameTokens.sol\";\r\n\r\ncontract IotaHeroUtil is IotaHeroFactory {\r\n    function withdraw() external payable onlyOwner {\r\n        address payable _owner = payable(owner());\r\n        _owner.transfer(address(this).balance);\r\n    }\r\n\r\n    function getHeroes() public view returns (Hero[] memory) {\r\n        return heroes;\r\n    }\r\n\r\n    function getOwnerHeroes(address _owner)\r\n        public\r\n        view\r\n        returns (Hero[] memory)\r\n    {\r\n        Hero[] memory ownedHeroes = new Hero[](balanceOf(_owner));\r\n        uint256 c = 0;\r\n        for (uint256 i = 0; i < heroes.length; i++) {\r\n            if (ownerOf(i) == _owner) {\r\n                ownedHeroes[c] = heroes[i];\r\n                c++;\r\n            }\r\n        }\r\n        return ownedHeroes;\r\n    }\r\n}\r\n",
  "sourcePath": "C:\\Users\\creld\\source\\repos\\IotaHeroes\\contracts\\IotaHeroUtil.sol",
  "compiler": {
    "name": "solc",
    "version": "0.8.10+commit.fc410830.Emscripten.clang"
  },
  "schemaVersion": "3.4.4",
  "updatedAt": "2022-01-10T16:11:53.248Z",
  "devdoc": {
    "kind": "dev",
    "methods": {
      "approve(address,uint256)": {
        "details": "See {IERC721-approve}."
      },
      "balanceOf(address)": {
        "details": "See {IERC721-balanceOf}."
      },
      "getApproved(uint256)": {
        "details": "See {IERC721-getApproved}."
      },
      "isApprovedForAll(address,address)": {
        "details": "See {IERC721-isApprovedForAll}."
      },
      "name()": {
        "details": "See {IERC721Metadata-name}."
      },
      "owner()": {
        "details": "Returns the address of the current owner."
      },
      "ownerOf(uint256)": {
        "details": "See {IERC721-ownerOf}."
      },
      "renounceOwnership()": {
        "details": "Leaves the contract without owner. It will not be possible to call `onlyOwner` functions anymore. Can only be called by the current owner. NOTE: Renouncing ownership will leave the contract without an owner, thereby removing any functionality that is only available to the owner."
      },
      "safeTransferFrom(address,address,uint256)": {
        "details": "See {IERC721-safeTransferFrom}."
      },
      "safeTransferFrom(address,address,uint256,bytes)": {
        "details": "See {IERC721-safeTransferFrom}."
      },
      "setApprovalForAll(address,bool)": {
        "details": "See {IERC721-setApprovalForAll}."
      },
      "supportsInterface(bytes4)": {
        "details": "See {IERC165-supportsInterface}."
      },
      "symbol()": {
        "details": "See {IERC721Metadata-symbol}."
      },
      "tokenURI(uint256)": {
        "details": "See {IERC721Metadata-tokenURI}."
      },
      "transferFrom(address,address,uint256)": {
        "details": "See {IERC721-transferFrom}."
      },
      "transferOwnership(address)": {
        "details": "Transfers ownership of the contract to a new account (`newOwner`). Can only be called by the current owner."
      }
    },
    "version": 1
  },
  "userdoc": {
    "kind": "user",
    "methods": {},
    "version": 1
  }
}