{
  "contractName": "IotaHeroTrainingFacility",
  "abi": [
    {
      "anonymous": false,
      "inputs": [
        {
          "indexed": true,
          "internalType": "address",
          "name": "previousOwner",
          "type": "address"
        },
        {
          "indexed": true,
          "internalType": "address",
          "name": "newOwner",
          "type": "address"
        }
      ],
      "name": "OwnershipTransferred",
      "type": "event"
    },
    {
      "inputs": [
        {
          "internalType": "uint256",
          "name": "",
          "type": "uint256"
        }
      ],
      "name": "facilities",
      "outputs": [
        {
          "internalType": "uint32",
          "name": "id",
          "type": "uint32"
        },
        {
          "internalType": "string",
          "name": "name",
          "type": "string"
        },
        {
          "internalType": "uint256",
          "name": "consGain",
          "type": "uint256"
        },
        {
          "internalType": "uint256",
          "name": "strGain",
          "type": "uint256"
        },
        {
          "internalType": "uint256",
          "name": "agiGain",
          "type": "uint256"
        },
        {
          "internalType": "uint256",
          "name": "intGain",
          "type": "uint256"
        }
      ],
      "stateMutability": "view",
      "type": "function"
    },
    {
      "inputs": [],
      "name": "heroToken",
      "outputs": [
        {
          "internalType": "contract IotaHeroFactory",
          "name": "",
          "type": "address"
        }
      ],
      "stateMutability": "view",
      "type": "function"
    },
    {
      "inputs": [],
      "name": "owner",
      "outputs": [
        {
          "internalType": "address",
          "name": "",
          "type": "address"
        }
      ],
      "stateMutability": "view",
      "type": "function"
    },
    {
      "inputs": [],
      "name": "renounceOwnership",
      "outputs": [],
      "stateMutability": "nonpayable",
      "type": "function"
    },
    {
      "inputs": [
        {
          "internalType": "bytes4",
          "name": "interfaceId",
          "type": "bytes4"
        }
      ],
      "name": "supportsInterface",
      "outputs": [
        {
          "internalType": "bool",
          "name": "",
          "type": "bool"
        }
      ],
      "stateMutability": "view",
      "type": "function"
    },
    {
      "inputs": [],
      "name": "tokens",
      "outputs": [
        {
          "internalType": "contract IotaHeroGameTokens",
          "name": "",
          "type": "address"
        }
      ],
      "stateMutability": "view",
      "type": "function"
    },
    {
      "inputs": [
        {
          "internalType": "address",
          "name": "newOwner",
          "type": "address"
        }
      ],
      "name": "transferOwnership",
      "outputs": [],
      "stateMutability": "nonpayable",
      "type": "function"
    },
    {
      "inputs": [
        {
          "internalType": "address",
          "name": "upgrader",
          "type": "address"
        }
      ],
      "name": "getAddressCanUpgradeAt",
      "outputs": [
        {
          "internalType": "uint256",
          "name": "",
          "type": "uint256"
        }
      ],
      "stateMutability": "view",
      "type": "function"
    },
    {
      "inputs": [
        {
          "internalType": "address",
          "name": "tokensAddress",
          "type": "address"
        }
      ],
      "name": "setHeroTokens",
      "outputs": [],
      "stateMutability": "nonpayable",
      "type": "function"
    },
    {
      "inputs": [
        {
          "internalType": "address",
          "name": "tokensAddress",
          "type": "address"
        }
      ],
      "name": "setGameTokens",
      "outputs": [],
      "stateMutability": "nonpayable",
      "type": "function"
    },
    {
      "inputs": [
        {
          "internalType": "uint256",
          "name": "tokenId",
          "type": "uint256"
        }
      ],
      "name": "setCurrencyToken",
      "outputs": [],
      "stateMutability": "nonpayable",
      "type": "function"
    },
    {
      "inputs": [
        {
          "internalType": "uint256",
          "name": "price",
          "type": "uint256"
        }
      ],
      "name": "setBasePrice",
      "outputs": [],
      "stateMutability": "nonpayable",
      "type": "function"
    },
    {
      "inputs": [],
      "name": "getBasePrice",
      "outputs": [
        {
          "internalType": "uint256",
          "name": "",
          "type": "uint256"
        }
      ],
      "stateMutability": "view",
      "type": "function"
    },
    {
      "inputs": [],
      "name": "getUserFacilities",
      "outputs": [
        {
          "components": [
            {
              "internalType": "uint32",
              "name": "id",
              "type": "uint32"
            },
            {
              "internalType": "string",
              "name": "name",
              "type": "string"
            },
            {
              "internalType": "uint256",
              "name": "consGain",
              "type": "uint256"
            },
            {
              "internalType": "uint256",
              "name": "strGain",
              "type": "uint256"
            },
            {
              "internalType": "uint256",
              "name": "agiGain",
              "type": "uint256"
            },
            {
              "internalType": "uint256",
              "name": "intGain",
              "type": "uint256"
            }
          ],
          "internalType": "struct IotaHeroTrainingFacility.Facility[]",
          "name": "",
          "type": "tuple[]"
        }
      ],
      "stateMutability": "view",
      "type": "function"
    },
    {
      "inputs": [],
      "name": "getFacilitiesWithUserLevels",
      "outputs": [
        {
          "components": [
            {
              "internalType": "uint32",
              "name": "id",
              "type": "uint32"
            },
            {
              "internalType": "string",
              "name": "name",
              "type": "string"
            },
            {
              "internalType": "uint256",
              "name": "consGain",
              "type": "uint256"
            },
            {
              "internalType": "uint256",
              "name": "strGain",
              "type": "uint256"
            },
            {
              "internalType": "uint256",
              "name": "agiGain",
              "type": "uint256"
            },
            {
              "internalType": "uint256",
              "name": "intGain",
              "type": "uint256"
            }
          ],
          "internalType": "struct IotaHeroTrainingFacility.Facility[]",
          "name": "",
          "type": "tuple[]"
        },
        {
          "internalType": "uint32[]",
          "name": "",
          "type": "uint32[]"
        }
      ],
      "stateMutability": "view",
      "type": "function"
    },
    {
      "inputs": [
        {
          "internalType": "string",
          "name": "name",
          "type": "string"
        },
        {
          "internalType": "uint256",
          "name": "cons",
          "type": "uint256"
        },
        {
          "internalType": "uint256",
          "name": "str",
          "type": "uint256"
        },
        {
          "internalType": "uint256",
          "name": "agi",
          "type": "uint256"
        },
        {
          "internalType": "uint256",
          "name": "intel",
          "type": "uint256"
        }
      ],
      "name": "addFacility",
      "outputs": [],
      "stateMutability": "nonpayable",
      "type": "function"
    },
    {
      "inputs": [
        {
          "internalType": "uint32",
          "name": "id",
          "type": "uint32"
        }
      ],
      "name": "upgradeFacility",
      "outputs": [],
      "stateMutability": "nonpayable",
      "type": "function"
    },
    {
      "inputs": [
        {
          "internalType": "uint256",
          "name": "_heroId",
          "type": "uint256"
        },
        {
          "internalType": "uint32",
          "name": "_facilityId",
          "type": "uint32"
        }
      ],
      "name": "trainAtFacility",
      "outputs": [],
      "stateMutability": "nonpayable",
      "type": "function"
    },
    {
      "inputs": [
        {
          "internalType": "address",
          "name": "",
          "type": "address"
        },
        {
          "internalType": "address",
          "name": "",
          "type": "address"
        },
        {
          "internalType": "uint256",
          "name": "tokenId",
          "type": "uint256"
        },
        {
          "internalType": "uint256",
          "name": "amount",
          "type": "uint256"
        },
        {
          "internalType": "bytes",
          "name": "data",
          "type": "bytes"
        }
      ],
      "name": "onERC1155Received",
      "outputs": [
        {
          "internalType": "bytes4",
          "name": "",
          "type": "bytes4"
        }
      ],
      "stateMutability": "nonpayable",
      "type": "function"
    },
    {
      "inputs": [
        {
          "internalType": "address",
          "name": "",
          "type": "address"
        },
        {
          "internalType": "address",
          "name": "",
          "type": "address"
        },
        {
          "internalType": "uint256[]",
          "name": "ids",
          "type": "uint256[]"
        },
        {
          "internalType": "uint256[]",
          "name": "amounts",
          "type": "uint256[]"
        },
        {
          "internalType": "bytes",
          "name": "data",
          "type": "bytes"
        }
      ],
      "name": "onERC1155BatchReceived",
      "outputs": [
        {
          "internalType": "bytes4",
          "name": "",
          "type": "bytes4"
        }
      ],
      "stateMutability": "nonpayable",
      "type": "function"
    }
  ],
  "bytecode": "0x6080604052600a6004556000600560006101000a81548163ffffffff021916908363ffffffff160217905550603c600a55603c600b553480156200004257600080fd5b5062000063620000576200006960201b60201c565b6200007160201b60201c565b62000135565b600033905090565b60008060009054906101000a900473ffffffffffffffffffffffffffffffffffffffff169050816000806101000a81548173ffffffffffffffffffffffffffffffffffffffff021916908373ffffffffffffffffffffffffffffffffffffffff1602179055508173ffffffffffffffffffffffffffffffffffffffff168173ffffffffffffffffffffffffffffffffffffffff167f8be0079c531659141344cd1fd0a4f28419497f9722a3daafe3b4186f6b6457e060405160405180910390a35050565b61337080620001456000396000f3fe608060405234801561001057600080fd5b506004361061012c5760003560e01c80639d63848a116100ad578063bc197c8111610071578063bc197c8114610311578063c5c38d0314610341578063de4b32621461035d578063f23a6e6114610379578063f2fde38b146103a95761012c565b80639d63848a1461027f578063a688c0641461029d578063abc469ce146102b9578063b49f4afd146102d5578063bbca5715146102f35761012c565b8063667c63a3116100f4578063667c63a314610201578063715018a61461021d5780638581ef71146102275780638c7c2872146102455780638da5cb5b146102615761012c565b806301ffc9a7146101315780630975c2b61461016157806310d96759146101805780633e908621146101b55780634432bf9a146101e5575b600080fd5b61014b60048036038101906101469190611fa6565b6103c5565b6040516101589190611fee565b60405180910390f35b61016961043f565b6040516101779291906122d4565b60405180910390f35b61019a60048036038101906101959190612337565b61077a565b6040516101ac969594939291906123cc565b60405180910390f35b6101cf60048036038101906101ca9190612492565b61085e565b6040516101dc91906124bf565b60405180910390f35b6101ff60048036038101906101fa9190612337565b6108a7565b005b61021b6004803603810190610216919061253f565b61092d565b005b610225610b14565b005b61022f610b9c565b60405161023c91906125d9565b60405180910390f35b61025f600480360381019061025a9190612627565b610f10565b005b610269611335565b6040516102769190612676565b60405180910390f35b61028761135e565b60405161029491906126f0565b60405180910390f35b6102b760048036038101906102b29190612492565b611384565b005b6102d360048036038101906102ce919061270b565b611444565b005b6102dd6119cc565b6040516102ea91906124bf565b60405180910390f35b6102fb6119d6565b6040516103089190612759565b60405180910390f35b61032b60048036038101906103269190612967565b6119fc565b6040516103389190612a45565b60405180910390f35b61035b60048036038101906103569190612492565b611a11565b005b61037760048036038101906103729190612337565b611ad1565b005b610393600480360381019061038e9190612a60565b611b57565b6040516103a09190612a45565b60405180910390f35b6103c360048036038101906103be9190612492565b611b6c565b005b60007f4e2312e0000000000000000000000000000000000000000000000000000000007bffffffffffffffffffffffffffffffffffffffffffffffffffffffff1916827bffffffffffffffffffffffffffffffffffffffffffffffffffffffff19161480610438575061043782611c64565b5b9050919050565b60608060011515600160009054906101000a900473ffffffffffffffffffffffffffffffffffffffff1673ffffffffffffffffffffffffffffffffffffffff1663191d1cb46040518163ffffffff1660e01b8152600401602060405180830381865afa1580156104b3573d6000803e3d6000fd5b505050506040513d601f19601f820116820180604052508101906104d79190612b23565b151514610519576040517f08c379a000000000000000000000000000000000000000000000000000000000815260040161051090612b9c565b60405180910390fd5b6000600c8054905067ffffffffffffffff81111561053a57610539612774565b5b6040519080825280602002602001820160405280156105685781602001602082028036833780820191505090505b50905060005b600c805490508163ffffffff16101561063457600760003373ffffffffffffffffffffffffffffffffffffffff1673ffffffffffffffffffffffffffffffffffffffff16815260200190815260200160002060008263ffffffff1663ffffffff16815260200190815260200160002060009054906101000a900460ff1660ff16828263ffffffff168151811061060757610606612bbc565b5b602002602001019063ffffffff16908163ffffffff1681525050808061062c90612c1a565b91505061056e565b50600c8181805480602002602001604051908101604052809291908181526020016000905b8282101561076b57838290600052602060002090600602016040518060c00160405290816000820160009054906101000a900463ffffffff1663ffffffff1663ffffffff1681526020016001820180546106b290612c76565b80601f01602080910402602001604051908101604052809291908181526020018280546106de90612c76565b801561072b5780601f106107005761010080835404028352916020019161072b565b820191906000526020600020905b81548152906001019060200180831161070e57829003601f168201915b5050505050815260200160028201548152602001600382015481526020016004820154815260200160058201548152505081526020019060010190610659565b50505050915092509250509091565b600c818154811061078a57600080fd5b90600052602060002090600602016000915090508060000160009054906101000a900463ffffffff16908060010180546107c390612c76565b80601f01602080910402602001604051908101604052809291908181526020018280546107ef90612c76565b801561083c5780601f106108115761010080835404028352916020019161083c565b820191906000526020600020905b81548152906001019060200180831161081f57829003601f168201915b5050505050908060020154908060030154908060040154908060050154905086565b6000600860008373ffffffffffffffffffffffffffffffffffffffff1673ffffffffffffffffffffffffffffffffffffffff168152602001908152602001600020549050919050565b6108af611cce565b73ffffffffffffffffffffffffffffffffffffffff166108cd611335565b73ffffffffffffffffffffffffffffffffffffffff1614610923576040517f08c379a000000000000000000000000000000000000000000000000000000000815260040161091a90612cf4565b60405180910390fd5b8060038190555050565b610935611cce565b73ffffffffffffffffffffffffffffffffffffffff16610953611335565b73ffffffffffffffffffffffffffffffffffffffff16146109a9576040517f08c379a00000000000000000000000000000000000000000000000000000000081526004016109a090612cf4565b60405180910390fd5b600c6040518060c00160405280600560009054906101000a900463ffffffff1663ffffffff16815260200188888080601f016020809104026020016040519081016040528093929190818152602001838380828437600081840152601f19601f82011690508083019250505050505050815260200186815260200185815260200184815260200183815250908060018154018082558091505060019003906000526020600020906006020160009091909190915060008201518160000160006101000a81548163ffffffff021916908363ffffffff1602179055506020820151816001019080519060200190610aa0929190611e5b565b5060408201518160020155606082015181600301556080820151816004015560a0820151816005015550506005600081819054906101000a900463ffffffff1680929190610aed90612c1a565b91906101000a81548163ffffffff021916908363ffffffff16021790555050505050505050565b610b1c611cce565b73ffffffffffffffffffffffffffffffffffffffff16610b3a611335565b73ffffffffffffffffffffffffffffffffffffffff1614610b90576040517f08c379a0000000000000000000000000000000000000000000000000000000008152600401610b8790612cf4565b60405180910390fd5b610b9a6000611cd6565b565b606060011515600160009054906101000a900473ffffffffffffffffffffffffffffffffffffffff1673ffffffffffffffffffffffffffffffffffffffff1663191d1cb46040518163ffffffff1660e01b8152600401602060405180830381865afa158015610c0f573d6000803e3d6000fd5b505050506040513d601f19601f82011682018060405250810190610c339190612b23565b151514610c75576040517f08c379a0000000000000000000000000000000000000000000000000000000008152600401610c6c90612b9c565b60405180910390fd5b600080600660003373ffffffffffffffffffffffffffffffffffffffff1673ffffffffffffffffffffffffffffffffffffffff16815260200190815260200160002060009054906101000a900463ffffffff1663ffffffff1667ffffffffffffffff811115610ce757610ce6612774565b5b604051908082528060200260200182016040528015610d2057816020015b610d0d611ee1565b815260200190600190039081610d055790505b50905060005b600c805490508163ffffffff161015610f07576000600760003373ffffffffffffffffffffffffffffffffffffffff1673ffffffffffffffffffffffffffffffffffffffff16815260200190815260200160002060008363ffffffff1663ffffffff16815260200190815260200160002060009054906101000a900460ff1660ff161115610ef457600c8163ffffffff1681548110610dc857610dc7612bbc565b5b90600052602060002090600602016040518060c00160405290816000820160009054906101000a900463ffffffff1663ffffffff1663ffffffff168152602001600182018054610e1790612c76565b80601f0160208091040260200160405190810160405280929190818152602001828054610e4390612c76565b8015610e905780601f10610e6557610100808354040283529160200191610e90565b820191906000526020600020905b815481529060010190602001808311610e7357829003601f168201915b50505050508152602001600282015481526020016003820154815260200160048201548152602001600582015481525050828463ffffffff1681518110610eda57610ed9612bbc565b5b60200260200101819052508280610ef090612c1a565b9350505b8080610eff90612c1a565b915050610d26565b50809250505090565b60011515600160009054906101000a900473ffffffffffffffffffffffffffffffffffffffff1673ffffffffffffffffffffffffffffffffffffffff1663191d1cb46040518163ffffffff1660e01b8152600401602060405180830381865afa158015610f81573d6000803e3d6000fd5b505050506040513d601f19601f82011682018060405250810190610fa59190612b23565b151514610fe7576040517f08c379a0000000000000000000000000000000000000000000000000000000008152600401610fde90612b9c565b60405180910390fd5b81600160009054906101000a900473ffffffffffffffffffffffffffffffffffffffff1673ffffffffffffffffffffffffffffffffffffffff16636352211e826040518263ffffffff1660e01b815260040161104391906124bf565b602060405180830381865afa158015611060573d6000803e3d6000fd5b505050506040513d601f19601f820116820180604052508101906110849190612d29565b73ffffffffffffffffffffffffffffffffffffffff163373ffffffffffffffffffffffffffffffffffffffff16146110f1576040517f08c379a00000000000000000000000000000000000000000000000000000000081526004016110e890612da2565b60405180910390fd5b42600960008581526020019081526020016000205410611146576040517f08c379a000000000000000000000000000000000000000000000000000000000815260040161113d90612e0e565b60405180910390fd5b6000600760003373ffffffffffffffffffffffffffffffffffffffff1673ffffffffffffffffffffffffffffffffffffffff16815260200190815260200160002060008463ffffffff1663ffffffff16815260200190815260200160002060009054906101000a900460ff16905060008160ff16116111fa576040517f08c379a00000000000000000000000000000000000000000000000000000000081526004016111f190612ea0565b60405180910390fd5b6000600c8463ffffffff168154811061121657611215612bbc565b5b90600052602060002090600602019050600b54426112349190612ec0565b63ffffffff166009600087815260200190815260200160002081905550600160009054906101000a900473ffffffffffffffffffffffffffffffffffffffff1673ffffffffffffffffffffffffffffffffffffffff1663346a6ef4868460ff1684600201546112a39190612f16565b8560ff1685600301546112b69190612f16565b8660ff1686600401546112c99190612f16565b8760ff1687600501546112dc9190612f16565b6040518663ffffffff1660e01b81526004016112fc959493929190612f70565b600060405180830381600087803b15801561131657600080fd5b505af115801561132a573d6000803e3d6000fd5b505050505050505050565b60008060009054906101000a900473ffffffffffffffffffffffffffffffffffffffff16905090565b600260009054906101000a900473ffffffffffffffffffffffffffffffffffffffff1681565b61138c611cce565b73ffffffffffffffffffffffffffffffffffffffff166113aa611335565b73ffffffffffffffffffffffffffffffffffffffff1614611400576040517f08c379a00000000000000000000000000000000000000000000000000000000081526004016113f790612cf4565b60405180910390fd5b80600260006101000a81548173ffffffffffffffffffffffffffffffffffffffff021916908373ffffffffffffffffffffffffffffffffffffffff16021790555050565b60011515600160009054906101000a900473ffffffffffffffffffffffffffffffffffffffff1673ffffffffffffffffffffffffffffffffffffffff1663191d1cb46040518163ffffffff1660e01b8152600401602060405180830381865afa1580156114b5573d6000803e3d6000fd5b505050506040513d601f19601f820116820180604052508101906114d99190612b23565b15151461151b576040517f08c379a000000000000000000000000000000000000000000000000000000000815260040161151290612b9c565b60405180910390fd5b42600860003373ffffffffffffffffffffffffffffffffffffffff1673ffffffffffffffffffffffffffffffffffffffff168152602001908152602001600020541061156657600080fd5b600260009054906101000a900473ffffffffffffffffffffffffffffffffffffffff1673ffffffffffffffffffffffffffffffffffffffff1663e985e9c533306040518363ffffffff1660e01b81526004016115c3929190612fc3565b602060405180830381865afa1580156115e0573d6000803e3d6000fd5b505050506040513d601f19601f820116820180604052508101906116049190612b23565b611643576040517f08c379a000000000000000000000000000000000000000000000000000000000815260040161163a90613038565b60405180910390fd5b6000600760003373ffffffffffffffffffffffffffffffffffffffff1673ffffffffffffffffffffffffffffffffffffffff16815260200190815260200160002060008363ffffffff1663ffffffff16815260200190815260200160002060009054906101000a900460ff16905060ff8160ff16106116f7576040517f08c379a00000000000000000000000000000000000000000000000000000000081526004016116ee906130a4565b60405180910390fd5b61172033600354600454600161170d9190612f16565b8460ff1661171b9190612ec0565b611d9a565b61175f576040517f08c379a000000000000000000000000000000000000000000000000000000000815260040161175690613110565b60405180910390fd5b60008160ff161415611825576001600660003373ffffffffffffffffffffffffffffffffffffffff1673ffffffffffffffffffffffffffffffffffffffff16815260200190815260200160002060009054906101000a900463ffffffff166117c79190613130565b600660003373ffffffffffffffffffffffffffffffffffffffff1673ffffffffffffffffffffffffffffffffffffffff16815260200190815260200160002060006101000a81548163ffffffff021916908363ffffffff1602179055505b600260009054906101000a900473ffffffffffffffffffffffffffffffffffffffff1673ffffffffffffffffffffffffffffffffffffffff1663f242432a33306003546004546001876118789190613177565b60ff166118859190612f16565b6040518563ffffffff1660e01b81526004016118a494939291906131e5565b600060405180830381600087803b1580156118be57600080fd5b505af11580156118d2573d6000803e3d6000fd5b50505050600a546001826118e69190613177565b60ff166118f39190612f16565b426118fe9190612ec0565b63ffffffff16600860003373ffffffffffffffffffffffffffffffffffffffff1673ffffffffffffffffffffffffffffffffffffffff168152602001908152602001600020819055506001816119549190613177565b600760003373ffffffffffffffffffffffffffffffffffffffff1673ffffffffffffffffffffffffffffffffffffffff16815260200190815260200160002060008463ffffffff1663ffffffff16815260200190815260200160002060006101000a81548160ff021916908360ff1602179055505050565b6000600454905090565b600160009054906101000a900473ffffffffffffffffffffffffffffffffffffffff1681565b600063bc197c8160e01b905095945050505050565b611a19611cce565b73ffffffffffffffffffffffffffffffffffffffff16611a37611335565b73ffffffffffffffffffffffffffffffffffffffff1614611a8d576040517f08c379a0000000000000000000000000000000000000000000000000000000008152600401611a8490612cf4565b60405180910390fd5b80600160006101000a81548173ffffffffffffffffffffffffffffffffffffffff021916908373ffffffffffffffffffffffffffffffffffffffff16021790555050565b611ad9611cce565b73ffffffffffffffffffffffffffffffffffffffff16611af7611335565b73ffffffffffffffffffffffffffffffffffffffff1614611b4d576040517f08c379a0000000000000000000000000000000000000000000000000000000008152600401611b4490612cf4565b60405180910390fd5b8060048190555050565b600063f23a6e6160e01b905095945050505050565b611b74611cce565b73ffffffffffffffffffffffffffffffffffffffff16611b92611335565b73ffffffffffffffffffffffffffffffffffffffff1614611be8576040517f08c379a0000000000000000000000000000000000000000000000000000000008152600401611bdf90612cf4565b60405180910390fd5b600073ffffffffffffffffffffffffffffffffffffffff168173ffffffffffffffffffffffffffffffffffffffff161415611c58576040517f08c379a0000000000000000000000000000000000000000000000000000000008152600401611c4f906132af565b60405180910390fd5b611c6181611cd6565b50565b60007f01ffc9a7000000000000000000000000000000000000000000000000000000007bffffffffffffffffffffffffffffffffffffffffffffffffffffffff1916827bffffffffffffffffffffffffffffffffffffffffffffffffffffffff1916149050919050565b600033905090565b60008060009054906101000a900473ffffffffffffffffffffffffffffffffffffffff169050816000806101000a81548173ffffffffffffffffffffffffffffffffffffffff021916908373ffffffffffffffffffffffffffffffffffffffff1602179055508173ffffffffffffffffffffffffffffffffffffffff168173ffffffffffffffffffffffffffffffffffffffff167f8be0079c531659141344cd1fd0a4f28419497f9722a3daafe3b4186f6b6457e060405160405180910390a35050565b600080600260009054906101000a900473ffffffffffffffffffffffffffffffffffffffff1673ffffffffffffffffffffffffffffffffffffffff1662fdd58e86866040518363ffffffff1660e01b8152600401611df99291906132cf565b602060405180830381865afa158015611e16573d6000803e3d6000fd5b505050506040513d601f19601f82011682018060405250810190611e3a919061330d565b905082811015611e4e576000915050611e54565b60019150505b9392505050565b828054611e6790612c76565b90600052602060002090601f016020900481019282611e895760008555611ed0565b82601f10611ea257805160ff1916838001178555611ed0565b82800160010185558215611ed0579182015b82811115611ecf578251825591602001919060010190611eb4565b5b509050611edd9190611f1d565b5090565b6040518060c00160405280600063ffffffff16815260200160608152602001600081526020016000815260200160008152602001600081525090565b5b80821115611f36576000816000905550600101611f1e565b5090565b6000604051905090565b600080fd5b600080fd5b60007fffffffff0000000000000000000000000000000000000000000000000000000082169050919050565b611f8381611f4e565b8114611f8e57600080fd5b50565b600081359050611fa081611f7a565b92915050565b600060208284031215611fbc57611fbb611f44565b5b6000611fca84828501611f91565b91505092915050565b60008115159050919050565b611fe881611fd3565b82525050565b60006020820190506120036000830184611fdf565b92915050565b600081519050919050565b600082825260208201905092915050565b6000819050602082019050919050565b600063ffffffff82169050919050565b61204e81612035565b82525050565b600081519050919050565b600082825260208201905092915050565b60005b8381101561208e578082015181840152602081019050612073565b8381111561209d576000848401525b50505050565b6000601f19601f8301169050919050565b60006120bf82612054565b6120c9818561205f565b93506120d9818560208601612070565b6120e2816120a3565b840191505092915050565b6000819050919050565b612100816120ed565b82525050565b600060c08301600083015161211e6000860182612045565b506020830151848203602086015261213682826120b4565b915050604083015161214b60408601826120f7565b50606083015161215e60608601826120f7565b50608083015161217160808601826120f7565b5060a083015161218460a08601826120f7565b508091505092915050565b600061219b8383612106565b905092915050565b6000602082019050919050565b60006121bb82612009565b6121c58185612014565b9350836020820285016121d785612025565b8060005b8581101561221357848403895281516121f4858261218f565b94506121ff836121a3565b925060208a019950506001810190506121db565b50829750879550505050505092915050565b600081519050919050565b600082825260208201905092915050565b6000819050602082019050919050565b600061225d8383612045565b60208301905092915050565b6000602082019050919050565b600061228182612225565b61228b8185612230565b935061229683612241565b8060005b838110156122c75781516122ae8882612251565b97506122b983612269565b92505060018101905061229a565b5085935050505092915050565b600060408201905081810360008301526122ee81856121b0565b905081810360208301526123028184612276565b90509392505050565b612314816120ed565b811461231f57600080fd5b50565b6000813590506123318161230b565b92915050565b60006020828403121561234d5761234c611f44565b5b600061235b84828501612322565b91505092915050565b61236d81612035565b82525050565b600082825260208201905092915050565b600061238f82612054565b6123998185612373565b93506123a9818560208601612070565b6123b2816120a3565b840191505092915050565b6123c6816120ed565b82525050565b600060c0820190506123e16000830189612364565b81810360208301526123f38188612384565b905061240260408301876123bd565b61240f60608301866123bd565b61241c60808301856123bd565b61242960a08301846123bd565b979650505050505050565b600073ffffffffffffffffffffffffffffffffffffffff82169050919050565b600061245f82612434565b9050919050565b61246f81612454565b811461247a57600080fd5b50565b60008135905061248c81612466565b92915050565b6000602082840312156124a8576124a7611f44565b5b60006124b68482850161247d565b91505092915050565b60006020820190506124d460008301846123bd565b92915050565b600080fd5b600080fd5b600080fd5b60008083601f8401126124ff576124fe6124da565b5b8235905067ffffffffffffffff81111561251c5761251b6124df565b5b602083019150836001820283011115612538576125376124e4565b5b9250929050565b60008060008060008060a0878903121561255c5761255b611f44565b5b600087013567ffffffffffffffff81111561257a57612579611f49565b5b61258689828a016124e9565b9650965050602061259989828a01612322565b94505060406125aa89828a01612322565b93505060606125bb89828a01612322565b92505060806125cc89828a01612322565b9150509295509295509295565b600060208201905081810360008301526125f381846121b0565b905092915050565b61260481612035565b811461260f57600080fd5b50565b600081359050612621816125fb565b92915050565b6000806040838503121561263e5761263d611f44565b5b600061264c85828601612322565b925050602061265d85828601612612565b9150509250929050565b61267081612454565b82525050565b600060208201905061268b6000830184612667565b92915050565b6000819050919050565b60006126b66126b16126ac84612434565b612691565b612434565b9050919050565b60006126c88261269b565b9050919050565b60006126da826126bd565b9050919050565b6126ea816126cf565b82525050565b600060208201905061270560008301846126e1565b92915050565b60006020828403121561272157612720611f44565b5b600061272f84828501612612565b91505092915050565b6000612743826126bd565b9050919050565b61275381612738565b82525050565b600060208201905061276e600083018461274a565b92915050565b7f4e487b7100000000000000000000000000000000000000000000000000000000600052604160045260246000fd5b6127ac826120a3565b810181811067ffffffffffffffff821117156127cb576127ca612774565b5b80604052505050565b60006127de611f3a565b90506127ea82826127a3565b919050565b600067ffffffffffffffff82111561280a57612809612774565b5b602082029050602081019050919050565b600061282e612829846127ef565b6127d4565b90508083825260208201905060208402830185811115612851576128506124e4565b5b835b8181101561287a57806128668882612322565b845260208401935050602081019050612853565b5050509392505050565b600082601f830112612899576128986124da565b5b81356128a984826020860161281b565b91505092915050565b600080fd5b600067ffffffffffffffff8211156128d2576128d1612774565b5b6128db826120a3565b9050602081019050919050565b82818337600083830152505050565b600061290a612905846128b7565b6127d4565b905082815260208101848484011115612926576129256128b2565b5b6129318482856128e8565b509392505050565b600082601f83011261294e5761294d6124da565b5b813561295e8482602086016128f7565b91505092915050565b600080600080600060a0868803121561298357612982611f44565b5b60006129918882890161247d565b95505060206129a28882890161247d565b945050604086013567ffffffffffffffff8111156129c3576129c2611f49565b5b6129cf88828901612884565b935050606086013567ffffffffffffffff8111156129f0576129ef611f49565b5b6129fc88828901612884565b925050608086013567ffffffffffffffff811115612a1d57612a1c611f49565b5b612a2988828901612939565b9150509295509295909350565b612a3f81611f4e565b82525050565b6000602082019050612a5a6000830184612a36565b92915050565b600080600080600060a08688031215612a7c57612a7b611f44565b5b6000612a8a8882890161247d565b9550506020612a9b8882890161247d565b9450506040612aac88828901612322565b9350506060612abd88828901612322565b925050608086013567ffffffffffffffff811115612ade57612add611f49565b5b612aea88828901612939565b9150509295509295909350565b612b0081611fd3565b8114612b0b57600080fd5b50565b600081519050612b1d81612af7565b92915050565b600060208284031215612b3957612b38611f44565b5b6000612b4784828501612b0e565b91505092915050565b7f6e6f206163636f756e7400000000000000000000000000000000000000000000600082015250565b6000612b86600a83612373565b9150612b9182612b50565b602082019050919050565b60006020820190508181036000830152612bb581612b79565b9050919050565b7f4e487b7100000000000000000000000000000000000000000000000000000000600052603260045260246000fd5b7f4e487b7100000000000000000000000000000000000000000000000000000000600052601160045260246000fd5b6000612c2582612035565b915063ffffffff821415612c3c57612c3b612beb565b5b600182019050919050565b7f4e487b7100000000000000000000000000000000000000000000000000000000600052602260045260246000fd5b60006002820490506001821680612c8e57607f821691505b60208210811415612ca257612ca1612c47565b5b50919050565b7f4f776e61626c653a2063616c6c6572206973206e6f7420746865206f776e6572600082015250565b6000612cde602083612373565b9150612ce982612ca8565b602082019050919050565b60006020820190508181036000830152612d0d81612cd1565b9050919050565b600081519050612d2381612466565b92915050565b600060208284031215612d3f57612d3e611f44565b5b6000612d4d84828501612d14565b91505092915050565b7f6e6f74206865726f206f776e6572000000000000000000000000000000000000600082015250565b6000612d8c600e83612373565b9150612d9782612d56565b602082019050919050565b60006020820190508181036000830152612dbb81612d7f565b9050919050565b7f4865726f206973206e6f7420726561647920746f20747261696e207965742e2e600082015250565b6000612df8602083612373565b9150612e0382612dc2565b602082019050919050565b60006020820190508181036000830152612e2781612deb565b9050919050565b7f596f7520686176656e27742063726561746564207468697320666163696c697460008201527f7920796574000000000000000000000000000000000000000000000000000000602082015250565b6000612e8a602583612373565b9150612e9582612e2e565b604082019050919050565b60006020820190508181036000830152612eb981612e7d565b9050919050565b6000612ecb826120ed565b9150612ed6836120ed565b9250827fffffffffffffffffffffffffffffffffffffffffffffffffffffffffffffffff03821115612f0b57612f0a612beb565b5b828201905092915050565b6000612f21826120ed565b9150612f2c836120ed565b9250817fffffffffffffffffffffffffffffffffffffffffffffffffffffffffffffffff0483118215151615612f6557612f64612beb565b5b828202905092915050565b600060a082019050612f8560008301886123bd565b612f9260208301876123bd565b612f9f60408301866123bd565b612fac60608301856123bd565b612fb960808301846123bd565b9695505050505050565b6000604082019050612fd86000830185612667565b612fe56020830184612667565b9392505050565b7f596f75206d75737420617070726f766520666972737400000000000000000000600082015250565b6000613022601683612373565b915061302d82612fec565b602082019050919050565b6000602082019050818103600083015261305181613015565b9050919050565b7f466163696c69747920697320616c7265616479206d6178206c6576656c000000600082015250565b600061308e601d83612373565b915061309982613058565b602082019050919050565b600060208201905081810360008301526130bd81613081565b9050919050565b7f696e73756666696369656e7420746f6b656e7300000000000000000000000000600082015250565b60006130fa601383612373565b9150613105826130c4565b602082019050919050565b60006020820190508181036000830152613129816130ed565b9050919050565b600061313b82612035565b915061314683612035565b92508263ffffffff0382111561315f5761315e612beb565b5b828201905092915050565b600060ff82169050919050565b60006131828261316a565b915061318d8361316a565b92508260ff038211156131a3576131a2612beb565b5b828201905092915050565b600082825260208201905092915050565b50565b60006131cf6000836131ae565b91506131da826131bf565b600082019050919050565b600060a0820190506131fa6000830187612667565b6132076020830186612667565b61321460408301856123bd565b61322160608301846123bd565b8181036080830152613232816131c2565b905095945050505050565b7f4f776e61626c653a206e6577206f776e657220697320746865207a65726f206160008201527f6464726573730000000000000000000000000000000000000000000000000000602082015250565b6000613299602683612373565b91506132a48261323d565b604082019050919050565b600060208201905081810360008301526132c88161328c565b9050919050565b60006040820190506132e46000830185612667565b6132f160208301846123bd565b9392505050565b6000815190506133078161230b565b92915050565b60006020828403121561332357613322611f44565b5b6000613331848285016132f8565b9150509291505056fea26469706673582212202ee4860aaa9693a9d810157260df6262127f2c9a8653830153f7bcd20aa2778164736f6c634300080a0033",
  "immutableReferences": {},
  "source": "// SPDX-License-Identifier: MIT\r\npragma solidity ^0.8.7;\r\nimport \"@openzeppelin/contracts/access/Ownable.sol\";\r\nimport \"@openzeppelin/contracts/token/ERC1155/utils/ERC1155Receiver.sol\";\r\n\r\nimport \"./IotaHeroFactory.sol\";\r\n\r\ncontract IotaHeroTrainingFacility is Ownable, ERC1155Receiver {\r\n    IotaHeroFactory public heroToken;\r\n    IotaHeroGameTokens public tokens;\r\n\r\n    uint256 currencyTokenId;\r\n    uint256 basePrice = 10;\r\n    uint32 facilityCounter = 0;\r\n    mapping(address => uint32) addressToFacilitiesCount;\r\n    mapping(address => mapping(uint32 => uint8)) addressToFacilityLevel;\r\n    mapping(address => uint256) addressUpgradeCooldown;\r\n    mapping(uint256 => uint256) heroIsReadyToTrainAt;\r\n    uint256 baseUpgradeCooldown = 60 seconds;\r\n    uint256 trainingCooldown = 60 seconds;\r\n\r\n    struct Facility {\r\n        uint32 id;\r\n        string name;\r\n        uint256 consGain;\r\n        uint256 strGain;\r\n        uint256 agiGain;\r\n        uint256 intGain;\r\n    }\r\n\r\n    Facility[] public facilities;\r\n\r\n    modifier readyToUpgrade() {\r\n        require(addressUpgradeCooldown[msg.sender] < block.timestamp);\r\n        _;\r\n    }\r\n\r\n    function getAddressCanUpgradeAt(address upgrader)\r\n        external\r\n        view\r\n        returns (uint256)\r\n    {\r\n        return addressUpgradeCooldown[upgrader];\r\n    }\r\n\r\n    function setHeroTokens(address tokensAddress) external onlyOwner {\r\n        heroToken = IotaHeroFactory(tokensAddress);\r\n    }\r\n\r\n    function setGameTokens(address tokensAddress) external onlyOwner {\r\n        tokens = IotaHeroGameTokens(tokensAddress);\r\n    }\r\n\r\n    function setCurrencyToken(uint256 tokenId) external onlyOwner {\r\n        currencyTokenId = tokenId;\r\n    }\r\n\r\n    function setBasePrice(uint256 price) external onlyOwner {\r\n        basePrice = price;\r\n    }\r\n\r\n    function getBasePrice() external view returns (uint256) {\r\n        return basePrice;\r\n    }\r\n\r\n    function getUserFacilities()\r\n        external\r\n        view\r\n        hasAccount\r\n        returns (Facility[] memory)\r\n    {\r\n        uint32 c;\r\n        Facility[] memory ownedFacilities = new Facility[](\r\n            addressToFacilitiesCount[msg.sender]\r\n        );\r\n        for (uint32 i; i < facilities.length; i++) {\r\n            if (addressToFacilityLevel[msg.sender][i] > 0) {\r\n                ownedFacilities[c] = facilities[i];\r\n                c++;\r\n            }\r\n        }\r\n        return ownedFacilities;\r\n    }\r\n\r\n    function getFacilitiesWithUserLevels()\r\n        external\r\n        view\r\n        hasAccount\r\n        returns (Facility[] memory, uint32[] memory)\r\n    {\r\n        uint32[] memory levels = new uint32[](facilities.length);\r\n        for (uint32 i; i < facilities.length; i++) {\r\n            levels[i] = addressToFacilityLevel[msg.sender][i];\r\n        }\r\n        return (facilities, levels);\r\n    }\r\n\r\n    function addFacility(\r\n        string calldata name,\r\n        uint256 cons,\r\n        uint256 str,\r\n        uint256 agi,\r\n        uint256 intel\r\n    ) public onlyOwner {\r\n        facilities.push(Facility(facilityCounter, name, cons, str, agi, intel));\r\n        facilityCounter++;\r\n    }\r\n\r\n    modifier onlyHeroOwner(uint256 _heroId) {\r\n        require(msg.sender == heroToken.ownerOf(_heroId), \"not hero owner\");\r\n        _;\r\n    }\r\n    modifier hasAccount() {\r\n        require(heroToken.isSignedUp() == true, \"no account\");\r\n        _;\r\n    }\r\n\r\n    function _checkBalance(\r\n        address addr,\r\n        uint256 tokenId,\r\n        uint256 requiredAmount\r\n    ) internal view returns (bool) {\r\n        uint256 balanceAtAddr = tokens.balanceOf(addr, tokenId);\r\n        if (balanceAtAddr < requiredAmount) {\r\n            return false;\r\n        }\r\n        return true;\r\n    }\r\n\r\n    function upgradeFacility(uint32 id) public hasAccount readyToUpgrade {\r\n        require(\r\n            tokens.isApprovedForAll(msg.sender, address(this)),\r\n            \"You must approve first\"\r\n        );\r\n        uint8 currentLevel = addressToFacilityLevel[msg.sender][id];\r\n        require(currentLevel < 255, \"Facility is already max level\");\r\n\r\n        require(\r\n            _checkBalance(\r\n                msg.sender,\r\n                currencyTokenId,\r\n                currentLevel + 1 * basePrice\r\n            ),\r\n            \"insufficient tokens\"\r\n        );\r\n\r\n        if (currentLevel == 0) {\r\n            addressToFacilitiesCount[msg.sender] =\r\n                addressToFacilitiesCount[msg.sender] +\r\n                1;\r\n        }\r\n        tokens.safeTransferFrom(\r\n            msg.sender,\r\n            address(this),\r\n            currencyTokenId,\r\n            (currentLevel + 1) * basePrice,\r\n            \"\"\r\n        );\r\n        addressUpgradeCooldown[msg.sender] = uint32(\r\n            block.timestamp + (currentLevel + 1) * baseUpgradeCooldown\r\n        );\r\n        addressToFacilityLevel[msg.sender][id] = currentLevel + 1;\r\n    }\r\n\r\n    function trainAtFacility(uint256 _heroId, uint32 _facilityId)\r\n        external\r\n        hasAccount\r\n        onlyHeroOwner(_heroId)\r\n    {\r\n        require(\r\n            heroIsReadyToTrainAt[_heroId] < block.timestamp,\r\n            \"Hero is not ready to train yet..\"\r\n        );\r\n        uint8 facilityLevel = addressToFacilityLevel[msg.sender][_facilityId];\r\n        require(facilityLevel > 0, \"You haven't created this facility yet\");\r\n        Facility storage facility = facilities[_facilityId];\r\n        heroIsReadyToTrainAt[_heroId] = uint32(\r\n            block.timestamp + trainingCooldown\r\n        );\r\n        heroToken.skillUp(\r\n            _heroId,\r\n            facility.consGain * facilityLevel,\r\n            facility.strGain * facilityLevel,\r\n            facility.agiGain * facilityLevel,\r\n            facility.intGain * facilityLevel\r\n        );\r\n    }\r\n\r\n    function onERC1155Received(\r\n        address,\r\n        address,\r\n        uint256 tokenId,\r\n        uint256 amount,\r\n        bytes memory data\r\n    ) public virtual override returns (bytes4) {\r\n        return this.onERC1155Received.selector;\r\n    }\r\n\r\n    function onERC1155BatchReceived(\r\n        address,\r\n        address,\r\n        uint256[] memory ids,\r\n        uint256[] memory amounts,\r\n        bytes memory data\r\n    ) public virtual override returns (bytes4) {\r\n        return this.onERC1155BatchReceived.selector;\r\n    }\r\n}\r\n",
  "sourcePath": "C:\\Users\\creld\\source\\repos\\IotaHeroesAzure\\smartcontracts\\contracts\\IotaHeroTrainingFacility.sol",
  "compiler": {
    "name": "solc",
    "version": "0.8.10+commit.fc410830.Emscripten.clang"
  },
  "schemaVersion": "3.4.4",
  "updatedAt": "2022-02-05T12:52:37.322Z",
  "devdoc": {
    "kind": "dev",
    "methods": {
      "owner()": {
        "details": "Returns the address of the current owner."
      },
      "renounceOwnership()": {
        "details": "Leaves the contract without owner. It will not be possible to call `onlyOwner` functions anymore. Can only be called by the current owner. NOTE: Renouncing ownership will leave the contract without an owner, thereby removing any functionality that is only available to the owner."
      },
      "supportsInterface(bytes4)": {
        "details": "See {IERC165-supportsInterface}."
      },
      "transferOwnership(address)": {
        "details": "Transfers ownership of the contract to a new account (`newOwner`). Can only be called by the current owner."
      }
    },
    "version": 1
  },
  "userdoc": {
    "kind": "user",
    "methods": {},
    "version": 1
  }
}