{
  "contractName": "IotaHeroAdventure",
  "abi": [
    {
      "anonymous": false,
      "inputs": [
        {
          "indexed": true,
          "internalType": "address",
          "name": "player",
          "type": "address"
        },
        {
          "indexed": true,
          "internalType": "uint256",
          "name": "heroId",
          "type": "uint256"
        },
        {
          "indexed": false,
          "internalType": "string",
          "name": "name",
          "type": "string"
        },
        {
          "indexed": false,
          "internalType": "enum IotaHeroAdventure.AdventureType",
          "name": "adventureType",
          "type": "uint8"
        },
        {
          "indexed": false,
          "internalType": "uint256",
          "name": "rand",
          "type": "uint256"
        }
      ],
      "name": "AdventureCompleted",
      "type": "event"
    },
    {
      "anonymous": false,
      "inputs": [
        {
          "indexed": true,
          "internalType": "address",
          "name": "owner",
          "type": "address"
        },
        {
          "indexed": true,
          "internalType": "address",
          "name": "approved",
          "type": "address"
        },
        {
          "indexed": true,
          "internalType": "uint256",
          "name": "tokenId",
          "type": "uint256"
        }
      ],
      "name": "Approval",
      "type": "event"
    },
    {
      "anonymous": false,
      "inputs": [
        {
          "indexed": true,
          "internalType": "address",
          "name": "owner",
          "type": "address"
        },
        {
          "indexed": true,
          "internalType": "address",
          "name": "operator",
          "type": "address"
        },
        {
          "indexed": false,
          "internalType": "bool",
          "name": "approved",
          "type": "bool"
        }
      ],
      "name": "ApprovalForAll",
      "type": "event"
    },
    {
      "anonymous": false,
      "inputs": [
        {
          "indexed": true,
          "internalType": "address",
          "name": "owner",
          "type": "address"
        },
        {
          "indexed": false,
          "internalType": "uint256",
          "name": "id",
          "type": "uint256"
        },
        {
          "indexed": false,
          "internalType": "uint256",
          "name": "dna",
          "type": "uint256"
        }
      ],
      "name": "HeroMinted",
      "type": "event"
    },
    {
      "anonymous": false,
      "inputs": [
        {
          "indexed": true,
          "internalType": "address",
          "name": "previousOwner",
          "type": "address"
        },
        {
          "indexed": true,
          "internalType": "address",
          "name": "newOwner",
          "type": "address"
        }
      ],
      "name": "OwnershipTransferred",
      "type": "event"
    },
    {
      "anonymous": false,
      "inputs": [
        {
          "indexed": true,
          "internalType": "address",
          "name": "from",
          "type": "address"
        },
        {
          "indexed": true,
          "internalType": "address",
          "name": "to",
          "type": "address"
        },
        {
          "indexed": true,
          "internalType": "uint256",
          "name": "tokenId",
          "type": "uint256"
        }
      ],
      "name": "Transfer",
      "type": "event"
    },
    {
      "inputs": [
        {
          "internalType": "uint256",
          "name": "",
          "type": "uint256"
        }
      ],
      "name": "adventures",
      "outputs": [
        {
          "internalType": "uint256",
          "name": "id",
          "type": "uint256"
        },
        {
          "internalType": "string",
          "name": "name",
          "type": "string"
        },
        {
          "internalType": "uint256",
          "name": "xpRequirement",
          "type": "uint256"
        },
        {
          "internalType": "uint8",
          "name": "difficulty",
          "type": "uint8"
        },
        {
          "internalType": "string",
          "name": "description",
          "type": "string"
        },
        {
          "internalType": "enum IotaHeroAdventure.AdventureType",
          "name": "adventureType",
          "type": "uint8"
        }
      ],
      "stateMutability": "view",
      "type": "function",
      "constant": true
    },
    {
      "inputs": [
        {
          "internalType": "address",
          "name": "to",
          "type": "address"
        },
        {
          "internalType": "uint256",
          "name": "tokenId",
          "type": "uint256"
        }
      ],
      "name": "approve",
      "outputs": [],
      "stateMutability": "nonpayable",
      "type": "function"
    },
    {
      "inputs": [
        {
          "internalType": "address",
          "name": "owner",
          "type": "address"
        }
      ],
      "name": "balanceOf",
      "outputs": [
        {
          "internalType": "uint256",
          "name": "",
          "type": "uint256"
        }
      ],
      "stateMutability": "view",
      "type": "function",
      "constant": true
    },
    {
      "inputs": [
        {
          "internalType": "uint256",
          "name": "tokenId",
          "type": "uint256"
        }
      ],
      "name": "getApproved",
      "outputs": [
        {
          "internalType": "address",
          "name": "",
          "type": "address"
        }
      ],
      "stateMutability": "view",
      "type": "function",
      "constant": true
    },
    {
      "inputs": [],
      "name": "getHeroes",
      "outputs": [
        {
          "components": [
            {
              "internalType": "uint256",
              "name": "id",
              "type": "uint256"
            },
            {
              "internalType": "uint256",
              "name": "dna",
              "type": "uint256"
            },
            {
              "internalType": "uint256",
              "name": "xp",
              "type": "uint256"
            },
            {
              "internalType": "uint256",
              "name": "mental",
              "type": "uint256"
            },
            {
              "internalType": "uint256",
              "name": "physical",
              "type": "uint256"
            },
            {
              "internalType": "uint16",
              "name": "level",
              "type": "uint16"
            },
            {
              "internalType": "uint256",
              "name": "restingTill",
              "type": "uint256"
            },
            {
              "internalType": "uint256",
              "name": "debug",
              "type": "uint256"
            },
            {
              "internalType": "string",
              "name": "name",
              "type": "string"
            }
          ],
          "internalType": "struct IotaHeroFactory.Hero[]",
          "name": "",
          "type": "tuple[]"
        }
      ],
      "stateMutability": "view",
      "type": "function",
      "constant": true
    },
    {
      "inputs": [
        {
          "internalType": "address",
          "name": "_owner",
          "type": "address"
        }
      ],
      "name": "getOwnerHeroes",
      "outputs": [
        {
          "components": [
            {
              "internalType": "uint256",
              "name": "id",
              "type": "uint256"
            },
            {
              "internalType": "uint256",
              "name": "dna",
              "type": "uint256"
            },
            {
              "internalType": "uint256",
              "name": "xp",
              "type": "uint256"
            },
            {
              "internalType": "uint256",
              "name": "mental",
              "type": "uint256"
            },
            {
              "internalType": "uint256",
              "name": "physical",
              "type": "uint256"
            },
            {
              "internalType": "uint16",
              "name": "level",
              "type": "uint16"
            },
            {
              "internalType": "uint256",
              "name": "restingTill",
              "type": "uint256"
            },
            {
              "internalType": "uint256",
              "name": "debug",
              "type": "uint256"
            },
            {
              "internalType": "string",
              "name": "name",
              "type": "string"
            }
          ],
          "internalType": "struct IotaHeroFactory.Hero[]",
          "name": "",
          "type": "tuple[]"
        }
      ],
      "stateMutability": "view",
      "type": "function",
      "constant": true
    },
    {
      "inputs": [
        {
          "internalType": "uint256",
          "name": "",
          "type": "uint256"
        }
      ],
      "name": "heroes",
      "outputs": [
        {
          "internalType": "uint256",
          "name": "id",
          "type": "uint256"
        },
        {
          "internalType": "uint256",
          "name": "dna",
          "type": "uint256"
        },
        {
          "internalType": "uint256",
          "name": "xp",
          "type": "uint256"
        },
        {
          "internalType": "uint256",
          "name": "mental",
          "type": "uint256"
        },
        {
          "internalType": "uint256",
          "name": "physical",
          "type": "uint256"
        },
        {
          "internalType": "uint16",
          "name": "level",
          "type": "uint16"
        },
        {
          "internalType": "uint256",
          "name": "restingTill",
          "type": "uint256"
        },
        {
          "internalType": "uint256",
          "name": "debug",
          "type": "uint256"
        },
        {
          "internalType": "string",
          "name": "name",
          "type": "string"
        }
      ],
      "stateMutability": "view",
      "type": "function",
      "constant": true
    },
    {
      "inputs": [
        {
          "internalType": "address",
          "name": "owner",
          "type": "address"
        },
        {
          "internalType": "address",
          "name": "operator",
          "type": "address"
        }
      ],
      "name": "isApprovedForAll",
      "outputs": [
        {
          "internalType": "bool",
          "name": "",
          "type": "bool"
        }
      ],
      "stateMutability": "view",
      "type": "function",
      "constant": true
    },
    {
      "inputs": [],
      "name": "name",
      "outputs": [
        {
          "internalType": "string",
          "name": "",
          "type": "string"
        }
      ],
      "stateMutability": "view",
      "type": "function",
      "constant": true
    },
    {
      "inputs": [
        {
          "internalType": "uint256",
          "name": "_heroId",
          "type": "uint256"
        },
        {
          "internalType": "string",
          "name": "_name",
          "type": "string"
        }
      ],
      "name": "nameChange",
      "outputs": [],
      "stateMutability": "nonpayable",
      "type": "function"
    },
    {
      "inputs": [],
      "name": "owner",
      "outputs": [
        {
          "internalType": "address",
          "name": "",
          "type": "address"
        }
      ],
      "stateMutability": "view",
      "type": "function",
      "constant": true
    },
    {
      "inputs": [
        {
          "internalType": "uint256",
          "name": "tokenId",
          "type": "uint256"
        }
      ],
      "name": "ownerOf",
      "outputs": [
        {
          "internalType": "address",
          "name": "",
          "type": "address"
        }
      ],
      "stateMutability": "view",
      "type": "function",
      "constant": true
    },
    {
      "inputs": [],
      "name": "renounceOwnership",
      "outputs": [],
      "stateMutability": "nonpayable",
      "type": "function"
    },
    {
      "inputs": [
        {
          "internalType": "address",
          "name": "from",
          "type": "address"
        },
        {
          "internalType": "address",
          "name": "to",
          "type": "address"
        },
        {
          "internalType": "uint256",
          "name": "tokenId",
          "type": "uint256"
        }
      ],
      "name": "safeTransferFrom",
      "outputs": [],
      "stateMutability": "nonpayable",
      "type": "function"
    },
    {
      "inputs": [
        {
          "internalType": "address",
          "name": "from",
          "type": "address"
        },
        {
          "internalType": "address",
          "name": "to",
          "type": "address"
        },
        {
          "internalType": "uint256",
          "name": "tokenId",
          "type": "uint256"
        },
        {
          "internalType": "bytes",
          "name": "_data",
          "type": "bytes"
        }
      ],
      "name": "safeTransferFrom",
      "outputs": [],
      "stateMutability": "nonpayable",
      "type": "function"
    },
    {
      "inputs": [
        {
          "internalType": "address",
          "name": "operator",
          "type": "address"
        },
        {
          "internalType": "bool",
          "name": "approved",
          "type": "bool"
        }
      ],
      "name": "setApprovalForAll",
      "outputs": [],
      "stateMutability": "nonpayable",
      "type": "function"
    },
    {
      "inputs": [],
      "name": "spawnHero",
      "outputs": [],
      "stateMutability": "nonpayable",
      "type": "function"
    },
    {
      "inputs": [
        {
          "internalType": "bytes4",
          "name": "interfaceId",
          "type": "bytes4"
        }
      ],
      "name": "supportsInterface",
      "outputs": [
        {
          "internalType": "bool",
          "name": "",
          "type": "bool"
        }
      ],
      "stateMutability": "view",
      "type": "function",
      "constant": true
    },
    {
      "inputs": [],
      "name": "symbol",
      "outputs": [
        {
          "internalType": "string",
          "name": "",
          "type": "string"
        }
      ],
      "stateMutability": "view",
      "type": "function",
      "constant": true
    },
    {
      "inputs": [
        {
          "internalType": "uint256",
          "name": "tokenId",
          "type": "uint256"
        }
      ],
      "name": "tokenURI",
      "outputs": [
        {
          "internalType": "string",
          "name": "",
          "type": "string"
        }
      ],
      "stateMutability": "view",
      "type": "function",
      "constant": true
    },
    {
      "inputs": [],
      "name": "tokens",
      "outputs": [
        {
          "internalType": "contract IotaHeroGameTokens",
          "name": "",
          "type": "address"
        }
      ],
      "stateMutability": "view",
      "type": "function",
      "constant": true
    },
    {
      "inputs": [
        {
          "internalType": "address",
          "name": "from",
          "type": "address"
        },
        {
          "internalType": "address",
          "name": "to",
          "type": "address"
        },
        {
          "internalType": "uint256",
          "name": "tokenId",
          "type": "uint256"
        }
      ],
      "name": "transferFrom",
      "outputs": [],
      "stateMutability": "nonpayable",
      "type": "function"
    },
    {
      "inputs": [
        {
          "internalType": "address",
          "name": "newOwner",
          "type": "address"
        }
      ],
      "name": "transferOwnership",
      "outputs": [],
      "stateMutability": "nonpayable",
      "type": "function"
    },
    {
      "inputs": [],
      "name": "withdraw",
      "outputs": [],
      "stateMutability": "payable",
      "type": "function",
      "payable": true
    },
    {
      "inputs": [
        {
          "internalType": "address",
          "name": "tokensAddress",
          "type": "address"
        }
      ],
      "name": "setTokens",
      "outputs": [],
      "stateMutability": "nonpayable",
      "type": "function"
    },
    {
      "inputs": [
        {
          "components": [
            {
              "internalType": "uint256",
              "name": "id",
              "type": "uint256"
            },
            {
              "internalType": "string",
              "name": "name",
              "type": "string"
            },
            {
              "internalType": "uint256",
              "name": "xpRequirement",
              "type": "uint256"
            },
            {
              "internalType": "uint8",
              "name": "difficulty",
              "type": "uint8"
            },
            {
              "internalType": "string",
              "name": "description",
              "type": "string"
            },
            {
              "internalType": "enum IotaHeroAdventure.AdventureType",
              "name": "adventureType",
              "type": "uint8"
            }
          ],
          "internalType": "struct IotaHeroAdventure.Adventure[]",
          "name": "_adventures",
          "type": "tuple[]"
        }
      ],
      "name": "addAdventures",
      "outputs": [],
      "stateMutability": "nonpayable",
      "type": "function"
    },
    {
      "inputs": [
        {
          "internalType": "uint256",
          "name": "_heroId",
          "type": "uint256"
        }
      ],
      "name": "goAdventure",
      "outputs": [],
      "stateMutability": "nonpayable",
      "type": "function"
    }
  ],
  "bytecode": "0x60806040526000600755601e6008556000600b556000600c553480156200002557600080fd5b506040518060400160405280600881526020017f496f74614865726f0000000000000000000000000000000000000000000000008152506040518060400160405280600281526020017f49480000000000000000000000000000000000000000000000000000000000008152508160009080519060200190620000aa929190620001ba565b508060019080519060200190620000c3929190620001ba565b505050620000e6620000da620000ec60201b60201c565b620000f460201b60201c565b620002cf565b600033905090565b6000600660009054906101000a900473ffffffffffffffffffffffffffffffffffffffff16905081600660006101000a81548173ffffffffffffffffffffffffffffffffffffffff021916908373ffffffffffffffffffffffffffffffffffffffff1602179055508173ffffffffffffffffffffffffffffffffffffffff168173ffffffffffffffffffffffffffffffffffffffff167f8be0079c531659141344cd1fd0a4f28419497f9722a3daafe3b4186f6b6457e060405160405180910390a35050565b828054620001c89062000299565b90600052602060002090601f016020900481019282620001ec576000855562000238565b82601f106200020757805160ff191683800117855562000238565b8280016001018555821562000238579182015b82811115620002375782518255916020019190600101906200021a565b5b5090506200024791906200024b565b5090565b5b80821115620002665760008160009055506001016200024c565b5090565b7f4e487b7100000000000000000000000000000000000000000000000000000000600052602260045260246000fd5b60006002820490506001821680620002b257607f821691505b60208210811415620002c957620002c86200026a565b5b50919050565b614b8d80620002df6000396000f3fe60806040526004361061019c5760003560e01c806395d89b41116100ec578063aa761a911161008a578063ddf368a211610064578063ddf368a2146105b0578063e985e9c5146105ed578063eb76bfb01461062a578063f2fde38b146106535761019c565b8063aa761a9114610508578063b88d4fde1461054a578063c87b56dd146105735761019c565b80639f72ed76116100c65780639f72ed761461045a578063a22cb46514610471578063a639eb4d1461049a578063a8d4a03b146104c35761019c565b806395d89b41146103d95780639a8d2882146104045780639d63848a1461042f5761019c565b806342842e0e1161015957806370a082311161013357806370a0823114610331578063715018a61461036e5780637fadea0e146103855780638da5cb5b146103ae5761019c565b806342842e0e146102a257806348646f7b146102cb5780636352211e146102f45761019c565b806301ffc9a7146101a157806306fdde03146101de578063081812fc14610209578063095ea7b31461024657806323b872dd1461026f5780633ccfd60b14610298575b600080fd5b3480156101ad57600080fd5b506101c860048036038101906101c3919061311b565b61067c565b6040516101d59190613163565b60405180910390f35b3480156101ea57600080fd5b506101f361075e565b6040516102009190613217565b60405180910390f35b34801561021557600080fd5b50610230600480360381019061022b919061326f565b6107f0565b60405161023d91906132dd565b60405180910390f35b34801561025257600080fd5b5061026d60048036038101906102689190613324565b610875565b005b34801561027b57600080fd5b5061029660048036038101906102919190613364565b61098d565b005b6102a06109ed565b005b3480156102ae57600080fd5b506102c960048036038101906102c49190613364565b610abf565b005b3480156102d757600080fd5b506102f260048036038101906102ed91906134ec565b610adf565b005b34801561030057600080fd5b5061031b6004803603810190610316919061326f565b610b65565b60405161032891906132dd565b60405180910390f35b34801561033d57600080fd5b5061035860048036038101906103539190613548565b610c17565b6040516103659190613584565b60405180910390f35b34801561037a57600080fd5b50610383610ccf565b005b34801561039157600080fd5b506103ac60048036038101906103a7919061326f565b610d57565b005b3480156103ba57600080fd5b506103c36113b5565b6040516103d091906132dd565b60405180910390f35b3480156103e557600080fd5b506103ee6113df565b6040516103fb9190613217565b60405180910390f35b34801561041057600080fd5b50610419611471565b604051610426919061379c565b60405180910390f35b34801561043b57600080fd5b506104446115c9565b604051610451919061381d565b60405180910390f35b34801561046657600080fd5b5061046f6115ef565b005b34801561047d57600080fd5b5061049860048036038101906104939190613864565b61160a565b005b3480156104a657600080fd5b506104c160048036038101906104bc9190613548565b611620565b005b3480156104cf57600080fd5b506104ea60048036038101906104e5919061326f565b6116e0565b6040516104ff999897969594939291906138b3565b60405180910390f35b34801561051457600080fd5b5061052f600480360381019061052a919061326f565b6117d4565b604051610541969594939291906139da565b60405180910390f35b34801561055657600080fd5b50610571600480360381019061056c9190613aea565b61194a565b005b34801561057f57600080fd5b5061059a6004803603810190610595919061326f565b6119ac565b6040516105a79190613217565b60405180910390f35b3480156105bc57600080fd5b506105d760048036038101906105d29190613548565b611a53565b6040516105e4919061379c565b60405180910390f35b3480156105f957600080fd5b50610614600480360381019061060f9190613b6d565b611c73565b6040516106219190613163565b60405180910390f35b34801561063657600080fd5b50610651600480360381019061064c9190613c0d565b611d07565b005b34801561065f57600080fd5b5061067a60048036038101906106759190613548565b611dd6565b005b60007f80ac58cd000000000000000000000000000000000000000000000000000000007bffffffffffffffffffffffffffffffffffffffffffffffffffffffff1916827bffffffffffffffffffffffffffffffffffffffffffffffffffffffff1916148061074757507f5b5e139f000000000000000000000000000000000000000000000000000000007bffffffffffffffffffffffffffffffffffffffffffffffffffffffff1916827bffffffffffffffffffffffffffffffffffffffffffffffffffffffff1916145b80610757575061075682611ece565b5b9050919050565b60606000805461076d90613c89565b80601f016020809104026020016040519081016040528092919081815260200182805461079990613c89565b80156107e65780601f106107bb576101008083540402835291602001916107e6565b820191906000526020600020905b8154815290600101906020018083116107c957829003601f168201915b5050505050905090565b60006107fb82611f38565b61083a576040517f08c379a000000000000000000000000000000000000000000000000000000000815260040161083190613d2d565b60405180910390fd5b6004600083815260200190815260200160002060009054906101000a900473ffffffffffffffffffffffffffffffffffffffff169050919050565b600061088082610b65565b90508073ffffffffffffffffffffffffffffffffffffffff168373ffffffffffffffffffffffffffffffffffffffff1614156108f1576040517f08c379a00000000000000000000000000000000000000000000000000000000081526004016108e890613dbf565b60405180910390fd5b8073ffffffffffffffffffffffffffffffffffffffff16610910611fa4565b73ffffffffffffffffffffffffffffffffffffffff16148061093f575061093e81610939611fa4565b611c73565b5b61097e576040517f08c379a000000000000000000000000000000000000000000000000000000000815260040161097590613e51565b60405180910390fd5b6109888383611fac565b505050565b61099e610998611fa4565b82612065565b6109dd576040517f08c379a00000000000000000000000000000000000000000000000000000000081526004016109d490613ee3565b60405180910390fd5b6109e8838383612143565b505050565b6109f5611fa4565b73ffffffffffffffffffffffffffffffffffffffff16610a136113b5565b73ffffffffffffffffffffffffffffffffffffffff1614610a69576040517f08c379a0000000000000000000000000000000000000000000000000000000008152600401610a6090613f4f565b60405180910390fd5b6000610a736113b5565b90508073ffffffffffffffffffffffffffffffffffffffff166108fc479081150290604051600060405180830381858888f19350505050158015610abb573d6000803e3d6000fd5b5050565b610ada8383836040518060200160405280600081525061194a565b505050565b81610ae981610b65565b73ffffffffffffffffffffffffffffffffffffffff163373ffffffffffffffffffffffffffffffffffffffff1614610b2057600080fd5b600060098481548110610b3657610b35613f6f565b5b9060005260206000209060090201905082816008019080519060200190610b5e929190612fbc565b5050505050565b6000806002600084815260200190815260200160002060009054906101000a900473ffffffffffffffffffffffffffffffffffffffff169050600073ffffffffffffffffffffffffffffffffffffffff168173ffffffffffffffffffffffffffffffffffffffff161415610c0e576040517f08c379a0000000000000000000000000000000000000000000000000000000008152600401610c0590614010565b60405180910390fd5b80915050919050565b60008073ffffffffffffffffffffffffffffffffffffffff168273ffffffffffffffffffffffffffffffffffffffff161415610c88576040517f08c379a0000000000000000000000000000000000000000000000000000000008152600401610c7f906140a2565b60405180910390fd5b600360008373ffffffffffffffffffffffffffffffffffffffff1673ffffffffffffffffffffffffffffffffffffffff168152602001908152602001600020549050919050565b610cd7611fa4565b73ffffffffffffffffffffffffffffffffffffffff16610cf56113b5565b73ffffffffffffffffffffffffffffffffffffffff1614610d4b576040517f08c379a0000000000000000000000000000000000000000000000000000000008152600401610d4290613f4f565b60405180910390fd5b610d55600061239f565b565b80610d6181610b65565b73ffffffffffffffffffffffffffffffffffffffff163373ffffffffffffffffffffffffffffffffffffffff1614610d9857600080fd5b600060098381548110610dae57610dad613f6f565b5b90600052602060002090600902019050610ecb816040518061012001604052908160008201548152602001600182015481526020016002820154815260200160038201548152602001600482015481526020016005820160009054906101000a900461ffff1661ffff1661ffff1681526020016006820154815260200160078201548152602001600882018054610e4490613c89565b80601f0160208091040260200160405190810160405280929190818152602001828054610e7090613c89565b8015610ebd5780601f10610e9257610100808354040283529160200191610ebd565b820191906000526020600020905b815481529060010190602001808311610ea057829003601f168201915b505050505081525050612465565b610f0a576040517f08c379a0000000000000000000000000000000000000000000000000000000008152600401610f0190614134565b60405180910390fd5b60006064610f19600b54612476565b610f239190614183565b90506000610f3082612476565b90506000600d808054905083610f469190614183565b81548110610f5757610f56613f6f565b5b9060005260206000209060060201905060006005811115610f7b57610f7a613963565b5b8160050160009054906101000a900460ff166005811115610f9f57610f9e613963565b5b141561108657603283101561106057610fc6606485600201546124c990919063ffffffff16565b8460020181905550600a60009054906101000a900473ffffffffffffffffffffffffffffffffffffffff1673ffffffffffffffffffffffffffffffffffffffff1663e51bcfd2336040518263ffffffff1660e01b815260040161102991906132dd565b600060405180830381600087803b15801561104357600080fd5b505af1158015611057573d6000803e3d6000fd5b50505050611081565b611078600285600201546124df90919063ffffffff16565b84600201819055505b611305565b6004600581111561109a57611099613963565b5b8160050160009054906101000a900460ff1660058111156110be576110bd613963565b5b141561115657600a60009054906101000a900473ffffffffffffffffffffffffffffffffffffffff1673ffffffffffffffffffffffffffffffffffffffff1663e51bcfd2336040518263ffffffff1660e01b815260040161111f91906132dd565b600060405180830381600087803b15801561113957600080fd5b505af115801561114d573d6000803e3d6000fd5b50505050611304565b60058081111561116957611168613963565b5b8160050160009054906101000a900460ff16600581111561118d5761118c613963565b5b14156111e75760328310156111c1576111b4600185600401546124c990919063ffffffff16565b84600401819055506111e2565b6111d9600185600401546124f590919063ffffffff16565b84600401819055505b611303565b600160058111156111fb576111fa613963565b5b8160050160009054906101000a900460ff16600581111561121f5761121e613963565b5b141561122a57611302565b6002600581111561123e5761123d613963565b5b8160050160009054906101000a900460ff16600581111561126257611261613963565b5b141561129757603283101561129257611289600185600301546124c990919063ffffffff16565b84600301819055505b611301565b600360058111156112ab576112aa613963565b5b8160050160009054906101000a900460ff1660058111156112cf576112ce613963565b5b14156113005760328310156112ff576112f6600185600401546124c990919063ffffffff16565b84600401819055505b5b5b5b5b5b5b8284600701819055506008544261131c91906141e3565b63ffffffff1684600601819055506113406001600b546124c990919063ffffffff16565b600b81905550853373ffffffffffffffffffffffffffffffffffffffff167f77e7f22c561a1fe25ae0fe4ab7fae668a036026e1e75ee2387811cb34aa1f0d2836001018460050160009054906101000a900460ff16876040516113a5939291906142ce565b60405180910390a3505050505050565b6000600660009054906101000a900473ffffffffffffffffffffffffffffffffffffffff16905090565b6060600180546113ee90613c89565b80601f016020809104026020016040519081016040528092919081815260200182805461141a90613c89565b80156114675780601f1061143c57610100808354040283529160200191611467565b820191906000526020600020905b81548152906001019060200180831161144a57829003601f168201915b5050505050905090565b60606009805480602002602001604051908101604052809291908181526020016000905b828210156115c057838290600052602060002090600902016040518061012001604052908160008201548152602001600182015481526020016002820154815260200160038201548152602001600482015481526020016005820160009054906101000a900461ffff1661ffff1661ffff168152602001600682015481526020016007820154815260200160088201805461152f90613c89565b80601f016020809104026020016040519081016040528092919081815260200182805461155b90613c89565b80156115a85780601f1061157d576101008083540402835291602001916115a8565b820191906000526020600020905b81548152906001019060200180831161158b57829003601f168201915b50505050508152505081526020019060010190611495565b50505050905090565b600a60009054906101000a900473ffffffffffffffffffffffffffffffffffffffff1681565b60006115fc600754612476565b90506116078161250b565b50565b61161c611615611fa4565b838361269d565b5050565b611628611fa4565b73ffffffffffffffffffffffffffffffffffffffff166116466113b5565b73ffffffffffffffffffffffffffffffffffffffff161461169c576040517f08c379a000000000000000000000000000000000000000000000000000000000815260040161169390613f4f565b60405180910390fd5b80600a60006101000a81548173ffffffffffffffffffffffffffffffffffffffff021916908373ffffffffffffffffffffffffffffffffffffffff16021790555050565b600981815481106116f057600080fd5b90600052602060002090600902016000915090508060000154908060010154908060020154908060030154908060040154908060050160009054906101000a900461ffff169080600601549080600701549080600801805461175190613c89565b80601f016020809104026020016040519081016040528092919081815260200182805461177d90613c89565b80156117ca5780601f1061179f576101008083540402835291602001916117ca565b820191906000526020600020905b8154815290600101906020018083116117ad57829003601f168201915b5050505050905089565b600d81815481106117e457600080fd5b906000526020600020906006020160009150905080600001549080600101805461180d90613c89565b80601f016020809104026020016040519081016040528092919081815260200182805461183990613c89565b80156118865780601f1061185b57610100808354040283529160200191611886565b820191906000526020600020905b81548152906001019060200180831161186957829003601f168201915b5050505050908060020154908060030160009054906101000a900460ff16908060040180546118b490613c89565b80601f01602080910402602001604051908101604052809291908181526020018280546118e090613c89565b801561192d5780601f106119025761010080835404028352916020019161192d565b820191906000526020600020905b81548152906001019060200180831161191057829003601f168201915b5050505050908060050160009054906101000a900460ff16905086565b61195b611955611fa4565b83612065565b61199a576040517f08c379a000000000000000000000000000000000000000000000000000000000815260040161199190613ee3565b60405180910390fd5b6119a68484848461280a565b50505050565b60606119b782611f38565b6119f6576040517f08c379a00000000000000000000000000000000000000000000000000000000081526004016119ed9061437e565b60405180910390fd5b6000611a00612866565b90506000815111611a205760405180602001604052806000815250611a4b565b80611a2a8461287d565b604051602001611a3b9291906143da565b6040516020818303038152906040525b915050919050565b60606000611a6083610c17565b67ffffffffffffffff811115611a7957611a786133c1565b5b604051908082528060200260200182016040528015611ab257816020015b611a9f613042565b815260200190600190039081611a975790505b5090506000805b600980549050811015611c68578473ffffffffffffffffffffffffffffffffffffffff16611ae682610b65565b73ffffffffffffffffffffffffffffffffffffffff161415611c555760098181548110611b1657611b15613f6f565b5b90600052602060002090600902016040518061012001604052908160008201548152602001600182015481526020016002820154815260200160038201548152602001600482015481526020016005820160009054906101000a900461ffff1661ffff1661ffff1681526020016006820154815260200160078201548152602001600882018054611ba690613c89565b80601f0160208091040260200160405190810160405280929190818152602001828054611bd290613c89565b8015611c1f5780601f10611bf457610100808354040283529160200191611c1f565b820191906000526020600020905b815481529060010190602001808311611c0257829003601f168201915b505050505081525050838381518110611c3b57611c3a613f6f565b5b60200260200101819052508180611c51906143fe565b9250505b8080611c60906143fe565b915050611ab9565b508192505050919050565b6000600560008473ffffffffffffffffffffffffffffffffffffffff1673ffffffffffffffffffffffffffffffffffffffff16815260200190815260200160002060008373ffffffffffffffffffffffffffffffffffffffff1673ffffffffffffffffffffffffffffffffffffffff16815260200190815260200160002060009054906101000a900460ff16905092915050565b611d0f611fa4565b73ffffffffffffffffffffffffffffffffffffffff16611d2d6113b5565b73ffffffffffffffffffffffffffffffffffffffff1614611d83576040517f08c379a0000000000000000000000000000000000000000000000000000000008152600401611d7a90613f4f565b60405180910390fd5b60005b82829050811015611dd157611dbe838383818110611da757611da6613f6f565b5b9050602002810190611db99190614456565b6129de565b8080611dc9906143fe565b915050611d86565b505050565b611dde611fa4565b73ffffffffffffffffffffffffffffffffffffffff16611dfc6113b5565b73ffffffffffffffffffffffffffffffffffffffff1614611e52576040517f08c379a0000000000000000000000000000000000000000000000000000000008152600401611e4990613f4f565b60405180910390fd5b600073ffffffffffffffffffffffffffffffffffffffff168173ffffffffffffffffffffffffffffffffffffffff161415611ec2576040517f08c379a0000000000000000000000000000000000000000000000000000000008152600401611eb9906144f0565b60405180910390fd5b611ecb8161239f565b50565b60007f01ffc9a7000000000000000000000000000000000000000000000000000000007bffffffffffffffffffffffffffffffffffffffffffffffffffffffff1916827bffffffffffffffffffffffffffffffffffffffffffffffffffffffff1916149050919050565b60008073ffffffffffffffffffffffffffffffffffffffff166002600084815260200190815260200160002060009054906101000a900473ffffffffffffffffffffffffffffffffffffffff1673ffffffffffffffffffffffffffffffffffffffff1614159050919050565b600033905090565b816004600083815260200190815260200160002060006101000a81548173ffffffffffffffffffffffffffffffffffffffff021916908373ffffffffffffffffffffffffffffffffffffffff160217905550808273ffffffffffffffffffffffffffffffffffffffff1661201f83610b65565b73ffffffffffffffffffffffffffffffffffffffff167f8c5be1e5ebec7d5bd14f71427d1e84f3dd0314c0f7b2291e5b200ac8c7c3b92560405160405180910390a45050565b600061207082611f38565b6120af576040517f08c379a00000000000000000000000000000000000000000000000000000000081526004016120a690614582565b60405180910390fd5b60006120ba83610b65565b90508073ffffffffffffffffffffffffffffffffffffffff168473ffffffffffffffffffffffffffffffffffffffff16148061212957508373ffffffffffffffffffffffffffffffffffffffff16612111846107f0565b73ffffffffffffffffffffffffffffffffffffffff16145b8061213a57506121398185611c73565b5b91505092915050565b8273ffffffffffffffffffffffffffffffffffffffff1661216382610b65565b73ffffffffffffffffffffffffffffffffffffffff16146121b9576040517f08c379a00000000000000000000000000000000000000000000000000000000081526004016121b090614614565b60405180910390fd5b600073ffffffffffffffffffffffffffffffffffffffff168273ffffffffffffffffffffffffffffffffffffffff161415612229576040517f08c379a0000000000000000000000000000000000000000000000000000000008152600401612220906146a6565b60405180910390fd5b612234838383612bd5565b61223f600082611fac565b6001600360008573ffffffffffffffffffffffffffffffffffffffff1673ffffffffffffffffffffffffffffffffffffffff168152602001908152602001600020600082825461228f91906146c6565b925050819055506001600360008473ffffffffffffffffffffffffffffffffffffffff1673ffffffffffffffffffffffffffffffffffffffff16815260200190815260200160002060008282546122e691906141e3565b92505081905550816002600083815260200190815260200160002060006101000a81548173ffffffffffffffffffffffffffffffffffffffff021916908373ffffffffffffffffffffffffffffffffffffffff160217905550808273ffffffffffffffffffffffffffffffffffffffff168473ffffffffffffffffffffffffffffffffffffffff167fddf252ad1be2c89b69c2b068fc378daa952ba7f163c4a11628f55a4df523b3ef60405160405180910390a4505050565b6000600660009054906101000a900473ffffffffffffffffffffffffffffffffffffffff16905081600660006101000a81548173ffffffffffffffffffffffffffffffffffffffff021916908373ffffffffffffffffffffffffffffffffffffffff1602179055508173ffffffffffffffffffffffffffffffffffffffff168173ffffffffffffffffffffffffffffffffffffffff167f8be0079c531659141344cd1fd0a4f28419497f9722a3daafe3b4186f6b6457e060405160405180910390a35050565b6000428260c0015111159050919050565b600080824261248591906141e3565b604051602001612495919061471b565b6040516020818303038152906040528051906020012060001c905064e8d4a51000816124c19190614183565b915050919050565b600081836124d791906141e3565b905092915050565b600081836124ed9190614736565b905092915050565b6000818361250391906146c6565b905092915050565b600060405180610120016040528060075481526020018381526020016101f48152602001600a8152602001600a8152602001600161ffff168152602001428152602001600081526020016040518060200160405280600081525081525090506009819080600181540180825580915050600190039060005260206000209060090201600090919091909150600082015181600001556020820151816001015560408201518160020155606082015181600301556080820151816004015560a08201518160050160006101000a81548161ffff021916908361ffff16021790555060c0820151816006015560e0820151816007015561010082015181600801908051906020019061261c929190612fbc565b50505061262b33600754612bda565b3373ffffffffffffffffffffffffffffffffffffffff167fad1c7ab5bfbe86a51764200b1532f3893b41563e78abe6d6eac4bbd987f38c6860075484604051612675929190614767565b60405180910390a261269360016007546124c990919063ffffffff16565b6007819055505050565b8173ffffffffffffffffffffffffffffffffffffffff168373ffffffffffffffffffffffffffffffffffffffff16141561270c576040517f08c379a0000000000000000000000000000000000000000000000000000000008152600401612703906147dc565b60405180910390fd5b80600560008573ffffffffffffffffffffffffffffffffffffffff1673ffffffffffffffffffffffffffffffffffffffff16815260200190815260200160002060008473ffffffffffffffffffffffffffffffffffffffff1673ffffffffffffffffffffffffffffffffffffffff16815260200190815260200160002060006101000a81548160ff0219169083151502179055508173ffffffffffffffffffffffffffffffffffffffff168373ffffffffffffffffffffffffffffffffffffffff167f17307eab39ab6107e8899845ad3d59bd9653f200f220920489ca2b5937696c31836040516127fd9190613163565b60405180910390a3505050565b612815848484612143565b61282184848484612bf8565b612860576040517f08c379a00000000000000000000000000000000000000000000000000000000081526004016128579061486e565b60405180910390fd5b50505050565b606060405180602001604052806000815250905090565b606060008214156128c5576040518060400160405280600181526020017f300000000000000000000000000000000000000000000000000000000000000081525090506129d9565b600082905060005b600082146128f75780806128e0906143fe565b915050600a826128f09190614736565b91506128cd565b60008167ffffffffffffffff811115612913576129126133c1565b5b6040519080825280601f01601f1916602001820160405280156129455781602001600182028036833780820191505090505b5090505b600085146129d25760018261295e91906146c6565b9150600a8561296d9190614183565b603061297991906141e3565b60f81b81838151811061298f5761298e613f6f565b5b60200101907effffffffffffffffffffffffffffffffffffffffffffffffffffffffffffff1916908160001a905350600a856129cb9190614736565b9450612949565b8093505050505b919050565b600d6040518060c00160405280600c548152602001838060200190612a03919061488e565b8080601f016020809104026020016040519081016040528093929190818152602001838380828437600081840152601f19601f82011690508083019250505050505050815260200183604001358152602001836060016020810190612a68919061491d565b60ff168152602001838060800190612a80919061488e565b8080601f016020809104026020016040519081016040528093929190818152602001838380828437600081840152601f19601f8201169050808301925050505050505081526020018360a0016020810190612adb919061496f565b6005811115612aed57612aec613963565b5b8152509080600181540180825580915050600190039060005260206000209060060201600090919091909150600082015181600001556020820151816001019080519060200190612b3f929190612fbc565b506040820151816002015560608201518160030160006101000a81548160ff021916908360ff1602179055506080820151816004019080519060200190612b87929190612fbc565b5060a08201518160050160006101000a81548160ff02191690836005811115612bb357612bb2613963565b5b02179055505050600c6000815480929190612bcd906143fe565b919050555050565b505050565b612bf4828260405180602001604052806000815250612d80565b5050565b6000612c198473ffffffffffffffffffffffffffffffffffffffff16612ddb565b15612d73578373ffffffffffffffffffffffffffffffffffffffff1663150b7a02612c42611fa4565b8786866040518563ffffffff1660e01b8152600401612c6494939291906149f1565b6020604051808303816000875af1925050508015612ca057506040513d601f19601f82011682018060405250810190612c9d9190614a52565b60015b612d23573d8060008114612cd0576040519150601f19603f3d011682016040523d82523d6000602084013e612cd5565b606091505b50600081511415612d1b576040517f08c379a0000000000000000000000000000000000000000000000000000000008152600401612d129061486e565b60405180910390fd5b805181602001fd5b63150b7a0260e01b7bffffffffffffffffffffffffffffffffffffffffffffffffffffffff1916817bffffffffffffffffffffffffffffffffffffffffffffffffffffffff191614915050612d78565b600190505b949350505050565b612d8a8383612dee565b612d976000848484612bf8565b612dd6576040517f08c379a0000000000000000000000000000000000000000000000000000000008152600401612dcd9061486e565b60405180910390fd5b505050565b600080823b905060008111915050919050565b600073ffffffffffffffffffffffffffffffffffffffff168273ffffffffffffffffffffffffffffffffffffffff161415612e5e576040517f08c379a0000000000000000000000000000000000000000000000000000000008152600401612e5590614acb565b60405180910390fd5b612e6781611f38565b15612ea7576040517f08c379a0000000000000000000000000000000000000000000000000000000008152600401612e9e90614b37565b60405180910390fd5b612eb360008383612bd5565b6001600360008473ffffffffffffffffffffffffffffffffffffffff1673ffffffffffffffffffffffffffffffffffffffff1681526020019081526020016000206000828254612f0391906141e3565b92505081905550816002600083815260200190815260200160002060006101000a81548173ffffffffffffffffffffffffffffffffffffffff021916908373ffffffffffffffffffffffffffffffffffffffff160217905550808273ffffffffffffffffffffffffffffffffffffffff16600073ffffffffffffffffffffffffffffffffffffffff167fddf252ad1be2c89b69c2b068fc378daa952ba7f163c4a11628f55a4df523b3ef60405160405180910390a45050565b828054612fc890613c89565b90600052602060002090601f016020900481019282612fea5760008555613031565b82601f1061300357805160ff1916838001178555613031565b82800160010185558215613031579182015b82811115613030578251825591602001919060010190613015565b5b50905061303e9190613092565b5090565b6040518061012001604052806000815260200160008152602001600081526020016000815260200160008152602001600061ffff1681526020016000815260200160008152602001606081525090565b5b808211156130ab576000816000905550600101613093565b5090565b6000604051905090565b600080fd5b600080fd5b60007fffffffff0000000000000000000000000000000000000000000000000000000082169050919050565b6130f8816130c3565b811461310357600080fd5b50565b600081359050613115816130ef565b92915050565b600060208284031215613131576131306130b9565b5b600061313f84828501613106565b91505092915050565b60008115159050919050565b61315d81613148565b82525050565b60006020820190506131786000830184613154565b92915050565b600081519050919050565b600082825260208201905092915050565b60005b838110156131b857808201518184015260208101905061319d565b838111156131c7576000848401525b50505050565b6000601f19601f8301169050919050565b60006131e98261317e565b6131f38185613189565b935061320381856020860161319a565b61320c816131cd565b840191505092915050565b6000602082019050818103600083015261323181846131de565b905092915050565b6000819050919050565b61324c81613239565b811461325757600080fd5b50565b60008135905061326981613243565b92915050565b600060208284031215613285576132846130b9565b5b60006132938482850161325a565b91505092915050565b600073ffffffffffffffffffffffffffffffffffffffff82169050919050565b60006132c78261329c565b9050919050565b6132d7816132bc565b82525050565b60006020820190506132f260008301846132ce565b92915050565b613301816132bc565b811461330c57600080fd5b50565b60008135905061331e816132f8565b92915050565b6000806040838503121561333b5761333a6130b9565b5b60006133498582860161330f565b925050602061335a8582860161325a565b9150509250929050565b60008060006060848603121561337d5761337c6130b9565b5b600061338b8682870161330f565b935050602061339c8682870161330f565b92505060406133ad8682870161325a565b9150509250925092565b600080fd5b600080fd5b7f4e487b7100000000000000000000000000000000000000000000000000000000600052604160045260246000fd5b6133f9826131cd565b810181811067ffffffffffffffff82111715613418576134176133c1565b5b80604052505050565b600061342b6130af565b905061343782826133f0565b919050565b600067ffffffffffffffff821115613457576134566133c1565b5b613460826131cd565b9050602081019050919050565b82818337600083830152505050565b600061348f61348a8461343c565b613421565b9050828152602081018484840111156134ab576134aa6133bc565b5b6134b684828561346d565b509392505050565b600082601f8301126134d3576134d26133b7565b5b81356134e384826020860161347c565b91505092915050565b60008060408385031215613503576135026130b9565b5b60006135118582860161325a565b925050602083013567ffffffffffffffff811115613532576135316130be565b5b61353e858286016134be565b9150509250929050565b60006020828403121561355e5761355d6130b9565b5b600061356c8482850161330f565b91505092915050565b61357e81613239565b82525050565b60006020820190506135996000830184613575565b92915050565b600081519050919050565b600082825260208201905092915050565b6000819050602082019050919050565b6135d481613239565b82525050565b600061ffff82169050919050565b6135f1816135da565b82525050565b600082825260208201905092915050565b60006136138261317e565b61361d81856135f7565b935061362d81856020860161319a565b613636816131cd565b840191505092915050565b60006101208301600083015161365a60008601826135cb565b50602083015161366d60208601826135cb565b50604083015161368060408601826135cb565b50606083015161369360608601826135cb565b5060808301516136a660808601826135cb565b5060a08301516136b960a08601826135e8565b5060c08301516136cc60c08601826135cb565b5060e08301516136df60e08601826135cb565b506101008301518482036101008601526136f98282613608565b9150508091505092915050565b60006137128383613641565b905092915050565b6000602082019050919050565b60006137328261359f565b61373c81856135aa565b93508360208202850161374e856135bb565b8060005b8581101561378a578484038952815161376b8582613706565b94506137768361371a565b925060208a01995050600181019050613752565b50829750879550505050505092915050565b600060208201905081810360008301526137b68184613727565b905092915050565b6000819050919050565b60006137e36137de6137d98461329c565b6137be565b61329c565b9050919050565b60006137f5826137c8565b9050919050565b6000613807826137ea565b9050919050565b613817816137fc565b82525050565b6000602082019050613832600083018461380e565b92915050565b61384181613148565b811461384c57600080fd5b50565b60008135905061385e81613838565b92915050565b6000806040838503121561387b5761387a6130b9565b5b60006138898582860161330f565b925050602061389a8582860161384f565b9150509250929050565b6138ad816135da565b82525050565b6000610120820190506138c9600083018c613575565b6138d6602083018b613575565b6138e3604083018a613575565b6138f06060830189613575565b6138fd6080830188613575565b61390a60a08301876138a4565b61391760c0830186613575565b61392460e0830185613575565b81810361010083015261393781846131de565b90509a9950505050505050505050565b600060ff82169050919050565b61395d81613947565b82525050565b7f4e487b7100000000000000000000000000000000000000000000000000000000600052602160045260246000fd5b600681106139a3576139a2613963565b5b50565b60008190506139b482613992565b919050565b60006139c4826139a6565b9050919050565b6139d4816139b9565b82525050565b600060c0820190506139ef6000830189613575565b8181036020830152613a0181886131de565b9050613a106040830187613575565b613a1d6060830186613954565b8181036080830152613a2f81856131de565b9050613a3e60a08301846139cb565b979650505050505050565b600067ffffffffffffffff821115613a6457613a636133c1565b5b613a6d826131cd565b9050602081019050919050565b6000613a8d613a8884613a49565b613421565b905082815260208101848484011115613aa957613aa86133bc565b5b613ab484828561346d565b509392505050565b600082601f830112613ad157613ad06133b7565b5b8135613ae1848260208601613a7a565b91505092915050565b60008060008060808587031215613b0457613b036130b9565b5b6000613b128782880161330f565b9450506020613b238782880161330f565b9350506040613b348782880161325a565b925050606085013567ffffffffffffffff811115613b5557613b546130be565b5b613b6187828801613abc565b91505092959194509250565b60008060408385031215613b8457613b836130b9565b5b6000613b928582860161330f565b9250506020613ba38582860161330f565b9150509250929050565b600080fd5b600080fd5b60008083601f840112613bcd57613bcc6133b7565b5b8235905067ffffffffffffffff811115613bea57613be9613bad565b5b602083019150836020820283011115613c0657613c05613bb2565b5b9250929050565b60008060208385031215613c2457613c236130b9565b5b600083013567ffffffffffffffff811115613c4257613c416130be565b5b613c4e85828601613bb7565b92509250509250929050565b7f4e487b7100000000000000000000000000000000000000000000000000000000600052602260045260246000fd5b60006002820490506001821680613ca157607f821691505b60208210811415613cb557613cb4613c5a565b5b50919050565b7f4552433732313a20617070726f76656420717565727920666f72206e6f6e657860008201527f697374656e7420746f6b656e0000000000000000000000000000000000000000602082015250565b6000613d17602c83613189565b9150613d2282613cbb565b604082019050919050565b60006020820190508181036000830152613d4681613d0a565b9050919050565b7f4552433732313a20617070726f76616c20746f2063757272656e74206f776e6560008201527f7200000000000000000000000000000000000000000000000000000000000000602082015250565b6000613da9602183613189565b9150613db482613d4d565b604082019050919050565b60006020820190508181036000830152613dd881613d9c565b9050919050565b7f4552433732313a20617070726f76652063616c6c6572206973206e6f74206f7760008201527f6e6572206e6f7220617070726f76656420666f7220616c6c0000000000000000602082015250565b6000613e3b603883613189565b9150613e4682613ddf565b604082019050919050565b60006020820190508181036000830152613e6a81613e2e565b9050919050565b7f4552433732313a207472616e736665722063616c6c6572206973206e6f74206f60008201527f776e6572206e6f7220617070726f766564000000000000000000000000000000602082015250565b6000613ecd603183613189565b9150613ed882613e71565b604082019050919050565b60006020820190508181036000830152613efc81613ec0565b9050919050565b7f4f776e61626c653a2063616c6c6572206973206e6f7420746865206f776e6572600082015250565b6000613f39602083613189565b9150613f4482613f03565b602082019050919050565b60006020820190508181036000830152613f6881613f2c565b9050919050565b7f4e487b7100000000000000000000000000000000000000000000000000000000600052603260045260246000fd5b7f4552433732313a206f776e657220717565727920666f72206e6f6e657869737460008201527f656e7420746f6b656e0000000000000000000000000000000000000000000000602082015250565b6000613ffa602983613189565b915061400582613f9e565b604082019050919050565b6000602082019050818103600083015261402981613fed565b9050919050565b7f4552433732313a2062616c616e636520717565727920666f7220746865207a6560008201527f726f206164647265737300000000000000000000000000000000000000000000602082015250565b600061408c602a83613189565b915061409782614030565b604082019050919050565b600060208201905081810360008301526140bb8161407f565b9050919050565b7f4865726f206973206e6f7420726561647920746f20676f2061206e657720616460008201527f76656e74757265207965742e2e00000000000000000000000000000000000000602082015250565b600061411e602d83613189565b9150614129826140c2565b604082019050919050565b6000602082019050818103600083015261414d81614111565b9050919050565b7f4e487b7100000000000000000000000000000000000000000000000000000000600052601260045260246000fd5b600061418e82613239565b915061419983613239565b9250826141a9576141a8614154565b5b828206905092915050565b7f4e487b7100000000000000000000000000000000000000000000000000000000600052601160045260246000fd5b60006141ee82613239565b91506141f983613239565b9250827fffffffffffffffffffffffffffffffffffffffffffffffffffffffffffffffff0382111561422e5761422d6141b4565b5b828201905092915050565b60008190508160005260206000209050919050565b6000815461425b81613c89565b6142658186613189565b945060018216600081146142805760018114614292576142c5565b60ff19831686526020860193506142c5565b61429b85614239565b60005b838110156142bd5781548189015260018201915060208101905061429e565b808801955050505b50505092915050565b600060608201905081810360008301526142e8818661424e565b90506142f760208301856139cb565b6143046040830184613575565b949350505050565b7f4552433732314d657461646174613a2055524920717565727920666f72206e6f60008201527f6e6578697374656e7420746f6b656e0000000000000000000000000000000000602082015250565b6000614368602f83613189565b91506143738261430c565b604082019050919050565b600060208201905081810360008301526143978161435b565b9050919050565b600081905092915050565b60006143b48261317e565b6143be818561439e565b93506143ce81856020860161319a565b80840191505092915050565b60006143e682856143a9565b91506143f282846143a9565b91508190509392505050565b600061440982613239565b91507fffffffffffffffffffffffffffffffffffffffffffffffffffffffffffffffff82141561443c5761443b6141b4565b5b600182019050919050565b600080fd5b600080fd5b600080fd5b60008235600160c00383360303811261447257614471614447565b5b80830191505092915050565b7f4f776e61626c653a206e6577206f776e657220697320746865207a65726f206160008201527f6464726573730000000000000000000000000000000000000000000000000000602082015250565b60006144da602683613189565b91506144e58261447e565b604082019050919050565b60006020820190508181036000830152614509816144cd565b9050919050565b7f4552433732313a206f70657261746f7220717565727920666f72206e6f6e657860008201527f697374656e7420746f6b656e0000000000000000000000000000000000000000602082015250565b600061456c602c83613189565b915061457782614510565b604082019050919050565b6000602082019050818103600083015261459b8161455f565b9050919050565b7f4552433732313a207472616e73666572206f6620746f6b656e2074686174206960008201527f73206e6f74206f776e0000000000000000000000000000000000000000000000602082015250565b60006145fe602983613189565b9150614609826145a2565b604082019050919050565b6000602082019050818103600083015261462d816145f1565b9050919050565b7f4552433732313a207472616e7366657220746f20746865207a65726f2061646460008201527f7265737300000000000000000000000000000000000000000000000000000000602082015250565b6000614690602483613189565b915061469b82614634565b604082019050919050565b600060208201905081810360008301526146bf81614683565b9050919050565b60006146d182613239565b91506146dc83613239565b9250828210156146ef576146ee6141b4565b5b828203905092915050565b6000819050919050565b61471561471082613239565b6146fa565b82525050565b60006147278284614704565b60208201915081905092915050565b600061474182613239565b915061474c83613239565b92508261475c5761475b614154565b5b828204905092915050565b600060408201905061477c6000830185613575565b6147896020830184613575565b9392505050565b7f4552433732313a20617070726f766520746f2063616c6c657200000000000000600082015250565b60006147c6601983613189565b91506147d182614790565b602082019050919050565b600060208201905081810360008301526147f5816147b9565b9050919050565b7f4552433732313a207472616e7366657220746f206e6f6e20455243373231526560008201527f63656976657220696d706c656d656e7465720000000000000000000000000000602082015250565b6000614858603283613189565b9150614863826147fc565b604082019050919050565b600060208201905081810360008301526148878161484b565b9050919050565b600080833560016020038436030381126148ab576148aa614447565b5b80840192508235915067ffffffffffffffff8211156148cd576148cc61444c565b5b6020830192506001820236038313156148e9576148e8614451565b5b509250929050565b6148fa81613947565b811461490557600080fd5b50565b600081359050614917816148f1565b92915050565b600060208284031215614933576149326130b9565b5b600061494184828501614908565b91505092915050565b6006811061495757600080fd5b50565b6000813590506149698161494a565b92915050565b600060208284031215614985576149846130b9565b5b60006149938482850161495a565b91505092915050565b600081519050919050565b600082825260208201905092915050565b60006149c38261499c565b6149cd81856149a7565b93506149dd81856020860161319a565b6149e6816131cd565b840191505092915050565b6000608082019050614a0660008301876132ce565b614a1360208301866132ce565b614a206040830185613575565b8181036060830152614a3281846149b8565b905095945050505050565b600081519050614a4c816130ef565b92915050565b600060208284031215614a6857614a676130b9565b5b6000614a7684828501614a3d565b91505092915050565b7f4552433732313a206d696e7420746f20746865207a65726f2061646472657373600082015250565b6000614ab5602083613189565b9150614ac082614a7f565b602082019050919050565b60006020820190508181036000830152614ae481614aa8565b9050919050565b7f4552433732313a20746f6b656e20616c7265616479206d696e74656400000000600082015250565b6000614b21601c83613189565b9150614b2c82614aeb565b602082019050919050565b60006020820190508181036000830152614b5081614b14565b905091905056fea2646970667358221220118c4dad64fb891ea77438303eb99a210f112bf2515a40e6472bd20b6ae9fcd664736f6c634300080a0033",
  "immutableReferences": {},
  "source": "// SPDX-License-Identifier: MIT\r\npragma solidity ^0.8.7;\r\nimport \"./IotaHeroUtil.sol\";\r\nimport \"./IotaHeroGameTokens.sol\";\r\n\r\ncontract IotaHeroAdventure is IotaHeroUtil {\r\n    IotaHeroGameTokens public tokens;\r\n    using SafeMath for uint256;\r\n    uint256 randomNonce = 0;\r\n    uint256 adventureCounter = 0;\r\n\r\n    enum AdventureType {\r\n        MONSTER,\r\n        EMPTY,\r\n        MENTAL_TRAINING,\r\n        PHYSICAL_TRAINING,\r\n        FRIENDLY,\r\n        ENVIRONMENT\r\n    }\r\n\r\n    struct Adventure {\r\n        uint256 id;\r\n        string name;\r\n        uint256 xpRequirement;\r\n        uint8 difficulty;\r\n        string description;\r\n        AdventureType adventureType;\r\n    }\r\n    Adventure[] public adventures;\r\n\r\n\r\n\r\n    function setTokens(address tokensAddress) public onlyOwner {\r\n        tokens = IotaHeroGameTokens(tokensAddress);\r\n    }\r\n\r\n    function addAdventures(Adventure[] calldata _adventures) public onlyOwner {\r\n        for (uint256 i = 0; i < _adventures.length; i++) {\r\n            _addAdventure(_adventures[i]);\r\n        }\r\n    }\r\n\r\n    function _addAdventure(Adventure calldata _adventure) internal {\r\n        adventures.push(\r\n            Adventure(\r\n                adventureCounter,\r\n                _adventure.name,\r\n                _adventure.xpRequirement,\r\n                _adventure.difficulty,\r\n                _adventure.description,\r\n                _adventure.adventureType\r\n            )\r\n        );\r\n        adventureCounter++;\r\n    }\r\n\r\n    event AdventureCompleted(\r\n        address indexed player,\r\n        uint256 indexed heroId,\r\n        string name,\r\n        AdventureType adventureType,\r\n        uint256 rand\r\n    );\r\n\r\n    function goAdventure(uint256 _heroId) external onlyOwnerOf(_heroId) {\r\n        Hero storage myHero = heroes[_heroId];\r\n        require(\r\n            heroIsReady(myHero),\r\n            \"Hero is not ready to go a new adventure yet..\"\r\n        );\r\n\r\n        uint256 rand = _pseudoRandom(randomNonce) % 100;\r\n        uint256 rand2 = _pseudoRandom(rand);\r\n        Adventure storage adv = adventures[rand2 % adventures.length];\r\n        if (adv.adventureType == AdventureType.MONSTER) {\r\n            if (rand < 50) {\r\n                myHero.xp = myHero.xp.add(100);\r\n                tokens.awardAdventurer(msg.sender);\r\n            } else {\r\n                myHero.xp = myHero.xp.div(2);\r\n            }\r\n        } else if (adv.adventureType == AdventureType.FRIENDLY) {\r\n            tokens.awardAdventurer(msg.sender);\r\n        } else if (adv.adventureType == AdventureType.ENVIRONMENT) {\r\n            if (rand < 50) {\r\n                myHero.physical = myHero.physical.add(1);\r\n            } else {\r\n                myHero.physical = myHero.physical.sub(1);\r\n            }\r\n        } else if (adv.adventureType == AdventureType.EMPTY) {\r\n            // do nothing\r\n        } else if (adv.adventureType == AdventureType.MENTAL_TRAINING) {\r\n            if (rand < 50) {\r\n                myHero.mental = myHero.mental.add(1);\r\n            }\r\n        } else if (adv.adventureType == AdventureType.PHYSICAL_TRAINING) {\r\n            if (rand < 50) {\r\n                myHero.physical = myHero.physical.add(1);\r\n            }\r\n        }\r\n        myHero.debug = rand;\r\n        myHero.restingTill = uint32(block.timestamp + adventureCoolDown);\r\n        randomNonce = randomNonce.add(1);\r\n        emit AdventureCompleted(\r\n            msg.sender,\r\n            _heroId,\r\n            adv.name,\r\n            adv.adventureType,\r\n            rand\r\n        );\r\n    }\r\n}\r\n",
  "sourcePath": "C:\\Users\\creld\\source\\repos\\IotaHeroes\\smartcontracts\\contracts\\IotaHeroAdventure.sol",
  "compiler": {
    "name": "solc",
    "version": "0.8.10+commit.fc410830.Emscripten.clang"
  },
  "schemaVersion": "3.4.4",
  "updatedAt": "2022-01-12T08:28:04.348Z",
  "networkType": "ethereum",
  "devdoc": {
    "kind": "dev",
    "methods": {
      "approve(address,uint256)": {
        "details": "See {IERC721-approve}."
      },
      "balanceOf(address)": {
        "details": "See {IERC721-balanceOf}."
      },
      "getApproved(uint256)": {
        "details": "See {IERC721-getApproved}."
      },
      "isApprovedForAll(address,address)": {
        "details": "See {IERC721-isApprovedForAll}."
      },
      "name()": {
        "details": "See {IERC721Metadata-name}."
      },
      "owner()": {
        "details": "Returns the address of the current owner."
      },
      "ownerOf(uint256)": {
        "details": "See {IERC721-ownerOf}."
      },
      "renounceOwnership()": {
        "details": "Leaves the contract without owner. It will not be possible to call `onlyOwner` functions anymore. Can only be called by the current owner. NOTE: Renouncing ownership will leave the contract without an owner, thereby removing any functionality that is only available to the owner."
      },
      "safeTransferFrom(address,address,uint256)": {
        "details": "See {IERC721-safeTransferFrom}."
      },
      "safeTransferFrom(address,address,uint256,bytes)": {
        "details": "See {IERC721-safeTransferFrom}."
      },
      "setApprovalForAll(address,bool)": {
        "details": "See {IERC721-setApprovalForAll}."
      },
      "supportsInterface(bytes4)": {
        "details": "See {IERC165-supportsInterface}."
      },
      "symbol()": {
        "details": "See {IERC721Metadata-symbol}."
      },
      "tokenURI(uint256)": {
        "details": "See {IERC721Metadata-tokenURI}."
      },
      "transferFrom(address,address,uint256)": {
        "details": "See {IERC721-transferFrom}."
      },
      "transferOwnership(address)": {
        "details": "Transfers ownership of the contract to a new account (`newOwner`). Can only be called by the current owner."
      }
    },
    "version": 1
  },
  "userdoc": {
    "kind": "user",
    "methods": {},
    "version": 1
  }
}