{
  "contractName": "IotaHeroFactory",
  "abi": [
    {
      "inputs": [],
      "stateMutability": "nonpayable",
      "type": "constructor"
    },
    {
      "anonymous": false,
      "inputs": [
        {
          "indexed": true,
          "internalType": "address",
          "name": "owner",
          "type": "address"
        },
        {
          "indexed": true,
          "internalType": "address",
          "name": "approved",
          "type": "address"
        },
        {
          "indexed": true,
          "internalType": "uint256",
          "name": "tokenId",
          "type": "uint256"
        }
      ],
      "name": "Approval",
      "type": "event"
    },
    {
      "anonymous": false,
      "inputs": [
        {
          "indexed": true,
          "internalType": "address",
          "name": "owner",
          "type": "address"
        },
        {
          "indexed": true,
          "internalType": "address",
          "name": "operator",
          "type": "address"
        },
        {
          "indexed": false,
          "internalType": "bool",
          "name": "approved",
          "type": "bool"
        }
      ],
      "name": "ApprovalForAll",
      "type": "event"
    },
    {
      "anonymous": false,
      "inputs": [
        {
          "indexed": true,
          "internalType": "address",
          "name": "owner",
          "type": "address"
        },
        {
          "indexed": false,
          "internalType": "uint256",
          "name": "id",
          "type": "uint256"
        },
        {
          "indexed": false,
          "internalType": "uint256",
          "name": "dna",
          "type": "uint256"
        }
      ],
      "name": "HeroMinted",
      "type": "event"
    },
    {
      "anonymous": false,
      "inputs": [
        {
          "indexed": true,
          "internalType": "address",
          "name": "previousOwner",
          "type": "address"
        },
        {
          "indexed": true,
          "internalType": "address",
          "name": "newOwner",
          "type": "address"
        }
      ],
      "name": "OwnershipTransferred",
      "type": "event"
    },
    {
      "anonymous": false,
      "inputs": [
        {
          "indexed": true,
          "internalType": "address",
          "name": "from",
          "type": "address"
        },
        {
          "indexed": true,
          "internalType": "address",
          "name": "to",
          "type": "address"
        },
        {
          "indexed": true,
          "internalType": "uint256",
          "name": "tokenId",
          "type": "uint256"
        }
      ],
      "name": "Transfer",
      "type": "event"
    },
    {
      "inputs": [
        {
          "internalType": "address",
          "name": "",
          "type": "address"
        }
      ],
      "name": "addressToId",
      "outputs": [
        {
          "internalType": "uint256",
          "name": "",
          "type": "uint256"
        }
      ],
      "stateMutability": "view",
      "type": "function"
    },
    {
      "inputs": [
        {
          "internalType": "address",
          "name": "to",
          "type": "address"
        },
        {
          "internalType": "uint256",
          "name": "tokenId",
          "type": "uint256"
        }
      ],
      "name": "approve",
      "outputs": [],
      "stateMutability": "nonpayable",
      "type": "function"
    },
    {
      "inputs": [
        {
          "internalType": "address",
          "name": "owner",
          "type": "address"
        }
      ],
      "name": "balanceOf",
      "outputs": [
        {
          "internalType": "uint256",
          "name": "",
          "type": "uint256"
        }
      ],
      "stateMutability": "view",
      "type": "function"
    },
    {
      "inputs": [],
      "name": "currentUserCount",
      "outputs": [
        {
          "internalType": "uint256",
          "name": "",
          "type": "uint256"
        }
      ],
      "stateMutability": "view",
      "type": "function"
    },
    {
      "inputs": [
        {
          "internalType": "uint256",
          "name": "tokenId",
          "type": "uint256"
        }
      ],
      "name": "getApproved",
      "outputs": [
        {
          "internalType": "address",
          "name": "",
          "type": "address"
        }
      ],
      "stateMutability": "view",
      "type": "function"
    },
    {
      "inputs": [],
      "name": "getUsername",
      "outputs": [
        {
          "internalType": "string",
          "name": "",
          "type": "string"
        }
      ],
      "stateMutability": "view",
      "type": "function"
    },
    {
      "inputs": [
        {
          "internalType": "address",
          "name": "_address",
          "type": "address"
        }
      ],
      "name": "getUsernameByAddress",
      "outputs": [
        {
          "internalType": "string",
          "name": "",
          "type": "string"
        }
      ],
      "stateMutability": "view",
      "type": "function"
    },
    {
      "inputs": [],
      "name": "getUsernameLength",
      "outputs": [
        {
          "internalType": "uint256",
          "name": "",
          "type": "uint256"
        }
      ],
      "stateMutability": "view",
      "type": "function"
    },
    {
      "inputs": [
        {
          "internalType": "uint256",
          "name": "",
          "type": "uint256"
        }
      ],
      "name": "heroes",
      "outputs": [
        {
          "internalType": "uint256",
          "name": "id",
          "type": "uint256"
        },
        {
          "internalType": "uint256",
          "name": "dna",
          "type": "uint256"
        },
        {
          "internalType": "uint256",
          "name": "xp",
          "type": "uint256"
        },
        {
          "internalType": "uint256",
          "name": "mental",
          "type": "uint256"
        },
        {
          "internalType": "uint256",
          "name": "physical",
          "type": "uint256"
        },
        {
          "internalType": "uint16",
          "name": "level",
          "type": "uint16"
        },
        {
          "internalType": "uint256",
          "name": "restingTill",
          "type": "uint256"
        },
        {
          "internalType": "uint256",
          "name": "debug",
          "type": "uint256"
        },
        {
          "internalType": "string",
          "name": "name",
          "type": "string"
        }
      ],
      "stateMutability": "view",
      "type": "function"
    },
    {
      "inputs": [
        {
          "internalType": "uint256",
          "name": "",
          "type": "uint256"
        }
      ],
      "name": "idToAddress",
      "outputs": [
        {
          "internalType": "address",
          "name": "",
          "type": "address"
        }
      ],
      "stateMutability": "view",
      "type": "function"
    },
    {
      "inputs": [
        {
          "internalType": "uint256",
          "name": "",
          "type": "uint256"
        }
      ],
      "name": "idToUsername",
      "outputs": [
        {
          "internalType": "string",
          "name": "",
          "type": "string"
        }
      ],
      "stateMutability": "view",
      "type": "function"
    },
    {
      "inputs": [
        {
          "internalType": "address",
          "name": "owner",
          "type": "address"
        },
        {
          "internalType": "address",
          "name": "operator",
          "type": "address"
        }
      ],
      "name": "isApprovedForAll",
      "outputs": [
        {
          "internalType": "bool",
          "name": "",
          "type": "bool"
        }
      ],
      "stateMutability": "view",
      "type": "function"
    },
    {
      "inputs": [],
      "name": "isSignedUp",
      "outputs": [
        {
          "internalType": "bool",
          "name": "",
          "type": "bool"
        }
      ],
      "stateMutability": "view",
      "type": "function"
    },
    {
      "inputs": [],
      "name": "name",
      "outputs": [
        {
          "internalType": "string",
          "name": "",
          "type": "string"
        }
      ],
      "stateMutability": "view",
      "type": "function"
    },
    {
      "inputs": [],
      "name": "owner",
      "outputs": [
        {
          "internalType": "address",
          "name": "",
          "type": "address"
        }
      ],
      "stateMutability": "view",
      "type": "function"
    },
    {
      "inputs": [
        {
          "internalType": "uint256",
          "name": "tokenId",
          "type": "uint256"
        }
      ],
      "name": "ownerOf",
      "outputs": [
        {
          "internalType": "address",
          "name": "",
          "type": "address"
        }
      ],
      "stateMutability": "view",
      "type": "function"
    },
    {
      "inputs": [],
      "name": "renounceOwnership",
      "outputs": [],
      "stateMutability": "nonpayable",
      "type": "function"
    },
    {
      "inputs": [
        {
          "internalType": "address",
          "name": "from",
          "type": "address"
        },
        {
          "internalType": "address",
          "name": "to",
          "type": "address"
        },
        {
          "internalType": "uint256",
          "name": "tokenId",
          "type": "uint256"
        }
      ],
      "name": "safeTransferFrom",
      "outputs": [],
      "stateMutability": "nonpayable",
      "type": "function"
    },
    {
      "inputs": [
        {
          "internalType": "address",
          "name": "from",
          "type": "address"
        },
        {
          "internalType": "address",
          "name": "to",
          "type": "address"
        },
        {
          "internalType": "uint256",
          "name": "tokenId",
          "type": "uint256"
        },
        {
          "internalType": "bytes",
          "name": "_data",
          "type": "bytes"
        }
      ],
      "name": "safeTransferFrom",
      "outputs": [],
      "stateMutability": "nonpayable",
      "type": "function"
    },
    {
      "inputs": [
        {
          "internalType": "address",
          "name": "operator",
          "type": "address"
        },
        {
          "internalType": "bool",
          "name": "approved",
          "type": "bool"
        }
      ],
      "name": "setApprovalForAll",
      "outputs": [],
      "stateMutability": "nonpayable",
      "type": "function"
    },
    {
      "inputs": [
        {
          "internalType": "string",
          "name": "_username",
          "type": "string"
        }
      ],
      "name": "signUp",
      "outputs": [],
      "stateMutability": "nonpayable",
      "type": "function"
    },
    {
      "inputs": [
        {
          "internalType": "bytes4",
          "name": "interfaceId",
          "type": "bytes4"
        }
      ],
      "name": "supportsInterface",
      "outputs": [
        {
          "internalType": "bool",
          "name": "",
          "type": "bool"
        }
      ],
      "stateMutability": "view",
      "type": "function"
    },
    {
      "inputs": [],
      "name": "symbol",
      "outputs": [
        {
          "internalType": "string",
          "name": "",
          "type": "string"
        }
      ],
      "stateMutability": "view",
      "type": "function"
    },
    {
      "inputs": [
        {
          "internalType": "uint256",
          "name": "tokenId",
          "type": "uint256"
        }
      ],
      "name": "tokenURI",
      "outputs": [
        {
          "internalType": "string",
          "name": "",
          "type": "string"
        }
      ],
      "stateMutability": "view",
      "type": "function"
    },
    {
      "inputs": [
        {
          "internalType": "address",
          "name": "from",
          "type": "address"
        },
        {
          "internalType": "address",
          "name": "to",
          "type": "address"
        },
        {
          "internalType": "uint256",
          "name": "tokenId",
          "type": "uint256"
        }
      ],
      "name": "transferFrom",
      "outputs": [],
      "stateMutability": "nonpayable",
      "type": "function"
    },
    {
      "inputs": [
        {
          "internalType": "address",
          "name": "newOwner",
          "type": "address"
        }
      ],
      "name": "transferOwnership",
      "outputs": [],
      "stateMutability": "nonpayable",
      "type": "function"
    },
    {
      "inputs": [
        {
          "internalType": "string",
          "name": "_username",
          "type": "string"
        }
      ],
      "name": "usernameExists",
      "outputs": [
        {
          "internalType": "bool",
          "name": "",
          "type": "bool"
        }
      ],
      "stateMutability": "view",
      "type": "function"
    },
    {
      "inputs": [
        {
          "internalType": "string",
          "name": "",
          "type": "string"
        }
      ],
      "name": "usernameToId",
      "outputs": [
        {
          "internalType": "uint256",
          "name": "",
          "type": "uint256"
        }
      ],
      "stateMutability": "view",
      "type": "function"
    },
    {
      "inputs": [
        {
          "internalType": "uint256",
          "name": "_heroId",
          "type": "uint256"
        },
        {
          "internalType": "string",
          "name": "_name",
          "type": "string"
        }
      ],
      "name": "nameChange",
      "outputs": [],
      "stateMutability": "nonpayable",
      "type": "function"
    },
    {
      "inputs": [],
      "name": "spawnHero",
      "outputs": [],
      "stateMutability": "nonpayable",
      "type": "function"
    }
  ],
  "bytecode": "0x608060405260016007556000600c55601e600d553480156200002057600080fd5b506040518060400160405280600881526020017f496f74614865726f0000000000000000000000000000000000000000000000008152506040518060400160405280600281526020017f49480000000000000000000000000000000000000000000000000000000000008152508160009080519060200190620000a5929190620001b5565b508060019080519060200190620000be929190620001b5565b505050620000e1620000d5620000e760201b60201c565b620000ef60201b60201c565b620002ca565b600033905090565b6000600660009054906101000a900473ffffffffffffffffffffffffffffffffffffffff16905081600660006101000a81548173ffffffffffffffffffffffffffffffffffffffff021916908373ffffffffffffffffffffffffffffffffffffffff1602179055508173ffffffffffffffffffffffffffffffffffffffff168173ffffffffffffffffffffffffffffffffffffffff167f8be0079c531659141344cd1fd0a4f28419497f9722a3daafe3b4186f6b6457e060405160405180910390a35050565b828054620001c39062000294565b90600052602060002090601f016020900481019282620001e7576000855562000233565b82601f106200020257805160ff191683800117855562000233565b8280016001018555821562000233579182015b828111156200023257825182559160200191906001019062000215565b5b50905062000242919062000246565b5090565b5b808211156200026157600081600090555060010162000247565b5090565b7f4e487b7100000000000000000000000000000000000000000000000000000000600052602260045260246000fd5b60006002820490506001821680620002ad57607f821691505b60208210811415620002c457620002c362000265565b5b50919050565b6140ab80620002da6000396000f3fe608060405234801561001057600080fd5b50600436106101da5760003560e01c8063715018a611610104578063b88d4fde116100a2578063ed1a998d11610071578063ed1a998d14610583578063f1c46606146105b3578063f2fde38b146105d1578063f309e3f9146105ed576101da565b8063b88d4fde146104d7578063c87b56dd146104f3578063cb0e0d7d14610523578063e985e9c514610553576101da565b80639f72ed76116100de5780639f72ed761461045d578063a22cb46514610467578063a8d4a03b14610483578063adcfb4fc146104bb576101da565b8063715018a6146104175780638da5cb5b1461042157806395d89b411461043f576101da565b806339bdca1f1161017c5780636352211e1161014b5780636352211e1461037b578063681f3e6d146103ab5780636d0cac8e146103c957806370a08231146103e7576101da565b806339bdca1f146102e357806342842e0e1461031357806348646f7b1461032f5780635e1fe1db1461034b576101da565b8063095ea7b3116101b8578063095ea7b31461025d578063191d1cb41461027957806323b872dd146102975780632a2d0c47146102b3576101da565b806301ffc9a7146101df57806306fdde031461020f578063081812fc1461022d575b600080fd5b6101f960048036038101906101f49190612a55565b61061d565b6040516102069190612a9d565b60405180910390f35b6102176106ff565b6040516102249190612b51565b60405180910390f35b61024760048036038101906102429190612ba9565b610791565b6040516102549190612c17565b60405180910390f35b61027760048036038101906102729190612c5e565b610816565b005b61028161092e565b60405161028e9190612a9d565b60405180910390f35b6102b160048036038101906102ac9190612c9e565b610978565b005b6102cd60048036038101906102c89190612ba9565b6109d8565b6040516102da9190612c17565b60405180910390f35b6102fd60048036038101906102f89190612ba9565b610a0b565b60405161030a9190612b51565b60405180910390f35b61032d60048036038101906103289190612c9e565b610aab565b005b61034960048036038101906103449190612e26565b610acb565b005b61036560048036038101906103609190612e82565b610c33565b6040516103729190612eda565b60405180910390f35b61039560048036038101906103909190612ba9565b610c61565b6040516103a29190612c17565b60405180910390f35b6103b3610d13565b6040516103c09190612b51565b60405180910390f35b6103d1610df5565b6040516103de9190612eda565b60405180910390f35b61040160048036038101906103fc9190612ef5565b610e0b565b60405161040e9190612eda565b60405180910390f35b61041f610ec3565b005b610429610f4b565b6040516104369190612c17565b60405180910390f35b610447610f75565b6040516104549190612b51565b60405180910390f35b610465611007565b005b610481600480360381019061047c9190612f4e565b6110a5565b005b61049d60048036038101906104989190612ba9565b6110bb565b6040516104b299989796959493929190612fab565b60405180910390f35b6104d560048036038101906104d09190612e82565b6111af565b005b6104f160048036038101906104ec91906130e0565b6113f7565b005b61050d60048036038101906105089190612ba9565b611459565b60405161051a9190612b51565b60405180910390f35b61053d60048036038101906105389190612ef5565b611500565b60405161054a9190612eda565b60405180910390f35b61056d60048036038101906105689190613163565b611518565b60405161057a9190612a9d565b60405180910390f35b61059d60048036038101906105989190612ef5565b6115ac565b6040516105aa9190612b51565b60405180910390f35b6105bb611690565b6040516105c89190612eda565b60405180910390f35b6105eb60048036038101906105e69190612ef5565b6116ac565b005b61060760048036038101906106029190612e82565b6117a4565b6040516106149190612a9d565b60405180910390f35b60007f80ac58cd000000000000000000000000000000000000000000000000000000007bffffffffffffffffffffffffffffffffffffffffffffffffffffffff1916827bffffffffffffffffffffffffffffffffffffffffffffffffffffffff191614806106e857507f5b5e139f000000000000000000000000000000000000000000000000000000007bffffffffffffffffffffffffffffffffffffffffffffffffffffffff1916827bffffffffffffffffffffffffffffffffffffffffffffffffffffffff1916145b806106f857506106f7826117cf565b5b9050919050565b60606000805461070e906131d2565b80601f016020809104026020016040519081016040528092919081815260200182805461073a906131d2565b80156107875780601f1061075c57610100808354040283529160200191610787565b820191906000526020600020905b81548152906001019060200180831161076a57829003601f168201915b5050505050905090565b600061079c82611839565b6107db576040517f08c379a00000000000000000000000000000000000000000000000000000000081526004016107d290613276565b60405180910390fd5b6004600083815260200190815260200160002060009054906101000a900473ffffffffffffffffffffffffffffffffffffffff169050919050565b600061082182610c61565b90508073ffffffffffffffffffffffffffffffffffffffff168373ffffffffffffffffffffffffffffffffffffffff161415610892576040517f08c379a000000000000000000000000000000000000000000000000000000000815260040161088990613308565b60405180910390fd5b8073ffffffffffffffffffffffffffffffffffffffff166108b16118a5565b73ffffffffffffffffffffffffffffffffffffffff1614806108e057506108df816108da6118a5565b611518565b5b61091f576040517f08c379a00000000000000000000000000000000000000000000000000000000081526004016109169061339a565b60405180910390fd5b61092983836118ad565b505050565b600080600a60003373ffffffffffffffffffffffffffffffffffffffff1673ffffffffffffffffffffffffffffffffffffffff168152602001908152602001600020541415905090565b6109896109836118a5565b82611966565b6109c8576040517f08c379a00000000000000000000000000000000000000000000000000000000081526004016109bf9061342c565b60405180910390fd5b6109d3838383611a44565b505050565b60086020528060005260406000206000915054906101000a900473ffffffffffffffffffffffffffffffffffffffff1681565b60096020528060005260406000206000915090508054610a2a906131d2565b80601f0160208091040260200160405190810160405280929190818152602001828054610a56906131d2565b8015610aa35780601f10610a7857610100808354040283529160200191610aa3565b820191906000526020600020905b815481529060010190602001808311610a8657829003601f168201915b505050505081565b610ac6838383604051806020016040528060008152506113f7565b505050565b6000600a60003373ffffffffffffffffffffffffffffffffffffffff1673ffffffffffffffffffffffffffffffffffffffff168152602001908152602001600020541415610b4e576040517f08c379a0000000000000000000000000000000000000000000000000000000008152600401610b4590613498565b60405180910390fd5b81610b5881610c61565b73ffffffffffffffffffffffffffffffffffffffff163373ffffffffffffffffffffffffffffffffffffffff1614610b8f57600080fd5b816000610b9b82611ca0565b9050600d81108015610bad5750600281115b610bec576040517f08c379a0000000000000000000000000000000000000000000000000000000008152600401610be39061352a565b60405180910390fd5b6000600e8681548110610c0257610c0161354a565b5b9060005260206000209060090201905084816008019080519060200190610c2a929190612946565b50505050505050565b600b818051602081018201805184825260208301602085012081835280955050505050506000915090505481565b6000806002600084815260200190815260200160002060009054906101000a900473ffffffffffffffffffffffffffffffffffffffff169050600073ffffffffffffffffffffffffffffffffffffffff168173ffffffffffffffffffffffffffffffffffffffff161415610d0a576040517f08c379a0000000000000000000000000000000000000000000000000000000008152600401610d01906135eb565b60405180910390fd5b80915050919050565b606060096000600a60003373ffffffffffffffffffffffffffffffffffffffff1673ffffffffffffffffffffffffffffffffffffffff1681526020019081526020016000205481526020019081526020016000208054610d72906131d2565b80601f0160208091040260200160405190810160405280929190818152602001828054610d9e906131d2565b8015610deb5780601f10610dc057610100808354040283529160200191610deb565b820191906000526020600020905b815481529060010190602001808311610dce57829003601f168201915b5050505050905090565b60006001600754610e06919061363a565b905090565b60008073ffffffffffffffffffffffffffffffffffffffff168273ffffffffffffffffffffffffffffffffffffffff161415610e7c576040517f08c379a0000000000000000000000000000000000000000000000000000000008152600401610e73906136e0565b60405180910390fd5b600360008373ffffffffffffffffffffffffffffffffffffffff1673ffffffffffffffffffffffffffffffffffffffff168152602001908152602001600020549050919050565b610ecb6118a5565b73ffffffffffffffffffffffffffffffffffffffff16610ee9610f4b565b73ffffffffffffffffffffffffffffffffffffffff1614610f3f576040517f08c379a0000000000000000000000000000000000000000000000000000000008152600401610f369061374c565b60405180910390fd5b610f496000611f5d565b565b6000600660009054906101000a900473ffffffffffffffffffffffffffffffffffffffff16905090565b606060018054610f84906131d2565b80601f0160208091040260200160405190810160405280929190818152602001828054610fb0906131d2565b8015610ffd5780601f10610fd257610100808354040283529160200191610ffd565b820191906000526020600020905b815481529060010190602001808311610fe057829003601f168201915b5050505050905090565b6000600a60003373ffffffffffffffffffffffffffffffffffffffff1673ffffffffffffffffffffffffffffffffffffffff16815260200190815260200160002054141561108a576040517f08c379a000000000000000000000000000000000000000000000000000000000815260040161108190613498565b60405180910390fd5b6000611097600c54612023565b90506110a281612076565b50565b6110b76110b06118a5565b8383612208565b5050565b600e81815481106110cb57600080fd5b90600052602060002090600902016000915090508060000154908060010154908060020154908060030154908060040154908060050160009054906101000a900461ffff169080600601549080600701549080600801805461112c906131d2565b80601f0160208091040260200160405190810160405280929190818152602001828054611158906131d2565b80156111a55780601f1061117a576101008083540402835291602001916111a5565b820191906000526020600020905b81548152906001019060200180831161118857829003601f168201915b5050505050905089565b806000600b826040516111c291906137a8565b90815260200160405180910390205414611211576040517f08c379a00000000000000000000000000000000000000000000000000000000081526004016112089061380b565b60405180910390fd5b6000600a60003373ffffffffffffffffffffffffffffffffffffffff1673ffffffffffffffffffffffffffffffffffffffff1681526020019081526020016000205414611293576040517f08c379a000000000000000000000000000000000000000000000000000000000815260040161128a90613877565b60405180910390fd5b81600061129f82611ca0565b9050600d811080156112b15750600281115b6112f0576040517f08c379a00000000000000000000000000000000000000000000000000000000081526004016112e790613909565b60405180910390fd5b600754600a60003373ffffffffffffffffffffffffffffffffffffffff1673ffffffffffffffffffffffffffffffffffffffff168152602001908152602001600020819055503360086000600754815260200190815260200160002060006101000a81548173ffffffffffffffffffffffffffffffffffffffff021916908373ffffffffffffffffffffffffffffffffffffffff1602179055508360096000600754815260200190815260200160002090805190602001906113b3929190612946565b50600754600b856040516113c791906137a8565b908152602001604051809103902081905550600760008154809291906113ec90613929565b919050555050505050565b6114086114026118a5565b83611966565b611447576040517f08c379a000000000000000000000000000000000000000000000000000000000815260040161143e9061342c565b60405180910390fd5b61145384848484612375565b50505050565b606061146482611839565b6114a3576040517f08c379a000000000000000000000000000000000000000000000000000000000815260040161149a906139e4565b60405180910390fd5b60006114ad6123d1565b905060008151116114cd57604051806020016040528060008152506114f8565b806114d7846123e8565b6040516020016114e8929190613a04565b6040516020818303038152906040525b915050919050565b600a6020528060005260406000206000915090505481565b6000600560008473ffffffffffffffffffffffffffffffffffffffff1673ffffffffffffffffffffffffffffffffffffffff16815260200190815260200160002060008373ffffffffffffffffffffffffffffffffffffffff1673ffffffffffffffffffffffffffffffffffffffff16815260200190815260200160002060009054906101000a900460ff16905092915050565b606060096000600a60008573ffffffffffffffffffffffffffffffffffffffff1673ffffffffffffffffffffffffffffffffffffffff168152602001908152602001600020548152602001908152602001600020805461160b906131d2565b80601f0160208091040260200160405190810160405280929190818152602001828054611637906131d2565b80156116845780601f1061165957610100808354040283529160200191611684565b820191906000526020600020905b81548152906001019060200180831161166757829003601f168201915b50505050509050919050565b60008061169b610d13565b90506116a681611ca0565b91505090565b6116b46118a5565b73ffffffffffffffffffffffffffffffffffffffff166116d2610f4b565b73ffffffffffffffffffffffffffffffffffffffff1614611728576040517f08c379a000000000000000000000000000000000000000000000000000000000815260040161171f9061374c565b60405180910390fd5b600073ffffffffffffffffffffffffffffffffffffffff168173ffffffffffffffffffffffffffffffffffffffff161415611798576040517f08c379a000000000000000000000000000000000000000000000000000000000815260040161178f90613a9a565b60405180910390fd5b6117a181611f5d565b50565b600080600b836040516117b791906137a8565b90815260200160405180910390205414159050919050565b60007f01ffc9a7000000000000000000000000000000000000000000000000000000007bffffffffffffffffffffffffffffffffffffffffffffffffffffffff1916827bffffffffffffffffffffffffffffffffffffffffffffffffffffffff1916149050919050565b60008073ffffffffffffffffffffffffffffffffffffffff166002600084815260200190815260200160002060009054906101000a900473ffffffffffffffffffffffffffffffffffffffff1673ffffffffffffffffffffffffffffffffffffffff1614159050919050565b600033905090565b816004600083815260200190815260200160002060006101000a81548173ffffffffffffffffffffffffffffffffffffffff021916908373ffffffffffffffffffffffffffffffffffffffff160217905550808273ffffffffffffffffffffffffffffffffffffffff1661192083610c61565b73ffffffffffffffffffffffffffffffffffffffff167f8c5be1e5ebec7d5bd14f71427d1e84f3dd0314c0f7b2291e5b200ac8c7c3b92560405160405180910390a45050565b600061197182611839565b6119b0576040517f08c379a00000000000000000000000000000000000000000000000000000000081526004016119a790613b2c565b60405180910390fd5b60006119bb83610c61565b90508073ffffffffffffffffffffffffffffffffffffffff168473ffffffffffffffffffffffffffffffffffffffff161480611a2a57508373ffffffffffffffffffffffffffffffffffffffff16611a1284610791565b73ffffffffffffffffffffffffffffffffffffffff16145b80611a3b5750611a3a8185611518565b5b91505092915050565b8273ffffffffffffffffffffffffffffffffffffffff16611a6482610c61565b73ffffffffffffffffffffffffffffffffffffffff1614611aba576040517f08c379a0000000000000000000000000000000000000000000000000000000008152600401611ab190613bbe565b60405180910390fd5b600073ffffffffffffffffffffffffffffffffffffffff168273ffffffffffffffffffffffffffffffffffffffff161415611b2a576040517f08c379a0000000000000000000000000000000000000000000000000000000008152600401611b2190613c50565b60405180910390fd5b611b35838383612549565b611b406000826118ad565b6001600360008573ffffffffffffffffffffffffffffffffffffffff1673ffffffffffffffffffffffffffffffffffffffff1681526020019081526020016000206000828254611b90919061363a565b925050819055506001600360008473ffffffffffffffffffffffffffffffffffffffff1673ffffffffffffffffffffffffffffffffffffffff1681526020019081526020016000206000828254611be79190613c70565b92505081905550816002600083815260200190815260200160002060006101000a81548173ffffffffffffffffffffffffffffffffffffffff021916908373ffffffffffffffffffffffffffffffffffffffff160217905550808273ffffffffffffffffffffffffffffffffffffffff168473ffffffffffffffffffffffffffffffffffffffff167fddf252ad1be2c89b69c2b068fc378daa952ba7f163c4a11628f55a4df523b3ef60405160405180910390a4505050565b6000806000905060008390505b8051821015611f5657600060f81b6007828481518110611cd057611ccf61354a565b5b602001015160f81c60f81b7effffffffffffffffffffffffffffffffffffffffffffffffffffffffffffff1916901c7effffffffffffffffffffffffffffffffffffffffffffffffffffffffffffff19161415611d3b57600182611d349190613c70565b9150611f43565b600660f81b7effffffffffffffffffffffffffffffffffffffffffffffffffffffffffffff19166005828481518110611d7757611d7661354a565b5b602001015160f81c60f81b7effffffffffffffffffffffffffffffffffffffffffffffffffffffffffffff1916901c7effffffffffffffffffffffffffffffffffffffffffffffffffffffffffffff19161415611de257600282611ddb9190613c70565b9150611f42565b600e60f81b7effffffffffffffffffffffffffffffffffffffffffffffffffffffffffffff19166004828481518110611e1e57611e1d61354a565b5b602001015160f81c60f81b7effffffffffffffffffffffffffffffffffffffffffffffffffffffffffffff1916901c7effffffffffffffffffffffffffffffffffffffffffffffffffffffffffffff19161415611e8957600382611e829190613c70565b9150611f41565b601e60f81b7effffffffffffffffffffffffffffffffffffffffffffffffffffffffffffff19166003828481518110611ec557611ec461354a565b5b602001015160f81c60f81b7effffffffffffffffffffffffffffffffffffffffffffffffffffffffffffff1916901c7effffffffffffffffffffffffffffffffffffffffffffffffffffffffffffff19161415611f3057600482611f299190613c70565b9150611f40565b600182611f3d9190613c70565b91505b5b5b5b8280611f4e90613929565b935050611cad565b5050919050565b6000600660009054906101000a900473ffffffffffffffffffffffffffffffffffffffff16905081600660006101000a81548173ffffffffffffffffffffffffffffffffffffffff021916908373ffffffffffffffffffffffffffffffffffffffff1602179055508173ffffffffffffffffffffffffffffffffffffffff168173ffffffffffffffffffffffffffffffffffffffff167f8be0079c531659141344cd1fd0a4f28419497f9722a3daafe3b4186f6b6457e060405160405180910390a35050565b60008082426120329190613c70565b6040516020016120429190613ce7565b6040516020818303038152906040528051906020012060001c905064e8d4a510008161206e9190613d31565b915050919050565b6000604051806101200160405280600c5481526020018381526020016101f48152602001600a8152602001600a8152602001600161ffff16815260200142815260200160008152602001604051806020016040528060008152508152509050600e819080600181540180825580915050600190039060005260206000209060090201600090919091909150600082015181600001556020820151816001015560408201518160020155606082015181600301556080820151816004015560a08201518160050160006101000a81548161ffff021916908361ffff16021790555060c0820151816006015560e08201518160070155610100820151816008019080519060200190612187929190612946565b50505061219633600c5461254e565b3373ffffffffffffffffffffffffffffffffffffffff167fad1c7ab5bfbe86a51764200b1532f3893b41563e78abe6d6eac4bbd987f38c68600c54846040516121e0929190613d62565b60405180910390a26121fe6001600c5461256c90919063ffffffff16565b600c819055505050565b8173ffffffffffffffffffffffffffffffffffffffff168373ffffffffffffffffffffffffffffffffffffffff161415612277576040517f08c379a000000000000000000000000000000000000000000000000000000000815260040161226e90613dd7565b60405180910390fd5b80600560008573ffffffffffffffffffffffffffffffffffffffff1673ffffffffffffffffffffffffffffffffffffffff16815260200190815260200160002060008473ffffffffffffffffffffffffffffffffffffffff1673ffffffffffffffffffffffffffffffffffffffff16815260200190815260200160002060006101000a81548160ff0219169083151502179055508173ffffffffffffffffffffffffffffffffffffffff168373ffffffffffffffffffffffffffffffffffffffff167f17307eab39ab6107e8899845ad3d59bd9653f200f220920489ca2b5937696c31836040516123689190612a9d565b60405180910390a3505050565b612380848484611a44565b61238c84848484612582565b6123cb576040517f08c379a00000000000000000000000000000000000000000000000000000000081526004016123c290613e69565b60405180910390fd5b50505050565b606060405180602001604052806000815250905090565b60606000821415612430576040518060400160405280600181526020017f30000000000000000000000000000000000000000000000000000000000000008152509050612544565b600082905060005b6000821461246257808061244b90613929565b915050600a8261245b9190613e89565b9150612438565b60008167ffffffffffffffff81111561247e5761247d612cfb565b5b6040519080825280601f01601f1916602001820160405280156124b05781602001600182028036833780820191505090505b5090505b6000851461253d576001826124c9919061363a565b9150600a856124d89190613d31565b60306124e49190613c70565b60f81b8183815181106124fa576124f961354a565b5b60200101907effffffffffffffffffffffffffffffffffffffffffffffffffffffffffffff1916908160001a905350600a856125369190613e89565b94506124b4565b8093505050505b919050565b505050565b61256882826040518060200160405280600081525061270a565b5050565b6000818361257a9190613c70565b905092915050565b60006125a38473ffffffffffffffffffffffffffffffffffffffff16612765565b156126fd578373ffffffffffffffffffffffffffffffffffffffff1663150b7a026125cc6118a5565b8786866040518563ffffffff1660e01b81526004016125ee9493929190613f0f565b6020604051808303816000875af192505050801561262a57506040513d601f19601f820116820180604052508101906126279190613f70565b60015b6126ad573d806000811461265a576040519150601f19603f3d011682016040523d82523d6000602084013e61265f565b606091505b506000815114156126a5576040517f08c379a000000000000000000000000000000000000000000000000000000000815260040161269c90613e69565b60405180910390fd5b805181602001fd5b63150b7a0260e01b7bffffffffffffffffffffffffffffffffffffffffffffffffffffffff1916817bffffffffffffffffffffffffffffffffffffffffffffffffffffffff191614915050612702565b600190505b949350505050565b6127148383612778565b6127216000848484612582565b612760576040517f08c379a000000000000000000000000000000000000000000000000000000000815260040161275790613e69565b60405180910390fd5b505050565b600080823b905060008111915050919050565b600073ffffffffffffffffffffffffffffffffffffffff168273ffffffffffffffffffffffffffffffffffffffff1614156127e8576040517f08c379a00000000000000000000000000000000000000000000000000000000081526004016127df90613fe9565b60405180910390fd5b6127f181611839565b15612831576040517f08c379a000000000000000000000000000000000000000000000000000000000815260040161282890614055565b60405180910390fd5b61283d60008383612549565b6001600360008473ffffffffffffffffffffffffffffffffffffffff1673ffffffffffffffffffffffffffffffffffffffff168152602001908152602001600020600082825461288d9190613c70565b92505081905550816002600083815260200190815260200160002060006101000a81548173ffffffffffffffffffffffffffffffffffffffff021916908373ffffffffffffffffffffffffffffffffffffffff160217905550808273ffffffffffffffffffffffffffffffffffffffff16600073ffffffffffffffffffffffffffffffffffffffff167fddf252ad1be2c89b69c2b068fc378daa952ba7f163c4a11628f55a4df523b3ef60405160405180910390a45050565b828054612952906131d2565b90600052602060002090601f01602090048101928261297457600085556129bb565b82601f1061298d57805160ff19168380011785556129bb565b828001600101855582156129bb579182015b828111156129ba57825182559160200191906001019061299f565b5b5090506129c891906129cc565b5090565b5b808211156129e55760008160009055506001016129cd565b5090565b6000604051905090565b600080fd5b600080fd5b60007fffffffff0000000000000000000000000000000000000000000000000000000082169050919050565b612a32816129fd565b8114612a3d57600080fd5b50565b600081359050612a4f81612a29565b92915050565b600060208284031215612a6b57612a6a6129f3565b5b6000612a7984828501612a40565b91505092915050565b60008115159050919050565b612a9781612a82565b82525050565b6000602082019050612ab26000830184612a8e565b92915050565b600081519050919050565b600082825260208201905092915050565b60005b83811015612af2578082015181840152602081019050612ad7565b83811115612b01576000848401525b50505050565b6000601f19601f8301169050919050565b6000612b2382612ab8565b612b2d8185612ac3565b9350612b3d818560208601612ad4565b612b4681612b07565b840191505092915050565b60006020820190508181036000830152612b6b8184612b18565b905092915050565b6000819050919050565b612b8681612b73565b8114612b9157600080fd5b50565b600081359050612ba381612b7d565b92915050565b600060208284031215612bbf57612bbe6129f3565b5b6000612bcd84828501612b94565b91505092915050565b600073ffffffffffffffffffffffffffffffffffffffff82169050919050565b6000612c0182612bd6565b9050919050565b612c1181612bf6565b82525050565b6000602082019050612c2c6000830184612c08565b92915050565b612c3b81612bf6565b8114612c4657600080fd5b50565b600081359050612c5881612c32565b92915050565b60008060408385031215612c7557612c746129f3565b5b6000612c8385828601612c49565b9250506020612c9485828601612b94565b9150509250929050565b600080600060608486031215612cb757612cb66129f3565b5b6000612cc586828701612c49565b9350506020612cd686828701612c49565b9250506040612ce786828701612b94565b9150509250925092565b600080fd5b600080fd5b7f4e487b7100000000000000000000000000000000000000000000000000000000600052604160045260246000fd5b612d3382612b07565b810181811067ffffffffffffffff82111715612d5257612d51612cfb565b5b80604052505050565b6000612d656129e9565b9050612d718282612d2a565b919050565b600067ffffffffffffffff821115612d9157612d90612cfb565b5b612d9a82612b07565b9050602081019050919050565b82818337600083830152505050565b6000612dc9612dc484612d76565b612d5b565b905082815260208101848484011115612de557612de4612cf6565b5b612df0848285612da7565b509392505050565b600082601f830112612e0d57612e0c612cf1565b5b8135612e1d848260208601612db6565b91505092915050565b60008060408385031215612e3d57612e3c6129f3565b5b6000612e4b85828601612b94565b925050602083013567ffffffffffffffff811115612e6c57612e6b6129f8565b5b612e7885828601612df8565b9150509250929050565b600060208284031215612e9857612e976129f3565b5b600082013567ffffffffffffffff811115612eb657612eb56129f8565b5b612ec284828501612df8565b91505092915050565b612ed481612b73565b82525050565b6000602082019050612eef6000830184612ecb565b92915050565b600060208284031215612f0b57612f0a6129f3565b5b6000612f1984828501612c49565b91505092915050565b612f2b81612a82565b8114612f3657600080fd5b50565b600081359050612f4881612f22565b92915050565b60008060408385031215612f6557612f646129f3565b5b6000612f7385828601612c49565b9250506020612f8485828601612f39565b9150509250929050565b600061ffff82169050919050565b612fa581612f8e565b82525050565b600061012082019050612fc1600083018c612ecb565b612fce602083018b612ecb565b612fdb604083018a612ecb565b612fe86060830189612ecb565b612ff56080830188612ecb565b61300260a0830187612f9c565b61300f60c0830186612ecb565b61301c60e0830185612ecb565b81810361010083015261302f8184612b18565b90509a9950505050505050505050565b600067ffffffffffffffff82111561305a57613059612cfb565b5b61306382612b07565b9050602081019050919050565b600061308361307e8461303f565b612d5b565b90508281526020810184848401111561309f5761309e612cf6565b5b6130aa848285612da7565b509392505050565b600082601f8301126130c7576130c6612cf1565b5b81356130d7848260208601613070565b91505092915050565b600080600080608085870312156130fa576130f96129f3565b5b600061310887828801612c49565b945050602061311987828801612c49565b935050604061312a87828801612b94565b925050606085013567ffffffffffffffff81111561314b5761314a6129f8565b5b613157878288016130b2565b91505092959194509250565b6000806040838503121561317a576131796129f3565b5b600061318885828601612c49565b925050602061319985828601612c49565b9150509250929050565b7f4e487b7100000000000000000000000000000000000000000000000000000000600052602260045260246000fd5b600060028204905060018216806131ea57607f821691505b602082108114156131fe576131fd6131a3565b5b50919050565b7f4552433732313a20617070726f76656420717565727920666f72206e6f6e657860008201527f697374656e7420746f6b656e0000000000000000000000000000000000000000602082015250565b6000613260602c83612ac3565b915061326b82613204565b604082019050919050565b6000602082019050818103600083015261328f81613253565b9050919050565b7f4552433732313a20617070726f76616c20746f2063757272656e74206f776e6560008201527f7200000000000000000000000000000000000000000000000000000000000000602082015250565b60006132f2602183612ac3565b91506132fd82613296565b604082019050919050565b60006020820190508181036000830152613321816132e5565b9050919050565b7f4552433732313a20617070726f76652063616c6c6572206973206e6f74206f7760008201527f6e6572206e6f7220617070726f76656420666f7220616c6c0000000000000000602082015250565b6000613384603883612ac3565b915061338f82613328565b604082019050919050565b600060208201905081810360008301526133b381613377565b9050919050565b7f4552433732313a207472616e736665722063616c6c6572206973206e6f74206f60008201527f776e6572206e6f7220617070726f766564000000000000000000000000000000602082015250565b6000613416603183612ac3565b9150613421826133ba565b604082019050919050565b6000602082019050818103600083015261344581613409565b9050919050565b7f596f7520646f6e2774206861766520616e206163636f756e7400000000000000600082015250565b6000613482601983612ac3565b915061348d8261344c565b602082019050919050565b600060208201905081810360008301526134b181613475565b9050919050565b7f546865206865726f206e616d65206d757374206265206265747765656e20332060008201527f616e642031322063686172616374657273000000000000000000000000000000602082015250565b6000613514603183612ac3565b915061351f826134b8565b604082019050919050565b6000602082019050818103600083015261354381613507565b9050919050565b7f4e487b7100000000000000000000000000000000000000000000000000000000600052603260045260246000fd5b7f4552433732313a206f776e657220717565727920666f72206e6f6e657869737460008201527f656e7420746f6b656e0000000000000000000000000000000000000000000000602082015250565b60006135d5602983612ac3565b91506135e082613579565b604082019050919050565b60006020820190508181036000830152613604816135c8565b9050919050565b7f4e487b7100000000000000000000000000000000000000000000000000000000600052601160045260246000fd5b600061364582612b73565b915061365083612b73565b9250828210156136635761366261360b565b5b828203905092915050565b7f4552433732313a2062616c616e636520717565727920666f7220746865207a6560008201527f726f206164647265737300000000000000000000000000000000000000000000602082015250565b60006136ca602a83612ac3565b91506136d58261366e565b604082019050919050565b600060208201905081810360008301526136f9816136bd565b9050919050565b7f4f776e61626c653a2063616c6c6572206973206e6f7420746865206f776e6572600082015250565b6000613736602083612ac3565b915061374182613700565b602082019050919050565b6000602082019050818103600083015261376581613729565b9050919050565b600081905092915050565b600061378282612ab8565b61378c818561376c565b935061379c818560208601612ad4565b80840191505092915050565b60006137b48284613777565b915081905092915050565b7f557365726e616d652069732074616b656e000000000000000000000000000000600082015250565b60006137f5601183612ac3565b9150613800826137bf565b602082019050919050565b60006020820190508181036000830152613824816137e8565b9050919050565b7f596f7520616c7265616479206861766520616e206163636f756e742100000000600082015250565b6000613861601c83612ac3565b915061386c8261382b565b602082019050919050565b6000602082019050818103600083015261389081613854565b9050919050565b7f557365726e616d65206d757374206265206265747765656e203320616e64203160008201527f3220636861726163746572730000000000000000000000000000000000000000602082015250565b60006138f3602c83612ac3565b91506138fe82613897565b604082019050919050565b60006020820190508181036000830152613922816138e6565b9050919050565b600061393482612b73565b91507fffffffffffffffffffffffffffffffffffffffffffffffffffffffffffffffff8214156139675761396661360b565b5b600182019050919050565b7f4552433732314d657461646174613a2055524920717565727920666f72206e6f60008201527f6e6578697374656e7420746f6b656e0000000000000000000000000000000000602082015250565b60006139ce602f83612ac3565b91506139d982613972565b604082019050919050565b600060208201905081810360008301526139fd816139c1565b9050919050565b6000613a108285613777565b9150613a1c8284613777565b91508190509392505050565b7f4f776e61626c653a206e6577206f776e657220697320746865207a65726f206160008201527f6464726573730000000000000000000000000000000000000000000000000000602082015250565b6000613a84602683612ac3565b9150613a8f82613a28565b604082019050919050565b60006020820190508181036000830152613ab381613a77565b9050919050565b7f4552433732313a206f70657261746f7220717565727920666f72206e6f6e657860008201527f697374656e7420746f6b656e0000000000000000000000000000000000000000602082015250565b6000613b16602c83612ac3565b9150613b2182613aba565b604082019050919050565b60006020820190508181036000830152613b4581613b09565b9050919050565b7f4552433732313a207472616e73666572206f6620746f6b656e2074686174206960008201527f73206e6f74206f776e0000000000000000000000000000000000000000000000602082015250565b6000613ba8602983612ac3565b9150613bb382613b4c565b604082019050919050565b60006020820190508181036000830152613bd781613b9b565b9050919050565b7f4552433732313a207472616e7366657220746f20746865207a65726f2061646460008201527f7265737300000000000000000000000000000000000000000000000000000000602082015250565b6000613c3a602483612ac3565b9150613c4582613bde565b604082019050919050565b60006020820190508181036000830152613c6981613c2d565b9050919050565b6000613c7b82612b73565b9150613c8683612b73565b9250827fffffffffffffffffffffffffffffffffffffffffffffffffffffffffffffffff03821115613cbb57613cba61360b565b5b828201905092915050565b6000819050919050565b613ce1613cdc82612b73565b613cc6565b82525050565b6000613cf38284613cd0565b60208201915081905092915050565b7f4e487b7100000000000000000000000000000000000000000000000000000000600052601260045260246000fd5b6000613d3c82612b73565b9150613d4783612b73565b925082613d5757613d56613d02565b5b828206905092915050565b6000604082019050613d776000830185612ecb565b613d846020830184612ecb565b9392505050565b7f4552433732313a20617070726f766520746f2063616c6c657200000000000000600082015250565b6000613dc1601983612ac3565b9150613dcc82613d8b565b602082019050919050565b60006020820190508181036000830152613df081613db4565b9050919050565b7f4552433732313a207472616e7366657220746f206e6f6e20455243373231526560008201527f63656976657220696d706c656d656e7465720000000000000000000000000000602082015250565b6000613e53603283612ac3565b9150613e5e82613df7565b604082019050919050565b60006020820190508181036000830152613e8281613e46565b9050919050565b6000613e9482612b73565b9150613e9f83612b73565b925082613eaf57613eae613d02565b5b828204905092915050565b600081519050919050565b600082825260208201905092915050565b6000613ee182613eba565b613eeb8185613ec5565b9350613efb818560208601612ad4565b613f0481612b07565b840191505092915050565b6000608082019050613f246000830187612c08565b613f316020830186612c08565b613f3e6040830185612ecb565b8181036060830152613f508184613ed6565b905095945050505050565b600081519050613f6a81612a29565b92915050565b600060208284031215613f8657613f856129f3565b5b6000613f9484828501613f5b565b91505092915050565b7f4552433732313a206d696e7420746f20746865207a65726f2061646472657373600082015250565b6000613fd3602083612ac3565b9150613fde82613f9d565b602082019050919050565b6000602082019050818103600083015261400281613fc6565b9050919050565b7f4552433732313a20746f6b656e20616c7265616479206d696e74656400000000600082015250565b600061403f601c83612ac3565b915061404a82614009565b602082019050919050565b6000602082019050818103600083015261406e81614032565b905091905056fea2646970667358221220ba796cc884cb53b823532718ea9f7527b0827a1847002137551e757c40e2938164736f6c634300080a0033",
  "immutableReferences": {},
  "source": "// SPDX-License-Identifier: MIT\r\npragma solidity ^0.8.7;\r\n\r\nimport \"@openzeppelin/contracts/token/ERC721/ERC721.sol\";\r\nimport \"@openzeppelin/contracts/access/Ownable.sol\";\r\nimport \"@openzeppelin/contracts/utils/math/SafeMath.sol\";\r\nimport \"./IotaHeroAccount.sol\";\r\n\r\ncontract IotaHeroFactory is ERC721, Ownable, IotaHeroAccount {\r\n    constructor() ERC721(\"IotaHero\", \"IH\") {}\r\n\r\n    using SafeMath for uint256;\r\n\r\n    uint256 heroIdCounter = 0;\r\n    uint256 adventureCoolDown = 30 seconds;\r\n    struct Hero {\r\n        uint256 id;\r\n        uint256 dna;\r\n        uint256 xp;\r\n        uint256 mental;\r\n        uint256 physical;\r\n        uint16 level;\r\n        uint256 restingTill;\r\n        uint256 debug;\r\n        string name;\r\n    }\r\n\r\n    Hero[] public heroes;\r\n\r\n    modifier aboveLevel(uint256 _level, uint256 _heroId) {\r\n        require(heroes[_heroId].level >= _level);\r\n        _;\r\n    }\r\n    modifier onlyOwnerOf(uint256 _heroId) {\r\n        require(msg.sender == ERC721.ownerOf(_heroId));\r\n        _;\r\n    }\r\n    modifier nameValidLength(string memory _name) {\r\n        uint stringLength = utfStringLength(_name);\r\n        require(stringLength < 13 && stringLength > 2, \"The hero name must be between 3 and 12 characters\");\r\n        _;\r\n    } \r\n    function nameChange(uint256 _heroId, string memory _name)\r\n        public\r\n        hasAccount()\r\n        onlyOwnerOf(_heroId)\r\n        nameValidLength(_name)\r\n    {\r\n        Hero storage hero = heroes[_heroId];\r\n        hero.name = _name;\r\n    }\r\n\r\n    function heroIsReady(Hero memory hero) internal view returns (bool) {\r\n        return (hero.restingTill <= block.timestamp);\r\n    }\r\n\r\n    function _pseudoRandom(uint256 nonce) internal view returns (uint256) {\r\n        uint256 psrand = uint256(\r\n            keccak256(abi.encodePacked(block.timestamp + nonce))\r\n        );\r\n        return psrand % 10**12;\r\n    }\r\n\r\n    event HeroMinted(address indexed owner, uint256 id, uint256 dna);\r\n\r\n    function _mintHero(uint256 _dna) internal {\r\n        Hero memory hero = Hero(\r\n            heroIdCounter,\r\n            _dna,\r\n            500,\r\n            10,\r\n            10,\r\n            1,\r\n            block.timestamp,\r\n            0,\r\n            \"\"\r\n        );\r\n        heroes.push(hero);\r\n        _safeMint(msg.sender, heroIdCounter);\r\n        emit HeroMinted(msg.sender, heroIdCounter, _dna);\r\n        heroIdCounter = heroIdCounter.add(1);\r\n    }\r\n\r\n    function spawnHero() public hasAccount() {\r\n        uint256 dna = _pseudoRandom(heroIdCounter);\r\n        _mintHero(dna);\r\n    }\r\n\r\n}\r\n",
  "sourcePath": "C:\\Users\\creld\\source\\repos\\IotaHeroes\\smartcontracts\\contracts\\IotaHeroFactory.sol",
  "compiler": {
    "name": "solc",
    "version": "0.8.10+commit.fc410830.Emscripten.clang"
  },
  "schemaVersion": "3.4.4",
  "updatedAt": "2022-01-16T00:05:43.526Z",
  "devdoc": {
    "kind": "dev",
    "methods": {
      "approve(address,uint256)": {
        "details": "See {IERC721-approve}."
      },
      "balanceOf(address)": {
        "details": "See {IERC721-balanceOf}."
      },
      "getApproved(uint256)": {
        "details": "See {IERC721-getApproved}."
      },
      "isApprovedForAll(address,address)": {
        "details": "See {IERC721-isApprovedForAll}."
      },
      "name()": {
        "details": "See {IERC721Metadata-name}."
      },
      "owner()": {
        "details": "Returns the address of the current owner."
      },
      "ownerOf(uint256)": {
        "details": "See {IERC721-ownerOf}."
      },
      "renounceOwnership()": {
        "details": "Leaves the contract without owner. It will not be possible to call `onlyOwner` functions anymore. Can only be called by the current owner. NOTE: Renouncing ownership will leave the contract without an owner, thereby removing any functionality that is only available to the owner."
      },
      "safeTransferFrom(address,address,uint256)": {
        "details": "See {IERC721-safeTransferFrom}."
      },
      "safeTransferFrom(address,address,uint256,bytes)": {
        "details": "See {IERC721-safeTransferFrom}."
      },
      "setApprovalForAll(address,bool)": {
        "details": "See {IERC721-setApprovalForAll}."
      },
      "supportsInterface(bytes4)": {
        "details": "See {IERC165-supportsInterface}."
      },
      "symbol()": {
        "details": "See {IERC721Metadata-symbol}."
      },
      "tokenURI(uint256)": {
        "details": "See {IERC721Metadata-tokenURI}."
      },
      "transferFrom(address,address,uint256)": {
        "details": "See {IERC721-transferFrom}."
      },
      "transferOwnership(address)": {
        "details": "Transfers ownership of the contract to a new account (`newOwner`). Can only be called by the current owner."
      }
    },
    "version": 1
  },
  "userdoc": {
    "kind": "user",
    "methods": {},
    "version": 1
  }
}