{
  "contractName": "IotaHeroAdventure",
  "abi": [
    {
      "anonymous": false,
      "inputs": [
        {
          "indexed": true,
          "internalType": "address",
          "name": "player",
          "type": "address"
        },
        {
          "indexed": true,
          "internalType": "uint256",
          "name": "heroId",
          "type": "uint256"
        },
        {
          "indexed": false,
          "internalType": "string",
          "name": "name",
          "type": "string"
        },
        {
          "indexed": false,
          "internalType": "enum IotaHeroAdventure.AdventureType",
          "name": "adventureType",
          "type": "uint8"
        },
        {
          "indexed": false,
          "internalType": "uint256",
          "name": "rand",
          "type": "uint256"
        }
      ],
      "name": "AdventureCompleted",
      "type": "event"
    },
    {
      "anonymous": false,
      "inputs": [
        {
          "indexed": true,
          "internalType": "address",
          "name": "owner",
          "type": "address"
        },
        {
          "indexed": true,
          "internalType": "address",
          "name": "approved",
          "type": "address"
        },
        {
          "indexed": true,
          "internalType": "uint256",
          "name": "tokenId",
          "type": "uint256"
        }
      ],
      "name": "Approval",
      "type": "event"
    },
    {
      "anonymous": false,
      "inputs": [
        {
          "indexed": true,
          "internalType": "address",
          "name": "owner",
          "type": "address"
        },
        {
          "indexed": true,
          "internalType": "address",
          "name": "operator",
          "type": "address"
        },
        {
          "indexed": false,
          "internalType": "bool",
          "name": "approved",
          "type": "bool"
        }
      ],
      "name": "ApprovalForAll",
      "type": "event"
    },
    {
      "anonymous": false,
      "inputs": [
        {
          "indexed": true,
          "internalType": "address",
          "name": "owner",
          "type": "address"
        },
        {
          "indexed": false,
          "internalType": "uint256",
          "name": "id",
          "type": "uint256"
        },
        {
          "indexed": false,
          "internalType": "uint256",
          "name": "dna",
          "type": "uint256"
        }
      ],
      "name": "HeroMinted",
      "type": "event"
    },
    {
      "anonymous": false,
      "inputs": [
        {
          "indexed": true,
          "internalType": "address",
          "name": "previousOwner",
          "type": "address"
        },
        {
          "indexed": true,
          "internalType": "address",
          "name": "newOwner",
          "type": "address"
        }
      ],
      "name": "OwnershipTransferred",
      "type": "event"
    },
    {
      "anonymous": false,
      "inputs": [
        {
          "indexed": true,
          "internalType": "address",
          "name": "from",
          "type": "address"
        },
        {
          "indexed": true,
          "internalType": "address",
          "name": "to",
          "type": "address"
        },
        {
          "indexed": true,
          "internalType": "uint256",
          "name": "tokenId",
          "type": "uint256"
        }
      ],
      "name": "Transfer",
      "type": "event"
    },
    {
      "inputs": [
        {
          "internalType": "address",
          "name": "",
          "type": "address"
        }
      ],
      "name": "addressToId",
      "outputs": [
        {
          "internalType": "uint256",
          "name": "",
          "type": "uint256"
        }
      ],
      "stateMutability": "view",
      "type": "function",
      "constant": true
    },
    {
      "inputs": [
        {
          "internalType": "uint256",
          "name": "",
          "type": "uint256"
        }
      ],
      "name": "adventures",
      "outputs": [
        {
          "internalType": "uint256",
          "name": "id",
          "type": "uint256"
        },
        {
          "internalType": "string",
          "name": "name",
          "type": "string"
        },
        {
          "internalType": "uint256",
          "name": "xpRequirement",
          "type": "uint256"
        },
        {
          "internalType": "uint8",
          "name": "difficulty",
          "type": "uint8"
        },
        {
          "internalType": "string",
          "name": "description",
          "type": "string"
        },
        {
          "internalType": "enum IotaHeroAdventure.AdventureType",
          "name": "adventureType",
          "type": "uint8"
        }
      ],
      "stateMutability": "view",
      "type": "function",
      "constant": true
    },
    {
      "inputs": [
        {
          "internalType": "address",
          "name": "to",
          "type": "address"
        },
        {
          "internalType": "uint256",
          "name": "tokenId",
          "type": "uint256"
        }
      ],
      "name": "approve",
      "outputs": [],
      "stateMutability": "nonpayable",
      "type": "function"
    },
    {
      "inputs": [
        {
          "internalType": "address",
          "name": "owner",
          "type": "address"
        }
      ],
      "name": "balanceOf",
      "outputs": [
        {
          "internalType": "uint256",
          "name": "",
          "type": "uint256"
        }
      ],
      "stateMutability": "view",
      "type": "function",
      "constant": true
    },
    {
      "inputs": [],
      "name": "currentUserCount",
      "outputs": [
        {
          "internalType": "uint256",
          "name": "",
          "type": "uint256"
        }
      ],
      "stateMutability": "view",
      "type": "function",
      "constant": true
    },
    {
      "inputs": [
        {
          "internalType": "uint256",
          "name": "tokenId",
          "type": "uint256"
        }
      ],
      "name": "getApproved",
      "outputs": [
        {
          "internalType": "address",
          "name": "",
          "type": "address"
        }
      ],
      "stateMutability": "view",
      "type": "function",
      "constant": true
    },
    {
      "inputs": [],
      "name": "getHeroes",
      "outputs": [
        {
          "components": [
            {
              "internalType": "uint256",
              "name": "id",
              "type": "uint256"
            },
            {
              "internalType": "uint256",
              "name": "dna",
              "type": "uint256"
            },
            {
              "internalType": "uint256",
              "name": "xp",
              "type": "uint256"
            },
            {
              "internalType": "uint256",
              "name": "mental",
              "type": "uint256"
            },
            {
              "internalType": "uint256",
              "name": "physical",
              "type": "uint256"
            },
            {
              "internalType": "uint16",
              "name": "level",
              "type": "uint16"
            },
            {
              "internalType": "uint256",
              "name": "restingTill",
              "type": "uint256"
            },
            {
              "internalType": "uint256",
              "name": "debug",
              "type": "uint256"
            },
            {
              "internalType": "string",
              "name": "name",
              "type": "string"
            }
          ],
          "internalType": "struct IotaHeroFactory.Hero[]",
          "name": "",
          "type": "tuple[]"
        }
      ],
      "stateMutability": "view",
      "type": "function",
      "constant": true
    },
    {
      "inputs": [
        {
          "internalType": "address",
          "name": "_owner",
          "type": "address"
        }
      ],
      "name": "getOwnerHeroes",
      "outputs": [
        {
          "components": [
            {
              "internalType": "uint256",
              "name": "id",
              "type": "uint256"
            },
            {
              "internalType": "uint256",
              "name": "dna",
              "type": "uint256"
            },
            {
              "internalType": "uint256",
              "name": "xp",
              "type": "uint256"
            },
            {
              "internalType": "uint256",
              "name": "mental",
              "type": "uint256"
            },
            {
              "internalType": "uint256",
              "name": "physical",
              "type": "uint256"
            },
            {
              "internalType": "uint16",
              "name": "level",
              "type": "uint16"
            },
            {
              "internalType": "uint256",
              "name": "restingTill",
              "type": "uint256"
            },
            {
              "internalType": "uint256",
              "name": "debug",
              "type": "uint256"
            },
            {
              "internalType": "string",
              "name": "name",
              "type": "string"
            }
          ],
          "internalType": "struct IotaHeroFactory.Hero[]",
          "name": "",
          "type": "tuple[]"
        }
      ],
      "stateMutability": "view",
      "type": "function",
      "constant": true
    },
    {
      "inputs": [],
      "name": "getUsername",
      "outputs": [
        {
          "internalType": "string",
          "name": "",
          "type": "string"
        }
      ],
      "stateMutability": "view",
      "type": "function",
      "constant": true
    },
    {
      "inputs": [
        {
          "internalType": "address",
          "name": "_address",
          "type": "address"
        }
      ],
      "name": "getUsernameByAddress",
      "outputs": [
        {
          "internalType": "string",
          "name": "",
          "type": "string"
        }
      ],
      "stateMutability": "view",
      "type": "function",
      "constant": true
    },
    {
      "inputs": [],
      "name": "getUsernameLength",
      "outputs": [
        {
          "internalType": "uint256",
          "name": "",
          "type": "uint256"
        }
      ],
      "stateMutability": "view",
      "type": "function",
      "constant": true
    },
    {
      "inputs": [
        {
          "internalType": "uint256",
          "name": "",
          "type": "uint256"
        }
      ],
      "name": "heroes",
      "outputs": [
        {
          "internalType": "uint256",
          "name": "id",
          "type": "uint256"
        },
        {
          "internalType": "uint256",
          "name": "dna",
          "type": "uint256"
        },
        {
          "internalType": "uint256",
          "name": "xp",
          "type": "uint256"
        },
        {
          "internalType": "uint256",
          "name": "mental",
          "type": "uint256"
        },
        {
          "internalType": "uint256",
          "name": "physical",
          "type": "uint256"
        },
        {
          "internalType": "uint16",
          "name": "level",
          "type": "uint16"
        },
        {
          "internalType": "uint256",
          "name": "restingTill",
          "type": "uint256"
        },
        {
          "internalType": "uint256",
          "name": "debug",
          "type": "uint256"
        },
        {
          "internalType": "string",
          "name": "name",
          "type": "string"
        }
      ],
      "stateMutability": "view",
      "type": "function",
      "constant": true
    },
    {
      "inputs": [
        {
          "internalType": "uint256",
          "name": "",
          "type": "uint256"
        }
      ],
      "name": "idToAddress",
      "outputs": [
        {
          "internalType": "address",
          "name": "",
          "type": "address"
        }
      ],
      "stateMutability": "view",
      "type": "function",
      "constant": true
    },
    {
      "inputs": [
        {
          "internalType": "uint256",
          "name": "",
          "type": "uint256"
        }
      ],
      "name": "idToUsername",
      "outputs": [
        {
          "internalType": "string",
          "name": "",
          "type": "string"
        }
      ],
      "stateMutability": "view",
      "type": "function",
      "constant": true
    },
    {
      "inputs": [
        {
          "internalType": "address",
          "name": "owner",
          "type": "address"
        },
        {
          "internalType": "address",
          "name": "operator",
          "type": "address"
        }
      ],
      "name": "isApprovedForAll",
      "outputs": [
        {
          "internalType": "bool",
          "name": "",
          "type": "bool"
        }
      ],
      "stateMutability": "view",
      "type": "function",
      "constant": true
    },
    {
      "inputs": [],
      "name": "isSignedUp",
      "outputs": [
        {
          "internalType": "bool",
          "name": "",
          "type": "bool"
        }
      ],
      "stateMutability": "view",
      "type": "function",
      "constant": true
    },
    {
      "inputs": [],
      "name": "name",
      "outputs": [
        {
          "internalType": "string",
          "name": "",
          "type": "string"
        }
      ],
      "stateMutability": "view",
      "type": "function",
      "constant": true
    },
    {
      "inputs": [
        {
          "internalType": "uint256",
          "name": "_heroId",
          "type": "uint256"
        },
        {
          "internalType": "string",
          "name": "_name",
          "type": "string"
        }
      ],
      "name": "nameChange",
      "outputs": [],
      "stateMutability": "nonpayable",
      "type": "function"
    },
    {
      "inputs": [],
      "name": "owner",
      "outputs": [
        {
          "internalType": "address",
          "name": "",
          "type": "address"
        }
      ],
      "stateMutability": "view",
      "type": "function",
      "constant": true
    },
    {
      "inputs": [
        {
          "internalType": "uint256",
          "name": "tokenId",
          "type": "uint256"
        }
      ],
      "name": "ownerOf",
      "outputs": [
        {
          "internalType": "address",
          "name": "",
          "type": "address"
        }
      ],
      "stateMutability": "view",
      "type": "function",
      "constant": true
    },
    {
      "inputs": [],
      "name": "renounceOwnership",
      "outputs": [],
      "stateMutability": "nonpayable",
      "type": "function"
    },
    {
      "inputs": [
        {
          "internalType": "address",
          "name": "from",
          "type": "address"
        },
        {
          "internalType": "address",
          "name": "to",
          "type": "address"
        },
        {
          "internalType": "uint256",
          "name": "tokenId",
          "type": "uint256"
        }
      ],
      "name": "safeTransferFrom",
      "outputs": [],
      "stateMutability": "nonpayable",
      "type": "function"
    },
    {
      "inputs": [
        {
          "internalType": "address",
          "name": "from",
          "type": "address"
        },
        {
          "internalType": "address",
          "name": "to",
          "type": "address"
        },
        {
          "internalType": "uint256",
          "name": "tokenId",
          "type": "uint256"
        },
        {
          "internalType": "bytes",
          "name": "_data",
          "type": "bytes"
        }
      ],
      "name": "safeTransferFrom",
      "outputs": [],
      "stateMutability": "nonpayable",
      "type": "function"
    },
    {
      "inputs": [
        {
          "internalType": "address",
          "name": "operator",
          "type": "address"
        },
        {
          "internalType": "bool",
          "name": "approved",
          "type": "bool"
        }
      ],
      "name": "setApprovalForAll",
      "outputs": [],
      "stateMutability": "nonpayable",
      "type": "function"
    },
    {
      "inputs": [
        {
          "internalType": "string",
          "name": "_username",
          "type": "string"
        }
      ],
      "name": "signUp",
      "outputs": [],
      "stateMutability": "nonpayable",
      "type": "function"
    },
    {
      "inputs": [],
      "name": "spawnHero",
      "outputs": [],
      "stateMutability": "nonpayable",
      "type": "function"
    },
    {
      "inputs": [
        {
          "internalType": "bytes4",
          "name": "interfaceId",
          "type": "bytes4"
        }
      ],
      "name": "supportsInterface",
      "outputs": [
        {
          "internalType": "bool",
          "name": "",
          "type": "bool"
        }
      ],
      "stateMutability": "view",
      "type": "function",
      "constant": true
    },
    {
      "inputs": [],
      "name": "symbol",
      "outputs": [
        {
          "internalType": "string",
          "name": "",
          "type": "string"
        }
      ],
      "stateMutability": "view",
      "type": "function",
      "constant": true
    },
    {
      "inputs": [
        {
          "internalType": "uint256",
          "name": "tokenId",
          "type": "uint256"
        }
      ],
      "name": "tokenURI",
      "outputs": [
        {
          "internalType": "string",
          "name": "",
          "type": "string"
        }
      ],
      "stateMutability": "view",
      "type": "function",
      "constant": true
    },
    {
      "inputs": [],
      "name": "tokens",
      "outputs": [
        {
          "internalType": "contract IotaHeroGameTokens",
          "name": "",
          "type": "address"
        }
      ],
      "stateMutability": "view",
      "type": "function",
      "constant": true
    },
    {
      "inputs": [
        {
          "internalType": "address",
          "name": "from",
          "type": "address"
        },
        {
          "internalType": "address",
          "name": "to",
          "type": "address"
        },
        {
          "internalType": "uint256",
          "name": "tokenId",
          "type": "uint256"
        }
      ],
      "name": "transferFrom",
      "outputs": [],
      "stateMutability": "nonpayable",
      "type": "function"
    },
    {
      "inputs": [
        {
          "internalType": "address",
          "name": "newOwner",
          "type": "address"
        }
      ],
      "name": "transferOwnership",
      "outputs": [],
      "stateMutability": "nonpayable",
      "type": "function"
    },
    {
      "inputs": [
        {
          "internalType": "string",
          "name": "_username",
          "type": "string"
        }
      ],
      "name": "usernameExists",
      "outputs": [
        {
          "internalType": "bool",
          "name": "",
          "type": "bool"
        }
      ],
      "stateMutability": "view",
      "type": "function",
      "constant": true
    },
    {
      "inputs": [
        {
          "internalType": "string",
          "name": "",
          "type": "string"
        }
      ],
      "name": "usernameToId",
      "outputs": [
        {
          "internalType": "uint256",
          "name": "",
          "type": "uint256"
        }
      ],
      "stateMutability": "view",
      "type": "function",
      "constant": true
    },
    {
      "inputs": [],
      "name": "withdraw",
      "outputs": [],
      "stateMutability": "payable",
      "type": "function",
      "payable": true
    },
    {
      "inputs": [
        {
          "internalType": "address",
          "name": "tokensAddress",
          "type": "address"
        }
      ],
      "name": "setTokens",
      "outputs": [],
      "stateMutability": "nonpayable",
      "type": "function"
    },
    {
      "inputs": [],
      "name": "getTokenAddress",
      "outputs": [
        {
          "internalType": "address",
          "name": "",
          "type": "address"
        }
      ],
      "stateMutability": "view",
      "type": "function",
      "constant": true
    },
    {
      "inputs": [
        {
          "components": [
            {
              "internalType": "uint256",
              "name": "id",
              "type": "uint256"
            },
            {
              "internalType": "string",
              "name": "name",
              "type": "string"
            },
            {
              "internalType": "uint256",
              "name": "xpRequirement",
              "type": "uint256"
            },
            {
              "internalType": "uint8",
              "name": "difficulty",
              "type": "uint8"
            },
            {
              "internalType": "string",
              "name": "description",
              "type": "string"
            },
            {
              "internalType": "enum IotaHeroAdventure.AdventureType",
              "name": "adventureType",
              "type": "uint8"
            }
          ],
          "internalType": "struct IotaHeroAdventure.Adventure[]",
          "name": "_adventures",
          "type": "tuple[]"
        }
      ],
      "name": "addAdventures",
      "outputs": [],
      "stateMutability": "nonpayable",
      "type": "function"
    },
    {
      "inputs": [
        {
          "internalType": "uint256",
          "name": "_heroId",
          "type": "uint256"
        }
      ],
      "name": "goAdventure",
      "outputs": [],
      "stateMutability": "nonpayable",
      "type": "function"
    }
  ],
  "bytecode": "0x608060405260016007556000600c55601e600d55600060105560006011553480156200002a57600080fd5b506040518060400160405280600881526020017f496f74614865726f0000000000000000000000000000000000000000000000008152506040518060400160405280600281526020017f49480000000000000000000000000000000000000000000000000000000000008152508160009080519060200190620000af929190620001bf565b508060019080519060200190620000c8929190620001bf565b505050620000eb620000df620000f160201b60201c565b620000f960201b60201c565b620002d4565b600033905090565b6000600660009054906101000a900473ffffffffffffffffffffffffffffffffffffffff16905081600660006101000a81548173ffffffffffffffffffffffffffffffffffffffff021916908373ffffffffffffffffffffffffffffffffffffffff1602179055508173ffffffffffffffffffffffffffffffffffffffff168173ffffffffffffffffffffffffffffffffffffffff167f8be0079c531659141344cd1fd0a4f28419497f9722a3daafe3b4186f6b6457e060405160405180910390a35050565b828054620001cd906200029e565b90600052602060002090601f016020900481019282620001f157600085556200023d565b82601f106200020c57805160ff19168380011785556200023d565b828001600101855582156200023d579182015b828111156200023c5782518255916020019190600101906200021f565b5b5090506200024c919062000250565b5090565b5b808211156200026b57600081600090555060010162000251565b5090565b7f4e487b7100000000000000000000000000000000000000000000000000000000600052602260045260246000fd5b60006002820490506001821680620002b757607f821691505b60208210811415620002ce57620002cd6200026f565b5b50919050565b615bf480620002e46000396000f3fe6080604052600436106102305760003560e01c80638da5cb5b1161012e578063b88d4fde116100ab578063eb76bfb01161006f578063eb76bfb014610887578063ed1a998d146108b0578063f1c46606146108ed578063f2fde38b14610918578063f309e3f91461094157610230565b8063b88d4fde1461076a578063c87b56dd14610793578063cb0e0d7d146107d0578063ddf368a21461080d578063e985e9c51461084a57610230565b8063a22cb465116100f2578063a22cb46514610668578063a639eb4d14610691578063a8d4a03b146106ba578063aa761a91146106ff578063adcfb4fc1461074157610230565b80638da5cb5b146105a557806395d89b41146105d05780639a8d2882146105fb5780639d63848a146106265780639f72ed761461065157610230565b80633ccfd60b116101bc578063681f3e6d11610180578063681f3e6d146104d25780636d0cac8e146104fd57806370a0823114610528578063715018a6146105655780637fadea0e1461057c57610230565b80633ccfd60b146103fc57806342842e0e1461040657806348646f7b1461042f5780635e1fe1db146104585780636352211e1461049557610230565b806310fe9ae81161020357806310fe9ae814610303578063191d1cb41461032e57806323b872dd146103595780632a2d0c471461038257806339bdca1f146103bf57610230565b806301ffc9a71461023557806306fdde0314610272578063081812fc1461029d578063095ea7b3146102da575b600080fd5b34801561024157600080fd5b5061025c60048036038101906102579190613eba565b61097e565b6040516102699190613f02565b60405180910390f35b34801561027e57600080fd5b50610287610a60565b6040516102949190613fb6565b60405180910390f35b3480156102a957600080fd5b506102c460048036038101906102bf919061400e565b610af2565b6040516102d1919061407c565b60405180910390f35b3480156102e657600080fd5b5061030160048036038101906102fc91906140c3565b610b77565b005b34801561030f57600080fd5b50610318610c8f565b604051610325919061407c565b60405180910390f35b34801561033a57600080fd5b50610343610cb9565b6040516103509190613f02565b60405180910390f35b34801561036557600080fd5b50610380600480360381019061037b9190614103565b610d03565b005b34801561038e57600080fd5b506103a960048036038101906103a4919061400e565b610d63565b6040516103b6919061407c565b60405180910390f35b3480156103cb57600080fd5b506103e660048036038101906103e1919061400e565b610d96565b6040516103f39190613fb6565b60405180910390f35b610404610e36565b005b34801561041257600080fd5b5061042d60048036038101906104289190614103565b610f08565b005b34801561043b57600080fd5b506104566004803603810190610451919061428b565b610f28565b005b34801561046457600080fd5b5061047f600480360381019061047a91906142e7565b611090565b60405161048c919061433f565b60405180910390f35b3480156104a157600080fd5b506104bc60048036038101906104b7919061400e565b6110be565b6040516104c9919061407c565b60405180910390f35b3480156104de57600080fd5b506104e7611170565b6040516104f49190613fb6565b60405180910390f35b34801561050957600080fd5b50610512611252565b60405161051f919061433f565b60405180910390f35b34801561053457600080fd5b5061054f600480360381019061054a919061435a565b611268565b60405161055c919061433f565b60405180910390f35b34801561057157600080fd5b5061057a611320565b005b34801561058857600080fd5b506105a3600480360381019061059e919061400e565b6113a8565b005b3480156105b157600080fd5b506105ba611a89565b6040516105c7919061407c565b60405180910390f35b3480156105dc57600080fd5b506105e5611ab3565b6040516105f29190613fb6565b60405180910390f35b34801561060757600080fd5b50610610611b45565b60405161061d9190614584565b60405180910390f35b34801561063257600080fd5b5061063b611c9d565b6040516106489190614605565b60405180910390f35b34801561065d57600080fd5b50610666611cc3565b005b34801561067457600080fd5b5061068f600480360381019061068a919061464c565b611d61565b005b34801561069d57600080fd5b506106b860048036038101906106b3919061435a565b611d77565b005b3480156106c657600080fd5b506106e160048036038101906106dc919061400e565b611e37565b6040516106f69998979695949392919061469b565b60405180910390f35b34801561070b57600080fd5b506107266004803603810190610721919061400e565b611f2b565b604051610738969594939291906147c2565b60405180910390f35b34801561074d57600080fd5b50610768600480360381019061076391906142e7565b6120a1565b005b34801561077657600080fd5b50610791600480360381019061078c91906148d2565b6122e9565b005b34801561079f57600080fd5b506107ba60048036038101906107b5919061400e565b61234b565b6040516107c79190613fb6565b60405180910390f35b3480156107dc57600080fd5b506107f760048036038101906107f2919061435a565b6123f2565b604051610804919061433f565b60405180910390f35b34801561081957600080fd5b50610834600480360381019061082f919061435a565b61240a565b6040516108419190614584565b60405180910390f35b34801561085657600080fd5b50610871600480360381019061086c9190614955565b61262a565b60405161087e9190613f02565b60405180910390f35b34801561089357600080fd5b506108ae60048036038101906108a991906149f5565b6126be565b005b3480156108bc57600080fd5b506108d760048036038101906108d2919061435a565b61278d565b6040516108e49190613fb6565b60405180910390f35b3480156108f957600080fd5b50610902612871565b60405161090f919061433f565b60405180910390f35b34801561092457600080fd5b5061093f600480360381019061093a919061435a565b61288d565b005b34801561094d57600080fd5b50610968600480360381019061096391906142e7565b612985565b6040516109759190613f02565b60405180910390f35b60007f80ac58cd000000000000000000000000000000000000000000000000000000007bffffffffffffffffffffffffffffffffffffffffffffffffffffffff1916827bffffffffffffffffffffffffffffffffffffffffffffffffffffffff19161480610a4957507f5b5e139f000000000000000000000000000000000000000000000000000000007bffffffffffffffffffffffffffffffffffffffffffffffffffffffff1916827bffffffffffffffffffffffffffffffffffffffffffffffffffffffff1916145b80610a595750610a58826129b0565b5b9050919050565b606060008054610a6f90614a71565b80601f0160208091040260200160405190810160405280929190818152602001828054610a9b90614a71565b8015610ae85780601f10610abd57610100808354040283529160200191610ae8565b820191906000526020600020905b815481529060010190602001808311610acb57829003601f168201915b5050505050905090565b6000610afd82612a1a565b610b3c576040517f08c379a0000000000000000000000000000000000000000000000000000000008152600401610b3390614b15565b60405180910390fd5b6004600083815260200190815260200160002060009054906101000a900473ffffffffffffffffffffffffffffffffffffffff169050919050565b6000610b82826110be565b90508073ffffffffffffffffffffffffffffffffffffffff168373ffffffffffffffffffffffffffffffffffffffff161415610bf3576040517f08c379a0000000000000000000000000000000000000000000000000000000008152600401610bea90614ba7565b60405180910390fd5b8073ffffffffffffffffffffffffffffffffffffffff16610c12612a86565b73ffffffffffffffffffffffffffffffffffffffff161480610c415750610c4081610c3b612a86565b61262a565b5b610c80576040517f08c379a0000000000000000000000000000000000000000000000000000000008152600401610c7790614c39565b60405180910390fd5b610c8a8383612a8e565b505050565b6000600f60009054906101000a900473ffffffffffffffffffffffffffffffffffffffff16905090565b600080600a60003373ffffffffffffffffffffffffffffffffffffffff1673ffffffffffffffffffffffffffffffffffffffff168152602001908152602001600020541415905090565b610d14610d0e612a86565b82612b47565b610d53576040517f08c379a0000000000000000000000000000000000000000000000000000000008152600401610d4a90614ccb565b60405180910390fd5b610d5e838383612c25565b505050565b60086020528060005260406000206000915054906101000a900473ffffffffffffffffffffffffffffffffffffffff1681565b60096020528060005260406000206000915090508054610db590614a71565b80601f0160208091040260200160405190810160405280929190818152602001828054610de190614a71565b8015610e2e5780601f10610e0357610100808354040283529160200191610e2e565b820191906000526020600020905b815481529060010190602001808311610e1157829003601f168201915b505050505081565b610e3e612a86565b73ffffffffffffffffffffffffffffffffffffffff16610e5c611a89565b73ffffffffffffffffffffffffffffffffffffffff1614610eb2576040517f08c379a0000000000000000000000000000000000000000000000000000000008152600401610ea990614d37565b60405180910390fd5b6000610ebc611a89565b90508073ffffffffffffffffffffffffffffffffffffffff166108fc479081150290604051600060405180830381858888f19350505050158015610f04573d6000803e3d6000fd5b5050565b610f23838383604051806020016040528060008152506122e9565b505050565b6000600a60003373ffffffffffffffffffffffffffffffffffffffff1673ffffffffffffffffffffffffffffffffffffffff168152602001908152602001600020541415610fab576040517f08c379a0000000000000000000000000000000000000000000000000000000008152600401610fa290614da3565b60405180910390fd5b81610fb5816110be565b73ffffffffffffffffffffffffffffffffffffffff163373ffffffffffffffffffffffffffffffffffffffff1614610fec57600080fd5b816000610ff882612e81565b9050600d8110801561100a5750600281115b611049576040517f08c379a000000000000000000000000000000000000000000000000000000000815260040161104090614e35565b60405180910390fd5b6000600e868154811061105f5761105e614e55565b5b9060005260206000209060090201905084816008019080519060200190611087929190613d5b565b50505050505050565b600b818051602081018201805184825260208301602085012081835280955050505050506000915090505481565b6000806002600084815260200190815260200160002060009054906101000a900473ffffffffffffffffffffffffffffffffffffffff169050600073ffffffffffffffffffffffffffffffffffffffff168173ffffffffffffffffffffffffffffffffffffffff161415611167576040517f08c379a000000000000000000000000000000000000000000000000000000000815260040161115e90614ef6565b60405180910390fd5b80915050919050565b606060096000600a60003373ffffffffffffffffffffffffffffffffffffffff1673ffffffffffffffffffffffffffffffffffffffff16815260200190815260200160002054815260200190815260200160002080546111cf90614a71565b80601f01602080910402602001604051908101604052809291908181526020018280546111fb90614a71565b80156112485780601f1061121d57610100808354040283529160200191611248565b820191906000526020600020905b81548152906001019060200180831161122b57829003601f168201915b5050505050905090565b600060016007546112639190614f45565b905090565b60008073ffffffffffffffffffffffffffffffffffffffff168273ffffffffffffffffffffffffffffffffffffffff1614156112d9576040517f08c379a00000000000000000000000000000000000000000000000000000000081526004016112d090614feb565b60405180910390fd5b600360008373ffffffffffffffffffffffffffffffffffffffff1673ffffffffffffffffffffffffffffffffffffffff168152602001908152602001600020549050919050565b611328612a86565b73ffffffffffffffffffffffffffffffffffffffff16611346611a89565b73ffffffffffffffffffffffffffffffffffffffff161461139c576040517f08c379a000000000000000000000000000000000000000000000000000000000815260040161139390614d37565b60405180910390fd5b6113a6600061313e565b565b6000600a60003373ffffffffffffffffffffffffffffffffffffffff1673ffffffffffffffffffffffffffffffffffffffff16815260200190815260200160002054141561142b576040517f08c379a000000000000000000000000000000000000000000000000000000000815260040161142290614da3565b60405180910390fd5b80611435816110be565b73ffffffffffffffffffffffffffffffffffffffff163373ffffffffffffffffffffffffffffffffffffffff161461146c57600080fd5b6000600e838154811061148257611481614e55565b5b9060005260206000209060090201905061159f816040518061012001604052908160008201548152602001600182015481526020016002820154815260200160038201548152602001600482015481526020016005820160009054906101000a900461ffff1661ffff1661ffff168152602001600682015481526020016007820154815260200160088201805461151890614a71565b80601f016020809104026020016040519081016040528092919081815260200182805461154490614a71565b80156115915780601f1061156657610100808354040283529160200191611591565b820191906000526020600020905b81548152906001019060200180831161157457829003601f168201915b505050505081525050613204565b6115de576040517f08c379a00000000000000000000000000000000000000000000000000000000081526004016115d59061507d565b60405180910390fd5b600060646115ed601054613215565b6115f791906150cc565b9050600061160482613215565b90506000601280805490508361161a91906150cc565b8154811061162b5761162a614e55565b5b906000526020600020906006020190506000600581111561164f5761164e61474b565b5b8160050160009054906101000a900460ff1660058111156116735761167261474b565b5b141561175a5760328310156117345761169a6064856002015461326890919063ffffffff16565b8460020181905550600f60009054906101000a900473ffffffffffffffffffffffffffffffffffffffff1673ffffffffffffffffffffffffffffffffffffffff1663e51bcfd2336040518263ffffffff1660e01b81526004016116fd919061407c565b600060405180830381600087803b15801561171757600080fd5b505af115801561172b573d6000803e3d6000fd5b50505050611755565b61174c6002856002015461327e90919063ffffffff16565b84600201819055505b6119d9565b6004600581111561176e5761176d61474b565b5b8160050160009054906101000a900460ff1660058111156117925761179161474b565b5b141561182a57600f60009054906101000a900473ffffffffffffffffffffffffffffffffffffffff1673ffffffffffffffffffffffffffffffffffffffff1663e51bcfd2336040518263ffffffff1660e01b81526004016117f3919061407c565b600060405180830381600087803b15801561180d57600080fd5b505af1158015611821573d6000803e3d6000fd5b505050506119d8565b60058081111561183d5761183c61474b565b5b8160050160009054906101000a900460ff1660058111156118615761186061474b565b5b14156118bb576032831015611895576118886001856004015461326890919063ffffffff16565b84600401819055506118b6565b6118ad6001856004015461329490919063ffffffff16565b84600401819055505b6119d7565b600160058111156118cf576118ce61474b565b5b8160050160009054906101000a900460ff1660058111156118f3576118f261474b565b5b14156118fe576119d6565b600260058111156119125761191161474b565b5b8160050160009054906101000a900460ff1660058111156119365761193561474b565b5b141561196b5760328310156119665761195d6001856003015461326890919063ffffffff16565b84600301819055505b6119d5565b6003600581111561197f5761197e61474b565b5b8160050160009054906101000a900460ff1660058111156119a3576119a261474b565b5b14156119d45760328310156119d3576119ca6001856004015461326890919063ffffffff16565b84600401819055505b5b5b5b5b5b5b828460070181905550600d54426119f091906150fd565b63ffffffff168460060181905550611a14600160105461326890919063ffffffff16565b601081905550853373ffffffffffffffffffffffffffffffffffffffff167f77e7f22c561a1fe25ae0fe4ab7fae668a036026e1e75ee2387811cb34aa1f0d2836001018460050160009054906101000a900460ff1687604051611a79939291906151e8565b60405180910390a3505050505050565b6000600660009054906101000a900473ffffffffffffffffffffffffffffffffffffffff16905090565b606060018054611ac290614a71565b80601f0160208091040260200160405190810160405280929190818152602001828054611aee90614a71565b8015611b3b5780601f10611b1057610100808354040283529160200191611b3b565b820191906000526020600020905b815481529060010190602001808311611b1e57829003601f168201915b5050505050905090565b6060600e805480602002602001604051908101604052809291908181526020016000905b82821015611c9457838290600052602060002090600902016040518061012001604052908160008201548152602001600182015481526020016002820154815260200160038201548152602001600482015481526020016005820160009054906101000a900461ffff1661ffff1661ffff1681526020016006820154815260200160078201548152602001600882018054611c0390614a71565b80601f0160208091040260200160405190810160405280929190818152602001828054611c2f90614a71565b8015611c7c5780601f10611c5157610100808354040283529160200191611c7c565b820191906000526020600020905b815481529060010190602001808311611c5f57829003601f168201915b50505050508152505081526020019060010190611b69565b50505050905090565b600f60009054906101000a900473ffffffffffffffffffffffffffffffffffffffff1681565b6000600a60003373ffffffffffffffffffffffffffffffffffffffff1673ffffffffffffffffffffffffffffffffffffffff168152602001908152602001600020541415611d46576040517f08c379a0000000000000000000000000000000000000000000000000000000008152600401611d3d90614da3565b60405180910390fd5b6000611d53600c54613215565b9050611d5e816132aa565b50565b611d73611d6c612a86565b838361343c565b5050565b611d7f612a86565b73ffffffffffffffffffffffffffffffffffffffff16611d9d611a89565b73ffffffffffffffffffffffffffffffffffffffff1614611df3576040517f08c379a0000000000000000000000000000000000000000000000000000000008152600401611dea90614d37565b60405180910390fd5b80600f60006101000a81548173ffffffffffffffffffffffffffffffffffffffff021916908373ffffffffffffffffffffffffffffffffffffffff16021790555050565b600e8181548110611e4757600080fd5b90600052602060002090600902016000915090508060000154908060010154908060020154908060030154908060040154908060050160009054906101000a900461ffff1690806006015490806007015490806008018054611ea890614a71565b80601f0160208091040260200160405190810160405280929190818152602001828054611ed490614a71565b8015611f215780601f10611ef657610100808354040283529160200191611f21565b820191906000526020600020905b815481529060010190602001808311611f0457829003601f168201915b5050505050905089565b60128181548110611f3b57600080fd5b9060005260206000209060060201600091509050806000015490806001018054611f6490614a71565b80601f0160208091040260200160405190810160405280929190818152602001828054611f9090614a71565b8015611fdd5780601f10611fb257610100808354040283529160200191611fdd565b820191906000526020600020905b815481529060010190602001808311611fc057829003601f168201915b5050505050908060020154908060030160009054906101000a900460ff169080600401805461200b90614a71565b80601f016020809104026020016040519081016040528092919081815260200182805461203790614a71565b80156120845780601f1061205957610100808354040283529160200191612084565b820191906000526020600020905b81548152906001019060200180831161206757829003601f168201915b5050505050908060050160009054906101000a900460ff16905086565b806000600b826040516120b49190615262565b90815260200160405180910390205414612103576040517f08c379a00000000000000000000000000000000000000000000000000000000081526004016120fa906152c5565b60405180910390fd5b6000600a60003373ffffffffffffffffffffffffffffffffffffffff1673ffffffffffffffffffffffffffffffffffffffff1681526020019081526020016000205414612185576040517f08c379a000000000000000000000000000000000000000000000000000000000815260040161217c90615331565b60405180910390fd5b81600061219182612e81565b9050600d811080156121a35750600281115b6121e2576040517f08c379a00000000000000000000000000000000000000000000000000000000081526004016121d9906153c3565b60405180910390fd5b600754600a60003373ffffffffffffffffffffffffffffffffffffffff1673ffffffffffffffffffffffffffffffffffffffff168152602001908152602001600020819055503360086000600754815260200190815260200160002060006101000a81548173ffffffffffffffffffffffffffffffffffffffff021916908373ffffffffffffffffffffffffffffffffffffffff1602179055508360096000600754815260200190815260200160002090805190602001906122a5929190613d5b565b50600754600b856040516122b99190615262565b908152602001604051809103902081905550600760008154809291906122de906153e3565b919050555050505050565b6122fa6122f4612a86565b83612b47565b612339576040517f08c379a000000000000000000000000000000000000000000000000000000000815260040161233090614ccb565b60405180910390fd5b612345848484846135a9565b50505050565b606061235682612a1a565b612395576040517f08c379a000000000000000000000000000000000000000000000000000000000815260040161238c9061549e565b60405180910390fd5b600061239f613605565b905060008151116123bf57604051806020016040528060008152506123ea565b806123c98461361c565b6040516020016123da9291906154be565b6040516020818303038152906040525b915050919050565b600a6020528060005260406000206000915090505481565b6060600061241783611268565b67ffffffffffffffff8111156124305761242f614160565b5b60405190808252806020026020018201604052801561246957816020015b612456613de1565b81526020019060019003908161244e5790505b5090506000805b600e8054905081101561261f578473ffffffffffffffffffffffffffffffffffffffff1661249d826110be565b73ffffffffffffffffffffffffffffffffffffffff16141561260c57600e81815481106124cd576124cc614e55565b5b90600052602060002090600902016040518061012001604052908160008201548152602001600182015481526020016002820154815260200160038201548152602001600482015481526020016005820160009054906101000a900461ffff1661ffff1661ffff168152602001600682015481526020016007820154815260200160088201805461255d90614a71565b80601f016020809104026020016040519081016040528092919081815260200182805461258990614a71565b80156125d65780601f106125ab576101008083540402835291602001916125d6565b820191906000526020600020905b8154815290600101906020018083116125b957829003601f168201915b5050505050815250508383815181106125f2576125f1614e55565b5b60200260200101819052508180612608906153e3565b9250505b8080612617906153e3565b915050612470565b508192505050919050565b6000600560008473ffffffffffffffffffffffffffffffffffffffff1673ffffffffffffffffffffffffffffffffffffffff16815260200190815260200160002060008373ffffffffffffffffffffffffffffffffffffffff1673ffffffffffffffffffffffffffffffffffffffff16815260200190815260200160002060009054906101000a900460ff16905092915050565b6126c6612a86565b73ffffffffffffffffffffffffffffffffffffffff166126e4611a89565b73ffffffffffffffffffffffffffffffffffffffff161461273a576040517f08c379a000000000000000000000000000000000000000000000000000000000815260040161273190614d37565b60405180910390fd5b60005b828290508110156127885761277583838381811061275e5761275d614e55565b5b905060200281019061277091906154f1565b61377d565b8080612780906153e3565b91505061273d565b505050565b606060096000600a60008573ffffffffffffffffffffffffffffffffffffffff1673ffffffffffffffffffffffffffffffffffffffff16815260200190815260200160002054815260200190815260200160002080546127ec90614a71565b80601f016020809104026020016040519081016040528092919081815260200182805461281890614a71565b80156128655780601f1061283a57610100808354040283529160200191612865565b820191906000526020600020905b81548152906001019060200180831161284857829003601f168201915b50505050509050919050565b60008061287c611170565b905061288781612e81565b91505090565b612895612a86565b73ffffffffffffffffffffffffffffffffffffffff166128b3611a89565b73ffffffffffffffffffffffffffffffffffffffff1614612909576040517f08c379a000000000000000000000000000000000000000000000000000000000815260040161290090614d37565b60405180910390fd5b600073ffffffffffffffffffffffffffffffffffffffff168173ffffffffffffffffffffffffffffffffffffffff161415612979576040517f08c379a00000000000000000000000000000000000000000000000000000000081526004016129709061558b565b60405180910390fd5b6129828161313e565b50565b600080600b836040516129989190615262565b90815260200160405180910390205414159050919050565b60007f01ffc9a7000000000000000000000000000000000000000000000000000000007bffffffffffffffffffffffffffffffffffffffffffffffffffffffff1916827bffffffffffffffffffffffffffffffffffffffffffffffffffffffff1916149050919050565b60008073ffffffffffffffffffffffffffffffffffffffff166002600084815260200190815260200160002060009054906101000a900473ffffffffffffffffffffffffffffffffffffffff1673ffffffffffffffffffffffffffffffffffffffff1614159050919050565b600033905090565b816004600083815260200190815260200160002060006101000a81548173ffffffffffffffffffffffffffffffffffffffff021916908373ffffffffffffffffffffffffffffffffffffffff160217905550808273ffffffffffffffffffffffffffffffffffffffff16612b01836110be565b73ffffffffffffffffffffffffffffffffffffffff167f8c5be1e5ebec7d5bd14f71427d1e84f3dd0314c0f7b2291e5b200ac8c7c3b92560405160405180910390a45050565b6000612b5282612a1a565b612b91576040517f08c379a0000000000000000000000000000000000000000000000000000000008152600401612b889061561d565b60405180910390fd5b6000612b9c836110be565b90508073ffffffffffffffffffffffffffffffffffffffff168473ffffffffffffffffffffffffffffffffffffffff161480612c0b57508373ffffffffffffffffffffffffffffffffffffffff16612bf384610af2565b73ffffffffffffffffffffffffffffffffffffffff16145b80612c1c5750612c1b818561262a565b5b91505092915050565b8273ffffffffffffffffffffffffffffffffffffffff16612c45826110be565b73ffffffffffffffffffffffffffffffffffffffff1614612c9b576040517f08c379a0000000000000000000000000000000000000000000000000000000008152600401612c92906156af565b60405180910390fd5b600073ffffffffffffffffffffffffffffffffffffffff168273ffffffffffffffffffffffffffffffffffffffff161415612d0b576040517f08c379a0000000000000000000000000000000000000000000000000000000008152600401612d0290615741565b60405180910390fd5b612d16838383613974565b612d21600082612a8e565b6001600360008573ffffffffffffffffffffffffffffffffffffffff1673ffffffffffffffffffffffffffffffffffffffff1681526020019081526020016000206000828254612d719190614f45565b925050819055506001600360008473ffffffffffffffffffffffffffffffffffffffff1673ffffffffffffffffffffffffffffffffffffffff1681526020019081526020016000206000828254612dc891906150fd565b92505081905550816002600083815260200190815260200160002060006101000a81548173ffffffffffffffffffffffffffffffffffffffff021916908373ffffffffffffffffffffffffffffffffffffffff160217905550808273ffffffffffffffffffffffffffffffffffffffff168473ffffffffffffffffffffffffffffffffffffffff167fddf252ad1be2c89b69c2b068fc378daa952ba7f163c4a11628f55a4df523b3ef60405160405180910390a4505050565b6000806000905060008390505b805182101561313757600060f81b6007828481518110612eb157612eb0614e55565b5b602001015160f81c60f81b7effffffffffffffffffffffffffffffffffffffffffffffffffffffffffffff1916901c7effffffffffffffffffffffffffffffffffffffffffffffffffffffffffffff19161415612f1c57600182612f1591906150fd565b9150613124565b600660f81b7effffffffffffffffffffffffffffffffffffffffffffffffffffffffffffff19166005828481518110612f5857612f57614e55565b5b602001015160f81c60f81b7effffffffffffffffffffffffffffffffffffffffffffffffffffffffffffff1916901c7effffffffffffffffffffffffffffffffffffffffffffffffffffffffffffff19161415612fc357600282612fbc91906150fd565b9150613123565b600e60f81b7effffffffffffffffffffffffffffffffffffffffffffffffffffffffffffff19166004828481518110612fff57612ffe614e55565b5b602001015160f81c60f81b7effffffffffffffffffffffffffffffffffffffffffffffffffffffffffffff1916901c7effffffffffffffffffffffffffffffffffffffffffffffffffffffffffffff1916141561306a5760038261306391906150fd565b9150613122565b601e60f81b7effffffffffffffffffffffffffffffffffffffffffffffffffffffffffffff191660038284815181106130a6576130a5614e55565b5b602001015160f81c60f81b7effffffffffffffffffffffffffffffffffffffffffffffffffffffffffffff1916901c7effffffffffffffffffffffffffffffffffffffffffffffffffffffffffffff191614156131115760048261310a91906150fd565b9150613121565b60018261311e91906150fd565b91505b5b5b5b828061312f906153e3565b935050612e8e565b5050919050565b6000600660009054906101000a900473ffffffffffffffffffffffffffffffffffffffff16905081600660006101000a81548173ffffffffffffffffffffffffffffffffffffffff021916908373ffffffffffffffffffffffffffffffffffffffff1602179055508173ffffffffffffffffffffffffffffffffffffffff168173ffffffffffffffffffffffffffffffffffffffff167f8be0079c531659141344cd1fd0a4f28419497f9722a3daafe3b4186f6b6457e060405160405180910390a35050565b6000428260c0015111159050919050565b600080824261322491906150fd565b6040516020016132349190615782565b6040516020818303038152906040528051906020012060001c905064e8d4a510008161326091906150cc565b915050919050565b6000818361327691906150fd565b905092915050565b6000818361328c919061579d565b905092915050565b600081836132a29190614f45565b905092915050565b6000604051806101200160405280600c5481526020018381526020016101f48152602001600a8152602001600a8152602001600161ffff16815260200142815260200160008152602001604051806020016040528060008152508152509050600e819080600181540180825580915050600190039060005260206000209060090201600090919091909150600082015181600001556020820151816001015560408201518160020155606082015181600301556080820151816004015560a08201518160050160006101000a81548161ffff021916908361ffff16021790555060c0820151816006015560e082015181600701556101008201518160080190805190602001906133bb929190613d5b565b5050506133ca33600c54613979565b3373ffffffffffffffffffffffffffffffffffffffff167fad1c7ab5bfbe86a51764200b1532f3893b41563e78abe6d6eac4bbd987f38c68600c54846040516134149291906157ce565b60405180910390a26134326001600c5461326890919063ffffffff16565b600c819055505050565b8173ffffffffffffffffffffffffffffffffffffffff168373ffffffffffffffffffffffffffffffffffffffff1614156134ab576040517f08c379a00000000000000000000000000000000000000000000000000000000081526004016134a290615843565b60405180910390fd5b80600560008573ffffffffffffffffffffffffffffffffffffffff1673ffffffffffffffffffffffffffffffffffffffff16815260200190815260200160002060008473ffffffffffffffffffffffffffffffffffffffff1673ffffffffffffffffffffffffffffffffffffffff16815260200190815260200160002060006101000a81548160ff0219169083151502179055508173ffffffffffffffffffffffffffffffffffffffff168373ffffffffffffffffffffffffffffffffffffffff167f17307eab39ab6107e8899845ad3d59bd9653f200f220920489ca2b5937696c318360405161359c9190613f02565b60405180910390a3505050565b6135b4848484612c25565b6135c084848484613997565b6135ff576040517f08c379a00000000000000000000000000000000000000000000000000000000081526004016135f6906158d5565b60405180910390fd5b50505050565b606060405180602001604052806000815250905090565b60606000821415613664576040518060400160405280600181526020017f30000000000000000000000000000000000000000000000000000000000000008152509050613778565b600082905060005b6000821461369657808061367f906153e3565b915050600a8261368f919061579d565b915061366c565b60008167ffffffffffffffff8111156136b2576136b1614160565b5b6040519080825280601f01601f1916602001820160405280156136e45781602001600182028036833780820191505090505b5090505b60008514613771576001826136fd9190614f45565b9150600a8561370c91906150cc565b603061371891906150fd565b60f81b81838151811061372e5761372d614e55565b5b60200101907effffffffffffffffffffffffffffffffffffffffffffffffffffffffffffff1916908160001a905350600a8561376a919061579d565b94506136e8565b8093505050505b919050565b60126040518060c0016040528060115481526020018380602001906137a291906158f5565b8080601f016020809104026020016040519081016040528093929190818152602001838380828437600081840152601f19601f820116905080830192505050505050508152602001836040013581526020018360600160208101906138079190615984565b60ff16815260200183806080019061381f91906158f5565b8080601f016020809104026020016040519081016040528093929190818152602001838380828437600081840152601f19601f8201169050808301925050505050505081526020018360a001602081019061387a91906159d6565b600581111561388c5761388b61474b565b5b81525090806001815401808255809150506001900390600052602060002090600602016000909190919091506000820151816000015560208201518160010190805190602001906138de929190613d5b565b506040820151816002015560608201518160030160006101000a81548160ff021916908360ff1602179055506080820151816004019080519060200190613926929190613d5b565b5060a08201518160050160006101000a81548160ff021916908360058111156139525761395161474b565b5b021790555050506011600081548092919061396c906153e3565b919050555050565b505050565b613993828260405180602001604052806000815250613b1f565b5050565b60006139b88473ffffffffffffffffffffffffffffffffffffffff16613b7a565b15613b12578373ffffffffffffffffffffffffffffffffffffffff1663150b7a026139e1612a86565b8786866040518563ffffffff1660e01b8152600401613a039493929190615a58565b6020604051808303816000875af1925050508015613a3f57506040513d601f19601f82011682018060405250810190613a3c9190615ab9565b60015b613ac2573d8060008114613a6f576040519150601f19603f3d011682016040523d82523d6000602084013e613a74565b606091505b50600081511415613aba576040517f08c379a0000000000000000000000000000000000000000000000000000000008152600401613ab1906158d5565b60405180910390fd5b805181602001fd5b63150b7a0260e01b7bffffffffffffffffffffffffffffffffffffffffffffffffffffffff1916817bffffffffffffffffffffffffffffffffffffffffffffffffffffffff191614915050613b17565b600190505b949350505050565b613b298383613b8d565b613b366000848484613997565b613b75576040517f08c379a0000000000000000000000000000000000000000000000000000000008152600401613b6c906158d5565b60405180910390fd5b505050565b600080823b905060008111915050919050565b600073ffffffffffffffffffffffffffffffffffffffff168273ffffffffffffffffffffffffffffffffffffffff161415613bfd576040517f08c379a0000000000000000000000000000000000000000000000000000000008152600401613bf490615b32565b60405180910390fd5b613c0681612a1a565b15613c46576040517f08c379a0000000000000000000000000000000000000000000000000000000008152600401613c3d90615b9e565b60405180910390fd5b613c5260008383613974565b6001600360008473ffffffffffffffffffffffffffffffffffffffff1673ffffffffffffffffffffffffffffffffffffffff1681526020019081526020016000206000828254613ca291906150fd565b92505081905550816002600083815260200190815260200160002060006101000a81548173ffffffffffffffffffffffffffffffffffffffff021916908373ffffffffffffffffffffffffffffffffffffffff160217905550808273ffffffffffffffffffffffffffffffffffffffff16600073ffffffffffffffffffffffffffffffffffffffff167fddf252ad1be2c89b69c2b068fc378daa952ba7f163c4a11628f55a4df523b3ef60405160405180910390a45050565b828054613d6790614a71565b90600052602060002090601f016020900481019282613d895760008555613dd0565b82601f10613da257805160ff1916838001178555613dd0565b82800160010185558215613dd0579182015b82811115613dcf578251825591602001919060010190613db4565b5b509050613ddd9190613e31565b5090565b6040518061012001604052806000815260200160008152602001600081526020016000815260200160008152602001600061ffff1681526020016000815260200160008152602001606081525090565b5b80821115613e4a576000816000905550600101613e32565b5090565b6000604051905090565b600080fd5b600080fd5b60007fffffffff0000000000000000000000000000000000000000000000000000000082169050919050565b613e9781613e62565b8114613ea257600080fd5b50565b600081359050613eb481613e8e565b92915050565b600060208284031215613ed057613ecf613e58565b5b6000613ede84828501613ea5565b91505092915050565b60008115159050919050565b613efc81613ee7565b82525050565b6000602082019050613f176000830184613ef3565b92915050565b600081519050919050565b600082825260208201905092915050565b60005b83811015613f57578082015181840152602081019050613f3c565b83811115613f66576000848401525b50505050565b6000601f19601f8301169050919050565b6000613f8882613f1d565b613f928185613f28565b9350613fa2818560208601613f39565b613fab81613f6c565b840191505092915050565b60006020820190508181036000830152613fd08184613f7d565b905092915050565b6000819050919050565b613feb81613fd8565b8114613ff657600080fd5b50565b60008135905061400881613fe2565b92915050565b60006020828403121561402457614023613e58565b5b600061403284828501613ff9565b91505092915050565b600073ffffffffffffffffffffffffffffffffffffffff82169050919050565b60006140668261403b565b9050919050565b6140768161405b565b82525050565b6000602082019050614091600083018461406d565b92915050565b6140a08161405b565b81146140ab57600080fd5b50565b6000813590506140bd81614097565b92915050565b600080604083850312156140da576140d9613e58565b5b60006140e8858286016140ae565b92505060206140f985828601613ff9565b9150509250929050565b60008060006060848603121561411c5761411b613e58565b5b600061412a868287016140ae565b935050602061413b868287016140ae565b925050604061414c86828701613ff9565b9150509250925092565b600080fd5b600080fd5b7f4e487b7100000000000000000000000000000000000000000000000000000000600052604160045260246000fd5b61419882613f6c565b810181811067ffffffffffffffff821117156141b7576141b6614160565b5b80604052505050565b60006141ca613e4e565b90506141d6828261418f565b919050565b600067ffffffffffffffff8211156141f6576141f5614160565b5b6141ff82613f6c565b9050602081019050919050565b82818337600083830152505050565b600061422e614229846141db565b6141c0565b90508281526020810184848401111561424a5761424961415b565b5b61425584828561420c565b509392505050565b600082601f83011261427257614271614156565b5b813561428284826020860161421b565b91505092915050565b600080604083850312156142a2576142a1613e58565b5b60006142b085828601613ff9565b925050602083013567ffffffffffffffff8111156142d1576142d0613e5d565b5b6142dd8582860161425d565b9150509250929050565b6000602082840312156142fd576142fc613e58565b5b600082013567ffffffffffffffff81111561431b5761431a613e5d565b5b6143278482850161425d565b91505092915050565b61433981613fd8565b82525050565b60006020820190506143546000830184614330565b92915050565b6000602082840312156143705761436f613e58565b5b600061437e848285016140ae565b91505092915050565b600081519050919050565b600082825260208201905092915050565b6000819050602082019050919050565b6143bc81613fd8565b82525050565b600061ffff82169050919050565b6143d9816143c2565b82525050565b600082825260208201905092915050565b60006143fb82613f1d565b61440581856143df565b9350614415818560208601613f39565b61441e81613f6c565b840191505092915050565b60006101208301600083015161444260008601826143b3565b50602083015161445560208601826143b3565b50604083015161446860408601826143b3565b50606083015161447b60608601826143b3565b50608083015161448e60808601826143b3565b5060a08301516144a160a08601826143d0565b5060c08301516144b460c08601826143b3565b5060e08301516144c760e08601826143b3565b506101008301518482036101008601526144e182826143f0565b9150508091505092915050565b60006144fa8383614429565b905092915050565b6000602082019050919050565b600061451a82614387565b6145248185614392565b935083602082028501614536856143a3565b8060005b85811015614572578484038952815161455385826144ee565b945061455e83614502565b925060208a0199505060018101905061453a565b50829750879550505050505092915050565b6000602082019050818103600083015261459e818461450f565b905092915050565b6000819050919050565b60006145cb6145c66145c18461403b565b6145a6565b61403b565b9050919050565b60006145dd826145b0565b9050919050565b60006145ef826145d2565b9050919050565b6145ff816145e4565b82525050565b600060208201905061461a60008301846145f6565b92915050565b61462981613ee7565b811461463457600080fd5b50565b60008135905061464681614620565b92915050565b6000806040838503121561466357614662613e58565b5b6000614671858286016140ae565b925050602061468285828601614637565b9150509250929050565b614695816143c2565b82525050565b6000610120820190506146b1600083018c614330565b6146be602083018b614330565b6146cb604083018a614330565b6146d86060830189614330565b6146e56080830188614330565b6146f260a083018761468c565b6146ff60c0830186614330565b61470c60e0830185614330565b81810361010083015261471f8184613f7d565b90509a9950505050505050505050565b600060ff82169050919050565b6147458161472f565b82525050565b7f4e487b7100000000000000000000000000000000000000000000000000000000600052602160045260246000fd5b6006811061478b5761478a61474b565b5b50565b600081905061479c8261477a565b919050565b60006147ac8261478e565b9050919050565b6147bc816147a1565b82525050565b600060c0820190506147d76000830189614330565b81810360208301526147e98188613f7d565b90506147f86040830187614330565b614805606083018661473c565b81810360808301526148178185613f7d565b905061482660a08301846147b3565b979650505050505050565b600067ffffffffffffffff82111561484c5761484b614160565b5b61485582613f6c565b9050602081019050919050565b600061487561487084614831565b6141c0565b9050828152602081018484840111156148915761489061415b565b5b61489c84828561420c565b509392505050565b600082601f8301126148b9576148b8614156565b5b81356148c9848260208601614862565b91505092915050565b600080600080608085870312156148ec576148eb613e58565b5b60006148fa878288016140ae565b945050602061490b878288016140ae565b935050604061491c87828801613ff9565b925050606085013567ffffffffffffffff81111561493d5761493c613e5d565b5b614949878288016148a4565b91505092959194509250565b6000806040838503121561496c5761496b613e58565b5b600061497a858286016140ae565b925050602061498b858286016140ae565b9150509250929050565b600080fd5b600080fd5b60008083601f8401126149b5576149b4614156565b5b8235905067ffffffffffffffff8111156149d2576149d1614995565b5b6020830191508360208202830111156149ee576149ed61499a565b5b9250929050565b60008060208385031215614a0c57614a0b613e58565b5b600083013567ffffffffffffffff811115614a2a57614a29613e5d565b5b614a368582860161499f565b92509250509250929050565b7f4e487b7100000000000000000000000000000000000000000000000000000000600052602260045260246000fd5b60006002820490506001821680614a8957607f821691505b60208210811415614a9d57614a9c614a42565b5b50919050565b7f4552433732313a20617070726f76656420717565727920666f72206e6f6e657860008201527f697374656e7420746f6b656e0000000000000000000000000000000000000000602082015250565b6000614aff602c83613f28565b9150614b0a82614aa3565b604082019050919050565b60006020820190508181036000830152614b2e81614af2565b9050919050565b7f4552433732313a20617070726f76616c20746f2063757272656e74206f776e6560008201527f7200000000000000000000000000000000000000000000000000000000000000602082015250565b6000614b91602183613f28565b9150614b9c82614b35565b604082019050919050565b60006020820190508181036000830152614bc081614b84565b9050919050565b7f4552433732313a20617070726f76652063616c6c6572206973206e6f74206f7760008201527f6e6572206e6f7220617070726f76656420666f7220616c6c0000000000000000602082015250565b6000614c23603883613f28565b9150614c2e82614bc7565b604082019050919050565b60006020820190508181036000830152614c5281614c16565b9050919050565b7f4552433732313a207472616e736665722063616c6c6572206973206e6f74206f60008201527f776e6572206e6f7220617070726f766564000000000000000000000000000000602082015250565b6000614cb5603183613f28565b9150614cc082614c59565b604082019050919050565b60006020820190508181036000830152614ce481614ca8565b9050919050565b7f4f776e61626c653a2063616c6c6572206973206e6f7420746865206f776e6572600082015250565b6000614d21602083613f28565b9150614d2c82614ceb565b602082019050919050565b60006020820190508181036000830152614d5081614d14565b9050919050565b7f596f7520646f6e2774206861766520616e206163636f756e7400000000000000600082015250565b6000614d8d601983613f28565b9150614d9882614d57565b602082019050919050565b60006020820190508181036000830152614dbc81614d80565b9050919050565b7f546865206865726f206e616d65206d757374206265206265747765656e20332060008201527f616e642031322063686172616374657273000000000000000000000000000000602082015250565b6000614e1f603183613f28565b9150614e2a82614dc3565b604082019050919050565b60006020820190508181036000830152614e4e81614e12565b9050919050565b7f4e487b7100000000000000000000000000000000000000000000000000000000600052603260045260246000fd5b7f4552433732313a206f776e657220717565727920666f72206e6f6e657869737460008201527f656e7420746f6b656e0000000000000000000000000000000000000000000000602082015250565b6000614ee0602983613f28565b9150614eeb82614e84565b604082019050919050565b60006020820190508181036000830152614f0f81614ed3565b9050919050565b7f4e487b7100000000000000000000000000000000000000000000000000000000600052601160045260246000fd5b6000614f5082613fd8565b9150614f5b83613fd8565b925082821015614f6e57614f6d614f16565b5b828203905092915050565b7f4552433732313a2062616c616e636520717565727920666f7220746865207a6560008201527f726f206164647265737300000000000000000000000000000000000000000000602082015250565b6000614fd5602a83613f28565b9150614fe082614f79565b604082019050919050565b6000602082019050818103600083015261500481614fc8565b9050919050565b7f4865726f206973206e6f7420726561647920746f20676f2061206e657720616460008201527f76656e74757265207965742e2e00000000000000000000000000000000000000602082015250565b6000615067602d83613f28565b91506150728261500b565b604082019050919050565b600060208201905081810360008301526150968161505a565b9050919050565b7f4e487b7100000000000000000000000000000000000000000000000000000000600052601260045260246000fd5b60006150d782613fd8565b91506150e283613fd8565b9250826150f2576150f161509d565b5b828206905092915050565b600061510882613fd8565b915061511383613fd8565b9250827fffffffffffffffffffffffffffffffffffffffffffffffffffffffffffffffff0382111561514857615147614f16565b5b828201905092915050565b60008190508160005260206000209050919050565b6000815461517581614a71565b61517f8186613f28565b9450600182166000811461519a57600181146151ac576151df565b60ff19831686526020860193506151df565b6151b585615153565b60005b838110156151d7578154818901526001820191506020810190506151b8565b808801955050505b50505092915050565b600060608201905081810360008301526152028186615168565b905061521160208301856147b3565b61521e6040830184614330565b949350505050565b600081905092915050565b600061523c82613f1d565b6152468185615226565b9350615256818560208601613f39565b80840191505092915050565b600061526e8284615231565b915081905092915050565b7f557365726e616d652069732074616b656e000000000000000000000000000000600082015250565b60006152af601183613f28565b91506152ba82615279565b602082019050919050565b600060208201905081810360008301526152de816152a2565b9050919050565b7f596f7520616c7265616479206861766520616e206163636f756e742100000000600082015250565b600061531b601c83613f28565b9150615326826152e5565b602082019050919050565b6000602082019050818103600083015261534a8161530e565b9050919050565b7f557365726e616d65206d757374206265206265747765656e203320616e64203160008201527f3220636861726163746572730000000000000000000000000000000000000000602082015250565b60006153ad602c83613f28565b91506153b882615351565b604082019050919050565b600060208201905081810360008301526153dc816153a0565b9050919050565b60006153ee82613fd8565b91507fffffffffffffffffffffffffffffffffffffffffffffffffffffffffffffffff82141561542157615420614f16565b5b600182019050919050565b7f4552433732314d657461646174613a2055524920717565727920666f72206e6f60008201527f6e6578697374656e7420746f6b656e0000000000000000000000000000000000602082015250565b6000615488602f83613f28565b91506154938261542c565b604082019050919050565b600060208201905081810360008301526154b78161547b565b9050919050565b60006154ca8285615231565b91506154d68284615231565b91508190509392505050565b600080fd5b600080fd5b600080fd5b60008235600160c00383360303811261550d5761550c6154e2565b5b80830191505092915050565b7f4f776e61626c653a206e6577206f776e657220697320746865207a65726f206160008201527f6464726573730000000000000000000000000000000000000000000000000000602082015250565b6000615575602683613f28565b915061558082615519565b604082019050919050565b600060208201905081810360008301526155a481615568565b9050919050565b7f4552433732313a206f70657261746f7220717565727920666f72206e6f6e657860008201527f697374656e7420746f6b656e0000000000000000000000000000000000000000602082015250565b6000615607602c83613f28565b9150615612826155ab565b604082019050919050565b60006020820190508181036000830152615636816155fa565b9050919050565b7f4552433732313a207472616e73666572206f6620746f6b656e2074686174206960008201527f73206e6f74206f776e0000000000000000000000000000000000000000000000602082015250565b6000615699602983613f28565b91506156a48261563d565b604082019050919050565b600060208201905081810360008301526156c88161568c565b9050919050565b7f4552433732313a207472616e7366657220746f20746865207a65726f2061646460008201527f7265737300000000000000000000000000000000000000000000000000000000602082015250565b600061572b602483613f28565b9150615736826156cf565b604082019050919050565b6000602082019050818103600083015261575a8161571e565b9050919050565b6000819050919050565b61577c61577782613fd8565b615761565b82525050565b600061578e828461576b565b60208201915081905092915050565b60006157a882613fd8565b91506157b383613fd8565b9250826157c3576157c261509d565b5b828204905092915050565b60006040820190506157e36000830185614330565b6157f06020830184614330565b9392505050565b7f4552433732313a20617070726f766520746f2063616c6c657200000000000000600082015250565b600061582d601983613f28565b9150615838826157f7565b602082019050919050565b6000602082019050818103600083015261585c81615820565b9050919050565b7f4552433732313a207472616e7366657220746f206e6f6e20455243373231526560008201527f63656976657220696d706c656d656e7465720000000000000000000000000000602082015250565b60006158bf603283613f28565b91506158ca82615863565b604082019050919050565b600060208201905081810360008301526158ee816158b2565b9050919050565b60008083356001602003843603038112615912576159116154e2565b5b80840192508235915067ffffffffffffffff821115615934576159336154e7565b5b6020830192506001820236038313156159505761594f6154ec565b5b509250929050565b6159618161472f565b811461596c57600080fd5b50565b60008135905061597e81615958565b92915050565b60006020828403121561599a57615999613e58565b5b60006159a88482850161596f565b91505092915050565b600681106159be57600080fd5b50565b6000813590506159d0816159b1565b92915050565b6000602082840312156159ec576159eb613e58565b5b60006159fa848285016159c1565b91505092915050565b600081519050919050565b600082825260208201905092915050565b6000615a2a82615a03565b615a348185615a0e565b9350615a44818560208601613f39565b615a4d81613f6c565b840191505092915050565b6000608082019050615a6d600083018761406d565b615a7a602083018661406d565b615a876040830185614330565b8181036060830152615a998184615a1f565b905095945050505050565b600081519050615ab381613e8e565b92915050565b600060208284031215615acf57615ace613e58565b5b6000615add84828501615aa4565b91505092915050565b7f4552433732313a206d696e7420746f20746865207a65726f2061646472657373600082015250565b6000615b1c602083613f28565b9150615b2782615ae6565b602082019050919050565b60006020820190508181036000830152615b4b81615b0f565b9050919050565b7f4552433732313a20746f6b656e20616c7265616479206d696e74656400000000600082015250565b6000615b88601c83613f28565b9150615b9382615b52565b602082019050919050565b60006020820190508181036000830152615bb781615b7b565b905091905056fea2646970667358221220912bf083b71e4990b91802fdd489e96747802a7069e8b919b33a19997eebc84a64736f6c634300080a0033",
  "immutableReferences": {},
  "source": "// SPDX-License-Identifier: MIT\r\npragma solidity ^0.8.7;\r\nimport \"./IotaHeroUtil.sol\";\r\nimport \"./IotaHeroGameTokens.sol\";\r\n\r\ncontract IotaHeroAdventure is IotaHeroUtil {\r\n    IotaHeroGameTokens public tokens;\r\n    using SafeMath for uint256;\r\n    uint256 randomNonce = 0;\r\n    uint256 adventureCounter = 0;\r\n\r\n    enum AdventureType {\r\n        MONSTER,\r\n        EMPTY,\r\n        MENTAL_TRAINING,\r\n        PHYSICAL_TRAINING,\r\n        FRIENDLY,\r\n        ENVIRONMENT\r\n    }\r\n\r\n    struct Adventure {\r\n        uint256 id;\r\n        string name;\r\n        uint256 xpRequirement;\r\n        uint8 difficulty;\r\n        string description;\r\n        AdventureType adventureType;\r\n    }\r\n    Adventure[] public adventures;\r\n\r\n    function setTokens(address tokensAddress) public onlyOwner {\r\n        tokens = IotaHeroGameTokens(tokensAddress);\r\n    }\r\n\r\n    function getTokenAddress() public view returns (address) {\r\n        return address(tokens);\r\n    }\r\n\r\n    function addAdventures(Adventure[] calldata _adventures) public onlyOwner {\r\n        for (uint256 i = 0; i < _adventures.length; i++) {\r\n            _addAdventure(_adventures[i]);\r\n        }\r\n    }\r\n\r\n    function _addAdventure(Adventure calldata _adventure) internal {\r\n        adventures.push(\r\n            Adventure(\r\n                adventureCounter,\r\n                _adventure.name,\r\n                _adventure.xpRequirement,\r\n                _adventure.difficulty,\r\n                _adventure.description,\r\n                _adventure.adventureType\r\n            )\r\n        );\r\n        adventureCounter++;\r\n    }\r\n\r\n    event AdventureCompleted(\r\n        address indexed player,\r\n        uint256 indexed heroId,\r\n        string name,\r\n        AdventureType adventureType,\r\n        uint256 rand\r\n    );\r\n\r\n    function goAdventure(uint256 _heroId)\r\n        external\r\n        hasAccount\r\n        onlyOwnerOf(_heroId)\r\n    {\r\n        Hero storage myHero = heroes[_heroId];\r\n        require(\r\n            heroIsReady(myHero),\r\n            \"Hero is not ready to go a new adventure yet..\"\r\n        );\r\n\r\n        uint256 rand = _pseudoRandom(randomNonce) % 100;\r\n        uint256 rand2 = _pseudoRandom(rand);\r\n        Adventure storage adv = adventures[rand2 % adventures.length];\r\n        if (adv.adventureType == AdventureType.MONSTER) {\r\n            if (rand < 50) {\r\n                myHero.xp = myHero.xp.add(100);\r\n                tokens.awardAdventurer(msg.sender);\r\n            } else {\r\n                myHero.xp = myHero.xp.div(2);\r\n            }\r\n        } else if (adv.adventureType == AdventureType.FRIENDLY) {\r\n            tokens.awardAdventurer(msg.sender);\r\n        } else if (adv.adventureType == AdventureType.ENVIRONMENT) {\r\n            if (rand < 50) {\r\n                myHero.physical = myHero.physical.add(1);\r\n            } else {\r\n                myHero.physical = myHero.physical.sub(1);\r\n            }\r\n        } else if (adv.adventureType == AdventureType.EMPTY) {\r\n            // do nothing\r\n        } else if (adv.adventureType == AdventureType.MENTAL_TRAINING) {\r\n            if (rand < 50) {\r\n                myHero.mental = myHero.mental.add(1);\r\n            }\r\n        } else if (adv.adventureType == AdventureType.PHYSICAL_TRAINING) {\r\n            if (rand < 50) {\r\n                myHero.physical = myHero.physical.add(1);\r\n            }\r\n        }\r\n        myHero.debug = rand;\r\n        myHero.restingTill = uint32(block.timestamp + adventureCoolDown);\r\n        randomNonce = randomNonce.add(1);\r\n        emit AdventureCompleted(\r\n            msg.sender,\r\n            _heroId,\r\n            adv.name,\r\n            adv.adventureType,\r\n            rand\r\n        );\r\n    }\r\n}\r\n",
  "sourcePath": "C:\\Users\\creld\\source\\repos\\IotaHeroes\\smartcontracts\\contracts\\IotaHeroAdventure.sol",
  "compiler": {
    "name": "solc",
    "version": "0.8.10+commit.fc410830.Emscripten.clang"
  },
  "schemaVersion": "3.4.4",
  "updatedAt": "2022-01-16T00:05:51.639Z",
  "networkType": "ethereum",
  "devdoc": {
    "kind": "dev",
    "methods": {
      "approve(address,uint256)": {
        "details": "See {IERC721-approve}."
      },
      "balanceOf(address)": {
        "details": "See {IERC721-balanceOf}."
      },
      "getApproved(uint256)": {
        "details": "See {IERC721-getApproved}."
      },
      "isApprovedForAll(address,address)": {
        "details": "See {IERC721-isApprovedForAll}."
      },
      "name()": {
        "details": "See {IERC721Metadata-name}."
      },
      "owner()": {
        "details": "Returns the address of the current owner."
      },
      "ownerOf(uint256)": {
        "details": "See {IERC721-ownerOf}."
      },
      "renounceOwnership()": {
        "details": "Leaves the contract without owner. It will not be possible to call `onlyOwner` functions anymore. Can only be called by the current owner. NOTE: Renouncing ownership will leave the contract without an owner, thereby removing any functionality that is only available to the owner."
      },
      "safeTransferFrom(address,address,uint256)": {
        "details": "See {IERC721-safeTransferFrom}."
      },
      "safeTransferFrom(address,address,uint256,bytes)": {
        "details": "See {IERC721-safeTransferFrom}."
      },
      "setApprovalForAll(address,bool)": {
        "details": "See {IERC721-setApprovalForAll}."
      },
      "supportsInterface(bytes4)": {
        "details": "See {IERC165-supportsInterface}."
      },
      "symbol()": {
        "details": "See {IERC721Metadata-symbol}."
      },
      "tokenURI(uint256)": {
        "details": "See {IERC721Metadata-tokenURI}."
      },
      "transferFrom(address,address,uint256)": {
        "details": "See {IERC721-transferFrom}."
      },
      "transferOwnership(address)": {
        "details": "Transfers ownership of the contract to a new account (`newOwner`). Can only be called by the current owner."
      }
    },
    "version": 1
  },
  "userdoc": {
    "kind": "user",
    "methods": {},
    "version": 1
  }
}