{
  "contractName": "IotaHeroTokenTrade",
  "abi": [
    {
      "anonymous": false,
      "inputs": [
        {
          "indexed": true,
          "internalType": "address",
          "name": "previousOwner",
          "type": "address"
        },
        {
          "indexed": true,
          "internalType": "address",
          "name": "newOwner",
          "type": "address"
        }
      ],
      "name": "OwnershipTransferred",
      "type": "event"
    },
    {
      "anonymous": false,
      "inputs": [
        {
          "indexed": true,
          "internalType": "uint256",
          "name": "tradeId",
          "type": "uint256"
        },
        {
          "indexed": true,
          "internalType": "address",
          "name": "creator",
          "type": "address"
        },
        {
          "indexed": false,
          "internalType": "uint256[]",
          "name": "tokenIdForSale",
          "type": "uint256[]"
        },
        {
          "indexed": false,
          "internalType": "uint256[]",
          "name": "amountsToSell",
          "type": "uint256[]"
        },
        {
          "indexed": false,
          "internalType": "uint256[]",
          "name": "tokenIdWanted",
          "type": "uint256[]"
        },
        {
          "indexed": false,
          "internalType": "uint256[]",
          "name": "amountsWanted",
          "type": "uint256[]"
        }
      ],
      "name": "TradeCreated",
      "type": "event"
    },
    {
      "anonymous": false,
      "inputs": [
        {
          "indexed": true,
          "internalType": "uint256",
          "name": "tradeId",
          "type": "uint256"
        },
        {
          "indexed": true,
          "internalType": "address",
          "name": "updater",
          "type": "address"
        },
        {
          "indexed": false,
          "internalType": "enum IotaHeroTokenTrade.TradeStatus",
          "name": "updatedStatus",
          "type": "uint8"
        }
      ],
      "name": "TradeUpdated",
      "type": "event"
    },
    {
      "inputs": [],
      "name": "owner",
      "outputs": [
        {
          "internalType": "address",
          "name": "",
          "type": "address"
        }
      ],
      "stateMutability": "view",
      "type": "function"
    },
    {
      "inputs": [],
      "name": "renounceOwnership",
      "outputs": [],
      "stateMutability": "nonpayable",
      "type": "function"
    },
    {
      "inputs": [],
      "name": "tokens",
      "outputs": [
        {
          "internalType": "contract IotaHeroGameTokens",
          "name": "",
          "type": "address"
        }
      ],
      "stateMutability": "view",
      "type": "function"
    },
    {
      "inputs": [
        {
          "internalType": "uint256",
          "name": "",
          "type": "uint256"
        }
      ],
      "name": "tradeToOwner",
      "outputs": [
        {
          "internalType": "address",
          "name": "",
          "type": "address"
        }
      ],
      "stateMutability": "view",
      "type": "function"
    },
    {
      "inputs": [
        {
          "internalType": "uint256",
          "name": "",
          "type": "uint256"
        }
      ],
      "name": "trades",
      "outputs": [
        {
          "internalType": "uint256",
          "name": "tradeId",
          "type": "uint256"
        },
        {
          "internalType": "address",
          "name": "tradeInitiator",
          "type": "address"
        },
        {
          "internalType": "enum IotaHeroTokenTrade.TradeStatus",
          "name": "tradeStatus",
          "type": "uint8"
        }
      ],
      "stateMutability": "view",
      "type": "function"
    },
    {
      "inputs": [
        {
          "internalType": "address",
          "name": "newOwner",
          "type": "address"
        }
      ],
      "name": "transferOwnership",
      "outputs": [],
      "stateMutability": "nonpayable",
      "type": "function"
    },
    {
      "inputs": [
        {
          "internalType": "address",
          "name": "_tokenAddress",
          "type": "address"
        }
      ],
      "name": "setTokenAddress",
      "outputs": [],
      "stateMutability": "nonpayable",
      "type": "function"
    },
    {
      "inputs": [],
      "name": "getTokenAddress",
      "outputs": [
        {
          "internalType": "address",
          "name": "",
          "type": "address"
        }
      ],
      "stateMutability": "view",
      "type": "function"
    },
    {
      "inputs": [],
      "name": "getOpenTrades",
      "outputs": [
        {
          "components": [
            {
              "internalType": "uint256",
              "name": "tradeId",
              "type": "uint256"
            },
            {
              "internalType": "address",
              "name": "tradeInitiator",
              "type": "address"
            },
            {
              "internalType": "uint256[]",
              "name": "tokenIdsForSale",
              "type": "uint256[]"
            },
            {
              "internalType": "uint256[]",
              "name": "amountsToSell",
              "type": "uint256[]"
            },
            {
              "internalType": "uint256[]",
              "name": "tokenIdsWanted",
              "type": "uint256[]"
            },
            {
              "internalType": "uint256[]",
              "name": "amountsWanted",
              "type": "uint256[]"
            },
            {
              "internalType": "enum IotaHeroTokenTrade.TradeStatus",
              "name": "tradeStatus",
              "type": "uint8"
            }
          ],
          "internalType": "struct IotaHeroTokenTrade.Trade[]",
          "name": "",
          "type": "tuple[]"
        }
      ],
      "stateMutability": "view",
      "type": "function"
    },
    {
      "inputs": [
        {
          "internalType": "uint256[]",
          "name": "tokenIdsForSale",
          "type": "uint256[]"
        },
        {
          "internalType": "uint256[]",
          "name": "amountToSell",
          "type": "uint256[]"
        },
        {
          "internalType": "uint256[]",
          "name": "tokenIdsWanted",
          "type": "uint256[]"
        },
        {
          "internalType": "uint256[]",
          "name": "amountWanted",
          "type": "uint256[]"
        }
      ],
      "name": "setTradeOffer",
      "outputs": [],
      "stateMutability": "nonpayable",
      "type": "function"
    },
    {
      "inputs": [
        {
          "internalType": "uint256",
          "name": "_tradeId",
          "type": "uint256"
        }
      ],
      "name": "cancelTradeOffer",
      "outputs": [],
      "stateMutability": "nonpayable",
      "type": "function"
    },
    {
      "inputs": [
        {
          "internalType": "uint256",
          "name": "_tradeId",
          "type": "uint256"
        }
      ],
      "name": "fulfillTradeOffer",
      "outputs": [],
      "stateMutability": "nonpayable",
      "type": "function"
    }
  ],
  "bytecode": "0x608060405260006003553480156200001657600080fd5b50620000376200002b6200003d60201b60201c565b6200004560201b60201c565b62000109565b600033905090565b60008060009054906101000a900473ffffffffffffffffffffffffffffffffffffffff169050816000806101000a81548173ffffffffffffffffffffffffffffffffffffffff021916908373ffffffffffffffffffffffffffffffffffffffff1602179055508173ffffffffffffffffffffffffffffffffffffffff168173ffffffffffffffffffffffffffffffffffffffff167f8be0079c531659141344cd1fd0a4f28419497f9722a3daafe3b4186f6b6457e060405160405180910390a35050565b612a5380620001196000396000f3fe608060405234801561001057600080fd5b50600436106100b45760003560e01c80638da5cb5b116100715780638da5cb5b146101695780639d63848a14610187578063aa2b2bd9146101a5578063dbe451b1146101c1578063ecd87095146101dd578063f2fde38b1461020d576100b4565b806310fe9ae8146100b95780631e6c598e146100d757806326a4e8d21461010957806363b1726114610125578063715018a6146101435780638a3fb66b1461014d575b600080fd5b6100c1610229565b6040516100ce9190611995565b60405180910390f35b6100f160048036038101906100ec91906119fa565b610253565b60405161010093929190611aad565b60405180910390f35b610123600480360381019061011e9190611b10565b6102ba565b005b61012d61037a565b60405161013a9190611d8c565b60405180910390f35b61014b61074d565b005b61016760048036038101906101629190611e13565b6107d5565b005b610171610d36565b60405161017e9190611995565b60405180910390f35b61018f610d5f565b60405161019c9190611f5b565b60405180910390f35b6101bf60048036038101906101ba91906119fa565b610d85565b005b6101db60048036038101906101d691906119fa565b610e99565b005b6101f760048036038101906101f291906119fa565b6114a2565b6040516102049190611995565b60405180910390f35b61022760048036038101906102229190611b10565b6114d5565b005b6000600160009054906101000a900473ffffffffffffffffffffffffffffffffffffffff16905090565b6002818154811061026357600080fd5b90600052602060002090600702016000915090508060000154908060010160009054906101000a900473ffffffffffffffffffffffffffffffffffffffff16908060060160009054906101000a900460ff16905083565b6102c26115cd565b73ffffffffffffffffffffffffffffffffffffffff166102e0610d36565b73ffffffffffffffffffffffffffffffffffffffff1614610336576040517f08c379a000000000000000000000000000000000000000000000000000000000815260040161032d90611fd3565b60405180910390fd5b80600160006101000a81548173ffffffffffffffffffffffffffffffffffffffff021916908373ffffffffffffffffffffffffffffffffffffffff16021790555050565b6060600080600090505b60028054905081101561041257600060028111156103a5576103a4611a36565b5b600282815481106103b9576103b8611ff3565b5b906000526020600020906007020160060160009054906101000a900460ff1660028111156103ea576103e9611a36565b5b14156103ff5781806103fb90612051565b9250505b808061040a90612051565b915050610384565b5060008167ffffffffffffffff81111561042f5761042e61209a565b5b60405190808252806020026020018201604052801561046857816020015b610455611885565b81526020019060019003908161044d5790505b5090506000805b60028054905081101561074357600060028111156104905761048f611a36565b5b600282815481106104a4576104a3611ff3565b5b906000526020600020906007020160060160009054906101000a900460ff1660028111156104d5576104d4611a36565b5b141561073057600281815481106104ef576104ee611ff3565b5b90600052602060002090600702016040518060e0016040529081600082015481526020016001820160009054906101000a900473ffffffffffffffffffffffffffffffffffffffff1673ffffffffffffffffffffffffffffffffffffffff1673ffffffffffffffffffffffffffffffffffffffff168152602001600282018054806020026020016040519081016040528092919081815260200182805480156105b757602002820191906000526020600020905b8154815260200190600101908083116105a3575b505050505081526020016003820180548060200260200160405190810160405280929190818152602001828054801561060f57602002820191906000526020600020905b8154815260200190600101908083116105fb575b505050505081526020016004820180548060200260200160405190810160405280929190818152602001828054801561066757602002820191906000526020600020905b815481526020019060010190808311610653575b50505050508152602001600582018054806020026020016040519081016040528092919081815260200182805480156106bf57602002820191906000526020600020905b8154815260200190600101908083116106ab575b505050505081526020016006820160009054906101000a900460ff1660028111156106ed576106ec611a36565b5b60028111156106ff576106fe611a36565b5b8152505083838151811061071657610715611ff3565b5b6020026020010181905250818061072c90612051565b9250505b808061073b90612051565b91505061046f565b5081935050505090565b6107556115cd565b73ffffffffffffffffffffffffffffffffffffffff16610773610d36565b73ffffffffffffffffffffffffffffffffffffffff16146107c9576040517f08c379a00000000000000000000000000000000000000000000000000000000081526004016107c090611fd3565b60405180910390fd5b6107d360006115d5565b565b85859050888890501480156107ef57508181905084849050145b61082e576040517f08c379a000000000000000000000000000000000000000000000000000000000815260040161082590612115565b60405180910390fd5b600160009054906101000a900473ffffffffffffffffffffffffffffffffffffffff1673ffffffffffffffffffffffffffffffffffffffff1663e985e9c533306040518363ffffffff1660e01b815260040161088b929190612135565b602060405180830381865afa1580156108a8573d6000803e3d6000fd5b505050506040513d601f19601f820116820180604052508101906108cc9190612196565b61090b576040517f08c379a00000000000000000000000000000000000000000000000000000000081526004016109029061220f565b60405180910390fd5b61099833898980806020026020016040519081016040528093929190818152602001838360200280828437600081840152601f19601f82011690508083019250505050505050888880806020026020016040519081016040528093929190818152602001838360200280828437600081840152601f19601f82011690508083019250505050505050611699565b6109d7576040517f08c379a00000000000000000000000000000000000000000000000000000000081526004016109ce906122a1565b60405180910390fd5b60006040518060e0016040528060035481526020013373ffffffffffffffffffffffffffffffffffffffff1681526020018a8a80806020026020016040519081016040528093929190818152602001838360200280828437600081840152601f19601f820116905080830192505050505050508152602001888880806020026020016040519081016040528093929190818152602001838360200280828437600081840152601f19601f820116905080830192505050505050508152602001868680806020026020016040519081016040528093929190818152602001838360200280828437600081840152601f19601f820116905080830192505050505050508152602001848480806020026020016040519081016040528093929190818152602001838360200280828437600081840152601f19601f82011690508083019250505050505050815260200160006002811115610b3857610b37611a36565b5b815250905060028190806001815401808255809150506001900390600052602060002090600702016000909190919091506000820151816000015560208201518160010160006101000a81548173ffffffffffffffffffffffffffffffffffffffff021916908373ffffffffffffffffffffffffffffffffffffffff1602179055506040820151816002019080519060200190610bd69291906118ea565b506060820151816003019080519060200190610bf39291906118ea565b506080820151816004019080519060200190610c109291906118ea565b5060a0820151816005019080519060200190610c2d9291906118ea565b5060c08201518160060160006101000a81548160ff02191690836002811115610c5957610c58611a36565b5b021790555050503360046000600354815260200190815260200160002060006101000a81548173ffffffffffffffffffffffffffffffffffffffff021916908373ffffffffffffffffffffffffffffffffffffffff1602179055503373ffffffffffffffffffffffffffffffffffffffff166003547fee9c34460e8ee443f03e0289107bb49bce5e3175dea84c2f73d4ed4cf08aaca78b8b8b8b8b8b8b8b604051610d0b989796959493929190612342565b60405180910390a360036000815480929190610d2690612051565b9190505550505050505050505050565b60008060009054906101000a900473ffffffffffffffffffffffffffffffffffffffff16905090565b600160009054906101000a900473ffffffffffffffffffffffffffffffffffffffff1681565b803373ffffffffffffffffffffffffffffffffffffffff166004600083815260200190815260200160002060009054906101000a900473ffffffffffffffffffffffffffffffffffffffff1673ffffffffffffffffffffffffffffffffffffffff1614610df157600080fd5b600060028381548110610e0757610e06611ff3565b5b9060005260206000209060070201905060028160060160006101000a81548160ff02191690836002811115610e3f57610e3e611a36565b5b02179055503373ffffffffffffffffffffffffffffffffffffffff16837f580958e7d2b78e6e91069e3a54d87713100ef5a99d53edaf3b8062a175ca730e6002604051610e8c91906123ab565b60405180910390a3505050565b600060028281548110610eaf57610eae611ff3565b5b90600052602060002090600702019050610f6e3382600401805480602002602001604051908101604052809291908181526020018280548015610f1157602002820191906000526020600020905b815481526020019060010190808311610efd575b505050505083600501805480602002602001604051908101604052809291908181526020018280548015610f6457602002820191906000526020600020905b815481526020019060010190808311610f50575b5050505050611699565b610fad576040517f08c379a0000000000000000000000000000000000000000000000000000000008152600401610fa4906122a1565b60405180910390fd5b6110808160010160009054906101000a900473ffffffffffffffffffffffffffffffffffffffff168260020180548060200260200160405190810160405280929190818152602001828054801561102357602002820191906000526020600020905b81548152602001906001019080831161100f575b50505050508360030180548060200260200160405190810160405280929190818152602001828054801561107657602002820191906000526020600020905b815481526020019060010190808311611062575b5050505050611699565b6110bf576040517f08c379a00000000000000000000000000000000000000000000000000000000081526004016110b690612438565b60405180910390fd5b600060028111156110d3576110d2611a36565b5b8160060160009054906101000a900460ff1660028111156110f7576110f6611a36565b5b14611137576040517f08c379a000000000000000000000000000000000000000000000000000000000815260040161112e906124a4565b60405180910390fd5b600160009054906101000a900473ffffffffffffffffffffffffffffffffffffffff1673ffffffffffffffffffffffffffffffffffffffff1663e985e9c533306040518363ffffffff1660e01b8152600401611194929190612135565b602060405180830381865afa1580156111b1573d6000803e3d6000fd5b505050506040513d601f19601f820116820180604052508101906111d59190612196565b611214576040517f08c379a000000000000000000000000000000000000000000000000000000000815260040161120b9061220f565b60405180910390fd5b3373ffffffffffffffffffffffffffffffffffffffff168160010160009054906101000a900473ffffffffffffffffffffffffffffffffffffffff1673ffffffffffffffffffffffffffffffffffffffff1614156112a7576040517f08c379a000000000000000000000000000000000000000000000000000000000815260040161129e90612536565b60405180910390fd5b600160009054906101000a900473ffffffffffffffffffffffffffffffffffffffff1673ffffffffffffffffffffffffffffffffffffffff16632eb2c2d6338360010160009054906101000a900473ffffffffffffffffffffffffffffffffffffffff1684600401856005016040518563ffffffff1660e01b81526004016113329493929190612663565b600060405180830381600087803b15801561134c57600080fd5b505af1158015611360573d6000803e3d6000fd5b50505050600160009054906101000a900473ffffffffffffffffffffffffffffffffffffffff1673ffffffffffffffffffffffffffffffffffffffff16632eb2c2d68260010160009054906101000a900473ffffffffffffffffffffffffffffffffffffffff163384600201856003016040518563ffffffff1660e01b81526004016113ef9493929190612663565b600060405180830381600087803b15801561140957600080fd5b505af115801561141d573d6000803e3d6000fd5b5050505060018160060160006101000a81548160ff0219169083600281111561144957611448611a36565b5b02179055503373ffffffffffffffffffffffffffffffffffffffff16827f580958e7d2b78e6e91069e3a54d87713100ef5a99d53edaf3b8062a175ca730e600160405161149691906123ab565b60405180910390a35050565b60046020528060005260406000206000915054906101000a900473ffffffffffffffffffffffffffffffffffffffff1681565b6114dd6115cd565b73ffffffffffffffffffffffffffffffffffffffff166114fb610d36565b73ffffffffffffffffffffffffffffffffffffffff1614611551576040517f08c379a000000000000000000000000000000000000000000000000000000000815260040161154890611fd3565b60405180910390fd5b600073ffffffffffffffffffffffffffffffffffffffff168173ffffffffffffffffffffffffffffffffffffffff1614156115c1576040517f08c379a00000000000000000000000000000000000000000000000000000000081526004016115b89061273b565b60405180910390fd5b6115ca816115d5565b50565b600033905090565b60008060009054906101000a900473ffffffffffffffffffffffffffffffffffffffff169050816000806101000a81548173ffffffffffffffffffffffffffffffffffffffff021916908373ffffffffffffffffffffffffffffffffffffffff1602179055508173ffffffffffffffffffffffffffffffffffffffff168173ffffffffffffffffffffffffffffffffffffffff167f8be0079c531659141344cd1fd0a4f28419497f9722a3daafe3b4186f6b6457e060405160405180910390a35050565b600080600160009054906101000a900473ffffffffffffffffffffffffffffffffffffffff1673ffffffffffffffffffffffffffffffffffffffff16634e1273f46116e58651886117bf565b866040518363ffffffff1660e01b8152600401611703929190612868565b600060405180830381865afa158015611720573d6000803e3d6000fd5b505050506040513d6000823e3d601f19601f8201168201806040525081019061174991906129d4565b905060005b84518110156117b15783818151811061176a57611769611ff3565b5b602002602001015182828151811061178557611784611ff3565b5b6020026020010151101561179e576000925050506117b8565b80806117a990612051565b91505061174e565b5060019150505b9392505050565b606060008367ffffffffffffffff8111156117dd576117dc61209a565b5b60405190808252806020026020018201604052801561180b5781602001602082028036833780820191505090505b50905060005b8481101561187a578382828151811061182d5761182c611ff3565b5b602002602001019073ffffffffffffffffffffffffffffffffffffffff16908173ffffffffffffffffffffffffffffffffffffffff1681525050808061187290612051565b915050611811565b508091505092915050565b6040518060e0016040528060008152602001600073ffffffffffffffffffffffffffffffffffffffff16815260200160608152602001606081526020016060815260200160608152602001600060028111156118e4576118e3611a36565b5b81525090565b828054828255906000526020600020908101928215611926579160200282015b8281111561192557825182559160200191906001019061190a565b5b5090506119339190611937565b5090565b5b80821115611950576000816000905550600101611938565b5090565b600073ffffffffffffffffffffffffffffffffffffffff82169050919050565b600061197f82611954565b9050919050565b61198f81611974565b82525050565b60006020820190506119aa6000830184611986565b92915050565b6000604051905090565b600080fd5b600080fd5b6000819050919050565b6119d7816119c4565b81146119e257600080fd5b50565b6000813590506119f4816119ce565b92915050565b600060208284031215611a1057611a0f6119ba565b5b6000611a1e848285016119e5565b91505092915050565b611a30816119c4565b82525050565b7f4e487b7100000000000000000000000000000000000000000000000000000000600052602160045260246000fd5b60038110611a7657611a75611a36565b5b50565b6000819050611a8782611a65565b919050565b6000611a9782611a79565b9050919050565b611aa781611a8c565b82525050565b6000606082019050611ac26000830186611a27565b611acf6020830185611986565b611adc6040830184611a9e565b949350505050565b611aed81611974565b8114611af857600080fd5b50565b600081359050611b0a81611ae4565b92915050565b600060208284031215611b2657611b256119ba565b5b6000611b3484828501611afb565b91505092915050565b600081519050919050565b600082825260208201905092915050565b6000819050602082019050919050565b611b72816119c4565b82525050565b611b8181611974565b82525050565b600081519050919050565b600082825260208201905092915050565b6000819050602082019050919050565b6000611bbf8383611b69565b60208301905092915050565b6000602082019050919050565b6000611be382611b87565b611bed8185611b92565b9350611bf883611ba3565b8060005b83811015611c29578151611c108882611bb3565b9750611c1b83611bcb565b925050600181019050611bfc565b5085935050505092915050565b611c3f81611a8c565b82525050565b600060e083016000830151611c5d6000860182611b69565b506020830151611c706020860182611b78565b5060408301518482036040860152611c888282611bd8565b91505060608301518482036060860152611ca28282611bd8565b91505060808301518482036080860152611cbc8282611bd8565b91505060a083015184820360a0860152611cd68282611bd8565b91505060c0830151611ceb60c0860182611c36565b508091505092915050565b6000611d028383611c45565b905092915050565b6000602082019050919050565b6000611d2282611b3d565b611d2c8185611b48565b935083602082028501611d3e85611b59565b8060005b85811015611d7a5784840389528151611d5b8582611cf6565b9450611d6683611d0a565b925060208a01995050600181019050611d42565b50829750879550505050505092915050565b60006020820190508181036000830152611da68184611d17565b905092915050565b600080fd5b600080fd5b600080fd5b60008083601f840112611dd357611dd2611dae565b5b8235905067ffffffffffffffff811115611df057611def611db3565b5b602083019150836020820283011115611e0c57611e0b611db8565b5b9250929050565b6000806000806000806000806080898b031215611e3357611e326119ba565b5b600089013567ffffffffffffffff811115611e5157611e506119bf565b5b611e5d8b828c01611dbd565b9850985050602089013567ffffffffffffffff811115611e8057611e7f6119bf565b5b611e8c8b828c01611dbd565b9650965050604089013567ffffffffffffffff811115611eaf57611eae6119bf565b5b611ebb8b828c01611dbd565b9450945050606089013567ffffffffffffffff811115611ede57611edd6119bf565b5b611eea8b828c01611dbd565b92509250509295985092959890939650565b6000819050919050565b6000611f21611f1c611f1784611954565b611efc565b611954565b9050919050565b6000611f3382611f06565b9050919050565b6000611f4582611f28565b9050919050565b611f5581611f3a565b82525050565b6000602082019050611f706000830184611f4c565b92915050565b600082825260208201905092915050565b7f4f776e61626c653a2063616c6c6572206973206e6f7420746865206f776e6572600082015250565b6000611fbd602083611f76565b9150611fc882611f87565b602082019050919050565b60006020820190508181036000830152611fec81611fb0565b9050919050565b7f4e487b7100000000000000000000000000000000000000000000000000000000600052603260045260246000fd5b7f4e487b7100000000000000000000000000000000000000000000000000000000600052601160045260246000fd5b600061205c826119c4565b91507fffffffffffffffffffffffffffffffffffffffffffffffffffffffffffffffff82141561208f5761208e612022565b5b600182019050919050565b7f4e487b7100000000000000000000000000000000000000000000000000000000600052604160045260246000fd5b7f4172726179206c656e6774687320646f6e2774206d6174636800000000000000600082015250565b60006120ff601983611f76565b915061210a826120c9565b602082019050919050565b6000602082019050818103600083015261212e816120f2565b9050919050565b600060408201905061214a6000830185611986565b6121576020830184611986565b9392505050565b60008115159050919050565b6121738161215e565b811461217e57600080fd5b50565b6000815190506121908161216a565b92915050565b6000602082840312156121ac576121ab6119ba565b5b60006121ba84828501612181565b91505092915050565b7f596f75206d75737420617070726f766520666972737400000000000000000000600082015250565b60006121f9601683611f76565b9150612204826121c3565b602082019050919050565b60006020820190508181036000830152612228816121ec565b9050919050565b7f596f7520646f6e277420686176652073756666696369656e742062616c616e6360008201527f6500000000000000000000000000000000000000000000000000000000000000602082015250565b600061228b602183611f76565b91506122968261222f565b604082019050919050565b600060208201905081810360008301526122ba8161227e565b9050919050565b600082825260208201905092915050565b600080fd5b82818337600083830152505050565b60006122f283856122c1565b93507f07ffffffffffffffffffffffffffffffffffffffffffffffffffffffffffffff831115612325576123246122d2565b5b6020830292506123368385846122d7565b82840190509392505050565b6000608082019050818103600083015261235d818a8c6122e6565b9050818103602083015261237281888a6122e6565b905081810360408301526123878186886122e6565b9050818103606083015261239c8184866122e6565b90509998505050505050505050565b60006020820190506123c06000830184611a9e565b92915050565b7f547261646520696e69746961746f7220646f65736e277420686176652073756660008201527f66696369656e742062616c616e63650000000000000000000000000000000000602082015250565b6000612422602f83611f76565b915061242d826123c6565b604082019050919050565b6000602082019050818103600083015261245181612415565b9050919050565b7f54726164652069736e27742061637469766520616e796d6f7265000000000000600082015250565b600061248e601a83611f76565b915061249982612458565b602082019050919050565b600060208201905081810360008301526124bd81612481565b9050919050565b7f596f752063616e27742066756c66696c6c20796f7572206f776e20747261646560008201527f7300000000000000000000000000000000000000000000000000000000000000602082015250565b6000612520602183611f76565b915061252b826124c4565b604082019050919050565b6000602082019050818103600083015261254f81612513565b9050919050565b600081549050919050565b60008190508160005260206000209050919050565b60008160001c9050919050565b6000819050919050565b60006125a061259b83612576565b612583565b9050919050565b60006125b3825461258d565b9050919050565b6000600182019050919050565b60006125d282612556565b6125dc81856122c1565b93506125e783612561565b8060005b8381101561261f576125fc826125a7565b6126068882611bb3565b9750612611836125ba565b9250506001810190506125eb565b5085935050505092915050565b600082825260208201905092915050565b50565b600061264d60008361262c565b91506126588261263d565b600082019050919050565b600060a0820190506126786000830187611986565b6126856020830186611986565b818103604083015261269781856125c7565b905081810360608301526126ab81846125c7565b905081810360808301526126be81612640565b905095945050505050565b7f4f776e61626c653a206e6577206f776e657220697320746865207a65726f206160008201527f6464726573730000000000000000000000000000000000000000000000000000602082015250565b6000612725602683611f76565b9150612730826126c9565b604082019050919050565b6000602082019050818103600083015261275481612718565b9050919050565b600081519050919050565b600082825260208201905092915050565b6000819050602082019050919050565b60006127938383611b78565b60208301905092915050565b6000602082019050919050565b60006127b78261275b565b6127c18185612766565b93506127cc83612777565b8060005b838110156127fd5781516127e48882612787565b97506127ef8361279f565b9250506001810190506127d0565b5085935050505092915050565b600061281582611b87565b61281f81856122c1565b935061282a83611ba3565b8060005b8381101561285b5781516128428882611bb3565b975061284d83611bcb565b92505060018101905061282e565b5085935050505092915050565b6000604082019050818103600083015261288281856127ac565b90508181036020830152612896818461280a565b90509392505050565b6000601f19601f8301169050919050565b6128b98261289f565b810181811067ffffffffffffffff821117156128d8576128d761209a565b5b80604052505050565b60006128eb6119b0565b90506128f782826128b0565b919050565b600067ffffffffffffffff8211156129175761291661209a565b5b602082029050602081019050919050565b600081519050612937816119ce565b92915050565b600061295061294b846128fc565b6128e1565b9050808382526020820190506020840283018581111561297357612972611db8565b5b835b8181101561299c57806129888882612928565b845260208401935050602081019050612975565b5050509392505050565b600082601f8301126129bb576129ba611dae565b5b81516129cb84826020860161293d565b91505092915050565b6000602082840312156129ea576129e96119ba565b5b600082015167ffffffffffffffff811115612a0857612a076119bf565b5b612a14848285016129a6565b9150509291505056fea2646970667358221220d831fcb62955825e0ca7a9bc372d33cf3f1c6a83e4d9d62e6c4108c4e863fc4264736f6c634300080a0033",
  "immutableReferences": {},
  "source": "// SPDX-License-Identifier: MIT\r\npragma solidity ^0.8.7;\r\n\r\nimport \"./IotaHeroFactory.sol\";\r\nimport \"./IotaHeroGameTokens.sol\";\r\n\r\ncontract IotaHeroTokenTrade is Ownable {\r\n    IotaHeroGameTokens public tokens;\r\n\r\n    Trade[] public trades;\r\n    uint256 tradeCounter = 0;\r\n    enum TradeStatus {\r\n        OPEN,\r\n        FULFILLED,\r\n        CANCELLED\r\n    }\r\n    struct Trade {\r\n        uint256 tradeId;\r\n        address tradeInitiator;\r\n        uint256[] tokenIdsForSale;\r\n        uint256[] amountsToSell;\r\n        uint256[] tokenIdsWanted;\r\n        uint256[] amountsWanted;\r\n        TradeStatus tradeStatus;\r\n    }\r\n    mapping(uint256 => address) public tradeToOwner;\r\n\r\n    event TradeCreated(\r\n        uint256 indexed tradeId,\r\n        address indexed creator,\r\n        uint256[] tokenIdForSale,\r\n        uint256[] amountsToSell,\r\n        uint256[] tokenIdWanted,\r\n        uint256[] amountsWanted\r\n    );\r\n    event TradeUpdated(\r\n        uint256 indexed tradeId,\r\n        address indexed updater,\r\n        TradeStatus updatedStatus\r\n    );\r\n\r\n    modifier onlyOwnerOf(uint256 _tradeId) {\r\n        require(tradeToOwner[_tradeId] == msg.sender);\r\n        _;\r\n    }\r\n\r\n    function setTokenAddress(address _tokenAddress) public onlyOwner {\r\n        tokens = IotaHeroGameTokens(_tokenAddress);\r\n    }\r\n\r\n    function getTokenAddress() public view returns (address) {\r\n        return address(tokens);\r\n    }\r\n\r\n    function getOpenTrades() public view returns (Trade[] memory) {\r\n        uint256 resultCount;\r\n        for (uint256 i = 0; i < trades.length; i++) {\r\n            if (trades[i].tradeStatus == TradeStatus.OPEN) {\r\n                resultCount++;\r\n            }\r\n        }\r\n        Trade[] memory openTrades = new Trade[](resultCount);\r\n        uint256 c = 0;\r\n        for (uint256 i = 0; i < trades.length; i++) {\r\n            if (trades[i].tradeStatus == TradeStatus.OPEN) {\r\n                openTrades[c] = trades[i];\r\n                c++;\r\n            }\r\n        }\r\n        return openTrades;\r\n    }\r\n\r\n    function _checkBalances(\r\n        address addr,\r\n        uint256[] memory tokenArr,\r\n        uint256[] memory balanceArr\r\n    ) internal view returns (bool) {\r\n        uint256[] memory balancesAtAddr = tokens.balanceOfBatch(\r\n            _initArray(tokenArr.length, addr),\r\n            tokenArr\r\n        );\r\n        for (uint256 i = 0; i < tokenArr.length; i++) {\r\n            if (balancesAtAddr[i] < balanceArr[i]) {\r\n                return false;\r\n            }\r\n        }\r\n        return true;\r\n    }\r\n\r\n    function _initArray(uint256 length, address value)\r\n        internal\r\n        pure\r\n        returns (address[] memory)\r\n    {\r\n        address[] memory arr = new address[](length);\r\n        for (uint256 i = 0; i < length; i++) {\r\n            arr[i] = value;\r\n        }\r\n        return arr;\r\n    }\r\n\r\n    function setTradeOffer(\r\n        uint256[] calldata tokenIdsForSale,\r\n        uint256[] calldata amountToSell,\r\n        uint256[] calldata tokenIdsWanted,\r\n        uint256[] calldata amountWanted\r\n    ) public {\r\n        require(\r\n            tokenIdsForSale.length == amountToSell.length &&\r\n                tokenIdsWanted.length == amountWanted.length,\r\n            \"Array lengths don't match\"\r\n        );\r\n        require(\r\n            tokens.isApprovedForAll(msg.sender, address(this)),\r\n            \"You must approve first\"\r\n        );\r\n        require(\r\n            _checkBalances(msg.sender, tokenIdsForSale, amountToSell),\r\n            \"You don't have sufficient balance\"\r\n        );\r\n\r\n        Trade memory trade = Trade(\r\n            tradeCounter,\r\n            msg.sender,\r\n            tokenIdsForSale,\r\n            amountToSell,\r\n            tokenIdsWanted,\r\n            amountWanted,\r\n            TradeStatus.OPEN\r\n        );\r\n        trades.push(trade);\r\n        tradeToOwner[tradeCounter] = msg.sender;\r\n\r\n        emit TradeCreated(\r\n            tradeCounter,\r\n            msg.sender,\r\n            tokenIdsForSale,\r\n            amountToSell,\r\n            tokenIdsWanted,\r\n            amountWanted\r\n        );\r\n        tradeCounter++;\r\n    }\r\n\r\n    function cancelTradeOffer(uint256 _tradeId) public onlyOwnerOf(_tradeId) {\r\n        Trade storage trade = trades[_tradeId];\r\n        trade.tradeStatus = TradeStatus.CANCELLED;\r\n        emit TradeUpdated(_tradeId, msg.sender, TradeStatus.CANCELLED);\r\n    }\r\n\r\n    function fulfillTradeOffer(uint256 _tradeId) public {\r\n        Trade storage trade = trades[_tradeId];\r\n        require(\r\n            _checkBalances(\r\n                msg.sender,\r\n                trade.tokenIdsWanted,\r\n                trade.amountsWanted\r\n            ),\r\n            \"You don't have sufficient balance\"\r\n        );\r\n        require(\r\n            _checkBalances(\r\n                trade.tradeInitiator,\r\n                trade.tokenIdsForSale,\r\n                trade.amountsToSell\r\n            ),\r\n            \"Trade initiator doesn't have sufficient balance\"\r\n        ); // check that trader has the required tokens\r\n        require(\r\n            trade.tradeStatus == TradeStatus.OPEN,\r\n            \"Trade isn't active anymore\"\r\n        );\r\n        require(\r\n            tokens.isApprovedForAll(msg.sender, address(this)),\r\n            \"You must approve first\"\r\n        );\r\n        require(\r\n            trade.tradeInitiator != msg.sender,\r\n            \"You can't fulfill your own trades\"\r\n        );\r\n        tokens.safeBatchTransferFrom(\r\n            msg.sender,\r\n            trade.tradeInitiator,\r\n            trade.tokenIdsWanted,\r\n            trade.amountsWanted,\r\n            \"\"\r\n        );\r\n        tokens.safeBatchTransferFrom(\r\n            trade.tradeInitiator,\r\n            msg.sender,\r\n            trade.tokenIdsForSale,\r\n            trade.amountsToSell,\r\n            \"\"\r\n        );\r\n        trade.tradeStatus = TradeStatus.FULFILLED;\r\n        emit TradeUpdated(_tradeId, msg.sender, TradeStatus.FULFILLED);\r\n    }\r\n}\r\n",
  "sourcePath": "C:\\Users\\creld\\source\\repos\\IotaHeroesAzure\\smartcontracts\\contracts\\IotaHeroTokenTrade.sol",
  "compiler": {
    "name": "solc",
    "version": "0.8.10+commit.fc410830.Emscripten.clang"
  },
  "schemaVersion": "3.4.4",
  "updatedAt": "2022-02-05T12:52:37.285Z",
  "devdoc": {
    "kind": "dev",
    "methods": {
      "owner()": {
        "details": "Returns the address of the current owner."
      },
      "renounceOwnership()": {
        "details": "Leaves the contract without owner. It will not be possible to call `onlyOwner` functions anymore. Can only be called by the current owner. NOTE: Renouncing ownership will leave the contract without an owner, thereby removing any functionality that is only available to the owner."
      },
      "transferOwnership(address)": {
        "details": "Transfers ownership of the contract to a new account (`newOwner`). Can only be called by the current owner."
      }
    },
    "version": 1
  },
  "userdoc": {
    "kind": "user",
    "methods": {},
    "version": 1
  }
}