{
  "contractName": "IotaHeroGameTokens",
  "abi": [
    {
      "inputs": [],
      "stateMutability": "nonpayable",
      "type": "constructor"
    },
    {
      "anonymous": false,
      "inputs": [
        {
          "indexed": true,
          "internalType": "address",
          "name": "account",
          "type": "address"
        },
        {
          "indexed": true,
          "internalType": "address",
          "name": "operator",
          "type": "address"
        },
        {
          "indexed": false,
          "internalType": "bool",
          "name": "approved",
          "type": "bool"
        }
      ],
      "name": "ApprovalForAll",
      "type": "event"
    },
    {
      "anonymous": false,
      "inputs": [
        {
          "indexed": true,
          "internalType": "address",
          "name": "previousOwner",
          "type": "address"
        },
        {
          "indexed": true,
          "internalType": "address",
          "name": "newOwner",
          "type": "address"
        }
      ],
      "name": "OwnershipTransferred",
      "type": "event"
    },
    {
      "anonymous": false,
      "inputs": [
        {
          "indexed": true,
          "internalType": "address",
          "name": "operator",
          "type": "address"
        },
        {
          "indexed": true,
          "internalType": "address",
          "name": "from",
          "type": "address"
        },
        {
          "indexed": true,
          "internalType": "address",
          "name": "to",
          "type": "address"
        },
        {
          "indexed": false,
          "internalType": "uint256[]",
          "name": "ids",
          "type": "uint256[]"
        },
        {
          "indexed": false,
          "internalType": "uint256[]",
          "name": "values",
          "type": "uint256[]"
        }
      ],
      "name": "TransferBatch",
      "type": "event"
    },
    {
      "anonymous": false,
      "inputs": [
        {
          "indexed": true,
          "internalType": "address",
          "name": "operator",
          "type": "address"
        },
        {
          "indexed": true,
          "internalType": "address",
          "name": "from",
          "type": "address"
        },
        {
          "indexed": true,
          "internalType": "address",
          "name": "to",
          "type": "address"
        },
        {
          "indexed": false,
          "internalType": "uint256",
          "name": "id",
          "type": "uint256"
        },
        {
          "indexed": false,
          "internalType": "uint256",
          "name": "value",
          "type": "uint256"
        }
      ],
      "name": "TransferSingle",
      "type": "event"
    },
    {
      "anonymous": false,
      "inputs": [
        {
          "indexed": false,
          "internalType": "string",
          "name": "value",
          "type": "string"
        },
        {
          "indexed": true,
          "internalType": "uint256",
          "name": "id",
          "type": "uint256"
        }
      ],
      "name": "URI",
      "type": "event"
    },
    {
      "inputs": [],
      "name": "BONES",
      "outputs": [
        {
          "internalType": "uint256",
          "name": "",
          "type": "uint256"
        }
      ],
      "stateMutability": "view",
      "type": "function",
      "constant": true
    },
    {
      "inputs": [],
      "name": "BOOTS_OF_SWIFTNESS",
      "outputs": [
        {
          "internalType": "uint256",
          "name": "",
          "type": "uint256"
        }
      ],
      "stateMutability": "view",
      "type": "function",
      "constant": true
    },
    {
      "inputs": [],
      "name": "GOLD",
      "outputs": [
        {
          "internalType": "uint256",
          "name": "",
          "type": "uint256"
        }
      ],
      "stateMutability": "view",
      "type": "function",
      "constant": true
    },
    {
      "inputs": [],
      "name": "HEALING_POTION",
      "outputs": [
        {
          "internalType": "uint256",
          "name": "",
          "type": "uint256"
        }
      ],
      "stateMutability": "view",
      "type": "function",
      "constant": true
    },
    {
      "inputs": [],
      "name": "RING_OF_INVISIBILITY",
      "outputs": [
        {
          "internalType": "uint256",
          "name": "",
          "type": "uint256"
        }
      ],
      "stateMutability": "view",
      "type": "function",
      "constant": true
    },
    {
      "inputs": [
        {
          "internalType": "address",
          "name": "account",
          "type": "address"
        },
        {
          "internalType": "uint256",
          "name": "id",
          "type": "uint256"
        }
      ],
      "name": "balanceOf",
      "outputs": [
        {
          "internalType": "uint256",
          "name": "",
          "type": "uint256"
        }
      ],
      "stateMutability": "view",
      "type": "function",
      "constant": true
    },
    {
      "inputs": [
        {
          "internalType": "address[]",
          "name": "accounts",
          "type": "address[]"
        },
        {
          "internalType": "uint256[]",
          "name": "ids",
          "type": "uint256[]"
        }
      ],
      "name": "balanceOfBatch",
      "outputs": [
        {
          "internalType": "uint256[]",
          "name": "",
          "type": "uint256[]"
        }
      ],
      "stateMutability": "view",
      "type": "function",
      "constant": true
    },
    {
      "inputs": [],
      "name": "game",
      "outputs": [
        {
          "internalType": "address",
          "name": "",
          "type": "address"
        }
      ],
      "stateMutability": "view",
      "type": "function",
      "constant": true
    },
    {
      "inputs": [],
      "name": "owner",
      "outputs": [
        {
          "internalType": "address",
          "name": "",
          "type": "address"
        }
      ],
      "stateMutability": "view",
      "type": "function",
      "constant": true
    },
    {
      "inputs": [],
      "name": "renounceOwnership",
      "outputs": [],
      "stateMutability": "nonpayable",
      "type": "function"
    },
    {
      "inputs": [
        {
          "internalType": "address",
          "name": "from",
          "type": "address"
        },
        {
          "internalType": "address",
          "name": "to",
          "type": "address"
        },
        {
          "internalType": "uint256[]",
          "name": "ids",
          "type": "uint256[]"
        },
        {
          "internalType": "uint256[]",
          "name": "amounts",
          "type": "uint256[]"
        },
        {
          "internalType": "bytes",
          "name": "data",
          "type": "bytes"
        }
      ],
      "name": "safeBatchTransferFrom",
      "outputs": [],
      "stateMutability": "nonpayable",
      "type": "function"
    },
    {
      "inputs": [
        {
          "internalType": "address",
          "name": "from",
          "type": "address"
        },
        {
          "internalType": "address",
          "name": "to",
          "type": "address"
        },
        {
          "internalType": "uint256",
          "name": "id",
          "type": "uint256"
        },
        {
          "internalType": "uint256",
          "name": "amount",
          "type": "uint256"
        },
        {
          "internalType": "bytes",
          "name": "data",
          "type": "bytes"
        }
      ],
      "name": "safeTransferFrom",
      "outputs": [],
      "stateMutability": "nonpayable",
      "type": "function"
    },
    {
      "inputs": [
        {
          "internalType": "address",
          "name": "operator",
          "type": "address"
        },
        {
          "internalType": "bool",
          "name": "approved",
          "type": "bool"
        }
      ],
      "name": "setApprovalForAll",
      "outputs": [],
      "stateMutability": "nonpayable",
      "type": "function"
    },
    {
      "inputs": [
        {
          "internalType": "bytes4",
          "name": "interfaceId",
          "type": "bytes4"
        }
      ],
      "name": "supportsInterface",
      "outputs": [
        {
          "internalType": "bool",
          "name": "",
          "type": "bool"
        }
      ],
      "stateMutability": "view",
      "type": "function",
      "constant": true
    },
    {
      "inputs": [
        {
          "internalType": "address",
          "name": "newOwner",
          "type": "address"
        }
      ],
      "name": "transferOwnership",
      "outputs": [],
      "stateMutability": "nonpayable",
      "type": "function"
    },
    {
      "inputs": [
        {
          "internalType": "uint256",
          "name": "",
          "type": "uint256"
        }
      ],
      "name": "uri",
      "outputs": [
        {
          "internalType": "string",
          "name": "",
          "type": "string"
        }
      ],
      "stateMutability": "view",
      "type": "function",
      "constant": true
    },
    {
      "inputs": [
        {
          "internalType": "address",
          "name": "_game",
          "type": "address"
        }
      ],
      "name": "setGame",
      "outputs": [],
      "stateMutability": "nonpayable",
      "type": "function"
    },
    {
      "inputs": [
        {
          "internalType": "address",
          "name": "account",
          "type": "address"
        },
        {
          "internalType": "address",
          "name": "operator",
          "type": "address"
        }
      ],
      "name": "isApprovedForAll",
      "outputs": [
        {
          "internalType": "bool",
          "name": "",
          "type": "bool"
        }
      ],
      "stateMutability": "view",
      "type": "function",
      "constant": true
    },
    {
      "inputs": [
        {
          "internalType": "address",
          "name": "account",
          "type": "address"
        },
        {
          "internalType": "uint256",
          "name": "id",
          "type": "uint256"
        },
        {
          "internalType": "uint256",
          "name": "amount",
          "type": "uint256"
        }
      ],
      "name": "mint",
      "outputs": [],
      "stateMutability": "nonpayable",
      "type": "function"
    },
    {
      "inputs": [
        {
          "internalType": "address",
          "name": "account",
          "type": "address"
        },
        {
          "internalType": "uint256",
          "name": "id",
          "type": "uint256"
        },
        {
          "internalType": "uint256",
          "name": "amount",
          "type": "uint256"
        }
      ],
      "name": "burn",
      "outputs": [],
      "stateMutability": "nonpayable",
      "type": "function"
    },
    {
      "inputs": [
        {
          "internalType": "address",
          "name": "_recipient",
          "type": "address"
        }
      ],
      "name": "awardAdventurer",
      "outputs": [],
      "stateMutability": "payable",
      "type": "function",
      "payable": true
    }
  ],
  "bytecode": "0x60806040523480156200001157600080fd5b506040518060600160405280602d815260200162003b30602d91396200003d816200006460201b60201c565b506200005e620000526200008060201b60201c565b6200008860201b60201c565b62000263565b80600290805190602001906200007c9291906200014e565b5050565b600033905090565b6000600360009054906101000a900473ffffffffffffffffffffffffffffffffffffffff16905081600360006101000a81548173ffffffffffffffffffffffffffffffffffffffff021916908373ffffffffffffffffffffffffffffffffffffffff1602179055508173ffffffffffffffffffffffffffffffffffffffff168173ffffffffffffffffffffffffffffffffffffffff167f8be0079c531659141344cd1fd0a4f28419497f9722a3daafe3b4186f6b6457e060405160405180910390a35050565b8280546200015c906200022d565b90600052602060002090601f016020900481019282620001805760008555620001cc565b82601f106200019b57805160ff1916838001178555620001cc565b82800160010185558215620001cc579182015b82811115620001cb578251825591602001919060010190620001ae565b5b509050620001db9190620001df565b5090565b5b80821115620001fa576000816000905550600101620001e0565b5090565b7f4e487b7100000000000000000000000000000000000000000000000000000000600052602260045260246000fd5b600060028204905060018216806200024657607f821691505b602082108114156200025d576200025c620001fe565b5b50919050565b6138bd80620002736000396000f3fe6080604052600436106101295760003560e01c8063715018a6116100ab578063d68713351161006f578063d6871335146103df578063e51bcfd21461040a578063e985e9c514610426578063f242432a14610463578063f2fde38b1461048c578063f5298aca146104b557610129565b8063715018a614610320578063819912a2146103375780638da5cb5b14610360578063a22cb4651461038b578063c3fe3e28146103b457610129565b806326591e79116100f257806326591e79146102395780632eb2c2d6146102645780633e4bee381461028d5780634e1273f4146102b857806357b1a839146102f557610129565b8062fdd58e1461012e57806301ffc9a71461016b5780630e89341c146101a8578063156e29f6146101e5578063216638931461020e575b600080fd5b34801561013a57600080fd5b50610155600480360381019061015091906122f6565b6104de565b6040516101629190612345565b60405180910390f35b34801561017757600080fd5b50610192600480360381019061018d91906123b8565b6105a7565b60405161019f9190612400565b60405180910390f35b3480156101b457600080fd5b506101cf60048036038101906101ca919061241b565b610689565b6040516101dc91906124e1565b60405180910390f35b3480156101f157600080fd5b5061020c60048036038101906102079190612503565b61071d565b005b34801561021a57600080fd5b506102236107b9565b6040516102309190612345565b60405180910390f35b34801561024557600080fd5b5061024e6107be565b60405161025b9190612345565b60405180910390f35b34801561027057600080fd5b5061028b60048036038101906102869190612753565b6107c3565b005b34801561029957600080fd5b506102a2610864565b6040516102af9190612345565b60405180910390f35b3480156102c457600080fd5b506102df60048036038101906102da91906128e5565b610869565b6040516102ec9190612a1b565b60405180910390f35b34801561030157600080fd5b5061030a610982565b6040516103179190612345565b60405180910390f35b34801561032c57600080fd5b50610335610987565b005b34801561034357600080fd5b5061035e60048036038101906103599190612a3d565b610a0f565b005b34801561036c57600080fd5b50610375610acf565b6040516103829190612a79565b60405180910390f35b34801561039757600080fd5b506103b260048036038101906103ad9190612ac0565b610af9565b005b3480156103c057600080fd5b506103c9610b0f565b6040516103d69190612a79565b60405180910390f35b3480156103eb57600080fd5b506103f4610b35565b6040516104019190612345565b60405180910390f35b610424600480360381019061041f9190612a3d565b610b3a565b005b34801561043257600080fd5b5061044d60048036038101906104489190612b00565b610d15565b60405161045a9190612400565b60405180910390f35b34801561046f57600080fd5b5061048a60048036038101906104859190612b40565b610d88565b005b34801561049857600080fd5b506104b360048036038101906104ae9190612a3d565b610e29565b005b3480156104c157600080fd5b506104dc60048036038101906104d79190612503565b610f21565b005b60008073ffffffffffffffffffffffffffffffffffffffff168373ffffffffffffffffffffffffffffffffffffffff16141561054f576040517f08c379a000000000000000000000000000000000000000000000000000000000815260040161054690612c49565b60405180910390fd5b60008083815260200190815260200160002060008473ffffffffffffffffffffffffffffffffffffffff1673ffffffffffffffffffffffffffffffffffffffff16815260200190815260200160002054905092915050565b60007fd9b67a26000000000000000000000000000000000000000000000000000000007bffffffffffffffffffffffffffffffffffffffffffffffffffffffff1916827bffffffffffffffffffffffffffffffffffffffffffffffffffffffff1916148061067257507f0e89341c000000000000000000000000000000000000000000000000000000007bffffffffffffffffffffffffffffffffffffffffffffffffffffffff1916827bffffffffffffffffffffffffffffffffffffffffffffffffffffffff1916145b80610682575061068182610f69565b5b9050919050565b60606002805461069890612c98565b80601f01602080910402602001604051908101604052809291908181526020018280546106c490612c98565b80156107115780601f106106e657610100808354040283529160200191610711565b820191906000526020600020905b8154815290600101906020018083116106f457829003601f168201915b50505050509050919050565b610725610fd3565b73ffffffffffffffffffffffffffffffffffffffff16610743610acf565b73ffffffffffffffffffffffffffffffffffffffff1614610799576040517f08c379a000000000000000000000000000000000000000000000000000000000815260040161079090612d16565b60405180910390fd5b6107b483838360405180602001604052806000815250610fdb565b505050565b600281565b600181565b6107cb610fd3565b73ffffffffffffffffffffffffffffffffffffffff168573ffffffffffffffffffffffffffffffffffffffff16148061081157506108108561080b610fd3565b610d15565b5b610850576040517f08c379a000000000000000000000000000000000000000000000000000000000815260040161084790612da8565b60405180910390fd5b61085d8585858585611171565b5050505050565b600081565b606081518351146108af576040517f08c379a00000000000000000000000000000000000000000000000000000000081526004016108a690612e3a565b60405180910390fd5b6000835167ffffffffffffffff8111156108cc576108cb61255b565b5b6040519080825280602002602001820160405280156108fa5781602001602082028036833780820191505090505b50905060005b84518110156109775761094785828151811061091f5761091e612e5a565b5b602002602001015185838151811061093a57610939612e5a565b5b60200260200101516104de565b82828151811061095a57610959612e5a565b5b6020026020010181815250508061097090612eb8565b9050610900565b508091505092915050565b600481565b61098f610fd3565b73ffffffffffffffffffffffffffffffffffffffff166109ad610acf565b73ffffffffffffffffffffffffffffffffffffffff1614610a03576040517f08c379a00000000000000000000000000000000000000000000000000000000081526004016109fa90612d16565b60405180910390fd5b610a0d6000611485565b565b610a17610fd3565b73ffffffffffffffffffffffffffffffffffffffff16610a35610acf565b73ffffffffffffffffffffffffffffffffffffffff1614610a8b576040517f08c379a0000000000000000000000000000000000000000000000000000000008152600401610a8290612d16565b60405180910390fd5b80600460006101000a81548173ffffffffffffffffffffffffffffffffffffffff021916908373ffffffffffffffffffffffffffffffffffffffff16021790555050565b6000600360009054906101000a900473ffffffffffffffffffffffffffffffffffffffff16905090565b610b0b610b04610fd3565b838361154b565b5050565b600460009054906101000a900473ffffffffffffffffffffffffffffffffffffffff1681565b600381565b600460009054906101000a900473ffffffffffffffffffffffffffffffffffffffff1673ffffffffffffffffffffffffffffffffffffffff16610b7b610fd3565b73ffffffffffffffffffffffffffffffffffffffff1614610bd1576040517f08c379a0000000000000000000000000000000000000000000000000000000008152600401610bc890612f4d565b60405180910390fd5b6000600267ffffffffffffffff811115610bee57610bed61255b565b5b604051908082528060200260200182016040528015610c1c5781602001602082028036833780820191505090505b509050600081600081518110610c3557610c34612e5a565b5b602002602001018181525050600181600181518110610c5757610c56612e5a565b5b6020026020010181815250506000600267ffffffffffffffff811115610c8057610c7f61255b565b5b604051908082528060200260200182016040528015610cae5781602001602082028036833780820191505090505b509050606481600081518110610cc757610cc6612e5a565b5b602002602001018181525050600181600181518110610ce957610ce8612e5a565b5b602002602001018181525050610d10838383604051806020016040528060008152506116b8565b505050565b6000600460009054906101000a900473ffffffffffffffffffffffffffffffffffffffff1673ffffffffffffffffffffffffffffffffffffffff16610d58610fd3565b73ffffffffffffffffffffffffffffffffffffffff161480610d805750610d7f83836118d6565b5b905092915050565b610d90610fd3565b73ffffffffffffffffffffffffffffffffffffffff168573ffffffffffffffffffffffffffffffffffffffff161480610dd65750610dd585610dd0610fd3565b610d15565b5b610e15576040517f08c379a0000000000000000000000000000000000000000000000000000000008152600401610e0c90612fdf565b60405180910390fd5b610e22858585858561196a565b5050505050565b610e31610fd3565b73ffffffffffffffffffffffffffffffffffffffff16610e4f610acf565b73ffffffffffffffffffffffffffffffffffffffff1614610ea5576040517f08c379a0000000000000000000000000000000000000000000000000000000008152600401610e9c90612d16565b60405180910390fd5b600073ffffffffffffffffffffffffffffffffffffffff168173ffffffffffffffffffffffffffffffffffffffff161415610f15576040517f08c379a0000000000000000000000000000000000000000000000000000000008152600401610f0c90613071565b60405180910390fd5b610f1e81611485565b50565b8273ffffffffffffffffffffffffffffffffffffffff163373ffffffffffffffffffffffffffffffffffffffff1614610f5957600080fd5b610f64838383611bec565b505050565b60007f01ffc9a7000000000000000000000000000000000000000000000000000000007bffffffffffffffffffffffffffffffffffffffffffffffffffffffff1916827bffffffffffffffffffffffffffffffffffffffffffffffffffffffff1916149050919050565b600033905090565b600073ffffffffffffffffffffffffffffffffffffffff168473ffffffffffffffffffffffffffffffffffffffff16141561104b576040517f08c379a000000000000000000000000000000000000000000000000000000000815260040161104290613103565b60405180910390fd5b6000611055610fd3565b90506110768160008761106788611e09565b61107088611e09565b87611e83565b8260008086815260200190815260200160002060008773ffffffffffffffffffffffffffffffffffffffff1673ffffffffffffffffffffffffffffffffffffffff16815260200190815260200160002060008282546110d59190613123565b925050819055508473ffffffffffffffffffffffffffffffffffffffff16600073ffffffffffffffffffffffffffffffffffffffff168273ffffffffffffffffffffffffffffffffffffffff167fc3d58168c5ae7397731d063d5bbf3d657854427343f4c083240f7aacaa2d0f628787604051611153929190613179565b60405180910390a461116a81600087878787611e8b565b5050505050565b81518351146111b5576040517f08c379a00000000000000000000000000000000000000000000000000000000081526004016111ac90613214565b60405180910390fd5b600073ffffffffffffffffffffffffffffffffffffffff168473ffffffffffffffffffffffffffffffffffffffff161415611225576040517f08c379a000000000000000000000000000000000000000000000000000000000815260040161121c906132a6565b60405180910390fd5b600061122f610fd3565b905061123f818787878787611e83565b60005b84518110156113f05760008582815181106112605761125f612e5a565b5b60200260200101519050600085838151811061127f5761127e612e5a565b5b60200260200101519050600080600084815260200190815260200160002060008b73ffffffffffffffffffffffffffffffffffffffff1673ffffffffffffffffffffffffffffffffffffffff16815260200190815260200160002054905081811015611320576040517f08c379a000000000000000000000000000000000000000000000000000000000815260040161131790613338565b60405180910390fd5b81810360008085815260200190815260200160002060008c73ffffffffffffffffffffffffffffffffffffffff1673ffffffffffffffffffffffffffffffffffffffff168152602001908152602001600020819055508160008085815260200190815260200160002060008b73ffffffffffffffffffffffffffffffffffffffff1673ffffffffffffffffffffffffffffffffffffffff16815260200190815260200160002060008282546113d59190613123565b92505081905550505050806113e990612eb8565b9050611242565b508473ffffffffffffffffffffffffffffffffffffffff168673ffffffffffffffffffffffffffffffffffffffff168273ffffffffffffffffffffffffffffffffffffffff167f4a39dc06d4c0dbc64b70af90fd698a233a518aa5d07e595d983b8c0526c8f7fb8787604051611467929190613358565b60405180910390a461147d818787878787612063565b505050505050565b6000600360009054906101000a900473ffffffffffffffffffffffffffffffffffffffff16905081600360006101000a81548173ffffffffffffffffffffffffffffffffffffffff021916908373ffffffffffffffffffffffffffffffffffffffff1602179055508173ffffffffffffffffffffffffffffffffffffffff168173ffffffffffffffffffffffffffffffffffffffff167f8be0079c531659141344cd1fd0a4f28419497f9722a3daafe3b4186f6b6457e060405160405180910390a35050565b8173ffffffffffffffffffffffffffffffffffffffff168373ffffffffffffffffffffffffffffffffffffffff1614156115ba576040517f08c379a00000000000000000000000000000000000000000000000000000000081526004016115b190613401565b60405180910390fd5b80600160008573ffffffffffffffffffffffffffffffffffffffff1673ffffffffffffffffffffffffffffffffffffffff16815260200190815260200160002060008473ffffffffffffffffffffffffffffffffffffffff1673ffffffffffffffffffffffffffffffffffffffff16815260200190815260200160002060006101000a81548160ff0219169083151502179055508173ffffffffffffffffffffffffffffffffffffffff168373ffffffffffffffffffffffffffffffffffffffff167f17307eab39ab6107e8899845ad3d59bd9653f200f220920489ca2b5937696c31836040516116ab9190612400565b60405180910390a3505050565b600073ffffffffffffffffffffffffffffffffffffffff168473ffffffffffffffffffffffffffffffffffffffff161415611728576040517f08c379a000000000000000000000000000000000000000000000000000000000815260040161171f90613103565b60405180910390fd5b815183511461176c576040517f08c379a000000000000000000000000000000000000000000000000000000000815260040161176390613214565b60405180910390fd5b6000611776610fd3565b905061178781600087878787611e83565b60005b8451811015611840578381815181106117a6576117a5612e5a565b5b60200260200101516000808784815181106117c4576117c3612e5a565b5b6020026020010151815260200190815260200160002060008873ffffffffffffffffffffffffffffffffffffffff1673ffffffffffffffffffffffffffffffffffffffff16815260200190815260200160002060008282546118269190613123565b92505081905550808061183890612eb8565b91505061178a565b508473ffffffffffffffffffffffffffffffffffffffff16600073ffffffffffffffffffffffffffffffffffffffff168273ffffffffffffffffffffffffffffffffffffffff167f4a39dc06d4c0dbc64b70af90fd698a233a518aa5d07e595d983b8c0526c8f7fb87876040516118b8929190613358565b60405180910390a46118cf81600087878787612063565b5050505050565b6000600160008473ffffffffffffffffffffffffffffffffffffffff1673ffffffffffffffffffffffffffffffffffffffff16815260200190815260200160002060008373ffffffffffffffffffffffffffffffffffffffff1673ffffffffffffffffffffffffffffffffffffffff16815260200190815260200160002060009054906101000a900460ff16905092915050565b600073ffffffffffffffffffffffffffffffffffffffff168473ffffffffffffffffffffffffffffffffffffffff1614156119da576040517f08c379a00000000000000000000000000000000000000000000000000000000081526004016119d1906132a6565b60405180910390fd5b60006119e4610fd3565b9050611a048187876119f588611e09565b6119fe88611e09565b87611e83565b600080600086815260200190815260200160002060008873ffffffffffffffffffffffffffffffffffffffff1673ffffffffffffffffffffffffffffffffffffffff16815260200190815260200160002054905083811015611a9b576040517f08c379a0000000000000000000000000000000000000000000000000000000008152600401611a9290613338565b60405180910390fd5b83810360008087815260200190815260200160002060008973ffffffffffffffffffffffffffffffffffffffff1673ffffffffffffffffffffffffffffffffffffffff168152602001908152602001600020819055508360008087815260200190815260200160002060008873ffffffffffffffffffffffffffffffffffffffff1673ffffffffffffffffffffffffffffffffffffffff1681526020019081526020016000206000828254611b509190613123565b925050819055508573ffffffffffffffffffffffffffffffffffffffff168773ffffffffffffffffffffffffffffffffffffffff168373ffffffffffffffffffffffffffffffffffffffff167fc3d58168c5ae7397731d063d5bbf3d657854427343f4c083240f7aacaa2d0f628888604051611bcd929190613179565b60405180910390a4611be3828888888888611e8b565b50505050505050565b600073ffffffffffffffffffffffffffffffffffffffff168373ffffffffffffffffffffffffffffffffffffffff161415611c5c576040517f08c379a0000000000000000000000000000000000000000000000000000000008152600401611c5390613493565b60405180910390fd5b6000611c66610fd3565b9050611c9681856000611c7887611e09565b611c8187611e09565b60405180602001604052806000815250611e83565b600080600085815260200190815260200160002060008673ffffffffffffffffffffffffffffffffffffffff1673ffffffffffffffffffffffffffffffffffffffff16815260200190815260200160002054905082811015611d2d576040517f08c379a0000000000000000000000000000000000000000000000000000000008152600401611d2490613525565b60405180910390fd5b82810360008086815260200190815260200160002060008773ffffffffffffffffffffffffffffffffffffffff1673ffffffffffffffffffffffffffffffffffffffff16815260200190815260200160002081905550600073ffffffffffffffffffffffffffffffffffffffff168573ffffffffffffffffffffffffffffffffffffffff168373ffffffffffffffffffffffffffffffffffffffff167fc3d58168c5ae7397731d063d5bbf3d657854427343f4c083240f7aacaa2d0f628787604051611dfa929190613179565b60405180910390a45050505050565b60606000600167ffffffffffffffff811115611e2857611e2761255b565b5b604051908082528060200260200182016040528015611e565781602001602082028036833780820191505090505b5090508281600081518110611e6e57611e6d612e5a565b5b60200260200101818152505080915050919050565b505050505050565b611eaa8473ffffffffffffffffffffffffffffffffffffffff1661223b565b1561205b578373ffffffffffffffffffffffffffffffffffffffff1663f23a6e6187878686866040518663ffffffff1660e01b8152600401611ef095949392919061359a565b6020604051808303816000875af1925050508015611f2c57506040513d601f19601f82011682018060405250810190611f299190613609565b60015b611fd257611f38613643565b806308c379a01415611f955750611f4d613665565b80611f585750611f97565b806040517f08c379a0000000000000000000000000000000000000000000000000000000008152600401611f8c91906124e1565b60405180910390fd5b505b6040517f08c379a0000000000000000000000000000000000000000000000000000000008152600401611fc99061376d565b60405180910390fd5b63f23a6e6160e01b7bffffffffffffffffffffffffffffffffffffffffffffffffffffffff1916817bffffffffffffffffffffffffffffffffffffffffffffffffffffffff191614612059576040517f08c379a0000000000000000000000000000000000000000000000000000000008152600401612050906137ff565b60405180910390fd5b505b505050505050565b6120828473ffffffffffffffffffffffffffffffffffffffff1661223b565b15612233578373ffffffffffffffffffffffffffffffffffffffff1663bc197c8187878686866040518663ffffffff1660e01b81526004016120c895949392919061381f565b6020604051808303816000875af192505050801561210457506040513d601f19601f820116820180604052508101906121019190613609565b60015b6121aa57612110613643565b806308c379a0141561216d5750612125613665565b80612130575061216f565b806040517f08c379a000000000000000000000000000000000000000000000000000000000815260040161216491906124e1565b60405180910390fd5b505b6040517f08c379a00000000000000000000000000000000000000000000000000000000081526004016121a19061376d565b60405180910390fd5b63bc197c8160e01b7bffffffffffffffffffffffffffffffffffffffffffffffffffffffff1916817bffffffffffffffffffffffffffffffffffffffffffffffffffffffff191614612231576040517f08c379a0000000000000000000000000000000000000000000000000000000008152600401612228906137ff565b60405180910390fd5b505b505050505050565b600080823b905060008111915050919050565b6000604051905090565b600080fd5b600080fd5b600073ffffffffffffffffffffffffffffffffffffffff82169050919050565b600061228d82612262565b9050919050565b61229d81612282565b81146122a857600080fd5b50565b6000813590506122ba81612294565b92915050565b6000819050919050565b6122d3816122c0565b81146122de57600080fd5b50565b6000813590506122f0816122ca565b92915050565b6000806040838503121561230d5761230c612258565b5b600061231b858286016122ab565b925050602061232c858286016122e1565b9150509250929050565b61233f816122c0565b82525050565b600060208201905061235a6000830184612336565b92915050565b60007fffffffff0000000000000000000000000000000000000000000000000000000082169050919050565b61239581612360565b81146123a057600080fd5b50565b6000813590506123b28161238c565b92915050565b6000602082840312156123ce576123cd612258565b5b60006123dc848285016123a3565b91505092915050565b60008115159050919050565b6123fa816123e5565b82525050565b600060208201905061241560008301846123f1565b92915050565b60006020828403121561243157612430612258565b5b600061243f848285016122e1565b91505092915050565b600081519050919050565b600082825260208201905092915050565b60005b83811015612482578082015181840152602081019050612467565b83811115612491576000848401525b50505050565b6000601f19601f8301169050919050565b60006124b382612448565b6124bd8185612453565b93506124cd818560208601612464565b6124d681612497565b840191505092915050565b600060208201905081810360008301526124fb81846124a8565b905092915050565b60008060006060848603121561251c5761251b612258565b5b600061252a868287016122ab565b935050602061253b868287016122e1565b925050604061254c868287016122e1565b9150509250925092565b600080fd5b7f4e487b7100000000000000000000000000000000000000000000000000000000600052604160045260246000fd5b61259382612497565b810181811067ffffffffffffffff821117156125b2576125b161255b565b5b80604052505050565b60006125c561224e565b90506125d1828261258a565b919050565b600067ffffffffffffffff8211156125f1576125f061255b565b5b602082029050602081019050919050565b600080fd5b600061261a612615846125d6565b6125bb565b9050808382526020820190506020840283018581111561263d5761263c612602565b5b835b81811015612666578061265288826122e1565b84526020840193505060208101905061263f565b5050509392505050565b600082601f83011261268557612684612556565b5b8135612695848260208601612607565b91505092915050565b600080fd5b600067ffffffffffffffff8211156126be576126bd61255b565b5b6126c782612497565b9050602081019050919050565b82818337600083830152505050565b60006126f66126f1846126a3565b6125bb565b9050828152602081018484840111156127125761271161269e565b5b61271d8482856126d4565b509392505050565b600082601f83011261273a57612739612556565b5b813561274a8482602086016126e3565b91505092915050565b600080600080600060a0868803121561276f5761276e612258565b5b600061277d888289016122ab565b955050602061278e888289016122ab565b945050604086013567ffffffffffffffff8111156127af576127ae61225d565b5b6127bb88828901612670565b935050606086013567ffffffffffffffff8111156127dc576127db61225d565b5b6127e888828901612670565b925050608086013567ffffffffffffffff8111156128095761280861225d565b5b61281588828901612725565b9150509295509295909350565b600067ffffffffffffffff82111561283d5761283c61255b565b5b602082029050602081019050919050565b600061286161285c84612822565b6125bb565b9050808382526020820190506020840283018581111561288457612883612602565b5b835b818110156128ad578061289988826122ab565b845260208401935050602081019050612886565b5050509392505050565b600082601f8301126128cc576128cb612556565b5b81356128dc84826020860161284e565b91505092915050565b600080604083850312156128fc576128fb612258565b5b600083013567ffffffffffffffff81111561291a5761291961225d565b5b612926858286016128b7565b925050602083013567ffffffffffffffff8111156129475761294661225d565b5b61295385828601612670565b9150509250929050565b600081519050919050565b600082825260208201905092915050565b6000819050602082019050919050565b612992816122c0565b82525050565b60006129a48383612989565b60208301905092915050565b6000602082019050919050565b60006129c88261295d565b6129d28185612968565b93506129dd83612979565b8060005b83811015612a0e5781516129f58882612998565b9750612a00836129b0565b9250506001810190506129e1565b5085935050505092915050565b60006020820190508181036000830152612a3581846129bd565b905092915050565b600060208284031215612a5357612a52612258565b5b6000612a61848285016122ab565b91505092915050565b612a7381612282565b82525050565b6000602082019050612a8e6000830184612a6a565b92915050565b612a9d816123e5565b8114612aa857600080fd5b50565b600081359050612aba81612a94565b92915050565b60008060408385031215612ad757612ad6612258565b5b6000612ae5858286016122ab565b9250506020612af685828601612aab565b9150509250929050565b60008060408385031215612b1757612b16612258565b5b6000612b25858286016122ab565b9250506020612b36858286016122ab565b9150509250929050565b600080600080600060a08688031215612b5c57612b5b612258565b5b6000612b6a888289016122ab565b9550506020612b7b888289016122ab565b9450506040612b8c888289016122e1565b9350506060612b9d888289016122e1565b925050608086013567ffffffffffffffff811115612bbe57612bbd61225d565b5b612bca88828901612725565b9150509295509295909350565b7f455243313135353a2062616c616e636520717565727920666f7220746865207a60008201527f65726f2061646472657373000000000000000000000000000000000000000000602082015250565b6000612c33602b83612453565b9150612c3e82612bd7565b604082019050919050565b60006020820190508181036000830152612c6281612c26565b9050919050565b7f4e487b7100000000000000000000000000000000000000000000000000000000600052602260045260246000fd5b60006002820490506001821680612cb057607f821691505b60208210811415612cc457612cc3612c69565b5b50919050565b7f4f776e61626c653a2063616c6c6572206973206e6f7420746865206f776e6572600082015250565b6000612d00602083612453565b9150612d0b82612cca565b602082019050919050565b60006020820190508181036000830152612d2f81612cf3565b9050919050565b7f455243313135353a207472616e736665722063616c6c6572206973206e6f742060008201527f6f776e6572206e6f7220617070726f7665640000000000000000000000000000602082015250565b6000612d92603283612453565b9150612d9d82612d36565b604082019050919050565b60006020820190508181036000830152612dc181612d85565b9050919050565b7f455243313135353a206163636f756e747320616e6420696473206c656e67746860008201527f206d69736d617463680000000000000000000000000000000000000000000000602082015250565b6000612e24602983612453565b9150612e2f82612dc8565b604082019050919050565b60006020820190508181036000830152612e5381612e17565b9050919050565b7f4e487b7100000000000000000000000000000000000000000000000000000000600052603260045260246000fd5b7f4e487b7100000000000000000000000000000000000000000000000000000000600052601160045260246000fd5b6000612ec3826122c0565b91507fffffffffffffffffffffffffffffffffffffffffffffffffffffffffffffffff821415612ef657612ef5612e89565b5b600182019050919050565b7f43616c6c6572206973206e6f74207468652067616d6500000000000000000000600082015250565b6000612f37601683612453565b9150612f4282612f01565b602082019050919050565b60006020820190508181036000830152612f6681612f2a565b9050919050565b7f455243313135353a2063616c6c6572206973206e6f74206f776e6572206e6f7260008201527f20617070726f7665640000000000000000000000000000000000000000000000602082015250565b6000612fc9602983612453565b9150612fd482612f6d565b604082019050919050565b60006020820190508181036000830152612ff881612fbc565b9050919050565b7f4f776e61626c653a206e6577206f776e657220697320746865207a65726f206160008201527f6464726573730000000000000000000000000000000000000000000000000000602082015250565b600061305b602683612453565b915061306682612fff565b604082019050919050565b6000602082019050818103600083015261308a8161304e565b9050919050565b7f455243313135353a206d696e7420746f20746865207a65726f2061646472657360008201527f7300000000000000000000000000000000000000000000000000000000000000602082015250565b60006130ed602183612453565b91506130f882613091565b604082019050919050565b6000602082019050818103600083015261311c816130e0565b9050919050565b600061312e826122c0565b9150613139836122c0565b9250827fffffffffffffffffffffffffffffffffffffffffffffffffffffffffffffffff0382111561316e5761316d612e89565b5b828201905092915050565b600060408201905061318e6000830185612336565b61319b6020830184612336565b9392505050565b7f455243313135353a2069647320616e6420616d6f756e7473206c656e6774682060008201527f6d69736d61746368000000000000000000000000000000000000000000000000602082015250565b60006131fe602883612453565b9150613209826131a2565b604082019050919050565b6000602082019050818103600083015261322d816131f1565b9050919050565b7f455243313135353a207472616e7366657220746f20746865207a65726f20616460008201527f6472657373000000000000000000000000000000000000000000000000000000602082015250565b6000613290602583612453565b915061329b82613234565b604082019050919050565b600060208201905081810360008301526132bf81613283565b9050919050565b7f455243313135353a20696e73756666696369656e742062616c616e636520666f60008201527f72207472616e7366657200000000000000000000000000000000000000000000602082015250565b6000613322602a83612453565b915061332d826132c6565b604082019050919050565b6000602082019050818103600083015261335181613315565b9050919050565b6000604082019050818103600083015261337281856129bd565b9050818103602083015261338681846129bd565b90509392505050565b7f455243313135353a2073657474696e6720617070726f76616c2073746174757360008201527f20666f722073656c660000000000000000000000000000000000000000000000602082015250565b60006133eb602983612453565b91506133f68261338f565b604082019050919050565b6000602082019050818103600083015261341a816133de565b9050919050565b7f455243313135353a206275726e2066726f6d20746865207a65726f206164647260008201527f6573730000000000000000000000000000000000000000000000000000000000602082015250565b600061347d602383612453565b915061348882613421565b604082019050919050565b600060208201905081810360008301526134ac81613470565b9050919050565b7f455243313135353a206275726e20616d6f756e7420657863656564732062616c60008201527f616e636500000000000000000000000000000000000000000000000000000000602082015250565b600061350f602483612453565b915061351a826134b3565b604082019050919050565b6000602082019050818103600083015261353e81613502565b9050919050565b600081519050919050565b600082825260208201905092915050565b600061356c82613545565b6135768185613550565b9350613586818560208601612464565b61358f81612497565b840191505092915050565b600060a0820190506135af6000830188612a6a565b6135bc6020830187612a6a565b6135c96040830186612336565b6135d66060830185612336565b81810360808301526135e88184613561565b90509695505050505050565b6000815190506136038161238c565b92915050565b60006020828403121561361f5761361e612258565b5b600061362d848285016135f4565b91505092915050565b60008160e01c9050919050565b600060033d11156136625760046000803e61365f600051613636565b90505b90565b600060443d1015613675576136f8565b61367d61224e565b60043d036004823e80513d602482011167ffffffffffffffff821117156136a55750506136f8565b808201805167ffffffffffffffff8111156136c357505050506136f8565b80602083010160043d0385018111156136e05750505050506136f8565b6136ef8260200185018661258a565b82955050505050505b90565b7f455243313135353a207472616e7366657220746f206e6f6e204552433131353560008201527f526563656976657220696d706c656d656e746572000000000000000000000000602082015250565b6000613757603483612453565b9150613762826136fb565b604082019050919050565b600060208201905081810360008301526137868161374a565b9050919050565b7f455243313135353a204552433131353552656365697665722072656a6563746560008201527f6420746f6b656e73000000000000000000000000000000000000000000000000602082015250565b60006137e9602883612453565b91506137f48261378d565b604082019050919050565b60006020820190508181036000830152613818816137dc565b9050919050565b600060a0820190506138346000830188612a6a565b6138416020830187612a6a565b818103604083015261385381866129bd565b9050818103606083015261386781856129bd565b9050818103608083015261387b8184613561565b9050969550505050505056fea2646970667358221220b398a948f98e154fb655ea819aa561f82aa24f16de48cce3e0771666d4bf004064736f6c634300080a0033687474703a2f2f6c6f63616c686f73743a383038302f6170692f6974656d2f6a736f6e2f7b69647d2e6a736f6e",
  "immutableReferences": {},
  "source": "// SPDX-License-Identifier: MIT\r\npragma solidity ^0.8.7;\r\n\r\nimport \"./IotaHeroFactory.sol\";\r\nimport \"@openzeppelin/contracts/token/ERC1155/ERC1155.sol\";\r\n\r\ncontract IotaHeroGameTokens is ERC1155, Ownable {\r\n    address public game;\r\n\r\n    uint256 public constant GOLD = 0;\r\n    uint256 public constant BONES = 1;\r\n    uint256 public constant HEALING_POTION = 2;\r\n    uint256 public constant RING_OF_INVISIBILITY = 3;\r\n    uint256 public constant BOOTS_OF_SWIFTNESS = 4;\r\n\r\n    constructor() ERC1155(\"http://localhost:8080/api/item/json/{id}.json\") {\r\n        // _mint(address(this), GOLD, 10**18, \"\");\r\n        // _mint(address(this), BONES, 10**27, \"\");\r\n        // _mint(address(this), RING_OF_INVISIBILITY, 1, \"\");\r\n        // _mint(address(this), HEALING_POTION, 10**9, \"\");\r\n        // _mint(address(this), BOOTS_OF_SWIFTNESS, 10**5, \"\");\r\n    }\r\n\r\n    function setGame(address _game) public onlyOwner {\r\n        game = _game;\r\n    }\r\n\r\n    modifier onlyGame() {\r\n        require(_msgSender() == game, \"Caller is not the game\");\r\n        _;\r\n    }\r\n\r\n    // Game is always approved to transfer tokens\r\n    function isApprovedForAll(address account, address operator)\r\n        public\r\n        view\r\n        virtual\r\n        override\r\n        returns (bool)\r\n    {\r\n        return\r\n            _msgSender() == game || super.isApprovedForAll(account, operator);\r\n    }\r\n\r\n    function mint(\r\n        address account,\r\n        uint256 id,\r\n        uint256 amount\r\n    ) public onlyOwner {\r\n        _mint(account, id, amount, \"\");\r\n    }\r\n\r\n    function burn(\r\n        address account,\r\n        uint256 id,\r\n        uint256 amount\r\n    ) public {\r\n        require(msg.sender == account);\r\n        _burn(account, id, amount);\r\n    }\r\n\r\n    function awardAdventurer(address _recipient) public payable onlyGame {\r\n        uint256[] memory arrLoot = new uint256[](2);\r\n        arrLoot[0] = GOLD;\r\n        arrLoot[1] = BONES;\r\n        uint256[] memory arrAmount = new uint256[](2);\r\n        arrAmount[0] = 100;\r\n        arrAmount[1] = 1;\r\n        _mintBatch(_recipient, arrLoot, arrAmount, \"\");\r\n    }\r\n}\r\n",
  "sourcePath": "C:\\Users\\creld\\source\\repos\\IotaHeroes\\contracts\\IotaHeroGameTokens.sol",
  "compiler": {
    "name": "solc",
    "version": "0.8.10+commit.fc410830.Emscripten.clang"
  },
  "schemaVersion": "3.4.4",
  "updatedAt": "2022-01-10T16:12:05.352Z",
  "networkType": "ethereum",
  "devdoc": {
    "kind": "dev",
    "methods": {
      "balanceOf(address,uint256)": {
        "details": "See {IERC1155-balanceOf}. Requirements: - `account` cannot be the zero address."
      },
      "balanceOfBatch(address[],uint256[])": {
        "details": "See {IERC1155-balanceOfBatch}. Requirements: - `accounts` and `ids` must have the same length."
      },
      "isApprovedForAll(address,address)": {
        "details": "See {IERC1155-isApprovedForAll}."
      },
      "owner()": {
        "details": "Returns the address of the current owner."
      },
      "renounceOwnership()": {
        "details": "Leaves the contract without owner. It will not be possible to call `onlyOwner` functions anymore. Can only be called by the current owner. NOTE: Renouncing ownership will leave the contract without an owner, thereby removing any functionality that is only available to the owner."
      },
      "safeBatchTransferFrom(address,address,uint256[],uint256[],bytes)": {
        "details": "See {IERC1155-safeBatchTransferFrom}."
      },
      "safeTransferFrom(address,address,uint256,uint256,bytes)": {
        "details": "See {IERC1155-safeTransferFrom}."
      },
      "setApprovalForAll(address,bool)": {
        "details": "See {IERC1155-setApprovalForAll}."
      },
      "supportsInterface(bytes4)": {
        "details": "See {IERC165-supportsInterface}."
      },
      "transferOwnership(address)": {
        "details": "Transfers ownership of the contract to a new account (`newOwner`). Can only be called by the current owner."
      },
      "uri(uint256)": {
        "details": "See {IERC1155MetadataURI-uri}. This implementation returns the same URI for *all* token types. It relies on the token type ID substitution mechanism https://eips.ethereum.org/EIPS/eip-1155#metadata[defined in the EIP]. Clients calling this function must replace the `\\{id\\}` substring with the actual token type ID."
      }
    },
    "version": 1
  },
  "userdoc": {
    "kind": "user",
    "methods": {},
    "version": 1
  }
}