{
  "contractName": "IotaHeroTokenTrade",
  "abi": [
    {
      "anonymous": false,
      "inputs": [
        {
          "indexed": true,
          "internalType": "address",
          "name": "previousOwner",
          "type": "address"
        },
        {
          "indexed": true,
          "internalType": "address",
          "name": "newOwner",
          "type": "address"
        }
      ],
      "name": "OwnershipTransferred",
      "type": "event"
    },
    {
      "anonymous": false,
      "inputs": [
        {
          "indexed": true,
          "internalType": "uint256",
          "name": "tradeId",
          "type": "uint256"
        },
        {
          "indexed": true,
          "internalType": "address",
          "name": "creator",
          "type": "address"
        },
        {
          "indexed": false,
          "internalType": "uint256[]",
          "name": "tokenIdForSale",
          "type": "uint256[]"
        },
        {
          "indexed": false,
          "internalType": "uint256[]",
          "name": "amountsToSell",
          "type": "uint256[]"
        },
        {
          "indexed": false,
          "internalType": "uint256[]",
          "name": "tokenIdWanted",
          "type": "uint256[]"
        },
        {
          "indexed": false,
          "internalType": "uint256[]",
          "name": "amountsWanted",
          "type": "uint256[]"
        }
      ],
      "name": "TradeCreated",
      "type": "event"
    },
    {
      "anonymous": false,
      "inputs": [
        {
          "indexed": true,
          "internalType": "uint256",
          "name": "tradeId",
          "type": "uint256"
        },
        {
          "indexed": true,
          "internalType": "address",
          "name": "updater",
          "type": "address"
        },
        {
          "indexed": false,
          "internalType": "enum IotaHeroTokenTrade.TradeStatus",
          "name": "updatedStatus",
          "type": "uint8"
        }
      ],
      "name": "TradeUpdated",
      "type": "event"
    },
    {
      "inputs": [],
      "name": "owner",
      "outputs": [
        {
          "internalType": "address",
          "name": "",
          "type": "address"
        }
      ],
      "stateMutability": "view",
      "type": "function",
      "constant": true
    },
    {
      "inputs": [],
      "name": "renounceOwnership",
      "outputs": [],
      "stateMutability": "nonpayable",
      "type": "function"
    },
    {
      "inputs": [],
      "name": "tokens",
      "outputs": [
        {
          "internalType": "contract IotaHeroGameTokens",
          "name": "",
          "type": "address"
        }
      ],
      "stateMutability": "view",
      "type": "function",
      "constant": true
    },
    {
      "inputs": [
        {
          "internalType": "uint256",
          "name": "",
          "type": "uint256"
        }
      ],
      "name": "tradeToOwner",
      "outputs": [
        {
          "internalType": "address",
          "name": "",
          "type": "address"
        }
      ],
      "stateMutability": "view",
      "type": "function",
      "constant": true
    },
    {
      "inputs": [
        {
          "internalType": "uint256",
          "name": "",
          "type": "uint256"
        }
      ],
      "name": "trades",
      "outputs": [
        {
          "internalType": "uint256",
          "name": "tradeId",
          "type": "uint256"
        },
        {
          "internalType": "address",
          "name": "tradeInitiator",
          "type": "address"
        },
        {
          "internalType": "enum IotaHeroTokenTrade.TradeStatus",
          "name": "tradeStatus",
          "type": "uint8"
        }
      ],
      "stateMutability": "view",
      "type": "function",
      "constant": true
    },
    {
      "inputs": [
        {
          "internalType": "address",
          "name": "newOwner",
          "type": "address"
        }
      ],
      "name": "transferOwnership",
      "outputs": [],
      "stateMutability": "nonpayable",
      "type": "function"
    },
    {
      "inputs": [
        {
          "internalType": "address",
          "name": "_tokenAddress",
          "type": "address"
        }
      ],
      "name": "setTokenAddress",
      "outputs": [],
      "stateMutability": "nonpayable",
      "type": "function"
    },
    {
      "inputs": [],
      "name": "getTokenAddress",
      "outputs": [
        {
          "internalType": "address",
          "name": "",
          "type": "address"
        }
      ],
      "stateMutability": "view",
      "type": "function",
      "constant": true
    },
    {
      "inputs": [
        {
          "internalType": "uint256[]",
          "name": "tokenIdsForSale",
          "type": "uint256[]"
        },
        {
          "internalType": "uint256[]",
          "name": "amountToSell",
          "type": "uint256[]"
        },
        {
          "internalType": "uint256[]",
          "name": "tokenIdsWanted",
          "type": "uint256[]"
        },
        {
          "internalType": "uint256[]",
          "name": "amountWanted",
          "type": "uint256[]"
        }
      ],
      "name": "setTradeOffer",
      "outputs": [],
      "stateMutability": "nonpayable",
      "type": "function"
    },
    {
      "inputs": [
        {
          "internalType": "uint256",
          "name": "_tradeId",
          "type": "uint256"
        }
      ],
      "name": "cancelTradeOffer",
      "outputs": [],
      "stateMutability": "nonpayable",
      "type": "function"
    },
    {
      "inputs": [
        {
          "internalType": "uint256",
          "name": "_tradeId",
          "type": "uint256"
        }
      ],
      "name": "fulfillTradeOffer",
      "outputs": [],
      "stateMutability": "nonpayable",
      "type": "function"
    }
  ],
  "bytecode": "0x6080604052600060035534801561001557600080fd5b5061003261002761003760201b60201c565b61003f60201b60201c565b610103565b600033905090565b60008060009054906101000a900473ffffffffffffffffffffffffffffffffffffffff169050816000806101000a81548173ffffffffffffffffffffffffffffffffffffffff021916908373ffffffffffffffffffffffffffffffffffffffff1602179055508173ffffffffffffffffffffffffffffffffffffffff168173ffffffffffffffffffffffffffffffffffffffff167f8be0079c531659141344cd1fd0a4f28419497f9722a3daafe3b4186f6b6457e060405160405180910390a35050565b6122b980620001136000396000f3fe608060405234801561001057600080fd5b50600436106100a95760003560e01c80638da5cb5b116100715780638da5cb5b146101405780639d63848a1461015e578063aa2b2bd91461017c578063dbe451b114610198578063ecd87095146101b4578063f2fde38b146101e4576100a9565b806310fe9ae8146100ae5780631e6c598e146100cc57806326a4e8d2146100fe578063715018a61461011a5780638a3fb66b14610124575b600080fd5b6100b6610200565b6040516100c391906114a0565b60405180910390f35b6100e660048036038101906100e19190611505565b61022a565b6040516100f5939291906115b8565b60405180910390f35b6101186004803603810190610113919061161b565b610291565b005b610122610351565b005b61013e600480360381019061013991906116ad565b6103d9565b005b61014861093a565b60405161015591906114a0565b60405180910390f35b610166610963565b60405161017391906117f5565b60405180910390f35b61019660048036038101906101919190611505565b610989565b005b6101b260048036038101906101ad9190611505565b610a9d565b005b6101ce60048036038101906101c99190611505565b611013565b6040516101db91906114a0565b60405180910390f35b6101fe60048036038101906101f9919061161b565b611046565b005b6000600160009054906101000a900473ffffffffffffffffffffffffffffffffffffffff16905090565b6002818154811061023a57600080fd5b90600052602060002090600702016000915090508060000154908060010160009054906101000a900473ffffffffffffffffffffffffffffffffffffffff16908060060160009054906101000a900460ff16905083565b61029961113e565b73ffffffffffffffffffffffffffffffffffffffff166102b761093a565b73ffffffffffffffffffffffffffffffffffffffff161461030d576040517f08c379a00000000000000000000000000000000000000000000000000000000081526004016103049061186d565b60405180910390fd5b80600160006101000a81548173ffffffffffffffffffffffffffffffffffffffff021916908373ffffffffffffffffffffffffffffffffffffffff16021790555050565b61035961113e565b73ffffffffffffffffffffffffffffffffffffffff1661037761093a565b73ffffffffffffffffffffffffffffffffffffffff16146103cd576040517f08c379a00000000000000000000000000000000000000000000000000000000081526004016103c49061186d565b60405180910390fd5b6103d76000611146565b565b85859050888890501480156103f357508181905084849050145b610432576040517f08c379a0000000000000000000000000000000000000000000000000000000008152600401610429906118d9565b60405180910390fd5b600160009054906101000a900473ffffffffffffffffffffffffffffffffffffffff1673ffffffffffffffffffffffffffffffffffffffff1663e985e9c533306040518363ffffffff1660e01b815260040161048f9291906118f9565b602060405180830381865afa1580156104ac573d6000803e3d6000fd5b505050506040513d601f19601f820116820180604052508101906104d0919061195a565b61050f576040517f08c379a0000000000000000000000000000000000000000000000000000000008152600401610506906119d3565b60405180910390fd5b61059c33898980806020026020016040519081016040528093929190818152602001838360200280828437600081840152601f19601f82011690508083019250505050505050888880806020026020016040519081016040528093929190818152602001838360200280828437600081840152601f19601f8201169050808301925050505050505061120a565b6105db576040517f08c379a00000000000000000000000000000000000000000000000000000000081526004016105d290611a65565b60405180910390fd5b60006040518060e0016040528060035481526020013373ffffffffffffffffffffffffffffffffffffffff1681526020018a8a80806020026020016040519081016040528093929190818152602001838360200280828437600081840152601f19601f820116905080830192505050505050508152602001888880806020026020016040519081016040528093929190818152602001838360200280828437600081840152601f19601f820116905080830192505050505050508152602001868680806020026020016040519081016040528093929190818152602001838360200280828437600081840152601f19601f820116905080830192505050505050508152602001848480806020026020016040519081016040528093929190818152602001838360200280828437600081840152601f19601f8201169050808301925050505050505081526020016000600281111561073c5761073b611541565b5b815250905060028190806001815401808255809150506001900390600052602060002090600702016000909190919091506000820151816000015560208201518160010160006101000a81548173ffffffffffffffffffffffffffffffffffffffff021916908373ffffffffffffffffffffffffffffffffffffffff16021790555060408201518160020190805190602001906107da9291906113f5565b5060608201518160030190805190602001906107f79291906113f5565b5060808201518160040190805190602001906108149291906113f5565b5060a08201518160050190805190602001906108319291906113f5565b5060c08201518160060160006101000a81548160ff0219169083600281111561085d5761085c611541565b5b021790555050503360046000600354815260200190815260200160002060006101000a81548173ffffffffffffffffffffffffffffffffffffffff021916908373ffffffffffffffffffffffffffffffffffffffff1602179055503373ffffffffffffffffffffffffffffffffffffffff166003547fee9c34460e8ee443f03e0289107bb49bce5e3175dea84c2f73d4ed4cf08aaca78b8b8b8b8b8b8b8b60405161090f989796959493929190611b06565b60405180910390a36003600081548092919061092a90611b9e565b9190505550505050505050505050565b60008060009054906101000a900473ffffffffffffffffffffffffffffffffffffffff16905090565b600160009054906101000a900473ffffffffffffffffffffffffffffffffffffffff1681565b803373ffffffffffffffffffffffffffffffffffffffff166004600083815260200190815260200160002060009054906101000a900473ffffffffffffffffffffffffffffffffffffffff1673ffffffffffffffffffffffffffffffffffffffff16146109f557600080fd5b600060028381548110610a0b57610a0a611be7565b5b9060005260206000209060070201905060028160060160006101000a81548160ff02191690836002811115610a4357610a42611541565b5b02179055503373ffffffffffffffffffffffffffffffffffffffff16837f580958e7d2b78e6e91069e3a54d87713100ef5a99d53edaf3b8062a175ca730e6002604051610a909190611c16565b60405180910390a3505050565b600060028281548110610ab357610ab2611be7565b5b90600052602060002090600702019050610b723382600401805480602002602001604051908101604052809291908181526020018280548015610b1557602002820191906000526020600020905b815481526020019060010190808311610b01575b505050505083600501805480602002602001604051908101604052809291908181526020018280548015610b6857602002820191906000526020600020905b815481526020019060010190808311610b54575b505050505061120a565b610bb1576040517f08c379a0000000000000000000000000000000000000000000000000000000008152600401610ba890611a65565b60405180910390fd5b610c848160010160009054906101000a900473ffffffffffffffffffffffffffffffffffffffff1682600201805480602002602001604051908101604052809291908181526020018280548015610c2757602002820191906000526020600020905b815481526020019060010190808311610c13575b505050505083600301805480602002602001604051908101604052809291908181526020018280548015610c7a57602002820191906000526020600020905b815481526020019060010190808311610c66575b505050505061120a565b610cc3576040517f08c379a0000000000000000000000000000000000000000000000000000000008152600401610cba90611ca3565b60405180910390fd5b60006002811115610cd757610cd6611541565b5b8160060160009054906101000a900460ff166002811115610cfb57610cfa611541565b5b14610d3b576040517f08c379a0000000000000000000000000000000000000000000000000000000008152600401610d3290611d0f565b60405180910390fd5b600160009054906101000a900473ffffffffffffffffffffffffffffffffffffffff1673ffffffffffffffffffffffffffffffffffffffff1663e985e9c533306040518363ffffffff1660e01b8152600401610d989291906118f9565b602060405180830381865afa158015610db5573d6000803e3d6000fd5b505050506040513d601f19601f82011682018060405250810190610dd9919061195a565b610e18576040517f08c379a0000000000000000000000000000000000000000000000000000000008152600401610e0f906119d3565b60405180910390fd5b600160009054906101000a900473ffffffffffffffffffffffffffffffffffffffff1673ffffffffffffffffffffffffffffffffffffffff16632eb2c2d6338360010160009054906101000a900473ffffffffffffffffffffffffffffffffffffffff1684600401856005016040518563ffffffff1660e01b8152600401610ea39493929190611e63565b600060405180830381600087803b158015610ebd57600080fd5b505af1158015610ed1573d6000803e3d6000fd5b50505050600160009054906101000a900473ffffffffffffffffffffffffffffffffffffffff1673ffffffffffffffffffffffffffffffffffffffff16632eb2c2d68260010160009054906101000a900473ffffffffffffffffffffffffffffffffffffffff163384600201856003016040518563ffffffff1660e01b8152600401610f609493929190611e63565b600060405180830381600087803b158015610f7a57600080fd5b505af1158015610f8e573d6000803e3d6000fd5b5050505060018160060160006101000a81548160ff02191690836002811115610fba57610fb9611541565b5b02179055503373ffffffffffffffffffffffffffffffffffffffff16827f580958e7d2b78e6e91069e3a54d87713100ef5a99d53edaf3b8062a175ca730e60016040516110079190611c16565b60405180910390a35050565b60046020528060005260406000206000915054906101000a900473ffffffffffffffffffffffffffffffffffffffff1681565b61104e61113e565b73ffffffffffffffffffffffffffffffffffffffff1661106c61093a565b73ffffffffffffffffffffffffffffffffffffffff16146110c2576040517f08c379a00000000000000000000000000000000000000000000000000000000081526004016110b99061186d565b60405180910390fd5b600073ffffffffffffffffffffffffffffffffffffffff168173ffffffffffffffffffffffffffffffffffffffff161415611132576040517f08c379a000000000000000000000000000000000000000000000000000000000815260040161112990611f3b565b60405180910390fd5b61113b81611146565b50565b600033905090565b60008060009054906101000a900473ffffffffffffffffffffffffffffffffffffffff169050816000806101000a81548173ffffffffffffffffffffffffffffffffffffffff021916908373ffffffffffffffffffffffffffffffffffffffff1602179055508173ffffffffffffffffffffffffffffffffffffffff168173ffffffffffffffffffffffffffffffffffffffff167f8be0079c531659141344cd1fd0a4f28419497f9722a3daafe3b4186f6b6457e060405160405180910390a35050565b600080600160009054906101000a900473ffffffffffffffffffffffffffffffffffffffff1673ffffffffffffffffffffffffffffffffffffffff16634e1273f461125686518861132f565b866040518363ffffffff1660e01b815260040161127492919061209f565b600060405180830381865afa158015611291573d6000803e3d6000fd5b505050506040513d6000823e3d601f19601f820116820180604052508101906112ba919061223a565b905060005b8451811015611321578381815181106112db576112da611be7565b5b60200260200101518282815181106112f6576112f5611be7565b5b60200260200101511061130e57600092505050611328565b808061131990611b9e565b9150506112bf565b5060019150505b9392505050565b606060008367ffffffffffffffff81111561134d5761134c6120e7565b5b60405190808252806020026020018201604052801561137b5781602001602082028036833780820191505090505b50905060005b848110156113ea578382828151811061139d5761139c611be7565b5b602002602001019073ffffffffffffffffffffffffffffffffffffffff16908173ffffffffffffffffffffffffffffffffffffffff168152505080806113e290611b9e565b915050611381565b508091505092915050565b828054828255906000526020600020908101928215611431579160200282015b82811115611430578251825591602001919060010190611415565b5b50905061143e9190611442565b5090565b5b8082111561145b576000816000905550600101611443565b5090565b600073ffffffffffffffffffffffffffffffffffffffff82169050919050565b600061148a8261145f565b9050919050565b61149a8161147f565b82525050565b60006020820190506114b56000830184611491565b92915050565b6000604051905090565b600080fd5b600080fd5b6000819050919050565b6114e2816114cf565b81146114ed57600080fd5b50565b6000813590506114ff816114d9565b92915050565b60006020828403121561151b5761151a6114c5565b5b6000611529848285016114f0565b91505092915050565b61153b816114cf565b82525050565b7f4e487b7100000000000000000000000000000000000000000000000000000000600052602160045260246000fd5b6003811061158157611580611541565b5b50565b600081905061159282611570565b919050565b60006115a282611584565b9050919050565b6115b281611597565b82525050565b60006060820190506115cd6000830186611532565b6115da6020830185611491565b6115e760408301846115a9565b949350505050565b6115f88161147f565b811461160357600080fd5b50565b600081359050611615816115ef565b92915050565b600060208284031215611631576116306114c5565b5b600061163f84828501611606565b91505092915050565b600080fd5b600080fd5b600080fd5b60008083601f84011261166d5761166c611648565b5b8235905067ffffffffffffffff81111561168a5761168961164d565b5b6020830191508360208202830111156116a6576116a5611652565b5b9250929050565b6000806000806000806000806080898b0312156116cd576116cc6114c5565b5b600089013567ffffffffffffffff8111156116eb576116ea6114ca565b5b6116f78b828c01611657565b9850985050602089013567ffffffffffffffff81111561171a576117196114ca565b5b6117268b828c01611657565b9650965050604089013567ffffffffffffffff811115611749576117486114ca565b5b6117558b828c01611657565b9450945050606089013567ffffffffffffffff811115611778576117776114ca565b5b6117848b828c01611657565b92509250509295985092959890939650565b6000819050919050565b60006117bb6117b66117b18461145f565b611796565b61145f565b9050919050565b60006117cd826117a0565b9050919050565b60006117df826117c2565b9050919050565b6117ef816117d4565b82525050565b600060208201905061180a60008301846117e6565b92915050565b600082825260208201905092915050565b7f4f776e61626c653a2063616c6c6572206973206e6f7420746865206f776e6572600082015250565b6000611857602083611810565b915061186282611821565b602082019050919050565b600060208201905081810360008301526118868161184a565b9050919050565b7f4172726179206c656e6774687320646f6e2774206d6174636800000000000000600082015250565b60006118c3601983611810565b91506118ce8261188d565b602082019050919050565b600060208201905081810360008301526118f2816118b6565b9050919050565b600060408201905061190e6000830185611491565b61191b6020830184611491565b9392505050565b60008115159050919050565b61193781611922565b811461194257600080fd5b50565b6000815190506119548161192e565b92915050565b6000602082840312156119705761196f6114c5565b5b600061197e84828501611945565b91505092915050565b7f596f75206d75737420617070726f766520666972737400000000000000000000600082015250565b60006119bd601683611810565b91506119c882611987565b602082019050919050565b600060208201905081810360008301526119ec816119b0565b9050919050565b7f596f7520646f6e277420686176652073756666696369656e742062616c616e6360008201527f6500000000000000000000000000000000000000000000000000000000000000602082015250565b6000611a4f602183611810565b9150611a5a826119f3565b604082019050919050565b60006020820190508181036000830152611a7e81611a42565b9050919050565b600082825260208201905092915050565b600080fd5b82818337600083830152505050565b6000611ab68385611a85565b93507f07ffffffffffffffffffffffffffffffffffffffffffffffffffffffffffffff831115611ae957611ae8611a96565b5b602083029250611afa838584611a9b565b82840190509392505050565b60006080820190508181036000830152611b21818a8c611aaa565b90508181036020830152611b3681888a611aaa565b90508181036040830152611b4b818688611aaa565b90508181036060830152611b60818486611aaa565b90509998505050505050505050565b7f4e487b7100000000000000000000000000000000000000000000000000000000600052601160045260246000fd5b6000611ba9826114cf565b91507fffffffffffffffffffffffffffffffffffffffffffffffffffffffffffffffff821415611bdc57611bdb611b6f565b5b600182019050919050565b7f4e487b7100000000000000000000000000000000000000000000000000000000600052603260045260246000fd5b6000602082019050611c2b60008301846115a9565b92915050565b7f547261646520696e69746961746f7220646f65736e277420686176652073756660008201527f66696369656e742062616c616e63650000000000000000000000000000000000602082015250565b6000611c8d602f83611810565b9150611c9882611c31565b604082019050919050565b60006020820190508181036000830152611cbc81611c80565b9050919050565b7f54726164652069736e27742061637469766520616e796d6f7265000000000000600082015250565b6000611cf9601a83611810565b9150611d0482611cc3565b602082019050919050565b60006020820190508181036000830152611d2881611cec565b9050919050565b600081549050919050565b60008190508160005260206000209050919050565b611d58816114cf565b82525050565b6000611d6a8383611d4f565b60208301905092915050565b60008160001c9050919050565b6000819050919050565b6000611da0611d9b83611d76565b611d83565b9050919050565b6000611db38254611d8d565b9050919050565b6000600182019050919050565b6000611dd282611d2f565b611ddc8185611a85565b9350611de783611d3a565b8060005b83811015611e1f57611dfc82611da7565b611e068882611d5e565b9750611e1183611dba565b925050600181019050611deb565b5085935050505092915050565b600082825260208201905092915050565b50565b6000611e4d600083611e2c565b9150611e5882611e3d565b600082019050919050565b600060a082019050611e786000830187611491565b611e856020830186611491565b8181036040830152611e978185611dc7565b90508181036060830152611eab8184611dc7565b90508181036080830152611ebe81611e40565b905095945050505050565b7f4f776e61626c653a206e6577206f776e657220697320746865207a65726f206160008201527f6464726573730000000000000000000000000000000000000000000000000000602082015250565b6000611f25602683611810565b9150611f3082611ec9565b604082019050919050565b60006020820190508181036000830152611f5481611f18565b9050919050565b600081519050919050565b600082825260208201905092915050565b6000819050602082019050919050565b611f908161147f565b82525050565b6000611fa28383611f87565b60208301905092915050565b6000602082019050919050565b6000611fc682611f5b565b611fd08185611f66565b9350611fdb83611f77565b8060005b8381101561200c578151611ff38882611f96565b9750611ffe83611fae565b925050600181019050611fdf565b5085935050505092915050565b600081519050919050565b6000819050602082019050919050565b6000602082019050919050565b600061204c82612019565b6120568185611a85565b935061206183612024565b8060005b838110156120925781516120798882611d5e565b975061208483612034565b925050600181019050612065565b5085935050505092915050565b600060408201905081810360008301526120b98185611fbb565b905081810360208301526120cd8184612041565b90509392505050565b6000601f19601f8301169050919050565b7f4e487b7100000000000000000000000000000000000000000000000000000000600052604160045260246000fd5b61211f826120d6565b810181811067ffffffffffffffff8211171561213e5761213d6120e7565b5b80604052505050565b60006121516114bb565b905061215d8282612116565b919050565b600067ffffffffffffffff82111561217d5761217c6120e7565b5b602082029050602081019050919050565b60008151905061219d816114d9565b92915050565b60006121b66121b184612162565b612147565b905080838252602082019050602084028301858111156121d9576121d8611652565b5b835b8181101561220257806121ee888261218e565b8452602084019350506020810190506121db565b5050509392505050565b600082601f83011261222157612220611648565b5b81516122318482602086016121a3565b91505092915050565b6000602082840312156122505761224f6114c5565b5b600082015167ffffffffffffffff81111561226e5761226d6114ca565b5b61227a8482850161220c565b9150509291505056fea2646970667358221220d92c23ca6d6a7e091d0e11e1d167a16b6543be27bdc0083d310c74bb0b73ae1564736f6c634300080a0033",
  "immutableReferences": {},
  "source": "// SPDX-License-Identifier: MIT\r\npragma solidity ^0.8.7;\r\n\r\nimport \"./IotaHeroFactory.sol\";\r\nimport \"./IotaHeroGameTokens.sol\";\r\n\r\ncontract IotaHeroTokenTrade is Ownable {\r\n    IotaHeroGameTokens public tokens;\r\n\r\n    Trade[] public trades;\r\n    uint256 tradeCounter = 0;\r\n    enum TradeStatus {\r\n        OPEN,\r\n        FULFILLED,\r\n        CANCELLED\r\n    }\r\n    struct Trade {\r\n        uint256 tradeId;\r\n        address tradeInitiator;\r\n        uint256[] tokenIdsForSale;\r\n        uint256[] amountsToSell;\r\n        uint256[] tokenIdsWanted;\r\n        uint256[] amountsWanted;\r\n        TradeStatus tradeStatus;\r\n    }\r\n    mapping(uint256 => address) public tradeToOwner;\r\n\r\n    event TradeCreated(\r\n        uint256 indexed tradeId,\r\n        address indexed creator,\r\n        uint256[] tokenIdForSale,\r\n        uint256[] amountsToSell,\r\n        uint256[] tokenIdWanted,\r\n        uint256[] amountsWanted\r\n    );\r\n    event TradeUpdated(\r\n        uint256 indexed tradeId,\r\n        address indexed updater,\r\n        TradeStatus updatedStatus\r\n    );\r\n\r\n    modifier onlyOwnerOf(uint256 _tradeId) {\r\n        require(tradeToOwner[_tradeId] == msg.sender);\r\n        _;\r\n    }\r\n\r\n    function setTokenAddress(address _tokenAddress) public onlyOwner {\r\n        tokens = IotaHeroGameTokens(_tokenAddress);\r\n    }\r\n\r\n    function getTokenAddress() public view returns (address) {\r\n        return address(tokens);\r\n    }\r\n\r\n    function _checkBalances(\r\n        address addr,\r\n        uint256[] memory tokenArr,\r\n        uint256[] memory balanceArr\r\n    ) internal view returns (bool) {\r\n        uint256[] memory balances = tokens.balanceOfBatch(\r\n            _initArray(tokenArr.length, addr),\r\n            tokenArr\r\n        );\r\n        for (uint256 i = 0; i < tokenArr.length; i++) {\r\n            if (balances[i] >= balanceArr[i]) {\r\n                return false;\r\n            }\r\n        }\r\n        return true;\r\n    }\r\n\r\n    function _initArray(uint256 length, address value)\r\n        internal\r\n        pure\r\n        returns (address[] memory)\r\n    {\r\n        address[] memory arr = new address[](length);\r\n        for (uint256 i = 0; i < length; i++) {\r\n            arr[i] = value;\r\n        }\r\n        return arr;\r\n    }\r\n\r\n    function setTradeOffer(\r\n        uint256[] calldata tokenIdsForSale,\r\n        uint256[] calldata amountToSell,\r\n        uint256[] calldata tokenIdsWanted,\r\n        uint256[] calldata amountWanted\r\n    ) public {\r\n        require(\r\n            tokenIdsForSale.length == amountToSell.length &&\r\n                tokenIdsWanted.length == amountWanted.length,\r\n            \"Array lengths don't match\"\r\n        );\r\n        require(\r\n            tokens.isApprovedForAll(msg.sender, address(this)),\r\n            \"You must approve first\"\r\n        );\r\n        require(\r\n            _checkBalances(msg.sender, tokenIdsForSale, amountToSell),\r\n            \"You don't have sufficient balance\"\r\n        );\r\n\r\n        Trade memory trade = Trade(\r\n            tradeCounter,\r\n            msg.sender,\r\n            tokenIdsForSale,\r\n            amountToSell,\r\n            tokenIdsWanted,\r\n            amountWanted,\r\n            TradeStatus.OPEN\r\n        );\r\n        trades.push(trade);\r\n        tradeToOwner[tradeCounter] = msg.sender;\r\n\r\n        emit TradeCreated(\r\n            tradeCounter,\r\n            msg.sender,\r\n            tokenIdsForSale,\r\n            amountToSell,\r\n            tokenIdsWanted,\r\n            amountWanted\r\n        );\r\n        tradeCounter++;\r\n    }\r\n\r\n    function cancelTradeOffer(uint256 _tradeId) public onlyOwnerOf(_tradeId) {\r\n        Trade storage trade = trades[_tradeId];\r\n        trade.tradeStatus = TradeStatus.CANCELLED;\r\n        emit TradeUpdated(_tradeId, msg.sender, TradeStatus.CANCELLED);\r\n    }\r\n\r\n    function fulfillTradeOffer(uint256 _tradeId) public {\r\n        Trade storage trade = trades[_tradeId];\r\n        require(\r\n            _checkBalances(\r\n                msg.sender,\r\n                trade.tokenIdsWanted,\r\n                trade.amountsWanted\r\n            ),\r\n            \"You don't have sufficient balance\"\r\n        );\r\n        require(\r\n            _checkBalances(\r\n                trade.tradeInitiator,\r\n                trade.tokenIdsForSale,\r\n                trade.amountsToSell\r\n            ),\r\n            \"Trade initiator doesn't have sufficient balance\"\r\n        ); // check that trader has the required tokens\r\n        require(\r\n            trade.tradeStatus == TradeStatus.OPEN,\r\n            \"Trade isn't active anymore\"\r\n        );\r\n        require(\r\n            tokens.isApprovedForAll(msg.sender, address(this)),\r\n            \"You must approve first\"\r\n        );\r\n        tokens.safeBatchTransferFrom(\r\n            msg.sender,\r\n            trade.tradeInitiator,\r\n            trade.tokenIdsWanted,\r\n            trade.amountsWanted,\r\n            \"\"\r\n        );\r\n        tokens.safeBatchTransferFrom(\r\n            trade.tradeInitiator,\r\n            msg.sender,\r\n            trade.tokenIdsForSale,\r\n            trade.amountsToSell,\r\n            \"\"\r\n        );\r\n        trade.tradeStatus = TradeStatus.FULFILLED;\r\n        emit TradeUpdated(_tradeId, msg.sender, TradeStatus.FULFILLED);\r\n    }\r\n}\r\n",
  "sourcePath": "C:\\Users\\creld\\source\\repos\\IotaHeroes\\contracts\\IotaHeroTokenTrade.sol",
  "compiler": {
    "name": "solc",
    "version": "0.8.10+commit.fc410830.Emscripten.clang"
  },
  "schemaVersion": "3.4.4",
  "updatedAt": "2022-01-10T16:12:07.299Z",
  "networkType": "ethereum",
  "devdoc": {
    "kind": "dev",
    "methods": {
      "owner()": {
        "details": "Returns the address of the current owner."
      },
      "renounceOwnership()": {
        "details": "Leaves the contract without owner. It will not be possible to call `onlyOwner` functions anymore. Can only be called by the current owner. NOTE: Renouncing ownership will leave the contract without an owner, thereby removing any functionality that is only available to the owner."
      },
      "transferOwnership(address)": {
        "details": "Transfers ownership of the contract to a new account (`newOwner`). Can only be called by the current owner."
      }
    },
    "version": 1
  },
  "userdoc": {
    "kind": "user",
    "methods": {},
    "version": 1
  }
}