{
  "contractName": "IotaHeroAdventure",
  "abi": [
    {
      "anonymous": false,
      "inputs": [
        {
          "indexed": true,
          "internalType": "address",
          "name": "player",
          "type": "address"
        },
        {
          "indexed": true,
          "internalType": "uint256",
          "name": "heroId",
          "type": "uint256"
        },
        {
          "indexed": false,
          "internalType": "uint256",
          "name": "adventureId",
          "type": "uint256"
        }
      ],
      "name": "AdventureCompleted",
      "type": "event"
    },
    {
      "anonymous": false,
      "inputs": [
        {
          "indexed": false,
          "internalType": "address",
          "name": "player",
          "type": "address"
        },
        {
          "indexed": false,
          "internalType": "uint256",
          "name": "heroId",
          "type": "uint256"
        },
        {
          "indexed": false,
          "internalType": "uint256",
          "name": "adventureId",
          "type": "uint256"
        }
      ],
      "name": "AdventureInitiated",
      "type": "event"
    },
    {
      "anonymous": false,
      "inputs": [
        {
          "indexed": true,
          "internalType": "address",
          "name": "previousOwner",
          "type": "address"
        },
        {
          "indexed": true,
          "internalType": "address",
          "name": "newOwner",
          "type": "address"
        }
      ],
      "name": "OwnershipTransferred",
      "type": "event"
    },
    {
      "inputs": [],
      "name": "heroToken",
      "outputs": [
        {
          "internalType": "contract IotaHeroFactory",
          "name": "",
          "type": "address"
        }
      ],
      "stateMutability": "view",
      "type": "function",
      "constant": true
    },
    {
      "inputs": [],
      "name": "owner",
      "outputs": [
        {
          "internalType": "address",
          "name": "",
          "type": "address"
        }
      ],
      "stateMutability": "view",
      "type": "function",
      "constant": true
    },
    {
      "inputs": [],
      "name": "renounceOwnership",
      "outputs": [],
      "stateMutability": "nonpayable",
      "type": "function"
    },
    {
      "inputs": [],
      "name": "tokens",
      "outputs": [
        {
          "internalType": "contract IotaHeroGameTokens",
          "name": "",
          "type": "address"
        }
      ],
      "stateMutability": "view",
      "type": "function",
      "constant": true
    },
    {
      "inputs": [
        {
          "internalType": "address",
          "name": "newOwner",
          "type": "address"
        }
      ],
      "name": "transferOwnership",
      "outputs": [],
      "stateMutability": "nonpayable",
      "type": "function"
    },
    {
      "inputs": [
        {
          "internalType": "address",
          "name": "tokensAddress",
          "type": "address"
        }
      ],
      "name": "setHeroTokens",
      "outputs": [],
      "stateMutability": "nonpayable",
      "type": "function"
    },
    {
      "inputs": [
        {
          "internalType": "address",
          "name": "tokensAddress",
          "type": "address"
        }
      ],
      "name": "setTokens",
      "outputs": [],
      "stateMutability": "nonpayable",
      "type": "function"
    },
    {
      "inputs": [],
      "name": "getTokenAddress",
      "outputs": [
        {
          "internalType": "address",
          "name": "",
          "type": "address"
        }
      ],
      "stateMutability": "view",
      "type": "function",
      "constant": true
    },
    {
      "inputs": [
        {
          "internalType": "address",
          "name": "_player",
          "type": "address"
        },
        {
          "internalType": "uint256",
          "name": "_heroId",
          "type": "uint256"
        },
        {
          "internalType": "uint256",
          "name": "adventureId",
          "type": "uint256"
        },
        {
          "internalType": "uint256[]",
          "name": "lootTokenIds",
          "type": "uint256[]"
        },
        {
          "internalType": "uint256[]",
          "name": "lootAmounts",
          "type": "uint256[]"
        }
      ],
      "name": "completeAdventure",
      "outputs": [],
      "stateMutability": "nonpayable",
      "type": "function"
    },
    {
      "inputs": [
        {
          "internalType": "uint256",
          "name": "_adventureId",
          "type": "uint256"
        }
      ],
      "name": "isAdventureCompleted",
      "outputs": [
        {
          "internalType": "bool",
          "name": "",
          "type": "bool"
        }
      ],
      "stateMutability": "view",
      "type": "function",
      "constant": true
    },
    {
      "inputs": [
        {
          "internalType": "uint256",
          "name": "_heroId",
          "type": "uint256"
        }
      ],
      "name": "getHeroAdventureStatus",
      "outputs": [
        {
          "internalType": "bool",
          "name": "",
          "type": "bool"
        },
        {
          "internalType": "uint256",
          "name": "",
          "type": "uint256"
        }
      ],
      "stateMutability": "view",
      "type": "function",
      "constant": true
    },
    {
      "inputs": [
        {
          "internalType": "uint256",
          "name": "_heroId",
          "type": "uint256"
        }
      ],
      "name": "goAdventure",
      "outputs": [],
      "stateMutability": "nonpayable",
      "type": "function"
    }
  ],
  "bytecode": "0x608060405260006003556000600455601e60055534801561001f57600080fd5b5061003c61003161004160201b60201c565b61004960201b60201c565b61010d565b600033905090565b60008060009054906101000a900473ffffffffffffffffffffffffffffffffffffffff169050816000806101000a81548173ffffffffffffffffffffffffffffffffffffffff021916908373ffffffffffffffffffffffffffffffffffffffff1602179055508173ffffffffffffffffffffffffffffffffffffffff168173ffffffffffffffffffffffffffffffffffffffff167f8be0079c531659141344cd1fd0a4f28419497f9722a3daafe3b4186f6b6457e060405160405180910390a35050565b6117068061011c6000396000f3fe608060405234801561001057600080fd5b50600436106100b45760003560e01c8063a639eb4d11610071578063a639eb4d1461016a578063bbca571514610186578063c5c38d03146101a4578063c8c13fa4146101c0578063d2b2bd6c146101f0578063f2fde38b1461020c576100b4565b806310fe9ae8146100b9578063715018a6146100d757806375cd9374146100e15780637fadea0e146101125780638da5cb5b1461012e5780639d63848a1461014c575b600080fd5b6100c1610228565b6040516100ce9190610d68565b60405180910390f35b6100df610252565b005b6100fb60048036038101906100f69190610dc3565b6102da565b604051610109929190610e1a565b60405180910390f35b61012c60048036038101906101279190610dc3565b61031b565b005b6101366106a1565b6040516101439190610d68565b60405180910390f35b6101546106ca565b6040516101619190610ea2565b60405180910390f35b610184600480360381019061017f9190610ee9565b6106f0565b005b61018e6107b0565b60405161019b9190610f37565b60405180910390f35b6101be60048036038101906101b99190610ee9565b6107d6565b005b6101da60048036038101906101d59190610dc3565b610896565b6040516101e79190610f52565b60405180910390f35b61020a60048036038101906102059190610fd2565b6108c0565b005b61022660048036038101906102219190610ee9565b610b43565b005b6000600260009054906101000a900473ffffffffffffffffffffffffffffffffffffffff16905090565b61025a610c3b565b73ffffffffffffffffffffffffffffffffffffffff166102786106a1565b73ffffffffffffffffffffffffffffffffffffffff16146102ce576040517f08c379a00000000000000000000000000000000000000000000000000000000081526004016102c5906110eb565b60405180910390fd5b6102d86000610c43565b565b6000806007600084815260200190815260200160002060009054906101000a900460ff16600960008581526020019081526020016000205491509150915091565b60011515600160009054906101000a900473ffffffffffffffffffffffffffffffffffffffff1673ffffffffffffffffffffffffffffffffffffffff1663191d1cb46040518163ffffffff1660e01b8152600401602060405180830381865afa15801561038c573d6000803e3d6000fd5b505050506040513d601f19601f820116820180604052508101906103b09190611137565b1515146103f2576040517f08c379a00000000000000000000000000000000000000000000000000000000081526004016103e9906111b0565b60405180910390fd5b600160009054906101000a900473ffffffffffffffffffffffffffffffffffffffff1673ffffffffffffffffffffffffffffffffffffffff16636352211e826040518263ffffffff1660e01b815260040161044d91906111d0565b602060405180830381865afa15801561046a573d6000803e3d6000fd5b505050506040513d601f19601f8201168201806040525081019061048e9190611200565b73ffffffffffffffffffffffffffffffffffffffff163373ffffffffffffffffffffffffffffffffffffffff16146104fb576040517f08c379a00000000000000000000000000000000000000000000000000000000081526004016104f290611279565b60405180910390fd5b600015156007600083815260200190815260200160002060009054906101000a900460ff16151514610562576040517f08c379a0000000000000000000000000000000000000000000000000000000008152600401610559906112e5565b60405180910390fd5b61056b81610d07565b6105aa576040517f08c379a00000000000000000000000000000000000000000000000000000000081526004016105a190611351565b60405180910390fd5b600554426105b891906113a0565b63ffffffff166009600083815260200190815260200160002081905550600460008154809291906105e8906113f6565b91905055508060066000600454815260200190815260200160002081905550600060086000600454815260200190815260200160002060006101000a81548160ff02191690831515021790555060016007600083815260200190815260200160002060006101000a81548160ff0219169083151502179055507f86e3966eac95125f1d265e0199935edf15bc4146fb0a2db534a3207b87e5e7c533826004546040516106969392919061143f565b60405180910390a150565b60008060009054906101000a900473ffffffffffffffffffffffffffffffffffffffff16905090565b600260009054906101000a900473ffffffffffffffffffffffffffffffffffffffff1681565b6106f8610c3b565b73ffffffffffffffffffffffffffffffffffffffff166107166106a1565b73ffffffffffffffffffffffffffffffffffffffff161461076c576040517f08c379a0000000000000000000000000000000000000000000000000000000008152600401610763906110eb565b60405180910390fd5b80600260006101000a81548173ffffffffffffffffffffffffffffffffffffffff021916908373ffffffffffffffffffffffffffffffffffffffff16021790555050565b600160009054906101000a900473ffffffffffffffffffffffffffffffffffffffff1681565b6107de610c3b565b73ffffffffffffffffffffffffffffffffffffffff166107fc6106a1565b73ffffffffffffffffffffffffffffffffffffffff1614610852576040517f08c379a0000000000000000000000000000000000000000000000000000000008152600401610849906110eb565b60405180910390fd5b80600160006101000a81548173ffffffffffffffffffffffffffffffffffffffff021916908373ffffffffffffffffffffffffffffffffffffffff16021790555050565b60006008600083815260200190815260200160002060009054906101000a900460ff169050919050565b6108c8610c3b565b73ffffffffffffffffffffffffffffffffffffffff166108e66106a1565b73ffffffffffffffffffffffffffffffffffffffff161461093c576040517f08c379a0000000000000000000000000000000000000000000000000000000008152600401610933906110eb565b60405180910390fd5b84600015156008600083815260200190815260200160002060009054906101000a900460ff161515146109a4576040517f08c379a000000000000000000000000000000000000000000000000000000000815260040161099b906114c2565b60405180910390fd5b8686816006600083815260200190815260200160002054146109fb576040517f08c379a00000000000000000000000000000000000000000000000000000000081526004016109f290611554565b60405180910390fd5b6001600860008a815260200190815260200160002060006101000a81548160ff0219169083151502179055506000600760008b815260200190815260200160002060006101000a81548160ff021916908315150217905550600260009054906101000a900473ffffffffffffffffffffffffffffffffffffffff1673ffffffffffffffffffffffffffffffffffffffff1663a46abae733898989896040518663ffffffff1660e01b8152600401610ab69594939291906115f5565b600060405180830381600087803b158015610ad057600080fd5b505af1158015610ae4573d6000803e3d6000fd5b50505050888a73ffffffffffffffffffffffffffffffffffffffff167fbcb585d59fbf23e95ea561b810c6f7b83b556ddc1c9d222aefcaeb7d324aaccc8a604051610b2f91906111d0565b60405180910390a350505050505050505050565b610b4b610c3b565b73ffffffffffffffffffffffffffffffffffffffff16610b696106a1565b73ffffffffffffffffffffffffffffffffffffffff1614610bbf576040517f08c379a0000000000000000000000000000000000000000000000000000000008152600401610bb6906110eb565b60405180910390fd5b600073ffffffffffffffffffffffffffffffffffffffff168173ffffffffffffffffffffffffffffffffffffffff161415610c2f576040517f08c379a0000000000000000000000000000000000000000000000000000000008152600401610c26906116b0565b60405180910390fd5b610c3881610c43565b50565b600033905090565b60008060009054906101000a900473ffffffffffffffffffffffffffffffffffffffff169050816000806101000a81548173ffffffffffffffffffffffffffffffffffffffff021916908373ffffffffffffffffffffffffffffffffffffffff1602179055508173ffffffffffffffffffffffffffffffffffffffff168173ffffffffffffffffffffffffffffffffffffffff167f8be0079c531659141344cd1fd0a4f28419497f9722a3daafe3b4186f6b6457e060405160405180910390a35050565b600042600960008481526020019081526020016000205411159050919050565b600073ffffffffffffffffffffffffffffffffffffffff82169050919050565b6000610d5282610d27565b9050919050565b610d6281610d47565b82525050565b6000602082019050610d7d6000830184610d59565b92915050565b600080fd5b600080fd5b6000819050919050565b610da081610d8d565b8114610dab57600080fd5b50565b600081359050610dbd81610d97565b92915050565b600060208284031215610dd957610dd8610d83565b5b6000610de784828501610dae565b91505092915050565b60008115159050919050565b610e0581610df0565b82525050565b610e1481610d8d565b82525050565b6000604082019050610e2f6000830185610dfc565b610e3c6020830184610e0b565b9392505050565b6000819050919050565b6000610e68610e63610e5e84610d27565b610e43565b610d27565b9050919050565b6000610e7a82610e4d565b9050919050565b6000610e8c82610e6f565b9050919050565b610e9c81610e81565b82525050565b6000602082019050610eb76000830184610e93565b92915050565b610ec681610d47565b8114610ed157600080fd5b50565b600081359050610ee381610ebd565b92915050565b600060208284031215610eff57610efe610d83565b5b6000610f0d84828501610ed4565b91505092915050565b6000610f2182610e6f565b9050919050565b610f3181610f16565b82525050565b6000602082019050610f4c6000830184610f28565b92915050565b6000602082019050610f676000830184610dfc565b92915050565b600080fd5b600080fd5b600080fd5b60008083601f840112610f9257610f91610f6d565b5b8235905067ffffffffffffffff811115610faf57610fae610f72565b5b602083019150836020820283011115610fcb57610fca610f77565b5b9250929050565b600080600080600080600060a0888a031215610ff157610ff0610d83565b5b6000610fff8a828b01610ed4565b97505060206110108a828b01610dae565b96505060406110218a828b01610dae565b955050606088013567ffffffffffffffff81111561104257611041610d88565b5b61104e8a828b01610f7c565b9450945050608088013567ffffffffffffffff81111561107157611070610d88565b5b61107d8a828b01610f7c565b925092505092959891949750929550565b600082825260208201905092915050565b7f4f776e61626c653a2063616c6c6572206973206e6f7420746865206f776e6572600082015250565b60006110d560208361108e565b91506110e08261109f565b602082019050919050565b60006020820190508181036000830152611104816110c8565b9050919050565b61111481610df0565b811461111f57600080fd5b50565b6000815190506111318161110b565b92915050565b60006020828403121561114d5761114c610d83565b5b600061115b84828501611122565b91505092915050565b7f6e6f74207369676e656420757000000000000000000000000000000000000000600082015250565b600061119a600d8361108e565b91506111a582611164565b602082019050919050565b600060208201905081810360008301526111c98161118d565b9050919050565b60006020820190506111e56000830184610e0b565b92915050565b6000815190506111fa81610ebd565b92915050565b60006020828403121561121657611215610d83565b5b6000611224848285016111eb565b91505092915050565b7f6e6f74206865726f206f776e6572000000000000000000000000000000000000600082015250565b6000611263600e8361108e565b915061126e8261122d565b602082019050919050565b6000602082019050818103600083015261129281611256565b9050919050565b7f616c726561647920616476656e747572696e6700000000000000000000000000600082015250565b60006112cf60138361108e565b91506112da82611299565b602082019050919050565b600060208201905081810360008301526112fe816112c2565b9050919050565b7f6e6f742072656164790000000000000000000000000000000000000000000000600082015250565b600061133b60098361108e565b915061134682611305565b602082019050919050565b6000602082019050818103600083015261136a8161132e565b9050919050565b7f4e487b7100000000000000000000000000000000000000000000000000000000600052601160045260246000fd5b60006113ab82610d8d565b91506113b683610d8d565b9250827fffffffffffffffffffffffffffffffffffffffffffffffffffffffffffffffff038211156113eb576113ea611371565b5b828201905092915050565b600061140182610d8d565b91507fffffffffffffffffffffffffffffffffffffffffffffffffffffffffffffffff82141561143457611433611371565b5b600182019050919050565b60006060820190506114546000830186610d59565b6114616020830185610e0b565b61146e6040830184610e0b565b949350505050565b7f416476656e7475726520616c726561647920636f6d706c657465640000000000600082015250565b60006114ac601b8361108e565b91506114b782611476565b602082019050919050565b600060208201905081810360008301526114db8161149f565b9050919050565b7f54686973206865726f206973206e6f74206f6e207468697320616476656e747560008201527f7265000000000000000000000000000000000000000000000000000000000000602082015250565b600061153e60228361108e565b9150611549826114e2565b604082019050919050565b6000602082019050818103600083015261156d81611531565b9050919050565b600082825260208201905092915050565b600080fd5b82818337600083830152505050565b60006115a58385611574565b93507f07ffffffffffffffffffffffffffffffffffffffffffffffffffffffffffffff8311156115d8576115d7611585565b5b6020830292506115e983858461158a565b82840190509392505050565b600060608201905061160a6000830188610d59565b818103602083015261161d818688611599565b90508181036040830152611632818486611599565b90509695505050505050565b7f4f776e61626c653a206e6577206f776e657220697320746865207a65726f206160008201527f6464726573730000000000000000000000000000000000000000000000000000602082015250565b600061169a60268361108e565b91506116a58261163e565b604082019050919050565b600060208201905081810360008301526116c98161168d565b905091905056fea26469706673582212201c7a226b148a39e4d61dd4c3b58fb5af4d5fd1214f25fffd1bcc142c51703cdc64736f6c634300080a0033",
  "immutableReferences": {},
  "source": "// SPDX-License-Identifier: MIT\r\npragma solidity ^0.8.7;\r\nimport \"./IotaHeroFactory.sol\";\r\nimport \"./IotaHeroGameTokens.sol\";\r\nimport \"@openzeppelin/contracts/access/Ownable.sol\";\r\n\r\ncontract IotaHeroAdventure is Ownable {\r\n    IotaHeroFactory public heroToken;\r\n    IotaHeroGameTokens public tokens;\r\n    uint256 randomNonce = 0;\r\n    uint256 adventureCounter = 0;\r\n    uint256 adventureCoolDown = 30 seconds;\r\n\r\n    mapping(uint256 => uint256) adventureToHero;\r\n    mapping(uint256 => bool) heroIsAdventuring;\r\n    mapping(uint256 => bool) adventureToCompleted;\r\n    mapping(uint256 => uint256) heroIsReadyToAdventureAt;\r\n\r\n    modifier correctHeroForAdventure(uint256 _heroId, uint256 _adventureId) {\r\n        require(\r\n            adventureToHero[_adventureId] == _heroId,\r\n            \"This hero is not on this adventure\"\r\n        );\r\n        _;\r\n    }\r\n    modifier adventureNotCompleted(uint256 _adventureId) {\r\n        require(\r\n            adventureToCompleted[_adventureId] == false,\r\n            \"Adventure already completed\"\r\n        );\r\n        _;\r\n    }\r\n\r\n    function setHeroTokens(address tokensAddress) public onlyOwner {\r\n        heroToken = IotaHeroFactory(tokensAddress);\r\n    }\r\n\r\n    function setTokens(address tokensAddress) public onlyOwner {\r\n        tokens = IotaHeroGameTokens(tokensAddress);\r\n    }\r\n\r\n    function getTokenAddress() public view returns (address) {\r\n        return address(tokens);\r\n    }\r\n\r\n    event AdventureInitiated(\r\n        address player,\r\n        uint256 heroId,\r\n        uint256 adventureId\r\n    );\r\n    event AdventureCompleted(\r\n        address indexed player,\r\n        uint256 indexed heroId,\r\n        uint256 adventureId\r\n    );\r\n\r\n    function completeAdventure(\r\n        address _player,\r\n        uint256 _heroId,\r\n        uint256 adventureId,\r\n        uint256[] calldata lootTokenIds,\r\n        uint256[] calldata lootAmounts\r\n    )\r\n        external\r\n        onlyOwner\r\n        adventureNotCompleted(adventureId)\r\n        correctHeroForAdventure(_heroId, adventureId)\r\n    {\r\n        adventureToCompleted[adventureId] = true;\r\n        heroIsAdventuring[_heroId] = false;\r\n        tokens.awardAdventurer(msg.sender, lootTokenIds, lootAmounts);\r\n        emit AdventureCompleted(_player, _heroId, adventureId);\r\n    }\r\n\r\n    function heroIsReadyToAdventure(uint256 _heroId)\r\n        internal\r\n        view\r\n        returns (bool)\r\n    {\r\n        return (heroIsReadyToAdventureAt[_heroId] <= block.timestamp);\r\n    }\r\n\r\n    function isAdventureCompleted(uint256 _adventureId)\r\n        public\r\n        view\r\n        returns (bool)\r\n    {\r\n        return adventureToCompleted[_adventureId];\r\n    }\r\n\r\n    function getHeroAdventureStatus(uint256 _heroId)\r\n        external\r\n        view\r\n        returns (bool, uint256)\r\n    {\r\n        return (heroIsAdventuring[_heroId], heroIsReadyToAdventureAt[_heroId]);\r\n    }\r\n\r\n    function goAdventure(uint256 _heroId) external {\r\n        require(heroToken.isSignedUp() == true, \"not signed up\");\r\n        require(msg.sender == heroToken.ownerOf(_heroId), \"not hero owner\");\r\n        require(heroIsAdventuring[_heroId] == false, \"already adventuring\");\r\n        require(heroIsReadyToAdventure(_heroId), \"not ready\");\r\n        heroIsReadyToAdventureAt[_heroId] = uint32(\r\n            block.timestamp + adventureCoolDown\r\n        );\r\n        adventureCounter++;\r\n        adventureToHero[adventureCounter] = _heroId;\r\n        adventureToCompleted[adventureCounter] = false;\r\n        heroIsAdventuring[_heroId] = true;\r\n        emit AdventureInitiated(msg.sender, _heroId, adventureCounter);\r\n    }\r\n}\r\n",
  "sourcePath": "C:\\Users\\creld\\source\\repos\\IotaHeroesAzure\\smartcontracts\\contracts\\IotaHeroAdventure.sol",
  "compiler": {
    "name": "solc",
    "version": "0.8.10+commit.fc410830.Emscripten.clang"
  },
  "schemaVersion": "3.4.4",
  "updatedAt": "2022-03-12T01:53:47.438Z",
  "networkType": "ethereum",
  "devdoc": {
    "kind": "dev",
    "methods": {
      "owner()": {
        "details": "Returns the address of the current owner."
      },
      "renounceOwnership()": {
        "details": "Leaves the contract without owner. It will not be possible to call `onlyOwner` functions anymore. Can only be called by the current owner. NOTE: Renouncing ownership will leave the contract without an owner, thereby removing any functionality that is only available to the owner."
      },
      "transferOwnership(address)": {
        "details": "Transfers ownership of the contract to a new account (`newOwner`). Can only be called by the current owner."
      }
    },
    "version": 1
  },
  "userdoc": {
    "kind": "user",
    "methods": {},
    "version": 1
  }
}