{
  "contractName": "IotaHeroFactory",
  "abi": [
    {
      "inputs": [],
      "stateMutability": "nonpayable",
      "type": "constructor"
    },
    {
      "anonymous": false,
      "inputs": [
        {
          "indexed": true,
          "internalType": "address",
          "name": "owner",
          "type": "address"
        },
        {
          "indexed": true,
          "internalType": "address",
          "name": "approved",
          "type": "address"
        },
        {
          "indexed": true,
          "internalType": "uint256",
          "name": "tokenId",
          "type": "uint256"
        }
      ],
      "name": "Approval",
      "type": "event"
    },
    {
      "anonymous": false,
      "inputs": [
        {
          "indexed": true,
          "internalType": "address",
          "name": "owner",
          "type": "address"
        },
        {
          "indexed": true,
          "internalType": "address",
          "name": "operator",
          "type": "address"
        },
        {
          "indexed": false,
          "internalType": "bool",
          "name": "approved",
          "type": "bool"
        }
      ],
      "name": "ApprovalForAll",
      "type": "event"
    },
    {
      "anonymous": false,
      "inputs": [
        {
          "indexed": true,
          "internalType": "address",
          "name": "owner",
          "type": "address"
        },
        {
          "indexed": false,
          "internalType": "uint256",
          "name": "id",
          "type": "uint256"
        },
        {
          "indexed": false,
          "internalType": "uint256",
          "name": "dna",
          "type": "uint256"
        }
      ],
      "name": "HeroMinted",
      "type": "event"
    },
    {
      "anonymous": false,
      "inputs": [
        {
          "indexed": true,
          "internalType": "address",
          "name": "previousOwner",
          "type": "address"
        },
        {
          "indexed": true,
          "internalType": "address",
          "name": "newOwner",
          "type": "address"
        }
      ],
      "name": "OwnershipTransferred",
      "type": "event"
    },
    {
      "anonymous": false,
      "inputs": [
        {
          "indexed": true,
          "internalType": "address",
          "name": "from",
          "type": "address"
        },
        {
          "indexed": true,
          "internalType": "address",
          "name": "to",
          "type": "address"
        },
        {
          "indexed": true,
          "internalType": "uint256",
          "name": "tokenId",
          "type": "uint256"
        }
      ],
      "name": "Transfer",
      "type": "event"
    },
    {
      "inputs": [
        {
          "internalType": "address",
          "name": "to",
          "type": "address"
        },
        {
          "internalType": "uint256",
          "name": "tokenId",
          "type": "uint256"
        }
      ],
      "name": "approve",
      "outputs": [],
      "stateMutability": "nonpayable",
      "type": "function"
    },
    {
      "inputs": [
        {
          "internalType": "address",
          "name": "owner",
          "type": "address"
        }
      ],
      "name": "balanceOf",
      "outputs": [
        {
          "internalType": "uint256",
          "name": "",
          "type": "uint256"
        }
      ],
      "stateMutability": "view",
      "type": "function"
    },
    {
      "inputs": [
        {
          "internalType": "uint256",
          "name": "tokenId",
          "type": "uint256"
        }
      ],
      "name": "getApproved",
      "outputs": [
        {
          "internalType": "address",
          "name": "",
          "type": "address"
        }
      ],
      "stateMutability": "view",
      "type": "function"
    },
    {
      "inputs": [
        {
          "internalType": "uint256",
          "name": "",
          "type": "uint256"
        }
      ],
      "name": "heroes",
      "outputs": [
        {
          "internalType": "uint256",
          "name": "id",
          "type": "uint256"
        },
        {
          "internalType": "uint256",
          "name": "dna",
          "type": "uint256"
        },
        {
          "internalType": "uint256",
          "name": "xp",
          "type": "uint256"
        },
        {
          "internalType": "uint256",
          "name": "mental",
          "type": "uint256"
        },
        {
          "internalType": "uint256",
          "name": "physical",
          "type": "uint256"
        },
        {
          "internalType": "uint16",
          "name": "level",
          "type": "uint16"
        },
        {
          "internalType": "uint256",
          "name": "restingTill",
          "type": "uint256"
        },
        {
          "internalType": "uint256",
          "name": "debug",
          "type": "uint256"
        },
        {
          "internalType": "string",
          "name": "name",
          "type": "string"
        }
      ],
      "stateMutability": "view",
      "type": "function"
    },
    {
      "inputs": [
        {
          "internalType": "address",
          "name": "owner",
          "type": "address"
        },
        {
          "internalType": "address",
          "name": "operator",
          "type": "address"
        }
      ],
      "name": "isApprovedForAll",
      "outputs": [
        {
          "internalType": "bool",
          "name": "",
          "type": "bool"
        }
      ],
      "stateMutability": "view",
      "type": "function"
    },
    {
      "inputs": [],
      "name": "name",
      "outputs": [
        {
          "internalType": "string",
          "name": "",
          "type": "string"
        }
      ],
      "stateMutability": "view",
      "type": "function"
    },
    {
      "inputs": [],
      "name": "owner",
      "outputs": [
        {
          "internalType": "address",
          "name": "",
          "type": "address"
        }
      ],
      "stateMutability": "view",
      "type": "function"
    },
    {
      "inputs": [
        {
          "internalType": "uint256",
          "name": "tokenId",
          "type": "uint256"
        }
      ],
      "name": "ownerOf",
      "outputs": [
        {
          "internalType": "address",
          "name": "",
          "type": "address"
        }
      ],
      "stateMutability": "view",
      "type": "function"
    },
    {
      "inputs": [],
      "name": "renounceOwnership",
      "outputs": [],
      "stateMutability": "nonpayable",
      "type": "function"
    },
    {
      "inputs": [
        {
          "internalType": "address",
          "name": "from",
          "type": "address"
        },
        {
          "internalType": "address",
          "name": "to",
          "type": "address"
        },
        {
          "internalType": "uint256",
          "name": "tokenId",
          "type": "uint256"
        }
      ],
      "name": "safeTransferFrom",
      "outputs": [],
      "stateMutability": "nonpayable",
      "type": "function"
    },
    {
      "inputs": [
        {
          "internalType": "address",
          "name": "from",
          "type": "address"
        },
        {
          "internalType": "address",
          "name": "to",
          "type": "address"
        },
        {
          "internalType": "uint256",
          "name": "tokenId",
          "type": "uint256"
        },
        {
          "internalType": "bytes",
          "name": "_data",
          "type": "bytes"
        }
      ],
      "name": "safeTransferFrom",
      "outputs": [],
      "stateMutability": "nonpayable",
      "type": "function"
    },
    {
      "inputs": [
        {
          "internalType": "address",
          "name": "operator",
          "type": "address"
        },
        {
          "internalType": "bool",
          "name": "approved",
          "type": "bool"
        }
      ],
      "name": "setApprovalForAll",
      "outputs": [],
      "stateMutability": "nonpayable",
      "type": "function"
    },
    {
      "inputs": [
        {
          "internalType": "bytes4",
          "name": "interfaceId",
          "type": "bytes4"
        }
      ],
      "name": "supportsInterface",
      "outputs": [
        {
          "internalType": "bool",
          "name": "",
          "type": "bool"
        }
      ],
      "stateMutability": "view",
      "type": "function"
    },
    {
      "inputs": [],
      "name": "symbol",
      "outputs": [
        {
          "internalType": "string",
          "name": "",
          "type": "string"
        }
      ],
      "stateMutability": "view",
      "type": "function"
    },
    {
      "inputs": [
        {
          "internalType": "uint256",
          "name": "tokenId",
          "type": "uint256"
        }
      ],
      "name": "tokenURI",
      "outputs": [
        {
          "internalType": "string",
          "name": "",
          "type": "string"
        }
      ],
      "stateMutability": "view",
      "type": "function"
    },
    {
      "inputs": [
        {
          "internalType": "address",
          "name": "from",
          "type": "address"
        },
        {
          "internalType": "address",
          "name": "to",
          "type": "address"
        },
        {
          "internalType": "uint256",
          "name": "tokenId",
          "type": "uint256"
        }
      ],
      "name": "transferFrom",
      "outputs": [],
      "stateMutability": "nonpayable",
      "type": "function"
    },
    {
      "inputs": [
        {
          "internalType": "address",
          "name": "newOwner",
          "type": "address"
        }
      ],
      "name": "transferOwnership",
      "outputs": [],
      "stateMutability": "nonpayable",
      "type": "function"
    },
    {
      "inputs": [
        {
          "internalType": "uint256",
          "name": "_heroId",
          "type": "uint256"
        },
        {
          "internalType": "string",
          "name": "_name",
          "type": "string"
        }
      ],
      "name": "nameChange",
      "outputs": [],
      "stateMutability": "nonpayable",
      "type": "function"
    },
    {
      "inputs": [],
      "name": "spawnHero",
      "outputs": [],
      "stateMutability": "nonpayable",
      "type": "function"
    }
  ],
  "bytecode": "0x60806040526000600755601e6008553480156200001b57600080fd5b506040518060400160405280600881526020017f496f74614865726f0000000000000000000000000000000000000000000000008152506040518060400160405280600281526020017f49480000000000000000000000000000000000000000000000000000000000008152508160009080519060200190620000a0929190620001b0565b508060019080519060200190620000b9929190620001b0565b505050620000dc620000d0620000e260201b60201c565b620000ea60201b60201c565b620002c5565b600033905090565b6000600660009054906101000a900473ffffffffffffffffffffffffffffffffffffffff16905081600660006101000a81548173ffffffffffffffffffffffffffffffffffffffff021916908373ffffffffffffffffffffffffffffffffffffffff1602179055508173ffffffffffffffffffffffffffffffffffffffff168173ffffffffffffffffffffffffffffffffffffffff167f8be0079c531659141344cd1fd0a4f28419497f9722a3daafe3b4186f6b6457e060405160405180910390a35050565b828054620001be906200028f565b90600052602060002090601f016020900481019282620001e257600085556200022e565b82601f10620001fd57805160ff19168380011785556200022e565b828001600101855582156200022e579182015b828111156200022d57825182559160200191906001019062000210565b5b5090506200023d919062000241565b5090565b5b808211156200025c57600081600090555060010162000242565b5090565b7f4e487b7100000000000000000000000000000000000000000000000000000000600052602260045260246000fd5b60006002820490506001821680620002a857607f821691505b60208210811415620002bf57620002be62000260565b5b50919050565b61318680620002d56000396000f3fe608060405234801561001057600080fd5b50600436106101215760003560e01c8063715018a6116100ad578063a8d4a03b11610071578063a8d4a03b146102e0578063b88d4fde14610318578063c87b56dd14610334578063e985e9c514610364578063f2fde38b1461039457610121565b8063715018a6146102745780638da5cb5b1461027e57806395d89b411461029c5780639f72ed76146102ba578063a22cb465146102c457610121565b806323b872dd116100f457806323b872dd146101c057806342842e0e146101dc57806348646f7b146101f85780636352211e1461021457806370a082311461024457610121565b806301ffc9a71461012657806306fdde0314610156578063081812fc14610174578063095ea7b3146101a4575b600080fd5b610140600480360381019061013b9190611df8565b6103b0565b60405161014d9190611e40565b60405180910390f35b61015e610492565b60405161016b9190611ef4565b60405180910390f35b61018e60048036038101906101899190611f4c565b610524565b60405161019b9190611fba565b60405180910390f35b6101be60048036038101906101b99190612001565b6105a9565b005b6101da60048036038101906101d59190612041565b6106c1565b005b6101f660048036038101906101f19190612041565b610721565b005b610212600480360381019061020d91906121c9565b610741565b005b61022e60048036038101906102299190611f4c565b6107c7565b60405161023b9190611fba565b60405180910390f35b61025e60048036038101906102599190612225565b610879565b60405161026b9190612261565b60405180910390f35b61027c610931565b005b6102866109b9565b6040516102939190611fba565b60405180910390f35b6102a46109e3565b6040516102b19190611ef4565b60405180910390f35b6102c2610a75565b005b6102de60048036038101906102d991906122a8565b610a90565b005b6102fa60048036038101906102f59190611f4c565b610aa6565b60405161030f99989796959493929190612305565b60405180910390f35b610332600480360381019061032d919061243a565b610b9a565b005b61034e60048036038101906103499190611f4c565b610bfc565b60405161035b9190611ef4565b60405180910390f35b61037e600480360381019061037991906124bd565b610ca3565b60405161038b9190611e40565b60405180910390f35b6103ae60048036038101906103a99190612225565b610d37565b005b60007f80ac58cd000000000000000000000000000000000000000000000000000000007bffffffffffffffffffffffffffffffffffffffffffffffffffffffff1916827bffffffffffffffffffffffffffffffffffffffffffffffffffffffff1916148061047b57507f5b5e139f000000000000000000000000000000000000000000000000000000007bffffffffffffffffffffffffffffffffffffffffffffffffffffffff1916827bffffffffffffffffffffffffffffffffffffffffffffffffffffffff1916145b8061048b575061048a82610e2f565b5b9050919050565b6060600080546104a19061252c565b80601f01602080910402602001604051908101604052809291908181526020018280546104cd9061252c565b801561051a5780601f106104ef5761010080835404028352916020019161051a565b820191906000526020600020905b8154815290600101906020018083116104fd57829003601f168201915b5050505050905090565b600061052f82610e99565b61056e576040517f08c379a0000000000000000000000000000000000000000000000000000000008152600401610565906125d0565b60405180910390fd5b6004600083815260200190815260200160002060009054906101000a900473ffffffffffffffffffffffffffffffffffffffff169050919050565b60006105b4826107c7565b90508073ffffffffffffffffffffffffffffffffffffffff168373ffffffffffffffffffffffffffffffffffffffff161415610625576040517f08c379a000000000000000000000000000000000000000000000000000000000815260040161061c90612662565b60405180910390fd5b8073ffffffffffffffffffffffffffffffffffffffff16610644610f05565b73ffffffffffffffffffffffffffffffffffffffff16148061067357506106728161066d610f05565b610ca3565b5b6106b2576040517f08c379a00000000000000000000000000000000000000000000000000000000081526004016106a9906126f4565b60405180910390fd5b6106bc8383610f0d565b505050565b6106d26106cc610f05565b82610fc6565b610711576040517f08c379a000000000000000000000000000000000000000000000000000000000815260040161070890612786565b60405180910390fd5b61071c8383836110a4565b505050565b61073c83838360405180602001604052806000815250610b9a565b505050565b8161074b816107c7565b73ffffffffffffffffffffffffffffffffffffffff163373ffffffffffffffffffffffffffffffffffffffff161461078257600080fd5b600060098481548110610798576107976127a6565b5b90600052602060002090600902019050828160080190805190602001906107c0929190611ce9565b5050505050565b6000806002600084815260200190815260200160002060009054906101000a900473ffffffffffffffffffffffffffffffffffffffff169050600073ffffffffffffffffffffffffffffffffffffffff168173ffffffffffffffffffffffffffffffffffffffff161415610870576040517f08c379a000000000000000000000000000000000000000000000000000000000815260040161086790612847565b60405180910390fd5b80915050919050565b60008073ffffffffffffffffffffffffffffffffffffffff168273ffffffffffffffffffffffffffffffffffffffff1614156108ea576040517f08c379a00000000000000000000000000000000000000000000000000000000081526004016108e1906128d9565b60405180910390fd5b600360008373ffffffffffffffffffffffffffffffffffffffff1673ffffffffffffffffffffffffffffffffffffffff168152602001908152602001600020549050919050565b610939610f05565b73ffffffffffffffffffffffffffffffffffffffff166109576109b9565b73ffffffffffffffffffffffffffffffffffffffff16146109ad576040517f08c379a00000000000000000000000000000000000000000000000000000000081526004016109a490612945565b60405180910390fd5b6109b76000611300565b565b6000600660009054906101000a900473ffffffffffffffffffffffffffffffffffffffff16905090565b6060600180546109f29061252c565b80601f0160208091040260200160405190810160405280929190818152602001828054610a1e9061252c565b8015610a6b5780601f10610a4057610100808354040283529160200191610a6b565b820191906000526020600020905b815481529060010190602001808311610a4e57829003601f168201915b5050505050905090565b6000610a826007546113c6565b9050610a8d81611419565b50565b610aa2610a9b610f05565b83836115ab565b5050565b60098181548110610ab657600080fd5b90600052602060002090600902016000915090508060000154908060010154908060020154908060030154908060040154908060050160009054906101000a900461ffff1690806006015490806007015490806008018054610b179061252c565b80601f0160208091040260200160405190810160405280929190818152602001828054610b439061252c565b8015610b905780601f10610b6557610100808354040283529160200191610b90565b820191906000526020600020905b815481529060010190602001808311610b7357829003601f168201915b5050505050905089565b610bab610ba5610f05565b83610fc6565b610bea576040517f08c379a0000000000000000000000000000000000000000000000000000000008152600401610be190612786565b60405180910390fd5b610bf684848484611718565b50505050565b6060610c0782610e99565b610c46576040517f08c379a0000000000000000000000000000000000000000000000000000000008152600401610c3d906129d7565b60405180910390fd5b6000610c50611774565b90506000815111610c705760405180602001604052806000815250610c9b565b80610c7a8461178b565b604051602001610c8b929190612a33565b6040516020818303038152906040525b915050919050565b6000600560008473ffffffffffffffffffffffffffffffffffffffff1673ffffffffffffffffffffffffffffffffffffffff16815260200190815260200160002060008373ffffffffffffffffffffffffffffffffffffffff1673ffffffffffffffffffffffffffffffffffffffff16815260200190815260200160002060009054906101000a900460ff16905092915050565b610d3f610f05565b73ffffffffffffffffffffffffffffffffffffffff16610d5d6109b9565b73ffffffffffffffffffffffffffffffffffffffff1614610db3576040517f08c379a0000000000000000000000000000000000000000000000000000000008152600401610daa90612945565b60405180910390fd5b600073ffffffffffffffffffffffffffffffffffffffff168173ffffffffffffffffffffffffffffffffffffffff161415610e23576040517f08c379a0000000000000000000000000000000000000000000000000000000008152600401610e1a90612ac9565b60405180910390fd5b610e2c81611300565b50565b60007f01ffc9a7000000000000000000000000000000000000000000000000000000007bffffffffffffffffffffffffffffffffffffffffffffffffffffffff1916827bffffffffffffffffffffffffffffffffffffffffffffffffffffffff1916149050919050565b60008073ffffffffffffffffffffffffffffffffffffffff166002600084815260200190815260200160002060009054906101000a900473ffffffffffffffffffffffffffffffffffffffff1673ffffffffffffffffffffffffffffffffffffffff1614159050919050565b600033905090565b816004600083815260200190815260200160002060006101000a81548173ffffffffffffffffffffffffffffffffffffffff021916908373ffffffffffffffffffffffffffffffffffffffff160217905550808273ffffffffffffffffffffffffffffffffffffffff16610f80836107c7565b73ffffffffffffffffffffffffffffffffffffffff167f8c5be1e5ebec7d5bd14f71427d1e84f3dd0314c0f7b2291e5b200ac8c7c3b92560405160405180910390a45050565b6000610fd182610e99565b611010576040517f08c379a000000000000000000000000000000000000000000000000000000000815260040161100790612b5b565b60405180910390fd5b600061101b836107c7565b90508073ffffffffffffffffffffffffffffffffffffffff168473ffffffffffffffffffffffffffffffffffffffff16148061108a57508373ffffffffffffffffffffffffffffffffffffffff1661107284610524565b73ffffffffffffffffffffffffffffffffffffffff16145b8061109b575061109a8185610ca3565b5b91505092915050565b8273ffffffffffffffffffffffffffffffffffffffff166110c4826107c7565b73ffffffffffffffffffffffffffffffffffffffff161461111a576040517f08c379a000000000000000000000000000000000000000000000000000000000815260040161111190612bed565b60405180910390fd5b600073ffffffffffffffffffffffffffffffffffffffff168273ffffffffffffffffffffffffffffffffffffffff16141561118a576040517f08c379a000000000000000000000000000000000000000000000000000000000815260040161118190612c7f565b60405180910390fd5b6111958383836118ec565b6111a0600082610f0d565b6001600360008573ffffffffffffffffffffffffffffffffffffffff1673ffffffffffffffffffffffffffffffffffffffff16815260200190815260200160002060008282546111f09190612cce565b925050819055506001600360008473ffffffffffffffffffffffffffffffffffffffff1673ffffffffffffffffffffffffffffffffffffffff16815260200190815260200160002060008282546112479190612d02565b92505081905550816002600083815260200190815260200160002060006101000a81548173ffffffffffffffffffffffffffffffffffffffff021916908373ffffffffffffffffffffffffffffffffffffffff160217905550808273ffffffffffffffffffffffffffffffffffffffff168473ffffffffffffffffffffffffffffffffffffffff167fddf252ad1be2c89b69c2b068fc378daa952ba7f163c4a11628f55a4df523b3ef60405160405180910390a4505050565b6000600660009054906101000a900473ffffffffffffffffffffffffffffffffffffffff16905081600660006101000a81548173ffffffffffffffffffffffffffffffffffffffff021916908373ffffffffffffffffffffffffffffffffffffffff1602179055508173ffffffffffffffffffffffffffffffffffffffff168173ffffffffffffffffffffffffffffffffffffffff167f8be0079c531659141344cd1fd0a4f28419497f9722a3daafe3b4186f6b6457e060405160405180910390a35050565b60008082426113d59190612d02565b6040516020016113e59190612d79565b6040516020818303038152906040528051906020012060001c905064e8d4a51000816114119190612dc3565b915050919050565b600060405180610120016040528060075481526020018381526020016101f48152602001600a8152602001600a8152602001600161ffff168152602001428152602001600081526020016040518060200160405280600081525081525090506009819080600181540180825580915050600190039060005260206000209060090201600090919091909150600082015181600001556020820151816001015560408201518160020155606082015181600301556080820151816004015560a08201518160050160006101000a81548161ffff021916908361ffff16021790555060c0820151816006015560e0820151816007015561010082015181600801908051906020019061152a929190611ce9565b505050611539336007546118f1565b3373ffffffffffffffffffffffffffffffffffffffff167fad1c7ab5bfbe86a51764200b1532f3893b41563e78abe6d6eac4bbd987f38c6860075484604051611583929190612df4565b60405180910390a26115a1600160075461190f90919063ffffffff16565b6007819055505050565b8173ffffffffffffffffffffffffffffffffffffffff168373ffffffffffffffffffffffffffffffffffffffff16141561161a576040517f08c379a000000000000000000000000000000000000000000000000000000000815260040161161190612e69565b60405180910390fd5b80600560008573ffffffffffffffffffffffffffffffffffffffff1673ffffffffffffffffffffffffffffffffffffffff16815260200190815260200160002060008473ffffffffffffffffffffffffffffffffffffffff1673ffffffffffffffffffffffffffffffffffffffff16815260200190815260200160002060006101000a81548160ff0219169083151502179055508173ffffffffffffffffffffffffffffffffffffffff168373ffffffffffffffffffffffffffffffffffffffff167f17307eab39ab6107e8899845ad3d59bd9653f200f220920489ca2b5937696c318360405161170b9190611e40565b60405180910390a3505050565b6117238484846110a4565b61172f84848484611925565b61176e576040517f08c379a000000000000000000000000000000000000000000000000000000000815260040161176590612efb565b60405180910390fd5b50505050565b606060405180602001604052806000815250905090565b606060008214156117d3576040518060400160405280600181526020017f300000000000000000000000000000000000000000000000000000000000000081525090506118e7565b600082905060005b600082146118055780806117ee90612f1b565b915050600a826117fe9190612f64565b91506117db565b60008167ffffffffffffffff8111156118215761182061209e565b5b6040519080825280601f01601f1916602001820160405280156118535781602001600182028036833780820191505090505b5090505b600085146118e05760018261186c9190612cce565b9150600a8561187b9190612dc3565b60306118879190612d02565b60f81b81838151811061189d5761189c6127a6565b5b60200101907effffffffffffffffffffffffffffffffffffffffffffffffffffffffffffff1916908160001a905350600a856118d99190612f64565b9450611857565b8093505050505b919050565b505050565b61190b828260405180602001604052806000815250611aad565b5050565b6000818361191d9190612d02565b905092915050565b60006119468473ffffffffffffffffffffffffffffffffffffffff16611b08565b15611aa0578373ffffffffffffffffffffffffffffffffffffffff1663150b7a0261196f610f05565b8786866040518563ffffffff1660e01b81526004016119919493929190612fea565b6020604051808303816000875af19250505080156119cd57506040513d601f19601f820116820180604052508101906119ca919061304b565b60015b611a50573d80600081146119fd576040519150601f19603f3d011682016040523d82523d6000602084013e611a02565b606091505b50600081511415611a48576040517f08c379a0000000000000000000000000000000000000000000000000000000008152600401611a3f90612efb565b60405180910390fd5b805181602001fd5b63150b7a0260e01b7bffffffffffffffffffffffffffffffffffffffffffffffffffffffff1916817bffffffffffffffffffffffffffffffffffffffffffffffffffffffff191614915050611aa5565b600190505b949350505050565b611ab78383611b1b565b611ac46000848484611925565b611b03576040517f08c379a0000000000000000000000000000000000000000000000000000000008152600401611afa90612efb565b60405180910390fd5b505050565b600080823b905060008111915050919050565b600073ffffffffffffffffffffffffffffffffffffffff168273ffffffffffffffffffffffffffffffffffffffff161415611b8b576040517f08c379a0000000000000000000000000000000000000000000000000000000008152600401611b82906130c4565b60405180910390fd5b611b9481610e99565b15611bd4576040517f08c379a0000000000000000000000000000000000000000000000000000000008152600401611bcb90613130565b60405180910390fd5b611be0600083836118ec565b6001600360008473ffffffffffffffffffffffffffffffffffffffff1673ffffffffffffffffffffffffffffffffffffffff1681526020019081526020016000206000828254611c309190612d02565b92505081905550816002600083815260200190815260200160002060006101000a81548173ffffffffffffffffffffffffffffffffffffffff021916908373ffffffffffffffffffffffffffffffffffffffff160217905550808273ffffffffffffffffffffffffffffffffffffffff16600073ffffffffffffffffffffffffffffffffffffffff167fddf252ad1be2c89b69c2b068fc378daa952ba7f163c4a11628f55a4df523b3ef60405160405180910390a45050565b828054611cf59061252c565b90600052602060002090601f016020900481019282611d175760008555611d5e565b82601f10611d3057805160ff1916838001178555611d5e565b82800160010185558215611d5e579182015b82811115611d5d578251825591602001919060010190611d42565b5b509050611d6b9190611d6f565b5090565b5b80821115611d88576000816000905550600101611d70565b5090565b6000604051905090565b600080fd5b600080fd5b60007fffffffff0000000000000000000000000000000000000000000000000000000082169050919050565b611dd581611da0565b8114611de057600080fd5b50565b600081359050611df281611dcc565b92915050565b600060208284031215611e0e57611e0d611d96565b5b6000611e1c84828501611de3565b91505092915050565b60008115159050919050565b611e3a81611e25565b82525050565b6000602082019050611e556000830184611e31565b92915050565b600081519050919050565b600082825260208201905092915050565b60005b83811015611e95578082015181840152602081019050611e7a565b83811115611ea4576000848401525b50505050565b6000601f19601f8301169050919050565b6000611ec682611e5b565b611ed08185611e66565b9350611ee0818560208601611e77565b611ee981611eaa565b840191505092915050565b60006020820190508181036000830152611f0e8184611ebb565b905092915050565b6000819050919050565b611f2981611f16565b8114611f3457600080fd5b50565b600081359050611f4681611f20565b92915050565b600060208284031215611f6257611f61611d96565b5b6000611f7084828501611f37565b91505092915050565b600073ffffffffffffffffffffffffffffffffffffffff82169050919050565b6000611fa482611f79565b9050919050565b611fb481611f99565b82525050565b6000602082019050611fcf6000830184611fab565b92915050565b611fde81611f99565b8114611fe957600080fd5b50565b600081359050611ffb81611fd5565b92915050565b6000806040838503121561201857612017611d96565b5b600061202685828601611fec565b925050602061203785828601611f37565b9150509250929050565b60008060006060848603121561205a57612059611d96565b5b600061206886828701611fec565b935050602061207986828701611fec565b925050604061208a86828701611f37565b9150509250925092565b600080fd5b600080fd5b7f4e487b7100000000000000000000000000000000000000000000000000000000600052604160045260246000fd5b6120d682611eaa565b810181811067ffffffffffffffff821117156120f5576120f461209e565b5b80604052505050565b6000612108611d8c565b905061211482826120cd565b919050565b600067ffffffffffffffff8211156121345761213361209e565b5b61213d82611eaa565b9050602081019050919050565b82818337600083830152505050565b600061216c61216784612119565b6120fe565b90508281526020810184848401111561218857612187612099565b5b61219384828561214a565b509392505050565b600082601f8301126121b0576121af612094565b5b81356121c0848260208601612159565b91505092915050565b600080604083850312156121e0576121df611d96565b5b60006121ee85828601611f37565b925050602083013567ffffffffffffffff81111561220f5761220e611d9b565b5b61221b8582860161219b565b9150509250929050565b60006020828403121561223b5761223a611d96565b5b600061224984828501611fec565b91505092915050565b61225b81611f16565b82525050565b60006020820190506122766000830184612252565b92915050565b61228581611e25565b811461229057600080fd5b50565b6000813590506122a28161227c565b92915050565b600080604083850312156122bf576122be611d96565b5b60006122cd85828601611fec565b92505060206122de85828601612293565b9150509250929050565b600061ffff82169050919050565b6122ff816122e8565b82525050565b60006101208201905061231b600083018c612252565b612328602083018b612252565b612335604083018a612252565b6123426060830189612252565b61234f6080830188612252565b61235c60a08301876122f6565b61236960c0830186612252565b61237660e0830185612252565b8181036101008301526123898184611ebb565b90509a9950505050505050505050565b600067ffffffffffffffff8211156123b4576123b361209e565b5b6123bd82611eaa565b9050602081019050919050565b60006123dd6123d884612399565b6120fe565b9050828152602081018484840111156123f9576123f8612099565b5b61240484828561214a565b509392505050565b600082601f83011261242157612420612094565b5b81356124318482602086016123ca565b91505092915050565b6000806000806080858703121561245457612453611d96565b5b600061246287828801611fec565b945050602061247387828801611fec565b935050604061248487828801611f37565b925050606085013567ffffffffffffffff8111156124a5576124a4611d9b565b5b6124b18782880161240c565b91505092959194509250565b600080604083850312156124d4576124d3611d96565b5b60006124e285828601611fec565b92505060206124f385828601611fec565b9150509250929050565b7f4e487b7100000000000000000000000000000000000000000000000000000000600052602260045260246000fd5b6000600282049050600182168061254457607f821691505b60208210811415612558576125576124fd565b5b50919050565b7f4552433732313a20617070726f76656420717565727920666f72206e6f6e657860008201527f697374656e7420746f6b656e0000000000000000000000000000000000000000602082015250565b60006125ba602c83611e66565b91506125c58261255e565b604082019050919050565b600060208201905081810360008301526125e9816125ad565b9050919050565b7f4552433732313a20617070726f76616c20746f2063757272656e74206f776e6560008201527f7200000000000000000000000000000000000000000000000000000000000000602082015250565b600061264c602183611e66565b9150612657826125f0565b604082019050919050565b6000602082019050818103600083015261267b8161263f565b9050919050565b7f4552433732313a20617070726f76652063616c6c6572206973206e6f74206f7760008201527f6e6572206e6f7220617070726f76656420666f7220616c6c0000000000000000602082015250565b60006126de603883611e66565b91506126e982612682565b604082019050919050565b6000602082019050818103600083015261270d816126d1565b9050919050565b7f4552433732313a207472616e736665722063616c6c6572206973206e6f74206f60008201527f776e6572206e6f7220617070726f766564000000000000000000000000000000602082015250565b6000612770603183611e66565b915061277b82612714565b604082019050919050565b6000602082019050818103600083015261279f81612763565b9050919050565b7f4e487b7100000000000000000000000000000000000000000000000000000000600052603260045260246000fd5b7f4552433732313a206f776e657220717565727920666f72206e6f6e657869737460008201527f656e7420746f6b656e0000000000000000000000000000000000000000000000602082015250565b6000612831602983611e66565b915061283c826127d5565b604082019050919050565b6000602082019050818103600083015261286081612824565b9050919050565b7f4552433732313a2062616c616e636520717565727920666f7220746865207a6560008201527f726f206164647265737300000000000000000000000000000000000000000000602082015250565b60006128c3602a83611e66565b91506128ce82612867565b604082019050919050565b600060208201905081810360008301526128f2816128b6565b9050919050565b7f4f776e61626c653a2063616c6c6572206973206e6f7420746865206f776e6572600082015250565b600061292f602083611e66565b915061293a826128f9565b602082019050919050565b6000602082019050818103600083015261295e81612922565b9050919050565b7f4552433732314d657461646174613a2055524920717565727920666f72206e6f60008201527f6e6578697374656e7420746f6b656e0000000000000000000000000000000000602082015250565b60006129c1602f83611e66565b91506129cc82612965565b604082019050919050565b600060208201905081810360008301526129f0816129b4565b9050919050565b600081905092915050565b6000612a0d82611e5b565b612a1781856129f7565b9350612a27818560208601611e77565b80840191505092915050565b6000612a3f8285612a02565b9150612a4b8284612a02565b91508190509392505050565b7f4f776e61626c653a206e6577206f776e657220697320746865207a65726f206160008201527f6464726573730000000000000000000000000000000000000000000000000000602082015250565b6000612ab3602683611e66565b9150612abe82612a57565b604082019050919050565b60006020820190508181036000830152612ae281612aa6565b9050919050565b7f4552433732313a206f70657261746f7220717565727920666f72206e6f6e657860008201527f697374656e7420746f6b656e0000000000000000000000000000000000000000602082015250565b6000612b45602c83611e66565b9150612b5082612ae9565b604082019050919050565b60006020820190508181036000830152612b7481612b38565b9050919050565b7f4552433732313a207472616e73666572206f6620746f6b656e2074686174206960008201527f73206e6f74206f776e0000000000000000000000000000000000000000000000602082015250565b6000612bd7602983611e66565b9150612be282612b7b565b604082019050919050565b60006020820190508181036000830152612c0681612bca565b9050919050565b7f4552433732313a207472616e7366657220746f20746865207a65726f2061646460008201527f7265737300000000000000000000000000000000000000000000000000000000602082015250565b6000612c69602483611e66565b9150612c7482612c0d565b604082019050919050565b60006020820190508181036000830152612c9881612c5c565b9050919050565b7f4e487b7100000000000000000000000000000000000000000000000000000000600052601160045260246000fd5b6000612cd982611f16565b9150612ce483611f16565b925082821015612cf757612cf6612c9f565b5b828203905092915050565b6000612d0d82611f16565b9150612d1883611f16565b9250827fffffffffffffffffffffffffffffffffffffffffffffffffffffffffffffffff03821115612d4d57612d4c612c9f565b5b828201905092915050565b6000819050919050565b612d73612d6e82611f16565b612d58565b82525050565b6000612d858284612d62565b60208201915081905092915050565b7f4e487b7100000000000000000000000000000000000000000000000000000000600052601260045260246000fd5b6000612dce82611f16565b9150612dd983611f16565b925082612de957612de8612d94565b5b828206905092915050565b6000604082019050612e096000830185612252565b612e166020830184612252565b9392505050565b7f4552433732313a20617070726f766520746f2063616c6c657200000000000000600082015250565b6000612e53601983611e66565b9150612e5e82612e1d565b602082019050919050565b60006020820190508181036000830152612e8281612e46565b9050919050565b7f4552433732313a207472616e7366657220746f206e6f6e20455243373231526560008201527f63656976657220696d706c656d656e7465720000000000000000000000000000602082015250565b6000612ee5603283611e66565b9150612ef082612e89565b604082019050919050565b60006020820190508181036000830152612f1481612ed8565b9050919050565b6000612f2682611f16565b91507fffffffffffffffffffffffffffffffffffffffffffffffffffffffffffffffff821415612f5957612f58612c9f565b5b600182019050919050565b6000612f6f82611f16565b9150612f7a83611f16565b925082612f8a57612f89612d94565b5b828204905092915050565b600081519050919050565b600082825260208201905092915050565b6000612fbc82612f95565b612fc68185612fa0565b9350612fd6818560208601611e77565b612fdf81611eaa565b840191505092915050565b6000608082019050612fff6000830187611fab565b61300c6020830186611fab565b6130196040830185612252565b818103606083015261302b8184612fb1565b905095945050505050565b60008151905061304581611dcc565b92915050565b60006020828403121561306157613060611d96565b5b600061306f84828501613036565b91505092915050565b7f4552433732313a206d696e7420746f20746865207a65726f2061646472657373600082015250565b60006130ae602083611e66565b91506130b982613078565b602082019050919050565b600060208201905081810360008301526130dd816130a1565b9050919050565b7f4552433732313a20746f6b656e20616c7265616479206d696e74656400000000600082015250565b600061311a601c83611e66565b9150613125826130e4565b602082019050919050565b600060208201905081810360008301526131498161310d565b905091905056fea264697066735822122059a8badc03886812ac4d21dc6f885d24d3da4cb358a7804f928d671dd92b5d5764736f6c634300080a0033",
  "immutableReferences": {},
  "source": "// SPDX-License-Identifier: MIT\r\npragma solidity ^0.8.7;\r\n\r\nimport \"@openzeppelin/contracts/token/ERC721/ERC721.sol\";\r\nimport \"@openzeppelin/contracts/access/Ownable.sol\";\r\nimport \"@openzeppelin/contracts/utils/math/SafeMath.sol\";\r\n\r\ncontract IotaHeroFactory is ERC721, Ownable {\r\n    constructor() ERC721(\"IotaHero\", \"IH\") {}\r\n\r\n    using SafeMath for uint256;\r\n\r\n    uint256 heroIdCounter = 0;\r\n    uint256 adventureCoolDown = 30 seconds;\r\n    struct Hero {\r\n        uint256 id;\r\n        uint256 dna;\r\n        uint256 xp;\r\n        uint256 mental;\r\n        uint256 physical;\r\n        uint16 level;\r\n        uint256 restingTill;\r\n        uint256 debug;\r\n        string name;\r\n    }\r\n\r\n    Hero[] public heroes;\r\n\r\n    modifier aboveLevel(uint256 _level, uint256 _heroId) {\r\n        require(heroes[_heroId].level >= _level);\r\n        _;\r\n    }\r\n    modifier onlyOwnerOf(uint256 _heroId) {\r\n        require(msg.sender == ERC721.ownerOf(_heroId));\r\n        _;\r\n    }\r\n\r\n    function nameChange(uint256 _heroId, string memory _name)\r\n        public\r\n        onlyOwnerOf(_heroId)\r\n    {\r\n        Hero storage hero = heroes[_heroId];\r\n        hero.name = _name;\r\n    }\r\n\r\n    function heroIsReady(Hero memory hero) internal view returns (bool) {\r\n        return (hero.restingTill <= block.timestamp);\r\n    }\r\n\r\n    function _pseudoRandom(uint256 nonce) internal view returns (uint256) {\r\n        uint256 psrand = uint256(\r\n            keccak256(abi.encodePacked(block.timestamp + nonce))\r\n        );\r\n        return psrand % 10**12;\r\n    }\r\n\r\n    event HeroMinted(address indexed owner, uint256 id, uint256 dna);\r\n\r\n    function _mintHero(uint256 _dna) internal {\r\n        Hero memory hero = Hero(\r\n            heroIdCounter,\r\n            _dna,\r\n            500,\r\n            10,\r\n            10,\r\n            1,\r\n            block.timestamp,\r\n            0,\r\n            \"\"\r\n        );\r\n        heroes.push(hero);\r\n        _safeMint(msg.sender, heroIdCounter);\r\n        emit HeroMinted(msg.sender, heroIdCounter, _dna);\r\n        heroIdCounter = heroIdCounter.add(1);\r\n    }\r\n\r\n    function spawnHero() public {\r\n        uint256 dna = _pseudoRandom(heroIdCounter);\r\n        _mintHero(dna);\r\n    }\r\n}\r\n",
  "sourcePath": "C:\\Users\\creld\\source\\repos\\IotaHeroes\\contracts\\IotaHeroFactory.sol",
  "compiler": {
    "name": "solc",
    "version": "0.8.10+commit.fc410830.Emscripten.clang"
  },
  "schemaVersion": "3.4.4",
  "updatedAt": "2022-01-10T16:11:53.185Z",
  "devdoc": {
    "kind": "dev",
    "methods": {
      "approve(address,uint256)": {
        "details": "See {IERC721-approve}."
      },
      "balanceOf(address)": {
        "details": "See {IERC721-balanceOf}."
      },
      "getApproved(uint256)": {
        "details": "See {IERC721-getApproved}."
      },
      "isApprovedForAll(address,address)": {
        "details": "See {IERC721-isApprovedForAll}."
      },
      "name()": {
        "details": "See {IERC721Metadata-name}."
      },
      "owner()": {
        "details": "Returns the address of the current owner."
      },
      "ownerOf(uint256)": {
        "details": "See {IERC721-ownerOf}."
      },
      "renounceOwnership()": {
        "details": "Leaves the contract without owner. It will not be possible to call `onlyOwner` functions anymore. Can only be called by the current owner. NOTE: Renouncing ownership will leave the contract without an owner, thereby removing any functionality that is only available to the owner."
      },
      "safeTransferFrom(address,address,uint256)": {
        "details": "See {IERC721-safeTransferFrom}."
      },
      "safeTransferFrom(address,address,uint256,bytes)": {
        "details": "See {IERC721-safeTransferFrom}."
      },
      "setApprovalForAll(address,bool)": {
        "details": "See {IERC721-setApprovalForAll}."
      },
      "supportsInterface(bytes4)": {
        "details": "See {IERC165-supportsInterface}."
      },
      "symbol()": {
        "details": "See {IERC721Metadata-symbol}."
      },
      "tokenURI(uint256)": {
        "details": "See {IERC721Metadata-tokenURI}."
      },
      "transferFrom(address,address,uint256)": {
        "details": "See {IERC721-transferFrom}."
      },
      "transferOwnership(address)": {
        "details": "Transfers ownership of the contract to a new account (`newOwner`). Can only be called by the current owner."
      }
    },
    "version": 1
  },
  "userdoc": {
    "kind": "user",
    "methods": {},
    "version": 1
  }
}