{
  "contractName": "IotaHeroAdventure",
  "abi": [
    {
      "anonymous": false,
      "inputs": [
        {
          "indexed": true,
          "internalType": "address",
          "name": "player",
          "type": "address"
        },
        {
          "indexed": true,
          "internalType": "uint256",
          "name": "heroId",
          "type": "uint256"
        },
        {
          "indexed": false,
          "internalType": "uint256",
          "name": "adventureId",
          "type": "uint256"
        }
      ],
      "name": "AdventureCompleted",
      "type": "event"
    },
    {
      "anonymous": false,
      "inputs": [
        {
          "indexed": false,
          "internalType": "address",
          "name": "player",
          "type": "address"
        },
        {
          "indexed": false,
          "internalType": "uint256",
          "name": "heroId",
          "type": "uint256"
        },
        {
          "indexed": false,
          "internalType": "uint256",
          "name": "adventureId",
          "type": "uint256"
        }
      ],
      "name": "AdventureInitiated",
      "type": "event"
    },
    {
      "anonymous": false,
      "inputs": [
        {
          "indexed": true,
          "internalType": "address",
          "name": "previousOwner",
          "type": "address"
        },
        {
          "indexed": true,
          "internalType": "address",
          "name": "newOwner",
          "type": "address"
        }
      ],
      "name": "OwnershipTransferred",
      "type": "event"
    },
    {
      "inputs": [],
      "name": "heroToken",
      "outputs": [
        {
          "internalType": "contract IotaHeroFactory",
          "name": "",
          "type": "address"
        }
      ],
      "stateMutability": "view",
      "type": "function",
      "constant": true
    },
    {
      "inputs": [],
      "name": "owner",
      "outputs": [
        {
          "internalType": "address",
          "name": "",
          "type": "address"
        }
      ],
      "stateMutability": "view",
      "type": "function",
      "constant": true
    },
    {
      "inputs": [],
      "name": "renounceOwnership",
      "outputs": [],
      "stateMutability": "nonpayable",
      "type": "function"
    },
    {
      "inputs": [
        {
          "internalType": "bytes4",
          "name": "interfaceId",
          "type": "bytes4"
        }
      ],
      "name": "supportsInterface",
      "outputs": [
        {
          "internalType": "bool",
          "name": "",
          "type": "bool"
        }
      ],
      "stateMutability": "view",
      "type": "function",
      "constant": true
    },
    {
      "inputs": [],
      "name": "tokens",
      "outputs": [
        {
          "internalType": "contract IotaHeroGameTokens",
          "name": "",
          "type": "address"
        }
      ],
      "stateMutability": "view",
      "type": "function",
      "constant": true
    },
    {
      "inputs": [
        {
          "internalType": "address",
          "name": "newOwner",
          "type": "address"
        }
      ],
      "name": "transferOwnership",
      "outputs": [],
      "stateMutability": "nonpayable",
      "type": "function"
    },
    {
      "inputs": [
        {
          "internalType": "address",
          "name": "tokensAddress",
          "type": "address"
        }
      ],
      "name": "setHeroTokens",
      "outputs": [],
      "stateMutability": "nonpayable",
      "type": "function"
    },
    {
      "inputs": [
        {
          "internalType": "address",
          "name": "tokensAddress",
          "type": "address"
        }
      ],
      "name": "setTokens",
      "outputs": [],
      "stateMutability": "nonpayable",
      "type": "function"
    },
    {
      "inputs": [],
      "name": "getTokenAddress",
      "outputs": [
        {
          "internalType": "address",
          "name": "",
          "type": "address"
        }
      ],
      "stateMutability": "view",
      "type": "function",
      "constant": true
    },
    {
      "inputs": [
        {
          "internalType": "uint256",
          "name": "_heroId",
          "type": "uint256"
        },
        {
          "internalType": "uint256",
          "name": "adventureId",
          "type": "uint256"
        },
        {
          "internalType": "uint256[]",
          "name": "itemsToReturn",
          "type": "uint256[]"
        },
        {
          "internalType": "uint256[]",
          "name": "lootTokenIds",
          "type": "uint256[]"
        },
        {
          "internalType": "uint256[]",
          "name": "lootAmounts",
          "type": "uint256[]"
        }
      ],
      "name": "completeAdventure",
      "outputs": [],
      "stateMutability": "nonpayable",
      "type": "function"
    },
    {
      "inputs": [
        {
          "internalType": "uint256",
          "name": "_adventureId",
          "type": "uint256"
        }
      ],
      "name": "isAdventureCompleted",
      "outputs": [
        {
          "internalType": "bool",
          "name": "",
          "type": "bool"
        }
      ],
      "stateMutability": "view",
      "type": "function",
      "constant": true
    },
    {
      "inputs": [
        {
          "internalType": "uint256",
          "name": "_adventureId",
          "type": "uint256"
        }
      ],
      "name": "getEquipmentForAdventure",
      "outputs": [
        {
          "internalType": "uint256[]",
          "name": "",
          "type": "uint256[]"
        }
      ],
      "stateMutability": "view",
      "type": "function",
      "constant": true
    },
    {
      "inputs": [
        {
          "internalType": "uint256",
          "name": "_heroId",
          "type": "uint256"
        }
      ],
      "name": "getHeroAdventureStatus",
      "outputs": [
        {
          "internalType": "bool",
          "name": "",
          "type": "bool"
        },
        {
          "internalType": "uint256",
          "name": "",
          "type": "uint256"
        }
      ],
      "stateMutability": "view",
      "type": "function",
      "constant": true
    },
    {
      "inputs": [
        {
          "internalType": "uint256",
          "name": "_heroId",
          "type": "uint256"
        },
        {
          "internalType": "uint256[]",
          "name": "_equipment",
          "type": "uint256[]"
        }
      ],
      "name": "goAdventure",
      "outputs": [],
      "stateMutability": "nonpayable",
      "type": "function"
    },
    {
      "inputs": [
        {
          "internalType": "address",
          "name": "",
          "type": "address"
        },
        {
          "internalType": "address",
          "name": "",
          "type": "address"
        },
        {
          "internalType": "uint256",
          "name": "tokenId",
          "type": "uint256"
        },
        {
          "internalType": "uint256",
          "name": "amount",
          "type": "uint256"
        },
        {
          "internalType": "bytes",
          "name": "data",
          "type": "bytes"
        }
      ],
      "name": "onERC1155Received",
      "outputs": [
        {
          "internalType": "bytes4",
          "name": "",
          "type": "bytes4"
        }
      ],
      "stateMutability": "nonpayable",
      "type": "function"
    },
    {
      "inputs": [
        {
          "internalType": "address",
          "name": "",
          "type": "address"
        },
        {
          "internalType": "address",
          "name": "",
          "type": "address"
        },
        {
          "internalType": "uint256[]",
          "name": "ids",
          "type": "uint256[]"
        },
        {
          "internalType": "uint256[]",
          "name": "amounts",
          "type": "uint256[]"
        },
        {
          "internalType": "bytes",
          "name": "data",
          "type": "bytes"
        }
      ],
      "name": "onERC1155BatchReceived",
      "outputs": [
        {
          "internalType": "bytes4",
          "name": "",
          "type": "bytes4"
        }
      ],
      "stateMutability": "nonpayable",
      "type": "function"
    }
  ],
  "bytecode": "0x608060405260006003556000600455601e60055534801561001f57600080fd5b5061003c61003161004160201b60201c565b61004960201b60201c565b61010d565b600033905090565b60008060009054906101000a900473ffffffffffffffffffffffffffffffffffffffff169050816000806101000a81548173ffffffffffffffffffffffffffffffffffffffff021916908373ffffffffffffffffffffffffffffffffffffffff1602179055508173ffffffffffffffffffffffffffffffffffffffff168173ffffffffffffffffffffffffffffffffffffffff167f8be0079c531659141344cd1fd0a4f28419497f9722a3daafe3b4186f6b6457e060405160405180910390a35050565b61249f806200011d6000396000f3fe608060405234801561001057600080fd5b50600436106101005760003560e01c8063a639eb4d11610097578063c5c38d0311610066578063c5c38d031461029c578063c8c13fa4146102b8578063f23a6e61146102e8578063f2fde38b1461031857610100565b8063a639eb4d14610202578063b6c9231c1461021e578063bbca57151461024e578063bc197c811461026c57610100565b8063715018a6116100d3578063715018a61461018b57806375cd9374146101955780638da5cb5b146101c65780639d63848a146101e457610100565b806301ffc9a71461010557806310fe9ae814610135578063216f0b31146101535780633fefc2c51461016f575b600080fd5b61011f600480360381019061011a9190611466565b610334565b60405161012c91906114ae565b60405180910390f35b61013d6103ae565b60405161014a919061150a565b60405180910390f35b61016d600480360381019061016891906115c0565b6103d8565b005b61018960048036038101906101849190611620565b6109df565b005b610193610dc5565b005b6101af60048036038101906101aa91906116fc565b610e4d565b6040516101bd929190611738565b60405180910390f35b6101ce610e8e565b6040516101db919061150a565b60405180910390f35b6101ec610eb7565b6040516101f991906117c0565b60405180910390f35b61021c60048036038101906102179190611807565b610edd565b005b610238600480360381019061023391906116fc565b610f9d565b60405161024591906118f2565b60405180910390f35b610256611008565b6040516102639190611935565b60405180910390f35b61028660048036038101906102819190611b54565b61102e565b6040516102939190611c32565b60405180910390f35b6102b660048036038101906102b19190611807565b611043565b005b6102d260048036038101906102cd91906116fc565b611103565b6040516102df91906114ae565b60405180910390f35b61030260048036038101906102fd9190611c4d565b61112d565b60405161030f9190611c32565b60405180910390f35b610332600480360381019061032d9190611807565b611142565b005b60007f4e2312e0000000000000000000000000000000000000000000000000000000007bffffffffffffffffffffffffffffffffffffffffffffffffffffffff1916827bffffffffffffffffffffffffffffffffffffffffffffffffffffffff191614806103a757506103a68261123a565b5b9050919050565b6000600260009054906101000a900473ffffffffffffffffffffffffffffffffffffffff16905090565b60011515600160009054906101000a900473ffffffffffffffffffffffffffffffffffffffff1673ffffffffffffffffffffffffffffffffffffffff1663191d1cb46040518163ffffffff1660e01b8152600401602060405180830381865afa158015610449573d6000803e3d6000fd5b505050506040513d601f19601f8201168201806040525081019061046d9190611d10565b1515146104af576040517f08c379a00000000000000000000000000000000000000000000000000000000081526004016104a690611d9a565b60405180910390fd5b600160009054906101000a900473ffffffffffffffffffffffffffffffffffffffff1673ffffffffffffffffffffffffffffffffffffffff16636352211e846040518263ffffffff1660e01b815260040161050a9190611dba565b602060405180830381865afa158015610527573d6000803e3d6000fd5b505050506040513d601f19601f8201168201806040525081019061054b9190611dea565b73ffffffffffffffffffffffffffffffffffffffff163373ffffffffffffffffffffffffffffffffffffffff16146105b8576040517f08c379a00000000000000000000000000000000000000000000000000000000081526004016105af90611e63565b60405180910390fd5b600015156008600085815260200190815260200160002060009054906101000a900460ff1615151461061f576040517f08c379a000000000000000000000000000000000000000000000000000000000815260040161061690611ecf565b60405180910390fd5b610628836112a4565b610667576040517f08c379a000000000000000000000000000000000000000000000000000000000815260040161065e90611f3b565b60405180910390fd5b600260009054906101000a900473ffffffffffffffffffffffffffffffffffffffff1673ffffffffffffffffffffffffffffffffffffffff1663e985e9c533306040518363ffffffff1660e01b81526004016106c4929190611f5b565b602060405180830381865afa1580156106e1573d6000803e3d6000fd5b505050506040513d601f19601f820116820180604052508101906107059190611d10565b610744576040517f08c379a000000000000000000000000000000000000000000000000000000000815260040161073b90611fd0565b60405180910390fd5b60008282905067ffffffffffffffff81111561076357610762611961565b5b6040519080825280602002602001820160405280156107915781602001602082028036833780820191505090505b50905060005b838390508110156107d65760018282815181106107b7576107b6611ff0565b5b60200260200101818152505080806107ce9061204e565b915050610797565b50600260009054906101000a900473ffffffffffffffffffffffffffffffffffffffff1673ffffffffffffffffffffffffffffffffffffffff16632eb2c2d633308686866040518663ffffffff1660e01b815260040161083a95949392919061212f565b600060405180830381600087803b15801561085457600080fd5b505af1158015610868573d6000803e3d6000fd5b505050506005544261087a9190612197565b63ffffffff16600a600086815260200190815260200160002081905550600460008154809291906108aa9061204e565b91905055508282600b6000600454815260200190815260200160002091906108d3929190611390565b503360066000600454815260200190815260200160002060006101000a81548173ffffffffffffffffffffffffffffffffffffffff021916908373ffffffffffffffffffffffffffffffffffffffff1602179055508360076000600454815260200190815260200160002081905550600060096000600454815260200190815260200160002060006101000a81548160ff02191690831515021790555060016008600086815260200190815260200160002060006101000a81548160ff0219169083151502179055507f86e3966eac95125f1d265e0199935edf15bc4146fb0a2db534a3207b87e5e7c533856004546040516109d1939291906121ed565b60405180910390a150505050565b6109e76112c4565b73ffffffffffffffffffffffffffffffffffffffff16610a05610e8e565b73ffffffffffffffffffffffffffffffffffffffff1614610a5b576040517f08c379a0000000000000000000000000000000000000000000000000000000008152600401610a5290612270565b60405180910390fd5b86600015156009600083815260200190815260200160002060009054906101000a900460ff16151514610ac3576040517f08c379a0000000000000000000000000000000000000000000000000000000008152600401610aba906122dc565b60405180910390fd5b888881600760008381526020019081526020016000205414610b1a576040517f08c379a0000000000000000000000000000000000000000000000000000000008152600401610b119061236e565b60405180910390fd5b6000600660008c815260200190815260200160002060009054906101000a900473ffffffffffffffffffffffffffffffffffffffff1690506001600960008d815260200190815260200160002060006101000a81548160ff0219169083151502179055506000600860008e815260200190815260200160002060006101000a81548160ff02191690831515021790555060008a8a905067ffffffffffffffff811115610bc957610bc8611961565b5b604051908082528060200260200182016040528015610bf75781602001602082028036833780820191505090505b50905060005b8b8b9050811015610c3c576001828281518110610c1d57610c1c611ff0565b5b6020026020010181815250508080610c349061204e565b915050610bfd565b50600260009054906101000a900473ffffffffffffffffffffffffffffffffffffffff1673ffffffffffffffffffffffffffffffffffffffff16632eb2c2d630848e8e866040518663ffffffff1660e01b8152600401610ca095949392919061212f565b600060405180830381600087803b158015610cba57600080fd5b505af1158015610cce573d6000803e3d6000fd5b50505050600260009054906101000a900473ffffffffffffffffffffffffffffffffffffffff1673ffffffffffffffffffffffffffffffffffffffff1663a46abae7838b8b8b8b6040518663ffffffff1660e01b8152600401610d3595949392919061238e565b600060405180830381600087803b158015610d4f57600080fd5b505af1158015610d63573d6000803e3d6000fd5b505050508c8273ffffffffffffffffffffffffffffffffffffffff167fbcb585d59fbf23e95ea561b810c6f7b83b556ddc1c9d222aefcaeb7d324aaccc8e604051610dae9190611dba565b60405180910390a350505050505050505050505050565b610dcd6112c4565b73ffffffffffffffffffffffffffffffffffffffff16610deb610e8e565b73ffffffffffffffffffffffffffffffffffffffff1614610e41576040517f08c379a0000000000000000000000000000000000000000000000000000000008152600401610e3890612270565b60405180910390fd5b610e4b60006112cc565b565b6000806008600084815260200190815260200160002060009054906101000a900460ff16600a60008581526020019081526020016000205491509150915091565b60008060009054906101000a900473ffffffffffffffffffffffffffffffffffffffff16905090565b600260009054906101000a900473ffffffffffffffffffffffffffffffffffffffff1681565b610ee56112c4565b73ffffffffffffffffffffffffffffffffffffffff16610f03610e8e565b73ffffffffffffffffffffffffffffffffffffffff1614610f59576040517f08c379a0000000000000000000000000000000000000000000000000000000008152600401610f5090612270565b60405180910390fd5b80600260006101000a81548173ffffffffffffffffffffffffffffffffffffffff021916908373ffffffffffffffffffffffffffffffffffffffff16021790555050565b6060600b6000838152602001908152602001600020805480602002602001604051908101604052809291908181526020018280548015610ffc57602002820191906000526020600020905b815481526020019060010190808311610fe8575b50505050509050919050565b600160009054906101000a900473ffffffffffffffffffffffffffffffffffffffff1681565b600063bc197c8160e01b905095945050505050565b61104b6112c4565b73ffffffffffffffffffffffffffffffffffffffff16611069610e8e565b73ffffffffffffffffffffffffffffffffffffffff16146110bf576040517f08c379a00000000000000000000000000000000000000000000000000000000081526004016110b690612270565b60405180910390fd5b80600160006101000a81548173ffffffffffffffffffffffffffffffffffffffff021916908373ffffffffffffffffffffffffffffffffffffffff16021790555050565b60006009600083815260200190815260200160002060009054906101000a900460ff169050919050565b600063f23a6e6160e01b905095945050505050565b61114a6112c4565b73ffffffffffffffffffffffffffffffffffffffff16611168610e8e565b73ffffffffffffffffffffffffffffffffffffffff16146111be576040517f08c379a00000000000000000000000000000000000000000000000000000000081526004016111b590612270565b60405180910390fd5b600073ffffffffffffffffffffffffffffffffffffffff168173ffffffffffffffffffffffffffffffffffffffff16141561122e576040517f08c379a000000000000000000000000000000000000000000000000000000000815260040161122590612449565b60405180910390fd5b611237816112cc565b50565b60007f01ffc9a7000000000000000000000000000000000000000000000000000000007bffffffffffffffffffffffffffffffffffffffffffffffffffffffff1916827bffffffffffffffffffffffffffffffffffffffffffffffffffffffff1916149050919050565b600042600a60008481526020019081526020016000205411159050919050565b600033905090565b60008060009054906101000a900473ffffffffffffffffffffffffffffffffffffffff169050816000806101000a81548173ffffffffffffffffffffffffffffffffffffffff021916908373ffffffffffffffffffffffffffffffffffffffff1602179055508173ffffffffffffffffffffffffffffffffffffffff168173ffffffffffffffffffffffffffffffffffffffff167f8be0079c531659141344cd1fd0a4f28419497f9722a3daafe3b4186f6b6457e060405160405180910390a35050565b8280548282559060005260206000209081019282156113cc579160200282015b828111156113cb5782358255916020019190600101906113b0565b5b5090506113d991906113dd565b5090565b5b808211156113f65760008160009055506001016113de565b5090565b6000604051905090565b600080fd5b600080fd5b60007fffffffff0000000000000000000000000000000000000000000000000000000082169050919050565b6114438161140e565b811461144e57600080fd5b50565b6000813590506114608161143a565b92915050565b60006020828403121561147c5761147b611404565b5b600061148a84828501611451565b91505092915050565b60008115159050919050565b6114a881611493565b82525050565b60006020820190506114c3600083018461149f565b92915050565b600073ffffffffffffffffffffffffffffffffffffffff82169050919050565b60006114f4826114c9565b9050919050565b611504816114e9565b82525050565b600060208201905061151f60008301846114fb565b92915050565b6000819050919050565b61153881611525565b811461154357600080fd5b50565b6000813590506115558161152f565b92915050565b600080fd5b600080fd5b600080fd5b60008083601f8401126115805761157f61155b565b5b8235905067ffffffffffffffff81111561159d5761159c611560565b5b6020830191508360208202830111156115b9576115b8611565565b5b9250929050565b6000806000604084860312156115d9576115d8611404565b5b60006115e786828701611546565b935050602084013567ffffffffffffffff81111561160857611607611409565b5b6116148682870161156a565b92509250509250925092565b60008060008060008060008060a0898b0312156116405761163f611404565b5b600061164e8b828c01611546565b985050602061165f8b828c01611546565b975050604089013567ffffffffffffffff8111156116805761167f611409565b5b61168c8b828c0161156a565b9650965050606089013567ffffffffffffffff8111156116af576116ae611409565b5b6116bb8b828c0161156a565b9450945050608089013567ffffffffffffffff8111156116de576116dd611409565b5b6116ea8b828c0161156a565b92509250509295985092959890939650565b60006020828403121561171257611711611404565b5b600061172084828501611546565b91505092915050565b61173281611525565b82525050565b600060408201905061174d600083018561149f565b61175a6020830184611729565b9392505050565b6000819050919050565b600061178661178161177c846114c9565b611761565b6114c9565b9050919050565b60006117988261176b565b9050919050565b60006117aa8261178d565b9050919050565b6117ba8161179f565b82525050565b60006020820190506117d560008301846117b1565b92915050565b6117e4816114e9565b81146117ef57600080fd5b50565b600081359050611801816117db565b92915050565b60006020828403121561181d5761181c611404565b5b600061182b848285016117f2565b91505092915050565b600081519050919050565b600082825260208201905092915050565b6000819050602082019050919050565b61186981611525565b82525050565b600061187b8383611860565b60208301905092915050565b6000602082019050919050565b600061189f82611834565b6118a9818561183f565b93506118b483611850565b8060005b838110156118e55781516118cc888261186f565b97506118d783611887565b9250506001810190506118b8565b5085935050505092915050565b6000602082019050818103600083015261190c8184611894565b905092915050565b600061191f8261178d565b9050919050565b61192f81611914565b82525050565b600060208201905061194a6000830184611926565b92915050565b6000601f19601f8301169050919050565b7f4e487b7100000000000000000000000000000000000000000000000000000000600052604160045260246000fd5b61199982611950565b810181811067ffffffffffffffff821117156119b8576119b7611961565b5b80604052505050565b60006119cb6113fa565b90506119d78282611990565b919050565b600067ffffffffffffffff8211156119f7576119f6611961565b5b602082029050602081019050919050565b6000611a1b611a16846119dc565b6119c1565b90508083825260208201905060208402830185811115611a3e57611a3d611565565b5b835b81811015611a675780611a538882611546565b845260208401935050602081019050611a40565b5050509392505050565b600082601f830112611a8657611a8561155b565b5b8135611a96848260208601611a08565b91505092915050565b600080fd5b600067ffffffffffffffff821115611abf57611abe611961565b5b611ac882611950565b9050602081019050919050565b82818337600083830152505050565b6000611af7611af284611aa4565b6119c1565b905082815260208101848484011115611b1357611b12611a9f565b5b611b1e848285611ad5565b509392505050565b600082601f830112611b3b57611b3a61155b565b5b8135611b4b848260208601611ae4565b91505092915050565b600080600080600060a08688031215611b7057611b6f611404565b5b6000611b7e888289016117f2565b9550506020611b8f888289016117f2565b945050604086013567ffffffffffffffff811115611bb057611baf611409565b5b611bbc88828901611a71565b935050606086013567ffffffffffffffff811115611bdd57611bdc611409565b5b611be988828901611a71565b925050608086013567ffffffffffffffff811115611c0a57611c09611409565b5b611c1688828901611b26565b9150509295509295909350565b611c2c8161140e565b82525050565b6000602082019050611c476000830184611c23565b92915050565b600080600080600060a08688031215611c6957611c68611404565b5b6000611c77888289016117f2565b9550506020611c88888289016117f2565b9450506040611c9988828901611546565b9350506060611caa88828901611546565b925050608086013567ffffffffffffffff811115611ccb57611cca611409565b5b611cd788828901611b26565b9150509295509295909350565b611ced81611493565b8114611cf857600080fd5b50565b600081519050611d0a81611ce4565b92915050565b600060208284031215611d2657611d25611404565b5b6000611d3484828501611cfb565b91505092915050565b600082825260208201905092915050565b7f6e6f74207369676e656420757000000000000000000000000000000000000000600082015250565b6000611d84600d83611d3d565b9150611d8f82611d4e565b602082019050919050565b60006020820190508181036000830152611db381611d77565b9050919050565b6000602082019050611dcf6000830184611729565b92915050565b600081519050611de4816117db565b92915050565b600060208284031215611e0057611dff611404565b5b6000611e0e84828501611dd5565b91505092915050565b7f6e6f74206865726f206f776e6572000000000000000000000000000000000000600082015250565b6000611e4d600e83611d3d565b9150611e5882611e17565b602082019050919050565b60006020820190508181036000830152611e7c81611e40565b9050919050565b7f616c726561647920616476656e747572696e6700000000000000000000000000600082015250565b6000611eb9601383611d3d565b9150611ec482611e83565b602082019050919050565b60006020820190508181036000830152611ee881611eac565b9050919050565b7f6e6f742072656164790000000000000000000000000000000000000000000000600082015250565b6000611f25600983611d3d565b9150611f3082611eef565b602082019050919050565b60006020820190508181036000830152611f5481611f18565b9050919050565b6000604082019050611f7060008301856114fb565b611f7d60208301846114fb565b9392505050565b7f596f75206d75737420617070726f766520666972737400000000000000000000600082015250565b6000611fba601683611d3d565b9150611fc582611f84565b602082019050919050565b60006020820190508181036000830152611fe981611fad565b9050919050565b7f4e487b7100000000000000000000000000000000000000000000000000000000600052603260045260246000fd5b7f4e487b7100000000000000000000000000000000000000000000000000000000600052601160045260246000fd5b600061205982611525565b91507fffffffffffffffffffffffffffffffffffffffffffffffffffffffffffffffff82141561208c5761208b61201f565b5b600182019050919050565b600080fd5b60006120a8838561183f565b93507f07ffffffffffffffffffffffffffffffffffffffffffffffffffffffffffffff8311156120db576120da612097565b5b6020830292506120ec838584611ad5565b82840190509392505050565b600082825260208201905092915050565b50565b60006121196000836120f8565b915061212482612109565b600082019050919050565b600060a08201905061214460008301886114fb565b61215160208301876114fb565b818103604083015261216481858761209c565b905081810360608301526121788184611894565b9050818103608083015261218b8161210c565b90509695505050505050565b60006121a282611525565b91506121ad83611525565b9250827fffffffffffffffffffffffffffffffffffffffffffffffffffffffffffffffff038211156121e2576121e161201f565b5b828201905092915050565b600060608201905061220260008301866114fb565b61220f6020830185611729565b61221c6040830184611729565b949350505050565b7f4f776e61626c653a2063616c6c6572206973206e6f7420746865206f776e6572600082015250565b600061225a602083611d3d565b915061226582612224565b602082019050919050565b600060208201905081810360008301526122898161224d565b9050919050565b7f416476656e7475726520616c726561647920636f6d706c657465640000000000600082015250565b60006122c6601b83611d3d565b91506122d182612290565b602082019050919050565b600060208201905081810360008301526122f5816122b9565b9050919050565b7f54686973206865726f206973206e6f74206f6e207468697320616476656e747560008201527f7265000000000000000000000000000000000000000000000000000000000000602082015250565b6000612358602283611d3d565b9150612363826122fc565b604082019050919050565b600060208201905081810360008301526123878161234b565b9050919050565b60006060820190506123a360008301886114fb565b81810360208301526123b681868861209c565b905081810360408301526123cb81848661209c565b90509695505050505050565b7f4f776e61626c653a206e6577206f776e657220697320746865207a65726f206160008201527f6464726573730000000000000000000000000000000000000000000000000000602082015250565b6000612433602683611d3d565b915061243e826123d7565b604082019050919050565b6000602082019050818103600083015261246281612426565b905091905056fea2646970667358221220fa7d264326e87dfb403e98901c6347118dd5355244cb0686df20d75a26091d7864736f6c634300080a0033",
  "immutableReferences": {},
  "source": "// SPDX-License-Identifier: MIT\r\npragma solidity ^0.8.7;\r\nimport \"./IotaHeroFactory.sol\";\r\nimport \"./IotaHeroGameTokens.sol\";\r\nimport \"@openzeppelin/contracts/access/Ownable.sol\";\r\nimport \"@openzeppelin/contracts/token/ERC1155/utils/ERC1155Receiver.sol\";\r\n\r\ncontract IotaHeroAdventure is Ownable, ERC1155Receiver {\r\n    IotaHeroFactory public heroToken;\r\n    IotaHeroGameTokens public tokens;\r\n    uint256 randomNonce = 0;\r\n    uint256 adventureCounter = 0;\r\n    uint256 adventureCoolDown = 30 seconds;\r\n\r\n    mapping(uint256 => address) adventureToAccount;\r\n    mapping(uint256 => uint256) adventureToHero;\r\n    mapping(uint256 => bool) heroIsAdventuring;\r\n    mapping(uint256 => bool) adventureToCompleted;\r\n    mapping(uint256 => uint256) heroIsReadyToAdventureAt;\r\n    mapping(uint256 => uint256[]) adventureToEquipment;\r\n\r\n    modifier correctHeroForAdventure(uint256 _heroId, uint256 _adventureId) {\r\n        require(\r\n            adventureToHero[_adventureId] == _heroId,\r\n            \"This hero is not on this adventure\"\r\n        );\r\n        _;\r\n    }\r\n    modifier adventureNotCompleted(uint256 _adventureId) {\r\n        require(\r\n            adventureToCompleted[_adventureId] == false,\r\n            \"Adventure already completed\"\r\n        );\r\n        _;\r\n    }\r\n\r\n    function setHeroTokens(address tokensAddress) public onlyOwner {\r\n        heroToken = IotaHeroFactory(tokensAddress);\r\n    }\r\n\r\n    function setTokens(address tokensAddress) public onlyOwner {\r\n        tokens = IotaHeroGameTokens(tokensAddress);\r\n    }\r\n\r\n    function getTokenAddress() public view returns (address) {\r\n        return address(tokens);\r\n    }\r\n\r\n    event AdventureInitiated(\r\n        address player,\r\n        uint256 heroId,\r\n        uint256 adventureId\r\n    );\r\n    event AdventureCompleted(\r\n        address indexed player,\r\n        uint256 indexed heroId,\r\n        uint256 adventureId\r\n    );\r\n\r\n    function completeAdventure(\r\n        uint256 _heroId,\r\n        uint256 adventureId,\r\n        uint256[] calldata itemsToReturn,\r\n        uint256[] calldata lootTokenIds,\r\n        uint256[] calldata lootAmounts\r\n    )\r\n        external\r\n        onlyOwner\r\n        adventureNotCompleted(adventureId)\r\n        correctHeroForAdventure(_heroId, adventureId)\r\n    {\r\n        address player = adventureToAccount[adventureId];\r\n        adventureToCompleted[adventureId] = true;\r\n        heroIsAdventuring[_heroId] = false;\r\n\r\n        uint256[] memory arr = new uint256[](itemsToReturn.length);\r\n        for (uint256 i = 0; i < itemsToReturn.length; i++) {\r\n            arr[i] = 1;\r\n        }\r\n        // return equipment items from the adventure\r\n        tokens.safeBatchTransferFrom(\r\n            address(this),\r\n            player,\r\n            itemsToReturn,\r\n            arr,\r\n            \"\"\r\n        );\r\n        tokens.awardAdventurer(player, lootTokenIds, lootAmounts);\r\n        emit AdventureCompleted(player, _heroId, adventureId);\r\n    }\r\n\r\n    function heroIsReadyToAdventure(uint256 _heroId)\r\n        internal\r\n        view\r\n        returns (bool)\r\n    {\r\n        return (heroIsReadyToAdventureAt[_heroId] <= block.timestamp);\r\n    }\r\n\r\n    function isAdventureCompleted(uint256 _adventureId)\r\n        public\r\n        view\r\n        returns (bool)\r\n    {\r\n        return adventureToCompleted[_adventureId];\r\n    }\r\n\r\n    function getEquipmentForAdventure(uint256 _adventureId)\r\n        public\r\n        view\r\n        returns (uint256[] memory)\r\n    {\r\n        return adventureToEquipment[_adventureId];\r\n    }\r\n\r\n    function getHeroAdventureStatus(uint256 _heroId)\r\n        external\r\n        view\r\n        returns (bool, uint256)\r\n    {\r\n        return (heroIsAdventuring[_heroId], heroIsReadyToAdventureAt[_heroId]);\r\n    }\r\n\r\n    function goAdventure(uint256 _heroId, uint256[] calldata _equipment)\r\n        external\r\n    {\r\n        require(heroToken.isSignedUp() == true, \"not signed up\");\r\n        require(msg.sender == heroToken.ownerOf(_heroId), \"not hero owner\");\r\n        require(heroIsAdventuring[_heroId] == false, \"already adventuring\");\r\n        require(heroIsReadyToAdventure(_heroId), \"not ready\");\r\n        require(\r\n            tokens.isApprovedForAll(msg.sender, address(this)),\r\n            \"You must approve first\"\r\n        );\r\n        uint256[] memory arr = new uint256[](_equipment.length);\r\n        for (uint256 i = 0; i < _equipment.length; i++) {\r\n            arr[i] = 1;\r\n        }\r\n        tokens.safeBatchTransferFrom(\r\n            msg.sender,\r\n            address(this),\r\n            _equipment,\r\n            arr,\r\n            \"\"\r\n        );\r\n        heroIsReadyToAdventureAt[_heroId] = uint32(\r\n            block.timestamp + adventureCoolDown\r\n        );\r\n        adventureCounter++;\r\n        adventureToEquipment[adventureCounter] = _equipment;\r\n        adventureToAccount[adventureCounter] = msg.sender;\r\n        adventureToHero[adventureCounter] = _heroId;\r\n        adventureToCompleted[adventureCounter] = false;\r\n        heroIsAdventuring[_heroId] = true;\r\n        emit AdventureInitiated(msg.sender, _heroId, adventureCounter);\r\n    }\r\n\r\n    function onERC1155Received(\r\n        address,\r\n        address,\r\n        uint256 tokenId,\r\n        uint256 amount,\r\n        bytes memory data\r\n    ) public virtual override returns (bytes4) {\r\n        return this.onERC1155Received.selector;\r\n    }\r\n\r\n    function onERC1155BatchReceived(\r\n        address,\r\n        address,\r\n        uint256[] memory ids,\r\n        uint256[] memory amounts,\r\n        bytes memory data\r\n    ) public virtual override returns (bytes4) {\r\n        return this.onERC1155BatchReceived.selector;\r\n    }\r\n}\r\n",
  "sourcePath": "C:\\Users\\creld\\source\\repos\\IotaHeroesAzure\\smartcontracts\\contracts\\IotaHeroAdventure.sol",
  "compiler": {
    "name": "solc",
    "version": "0.8.10+commit.fc410830.Emscripten.clang"
  },
  "schemaVersion": "3.4.4",
  "updatedAt": "2022-04-24T10:21:17.214Z",
  "networkType": "ethereum",
  "devdoc": {
    "kind": "dev",
    "methods": {
      "owner()": {
        "details": "Returns the address of the current owner."
      },
      "renounceOwnership()": {
        "details": "Leaves the contract without owner. It will not be possible to call `onlyOwner` functions anymore. Can only be called by the current owner. NOTE: Renouncing ownership will leave the contract without an owner, thereby removing any functionality that is only available to the owner."
      },
      "supportsInterface(bytes4)": {
        "details": "See {IERC165-supportsInterface}."
      },
      "transferOwnership(address)": {
        "details": "Transfers ownership of the contract to a new account (`newOwner`). Can only be called by the current owner."
      }
    },
    "version": 1
  },
  "userdoc": {
    "kind": "user",
    "methods": {},
    "version": 1
  }
}