{
  "contractName": "IotaHeroFactory",
  "abi": [
    {
      "inputs": [],
      "stateMutability": "nonpayable",
      "type": "constructor"
    },
    {
      "anonymous": false,
      "inputs": [
        {
          "indexed": true,
          "internalType": "address",
          "name": "owner",
          "type": "address"
        },
        {
          "indexed": true,
          "internalType": "address",
          "name": "approved",
          "type": "address"
        },
        {
          "indexed": true,
          "internalType": "uint256",
          "name": "tokenId",
          "type": "uint256"
        }
      ],
      "name": "Approval",
      "type": "event"
    },
    {
      "anonymous": false,
      "inputs": [
        {
          "indexed": true,
          "internalType": "address",
          "name": "owner",
          "type": "address"
        },
        {
          "indexed": true,
          "internalType": "address",
          "name": "operator",
          "type": "address"
        },
        {
          "indexed": false,
          "internalType": "bool",
          "name": "approved",
          "type": "bool"
        }
      ],
      "name": "ApprovalForAll",
      "type": "event"
    },
    {
      "anonymous": false,
      "inputs": [
        {
          "indexed": true,
          "internalType": "address",
          "name": "owner",
          "type": "address"
        },
        {
          "indexed": false,
          "internalType": "uint256",
          "name": "id",
          "type": "uint256"
        },
        {
          "indexed": false,
          "internalType": "uint256",
          "name": "dna",
          "type": "uint256"
        }
      ],
      "name": "HeroMinted",
      "type": "event"
    },
    {
      "anonymous": false,
      "inputs": [
        {
          "indexed": true,
          "internalType": "address",
          "name": "previousOwner",
          "type": "address"
        },
        {
          "indexed": true,
          "internalType": "address",
          "name": "newOwner",
          "type": "address"
        }
      ],
      "name": "OwnershipTransferred",
      "type": "event"
    },
    {
      "anonymous": false,
      "inputs": [
        {
          "indexed": true,
          "internalType": "address",
          "name": "from",
          "type": "address"
        },
        {
          "indexed": true,
          "internalType": "address",
          "name": "to",
          "type": "address"
        },
        {
          "indexed": true,
          "internalType": "uint256",
          "name": "tokenId",
          "type": "uint256"
        }
      ],
      "name": "Transfer",
      "type": "event"
    },
    {
      "inputs": [
        {
          "internalType": "address",
          "name": "",
          "type": "address"
        }
      ],
      "name": "addressToId",
      "outputs": [
        {
          "internalType": "uint256",
          "name": "",
          "type": "uint256"
        }
      ],
      "stateMutability": "view",
      "type": "function"
    },
    {
      "inputs": [
        {
          "internalType": "address",
          "name": "to",
          "type": "address"
        },
        {
          "internalType": "uint256",
          "name": "tokenId",
          "type": "uint256"
        }
      ],
      "name": "approve",
      "outputs": [],
      "stateMutability": "nonpayable",
      "type": "function"
    },
    {
      "inputs": [
        {
          "internalType": "address",
          "name": "owner",
          "type": "address"
        }
      ],
      "name": "balanceOf",
      "outputs": [
        {
          "internalType": "uint256",
          "name": "",
          "type": "uint256"
        }
      ],
      "stateMutability": "view",
      "type": "function"
    },
    {
      "inputs": [],
      "name": "currentUserCount",
      "outputs": [
        {
          "internalType": "uint256",
          "name": "",
          "type": "uint256"
        }
      ],
      "stateMutability": "view",
      "type": "function"
    },
    {
      "inputs": [
        {
          "internalType": "uint256",
          "name": "tokenId",
          "type": "uint256"
        }
      ],
      "name": "getApproved",
      "outputs": [
        {
          "internalType": "address",
          "name": "",
          "type": "address"
        }
      ],
      "stateMutability": "view",
      "type": "function"
    },
    {
      "inputs": [],
      "name": "getUsername",
      "outputs": [
        {
          "internalType": "string",
          "name": "",
          "type": "string"
        }
      ],
      "stateMutability": "view",
      "type": "function"
    },
    {
      "inputs": [
        {
          "internalType": "address",
          "name": "_address",
          "type": "address"
        }
      ],
      "name": "getUsernameByAddress",
      "outputs": [
        {
          "internalType": "string",
          "name": "",
          "type": "string"
        }
      ],
      "stateMutability": "view",
      "type": "function"
    },
    {
      "inputs": [],
      "name": "getUsernameLength",
      "outputs": [
        {
          "internalType": "uint256",
          "name": "",
          "type": "uint256"
        }
      ],
      "stateMutability": "view",
      "type": "function"
    },
    {
      "inputs": [
        {
          "internalType": "uint256",
          "name": "",
          "type": "uint256"
        }
      ],
      "name": "heroes",
      "outputs": [
        {
          "internalType": "uint256",
          "name": "id",
          "type": "uint256"
        },
        {
          "internalType": "uint256",
          "name": "dna",
          "type": "uint256"
        },
        {
          "internalType": "uint256",
          "name": "constitution",
          "type": "uint256"
        },
        {
          "internalType": "uint256",
          "name": "strength",
          "type": "uint256"
        },
        {
          "internalType": "uint256",
          "name": "agility",
          "type": "uint256"
        },
        {
          "internalType": "uint256",
          "name": "intelligence",
          "type": "uint256"
        },
        {
          "internalType": "uint256",
          "name": "restingTill",
          "type": "uint256"
        },
        {
          "internalType": "string",
          "name": "name",
          "type": "string"
        }
      ],
      "stateMutability": "view",
      "type": "function"
    },
    {
      "inputs": [
        {
          "internalType": "uint256",
          "name": "",
          "type": "uint256"
        }
      ],
      "name": "idToAddress",
      "outputs": [
        {
          "internalType": "address",
          "name": "",
          "type": "address"
        }
      ],
      "stateMutability": "view",
      "type": "function"
    },
    {
      "inputs": [
        {
          "internalType": "uint256",
          "name": "",
          "type": "uint256"
        }
      ],
      "name": "idToUsername",
      "outputs": [
        {
          "internalType": "string",
          "name": "",
          "type": "string"
        }
      ],
      "stateMutability": "view",
      "type": "function"
    },
    {
      "inputs": [
        {
          "internalType": "address",
          "name": "owner",
          "type": "address"
        },
        {
          "internalType": "address",
          "name": "operator",
          "type": "address"
        }
      ],
      "name": "isApprovedForAll",
      "outputs": [
        {
          "internalType": "bool",
          "name": "",
          "type": "bool"
        }
      ],
      "stateMutability": "view",
      "type": "function"
    },
    {
      "inputs": [],
      "name": "isSignedUp",
      "outputs": [
        {
          "internalType": "bool",
          "name": "",
          "type": "bool"
        }
      ],
      "stateMutability": "view",
      "type": "function"
    },
    {
      "inputs": [],
      "name": "name",
      "outputs": [
        {
          "internalType": "string",
          "name": "",
          "type": "string"
        }
      ],
      "stateMutability": "view",
      "type": "function"
    },
    {
      "inputs": [],
      "name": "owner",
      "outputs": [
        {
          "internalType": "address",
          "name": "",
          "type": "address"
        }
      ],
      "stateMutability": "view",
      "type": "function"
    },
    {
      "inputs": [
        {
          "internalType": "uint256",
          "name": "tokenId",
          "type": "uint256"
        }
      ],
      "name": "ownerOf",
      "outputs": [
        {
          "internalType": "address",
          "name": "",
          "type": "address"
        }
      ],
      "stateMutability": "view",
      "type": "function"
    },
    {
      "inputs": [],
      "name": "renounceOwnership",
      "outputs": [],
      "stateMutability": "nonpayable",
      "type": "function"
    },
    {
      "inputs": [
        {
          "internalType": "address",
          "name": "from",
          "type": "address"
        },
        {
          "internalType": "address",
          "name": "to",
          "type": "address"
        },
        {
          "internalType": "uint256",
          "name": "tokenId",
          "type": "uint256"
        }
      ],
      "name": "safeTransferFrom",
      "outputs": [],
      "stateMutability": "nonpayable",
      "type": "function"
    },
    {
      "inputs": [
        {
          "internalType": "address",
          "name": "from",
          "type": "address"
        },
        {
          "internalType": "address",
          "name": "to",
          "type": "address"
        },
        {
          "internalType": "uint256",
          "name": "tokenId",
          "type": "uint256"
        },
        {
          "internalType": "bytes",
          "name": "_data",
          "type": "bytes"
        }
      ],
      "name": "safeTransferFrom",
      "outputs": [],
      "stateMutability": "nonpayable",
      "type": "function"
    },
    {
      "inputs": [
        {
          "internalType": "address",
          "name": "operator",
          "type": "address"
        },
        {
          "internalType": "bool",
          "name": "approved",
          "type": "bool"
        }
      ],
      "name": "setApprovalForAll",
      "outputs": [],
      "stateMutability": "nonpayable",
      "type": "function"
    },
    {
      "inputs": [
        {
          "internalType": "string",
          "name": "_username",
          "type": "string"
        }
      ],
      "name": "signUp",
      "outputs": [],
      "stateMutability": "nonpayable",
      "type": "function"
    },
    {
      "inputs": [
        {
          "internalType": "bytes4",
          "name": "interfaceId",
          "type": "bytes4"
        }
      ],
      "name": "supportsInterface",
      "outputs": [
        {
          "internalType": "bool",
          "name": "",
          "type": "bool"
        }
      ],
      "stateMutability": "view",
      "type": "function"
    },
    {
      "inputs": [],
      "name": "symbol",
      "outputs": [
        {
          "internalType": "string",
          "name": "",
          "type": "string"
        }
      ],
      "stateMutability": "view",
      "type": "function"
    },
    {
      "inputs": [
        {
          "internalType": "uint256",
          "name": "tokenId",
          "type": "uint256"
        }
      ],
      "name": "tokenURI",
      "outputs": [
        {
          "internalType": "string",
          "name": "",
          "type": "string"
        }
      ],
      "stateMutability": "view",
      "type": "function"
    },
    {
      "inputs": [
        {
          "internalType": "address",
          "name": "from",
          "type": "address"
        },
        {
          "internalType": "address",
          "name": "to",
          "type": "address"
        },
        {
          "internalType": "uint256",
          "name": "tokenId",
          "type": "uint256"
        }
      ],
      "name": "transferFrom",
      "outputs": [],
      "stateMutability": "nonpayable",
      "type": "function"
    },
    {
      "inputs": [
        {
          "internalType": "address",
          "name": "newOwner",
          "type": "address"
        }
      ],
      "name": "transferOwnership",
      "outputs": [],
      "stateMutability": "nonpayable",
      "type": "function"
    },
    {
      "inputs": [
        {
          "internalType": "string",
          "name": "_username",
          "type": "string"
        }
      ],
      "name": "usernameExists",
      "outputs": [
        {
          "internalType": "bool",
          "name": "",
          "type": "bool"
        }
      ],
      "stateMutability": "view",
      "type": "function"
    },
    {
      "inputs": [
        {
          "internalType": "string",
          "name": "",
          "type": "string"
        }
      ],
      "name": "usernameToId",
      "outputs": [
        {
          "internalType": "uint256",
          "name": "",
          "type": "uint256"
        }
      ],
      "stateMutability": "view",
      "type": "function"
    },
    {
      "inputs": [
        {
          "internalType": "uint256",
          "name": "_heroId",
          "type": "uint256"
        },
        {
          "internalType": "string",
          "name": "_name",
          "type": "string"
        }
      ],
      "name": "nameChange",
      "outputs": [],
      "stateMutability": "nonpayable",
      "type": "function"
    },
    {
      "inputs": [],
      "name": "spawnHero",
      "outputs": [],
      "stateMutability": "nonpayable",
      "type": "function"
    }
  ],
  "bytecode": "0x608060405260016007556000600c55601e600d553480156200002057600080fd5b506040518060400160405280600881526020017f496f74614865726f0000000000000000000000000000000000000000000000008152506040518060400160405280600281526020017f49480000000000000000000000000000000000000000000000000000000000008152508160009080519060200190620000a5929190620001b5565b508060019080519060200190620000be929190620001b5565b505050620000e1620000d5620000e760201b60201c565b620000ef60201b60201c565b620002ca565b600033905090565b6000600660009054906101000a900473ffffffffffffffffffffffffffffffffffffffff16905081600660006101000a81548173ffffffffffffffffffffffffffffffffffffffff021916908373ffffffffffffffffffffffffffffffffffffffff1602179055508173ffffffffffffffffffffffffffffffffffffffff168173ffffffffffffffffffffffffffffffffffffffff167f8be0079c531659141344cd1fd0a4f28419497f9722a3daafe3b4186f6b6457e060405160405180910390a35050565b828054620001c39062000294565b90600052602060002090601f016020900481019282620001e7576000855562000233565b82601f106200020257805160ff191683800117855562000233565b8280016001018555821562000233579182015b828111156200023257825182559160200191906001019062000215565b5b50905062000242919062000246565b5090565b5b808211156200026157600081600090555060010162000247565b5090565b7f4e487b7100000000000000000000000000000000000000000000000000000000600052602260045260246000fd5b60006002820490506001821680620002ad57607f821691505b60208210811415620002c457620002c362000265565b5b50919050565b61403a80620002da6000396000f3fe608060405234801561001057600080fd5b50600436106101da5760003560e01c8063715018a611610104578063b88d4fde116100a2578063ed1a998d11610071578063ed1a998d14610582578063f1c46606146105b2578063f2fde38b146105d0578063f309e3f9146105ec576101da565b8063b88d4fde146104d6578063c87b56dd146104f2578063cb0e0d7d14610522578063e985e9c514610552576101da565b80639f72ed76116100de5780639f72ed761461045d578063a22cb46514610467578063a8d4a03b14610483578063adcfb4fc146104ba576101da565b8063715018a6146104175780638da5cb5b1461042157806395d89b411461043f576101da565b806339bdca1f1161017c5780636352211e1161014b5780636352211e1461037b578063681f3e6d146103ab5780636d0cac8e146103c957806370a08231146103e7576101da565b806339bdca1f146102e357806342842e0e1461031357806348646f7b1461032f5780635e1fe1db1461034b576101da565b8063095ea7b3116101b8578063095ea7b31461025d578063191d1cb41461027957806323b872dd146102975780632a2d0c47146102b3576101da565b806301ffc9a7146101df57806306fdde031461020f578063081812fc1461022d575b600080fd5b6101f960048036038101906101f49190612a10565b61061c565b6040516102069190612a58565b60405180910390f35b6102176106fe565b6040516102249190612b0c565b60405180910390f35b61024760048036038101906102429190612b64565b610790565b6040516102549190612bd2565b60405180910390f35b61027760048036038101906102729190612c19565b610815565b005b61028161092d565b60405161028e9190612a58565b60405180910390f35b6102b160048036038101906102ac9190612c59565b610977565b005b6102cd60048036038101906102c89190612b64565b6109d7565b6040516102da9190612bd2565b60405180910390f35b6102fd60048036038101906102f89190612b64565b610a0a565b60405161030a9190612b0c565b60405180910390f35b61032d60048036038101906103289190612c59565b610aaa565b005b61034960048036038101906103449190612de1565b610aca565b005b61036560048036038101906103609190612e3d565b610c32565b6040516103729190612e95565b60405180910390f35b61039560048036038101906103909190612b64565b610c60565b6040516103a29190612bd2565b60405180910390f35b6103b3610d12565b6040516103c09190612b0c565b60405180910390f35b6103d1610df4565b6040516103de9190612e95565b60405180910390f35b61040160048036038101906103fc9190612eb0565b610e0a565b60405161040e9190612e95565b60405180910390f35b61041f610ec2565b005b610429610f4a565b6040516104369190612bd2565b60405180910390f35b610447610f74565b6040516104549190612b0c565b60405180910390f35b610465611006565b005b610481600480360381019061047c9190612f09565b6110a4565b005b61049d60048036038101906104989190612b64565b6110ba565b6040516104b1989796959493929190612f49565b60405180910390f35b6104d460048036038101906104cf9190612e3d565b61119a565b005b6104f060048036038101906104eb919061306f565b6113e2565b005b61050c60048036038101906105079190612b64565b611444565b6040516105199190612b0c565b60405180910390f35b61053c60048036038101906105379190612eb0565b6114eb565b6040516105499190612e95565b60405180910390f35b61056c600480360381019061056791906130f2565b611503565b6040516105799190612a58565b60405180910390f35b61059c60048036038101906105979190612eb0565b611597565b6040516105a99190612b0c565b60405180910390f35b6105ba61167b565b6040516105c79190612e95565b60405180910390f35b6105ea60048036038101906105e59190612eb0565b611697565b005b61060660048036038101906106019190612e3d565b61178f565b6040516106139190612a58565b60405180910390f35b60007f80ac58cd000000000000000000000000000000000000000000000000000000007bffffffffffffffffffffffffffffffffffffffffffffffffffffffff1916827bffffffffffffffffffffffffffffffffffffffffffffffffffffffff191614806106e757507f5b5e139f000000000000000000000000000000000000000000000000000000007bffffffffffffffffffffffffffffffffffffffffffffffffffffffff1916827bffffffffffffffffffffffffffffffffffffffffffffffffffffffff1916145b806106f757506106f6826117ba565b5b9050919050565b60606000805461070d90613161565b80601f016020809104026020016040519081016040528092919081815260200182805461073990613161565b80156107865780601f1061075b57610100808354040283529160200191610786565b820191906000526020600020905b81548152906001019060200180831161076957829003601f168201915b5050505050905090565b600061079b82611824565b6107da576040517f08c379a00000000000000000000000000000000000000000000000000000000081526004016107d190613205565b60405180910390fd5b6004600083815260200190815260200160002060009054906101000a900473ffffffffffffffffffffffffffffffffffffffff169050919050565b600061082082610c60565b90508073ffffffffffffffffffffffffffffffffffffffff168373ffffffffffffffffffffffffffffffffffffffff161415610891576040517f08c379a000000000000000000000000000000000000000000000000000000000815260040161088890613297565b60405180910390fd5b8073ffffffffffffffffffffffffffffffffffffffff166108b0611890565b73ffffffffffffffffffffffffffffffffffffffff1614806108df57506108de816108d9611890565b611503565b5b61091e576040517f08c379a000000000000000000000000000000000000000000000000000000000815260040161091590613329565b60405180910390fd5b6109288383611898565b505050565b600080600a60003373ffffffffffffffffffffffffffffffffffffffff1673ffffffffffffffffffffffffffffffffffffffff168152602001908152602001600020541415905090565b610988610982611890565b82611951565b6109c7576040517f08c379a00000000000000000000000000000000000000000000000000000000081526004016109be906133bb565b60405180910390fd5b6109d2838383611a2f565b505050565b60086020528060005260406000206000915054906101000a900473ffffffffffffffffffffffffffffffffffffffff1681565b60096020528060005260406000206000915090508054610a2990613161565b80601f0160208091040260200160405190810160405280929190818152602001828054610a5590613161565b8015610aa25780601f10610a7757610100808354040283529160200191610aa2565b820191906000526020600020905b815481529060010190602001808311610a8557829003601f168201915b505050505081565b610ac5838383604051806020016040528060008152506113e2565b505050565b6000600a60003373ffffffffffffffffffffffffffffffffffffffff1673ffffffffffffffffffffffffffffffffffffffff168152602001908152602001600020541415610b4d576040517f08c379a0000000000000000000000000000000000000000000000000000000008152600401610b4490613427565b60405180910390fd5b81610b5781610c60565b73ffffffffffffffffffffffffffffffffffffffff163373ffffffffffffffffffffffffffffffffffffffff1614610b8e57600080fd5b816000610b9a82611c8b565b9050600d81108015610bac5750600281115b610beb576040517f08c379a0000000000000000000000000000000000000000000000000000000008152600401610be2906134b9565b60405180910390fd5b6000600e8681548110610c0157610c006134d9565b5b9060005260206000209060080201905084816007019080519060200190610c29929190612901565b50505050505050565b600b818051602081018201805184825260208301602085012081835280955050505050506000915090505481565b6000806002600084815260200190815260200160002060009054906101000a900473ffffffffffffffffffffffffffffffffffffffff169050600073ffffffffffffffffffffffffffffffffffffffff168173ffffffffffffffffffffffffffffffffffffffff161415610d09576040517f08c379a0000000000000000000000000000000000000000000000000000000008152600401610d009061357a565b60405180910390fd5b80915050919050565b606060096000600a60003373ffffffffffffffffffffffffffffffffffffffff1673ffffffffffffffffffffffffffffffffffffffff1681526020019081526020016000205481526020019081526020016000208054610d7190613161565b80601f0160208091040260200160405190810160405280929190818152602001828054610d9d90613161565b8015610dea5780601f10610dbf57610100808354040283529160200191610dea565b820191906000526020600020905b815481529060010190602001808311610dcd57829003601f168201915b5050505050905090565b60006001600754610e0591906135c9565b905090565b60008073ffffffffffffffffffffffffffffffffffffffff168273ffffffffffffffffffffffffffffffffffffffff161415610e7b576040517f08c379a0000000000000000000000000000000000000000000000000000000008152600401610e729061366f565b60405180910390fd5b600360008373ffffffffffffffffffffffffffffffffffffffff1673ffffffffffffffffffffffffffffffffffffffff168152602001908152602001600020549050919050565b610eca611890565b73ffffffffffffffffffffffffffffffffffffffff16610ee8610f4a565b73ffffffffffffffffffffffffffffffffffffffff1614610f3e576040517f08c379a0000000000000000000000000000000000000000000000000000000008152600401610f35906136db565b60405180910390fd5b610f486000611f48565b565b6000600660009054906101000a900473ffffffffffffffffffffffffffffffffffffffff16905090565b606060018054610f8390613161565b80601f0160208091040260200160405190810160405280929190818152602001828054610faf90613161565b8015610ffc5780601f10610fd157610100808354040283529160200191610ffc565b820191906000526020600020905b815481529060010190602001808311610fdf57829003601f168201915b5050505050905090565b6000600a60003373ffffffffffffffffffffffffffffffffffffffff1673ffffffffffffffffffffffffffffffffffffffff168152602001908152602001600020541415611089576040517f08c379a000000000000000000000000000000000000000000000000000000000815260040161108090613427565b60405180910390fd5b6000611096600c5461200e565b90506110a181612061565b50565b6110b66110af611890565b83836121c3565b5050565b600e81815481106110ca57600080fd5b906000526020600020906008020160009150905080600001549080600101549080600201549080600301549080600401549080600501549080600601549080600701805461111790613161565b80601f016020809104026020016040519081016040528092919081815260200182805461114390613161565b80156111905780601f1061116557610100808354040283529160200191611190565b820191906000526020600020905b81548152906001019060200180831161117357829003601f168201915b5050505050905088565b806000600b826040516111ad9190613737565b908152602001604051809103902054146111fc576040517f08c379a00000000000000000000000000000000000000000000000000000000081526004016111f39061379a565b60405180910390fd5b6000600a60003373ffffffffffffffffffffffffffffffffffffffff1673ffffffffffffffffffffffffffffffffffffffff168152602001908152602001600020541461127e576040517f08c379a000000000000000000000000000000000000000000000000000000000815260040161127590613806565b60405180910390fd5b81600061128a82611c8b565b9050600d8110801561129c5750600281115b6112db576040517f08c379a00000000000000000000000000000000000000000000000000000000081526004016112d290613898565b60405180910390fd5b600754600a60003373ffffffffffffffffffffffffffffffffffffffff1673ffffffffffffffffffffffffffffffffffffffff168152602001908152602001600020819055503360086000600754815260200190815260200160002060006101000a81548173ffffffffffffffffffffffffffffffffffffffff021916908373ffffffffffffffffffffffffffffffffffffffff16021790555083600960006007548152602001908152602001600020908051906020019061139e929190612901565b50600754600b856040516113b29190613737565b908152602001604051809103902081905550600760008154809291906113d7906138b8565b919050555050505050565b6113f36113ed611890565b83611951565b611432576040517f08c379a0000000000000000000000000000000000000000000000000000000008152600401611429906133bb565b60405180910390fd5b61143e84848484612330565b50505050565b606061144f82611824565b61148e576040517f08c379a000000000000000000000000000000000000000000000000000000000815260040161148590613973565b60405180910390fd5b600061149861238c565b905060008151116114b857604051806020016040528060008152506114e3565b806114c2846123a3565b6040516020016114d3929190613993565b6040516020818303038152906040525b915050919050565b600a6020528060005260406000206000915090505481565b6000600560008473ffffffffffffffffffffffffffffffffffffffff1673ffffffffffffffffffffffffffffffffffffffff16815260200190815260200160002060008373ffffffffffffffffffffffffffffffffffffffff1673ffffffffffffffffffffffffffffffffffffffff16815260200190815260200160002060009054906101000a900460ff16905092915050565b606060096000600a60008573ffffffffffffffffffffffffffffffffffffffff1673ffffffffffffffffffffffffffffffffffffffff16815260200190815260200160002054815260200190815260200160002080546115f690613161565b80601f016020809104026020016040519081016040528092919081815260200182805461162290613161565b801561166f5780601f106116445761010080835404028352916020019161166f565b820191906000526020600020905b81548152906001019060200180831161165257829003601f168201915b50505050509050919050565b600080611686610d12565b905061169181611c8b565b91505090565b61169f611890565b73ffffffffffffffffffffffffffffffffffffffff166116bd610f4a565b73ffffffffffffffffffffffffffffffffffffffff1614611713576040517f08c379a000000000000000000000000000000000000000000000000000000000815260040161170a906136db565b60405180910390fd5b600073ffffffffffffffffffffffffffffffffffffffff168173ffffffffffffffffffffffffffffffffffffffff161415611783576040517f08c379a000000000000000000000000000000000000000000000000000000000815260040161177a90613a29565b60405180910390fd5b61178c81611f48565b50565b600080600b836040516117a29190613737565b90815260200160405180910390205414159050919050565b60007f01ffc9a7000000000000000000000000000000000000000000000000000000007bffffffffffffffffffffffffffffffffffffffffffffffffffffffff1916827bffffffffffffffffffffffffffffffffffffffffffffffffffffffff1916149050919050565b60008073ffffffffffffffffffffffffffffffffffffffff166002600084815260200190815260200160002060009054906101000a900473ffffffffffffffffffffffffffffffffffffffff1673ffffffffffffffffffffffffffffffffffffffff1614159050919050565b600033905090565b816004600083815260200190815260200160002060006101000a81548173ffffffffffffffffffffffffffffffffffffffff021916908373ffffffffffffffffffffffffffffffffffffffff160217905550808273ffffffffffffffffffffffffffffffffffffffff1661190b83610c60565b73ffffffffffffffffffffffffffffffffffffffff167f8c5be1e5ebec7d5bd14f71427d1e84f3dd0314c0f7b2291e5b200ac8c7c3b92560405160405180910390a45050565b600061195c82611824565b61199b576040517f08c379a000000000000000000000000000000000000000000000000000000000815260040161199290613abb565b60405180910390fd5b60006119a683610c60565b90508073ffffffffffffffffffffffffffffffffffffffff168473ffffffffffffffffffffffffffffffffffffffff161480611a1557508373ffffffffffffffffffffffffffffffffffffffff166119fd84610790565b73ffffffffffffffffffffffffffffffffffffffff16145b80611a265750611a258185611503565b5b91505092915050565b8273ffffffffffffffffffffffffffffffffffffffff16611a4f82610c60565b73ffffffffffffffffffffffffffffffffffffffff1614611aa5576040517f08c379a0000000000000000000000000000000000000000000000000000000008152600401611a9c90613b4d565b60405180910390fd5b600073ffffffffffffffffffffffffffffffffffffffff168273ffffffffffffffffffffffffffffffffffffffff161415611b15576040517f08c379a0000000000000000000000000000000000000000000000000000000008152600401611b0c90613bdf565b60405180910390fd5b611b20838383612504565b611b2b600082611898565b6001600360008573ffffffffffffffffffffffffffffffffffffffff1673ffffffffffffffffffffffffffffffffffffffff1681526020019081526020016000206000828254611b7b91906135c9565b925050819055506001600360008473ffffffffffffffffffffffffffffffffffffffff1673ffffffffffffffffffffffffffffffffffffffff1681526020019081526020016000206000828254611bd29190613bff565b92505081905550816002600083815260200190815260200160002060006101000a81548173ffffffffffffffffffffffffffffffffffffffff021916908373ffffffffffffffffffffffffffffffffffffffff160217905550808273ffffffffffffffffffffffffffffffffffffffff168473ffffffffffffffffffffffffffffffffffffffff167fddf252ad1be2c89b69c2b068fc378daa952ba7f163c4a11628f55a4df523b3ef60405160405180910390a4505050565b6000806000905060008390505b8051821015611f4157600060f81b6007828481518110611cbb57611cba6134d9565b5b602001015160f81c60f81b7effffffffffffffffffffffffffffffffffffffffffffffffffffffffffffff1916901c7effffffffffffffffffffffffffffffffffffffffffffffffffffffffffffff19161415611d2657600182611d1f9190613bff565b9150611f2e565b600660f81b7effffffffffffffffffffffffffffffffffffffffffffffffffffffffffffff19166005828481518110611d6257611d616134d9565b5b602001015160f81c60f81b7effffffffffffffffffffffffffffffffffffffffffffffffffffffffffffff1916901c7effffffffffffffffffffffffffffffffffffffffffffffffffffffffffffff19161415611dcd57600282611dc69190613bff565b9150611f2d565b600e60f81b7effffffffffffffffffffffffffffffffffffffffffffffffffffffffffffff19166004828481518110611e0957611e086134d9565b5b602001015160f81c60f81b7effffffffffffffffffffffffffffffffffffffffffffffffffffffffffffff1916901c7effffffffffffffffffffffffffffffffffffffffffffffffffffffffffffff19161415611e7457600382611e6d9190613bff565b9150611f2c565b601e60f81b7effffffffffffffffffffffffffffffffffffffffffffffffffffffffffffff19166003828481518110611eb057611eaf6134d9565b5b602001015160f81c60f81b7effffffffffffffffffffffffffffffffffffffffffffffffffffffffffffff1916901c7effffffffffffffffffffffffffffffffffffffffffffffffffffffffffffff19161415611f1b57600482611f149190613bff565b9150611f2b565b600182611f289190613bff565b91505b5b5b5b8280611f39906138b8565b935050611c98565b5050919050565b6000600660009054906101000a900473ffffffffffffffffffffffffffffffffffffffff16905081600660006101000a81548173ffffffffffffffffffffffffffffffffffffffff021916908373ffffffffffffffffffffffffffffffffffffffff1602179055508173ffffffffffffffffffffffffffffffffffffffff168173ffffffffffffffffffffffffffffffffffffffff167f8be0079c531659141344cd1fd0a4f28419497f9722a3daafe3b4186f6b6457e060405160405180910390a35050565b600080824261201d9190613bff565b60405160200161202d9190613c76565b6040516020818303038152906040528051906020012060001c905064e8d4a51000816120599190613cc0565b915050919050565b6000604051806101000160405280600c54815260200183815260200160148152602001600a8152602001600a8152602001600a8152602001428152602001604051806020016040528060008152508152509050600e819080600181540180825580915050600190039060005260206000209060080201600090919091909150600082015181600001556020820151816001015560408201518160020155606082015181600301556080820151816004015560a0820151816005015560c0820151816006015560e0820151816007019080519060200190612142929190612901565b50505061215133600c54612509565b3373ffffffffffffffffffffffffffffffffffffffff167fad1c7ab5bfbe86a51764200b1532f3893b41563e78abe6d6eac4bbd987f38c68600c548460405161219b929190613cf1565b60405180910390a26121b96001600c5461252790919063ffffffff16565b600c819055505050565b8173ffffffffffffffffffffffffffffffffffffffff168373ffffffffffffffffffffffffffffffffffffffff161415612232576040517f08c379a000000000000000000000000000000000000000000000000000000000815260040161222990613d66565b60405180910390fd5b80600560008573ffffffffffffffffffffffffffffffffffffffff1673ffffffffffffffffffffffffffffffffffffffff16815260200190815260200160002060008473ffffffffffffffffffffffffffffffffffffffff1673ffffffffffffffffffffffffffffffffffffffff16815260200190815260200160002060006101000a81548160ff0219169083151502179055508173ffffffffffffffffffffffffffffffffffffffff168373ffffffffffffffffffffffffffffffffffffffff167f17307eab39ab6107e8899845ad3d59bd9653f200f220920489ca2b5937696c31836040516123239190612a58565b60405180910390a3505050565b61233b848484611a2f565b6123478484848461253d565b612386576040517f08c379a000000000000000000000000000000000000000000000000000000000815260040161237d90613df8565b60405180910390fd5b50505050565b606060405180602001604052806000815250905090565b606060008214156123eb576040518060400160405280600181526020017f300000000000000000000000000000000000000000000000000000000000000081525090506124ff565b600082905060005b6000821461241d578080612406906138b8565b915050600a826124169190613e18565b91506123f3565b60008167ffffffffffffffff81111561243957612438612cb6565b5b6040519080825280601f01601f19166020018201604052801561246b5781602001600182028036833780820191505090505b5090505b600085146124f85760018261248491906135c9565b9150600a856124939190613cc0565b603061249f9190613bff565b60f81b8183815181106124b5576124b46134d9565b5b60200101907effffffffffffffffffffffffffffffffffffffffffffffffffffffffffffff1916908160001a905350600a856124f19190613e18565b945061246f565b8093505050505b919050565b505050565b6125238282604051806020016040528060008152506126c5565b5050565b600081836125359190613bff565b905092915050565b600061255e8473ffffffffffffffffffffffffffffffffffffffff16612720565b156126b8578373ffffffffffffffffffffffffffffffffffffffff1663150b7a02612587611890565b8786866040518563ffffffff1660e01b81526004016125a99493929190613e9e565b6020604051808303816000875af19250505080156125e557506040513d601f19601f820116820180604052508101906125e29190613eff565b60015b612668573d8060008114612615576040519150601f19603f3d011682016040523d82523d6000602084013e61261a565b606091505b50600081511415612660576040517f08c379a000000000000000000000000000000000000000000000000000000000815260040161265790613df8565b60405180910390fd5b805181602001fd5b63150b7a0260e01b7bffffffffffffffffffffffffffffffffffffffffffffffffffffffff1916817bffffffffffffffffffffffffffffffffffffffffffffffffffffffff1916149150506126bd565b600190505b949350505050565b6126cf8383612733565b6126dc600084848461253d565b61271b576040517f08c379a000000000000000000000000000000000000000000000000000000000815260040161271290613df8565b60405180910390fd5b505050565b600080823b905060008111915050919050565b600073ffffffffffffffffffffffffffffffffffffffff168273ffffffffffffffffffffffffffffffffffffffff1614156127a3576040517f08c379a000000000000000000000000000000000000000000000000000000000815260040161279a90613f78565b60405180910390fd5b6127ac81611824565b156127ec576040517f08c379a00000000000000000000000000000000000000000000000000000000081526004016127e390613fe4565b60405180910390fd5b6127f860008383612504565b6001600360008473ffffffffffffffffffffffffffffffffffffffff1673ffffffffffffffffffffffffffffffffffffffff16815260200190815260200160002060008282546128489190613bff565b92505081905550816002600083815260200190815260200160002060006101000a81548173ffffffffffffffffffffffffffffffffffffffff021916908373ffffffffffffffffffffffffffffffffffffffff160217905550808273ffffffffffffffffffffffffffffffffffffffff16600073ffffffffffffffffffffffffffffffffffffffff167fddf252ad1be2c89b69c2b068fc378daa952ba7f163c4a11628f55a4df523b3ef60405160405180910390a45050565b82805461290d90613161565b90600052602060002090601f01602090048101928261292f5760008555612976565b82601f1061294857805160ff1916838001178555612976565b82800160010185558215612976579182015b8281111561297557825182559160200191906001019061295a565b5b5090506129839190612987565b5090565b5b808211156129a0576000816000905550600101612988565b5090565b6000604051905090565b600080fd5b600080fd5b60007fffffffff0000000000000000000000000000000000000000000000000000000082169050919050565b6129ed816129b8565b81146129f857600080fd5b50565b600081359050612a0a816129e4565b92915050565b600060208284031215612a2657612a256129ae565b5b6000612a34848285016129fb565b91505092915050565b60008115159050919050565b612a5281612a3d565b82525050565b6000602082019050612a6d6000830184612a49565b92915050565b600081519050919050565b600082825260208201905092915050565b60005b83811015612aad578082015181840152602081019050612a92565b83811115612abc576000848401525b50505050565b6000601f19601f8301169050919050565b6000612ade82612a73565b612ae88185612a7e565b9350612af8818560208601612a8f565b612b0181612ac2565b840191505092915050565b60006020820190508181036000830152612b268184612ad3565b905092915050565b6000819050919050565b612b4181612b2e565b8114612b4c57600080fd5b50565b600081359050612b5e81612b38565b92915050565b600060208284031215612b7a57612b796129ae565b5b6000612b8884828501612b4f565b91505092915050565b600073ffffffffffffffffffffffffffffffffffffffff82169050919050565b6000612bbc82612b91565b9050919050565b612bcc81612bb1565b82525050565b6000602082019050612be76000830184612bc3565b92915050565b612bf681612bb1565b8114612c0157600080fd5b50565b600081359050612c1381612bed565b92915050565b60008060408385031215612c3057612c2f6129ae565b5b6000612c3e85828601612c04565b9250506020612c4f85828601612b4f565b9150509250929050565b600080600060608486031215612c7257612c716129ae565b5b6000612c8086828701612c04565b9350506020612c9186828701612c04565b9250506040612ca286828701612b4f565b9150509250925092565b600080fd5b600080fd5b7f4e487b7100000000000000000000000000000000000000000000000000000000600052604160045260246000fd5b612cee82612ac2565b810181811067ffffffffffffffff82111715612d0d57612d0c612cb6565b5b80604052505050565b6000612d206129a4565b9050612d2c8282612ce5565b919050565b600067ffffffffffffffff821115612d4c57612d4b612cb6565b5b612d5582612ac2565b9050602081019050919050565b82818337600083830152505050565b6000612d84612d7f84612d31565b612d16565b905082815260208101848484011115612da057612d9f612cb1565b5b612dab848285612d62565b509392505050565b600082601f830112612dc857612dc7612cac565b5b8135612dd8848260208601612d71565b91505092915050565b60008060408385031215612df857612df76129ae565b5b6000612e0685828601612b4f565b925050602083013567ffffffffffffffff811115612e2757612e266129b3565b5b612e3385828601612db3565b9150509250929050565b600060208284031215612e5357612e526129ae565b5b600082013567ffffffffffffffff811115612e7157612e706129b3565b5b612e7d84828501612db3565b91505092915050565b612e8f81612b2e565b82525050565b6000602082019050612eaa6000830184612e86565b92915050565b600060208284031215612ec657612ec56129ae565b5b6000612ed484828501612c04565b91505092915050565b612ee681612a3d565b8114612ef157600080fd5b50565b600081359050612f0381612edd565b92915050565b60008060408385031215612f2057612f1f6129ae565b5b6000612f2e85828601612c04565b9250506020612f3f85828601612ef4565b9150509250929050565b600061010082019050612f5f600083018b612e86565b612f6c602083018a612e86565b612f796040830189612e86565b612f866060830188612e86565b612f936080830187612e86565b612fa060a0830186612e86565b612fad60c0830185612e86565b81810360e0830152612fbf8184612ad3565b90509998505050505050505050565b600067ffffffffffffffff821115612fe957612fe8612cb6565b5b612ff282612ac2565b9050602081019050919050565b600061301261300d84612fce565b612d16565b90508281526020810184848401111561302e5761302d612cb1565b5b613039848285612d62565b509392505050565b600082601f83011261305657613055612cac565b5b8135613066848260208601612fff565b91505092915050565b60008060008060808587031215613089576130886129ae565b5b600061309787828801612c04565b94505060206130a887828801612c04565b93505060406130b987828801612b4f565b925050606085013567ffffffffffffffff8111156130da576130d96129b3565b5b6130e687828801613041565b91505092959194509250565b60008060408385031215613109576131086129ae565b5b600061311785828601612c04565b925050602061312885828601612c04565b9150509250929050565b7f4e487b7100000000000000000000000000000000000000000000000000000000600052602260045260246000fd5b6000600282049050600182168061317957607f821691505b6020821081141561318d5761318c613132565b5b50919050565b7f4552433732313a20617070726f76656420717565727920666f72206e6f6e657860008201527f697374656e7420746f6b656e0000000000000000000000000000000000000000602082015250565b60006131ef602c83612a7e565b91506131fa82613193565b604082019050919050565b6000602082019050818103600083015261321e816131e2565b9050919050565b7f4552433732313a20617070726f76616c20746f2063757272656e74206f776e6560008201527f7200000000000000000000000000000000000000000000000000000000000000602082015250565b6000613281602183612a7e565b915061328c82613225565b604082019050919050565b600060208201905081810360008301526132b081613274565b9050919050565b7f4552433732313a20617070726f76652063616c6c6572206973206e6f74206f7760008201527f6e6572206e6f7220617070726f76656420666f7220616c6c0000000000000000602082015250565b6000613313603883612a7e565b915061331e826132b7565b604082019050919050565b6000602082019050818103600083015261334281613306565b9050919050565b7f4552433732313a207472616e736665722063616c6c6572206973206e6f74206f60008201527f776e6572206e6f7220617070726f766564000000000000000000000000000000602082015250565b60006133a5603183612a7e565b91506133b082613349565b604082019050919050565b600060208201905081810360008301526133d481613398565b9050919050565b7f596f7520646f6e2774206861766520616e206163636f756e7400000000000000600082015250565b6000613411601983612a7e565b915061341c826133db565b602082019050919050565b6000602082019050818103600083015261344081613404565b9050919050565b7f546865206865726f206e616d65206d757374206265206265747765656e20332060008201527f616e642031322063686172616374657273000000000000000000000000000000602082015250565b60006134a3603183612a7e565b91506134ae82613447565b604082019050919050565b600060208201905081810360008301526134d281613496565b9050919050565b7f4e487b7100000000000000000000000000000000000000000000000000000000600052603260045260246000fd5b7f4552433732313a206f776e657220717565727920666f72206e6f6e657869737460008201527f656e7420746f6b656e0000000000000000000000000000000000000000000000602082015250565b6000613564602983612a7e565b915061356f82613508565b604082019050919050565b6000602082019050818103600083015261359381613557565b9050919050565b7f4e487b7100000000000000000000000000000000000000000000000000000000600052601160045260246000fd5b60006135d482612b2e565b91506135df83612b2e565b9250828210156135f2576135f161359a565b5b828203905092915050565b7f4552433732313a2062616c616e636520717565727920666f7220746865207a6560008201527f726f206164647265737300000000000000000000000000000000000000000000602082015250565b6000613659602a83612a7e565b9150613664826135fd565b604082019050919050565b600060208201905081810360008301526136888161364c565b9050919050565b7f4f776e61626c653a2063616c6c6572206973206e6f7420746865206f776e6572600082015250565b60006136c5602083612a7e565b91506136d08261368f565b602082019050919050565b600060208201905081810360008301526136f4816136b8565b9050919050565b600081905092915050565b600061371182612a73565b61371b81856136fb565b935061372b818560208601612a8f565b80840191505092915050565b60006137438284613706565b915081905092915050565b7f557365726e616d652069732074616b656e000000000000000000000000000000600082015250565b6000613784601183612a7e565b915061378f8261374e565b602082019050919050565b600060208201905081810360008301526137b381613777565b9050919050565b7f596f7520616c7265616479206861766520616e206163636f756e742100000000600082015250565b60006137f0601c83612a7e565b91506137fb826137ba565b602082019050919050565b6000602082019050818103600083015261381f816137e3565b9050919050565b7f557365726e616d65206d757374206265206265747765656e203320616e64203160008201527f3220636861726163746572730000000000000000000000000000000000000000602082015250565b6000613882602c83612a7e565b915061388d82613826565b604082019050919050565b600060208201905081810360008301526138b181613875565b9050919050565b60006138c382612b2e565b91507fffffffffffffffffffffffffffffffffffffffffffffffffffffffffffffffff8214156138f6576138f561359a565b5b600182019050919050565b7f4552433732314d657461646174613a2055524920717565727920666f72206e6f60008201527f6e6578697374656e7420746f6b656e0000000000000000000000000000000000602082015250565b600061395d602f83612a7e565b915061396882613901565b604082019050919050565b6000602082019050818103600083015261398c81613950565b9050919050565b600061399f8285613706565b91506139ab8284613706565b91508190509392505050565b7f4f776e61626c653a206e6577206f776e657220697320746865207a65726f206160008201527f6464726573730000000000000000000000000000000000000000000000000000602082015250565b6000613a13602683612a7e565b9150613a1e826139b7565b604082019050919050565b60006020820190508181036000830152613a4281613a06565b9050919050565b7f4552433732313a206f70657261746f7220717565727920666f72206e6f6e657860008201527f697374656e7420746f6b656e0000000000000000000000000000000000000000602082015250565b6000613aa5602c83612a7e565b9150613ab082613a49565b604082019050919050565b60006020820190508181036000830152613ad481613a98565b9050919050565b7f4552433732313a207472616e73666572206f6620746f6b656e2074686174206960008201527f73206e6f74206f776e0000000000000000000000000000000000000000000000602082015250565b6000613b37602983612a7e565b9150613b4282613adb565b604082019050919050565b60006020820190508181036000830152613b6681613b2a565b9050919050565b7f4552433732313a207472616e7366657220746f20746865207a65726f2061646460008201527f7265737300000000000000000000000000000000000000000000000000000000602082015250565b6000613bc9602483612a7e565b9150613bd482613b6d565b604082019050919050565b60006020820190508181036000830152613bf881613bbc565b9050919050565b6000613c0a82612b2e565b9150613c1583612b2e565b9250827fffffffffffffffffffffffffffffffffffffffffffffffffffffffffffffffff03821115613c4a57613c4961359a565b5b828201905092915050565b6000819050919050565b613c70613c6b82612b2e565b613c55565b82525050565b6000613c828284613c5f565b60208201915081905092915050565b7f4e487b7100000000000000000000000000000000000000000000000000000000600052601260045260246000fd5b6000613ccb82612b2e565b9150613cd683612b2e565b925082613ce657613ce5613c91565b5b828206905092915050565b6000604082019050613d066000830185612e86565b613d136020830184612e86565b9392505050565b7f4552433732313a20617070726f766520746f2063616c6c657200000000000000600082015250565b6000613d50601983612a7e565b9150613d5b82613d1a565b602082019050919050565b60006020820190508181036000830152613d7f81613d43565b9050919050565b7f4552433732313a207472616e7366657220746f206e6f6e20455243373231526560008201527f63656976657220696d706c656d656e7465720000000000000000000000000000602082015250565b6000613de2603283612a7e565b9150613ded82613d86565b604082019050919050565b60006020820190508181036000830152613e1181613dd5565b9050919050565b6000613e2382612b2e565b9150613e2e83612b2e565b925082613e3e57613e3d613c91565b5b828204905092915050565b600081519050919050565b600082825260208201905092915050565b6000613e7082613e49565b613e7a8185613e54565b9350613e8a818560208601612a8f565b613e9381612ac2565b840191505092915050565b6000608082019050613eb36000830187612bc3565b613ec06020830186612bc3565b613ecd6040830185612e86565b8181036060830152613edf8184613e65565b905095945050505050565b600081519050613ef9816129e4565b92915050565b600060208284031215613f1557613f146129ae565b5b6000613f2384828501613eea565b91505092915050565b7f4552433732313a206d696e7420746f20746865207a65726f2061646472657373600082015250565b6000613f62602083612a7e565b9150613f6d82613f2c565b602082019050919050565b60006020820190508181036000830152613f9181613f55565b9050919050565b7f4552433732313a20746f6b656e20616c7265616479206d696e74656400000000600082015250565b6000613fce601c83612a7e565b9150613fd982613f98565b602082019050919050565b60006020820190508181036000830152613ffd81613fc1565b905091905056fea264697066735822122005625df7541dad026ccf88b9fc3707f483724d3b64612fe65db0acf9b74c184964736f6c634300080a0033",
  "immutableReferences": {},
  "source": "// SPDX-License-Identifier: MIT\r\npragma solidity ^0.8.7;\r\n\r\nimport \"@openzeppelin/contracts/token/ERC721/ERC721.sol\";\r\nimport \"@openzeppelin/contracts/access/Ownable.sol\";\r\nimport \"@openzeppelin/contracts/utils/math/SafeMath.sol\";\r\nimport \"./IotaHeroAccount.sol\";\r\n\r\ncontract IotaHeroFactory is ERC721, Ownable, IotaHeroAccount {\r\n    constructor() ERC721(\"IotaHero\", \"IH\") {}\r\n\r\n    using SafeMath for uint256;\r\n\r\n    uint256 heroIdCounter = 0;\r\n    uint256 adventureCoolDown = 30 seconds;\r\n    struct Hero {\r\n        uint256 id;\r\n        uint256 dna;\r\n        uint256 constitution;\r\n        uint256 strength;\r\n        uint256 agility;\r\n        uint256 intelligence;\r\n        uint256 restingTill;\r\n        string name;\r\n    }\r\n\r\n    Hero[] public heroes;\r\n\r\n    modifier onlyOwnerOf(uint256 _heroId) {\r\n        require(msg.sender == ERC721.ownerOf(_heroId));\r\n        _;\r\n    }\r\n    modifier nameValidLength(string memory _name) {\r\n        uint256 stringLength = utfStringLength(_name);\r\n        require(\r\n            stringLength < 13 && stringLength > 2,\r\n            \"The hero name must be between 3 and 12 characters\"\r\n        );\r\n        _;\r\n    }\r\n\r\n    function nameChange(uint256 _heroId, string memory _name)\r\n        public\r\n        hasAccount\r\n        onlyOwnerOf(_heroId)\r\n        nameValidLength(_name)\r\n    {\r\n        Hero storage hero = heroes[_heroId];\r\n        hero.name = _name;\r\n    }\r\n\r\n    function heroIsReady(Hero memory hero) internal view returns (bool) {\r\n        return (hero.restingTill <= block.timestamp);\r\n    }\r\n\r\n    function _pseudoRandom(uint256 nonce) internal view returns (uint256) {\r\n        uint256 psrand = uint256(\r\n            keccak256(abi.encodePacked(block.timestamp + nonce))\r\n        );\r\n        return psrand % 10**12;\r\n    }\r\n\r\n    event HeroMinted(address indexed owner, uint256 id, uint256 dna);\r\n\r\n    function _mintHero(uint256 _dna) internal {\r\n        Hero memory hero = Hero(\r\n            heroIdCounter,\r\n            _dna,\r\n            20,\r\n            10,\r\n            10,\r\n            10,\r\n            block.timestamp,\r\n            \"\"\r\n        );\r\n        heroes.push(hero);\r\n        _safeMint(msg.sender, heroIdCounter);\r\n        emit HeroMinted(msg.sender, heroIdCounter, _dna);\r\n        heroIdCounter = heroIdCounter.add(1);\r\n    }\r\n\r\n    function spawnHero() public hasAccount {\r\n        uint256 dna = _pseudoRandom(heroIdCounter);\r\n        _mintHero(dna);\r\n    }\r\n}\r\n",
  "sourcePath": "C:\\Users\\creld\\source\\repos\\IotaHeroes\\smartcontracts\\contracts\\IotaHeroFactory.sol",
  "compiler": {
    "name": "solc",
    "version": "0.8.10+commit.fc410830.Emscripten.clang"
  },
  "schemaVersion": "3.4.4",
  "updatedAt": "2022-01-20T21:31:53.999Z",
  "devdoc": {
    "kind": "dev",
    "methods": {
      "approve(address,uint256)": {
        "details": "See {IERC721-approve}."
      },
      "balanceOf(address)": {
        "details": "See {IERC721-balanceOf}."
      },
      "getApproved(uint256)": {
        "details": "See {IERC721-getApproved}."
      },
      "isApprovedForAll(address,address)": {
        "details": "See {IERC721-isApprovedForAll}."
      },
      "name()": {
        "details": "See {IERC721Metadata-name}."
      },
      "owner()": {
        "details": "Returns the address of the current owner."
      },
      "ownerOf(uint256)": {
        "details": "See {IERC721-ownerOf}."
      },
      "renounceOwnership()": {
        "details": "Leaves the contract without owner. It will not be possible to call `onlyOwner` functions anymore. Can only be called by the current owner. NOTE: Renouncing ownership will leave the contract without an owner, thereby removing any functionality that is only available to the owner."
      },
      "safeTransferFrom(address,address,uint256)": {
        "details": "See {IERC721-safeTransferFrom}."
      },
      "safeTransferFrom(address,address,uint256,bytes)": {
        "details": "See {IERC721-safeTransferFrom}."
      },
      "setApprovalForAll(address,bool)": {
        "details": "See {IERC721-setApprovalForAll}."
      },
      "supportsInterface(bytes4)": {
        "details": "See {IERC165-supportsInterface}."
      },
      "symbol()": {
        "details": "See {IERC721Metadata-symbol}."
      },
      "tokenURI(uint256)": {
        "details": "See {IERC721Metadata-tokenURI}."
      },
      "transferFrom(address,address,uint256)": {
        "details": "See {IERC721-transferFrom}."
      },
      "transferOwnership(address)": {
        "details": "Transfers ownership of the contract to a new account (`newOwner`). Can only be called by the current owner."
      }
    },
    "version": 1
  },
  "userdoc": {
    "kind": "user",
    "methods": {},
    "version": 1
  }
}