{
  "contractName": "IotaHeroesMarket",
  "abi": [
    {
      "anonymous": false,
      "inputs": [
        {
          "indexed": true,
          "internalType": "address",
          "name": "previousOwner",
          "type": "address"
        },
        {
          "indexed": true,
          "internalType": "address",
          "name": "newOwner",
          "type": "address"
        }
      ],
      "name": "OwnershipTransferred",
      "type": "event"
    },
    {
      "anonymous": false,
      "inputs": [
        {
          "indexed": true,
          "internalType": "uint256",
          "name": "tradeId",
          "type": "uint256"
        },
        {
          "indexed": true,
          "internalType": "address",
          "name": "creator",
          "type": "address"
        },
        {
          "indexed": false,
          "internalType": "uint256",
          "name": "tokenId",
          "type": "uint256"
        },
        {
          "indexed": false,
          "internalType": "uint256",
          "name": "price",
          "type": "uint256"
        }
      ],
      "name": "TradeCreated",
      "type": "event"
    },
    {
      "anonymous": false,
      "inputs": [
        {
          "indexed": true,
          "internalType": "uint256",
          "name": "tradeId",
          "type": "uint256"
        },
        {
          "indexed": true,
          "internalType": "address",
          "name": "updater",
          "type": "address"
        },
        {
          "indexed": false,
          "internalType": "enum IotaHeroesMarket.TradeStatus",
          "name": "updatedStatus",
          "type": "uint8"
        }
      ],
      "name": "TradeUpdated",
      "type": "event"
    },
    {
      "inputs": [
        {
          "internalType": "uint256",
          "name": "",
          "type": "uint256"
        }
      ],
      "name": "heroIdForSale",
      "outputs": [
        {
          "internalType": "bool",
          "name": "",
          "type": "bool"
        }
      ],
      "stateMutability": "view",
      "type": "function",
      "constant": true
    },
    {
      "inputs": [
        {
          "internalType": "uint256",
          "name": "",
          "type": "uint256"
        }
      ],
      "name": "heroIdToTradeId",
      "outputs": [
        {
          "internalType": "uint256",
          "name": "",
          "type": "uint256"
        }
      ],
      "stateMutability": "view",
      "type": "function",
      "constant": true
    },
    {
      "inputs": [],
      "name": "heroToken",
      "outputs": [
        {
          "internalType": "contract IotaHeroFactory",
          "name": "",
          "type": "address"
        }
      ],
      "stateMutability": "view",
      "type": "function",
      "constant": true
    },
    {
      "inputs": [],
      "name": "owner",
      "outputs": [
        {
          "internalType": "address",
          "name": "",
          "type": "address"
        }
      ],
      "stateMutability": "view",
      "type": "function",
      "constant": true
    },
    {
      "inputs": [],
      "name": "renounceOwnership",
      "outputs": [],
      "stateMutability": "nonpayable",
      "type": "function"
    },
    {
      "inputs": [
        {
          "internalType": "uint256",
          "name": "",
          "type": "uint256"
        }
      ],
      "name": "tradeToOwner",
      "outputs": [
        {
          "internalType": "address",
          "name": "",
          "type": "address"
        }
      ],
      "stateMutability": "view",
      "type": "function",
      "constant": true
    },
    {
      "inputs": [
        {
          "internalType": "uint256",
          "name": "",
          "type": "uint256"
        }
      ],
      "name": "trades",
      "outputs": [
        {
          "internalType": "uint256",
          "name": "tradeId",
          "type": "uint256"
        },
        {
          "internalType": "address",
          "name": "tradeInitiator",
          "type": "address"
        },
        {
          "internalType": "uint256",
          "name": "itemId",
          "type": "uint256"
        },
        {
          "internalType": "uint256",
          "name": "price",
          "type": "uint256"
        },
        {
          "internalType": "enum IotaHeroesMarket.TradeStatus",
          "name": "tradeStatus",
          "type": "uint8"
        }
      ],
      "stateMutability": "view",
      "type": "function",
      "constant": true
    },
    {
      "inputs": [
        {
          "internalType": "address",
          "name": "newOwner",
          "type": "address"
        }
      ],
      "name": "transferOwnership",
      "outputs": [],
      "stateMutability": "nonpayable",
      "type": "function"
    },
    {
      "inputs": [
        {
          "internalType": "address",
          "name": "_tokenAddress",
          "type": "address"
        }
      ],
      "name": "setTokenAddress",
      "outputs": [],
      "stateMutability": "nonpayable",
      "type": "function"
    },
    {
      "inputs": [],
      "name": "getTokenAddress",
      "outputs": [
        {
          "internalType": "address",
          "name": "",
          "type": "address"
        }
      ],
      "stateMutability": "view",
      "type": "function",
      "constant": true
    },
    {
      "inputs": [
        {
          "internalType": "uint256",
          "name": "_itemId",
          "type": "uint256"
        },
        {
          "internalType": "uint256",
          "name": "_price",
          "type": "uint256"
        }
      ],
      "name": "listTrade",
      "outputs": [],
      "stateMutability": "nonpayable",
      "type": "function"
    },
    {
      "inputs": [
        {
          "internalType": "uint256",
          "name": "_tradeId",
          "type": "uint256"
        }
      ],
      "name": "cancelTrade",
      "outputs": [],
      "stateMutability": "nonpayable",
      "type": "function"
    },
    {
      "inputs": [
        {
          "internalType": "uint256",
          "name": "_tradeId",
          "type": "uint256"
        }
      ],
      "name": "fulfillTrade",
      "outputs": [],
      "stateMutability": "payable",
      "type": "function",
      "payable": true
    },
    {
      "inputs": [
        {
          "internalType": "uint256",
          "name": "_itemId",
          "type": "uint256"
        }
      ],
      "name": "getTradeForItem",
      "outputs": [
        {
          "components": [
            {
              "internalType": "uint256",
              "name": "tradeId",
              "type": "uint256"
            },
            {
              "internalType": "address",
              "name": "tradeInitiator",
              "type": "address"
            },
            {
              "internalType": "uint256",
              "name": "itemId",
              "type": "uint256"
            },
            {
              "internalType": "uint256",
              "name": "price",
              "type": "uint256"
            },
            {
              "internalType": "enum IotaHeroesMarket.TradeStatus",
              "name": "tradeStatus",
              "type": "uint8"
            }
          ],
          "internalType": "struct IotaHeroesMarket.Trade",
          "name": "",
          "type": "tuple"
        }
      ],
      "stateMutability": "view",
      "type": "function",
      "constant": true
    },
    {
      "inputs": [],
      "name": "getOpenTrades",
      "outputs": [
        {
          "components": [
            {
              "internalType": "uint256",
              "name": "tradeId",
              "type": "uint256"
            },
            {
              "internalType": "address",
              "name": "tradeInitiator",
              "type": "address"
            },
            {
              "internalType": "uint256",
              "name": "itemId",
              "type": "uint256"
            },
            {
              "internalType": "uint256",
              "name": "price",
              "type": "uint256"
            },
            {
              "internalType": "enum IotaHeroesMarket.TradeStatus",
              "name": "tradeStatus",
              "type": "uint8"
            }
          ],
          "internalType": "struct IotaHeroesMarket.Trade[]",
          "name": "",
          "type": "tuple[]"
        }
      ],
      "stateMutability": "view",
      "type": "function",
      "constant": true
    },
    {
      "inputs": [],
      "name": "withdraw",
      "outputs": [],
      "stateMutability": "nonpayable",
      "type": "function"
    }
  ],
  "bytecode": "0x6080604052600060035534801561001557600080fd5b5061003261002761003760201b60201c565b61003f60201b60201c565b610103565b600033905090565b60008060009054906101000a900473ffffffffffffffffffffffffffffffffffffffff169050816000806101000a81548173ffffffffffffffffffffffffffffffffffffffff021916908373ffffffffffffffffffffffffffffffffffffffff1602179055508173ffffffffffffffffffffffffffffffffffffffff168173ffffffffffffffffffffffffffffffffffffffff167f8be0079c531659141344cd1fd0a4f28419497f9722a3daafe3b4186f6b6457e060405160405180910390a35050565b6121df80620001136000396000f3fe6080604052600436106100f35760003560e01c806363b172611161008a578063bbca571511610059578063bbca57151461031a578063cc48b9ab14610345578063ecd8709514610361578063f2fde38b1461039e576100f3565b806363b1726114610270578063715018a61461029b578063721ae91c146102b25780638da5cb5b146102ef576100f3565b8063263d24dd116100c6578063263d24dd146101ca57806326a4e8d2146101f35780633ccfd60b1461021c578063413eb5e614610233576100f3565b806305d28a09146100f857806309ec6cc71461013557806310fe9ae81461015e5780631e6c598e14610189575b600080fd5b34801561010457600080fd5b5061011f600480360381019061011a91906116bc565b6103c7565b60405161012c91906116f8565b60405180910390f35b34801561014157600080fd5b5061015c600480360381019061015791906116bc565b6103df565b005b34801561016a57600080fd5b5061017361059b565b6040516101809190611754565b60405180910390f35b34801561019557600080fd5b506101b060048036038101906101ab91906116bc565b6105c5565b6040516101c19594939291906117e6565b60405180910390f35b3480156101d657600080fd5b506101f160048036038101906101ec9190611839565b610638565b005b3480156101ff57600080fd5b5061021a600480360381019061021591906118a5565b610b18565b005b34801561022857600080fd5b50610231610bd8565b005b34801561023f57600080fd5b5061025a600480360381019061025591906116bc565b610c9d565b6040516102679190611967565b60405180910390f35b34801561027c57600080fd5b50610285610dd3565b6040516102929190611a99565b60405180910390f35b3480156102a757600080fd5b506102b061105a565b005b3480156102be57600080fd5b506102d960048036038101906102d491906116bc565b6110e2565b6040516102e69190611ad6565b60405180910390f35b3480156102fb57600080fd5b50610304611102565b6040516103119190611754565b60405180910390f35b34801561032657600080fd5b5061032f61112b565b60405161033c9190611b50565b60405180910390f35b61035f600480360381019061035a91906116bc565b611151565b005b34801561036d57600080fd5b50610388600480360381019061038391906116bc565b611433565b6040516103959190611754565b60405180910390f35b3480156103aa57600080fd5b506103c560048036038101906103c091906118a5565b611466565b005b60056020528060005260406000206000915090505481565b803373ffffffffffffffffffffffffffffffffffffffff166004600083815260200190815260200160002060009054906101000a900473ffffffffffffffffffffffffffffffffffffffff1673ffffffffffffffffffffffffffffffffffffffff161461044b57600080fd5b60006002838154811061046157610460611b6b565b5b90600052602060002090600502019050600060028111156104855761048461176f565b5b8160040160009054906101000a900460ff1660028111156104a9576104a861176f565b5b146104e9576040517f08c379a00000000000000000000000000000000000000000000000000000000081526004016104e090611bf7565b60405180910390fd5b60028160040160006101000a81548160ff021916908360028111156105115761051061176f565b5b02179055506000600660008360020154815260200190815260200160002060006101000a81548160ff0219169083151502179055503373ffffffffffffffffffffffffffffffffffffffff16837f580958e7d2b78e6e91069e3a54d87713100ef5a99d53edaf3b8062a175ca730e600260405161058e9190611c17565b60405180910390a3505050565b6000600160009054906101000a900473ffffffffffffffffffffffffffffffffffffffff16905090565b600281815481106105d557600080fd5b90600052602060002090600502016000915090508060000154908060010160009054906101000a900473ffffffffffffffffffffffffffffffffffffffff16908060020154908060030154908060040160009054906101000a900460ff16905085565b600160009054906101000a900473ffffffffffffffffffffffffffffffffffffffff1673ffffffffffffffffffffffffffffffffffffffff1663e985e9c533306040518363ffffffff1660e01b8152600401610695929190611c32565b602060405180830381865afa1580156106b2573d6000803e3d6000fd5b505050506040513d601f19601f820116820180604052508101906106d69190611c87565b610715576040517f08c379a000000000000000000000000000000000000000000000000000000000815260040161070c90611d00565b60405180910390fd5b600160009054906101000a900473ffffffffffffffffffffffffffffffffffffffff1673ffffffffffffffffffffffffffffffffffffffff16636352211e836040518263ffffffff1660e01b815260040161077091906116f8565b602060405180830381865afa15801561078d573d6000803e3d6000fd5b505050506040513d601f19601f820116820180604052508101906107b19190611d35565b73ffffffffffffffffffffffffffffffffffffffff163373ffffffffffffffffffffffffffffffffffffffff161461081e576040517f08c379a000000000000000000000000000000000000000000000000000000000815260040161081590611dae565b60405180910390fd5b60008111610861576040517f08c379a000000000000000000000000000000000000000000000000000000000815260040161085890611e1a565b60405180910390fd5b6006600083815260200190815260200160002060009054906101000a900460ff16156108f5576000600560008481526020019081526020016000205490506000600282815481106108b5576108b4611b6b565b5b9060005260206000209060050201905060028160040160006101000a81548160ff021916908360028111156108ed576108ec61176f565b5b021790555050505b60006040518060a0016040528060035481526020013373ffffffffffffffffffffffffffffffffffffffff168152602001848152602001838152602001600060028111156109465761094561176f565b5b815250905060028190806001815401808255809150506001900390600052602060002090600502016000909190919091506000820151816000015560208201518160010160006101000a81548173ffffffffffffffffffffffffffffffffffffffff021916908373ffffffffffffffffffffffffffffffffffffffff160217905550604082015181600201556060820151816003015560808201518160040160006101000a81548160ff02191690836002811115610a0757610a0661176f565b5b0217905550505060016006600085815260200190815260200160002060006101000a81548160ff02191690831515021790555060035460056000858152602001908152602001600020819055503360046000600354815260200190815260200160002060006101000a81548173ffffffffffffffffffffffffffffffffffffffff021916908373ffffffffffffffffffffffffffffffffffffffff1602179055503373ffffffffffffffffffffffffffffffffffffffff166003547fd0e9aa5556e03c447575bd31d7a883384c075015de0184785193f025fbfd54518585604051610af3929190611e3a565b60405180910390a360036000815480929190610b0e90611e92565b9190505550505050565b610b2061155e565b73ffffffffffffffffffffffffffffffffffffffff16610b3e611102565b73ffffffffffffffffffffffffffffffffffffffff1614610b94576040517f08c379a0000000000000000000000000000000000000000000000000000000008152600401610b8b90611f27565b60405180910390fd5b80600160006101000a81548173ffffffffffffffffffffffffffffffffffffffff021916908373ffffffffffffffffffffffffffffffffffffffff16021790555050565b610be061155e565b73ffffffffffffffffffffffffffffffffffffffff16610bfe611102565b73ffffffffffffffffffffffffffffffffffffffff1614610c54576040517f08c379a0000000000000000000000000000000000000000000000000000000008152600401610c4b90611f27565b60405180910390fd5b3373ffffffffffffffffffffffffffffffffffffffff166108fc479081150290604051600060405180830381858888f19350505050158015610c9a573d6000803e3d6000fd5b50565b610ca561162a565b6006600083815260200190815260200160002060009054906101000a900460ff1615610dc1576002600560008481526020019081526020016000205481548110610cf257610cf1611b6b565b5b90600052602060002090600502016040518060a0016040529081600082015481526020016001820160009054906101000a900473ffffffffffffffffffffffffffffffffffffffff1673ffffffffffffffffffffffffffffffffffffffff1673ffffffffffffffffffffffffffffffffffffffff16815260200160028201548152602001600382015481526020016004820160009054906101000a900460ff166002811115610da457610da361176f565b5b6002811115610db657610db561176f565b5b815250509050610dce565b610dc961162a565b809150505b919050565b6060600080600090505b600280549050811015610e6b5760006002811115610dfe57610dfd61176f565b5b60028281548110610e1257610e11611b6b565b5b906000526020600020906005020160040160009054906101000a900460ff166002811115610e4357610e4261176f565b5b1415610e58578180610e5490611e92565b9250505b8080610e6390611e92565b915050610ddd565b5060008167ffffffffffffffff811115610e8857610e87611f47565b5b604051908082528060200260200182016040528015610ec157816020015b610eae61162a565b815260200190600190039081610ea65790505b5090506000805b6002805490508110156110505760006002811115610ee957610ee861176f565b5b60028281548110610efd57610efc611b6b565b5b906000526020600020906005020160040160009054906101000a900460ff166002811115610f2e57610f2d61176f565b5b141561103d5760028181548110610f4857610f47611b6b565b5b90600052602060002090600502016040518060a0016040529081600082015481526020016001820160009054906101000a900473ffffffffffffffffffffffffffffffffffffffff1673ffffffffffffffffffffffffffffffffffffffff1673ffffffffffffffffffffffffffffffffffffffff16815260200160028201548152602001600382015481526020016004820160009054906101000a900460ff166002811115610ffa57610ff961176f565b5b600281111561100c5761100b61176f565b5b8152505083838151811061102357611022611b6b565b5b6020026020010181905250818061103990611e92565b9250505b808061104890611e92565b915050610ec8565b5081935050505090565b61106261155e565b73ffffffffffffffffffffffffffffffffffffffff16611080611102565b73ffffffffffffffffffffffffffffffffffffffff16146110d6576040517f08c379a00000000000000000000000000000000000000000000000000000000081526004016110cd90611f27565b60405180910390fd5b6110e06000611566565b565b60066020528060005260406000206000915054906101000a900460ff1681565b60008060009054906101000a900473ffffffffffffffffffffffffffffffffffffffff16905090565b600160009054906101000a900473ffffffffffffffffffffffffffffffffffffffff1681565b60006002828154811061116757611166611b6b565b5b906000526020600020906005020190506000600281111561118b5761118a61176f565b5b8160040160009054906101000a900460ff1660028111156111af576111ae61176f565b5b146111ef576040517f08c379a00000000000000000000000000000000000000000000000000000000081526004016111e690611fc2565b60405180910390fd5b3373ffffffffffffffffffffffffffffffffffffffff168160010160009054906101000a900473ffffffffffffffffffffffffffffffffffffffff1673ffffffffffffffffffffffffffffffffffffffff161415611282576040517f08c379a000000000000000000000000000000000000000000000000000000000815260040161127990612054565b60405180910390fd5b80600301543410156112c9576040517f08c379a00000000000000000000000000000000000000000000000000000000081526004016112c0906120c0565b60405180910390fd5b60018160040160006101000a81548160ff021916908360028111156112f1576112f061176f565b5b0217905550600160009054906101000a900473ffffffffffffffffffffffffffffffffffffffff1673ffffffffffffffffffffffffffffffffffffffff166342842e0e8260010160009054906101000a900473ffffffffffffffffffffffffffffffffffffffff163384600201546040518463ffffffff1660e01b815260040161137d939291906120e0565b600060405180830381600087803b15801561139757600080fd5b505af11580156113ab573d6000803e3d6000fd5b505050506000600660008360020154815260200190815260200160002060006101000a81548160ff0219169083151502179055503373ffffffffffffffffffffffffffffffffffffffff16827f580958e7d2b78e6e91069e3a54d87713100ef5a99d53edaf3b8062a175ca730e60016040516114279190611c17565b60405180910390a35050565b60046020528060005260406000206000915054906101000a900473ffffffffffffffffffffffffffffffffffffffff1681565b61146e61155e565b73ffffffffffffffffffffffffffffffffffffffff1661148c611102565b73ffffffffffffffffffffffffffffffffffffffff16146114e2576040517f08c379a00000000000000000000000000000000000000000000000000000000081526004016114d990611f27565b60405180910390fd5b600073ffffffffffffffffffffffffffffffffffffffff168173ffffffffffffffffffffffffffffffffffffffff161415611552576040517f08c379a000000000000000000000000000000000000000000000000000000000815260040161154990612189565b60405180910390fd5b61155b81611566565b50565b600033905090565b60008060009054906101000a900473ffffffffffffffffffffffffffffffffffffffff169050816000806101000a81548173ffffffffffffffffffffffffffffffffffffffff021916908373ffffffffffffffffffffffffffffffffffffffff1602179055508173ffffffffffffffffffffffffffffffffffffffff168173ffffffffffffffffffffffffffffffffffffffff167f8be0079c531659141344cd1fd0a4f28419497f9722a3daafe3b4186f6b6457e060405160405180910390a35050565b6040518060a0016040528060008152602001600073ffffffffffffffffffffffffffffffffffffffff16815260200160008152602001600081526020016000600281111561167b5761167a61176f565b5b81525090565b600080fd5b6000819050919050565b61169981611686565b81146116a457600080fd5b50565b6000813590506116b681611690565b92915050565b6000602082840312156116d2576116d1611681565b5b60006116e0848285016116a7565b91505092915050565b6116f281611686565b82525050565b600060208201905061170d60008301846116e9565b92915050565b600073ffffffffffffffffffffffffffffffffffffffff82169050919050565b600061173e82611713565b9050919050565b61174e81611733565b82525050565b60006020820190506117696000830184611745565b92915050565b7f4e487b7100000000000000000000000000000000000000000000000000000000600052602160045260246000fd5b600381106117af576117ae61176f565b5b50565b60008190506117c08261179e565b919050565b60006117d0826117b2565b9050919050565b6117e0816117c5565b82525050565b600060a0820190506117fb60008301886116e9565b6118086020830187611745565b61181560408301866116e9565b61182260608301856116e9565b61182f60808301846117d7565b9695505050505050565b600080604083850312156118505761184f611681565b5b600061185e858286016116a7565b925050602061186f858286016116a7565b9150509250929050565b61188281611733565b811461188d57600080fd5b50565b60008135905061189f81611879565b92915050565b6000602082840312156118bb576118ba611681565b5b60006118c984828501611890565b91505092915050565b6118db81611686565b82525050565b6118ea81611733565b82525050565b6118f9816117c5565b82525050565b60a08201600082015161191560008501826118d2565b50602082015161192860208501826118e1565b50604082015161193b60408501826118d2565b50606082015161194e60608501826118d2565b50608082015161196160808501826118f0565b50505050565b600060a08201905061197c60008301846118ff565b92915050565b600081519050919050565b600082825260208201905092915050565b6000819050602082019050919050565b60a0820160008201516119c460008501826118d2565b5060208201516119d760208501826118e1565b5060408201516119ea60408501826118d2565b5060608201516119fd60608501826118d2565b506080820151611a1060808501826118f0565b50505050565b6000611a2283836119ae565b60a08301905092915050565b6000602082019050919050565b6000611a4682611982565b611a50818561198d565b9350611a5b8361199e565b8060005b83811015611a8c578151611a738882611a16565b9750611a7e83611a2e565b925050600181019050611a5f565b5085935050505092915050565b60006020820190508181036000830152611ab38184611a3b565b905092915050565b60008115159050919050565b611ad081611abb565b82525050565b6000602082019050611aeb6000830184611ac7565b92915050565b6000819050919050565b6000611b16611b11611b0c84611713565b611af1565b611713565b9050919050565b6000611b2882611afb565b9050919050565b6000611b3a82611b1d565b9050919050565b611b4a81611b2f565b82525050565b6000602082019050611b656000830184611b41565b92915050565b7f4e487b7100000000000000000000000000000000000000000000000000000000600052603260045260246000fd5b600082825260208201905092915050565b7f54686973207472616465206973206e6f742063757272656e746c79206f70656e600082015250565b6000611be1602083611b9a565b9150611bec82611bab565b602082019050919050565b60006020820190508181036000830152611c1081611bd4565b9050919050565b6000602082019050611c2c60008301846117d7565b92915050565b6000604082019050611c476000830185611745565b611c546020830184611745565b9392505050565b611c6481611abb565b8114611c6f57600080fd5b50565b600081519050611c8181611c5b565b92915050565b600060208284031215611c9d57611c9c611681565b5b6000611cab84828501611c72565b91505092915050565b7f596f75206d75737420617070726f766520666972737400000000000000000000600082015250565b6000611cea601683611b9a565b9150611cf582611cb4565b602082019050919050565b60006020820190508181036000830152611d1981611cdd565b9050919050565b600081519050611d2f81611879565b92915050565b600060208284031215611d4b57611d4a611681565b5b6000611d5984828501611d20565b91505092915050565b7f596f7520646f206e6f74206f776e207468697320746f6b656e00000000000000600082015250565b6000611d98601983611b9a565b9150611da382611d62565b602082019050919050565b60006020820190508181036000830152611dc781611d8b565b9050919050565b7f5072696365206d75737420626520686967686572207468616e20300000000000600082015250565b6000611e04601b83611b9a565b9150611e0f82611dce565b602082019050919050565b60006020820190508181036000830152611e3381611df7565b9050919050565b6000604082019050611e4f60008301856116e9565b611e5c60208301846116e9565b9392505050565b7f4e487b7100000000000000000000000000000000000000000000000000000000600052601160045260246000fd5b6000611e9d82611686565b91507fffffffffffffffffffffffffffffffffffffffffffffffffffffffffffffffff821415611ed057611ecf611e63565b5b600182019050919050565b7f4f776e61626c653a2063616c6c6572206973206e6f7420746865206f776e6572600082015250565b6000611f11602083611b9a565b9150611f1c82611edb565b602082019050919050565b60006020820190508181036000830152611f4081611f04565b9050919050565b7f4e487b7100000000000000000000000000000000000000000000000000000000600052604160045260246000fd5b7f54726164652069736e27742061637469766520616e796d6f7265000000000000600082015250565b6000611fac601a83611b9a565b9150611fb782611f76565b602082019050919050565b60006020820190508181036000830152611fdb81611f9f565b9050919050565b7f596f752063616e27742066756c66696c6c20796f7572206f776e20747261646560008201527f7300000000000000000000000000000000000000000000000000000000000000602082015250565b600061203e602183611b9a565b915061204982611fe2565b604082019050919050565b6000602082019050818103600083015261206d81612031565b9050919050565b7f5061796d656e7420746f6f206c6f770000000000000000000000000000000000600082015250565b60006120aa600f83611b9a565b91506120b582612074565b602082019050919050565b600060208201905081810360008301526120d98161209d565b9050919050565b60006060820190506120f56000830186611745565b6121026020830185611745565b61210f60408301846116e9565b949350505050565b7f4f776e61626c653a206e6577206f776e657220697320746865207a65726f206160008201527f6464726573730000000000000000000000000000000000000000000000000000602082015250565b6000612173602683611b9a565b915061217e82612117565b604082019050919050565b600060208201905081810360008301526121a281612166565b905091905056fea26469706673582212204485385c98b9e50bf65f0cfacb9f0451b040fbf4edf3f4819198b3ca168ddb5464736f6c634300080a0033",
  "immutableReferences": {},
  "source": "// SPDX-License-Identifier: MIT\r\npragma solidity ^0.8.7;\r\n\r\nimport \"./IotaHeroFactory.sol\";\r\n\r\ncontract IotaHeroesMarket is Ownable {\r\n    IotaHeroFactory public heroToken;\r\n\r\n    Trade[] public trades;\r\n    uint256 tradeCounter = 0;\r\n\r\n    enum TradeStatus {\r\n        OPEN,\r\n        FULFILLED,\r\n        CANCELLED\r\n    }\r\n    struct Trade {\r\n        uint256 tradeId;\r\n        address tradeInitiator;\r\n        uint256 itemId;\r\n        uint256 price;\r\n        TradeStatus tradeStatus;\r\n    }\r\n\r\n    mapping(uint256 => address) public tradeToOwner;\r\n    mapping(uint256 => uint256) public heroIdToTradeId;\r\n    mapping(uint256 => bool) public heroIdForSale;\r\n\r\n    event TradeCreated(\r\n        uint256 indexed tradeId,\r\n        address indexed creator,\r\n        uint256 tokenId,\r\n        uint256 price\r\n    );\r\n\r\n    event TradeUpdated(\r\n        uint256 indexed tradeId,\r\n        address indexed updater,\r\n        TradeStatus updatedStatus\r\n    );\r\n\r\n    modifier onlyOwnerOf(uint256 _tradeId) {\r\n        require(tradeToOwner[_tradeId] == msg.sender);\r\n        _;\r\n    }\r\n\r\n    function setTokenAddress(address _tokenAddress) public onlyOwner {\r\n        heroToken = IotaHeroFactory(_tokenAddress);\r\n    }\r\n\r\n    function getTokenAddress() public view returns (address) {\r\n        return address(heroToken);\r\n    }\r\n\r\n    function listTrade(uint256 _itemId, uint256 _price) public {\r\n        require(\r\n            heroToken.isApprovedForAll(msg.sender, address(this)),\r\n            \"You must approve first\"\r\n        );\r\n        require(\r\n            msg.sender == heroToken.ownerOf(_itemId),\r\n            \"You do not own this token\"\r\n        );\r\n        require(_price > 0, \"Price must be higher than 0\");\r\n        if (heroIdForSale[_itemId]) {\r\n            uint256 tradeId = heroIdToTradeId[_itemId];\r\n            Trade storage existingTrade = trades[tradeId];\r\n            existingTrade.tradeStatus = TradeStatus.CANCELLED;\r\n        }\r\n\r\n        Trade memory trade = Trade(\r\n            tradeCounter,\r\n            msg.sender,\r\n            _itemId,\r\n            _price,\r\n            TradeStatus.OPEN\r\n        );\r\n        trades.push(trade);\r\n        heroIdForSale[_itemId] = true;\r\n        heroIdToTradeId[_itemId] = tradeCounter;\r\n        tradeToOwner[tradeCounter] = msg.sender;\r\n        emit TradeCreated(tradeCounter, msg.sender, _itemId, _price);\r\n        tradeCounter++;\r\n    }\r\n\r\n    function cancelTrade(uint256 _tradeId) public onlyOwnerOf(_tradeId) {\r\n        Trade storage trade = trades[_tradeId];\r\n        require(\r\n            trade.tradeStatus == TradeStatus.OPEN,\r\n            \"This trade is not currently open\"\r\n        );\r\n        trade.tradeStatus = TradeStatus.CANCELLED;\r\n        heroIdForSale[trade.itemId] = false;\r\n\r\n        emit TradeUpdated(_tradeId, msg.sender, TradeStatus.CANCELLED);\r\n    }\r\n\r\n    function fulfillTrade(uint256 _tradeId) public payable {\r\n        Trade storage trade = trades[_tradeId];\r\n        require(\r\n            trade.tradeStatus == TradeStatus.OPEN,\r\n            \"Trade isn't active anymore\"\r\n        );\r\n        require(\r\n            trade.tradeInitiator != msg.sender,\r\n            \"You can't fulfill your own trades\"\r\n        );\r\n        require(msg.value >= trade.price, \"Payment too low\");\r\n        trade.tradeStatus = TradeStatus.FULFILLED;\r\n        heroToken.safeTransferFrom(\r\n            trade.tradeInitiator,\r\n            msg.sender,\r\n            trade.itemId\r\n        );\r\n        heroIdForSale[trade.itemId] = false;\r\n        emit TradeUpdated(_tradeId, msg.sender, TradeStatus.FULFILLED);\r\n    }\r\n\r\n    function getTradeForItem(uint256 _itemId)\r\n        public\r\n        view\r\n        returns (Trade memory)\r\n    {\r\n        if (heroIdForSale[_itemId]) {\r\n            return trades[heroIdToTradeId[_itemId]];\r\n        } else {\r\n            Trade memory empty;\r\n            return empty;\r\n        }\r\n    }\r\n\r\n    function getOpenTrades() public view returns (Trade[] memory) {\r\n        uint256 resultCount;\r\n        for (uint256 i = 0; i < trades.length; i++) {\r\n            if (trades[i].tradeStatus == TradeStatus.OPEN) {\r\n                resultCount++;\r\n            }\r\n        }\r\n        Trade[] memory openTrades = new Trade[](resultCount);\r\n        uint256 c = 0;\r\n        for (uint256 i = 0; i < trades.length; i++) {\r\n            if (trades[i].tradeStatus == TradeStatus.OPEN) {\r\n                openTrades[c] = trades[i];\r\n                c++;\r\n            }\r\n        }\r\n        return openTrades;\r\n    }\r\n\r\n    function withdraw() public onlyOwner {\r\n        payable(msg.sender).transfer(address(this).balance);\r\n    }\r\n}\r\n",
  "sourcePath": "C:\\Users\\creld\\source\\repos\\IotaHeroesAzure\\smartcontracts\\contracts\\IotaHeroesMarket.sol",
  "compiler": {
    "name": "solc",
    "version": "0.8.10+commit.fc410830.Emscripten.clang"
  },
  "schemaVersion": "3.4.4",
  "updatedAt": "2022-03-12T01:54:18.279Z",
  "networkType": "ethereum",
  "devdoc": {
    "kind": "dev",
    "methods": {
      "owner()": {
        "details": "Returns the address of the current owner."
      },
      "renounceOwnership()": {
        "details": "Leaves the contract without owner. It will not be possible to call `onlyOwner` functions anymore. Can only be called by the current owner. NOTE: Renouncing ownership will leave the contract without an owner, thereby removing any functionality that is only available to the owner."
      },
      "transferOwnership(address)": {
        "details": "Transfers ownership of the contract to a new account (`newOwner`). Can only be called by the current owner."
      }
    },
    "version": 1
  },
  "userdoc": {
    "kind": "user",
    "methods": {},
    "version": 1
  }
}