{
  "contractName": "IotaHeroAccount",
  "abi": [
    {
      "inputs": [
        {
          "internalType": "address",
          "name": "",
          "type": "address"
        }
      ],
      "name": "addressToId",
      "outputs": [
        {
          "internalType": "uint256",
          "name": "",
          "type": "uint256"
        }
      ],
      "stateMutability": "view",
      "type": "function"
    },
    {
      "inputs": [
        {
          "internalType": "uint256",
          "name": "",
          "type": "uint256"
        }
      ],
      "name": "idToAddress",
      "outputs": [
        {
          "internalType": "address",
          "name": "",
          "type": "address"
        }
      ],
      "stateMutability": "view",
      "type": "function"
    },
    {
      "inputs": [
        {
          "internalType": "uint256",
          "name": "",
          "type": "uint256"
        }
      ],
      "name": "idToUsername",
      "outputs": [
        {
          "internalType": "string",
          "name": "",
          "type": "string"
        }
      ],
      "stateMutability": "view",
      "type": "function"
    },
    {
      "inputs": [
        {
          "internalType": "string",
          "name": "",
          "type": "string"
        }
      ],
      "name": "usernameToId",
      "outputs": [
        {
          "internalType": "uint256",
          "name": "",
          "type": "uint256"
        }
      ],
      "stateMutability": "view",
      "type": "function"
    },
    {
      "inputs": [
        {
          "internalType": "string",
          "name": "_username",
          "type": "string"
        }
      ],
      "name": "signUp",
      "outputs": [],
      "stateMutability": "nonpayable",
      "type": "function"
    },
    {
      "inputs": [
        {
          "internalType": "string",
          "name": "_username",
          "type": "string"
        }
      ],
      "name": "getAddressForUsername",
      "outputs": [
        {
          "internalType": "address",
          "name": "",
          "type": "address"
        }
      ],
      "stateMutability": "view",
      "type": "function"
    },
    {
      "inputs": [
        {
          "internalType": "string",
          "name": "_username",
          "type": "string"
        }
      ],
      "name": "usernameExists",
      "outputs": [
        {
          "internalType": "bool",
          "name": "",
          "type": "bool"
        }
      ],
      "stateMutability": "view",
      "type": "function"
    },
    {
      "inputs": [],
      "name": "isSignedUp",
      "outputs": [
        {
          "internalType": "bool",
          "name": "",
          "type": "bool"
        }
      ],
      "stateMutability": "view",
      "type": "function"
    },
    {
      "inputs": [],
      "name": "getUsername",
      "outputs": [
        {
          "internalType": "string",
          "name": "",
          "type": "string"
        }
      ],
      "stateMutability": "view",
      "type": "function"
    },
    {
      "inputs": [
        {
          "internalType": "address",
          "name": "_address",
          "type": "address"
        }
      ],
      "name": "getUsernameByAddress",
      "outputs": [
        {
          "internalType": "string",
          "name": "",
          "type": "string"
        }
      ],
      "stateMutability": "view",
      "type": "function"
    },
    {
      "inputs": [],
      "name": "getUsernameLength",
      "outputs": [
        {
          "internalType": "uint256",
          "name": "",
          "type": "uint256"
        }
      ],
      "stateMutability": "view",
      "type": "function"
    },
    {
      "inputs": [],
      "name": "currentUserCount",
      "outputs": [
        {
          "internalType": "uint256",
          "name": "",
          "type": "uint256"
        }
      ],
      "stateMutability": "view",
      "type": "function"
    }
  ],
  "bytecode": "0x6080604052600160005534801561001557600080fd5b5061136d806100256000396000f3fe608060405234801561001057600080fd5b50600436106100b45760003560e01c80636d0cac8e116100715780636d0cac8e146101b5578063adcfb4fc146101d3578063cb0e0d7d146101ef578063ed1a998d1461021f578063f1c466061461024f578063f309e3f91461026d576100b4565b8063095a0535146100b9578063191d1cb4146100e95780632a2d0c471461010757806339bdca1f146101375780635e1fe1db14610167578063681f3e6d14610197575b600080fd5b6100d360048036038101906100ce9190610d7d565b61029d565b6040516100e09190610e07565b60405180910390f35b6100f16102f8565b6040516100fe9190610e3d565b60405180910390f35b610121600480360381019061011c9190610e8e565b610342565b60405161012e9190610e07565b60405180910390f35b610151600480360381019061014c9190610e8e565b610375565b60405161015e9190610f43565b60405180910390f35b610181600480360381019061017c9190610d7d565b610415565b60405161018e9190610f74565b60405180910390f35b61019f610443565b6040516101ac9190610f43565b60405180910390f35b6101bd610525565b6040516101ca9190610f74565b60405180910390f35b6101ed60048036038101906101e89190610d7d565b61053b565b005b61020960048036038101906102049190610fbb565b610780565b6040516102169190610f74565b60405180910390f35b61023960048036038101906102349190610fbb565b610798565b6040516102469190610f43565b60405180910390f35b61025761087c565b6040516102649190610f74565b60405180910390f35b61028760048036038101906102829190610d7d565b610898565b6040516102949190610e3d565b60405180910390f35b6000600160006004846040516102b39190611024565b908152602001604051809103902054815260200190815260200160002060009054906101000a900473ffffffffffffffffffffffffffffffffffffffff169050919050565b600080600360003273ffffffffffffffffffffffffffffffffffffffff1673ffffffffffffffffffffffffffffffffffffffff168152602001908152602001600020541415905090565b60016020528060005260406000206000915054906101000a900473ffffffffffffffffffffffffffffffffffffffff1681565b600260205280600052604060002060009150905080546103949061106a565b80601f01602080910402602001604051908101604052809291908181526020018280546103c09061106a565b801561040d5780601f106103e25761010080835404028352916020019161040d565b820191906000526020600020905b8154815290600101906020018083116103f057829003601f168201915b505050505081565b6004818051602081018201805184825260208301602085012081835280955050505050506000915090505481565b606060026000600360003373ffffffffffffffffffffffffffffffffffffffff1673ffffffffffffffffffffffffffffffffffffffff16815260200190815260200160002054815260200190815260200160002080546104a29061106a565b80601f01602080910402602001604051908101604052809291908181526020018280546104ce9061106a565b801561051b5780601f106104f05761010080835404028352916020019161051b565b820191906000526020600020905b8154815290600101906020018083116104fe57829003601f168201915b5050505050905090565b6000600160005461053691906110cb565b905090565b80600060048260405161054e9190611024565b9081526020016040518091039020541461059d576040517f08c379a00000000000000000000000000000000000000000000000000000000081526004016105949061114b565b60405180910390fd5b6000600360003373ffffffffffffffffffffffffffffffffffffffff1673ffffffffffffffffffffffffffffffffffffffff168152602001908152602001600020541461061f576040517f08c379a0000000000000000000000000000000000000000000000000000000008152600401610616906111b7565b60405180910390fd5b81600061062b826108c3565b9050600d8110801561063d5750600281115b61067c576040517f08c379a000000000000000000000000000000000000000000000000000000000815260040161067390611249565b60405180910390fd5b600054600360003373ffffffffffffffffffffffffffffffffffffffff1673ffffffffffffffffffffffffffffffffffffffff1681526020019081526020016000208190555033600160008054815260200190815260200160002060006101000a81548173ffffffffffffffffffffffffffffffffffffffff021916908373ffffffffffffffffffffffffffffffffffffffff160217905550836002600080548152602001908152602001600020908051906020019061073d929190610b80565b506000546004856040516107519190611024565b90815260200160405180910390208190555060008081548092919061077590611269565b919050555050505050565b60036020528060005260406000206000915090505481565b606060026000600360008573ffffffffffffffffffffffffffffffffffffffff1673ffffffffffffffffffffffffffffffffffffffff16815260200190815260200160002054815260200190815260200160002080546107f79061106a565b80601f01602080910402602001604051908101604052809291908181526020018280546108239061106a565b80156108705780601f1061084557610100808354040283529160200191610870565b820191906000526020600020905b81548152906001019060200180831161085357829003601f168201915b50505050509050919050565b600080610887610443565b9050610892816108c3565b91505090565b6000806004836040516108ab9190611024565b90815260200160405180910390205414159050919050565b6000806000905060008390505b8051821015610b7957600060f81b60078284815181106108f3576108f26112b2565b5b602001015160f81c60f81b7effffffffffffffffffffffffffffffffffffffffffffffffffffffffffffff1916901c7effffffffffffffffffffffffffffffffffffffffffffffffffffffffffffff1916141561095e5760018261095791906112e1565b9150610b66565b600660f81b7effffffffffffffffffffffffffffffffffffffffffffffffffffffffffffff1916600582848151811061099a576109996112b2565b5b602001015160f81c60f81b7effffffffffffffffffffffffffffffffffffffffffffffffffffffffffffff1916901c7effffffffffffffffffffffffffffffffffffffffffffffffffffffffffffff19161415610a05576002826109fe91906112e1565b9150610b65565b600e60f81b7effffffffffffffffffffffffffffffffffffffffffffffffffffffffffffff19166004828481518110610a4157610a406112b2565b5b602001015160f81c60f81b7effffffffffffffffffffffffffffffffffffffffffffffffffffffffffffff1916901c7effffffffffffffffffffffffffffffffffffffffffffffffffffffffffffff19161415610aac57600382610aa591906112e1565b9150610b64565b601e60f81b7effffffffffffffffffffffffffffffffffffffffffffffffffffffffffffff19166003828481518110610ae857610ae76112b2565b5b602001015160f81c60f81b7effffffffffffffffffffffffffffffffffffffffffffffffffffffffffffff1916901c7effffffffffffffffffffffffffffffffffffffffffffffffffffffffffffff19161415610b5357600482610b4c91906112e1565b9150610b63565b600182610b6091906112e1565b91505b5b5b5b8280610b7190611269565b9350506108d0565b5050919050565b828054610b8c9061106a565b90600052602060002090601f016020900481019282610bae5760008555610bf5565b82601f10610bc757805160ff1916838001178555610bf5565b82800160010185558215610bf5579182015b82811115610bf4578251825591602001919060010190610bd9565b5b509050610c029190610c06565b5090565b5b80821115610c1f576000816000905550600101610c07565b5090565b6000604051905090565b600080fd5b600080fd5b600080fd5b600080fd5b6000601f19601f8301169050919050565b7f4e487b7100000000000000000000000000000000000000000000000000000000600052604160045260246000fd5b610c8a82610c41565b810181811067ffffffffffffffff82111715610ca957610ca8610c52565b5b80604052505050565b6000610cbc610c23565b9050610cc88282610c81565b919050565b600067ffffffffffffffff821115610ce857610ce7610c52565b5b610cf182610c41565b9050602081019050919050565b82818337600083830152505050565b6000610d20610d1b84610ccd565b610cb2565b905082815260208101848484011115610d3c57610d3b610c3c565b5b610d47848285610cfe565b509392505050565b600082601f830112610d6457610d63610c37565b5b8135610d74848260208601610d0d565b91505092915050565b600060208284031215610d9357610d92610c2d565b5b600082013567ffffffffffffffff811115610db157610db0610c32565b5b610dbd84828501610d4f565b91505092915050565b600073ffffffffffffffffffffffffffffffffffffffff82169050919050565b6000610df182610dc6565b9050919050565b610e0181610de6565b82525050565b6000602082019050610e1c6000830184610df8565b92915050565b60008115159050919050565b610e3781610e22565b82525050565b6000602082019050610e526000830184610e2e565b92915050565b6000819050919050565b610e6b81610e58565b8114610e7657600080fd5b50565b600081359050610e8881610e62565b92915050565b600060208284031215610ea457610ea3610c2d565b5b6000610eb284828501610e79565b91505092915050565b600081519050919050565b600082825260208201905092915050565b60005b83811015610ef5578082015181840152602081019050610eda565b83811115610f04576000848401525b50505050565b6000610f1582610ebb565b610f1f8185610ec6565b9350610f2f818560208601610ed7565b610f3881610c41565b840191505092915050565b60006020820190508181036000830152610f5d8184610f0a565b905092915050565b610f6e81610e58565b82525050565b6000602082019050610f896000830184610f65565b92915050565b610f9881610de6565b8114610fa357600080fd5b50565b600081359050610fb581610f8f565b92915050565b600060208284031215610fd157610fd0610c2d565b5b6000610fdf84828501610fa6565b91505092915050565b600081905092915050565b6000610ffe82610ebb565b6110088185610fe8565b9350611018818560208601610ed7565b80840191505092915050565b60006110308284610ff3565b915081905092915050565b7f4e487b7100000000000000000000000000000000000000000000000000000000600052602260045260246000fd5b6000600282049050600182168061108257607f821691505b602082108114156110965761109561103b565b5b50919050565b7f4e487b7100000000000000000000000000000000000000000000000000000000600052601160045260246000fd5b60006110d682610e58565b91506110e183610e58565b9250828210156110f4576110f361109c565b5b828203905092915050565b7f557365726e616d652069732074616b656e000000000000000000000000000000600082015250565b6000611135601183610ec6565b9150611140826110ff565b602082019050919050565b6000602082019050818103600083015261116481611128565b9050919050565b7f596f7520616c7265616479206861766520616e206163636f756e742100000000600082015250565b60006111a1601c83610ec6565b91506111ac8261116b565b602082019050919050565b600060208201905081810360008301526111d081611194565b9050919050565b7f557365726e616d65206d757374206265206265747765656e203320616e64203160008201527f3220636861726163746572730000000000000000000000000000000000000000602082015250565b6000611233602c83610ec6565b915061123e826111d7565b604082019050919050565b6000602082019050818103600083015261126281611226565b9050919050565b600061127482610e58565b91507fffffffffffffffffffffffffffffffffffffffffffffffffffffffffffffffff8214156112a7576112a661109c565b5b600182019050919050565b7f4e487b7100000000000000000000000000000000000000000000000000000000600052603260045260246000fd5b60006112ec82610e58565b91506112f783610e58565b9250827fffffffffffffffffffffffffffffffffffffffffffffffffffffffffffffffff0382111561132c5761132b61109c565b5b82820190509291505056fea2646970667358221220ae2719b7ad9e9205655082356a79cdb80792486c19a8b181ff8f8be4fb84824764736f6c634300080a0033",
  "immutableReferences": {},
  "source": "// SPDX-License-Identifier: MIT\r\npragma solidity ^0.8.7;\r\n\r\ncontract IotaHeroAccount {\r\n    uint256 nextAccountId = 1;\r\n\r\n    mapping(uint256 => address) public idToAddress;\r\n    mapping(uint256 => string) public idToUsername;\r\n    mapping(address => uint256) public addressToId;\r\n    mapping(string => uint256) public usernameToId;\r\n\r\n    function signUp(string memory _username)\r\n        external\r\n        usernameNotTaken(_username)\r\n        noAccount\r\n        usernameHasValidLength(_username)\r\n    {\r\n        addressToId[msg.sender] = nextAccountId;\r\n        idToAddress[nextAccountId] = msg.sender;\r\n        idToUsername[nextAccountId] = _username;\r\n        usernameToId[_username] = nextAccountId;\r\n        nextAccountId++;\r\n    }\r\n\r\n    modifier usernameNotTaken(string memory _username) {\r\n        require(usernameToId[_username] == 0, \"Username is taken\");\r\n        _;\r\n    }\r\n    modifier hasAccount() {\r\n        require(isSignedUp() == true, \"You don't have an account\");\r\n        _;\r\n    }\r\n    modifier noAccount() {\r\n        require(addressToId[msg.sender] == 0, \"You already have an account!\");\r\n        _;\r\n    }\r\n    modifier usernameHasValidLength(string memory _username) {\r\n        uint256 length = utfStringLength(_username);\r\n        require(\r\n            length < 13 && length > 2,\r\n            \"Username must be between 3 and 12 characters\"\r\n        );\r\n        _;\r\n    }\r\n\r\n    function getAddressForUsername(string memory _username)\r\n        public\r\n        view\r\n        returns (address)\r\n    {\r\n        return idToAddress[usernameToId[_username]];\r\n    }\r\n\r\n    function usernameExists(string memory _username)\r\n        public\r\n        view\r\n        returns (bool)\r\n    {\r\n        return (usernameToId[_username] != 0);\r\n    }\r\n\r\n    function isSignedUp() public view returns (bool) {\r\n        return addressToId[tx.origin] != 0;\r\n    }\r\n\r\n    function getUsername() public view returns (string memory) {\r\n        return idToUsername[addressToId[msg.sender]];\r\n    }\r\n\r\n    function getUsernameByAddress(address _address)\r\n        public\r\n        view\r\n        returns (string memory)\r\n    {\r\n        return idToUsername[addressToId[_address]];\r\n    }\r\n\r\n    function getUsernameLength() public view returns (uint256) {\r\n        string memory username = getUsername();\r\n        return utfStringLength(username);\r\n    }\r\n\r\n    function currentUserCount() public view returns (uint256) {\r\n        return (nextAccountId - 1);\r\n    }\r\n\r\n    function utfStringLength(string memory str)\r\n        internal\r\n        pure\r\n        returns (uint256 length)\r\n    {\r\n        uint256 i = 0;\r\n        bytes memory string_rep = bytes(str);\r\n\r\n        while (i < string_rep.length) {\r\n            if (string_rep[i] >> 7 == 0) i += 1;\r\n            else if (string_rep[i] >> 5 == bytes1(uint8(0x6))) i += 2;\r\n            else if (string_rep[i] >> 4 == bytes1(uint8(0xE))) i += 3;\r\n            else if (string_rep[i] >> 3 == bytes1(uint8(0x1E)))\r\n                i += 4;\r\n                //For safety\r\n            else i += 1;\r\n\r\n            length++;\r\n        }\r\n    }\r\n}\r\n",
  "sourcePath": "C:\\Users\\creld\\source\\repos\\IotaHeroesAzure\\smartcontracts\\contracts\\IotaHeroAccount.sol",
  "compiler": {
    "name": "solc",
    "version": "0.8.10+commit.fc410830.Emscripten.clang"
  },
  "schemaVersion": "3.4.4",
  "updatedAt": "2022-04-24T10:21:04.611Z",
  "devdoc": {
    "kind": "dev",
    "methods": {},
    "version": 1
  },
  "userdoc": {
    "kind": "user",
    "methods": {},
    "version": 1
  }
}