{
  "contractName": "IotaHeroUtil",
  "abi": [
    {
      "anonymous": false,
      "inputs": [
        {
          "indexed": true,
          "internalType": "address",
          "name": "owner",
          "type": "address"
        },
        {
          "indexed": true,
          "internalType": "address",
          "name": "approved",
          "type": "address"
        },
        {
          "indexed": true,
          "internalType": "uint256",
          "name": "tokenId",
          "type": "uint256"
        }
      ],
      "name": "Approval",
      "type": "event"
    },
    {
      "anonymous": false,
      "inputs": [
        {
          "indexed": true,
          "internalType": "address",
          "name": "owner",
          "type": "address"
        },
        {
          "indexed": true,
          "internalType": "address",
          "name": "operator",
          "type": "address"
        },
        {
          "indexed": false,
          "internalType": "bool",
          "name": "approved",
          "type": "bool"
        }
      ],
      "name": "ApprovalForAll",
      "type": "event"
    },
    {
      "anonymous": false,
      "inputs": [
        {
          "indexed": true,
          "internalType": "address",
          "name": "owner",
          "type": "address"
        },
        {
          "indexed": false,
          "internalType": "uint256",
          "name": "id",
          "type": "uint256"
        },
        {
          "indexed": false,
          "internalType": "uint256",
          "name": "dna",
          "type": "uint256"
        }
      ],
      "name": "HeroMinted",
      "type": "event"
    },
    {
      "anonymous": false,
      "inputs": [
        {
          "indexed": true,
          "internalType": "address",
          "name": "previousOwner",
          "type": "address"
        },
        {
          "indexed": true,
          "internalType": "address",
          "name": "newOwner",
          "type": "address"
        }
      ],
      "name": "OwnershipTransferred",
      "type": "event"
    },
    {
      "anonymous": false,
      "inputs": [
        {
          "indexed": true,
          "internalType": "address",
          "name": "from",
          "type": "address"
        },
        {
          "indexed": true,
          "internalType": "address",
          "name": "to",
          "type": "address"
        },
        {
          "indexed": true,
          "internalType": "uint256",
          "name": "tokenId",
          "type": "uint256"
        }
      ],
      "name": "Transfer",
      "type": "event"
    },
    {
      "inputs": [
        {
          "internalType": "address",
          "name": "",
          "type": "address"
        }
      ],
      "name": "addressToId",
      "outputs": [
        {
          "internalType": "uint256",
          "name": "",
          "type": "uint256"
        }
      ],
      "stateMutability": "view",
      "type": "function"
    },
    {
      "inputs": [
        {
          "internalType": "address",
          "name": "to",
          "type": "address"
        },
        {
          "internalType": "uint256",
          "name": "tokenId",
          "type": "uint256"
        }
      ],
      "name": "approve",
      "outputs": [],
      "stateMutability": "nonpayable",
      "type": "function"
    },
    {
      "inputs": [
        {
          "internalType": "address",
          "name": "owner",
          "type": "address"
        }
      ],
      "name": "balanceOf",
      "outputs": [
        {
          "internalType": "uint256",
          "name": "",
          "type": "uint256"
        }
      ],
      "stateMutability": "view",
      "type": "function"
    },
    {
      "inputs": [],
      "name": "currentUserCount",
      "outputs": [
        {
          "internalType": "uint256",
          "name": "",
          "type": "uint256"
        }
      ],
      "stateMutability": "view",
      "type": "function"
    },
    {
      "inputs": [
        {
          "internalType": "uint256",
          "name": "tokenId",
          "type": "uint256"
        }
      ],
      "name": "getApproved",
      "outputs": [
        {
          "internalType": "address",
          "name": "",
          "type": "address"
        }
      ],
      "stateMutability": "view",
      "type": "function"
    },
    {
      "inputs": [],
      "name": "getUsername",
      "outputs": [
        {
          "internalType": "string",
          "name": "",
          "type": "string"
        }
      ],
      "stateMutability": "view",
      "type": "function"
    },
    {
      "inputs": [
        {
          "internalType": "address",
          "name": "_address",
          "type": "address"
        }
      ],
      "name": "getUsernameByAddress",
      "outputs": [
        {
          "internalType": "string",
          "name": "",
          "type": "string"
        }
      ],
      "stateMutability": "view",
      "type": "function"
    },
    {
      "inputs": [],
      "name": "getUsernameLength",
      "outputs": [
        {
          "internalType": "uint256",
          "name": "",
          "type": "uint256"
        }
      ],
      "stateMutability": "view",
      "type": "function"
    },
    {
      "inputs": [
        {
          "internalType": "uint256",
          "name": "",
          "type": "uint256"
        }
      ],
      "name": "heroes",
      "outputs": [
        {
          "internalType": "uint256",
          "name": "id",
          "type": "uint256"
        },
        {
          "internalType": "uint256",
          "name": "dna",
          "type": "uint256"
        },
        {
          "internalType": "uint256",
          "name": "xp",
          "type": "uint256"
        },
        {
          "internalType": "uint256",
          "name": "mental",
          "type": "uint256"
        },
        {
          "internalType": "uint256",
          "name": "physical",
          "type": "uint256"
        },
        {
          "internalType": "uint16",
          "name": "level",
          "type": "uint16"
        },
        {
          "internalType": "uint256",
          "name": "restingTill",
          "type": "uint256"
        },
        {
          "internalType": "uint256",
          "name": "debug",
          "type": "uint256"
        },
        {
          "internalType": "string",
          "name": "name",
          "type": "string"
        }
      ],
      "stateMutability": "view",
      "type": "function"
    },
    {
      "inputs": [
        {
          "internalType": "uint256",
          "name": "",
          "type": "uint256"
        }
      ],
      "name": "idToAddress",
      "outputs": [
        {
          "internalType": "address",
          "name": "",
          "type": "address"
        }
      ],
      "stateMutability": "view",
      "type": "function"
    },
    {
      "inputs": [
        {
          "internalType": "uint256",
          "name": "",
          "type": "uint256"
        }
      ],
      "name": "idToUsername",
      "outputs": [
        {
          "internalType": "string",
          "name": "",
          "type": "string"
        }
      ],
      "stateMutability": "view",
      "type": "function"
    },
    {
      "inputs": [
        {
          "internalType": "address",
          "name": "owner",
          "type": "address"
        },
        {
          "internalType": "address",
          "name": "operator",
          "type": "address"
        }
      ],
      "name": "isApprovedForAll",
      "outputs": [
        {
          "internalType": "bool",
          "name": "",
          "type": "bool"
        }
      ],
      "stateMutability": "view",
      "type": "function"
    },
    {
      "inputs": [],
      "name": "isSignedUp",
      "outputs": [
        {
          "internalType": "bool",
          "name": "",
          "type": "bool"
        }
      ],
      "stateMutability": "view",
      "type": "function"
    },
    {
      "inputs": [],
      "name": "name",
      "outputs": [
        {
          "internalType": "string",
          "name": "",
          "type": "string"
        }
      ],
      "stateMutability": "view",
      "type": "function"
    },
    {
      "inputs": [
        {
          "internalType": "uint256",
          "name": "_heroId",
          "type": "uint256"
        },
        {
          "internalType": "string",
          "name": "_name",
          "type": "string"
        }
      ],
      "name": "nameChange",
      "outputs": [],
      "stateMutability": "nonpayable",
      "type": "function"
    },
    {
      "inputs": [],
      "name": "owner",
      "outputs": [
        {
          "internalType": "address",
          "name": "",
          "type": "address"
        }
      ],
      "stateMutability": "view",
      "type": "function"
    },
    {
      "inputs": [
        {
          "internalType": "uint256",
          "name": "tokenId",
          "type": "uint256"
        }
      ],
      "name": "ownerOf",
      "outputs": [
        {
          "internalType": "address",
          "name": "",
          "type": "address"
        }
      ],
      "stateMutability": "view",
      "type": "function"
    },
    {
      "inputs": [],
      "name": "renounceOwnership",
      "outputs": [],
      "stateMutability": "nonpayable",
      "type": "function"
    },
    {
      "inputs": [
        {
          "internalType": "address",
          "name": "from",
          "type": "address"
        },
        {
          "internalType": "address",
          "name": "to",
          "type": "address"
        },
        {
          "internalType": "uint256",
          "name": "tokenId",
          "type": "uint256"
        }
      ],
      "name": "safeTransferFrom",
      "outputs": [],
      "stateMutability": "nonpayable",
      "type": "function"
    },
    {
      "inputs": [
        {
          "internalType": "address",
          "name": "from",
          "type": "address"
        },
        {
          "internalType": "address",
          "name": "to",
          "type": "address"
        },
        {
          "internalType": "uint256",
          "name": "tokenId",
          "type": "uint256"
        },
        {
          "internalType": "bytes",
          "name": "_data",
          "type": "bytes"
        }
      ],
      "name": "safeTransferFrom",
      "outputs": [],
      "stateMutability": "nonpayable",
      "type": "function"
    },
    {
      "inputs": [
        {
          "internalType": "address",
          "name": "operator",
          "type": "address"
        },
        {
          "internalType": "bool",
          "name": "approved",
          "type": "bool"
        }
      ],
      "name": "setApprovalForAll",
      "outputs": [],
      "stateMutability": "nonpayable",
      "type": "function"
    },
    {
      "inputs": [
        {
          "internalType": "string",
          "name": "_username",
          "type": "string"
        }
      ],
      "name": "signUp",
      "outputs": [],
      "stateMutability": "nonpayable",
      "type": "function"
    },
    {
      "inputs": [],
      "name": "spawnHero",
      "outputs": [],
      "stateMutability": "nonpayable",
      "type": "function"
    },
    {
      "inputs": [
        {
          "internalType": "bytes4",
          "name": "interfaceId",
          "type": "bytes4"
        }
      ],
      "name": "supportsInterface",
      "outputs": [
        {
          "internalType": "bool",
          "name": "",
          "type": "bool"
        }
      ],
      "stateMutability": "view",
      "type": "function"
    },
    {
      "inputs": [],
      "name": "symbol",
      "outputs": [
        {
          "internalType": "string",
          "name": "",
          "type": "string"
        }
      ],
      "stateMutability": "view",
      "type": "function"
    },
    {
      "inputs": [
        {
          "internalType": "uint256",
          "name": "tokenId",
          "type": "uint256"
        }
      ],
      "name": "tokenURI",
      "outputs": [
        {
          "internalType": "string",
          "name": "",
          "type": "string"
        }
      ],
      "stateMutability": "view",
      "type": "function"
    },
    {
      "inputs": [
        {
          "internalType": "address",
          "name": "from",
          "type": "address"
        },
        {
          "internalType": "address",
          "name": "to",
          "type": "address"
        },
        {
          "internalType": "uint256",
          "name": "tokenId",
          "type": "uint256"
        }
      ],
      "name": "transferFrom",
      "outputs": [],
      "stateMutability": "nonpayable",
      "type": "function"
    },
    {
      "inputs": [
        {
          "internalType": "address",
          "name": "newOwner",
          "type": "address"
        }
      ],
      "name": "transferOwnership",
      "outputs": [],
      "stateMutability": "nonpayable",
      "type": "function"
    },
    {
      "inputs": [
        {
          "internalType": "string",
          "name": "_username",
          "type": "string"
        }
      ],
      "name": "usernameExists",
      "outputs": [
        {
          "internalType": "bool",
          "name": "",
          "type": "bool"
        }
      ],
      "stateMutability": "view",
      "type": "function"
    },
    {
      "inputs": [
        {
          "internalType": "string",
          "name": "",
          "type": "string"
        }
      ],
      "name": "usernameToId",
      "outputs": [
        {
          "internalType": "uint256",
          "name": "",
          "type": "uint256"
        }
      ],
      "stateMutability": "view",
      "type": "function"
    },
    {
      "inputs": [],
      "name": "withdraw",
      "outputs": [],
      "stateMutability": "payable",
      "type": "function"
    },
    {
      "inputs": [],
      "name": "getHeroes",
      "outputs": [
        {
          "components": [
            {
              "internalType": "uint256",
              "name": "id",
              "type": "uint256"
            },
            {
              "internalType": "uint256",
              "name": "dna",
              "type": "uint256"
            },
            {
              "internalType": "uint256",
              "name": "xp",
              "type": "uint256"
            },
            {
              "internalType": "uint256",
              "name": "mental",
              "type": "uint256"
            },
            {
              "internalType": "uint256",
              "name": "physical",
              "type": "uint256"
            },
            {
              "internalType": "uint16",
              "name": "level",
              "type": "uint16"
            },
            {
              "internalType": "uint256",
              "name": "restingTill",
              "type": "uint256"
            },
            {
              "internalType": "uint256",
              "name": "debug",
              "type": "uint256"
            },
            {
              "internalType": "string",
              "name": "name",
              "type": "string"
            }
          ],
          "internalType": "struct IotaHeroFactory.Hero[]",
          "name": "",
          "type": "tuple[]"
        }
      ],
      "stateMutability": "view",
      "type": "function"
    },
    {
      "inputs": [
        {
          "internalType": "address",
          "name": "_owner",
          "type": "address"
        }
      ],
      "name": "getOwnerHeroes",
      "outputs": [
        {
          "components": [
            {
              "internalType": "uint256",
              "name": "id",
              "type": "uint256"
            },
            {
              "internalType": "uint256",
              "name": "dna",
              "type": "uint256"
            },
            {
              "internalType": "uint256",
              "name": "xp",
              "type": "uint256"
            },
            {
              "internalType": "uint256",
              "name": "mental",
              "type": "uint256"
            },
            {
              "internalType": "uint256",
              "name": "physical",
              "type": "uint256"
            },
            {
              "internalType": "uint16",
              "name": "level",
              "type": "uint16"
            },
            {
              "internalType": "uint256",
              "name": "restingTill",
              "type": "uint256"
            },
            {
              "internalType": "uint256",
              "name": "debug",
              "type": "uint256"
            },
            {
              "internalType": "string",
              "name": "name",
              "type": "string"
            }
          ],
          "internalType": "struct IotaHeroFactory.Hero[]",
          "name": "",
          "type": "tuple[]"
        }
      ],
      "stateMutability": "view",
      "type": "function"
    }
  ],
  "bytecode": "0x608060405260016007556000600c55601e600d553480156200002057600080fd5b506040518060400160405280600881526020017f496f74614865726f0000000000000000000000000000000000000000000000008152506040518060400160405280600281526020017f49480000000000000000000000000000000000000000000000000000000000008152508160009080519060200190620000a5929190620001b5565b508060019080519060200190620000be929190620001b5565b505050620000e1620000d5620000e760201b60201c565b620000ef60201b60201c565b620002ca565b600033905090565b6000600660009054906101000a900473ffffffffffffffffffffffffffffffffffffffff16905081600660006101000a81548173ffffffffffffffffffffffffffffffffffffffff021916908373ffffffffffffffffffffffffffffffffffffffff1602179055508173ffffffffffffffffffffffffffffffffffffffff168173ffffffffffffffffffffffffffffffffffffffff167f8be0079c531659141344cd1fd0a4f28419497f9722a3daafe3b4186f6b6457e060405160405180910390a35050565b828054620001c39062000294565b90600052602060002090601f016020900481019282620001e7576000855562000233565b82601f106200020257805160ff191683800117855562000233565b8280016001018555821562000233579182015b828111156200023257825182559160200191906001019062000215565b5b50905062000242919062000246565b5090565b5b808211156200026157600081600090555060010162000247565b5090565b7f4e487b7100000000000000000000000000000000000000000000000000000000600052602260045260246000fd5b60006002820490506001821680620002ad57607f821691505b60208210811415620002c457620002c362000265565b5b50919050565b61496280620002da6000396000f3fe6080604052600436106101ee5760003560e01c8063715018a61161010d578063b88d4fde116100a0578063e985e9c51161006f578063e985e9c51461071e578063ed1a998d1461075b578063f1c4660614610798578063f2fde38b146107c3578063f309e3f9146107ec576101ee565b8063b88d4fde1461063e578063c87b56dd14610667578063cb0e0d7d146106a4578063ddf368a2146106e1576101ee565b80639f72ed76116100dc5780639f72ed7614610590578063a22cb465146105a7578063a8d4a03b146105d0578063adcfb4fc14610615576101ee565b8063715018a6146104f85780638da5cb5b1461050f57806395d89b411461053a5780639a8d288214610565576101ee565b80633ccfd60b116101855780636352211e116101545780636352211e14610428578063681f3e6d146104655780636d0cac8e1461049057806370a08231146104bb576101ee565b80633ccfd60b1461038f57806342842e0e1461039957806348646f7b146103c25780635e1fe1db146103eb576101ee565b8063191d1cb4116101c1578063191d1cb4146102c157806323b872dd146102ec5780632a2d0c471461031557806339bdca1f14610352576101ee565b806301ffc9a7146101f357806306fdde0314610230578063081812fc1461025b578063095ea7b314610298575b600080fd5b3480156101ff57600080fd5b5061021a600480360381019061021591906130fb565b610829565b6040516102279190613143565b60405180910390f35b34801561023c57600080fd5b5061024561090b565b60405161025291906131f7565b60405180910390f35b34801561026757600080fd5b50610282600480360381019061027d919061324f565b61099d565b60405161028f91906132bd565b60405180910390f35b3480156102a457600080fd5b506102bf60048036038101906102ba9190613304565b610a22565b005b3480156102cd57600080fd5b506102d6610b3a565b6040516102e39190613143565b60405180910390f35b3480156102f857600080fd5b50610313600480360381019061030e9190613344565b610b84565b005b34801561032157600080fd5b5061033c6004803603810190610337919061324f565b610be4565b60405161034991906132bd565b60405180910390f35b34801561035e57600080fd5b506103796004803603810190610374919061324f565b610c17565b60405161038691906131f7565b60405180910390f35b610397610cb7565b005b3480156103a557600080fd5b506103c060048036038101906103bb9190613344565b610d89565b005b3480156103ce57600080fd5b506103e960048036038101906103e491906134cc565b610da9565b005b3480156103f757600080fd5b50610412600480360381019061040d9190613528565b610f11565b60405161041f9190613580565b60405180910390f35b34801561043457600080fd5b5061044f600480360381019061044a919061324f565b610f3f565b60405161045c91906132bd565b60405180910390f35b34801561047157600080fd5b5061047a610ff1565b60405161048791906131f7565b60405180910390f35b34801561049c57600080fd5b506104a56110d3565b6040516104b29190613580565b60405180910390f35b3480156104c757600080fd5b506104e260048036038101906104dd919061359b565b6110e9565b6040516104ef9190613580565b60405180910390f35b34801561050457600080fd5b5061050d6111a1565b005b34801561051b57600080fd5b50610524611229565b60405161053191906132bd565b60405180910390f35b34801561054657600080fd5b5061054f611253565b60405161055c91906131f7565b60405180910390f35b34801561057157600080fd5b5061057a6112e5565b60405161058791906137c5565b60405180910390f35b34801561059c57600080fd5b506105a561143d565b005b3480156105b357600080fd5b506105ce60048036038101906105c99190613813565b6114db565b005b3480156105dc57600080fd5b506105f760048036038101906105f2919061324f565b6114f1565b60405161060c99989796959493929190613862565b60405180910390f35b34801561062157600080fd5b5061063c60048036038101906106379190613528565b6115e5565b005b34801561064a57600080fd5b5061066560048036038101906106609190613997565b61182d565b005b34801561067357600080fd5b5061068e6004803603810190610689919061324f565b61188f565b60405161069b91906131f7565b60405180910390f35b3480156106b057600080fd5b506106cb60048036038101906106c6919061359b565b611936565b6040516106d89190613580565b60405180910390f35b3480156106ed57600080fd5b506107086004803603810190610703919061359b565b61194e565b60405161071591906137c5565b60405180910390f35b34801561072a57600080fd5b5061074560048036038101906107409190613a1a565b611b6e565b6040516107529190613143565b60405180910390f35b34801561076757600080fd5b50610782600480360381019061077d919061359b565b611c02565b60405161078f91906131f7565b60405180910390f35b3480156107a457600080fd5b506107ad611ce6565b6040516107ba9190613580565b60405180910390f35b3480156107cf57600080fd5b506107ea60048036038101906107e5919061359b565b611d02565b005b3480156107f857600080fd5b50610813600480360381019061080e9190613528565b611dfa565b6040516108209190613143565b60405180910390f35b60007f80ac58cd000000000000000000000000000000000000000000000000000000007bffffffffffffffffffffffffffffffffffffffffffffffffffffffff1916827bffffffffffffffffffffffffffffffffffffffffffffffffffffffff191614806108f457507f5b5e139f000000000000000000000000000000000000000000000000000000007bffffffffffffffffffffffffffffffffffffffffffffffffffffffff1916827bffffffffffffffffffffffffffffffffffffffffffffffffffffffff1916145b80610904575061090382611e25565b5b9050919050565b60606000805461091a90613a89565b80601f016020809104026020016040519081016040528092919081815260200182805461094690613a89565b80156109935780601f1061096857610100808354040283529160200191610993565b820191906000526020600020905b81548152906001019060200180831161097657829003601f168201915b5050505050905090565b60006109a882611e8f565b6109e7576040517f08c379a00000000000000000000000000000000000000000000000000000000081526004016109de90613b2d565b60405180910390fd5b6004600083815260200190815260200160002060009054906101000a900473ffffffffffffffffffffffffffffffffffffffff169050919050565b6000610a2d82610f3f565b90508073ffffffffffffffffffffffffffffffffffffffff168373ffffffffffffffffffffffffffffffffffffffff161415610a9e576040517f08c379a0000000000000000000000000000000000000000000000000000000008152600401610a9590613bbf565b60405180910390fd5b8073ffffffffffffffffffffffffffffffffffffffff16610abd611efb565b73ffffffffffffffffffffffffffffffffffffffff161480610aec5750610aeb81610ae6611efb565b611b6e565b5b610b2b576040517f08c379a0000000000000000000000000000000000000000000000000000000008152600401610b2290613c51565b60405180910390fd5b610b358383611f03565b505050565b600080600a60003373ffffffffffffffffffffffffffffffffffffffff1673ffffffffffffffffffffffffffffffffffffffff168152602001908152602001600020541415905090565b610b95610b8f611efb565b82611fbc565b610bd4576040517f08c379a0000000000000000000000000000000000000000000000000000000008152600401610bcb90613ce3565b60405180910390fd5b610bdf83838361209a565b505050565b60086020528060005260406000206000915054906101000a900473ffffffffffffffffffffffffffffffffffffffff1681565b60096020528060005260406000206000915090508054610c3690613a89565b80601f0160208091040260200160405190810160405280929190818152602001828054610c6290613a89565b8015610caf5780601f10610c8457610100808354040283529160200191610caf565b820191906000526020600020905b815481529060010190602001808311610c9257829003601f168201915b505050505081565b610cbf611efb565b73ffffffffffffffffffffffffffffffffffffffff16610cdd611229565b73ffffffffffffffffffffffffffffffffffffffff1614610d33576040517f08c379a0000000000000000000000000000000000000000000000000000000008152600401610d2a90613d4f565b60405180910390fd5b6000610d3d611229565b90508073ffffffffffffffffffffffffffffffffffffffff166108fc479081150290604051600060405180830381858888f19350505050158015610d85573d6000803e3d6000fd5b5050565b610da48383836040518060200160405280600081525061182d565b505050565b6000600a60003373ffffffffffffffffffffffffffffffffffffffff1673ffffffffffffffffffffffffffffffffffffffff168152602001908152602001600020541415610e2c576040517f08c379a0000000000000000000000000000000000000000000000000000000008152600401610e2390613dbb565b60405180910390fd5b81610e3681610f3f565b73ffffffffffffffffffffffffffffffffffffffff163373ffffffffffffffffffffffffffffffffffffffff1614610e6d57600080fd5b816000610e79826122f6565b9050600d81108015610e8b5750600281115b610eca576040517f08c379a0000000000000000000000000000000000000000000000000000000008152600401610ec190613e4d565b60405180910390fd5b6000600e8681548110610ee057610edf613e6d565b5b9060005260206000209060090201905084816008019080519060200190610f08929190612f9c565b50505050505050565b600b818051602081018201805184825260208301602085012081835280955050505050506000915090505481565b6000806002600084815260200190815260200160002060009054906101000a900473ffffffffffffffffffffffffffffffffffffffff169050600073ffffffffffffffffffffffffffffffffffffffff168173ffffffffffffffffffffffffffffffffffffffff161415610fe8576040517f08c379a0000000000000000000000000000000000000000000000000000000008152600401610fdf90613f0e565b60405180910390fd5b80915050919050565b606060096000600a60003373ffffffffffffffffffffffffffffffffffffffff1673ffffffffffffffffffffffffffffffffffffffff168152602001908152602001600020548152602001908152602001600020805461105090613a89565b80601f016020809104026020016040519081016040528092919081815260200182805461107c90613a89565b80156110c95780601f1061109e576101008083540402835291602001916110c9565b820191906000526020600020905b8154815290600101906020018083116110ac57829003601f168201915b5050505050905090565b600060016007546110e49190613f5d565b905090565b60008073ffffffffffffffffffffffffffffffffffffffff168273ffffffffffffffffffffffffffffffffffffffff16141561115a576040517f08c379a000000000000000000000000000000000000000000000000000000000815260040161115190614003565b60405180910390fd5b600360008373ffffffffffffffffffffffffffffffffffffffff1673ffffffffffffffffffffffffffffffffffffffff168152602001908152602001600020549050919050565b6111a9611efb565b73ffffffffffffffffffffffffffffffffffffffff166111c7611229565b73ffffffffffffffffffffffffffffffffffffffff161461121d576040517f08c379a000000000000000000000000000000000000000000000000000000000815260040161121490613d4f565b60405180910390fd5b61122760006125b3565b565b6000600660009054906101000a900473ffffffffffffffffffffffffffffffffffffffff16905090565b60606001805461126290613a89565b80601f016020809104026020016040519081016040528092919081815260200182805461128e90613a89565b80156112db5780601f106112b0576101008083540402835291602001916112db565b820191906000526020600020905b8154815290600101906020018083116112be57829003601f168201915b5050505050905090565b6060600e805480602002602001604051908101604052809291908181526020016000905b8282101561143457838290600052602060002090600902016040518061012001604052908160008201548152602001600182015481526020016002820154815260200160038201548152602001600482015481526020016005820160009054906101000a900461ffff1661ffff1661ffff16815260200160068201548152602001600782015481526020016008820180546113a390613a89565b80601f01602080910402602001604051908101604052809291908181526020018280546113cf90613a89565b801561141c5780601f106113f15761010080835404028352916020019161141c565b820191906000526020600020905b8154815290600101906020018083116113ff57829003601f168201915b50505050508152505081526020019060010190611309565b50505050905090565b6000600a60003373ffffffffffffffffffffffffffffffffffffffff1673ffffffffffffffffffffffffffffffffffffffff1681526020019081526020016000205414156114c0576040517f08c379a00000000000000000000000000000000000000000000000000000000081526004016114b790613dbb565b60405180910390fd5b60006114cd600c54612679565b90506114d8816126cc565b50565b6114ed6114e6611efb565b838361285e565b5050565b600e818154811061150157600080fd5b90600052602060002090600902016000915090508060000154908060010154908060020154908060030154908060040154908060050160009054906101000a900461ffff169080600601549080600701549080600801805461156290613a89565b80601f016020809104026020016040519081016040528092919081815260200182805461158e90613a89565b80156115db5780601f106115b0576101008083540402835291602001916115db565b820191906000526020600020905b8154815290600101906020018083116115be57829003601f168201915b5050505050905089565b806000600b826040516115f8919061405f565b90815260200160405180910390205414611647576040517f08c379a000000000000000000000000000000000000000000000000000000000815260040161163e906140c2565b60405180910390fd5b6000600a60003373ffffffffffffffffffffffffffffffffffffffff1673ffffffffffffffffffffffffffffffffffffffff16815260200190815260200160002054146116c9576040517f08c379a00000000000000000000000000000000000000000000000000000000081526004016116c09061412e565b60405180910390fd5b8160006116d5826122f6565b9050600d811080156116e75750600281115b611726576040517f08c379a000000000000000000000000000000000000000000000000000000000815260040161171d906141c0565b60405180910390fd5b600754600a60003373ffffffffffffffffffffffffffffffffffffffff1673ffffffffffffffffffffffffffffffffffffffff168152602001908152602001600020819055503360086000600754815260200190815260200160002060006101000a81548173ffffffffffffffffffffffffffffffffffffffff021916908373ffffffffffffffffffffffffffffffffffffffff1602179055508360096000600754815260200190815260200160002090805190602001906117e9929190612f9c565b50600754600b856040516117fd919061405f565b90815260200160405180910390208190555060076000815480929190611822906141e0565b919050555050505050565b61183e611838611efb565b83611fbc565b61187d576040517f08c379a000000000000000000000000000000000000000000000000000000000815260040161187490613ce3565b60405180910390fd5b611889848484846129cb565b50505050565b606061189a82611e8f565b6118d9576040517f08c379a00000000000000000000000000000000000000000000000000000000081526004016118d09061429b565b60405180910390fd5b60006118e3612a27565b90506000815111611903576040518060200160405280600081525061192e565b8061190d84612a3e565b60405160200161191e9291906142bb565b6040516020818303038152906040525b915050919050565b600a6020528060005260406000206000915090505481565b6060600061195b836110e9565b67ffffffffffffffff811115611974576119736133a1565b5b6040519080825280602002602001820160405280156119ad57816020015b61199a613022565b8152602001906001900390816119925790505b5090506000805b600e80549050811015611b63578473ffffffffffffffffffffffffffffffffffffffff166119e182610f3f565b73ffffffffffffffffffffffffffffffffffffffff161415611b5057600e8181548110611a1157611a10613e6d565b5b90600052602060002090600902016040518061012001604052908160008201548152602001600182015481526020016002820154815260200160038201548152602001600482015481526020016005820160009054906101000a900461ffff1661ffff1661ffff1681526020016006820154815260200160078201548152602001600882018054611aa190613a89565b80601f0160208091040260200160405190810160405280929190818152602001828054611acd90613a89565b8015611b1a5780601f10611aef57610100808354040283529160200191611b1a565b820191906000526020600020905b815481529060010190602001808311611afd57829003601f168201915b505050505081525050838381518110611b3657611b35613e6d565b5b60200260200101819052508180611b4c906141e0565b9250505b8080611b5b906141e0565b9150506119b4565b508192505050919050565b6000600560008473ffffffffffffffffffffffffffffffffffffffff1673ffffffffffffffffffffffffffffffffffffffff16815260200190815260200160002060008373ffffffffffffffffffffffffffffffffffffffff1673ffffffffffffffffffffffffffffffffffffffff16815260200190815260200160002060009054906101000a900460ff16905092915050565b606060096000600a60008573ffffffffffffffffffffffffffffffffffffffff1673ffffffffffffffffffffffffffffffffffffffff1681526020019081526020016000205481526020019081526020016000208054611c6190613a89565b80601f0160208091040260200160405190810160405280929190818152602001828054611c8d90613a89565b8015611cda5780601f10611caf57610100808354040283529160200191611cda565b820191906000526020600020905b815481529060010190602001808311611cbd57829003601f168201915b50505050509050919050565b600080611cf1610ff1565b9050611cfc816122f6565b91505090565b611d0a611efb565b73ffffffffffffffffffffffffffffffffffffffff16611d28611229565b73ffffffffffffffffffffffffffffffffffffffff1614611d7e576040517f08c379a0000000000000000000000000000000000000000000000000000000008152600401611d7590613d4f565b60405180910390fd5b600073ffffffffffffffffffffffffffffffffffffffff168173ffffffffffffffffffffffffffffffffffffffff161415611dee576040517f08c379a0000000000000000000000000000000000000000000000000000000008152600401611de590614351565b60405180910390fd5b611df7816125b3565b50565b600080600b83604051611e0d919061405f565b90815260200160405180910390205414159050919050565b60007f01ffc9a7000000000000000000000000000000000000000000000000000000007bffffffffffffffffffffffffffffffffffffffffffffffffffffffff1916827bffffffffffffffffffffffffffffffffffffffffffffffffffffffff1916149050919050565b60008073ffffffffffffffffffffffffffffffffffffffff166002600084815260200190815260200160002060009054906101000a900473ffffffffffffffffffffffffffffffffffffffff1673ffffffffffffffffffffffffffffffffffffffff1614159050919050565b600033905090565b816004600083815260200190815260200160002060006101000a81548173ffffffffffffffffffffffffffffffffffffffff021916908373ffffffffffffffffffffffffffffffffffffffff160217905550808273ffffffffffffffffffffffffffffffffffffffff16611f7683610f3f565b73ffffffffffffffffffffffffffffffffffffffff167f8c5be1e5ebec7d5bd14f71427d1e84f3dd0314c0f7b2291e5b200ac8c7c3b92560405160405180910390a45050565b6000611fc782611e8f565b612006576040517f08c379a0000000000000000000000000000000000000000000000000000000008152600401611ffd906143e3565b60405180910390fd5b600061201183610f3f565b90508073ffffffffffffffffffffffffffffffffffffffff168473ffffffffffffffffffffffffffffffffffffffff16148061208057508373ffffffffffffffffffffffffffffffffffffffff166120688461099d565b73ffffffffffffffffffffffffffffffffffffffff16145b8061209157506120908185611b6e565b5b91505092915050565b8273ffffffffffffffffffffffffffffffffffffffff166120ba82610f3f565b73ffffffffffffffffffffffffffffffffffffffff1614612110576040517f08c379a000000000000000000000000000000000000000000000000000000000815260040161210790614475565b60405180910390fd5b600073ffffffffffffffffffffffffffffffffffffffff168273ffffffffffffffffffffffffffffffffffffffff161415612180576040517f08c379a000000000000000000000000000000000000000000000000000000000815260040161217790614507565b60405180910390fd5b61218b838383612b9f565b612196600082611f03565b6001600360008573ffffffffffffffffffffffffffffffffffffffff1673ffffffffffffffffffffffffffffffffffffffff16815260200190815260200160002060008282546121e69190613f5d565b925050819055506001600360008473ffffffffffffffffffffffffffffffffffffffff1673ffffffffffffffffffffffffffffffffffffffff168152602001908152602001600020600082825461223d9190614527565b92505081905550816002600083815260200190815260200160002060006101000a81548173ffffffffffffffffffffffffffffffffffffffff021916908373ffffffffffffffffffffffffffffffffffffffff160217905550808273ffffffffffffffffffffffffffffffffffffffff168473ffffffffffffffffffffffffffffffffffffffff167fddf252ad1be2c89b69c2b068fc378daa952ba7f163c4a11628f55a4df523b3ef60405160405180910390a4505050565b6000806000905060008390505b80518210156125ac57600060f81b600782848151811061232657612325613e6d565b5b602001015160f81c60f81b7effffffffffffffffffffffffffffffffffffffffffffffffffffffffffffff1916901c7effffffffffffffffffffffffffffffffffffffffffffffffffffffffffffff191614156123915760018261238a9190614527565b9150612599565b600660f81b7effffffffffffffffffffffffffffffffffffffffffffffffffffffffffffff191660058284815181106123cd576123cc613e6d565b5b602001015160f81c60f81b7effffffffffffffffffffffffffffffffffffffffffffffffffffffffffffff1916901c7effffffffffffffffffffffffffffffffffffffffffffffffffffffffffffff19161415612438576002826124319190614527565b9150612598565b600e60f81b7effffffffffffffffffffffffffffffffffffffffffffffffffffffffffffff1916600482848151811061247457612473613e6d565b5b602001015160f81c60f81b7effffffffffffffffffffffffffffffffffffffffffffffffffffffffffffff1916901c7effffffffffffffffffffffffffffffffffffffffffffffffffffffffffffff191614156124df576003826124d89190614527565b9150612597565b601e60f81b7effffffffffffffffffffffffffffffffffffffffffffffffffffffffffffff1916600382848151811061251b5761251a613e6d565b5b602001015160f81c60f81b7effffffffffffffffffffffffffffffffffffffffffffffffffffffffffffff1916901c7effffffffffffffffffffffffffffffffffffffffffffffffffffffffffffff191614156125865760048261257f9190614527565b9150612596565b6001826125939190614527565b91505b5b5b5b82806125a4906141e0565b935050612303565b5050919050565b6000600660009054906101000a900473ffffffffffffffffffffffffffffffffffffffff16905081600660006101000a81548173ffffffffffffffffffffffffffffffffffffffff021916908373ffffffffffffffffffffffffffffffffffffffff1602179055508173ffffffffffffffffffffffffffffffffffffffff168173ffffffffffffffffffffffffffffffffffffffff167f8be0079c531659141344cd1fd0a4f28419497f9722a3daafe3b4186f6b6457e060405160405180910390a35050565b60008082426126889190614527565b604051602001612698919061459e565b6040516020818303038152906040528051906020012060001c905064e8d4a51000816126c491906145e8565b915050919050565b6000604051806101200160405280600c5481526020018381526020016101f48152602001600a8152602001600a8152602001600161ffff16815260200142815260200160008152602001604051806020016040528060008152508152509050600e819080600181540180825580915050600190039060005260206000209060090201600090919091909150600082015181600001556020820151816001015560408201518160020155606082015181600301556080820151816004015560a08201518160050160006101000a81548161ffff021916908361ffff16021790555060c0820151816006015560e082015181600701556101008201518160080190805190602001906127dd929190612f9c565b5050506127ec33600c54612ba4565b3373ffffffffffffffffffffffffffffffffffffffff167fad1c7ab5bfbe86a51764200b1532f3893b41563e78abe6d6eac4bbd987f38c68600c5484604051612836929190614619565b60405180910390a26128546001600c54612bc290919063ffffffff16565b600c819055505050565b8173ffffffffffffffffffffffffffffffffffffffff168373ffffffffffffffffffffffffffffffffffffffff1614156128cd576040517f08c379a00000000000000000000000000000000000000000000000000000000081526004016128c49061468e565b60405180910390fd5b80600560008573ffffffffffffffffffffffffffffffffffffffff1673ffffffffffffffffffffffffffffffffffffffff16815260200190815260200160002060008473ffffffffffffffffffffffffffffffffffffffff1673ffffffffffffffffffffffffffffffffffffffff16815260200190815260200160002060006101000a81548160ff0219169083151502179055508173ffffffffffffffffffffffffffffffffffffffff168373ffffffffffffffffffffffffffffffffffffffff167f17307eab39ab6107e8899845ad3d59bd9653f200f220920489ca2b5937696c31836040516129be9190613143565b60405180910390a3505050565b6129d684848461209a565b6129e284848484612bd8565b612a21576040517f08c379a0000000000000000000000000000000000000000000000000000000008152600401612a1890614720565b60405180910390fd5b50505050565b606060405180602001604052806000815250905090565b60606000821415612a86576040518060400160405280600181526020017f30000000000000000000000000000000000000000000000000000000000000008152509050612b9a565b600082905060005b60008214612ab8578080612aa1906141e0565b915050600a82612ab19190614740565b9150612a8e565b60008167ffffffffffffffff811115612ad457612ad36133a1565b5b6040519080825280601f01601f191660200182016040528015612b065781602001600182028036833780820191505090505b5090505b60008514612b9357600182612b1f9190613f5d565b9150600a85612b2e91906145e8565b6030612b3a9190614527565b60f81b818381518110612b5057612b4f613e6d565b5b60200101907effffffffffffffffffffffffffffffffffffffffffffffffffffffffffffff1916908160001a905350600a85612b8c9190614740565b9450612b0a565b8093505050505b919050565b505050565b612bbe828260405180602001604052806000815250612d60565b5050565b60008183612bd09190614527565b905092915050565b6000612bf98473ffffffffffffffffffffffffffffffffffffffff16612dbb565b15612d53578373ffffffffffffffffffffffffffffffffffffffff1663150b7a02612c22611efb565b8786866040518563ffffffff1660e01b8152600401612c4494939291906147c6565b6020604051808303816000875af1925050508015612c8057506040513d601f19601f82011682018060405250810190612c7d9190614827565b60015b612d03573d8060008114612cb0576040519150601f19603f3d011682016040523d82523d6000602084013e612cb5565b606091505b50600081511415612cfb576040517f08c379a0000000000000000000000000000000000000000000000000000000008152600401612cf290614720565b60405180910390fd5b805181602001fd5b63150b7a0260e01b7bffffffffffffffffffffffffffffffffffffffffffffffffffffffff1916817bffffffffffffffffffffffffffffffffffffffffffffffffffffffff191614915050612d58565b600190505b949350505050565b612d6a8383612dce565b612d776000848484612bd8565b612db6576040517f08c379a0000000000000000000000000000000000000000000000000000000008152600401612dad90614720565b60405180910390fd5b505050565b600080823b905060008111915050919050565b600073ffffffffffffffffffffffffffffffffffffffff168273ffffffffffffffffffffffffffffffffffffffff161415612e3e576040517f08c379a0000000000000000000000000000000000000000000000000000000008152600401612e35906148a0565b60405180910390fd5b612e4781611e8f565b15612e87576040517f08c379a0000000000000000000000000000000000000000000000000000000008152600401612e7e9061490c565b60405180910390fd5b612e9360008383612b9f565b6001600360008473ffffffffffffffffffffffffffffffffffffffff1673ffffffffffffffffffffffffffffffffffffffff1681526020019081526020016000206000828254612ee39190614527565b92505081905550816002600083815260200190815260200160002060006101000a81548173ffffffffffffffffffffffffffffffffffffffff021916908373ffffffffffffffffffffffffffffffffffffffff160217905550808273ffffffffffffffffffffffffffffffffffffffff16600073ffffffffffffffffffffffffffffffffffffffff167fddf252ad1be2c89b69c2b068fc378daa952ba7f163c4a11628f55a4df523b3ef60405160405180910390a45050565b828054612fa890613a89565b90600052602060002090601f016020900481019282612fca5760008555613011565b82601f10612fe357805160ff1916838001178555613011565b82800160010185558215613011579182015b82811115613010578251825591602001919060010190612ff5565b5b50905061301e9190613072565b5090565b6040518061012001604052806000815260200160008152602001600081526020016000815260200160008152602001600061ffff1681526020016000815260200160008152602001606081525090565b5b8082111561308b576000816000905550600101613073565b5090565b6000604051905090565b600080fd5b600080fd5b60007fffffffff0000000000000000000000000000000000000000000000000000000082169050919050565b6130d8816130a3565b81146130e357600080fd5b50565b6000813590506130f5816130cf565b92915050565b60006020828403121561311157613110613099565b5b600061311f848285016130e6565b91505092915050565b60008115159050919050565b61313d81613128565b82525050565b60006020820190506131586000830184613134565b92915050565b600081519050919050565b600082825260208201905092915050565b60005b8381101561319857808201518184015260208101905061317d565b838111156131a7576000848401525b50505050565b6000601f19601f8301169050919050565b60006131c98261315e565b6131d38185613169565b93506131e381856020860161317a565b6131ec816131ad565b840191505092915050565b6000602082019050818103600083015261321181846131be565b905092915050565b6000819050919050565b61322c81613219565b811461323757600080fd5b50565b60008135905061324981613223565b92915050565b60006020828403121561326557613264613099565b5b60006132738482850161323a565b91505092915050565b600073ffffffffffffffffffffffffffffffffffffffff82169050919050565b60006132a78261327c565b9050919050565b6132b78161329c565b82525050565b60006020820190506132d260008301846132ae565b92915050565b6132e18161329c565b81146132ec57600080fd5b50565b6000813590506132fe816132d8565b92915050565b6000806040838503121561331b5761331a613099565b5b6000613329858286016132ef565b925050602061333a8582860161323a565b9150509250929050565b60008060006060848603121561335d5761335c613099565b5b600061336b868287016132ef565b935050602061337c868287016132ef565b925050604061338d8682870161323a565b9150509250925092565b600080fd5b600080fd5b7f4e487b7100000000000000000000000000000000000000000000000000000000600052604160045260246000fd5b6133d9826131ad565b810181811067ffffffffffffffff821117156133f8576133f76133a1565b5b80604052505050565b600061340b61308f565b905061341782826133d0565b919050565b600067ffffffffffffffff821115613437576134366133a1565b5b613440826131ad565b9050602081019050919050565b82818337600083830152505050565b600061346f61346a8461341c565b613401565b90508281526020810184848401111561348b5761348a61339c565b5b61349684828561344d565b509392505050565b600082601f8301126134b3576134b2613397565b5b81356134c384826020860161345c565b91505092915050565b600080604083850312156134e3576134e2613099565b5b60006134f18582860161323a565b925050602083013567ffffffffffffffff8111156135125761351161309e565b5b61351e8582860161349e565b9150509250929050565b60006020828403121561353e5761353d613099565b5b600082013567ffffffffffffffff81111561355c5761355b61309e565b5b6135688482850161349e565b91505092915050565b61357a81613219565b82525050565b60006020820190506135956000830184613571565b92915050565b6000602082840312156135b1576135b0613099565b5b60006135bf848285016132ef565b91505092915050565b600081519050919050565b600082825260208201905092915050565b6000819050602082019050919050565b6135fd81613219565b82525050565b600061ffff82169050919050565b61361a81613603565b82525050565b600082825260208201905092915050565b600061363c8261315e565b6136468185613620565b935061365681856020860161317a565b61365f816131ad565b840191505092915050565b60006101208301600083015161368360008601826135f4565b50602083015161369660208601826135f4565b5060408301516136a960408601826135f4565b5060608301516136bc60608601826135f4565b5060808301516136cf60808601826135f4565b5060a08301516136e260a0860182613611565b5060c08301516136f560c08601826135f4565b5060e083015161370860e08601826135f4565b506101008301518482036101008601526137228282613631565b9150508091505092915050565b600061373b838361366a565b905092915050565b6000602082019050919050565b600061375b826135c8565b61376581856135d3565b935083602082028501613777856135e4565b8060005b858110156137b35784840389528151613794858261372f565b945061379f83613743565b925060208a0199505060018101905061377b565b50829750879550505050505092915050565b600060208201905081810360008301526137df8184613750565b905092915050565b6137f081613128565b81146137fb57600080fd5b50565b60008135905061380d816137e7565b92915050565b6000806040838503121561382a57613829613099565b5b6000613838858286016132ef565b9250506020613849858286016137fe565b9150509250929050565b61385c81613603565b82525050565b600061012082019050613878600083018c613571565b613885602083018b613571565b613892604083018a613571565b61389f6060830189613571565b6138ac6080830188613571565b6138b960a0830187613853565b6138c660c0830186613571565b6138d360e0830185613571565b8181036101008301526138e681846131be565b90509a9950505050505050505050565b600067ffffffffffffffff821115613911576139106133a1565b5b61391a826131ad565b9050602081019050919050565b600061393a613935846138f6565b613401565b9050828152602081018484840111156139565761395561339c565b5b61396184828561344d565b509392505050565b600082601f83011261397e5761397d613397565b5b813561398e848260208601613927565b91505092915050565b600080600080608085870312156139b1576139b0613099565b5b60006139bf878288016132ef565b94505060206139d0878288016132ef565b93505060406139e18782880161323a565b925050606085013567ffffffffffffffff811115613a0257613a0161309e565b5b613a0e87828801613969565b91505092959194509250565b60008060408385031215613a3157613a30613099565b5b6000613a3f858286016132ef565b9250506020613a50858286016132ef565b9150509250929050565b7f4e487b7100000000000000000000000000000000000000000000000000000000600052602260045260246000fd5b60006002820490506001821680613aa157607f821691505b60208210811415613ab557613ab4613a5a565b5b50919050565b7f4552433732313a20617070726f76656420717565727920666f72206e6f6e657860008201527f697374656e7420746f6b656e0000000000000000000000000000000000000000602082015250565b6000613b17602c83613169565b9150613b2282613abb565b604082019050919050565b60006020820190508181036000830152613b4681613b0a565b9050919050565b7f4552433732313a20617070726f76616c20746f2063757272656e74206f776e6560008201527f7200000000000000000000000000000000000000000000000000000000000000602082015250565b6000613ba9602183613169565b9150613bb482613b4d565b604082019050919050565b60006020820190508181036000830152613bd881613b9c565b9050919050565b7f4552433732313a20617070726f76652063616c6c6572206973206e6f74206f7760008201527f6e6572206e6f7220617070726f76656420666f7220616c6c0000000000000000602082015250565b6000613c3b603883613169565b9150613c4682613bdf565b604082019050919050565b60006020820190508181036000830152613c6a81613c2e565b9050919050565b7f4552433732313a207472616e736665722063616c6c6572206973206e6f74206f60008201527f776e6572206e6f7220617070726f766564000000000000000000000000000000602082015250565b6000613ccd603183613169565b9150613cd882613c71565b604082019050919050565b60006020820190508181036000830152613cfc81613cc0565b9050919050565b7f4f776e61626c653a2063616c6c6572206973206e6f7420746865206f776e6572600082015250565b6000613d39602083613169565b9150613d4482613d03565b602082019050919050565b60006020820190508181036000830152613d6881613d2c565b9050919050565b7f596f7520646f6e2774206861766520616e206163636f756e7400000000000000600082015250565b6000613da5601983613169565b9150613db082613d6f565b602082019050919050565b60006020820190508181036000830152613dd481613d98565b9050919050565b7f546865206865726f206e616d65206d757374206265206265747765656e20332060008201527f616e642031322063686172616374657273000000000000000000000000000000602082015250565b6000613e37603183613169565b9150613e4282613ddb565b604082019050919050565b60006020820190508181036000830152613e6681613e2a565b9050919050565b7f4e487b7100000000000000000000000000000000000000000000000000000000600052603260045260246000fd5b7f4552433732313a206f776e657220717565727920666f72206e6f6e657869737460008201527f656e7420746f6b656e0000000000000000000000000000000000000000000000602082015250565b6000613ef8602983613169565b9150613f0382613e9c565b604082019050919050565b60006020820190508181036000830152613f2781613eeb565b9050919050565b7f4e487b7100000000000000000000000000000000000000000000000000000000600052601160045260246000fd5b6000613f6882613219565b9150613f7383613219565b925082821015613f8657613f85613f2e565b5b828203905092915050565b7f4552433732313a2062616c616e636520717565727920666f7220746865207a6560008201527f726f206164647265737300000000000000000000000000000000000000000000602082015250565b6000613fed602a83613169565b9150613ff882613f91565b604082019050919050565b6000602082019050818103600083015261401c81613fe0565b9050919050565b600081905092915050565b60006140398261315e565b6140438185614023565b935061405381856020860161317a565b80840191505092915050565b600061406b828461402e565b915081905092915050565b7f557365726e616d652069732074616b656e000000000000000000000000000000600082015250565b60006140ac601183613169565b91506140b782614076565b602082019050919050565b600060208201905081810360008301526140db8161409f565b9050919050565b7f596f7520616c7265616479206861766520616e206163636f756e742100000000600082015250565b6000614118601c83613169565b9150614123826140e2565b602082019050919050565b600060208201905081810360008301526141478161410b565b9050919050565b7f557365726e616d65206d757374206265206265747765656e203320616e64203160008201527f3220636861726163746572730000000000000000000000000000000000000000602082015250565b60006141aa602c83613169565b91506141b58261414e565b604082019050919050565b600060208201905081810360008301526141d98161419d565b9050919050565b60006141eb82613219565b91507fffffffffffffffffffffffffffffffffffffffffffffffffffffffffffffffff82141561421e5761421d613f2e565b5b600182019050919050565b7f4552433732314d657461646174613a2055524920717565727920666f72206e6f60008201527f6e6578697374656e7420746f6b656e0000000000000000000000000000000000602082015250565b6000614285602f83613169565b915061429082614229565b604082019050919050565b600060208201905081810360008301526142b481614278565b9050919050565b60006142c7828561402e565b91506142d3828461402e565b91508190509392505050565b7f4f776e61626c653a206e6577206f776e657220697320746865207a65726f206160008201527f6464726573730000000000000000000000000000000000000000000000000000602082015250565b600061433b602683613169565b9150614346826142df565b604082019050919050565b6000602082019050818103600083015261436a8161432e565b9050919050565b7f4552433732313a206f70657261746f7220717565727920666f72206e6f6e657860008201527f697374656e7420746f6b656e0000000000000000000000000000000000000000602082015250565b60006143cd602c83613169565b91506143d882614371565b604082019050919050565b600060208201905081810360008301526143fc816143c0565b9050919050565b7f4552433732313a207472616e73666572206f6620746f6b656e2074686174206960008201527f73206e6f74206f776e0000000000000000000000000000000000000000000000602082015250565b600061445f602983613169565b915061446a82614403565b604082019050919050565b6000602082019050818103600083015261448e81614452565b9050919050565b7f4552433732313a207472616e7366657220746f20746865207a65726f2061646460008201527f7265737300000000000000000000000000000000000000000000000000000000602082015250565b60006144f1602483613169565b91506144fc82614495565b604082019050919050565b60006020820190508181036000830152614520816144e4565b9050919050565b600061453282613219565b915061453d83613219565b9250827fffffffffffffffffffffffffffffffffffffffffffffffffffffffffffffffff0382111561457257614571613f2e565b5b828201905092915050565b6000819050919050565b61459861459382613219565b61457d565b82525050565b60006145aa8284614587565b60208201915081905092915050565b7f4e487b7100000000000000000000000000000000000000000000000000000000600052601260045260246000fd5b60006145f382613219565b91506145fe83613219565b92508261460e5761460d6145b9565b5b828206905092915050565b600060408201905061462e6000830185613571565b61463b6020830184613571565b9392505050565b7f4552433732313a20617070726f766520746f2063616c6c657200000000000000600082015250565b6000614678601983613169565b915061468382614642565b602082019050919050565b600060208201905081810360008301526146a78161466b565b9050919050565b7f4552433732313a207472616e7366657220746f206e6f6e20455243373231526560008201527f63656976657220696d706c656d656e7465720000000000000000000000000000602082015250565b600061470a603283613169565b9150614715826146ae565b604082019050919050565b60006020820190508181036000830152614739816146fd565b9050919050565b600061474b82613219565b915061475683613219565b925082614766576147656145b9565b5b828204905092915050565b600081519050919050565b600082825260208201905092915050565b600061479882614771565b6147a2818561477c565b93506147b281856020860161317a565b6147bb816131ad565b840191505092915050565b60006080820190506147db60008301876132ae565b6147e860208301866132ae565b6147f56040830185613571565b8181036060830152614807818461478d565b905095945050505050565b600081519050614821816130cf565b92915050565b60006020828403121561483d5761483c613099565b5b600061484b84828501614812565b91505092915050565b7f4552433732313a206d696e7420746f20746865207a65726f2061646472657373600082015250565b600061488a602083613169565b915061489582614854565b602082019050919050565b600060208201905081810360008301526148b98161487d565b9050919050565b7f4552433732313a20746f6b656e20616c7265616479206d696e74656400000000600082015250565b60006148f6601c83613169565b9150614901826148c0565b602082019050919050565b60006020820190508181036000830152614925816148e9565b905091905056fea264697066735822122086946f3b55056d26aec5d20c457cdf4489aeb8e91bba1fc33cb1fe94e905275964736f6c634300080a0033",
  "immutableReferences": {},
  "source": "// SPDX-License-Identifier: MIT\r\npragma solidity ^0.8.7;\r\nimport \"./IotaHeroFactory.sol\";\r\n\r\ncontract IotaHeroUtil is IotaHeroFactory {\r\n    function withdraw() external payable onlyOwner {\r\n        address payable _owner = payable(owner());\r\n        _owner.transfer(address(this).balance);\r\n    }\r\n\r\n    function getHeroes() public view returns (Hero[] memory) {\r\n        return heroes;\r\n    }\r\n\r\n    function getOwnerHeroes(address _owner)\r\n        public\r\n        view\r\n        returns (Hero[] memory)\r\n    {\r\n        Hero[] memory ownedHeroes = new Hero[](balanceOf(_owner));\r\n        uint256 c = 0;\r\n        for (uint256 i = 0; i < heroes.length; i++) {\r\n            if (ownerOf(i) == _owner) {\r\n                ownedHeroes[c] = heroes[i];\r\n                c++;\r\n            }\r\n        }\r\n        return ownedHeroes;\r\n    }\r\n\r\n}\r\n",
  "sourcePath": "C:\\Users\\creld\\source\\repos\\IotaHeroes\\smartcontracts\\contracts\\IotaHeroUtil.sol",
  "compiler": {
    "name": "solc",
    "version": "0.8.10+commit.fc410830.Emscripten.clang"
  },
  "schemaVersion": "3.4.4",
  "updatedAt": "2022-01-16T00:05:43.656Z",
  "devdoc": {
    "kind": "dev",
    "methods": {
      "approve(address,uint256)": {
        "details": "See {IERC721-approve}."
      },
      "balanceOf(address)": {
        "details": "See {IERC721-balanceOf}."
      },
      "getApproved(uint256)": {
        "details": "See {IERC721-getApproved}."
      },
      "isApprovedForAll(address,address)": {
        "details": "See {IERC721-isApprovedForAll}."
      },
      "name()": {
        "details": "See {IERC721Metadata-name}."
      },
      "owner()": {
        "details": "Returns the address of the current owner."
      },
      "ownerOf(uint256)": {
        "details": "See {IERC721-ownerOf}."
      },
      "renounceOwnership()": {
        "details": "Leaves the contract without owner. It will not be possible to call `onlyOwner` functions anymore. Can only be called by the current owner. NOTE: Renouncing ownership will leave the contract without an owner, thereby removing any functionality that is only available to the owner."
      },
      "safeTransferFrom(address,address,uint256)": {
        "details": "See {IERC721-safeTransferFrom}."
      },
      "safeTransferFrom(address,address,uint256,bytes)": {
        "details": "See {IERC721-safeTransferFrom}."
      },
      "setApprovalForAll(address,bool)": {
        "details": "See {IERC721-setApprovalForAll}."
      },
      "supportsInterface(bytes4)": {
        "details": "See {IERC165-supportsInterface}."
      },
      "symbol()": {
        "details": "See {IERC721Metadata-symbol}."
      },
      "tokenURI(uint256)": {
        "details": "See {IERC721Metadata-tokenURI}."
      },
      "transferFrom(address,address,uint256)": {
        "details": "See {IERC721-transferFrom}."
      },
      "transferOwnership(address)": {
        "details": "Transfers ownership of the contract to a new account (`newOwner`). Can only be called by the current owner."
      }
    },
    "version": 1
  },
  "userdoc": {
    "kind": "user",
    "methods": {},
    "version": 1
  }
}