{
  "contractName": "IotaHeroGameTokens",
  "abi": [
    {
      "inputs": [],
      "stateMutability": "nonpayable",
      "type": "constructor"
    },
    {
      "anonymous": false,
      "inputs": [
        {
          "indexed": true,
          "internalType": "address",
          "name": "account",
          "type": "address"
        },
        {
          "indexed": true,
          "internalType": "address",
          "name": "operator",
          "type": "address"
        },
        {
          "indexed": false,
          "internalType": "bool",
          "name": "approved",
          "type": "bool"
        }
      ],
      "name": "ApprovalForAll",
      "type": "event"
    },
    {
      "anonymous": false,
      "inputs": [
        {
          "indexed": true,
          "internalType": "address",
          "name": "previousOwner",
          "type": "address"
        },
        {
          "indexed": true,
          "internalType": "address",
          "name": "newOwner",
          "type": "address"
        }
      ],
      "name": "OwnershipTransferred",
      "type": "event"
    },
    {
      "anonymous": false,
      "inputs": [
        {
          "indexed": true,
          "internalType": "address",
          "name": "operator",
          "type": "address"
        },
        {
          "indexed": true,
          "internalType": "address",
          "name": "from",
          "type": "address"
        },
        {
          "indexed": true,
          "internalType": "address",
          "name": "to",
          "type": "address"
        },
        {
          "indexed": false,
          "internalType": "uint256[]",
          "name": "ids",
          "type": "uint256[]"
        },
        {
          "indexed": false,
          "internalType": "uint256[]",
          "name": "values",
          "type": "uint256[]"
        }
      ],
      "name": "TransferBatch",
      "type": "event"
    },
    {
      "anonymous": false,
      "inputs": [
        {
          "indexed": true,
          "internalType": "address",
          "name": "operator",
          "type": "address"
        },
        {
          "indexed": true,
          "internalType": "address",
          "name": "from",
          "type": "address"
        },
        {
          "indexed": true,
          "internalType": "address",
          "name": "to",
          "type": "address"
        },
        {
          "indexed": false,
          "internalType": "uint256",
          "name": "id",
          "type": "uint256"
        },
        {
          "indexed": false,
          "internalType": "uint256",
          "name": "value",
          "type": "uint256"
        }
      ],
      "name": "TransferSingle",
      "type": "event"
    },
    {
      "anonymous": false,
      "inputs": [
        {
          "indexed": false,
          "internalType": "string",
          "name": "value",
          "type": "string"
        },
        {
          "indexed": true,
          "internalType": "uint256",
          "name": "id",
          "type": "uint256"
        }
      ],
      "name": "URI",
      "type": "event"
    },
    {
      "inputs": [],
      "name": "BONES",
      "outputs": [
        {
          "internalType": "uint256",
          "name": "",
          "type": "uint256"
        }
      ],
      "stateMutability": "view",
      "type": "function",
      "constant": true
    },
    {
      "inputs": [],
      "name": "BOOTS_OF_SWIFTNESS",
      "outputs": [
        {
          "internalType": "uint256",
          "name": "",
          "type": "uint256"
        }
      ],
      "stateMutability": "view",
      "type": "function",
      "constant": true
    },
    {
      "inputs": [],
      "name": "GOLD",
      "outputs": [
        {
          "internalType": "uint256",
          "name": "",
          "type": "uint256"
        }
      ],
      "stateMutability": "view",
      "type": "function",
      "constant": true
    },
    {
      "inputs": [],
      "name": "HEALING_POTION",
      "outputs": [
        {
          "internalType": "uint256",
          "name": "",
          "type": "uint256"
        }
      ],
      "stateMutability": "view",
      "type": "function",
      "constant": true
    },
    {
      "inputs": [],
      "name": "RING_OF_INVISIBILITY",
      "outputs": [
        {
          "internalType": "uint256",
          "name": "",
          "type": "uint256"
        }
      ],
      "stateMutability": "view",
      "type": "function",
      "constant": true
    },
    {
      "inputs": [
        {
          "internalType": "address",
          "name": "account",
          "type": "address"
        },
        {
          "internalType": "uint256",
          "name": "id",
          "type": "uint256"
        }
      ],
      "name": "balanceOf",
      "outputs": [
        {
          "internalType": "uint256",
          "name": "",
          "type": "uint256"
        }
      ],
      "stateMutability": "view",
      "type": "function",
      "constant": true
    },
    {
      "inputs": [
        {
          "internalType": "address[]",
          "name": "accounts",
          "type": "address[]"
        },
        {
          "internalType": "uint256[]",
          "name": "ids",
          "type": "uint256[]"
        }
      ],
      "name": "balanceOfBatch",
      "outputs": [
        {
          "internalType": "uint256[]",
          "name": "",
          "type": "uint256[]"
        }
      ],
      "stateMutability": "view",
      "type": "function",
      "constant": true
    },
    {
      "inputs": [],
      "name": "game",
      "outputs": [
        {
          "internalType": "address",
          "name": "",
          "type": "address"
        }
      ],
      "stateMutability": "view",
      "type": "function",
      "constant": true
    },
    {
      "inputs": [],
      "name": "owner",
      "outputs": [
        {
          "internalType": "address",
          "name": "",
          "type": "address"
        }
      ],
      "stateMutability": "view",
      "type": "function",
      "constant": true
    },
    {
      "inputs": [],
      "name": "renounceOwnership",
      "outputs": [],
      "stateMutability": "nonpayable",
      "type": "function"
    },
    {
      "inputs": [
        {
          "internalType": "address",
          "name": "from",
          "type": "address"
        },
        {
          "internalType": "address",
          "name": "to",
          "type": "address"
        },
        {
          "internalType": "uint256[]",
          "name": "ids",
          "type": "uint256[]"
        },
        {
          "internalType": "uint256[]",
          "name": "amounts",
          "type": "uint256[]"
        },
        {
          "internalType": "bytes",
          "name": "data",
          "type": "bytes"
        }
      ],
      "name": "safeBatchTransferFrom",
      "outputs": [],
      "stateMutability": "nonpayable",
      "type": "function"
    },
    {
      "inputs": [
        {
          "internalType": "address",
          "name": "from",
          "type": "address"
        },
        {
          "internalType": "address",
          "name": "to",
          "type": "address"
        },
        {
          "internalType": "uint256",
          "name": "id",
          "type": "uint256"
        },
        {
          "internalType": "uint256",
          "name": "amount",
          "type": "uint256"
        },
        {
          "internalType": "bytes",
          "name": "data",
          "type": "bytes"
        }
      ],
      "name": "safeTransferFrom",
      "outputs": [],
      "stateMutability": "nonpayable",
      "type": "function"
    },
    {
      "inputs": [
        {
          "internalType": "address",
          "name": "operator",
          "type": "address"
        },
        {
          "internalType": "bool",
          "name": "approved",
          "type": "bool"
        }
      ],
      "name": "setApprovalForAll",
      "outputs": [],
      "stateMutability": "nonpayable",
      "type": "function"
    },
    {
      "inputs": [
        {
          "internalType": "bytes4",
          "name": "interfaceId",
          "type": "bytes4"
        }
      ],
      "name": "supportsInterface",
      "outputs": [
        {
          "internalType": "bool",
          "name": "",
          "type": "bool"
        }
      ],
      "stateMutability": "view",
      "type": "function",
      "constant": true
    },
    {
      "inputs": [
        {
          "internalType": "address",
          "name": "newOwner",
          "type": "address"
        }
      ],
      "name": "transferOwnership",
      "outputs": [],
      "stateMutability": "nonpayable",
      "type": "function"
    },
    {
      "inputs": [
        {
          "internalType": "uint256",
          "name": "",
          "type": "uint256"
        }
      ],
      "name": "uri",
      "outputs": [
        {
          "internalType": "string",
          "name": "",
          "type": "string"
        }
      ],
      "stateMutability": "view",
      "type": "function",
      "constant": true
    },
    {
      "inputs": [
        {
          "internalType": "address",
          "name": "_game",
          "type": "address"
        }
      ],
      "name": "setGame",
      "outputs": [],
      "stateMutability": "nonpayable",
      "type": "function"
    },
    {
      "inputs": [],
      "name": "getGame",
      "outputs": [
        {
          "internalType": "address",
          "name": "",
          "type": "address"
        }
      ],
      "stateMutability": "view",
      "type": "function",
      "constant": true
    },
    {
      "inputs": [
        {
          "internalType": "address",
          "name": "account",
          "type": "address"
        },
        {
          "internalType": "address",
          "name": "operator",
          "type": "address"
        }
      ],
      "name": "isApprovedForAll",
      "outputs": [
        {
          "internalType": "bool",
          "name": "",
          "type": "bool"
        }
      ],
      "stateMutability": "view",
      "type": "function",
      "constant": true
    },
    {
      "inputs": [
        {
          "internalType": "address",
          "name": "account",
          "type": "address"
        },
        {
          "internalType": "uint256",
          "name": "id",
          "type": "uint256"
        },
        {
          "internalType": "uint256",
          "name": "amount",
          "type": "uint256"
        }
      ],
      "name": "mint",
      "outputs": [],
      "stateMutability": "nonpayable",
      "type": "function"
    },
    {
      "inputs": [
        {
          "internalType": "address",
          "name": "account",
          "type": "address"
        },
        {
          "internalType": "uint256",
          "name": "id",
          "type": "uint256"
        },
        {
          "internalType": "uint256",
          "name": "amount",
          "type": "uint256"
        }
      ],
      "name": "burn",
      "outputs": [],
      "stateMutability": "nonpayable",
      "type": "function"
    },
    {
      "inputs": [
        {
          "internalType": "address",
          "name": "_recipient",
          "type": "address"
        }
      ],
      "name": "awardAdventurer",
      "outputs": [],
      "stateMutability": "payable",
      "type": "function",
      "payable": true
    }
  ],
  "bytecode": "0x60806040523480156200001157600080fd5b506040518060600160405280602d815260200162004687602d91396200003d816200009060201b60201c565b506200005e62000052620000ac60201b60201c565b620000b460201b60201c565b6200008a306000670de0b6b3a7640000604051806020016040528060008152506200017a60201b60201c565b62000d5a565b8060029080519060200190620000a8929190620005d5565b5050565b600033905090565b6000600360009054906101000a900473ffffffffffffffffffffffffffffffffffffffff16905081600360006101000a81548173ffffffffffffffffffffffffffffffffffffffff021916908373ffffffffffffffffffffffffffffffffffffffff1602179055508173ffffffffffffffffffffffffffffffffffffffff168173ffffffffffffffffffffffffffffffffffffffff167f8be0079c531659141344cd1fd0a4f28419497f9722a3daafe3b4186f6b6457e060405160405180910390a35050565b600073ffffffffffffffffffffffffffffffffffffffff168473ffffffffffffffffffffffffffffffffffffffff161415620001ed576040517f08c379a0000000000000000000000000000000000000000000000000000000008152600401620001e4906200070c565b60405180910390fd5b6000620001ff620000ac60201b60201c565b905062000238816000876200021a886200033f60201b60201c565b6200022b886200033f60201b60201c565b87620003c060201b60201c565b8260008086815260200190815260200160002060008773ffffffffffffffffffffffffffffffffffffffff1673ffffffffffffffffffffffffffffffffffffffff168152602001908152602001600020600082825462000299919062000767565b925050819055508473ffffffffffffffffffffffffffffffffffffffff16600073ffffffffffffffffffffffffffffffffffffffff168273ffffffffffffffffffffffffffffffffffffffff167fc3d58168c5ae7397731d063d5bbf3d657854427343f4c083240f7aacaa2d0f62878760405162000319929190620007d5565b60405180910390a46200033881600087878787620003c860201b60201c565b5050505050565b60606000600167ffffffffffffffff81111562000361576200036062000802565b5b604051908082528060200260200182016040528015620003905781602001602082028036833780820191505090505b5090508281600081518110620003ab57620003aa62000831565b5b60200260200101818152505080915050919050565b505050505050565b620003f48473ffffffffffffffffffffffffffffffffffffffff16620005c260201b62000fc91760201c565b15620005ba578373ffffffffffffffffffffffffffffffffffffffff1663f23a6e6187878686866040518663ffffffff1660e01b81526004016200043d95949392919062000949565b6020604051808303816000875af19250505080156200047c57506040513d601f19601f8201168201806040525081019062000479919062000a19565b60015b6200052e576200048b62000a58565b806308c379a01415620004ef5750620004a362000ab3565b80620004b05750620004f1565b806040517f08c379a0000000000000000000000000000000000000000000000000000000008152600401620004e6919062000ba1565b60405180910390fd5b505b6040517f08c379a0000000000000000000000000000000000000000000000000000000008152600401620005259062000c3b565b60405180910390fd5b63f23a6e6160e01b7bffffffffffffffffffffffffffffffffffffffffffffffffffffffff1916817bffffffffffffffffffffffffffffffffffffffffffffffffffffffff191614620005b8576040517f08c379a0000000000000000000000000000000000000000000000000000000008152600401620005af9062000cd3565b60405180910390fd5b505b505050505050565b600080823b905060008111915050919050565b828054620005e39062000d24565b90600052602060002090601f01602090048101928262000607576000855562000653565b82601f106200062257805160ff191683800117855562000653565b8280016001018555821562000653579182015b828111156200065257825182559160200191906001019062000635565b5b50905062000662919062000666565b5090565b5b808211156200068157600081600090555060010162000667565b5090565b600082825260208201905092915050565b7f455243313135353a206d696e7420746f20746865207a65726f2061646472657360008201527f7300000000000000000000000000000000000000000000000000000000000000602082015250565b6000620006f460218362000685565b9150620007018262000696565b604082019050919050565b600060208201905081810360008301526200072781620006e5565b9050919050565b6000819050919050565b7f4e487b7100000000000000000000000000000000000000000000000000000000600052601160045260246000fd5b600062000774826200072e565b915062000781836200072e565b9250827fffffffffffffffffffffffffffffffffffffffffffffffffffffffffffffffff03821115620007b957620007b862000738565b5b828201905092915050565b620007cf816200072e565b82525050565b6000604082019050620007ec6000830185620007c4565b620007fb6020830184620007c4565b9392505050565b7f4e487b7100000000000000000000000000000000000000000000000000000000600052604160045260246000fd5b7f4e487b7100000000000000000000000000000000000000000000000000000000600052603260045260246000fd5b600073ffffffffffffffffffffffffffffffffffffffff82169050919050565b60006200088d8262000860565b9050919050565b6200089f8162000880565b82525050565b600081519050919050565b600082825260208201905092915050565b60005b83811015620008e1578082015181840152602081019050620008c4565b83811115620008f1576000848401525b50505050565b6000601f19601f8301169050919050565b60006200091582620008a5565b620009218185620008b0565b935062000933818560208601620008c1565b6200093e81620008f7565b840191505092915050565b600060a08201905062000960600083018862000894565b6200096f602083018762000894565b6200097e6040830186620007c4565b6200098d6060830185620007c4565b8181036080830152620009a1818462000908565b90509695505050505050565b6000604051905090565b600080fd5b60007fffffffff0000000000000000000000000000000000000000000000000000000082169050919050565b620009f381620009bc565b8114620009ff57600080fd5b50565b60008151905062000a1381620009e8565b92915050565b60006020828403121562000a325762000a31620009b7565b5b600062000a428482850162000a02565b91505092915050565b60008160e01c9050919050565b600060033d111562000a7a5760046000803e62000a7760005162000a4b565b90505b90565b62000a8882620008f7565b810181811067ffffffffffffffff8211171562000aaa5762000aa962000802565b5b80604052505050565b600060443d101562000ac55762000b52565b62000acf620009ad565b60043d036004823e80513d602482011167ffffffffffffffff8211171562000af957505062000b52565b808201805167ffffffffffffffff81111562000b19575050505062000b52565b80602083010160043d03850181111562000b3857505050505062000b52565b62000b498260200185018662000a7d565b82955050505050505b90565b600081519050919050565b600062000b6d8262000b55565b62000b79818562000685565b935062000b8b818560208601620008c1565b62000b9681620008f7565b840191505092915050565b6000602082019050818103600083015262000bbd818462000b60565b905092915050565b7f455243313135353a207472616e7366657220746f206e6f6e204552433131353560008201527f526563656976657220696d706c656d656e746572000000000000000000000000602082015250565b600062000c2360348362000685565b915062000c308262000bc5565b604082019050919050565b6000602082019050818103600083015262000c568162000c14565b9050919050565b7f455243313135353a204552433131353552656365697665722072656a6563746560008201527f6420746f6b656e73000000000000000000000000000000000000000000000000602082015250565b600062000cbb60288362000685565b915062000cc88262000c5d565b604082019050919050565b6000602082019050818103600083015262000cee8162000cac565b9050919050565b7f4e487b7100000000000000000000000000000000000000000000000000000000600052602260045260246000fd5b6000600282049050600182168062000d3d57607f821691505b6020821081141562000d545762000d5362000cf5565b5b50919050565b61391d8062000d6a6000396000f3fe6080604052600436106101345760003560e01c8063715018a6116100ab578063d68713351161006f578063d687133514610415578063e51bcfd214610440578063e985e9c51461045c578063f242432a14610499578063f2fde38b146104c2578063f5298aca146104eb57610134565b8063715018a614610356578063819912a21461036d5780638da5cb5b14610396578063a22cb465146103c1578063c3fe3e28146103ea57610134565b806326591e79116100fd57806326591e79146102445780632eb2c2d61461026f5780633e4bee38146102985780634494fd9f146102c35780634e1273f4146102ee57806357b1a8391461032b57610134565b8062fdd58e1461013957806301ffc9a7146101765780630e89341c146101b3578063156e29f6146101f05780632166389314610219575b600080fd5b34801561014557600080fd5b50610160600480360381019061015b9190612356565b610514565b60405161016d91906123a5565b60405180910390f35b34801561018257600080fd5b5061019d60048036038101906101989190612418565b6105dd565b6040516101aa9190612460565b60405180910390f35b3480156101bf57600080fd5b506101da60048036038101906101d5919061247b565b6106bf565b6040516101e79190612541565b60405180910390f35b3480156101fc57600080fd5b5061021760048036038101906102129190612563565b610753565b005b34801561022557600080fd5b5061022e6107ef565b60405161023b91906123a5565b60405180910390f35b34801561025057600080fd5b506102596107f4565b60405161026691906123a5565b60405180910390f35b34801561027b57600080fd5b50610296600480360381019061029191906127b3565b6107f9565b005b3480156102a457600080fd5b506102ad61089a565b6040516102ba91906123a5565b60405180910390f35b3480156102cf57600080fd5b506102d861089f565b6040516102e59190612891565b60405180910390f35b3480156102fa57600080fd5b506103156004803603810190610310919061296f565b6108c9565b6040516103229190612aa5565b60405180910390f35b34801561033757600080fd5b506103406109e2565b60405161034d91906123a5565b60405180910390f35b34801561036257600080fd5b5061036b6109e7565b005b34801561037957600080fd5b50610394600480360381019061038f9190612ac7565b610a6f565b005b3480156103a257600080fd5b506103ab610b2f565b6040516103b89190612891565b60405180910390f35b3480156103cd57600080fd5b506103e860048036038101906103e39190612b20565b610b59565b005b3480156103f657600080fd5b506103ff610b6f565b60405161040c9190612891565b60405180910390f35b34801561042157600080fd5b5061042a610b95565b60405161043791906123a5565b60405180910390f35b61045a60048036038101906104559190612ac7565b610b9a565b005b34801561046857600080fd5b50610483600480360381019061047e9190612b60565b610d75565b6040516104909190612460565b60405180910390f35b3480156104a557600080fd5b506104c060048036038101906104bb9190612ba0565b610de8565b005b3480156104ce57600080fd5b506104e960048036038101906104e49190612ac7565b610e89565b005b3480156104f757600080fd5b50610512600480360381019061050d9190612563565b610f81565b005b60008073ffffffffffffffffffffffffffffffffffffffff168373ffffffffffffffffffffffffffffffffffffffff161415610585576040517f08c379a000000000000000000000000000000000000000000000000000000000815260040161057c90612ca9565b60405180910390fd5b60008083815260200190815260200160002060008473ffffffffffffffffffffffffffffffffffffffff1673ffffffffffffffffffffffffffffffffffffffff16815260200190815260200160002054905092915050565b60007fd9b67a26000000000000000000000000000000000000000000000000000000007bffffffffffffffffffffffffffffffffffffffffffffffffffffffff1916827bffffffffffffffffffffffffffffffffffffffffffffffffffffffff191614806106a857507f0e89341c000000000000000000000000000000000000000000000000000000007bffffffffffffffffffffffffffffffffffffffffffffffffffffffff1916827bffffffffffffffffffffffffffffffffffffffffffffffffffffffff1916145b806106b857506106b782610fdc565b5b9050919050565b6060600280546106ce90612cf8565b80601f01602080910402602001604051908101604052809291908181526020018280546106fa90612cf8565b80156107475780601f1061071c57610100808354040283529160200191610747565b820191906000526020600020905b81548152906001019060200180831161072a57829003601f168201915b50505050509050919050565b61075b611046565b73ffffffffffffffffffffffffffffffffffffffff16610779610b2f565b73ffffffffffffffffffffffffffffffffffffffff16146107cf576040517f08c379a00000000000000000000000000000000000000000000000000000000081526004016107c690612d76565b60405180910390fd5b6107ea8383836040518060200160405280600081525061104e565b505050565b600281565b600181565b610801611046565b73ffffffffffffffffffffffffffffffffffffffff168573ffffffffffffffffffffffffffffffffffffffff161480610847575061084685610841611046565b610d75565b5b610886576040517f08c379a000000000000000000000000000000000000000000000000000000000815260040161087d90612e08565b60405180910390fd5b61089385858585856111e4565b5050505050565b600081565b6000600460009054906101000a900473ffffffffffffffffffffffffffffffffffffffff16905090565b6060815183511461090f576040517f08c379a000000000000000000000000000000000000000000000000000000000815260040161090690612e9a565b60405180910390fd5b6000835167ffffffffffffffff81111561092c5761092b6125bb565b5b60405190808252806020026020018201604052801561095a5781602001602082028036833780820191505090505b50905060005b84518110156109d7576109a785828151811061097f5761097e612eba565b5b602002602001015185838151811061099a57610999612eba565b5b6020026020010151610514565b8282815181106109ba576109b9612eba565b5b602002602001018181525050806109d090612f18565b9050610960565b508091505092915050565b600481565b6109ef611046565b73ffffffffffffffffffffffffffffffffffffffff16610a0d610b2f565b73ffffffffffffffffffffffffffffffffffffffff1614610a63576040517f08c379a0000000000000000000000000000000000000000000000000000000008152600401610a5a90612d76565b60405180910390fd5b610a6d60006114f8565b565b610a77611046565b73ffffffffffffffffffffffffffffffffffffffff16610a95610b2f565b73ffffffffffffffffffffffffffffffffffffffff1614610aeb576040517f08c379a0000000000000000000000000000000000000000000000000000000008152600401610ae290612d76565b60405180910390fd5b80600460006101000a81548173ffffffffffffffffffffffffffffffffffffffff021916908373ffffffffffffffffffffffffffffffffffffffff16021790555050565b6000600360009054906101000a900473ffffffffffffffffffffffffffffffffffffffff16905090565b610b6b610b64611046565b83836115be565b5050565b600460009054906101000a900473ffffffffffffffffffffffffffffffffffffffff1681565b600381565b600460009054906101000a900473ffffffffffffffffffffffffffffffffffffffff1673ffffffffffffffffffffffffffffffffffffffff16610bdb611046565b73ffffffffffffffffffffffffffffffffffffffff1614610c31576040517f08c379a0000000000000000000000000000000000000000000000000000000008152600401610c2890612fad565b60405180910390fd5b6000600267ffffffffffffffff811115610c4e57610c4d6125bb565b5b604051908082528060200260200182016040528015610c7c5781602001602082028036833780820191505090505b509050600081600081518110610c9557610c94612eba565b5b602002602001018181525050600181600181518110610cb757610cb6612eba565b5b6020026020010181815250506000600267ffffffffffffffff811115610ce057610cdf6125bb565b5b604051908082528060200260200182016040528015610d0e5781602001602082028036833780820191505090505b509050606481600081518110610d2757610d26612eba565b5b602002602001018181525050600181600181518110610d4957610d48612eba565b5b602002602001018181525050610d708383836040518060200160405280600081525061172b565b505050565b6000600460009054906101000a900473ffffffffffffffffffffffffffffffffffffffff1673ffffffffffffffffffffffffffffffffffffffff16610db8611046565b73ffffffffffffffffffffffffffffffffffffffff161480610de05750610ddf8383611949565b5b905092915050565b610df0611046565b73ffffffffffffffffffffffffffffffffffffffff168573ffffffffffffffffffffffffffffffffffffffff161480610e365750610e3585610e30611046565b610d75565b5b610e75576040517f08c379a0000000000000000000000000000000000000000000000000000000008152600401610e6c9061303f565b60405180910390fd5b610e8285858585856119dd565b5050505050565b610e91611046565b73ffffffffffffffffffffffffffffffffffffffff16610eaf610b2f565b73ffffffffffffffffffffffffffffffffffffffff1614610f05576040517f08c379a0000000000000000000000000000000000000000000000000000000008152600401610efc90612d76565b60405180910390fd5b600073ffffffffffffffffffffffffffffffffffffffff168173ffffffffffffffffffffffffffffffffffffffff161415610f75576040517f08c379a0000000000000000000000000000000000000000000000000000000008152600401610f6c906130d1565b60405180910390fd5b610f7e816114f8565b50565b8273ffffffffffffffffffffffffffffffffffffffff163373ffffffffffffffffffffffffffffffffffffffff1614610fb957600080fd5b610fc4838383611c5f565b505050565b600080823b905060008111915050919050565b60007f01ffc9a7000000000000000000000000000000000000000000000000000000007bffffffffffffffffffffffffffffffffffffffffffffffffffffffff1916827bffffffffffffffffffffffffffffffffffffffffffffffffffffffff1916149050919050565b600033905090565b600073ffffffffffffffffffffffffffffffffffffffff168473ffffffffffffffffffffffffffffffffffffffff1614156110be576040517f08c379a00000000000000000000000000000000000000000000000000000000081526004016110b590613163565b60405180910390fd5b60006110c8611046565b90506110e9816000876110da88611e7c565b6110e388611e7c565b87611ef6565b8260008086815260200190815260200160002060008773ffffffffffffffffffffffffffffffffffffffff1673ffffffffffffffffffffffffffffffffffffffff16815260200190815260200160002060008282546111489190613183565b925050819055508473ffffffffffffffffffffffffffffffffffffffff16600073ffffffffffffffffffffffffffffffffffffffff168273ffffffffffffffffffffffffffffffffffffffff167fc3d58168c5ae7397731d063d5bbf3d657854427343f4c083240f7aacaa2d0f6287876040516111c69291906131d9565b60405180910390a46111dd81600087878787611efe565b5050505050565b8151835114611228576040517f08c379a000000000000000000000000000000000000000000000000000000000815260040161121f90613274565b60405180910390fd5b600073ffffffffffffffffffffffffffffffffffffffff168473ffffffffffffffffffffffffffffffffffffffff161415611298576040517f08c379a000000000000000000000000000000000000000000000000000000000815260040161128f90613306565b60405180910390fd5b60006112a2611046565b90506112b2818787878787611ef6565b60005b84518110156114635760008582815181106112d3576112d2612eba565b5b6020026020010151905060008583815181106112f2576112f1612eba565b5b60200260200101519050600080600084815260200190815260200160002060008b73ffffffffffffffffffffffffffffffffffffffff1673ffffffffffffffffffffffffffffffffffffffff16815260200190815260200160002054905081811015611393576040517f08c379a000000000000000000000000000000000000000000000000000000000815260040161138a90613398565b60405180910390fd5b81810360008085815260200190815260200160002060008c73ffffffffffffffffffffffffffffffffffffffff1673ffffffffffffffffffffffffffffffffffffffff168152602001908152602001600020819055508160008085815260200190815260200160002060008b73ffffffffffffffffffffffffffffffffffffffff1673ffffffffffffffffffffffffffffffffffffffff16815260200190815260200160002060008282546114489190613183565b925050819055505050508061145c90612f18565b90506112b5565b508473ffffffffffffffffffffffffffffffffffffffff168673ffffffffffffffffffffffffffffffffffffffff168273ffffffffffffffffffffffffffffffffffffffff167f4a39dc06d4c0dbc64b70af90fd698a233a518aa5d07e595d983b8c0526c8f7fb87876040516114da9291906133b8565b60405180910390a46114f08187878787876120d6565b505050505050565b6000600360009054906101000a900473ffffffffffffffffffffffffffffffffffffffff16905081600360006101000a81548173ffffffffffffffffffffffffffffffffffffffff021916908373ffffffffffffffffffffffffffffffffffffffff1602179055508173ffffffffffffffffffffffffffffffffffffffff168173ffffffffffffffffffffffffffffffffffffffff167f8be0079c531659141344cd1fd0a4f28419497f9722a3daafe3b4186f6b6457e060405160405180910390a35050565b8173ffffffffffffffffffffffffffffffffffffffff168373ffffffffffffffffffffffffffffffffffffffff16141561162d576040517f08c379a000000000000000000000000000000000000000000000000000000000815260040161162490613461565b60405180910390fd5b80600160008573ffffffffffffffffffffffffffffffffffffffff1673ffffffffffffffffffffffffffffffffffffffff16815260200190815260200160002060008473ffffffffffffffffffffffffffffffffffffffff1673ffffffffffffffffffffffffffffffffffffffff16815260200190815260200160002060006101000a81548160ff0219169083151502179055508173ffffffffffffffffffffffffffffffffffffffff168373ffffffffffffffffffffffffffffffffffffffff167f17307eab39ab6107e8899845ad3d59bd9653f200f220920489ca2b5937696c318360405161171e9190612460565b60405180910390a3505050565b600073ffffffffffffffffffffffffffffffffffffffff168473ffffffffffffffffffffffffffffffffffffffff16141561179b576040517f08c379a000000000000000000000000000000000000000000000000000000000815260040161179290613163565b60405180910390fd5b81518351146117df576040517f08c379a00000000000000000000000000000000000000000000000000000000081526004016117d690613274565b60405180910390fd5b60006117e9611046565b90506117fa81600087878787611ef6565b60005b84518110156118b35783818151811061181957611818612eba565b5b602002602001015160008087848151811061183757611836612eba565b5b6020026020010151815260200190815260200160002060008873ffffffffffffffffffffffffffffffffffffffff1673ffffffffffffffffffffffffffffffffffffffff16815260200190815260200160002060008282546118999190613183565b9250508190555080806118ab90612f18565b9150506117fd565b508473ffffffffffffffffffffffffffffffffffffffff16600073ffffffffffffffffffffffffffffffffffffffff168273ffffffffffffffffffffffffffffffffffffffff167f4a39dc06d4c0dbc64b70af90fd698a233a518aa5d07e595d983b8c0526c8f7fb878760405161192b9291906133b8565b60405180910390a4611942816000878787876120d6565b5050505050565b6000600160008473ffffffffffffffffffffffffffffffffffffffff1673ffffffffffffffffffffffffffffffffffffffff16815260200190815260200160002060008373ffffffffffffffffffffffffffffffffffffffff1673ffffffffffffffffffffffffffffffffffffffff16815260200190815260200160002060009054906101000a900460ff16905092915050565b600073ffffffffffffffffffffffffffffffffffffffff168473ffffffffffffffffffffffffffffffffffffffff161415611a4d576040517f08c379a0000000000000000000000000000000000000000000000000000000008152600401611a4490613306565b60405180910390fd5b6000611a57611046565b9050611a77818787611a6888611e7c565b611a7188611e7c565b87611ef6565b600080600086815260200190815260200160002060008873ffffffffffffffffffffffffffffffffffffffff1673ffffffffffffffffffffffffffffffffffffffff16815260200190815260200160002054905083811015611b0e576040517f08c379a0000000000000000000000000000000000000000000000000000000008152600401611b0590613398565b60405180910390fd5b83810360008087815260200190815260200160002060008973ffffffffffffffffffffffffffffffffffffffff1673ffffffffffffffffffffffffffffffffffffffff168152602001908152602001600020819055508360008087815260200190815260200160002060008873ffffffffffffffffffffffffffffffffffffffff1673ffffffffffffffffffffffffffffffffffffffff1681526020019081526020016000206000828254611bc39190613183565b925050819055508573ffffffffffffffffffffffffffffffffffffffff168773ffffffffffffffffffffffffffffffffffffffff168373ffffffffffffffffffffffffffffffffffffffff167fc3d58168c5ae7397731d063d5bbf3d657854427343f4c083240f7aacaa2d0f628888604051611c409291906131d9565b60405180910390a4611c56828888888888611efe565b50505050505050565b600073ffffffffffffffffffffffffffffffffffffffff168373ffffffffffffffffffffffffffffffffffffffff161415611ccf576040517f08c379a0000000000000000000000000000000000000000000000000000000008152600401611cc6906134f3565b60405180910390fd5b6000611cd9611046565b9050611d0981856000611ceb87611e7c565b611cf487611e7c565b60405180602001604052806000815250611ef6565b600080600085815260200190815260200160002060008673ffffffffffffffffffffffffffffffffffffffff1673ffffffffffffffffffffffffffffffffffffffff16815260200190815260200160002054905082811015611da0576040517f08c379a0000000000000000000000000000000000000000000000000000000008152600401611d9790613585565b60405180910390fd5b82810360008086815260200190815260200160002060008773ffffffffffffffffffffffffffffffffffffffff1673ffffffffffffffffffffffffffffffffffffffff16815260200190815260200160002081905550600073ffffffffffffffffffffffffffffffffffffffff168573ffffffffffffffffffffffffffffffffffffffff168373ffffffffffffffffffffffffffffffffffffffff167fc3d58168c5ae7397731d063d5bbf3d657854427343f4c083240f7aacaa2d0f628787604051611e6d9291906131d9565b60405180910390a45050505050565b60606000600167ffffffffffffffff811115611e9b57611e9a6125bb565b5b604051908082528060200260200182016040528015611ec95781602001602082028036833780820191505090505b5090508281600081518110611ee157611ee0612eba565b5b60200260200101818152505080915050919050565b505050505050565b611f1d8473ffffffffffffffffffffffffffffffffffffffff16610fc9565b156120ce578373ffffffffffffffffffffffffffffffffffffffff1663f23a6e6187878686866040518663ffffffff1660e01b8152600401611f639594939291906135fa565b6020604051808303816000875af1925050508015611f9f57506040513d601f19601f82011682018060405250810190611f9c9190613669565b60015b61204557611fab6136a3565b806308c379a014156120085750611fc06136c5565b80611fcb575061200a565b806040517f08c379a0000000000000000000000000000000000000000000000000000000008152600401611fff9190612541565b60405180910390fd5b505b6040517f08c379a000000000000000000000000000000000000000000000000000000000815260040161203c906137cd565b60405180910390fd5b63f23a6e6160e01b7bffffffffffffffffffffffffffffffffffffffffffffffffffffffff1916817bffffffffffffffffffffffffffffffffffffffffffffffffffffffff1916146120cc576040517f08c379a00000000000000000000000000000000000000000000000000000000081526004016120c39061385f565b60405180910390fd5b505b505050505050565b6120f58473ffffffffffffffffffffffffffffffffffffffff16610fc9565b156122a6578373ffffffffffffffffffffffffffffffffffffffff1663bc197c8187878686866040518663ffffffff1660e01b815260040161213b95949392919061387f565b6020604051808303816000875af192505050801561217757506040513d601f19601f820116820180604052508101906121749190613669565b60015b61221d576121836136a3565b806308c379a014156121e057506121986136c5565b806121a357506121e2565b806040517f08c379a00000000000000000000000000000000000000000000000000000000081526004016121d79190612541565b60405180910390fd5b505b6040517f08c379a0000000000000000000000000000000000000000000000000000000008152600401612214906137cd565b60405180910390fd5b63bc197c8160e01b7bffffffffffffffffffffffffffffffffffffffffffffffffffffffff1916817bffffffffffffffffffffffffffffffffffffffffffffffffffffffff1916146122a4576040517f08c379a000000000000000000000000000000000000000000000000000000000815260040161229b9061385f565b60405180910390fd5b505b505050505050565b6000604051905090565b600080fd5b600080fd5b600073ffffffffffffffffffffffffffffffffffffffff82169050919050565b60006122ed826122c2565b9050919050565b6122fd816122e2565b811461230857600080fd5b50565b60008135905061231a816122f4565b92915050565b6000819050919050565b61233381612320565b811461233e57600080fd5b50565b6000813590506123508161232a565b92915050565b6000806040838503121561236d5761236c6122b8565b5b600061237b8582860161230b565b925050602061238c85828601612341565b9150509250929050565b61239f81612320565b82525050565b60006020820190506123ba6000830184612396565b92915050565b60007fffffffff0000000000000000000000000000000000000000000000000000000082169050919050565b6123f5816123c0565b811461240057600080fd5b50565b600081359050612412816123ec565b92915050565b60006020828403121561242e5761242d6122b8565b5b600061243c84828501612403565b91505092915050565b60008115159050919050565b61245a81612445565b82525050565b60006020820190506124756000830184612451565b92915050565b600060208284031215612491576124906122b8565b5b600061249f84828501612341565b91505092915050565b600081519050919050565b600082825260208201905092915050565b60005b838110156124e25780820151818401526020810190506124c7565b838111156124f1576000848401525b50505050565b6000601f19601f8301169050919050565b6000612513826124a8565b61251d81856124b3565b935061252d8185602086016124c4565b612536816124f7565b840191505092915050565b6000602082019050818103600083015261255b8184612508565b905092915050565b60008060006060848603121561257c5761257b6122b8565b5b600061258a8682870161230b565b935050602061259b86828701612341565b92505060406125ac86828701612341565b9150509250925092565b600080fd5b7f4e487b7100000000000000000000000000000000000000000000000000000000600052604160045260246000fd5b6125f3826124f7565b810181811067ffffffffffffffff82111715612612576126116125bb565b5b80604052505050565b60006126256122ae565b905061263182826125ea565b919050565b600067ffffffffffffffff821115612651576126506125bb565b5b602082029050602081019050919050565b600080fd5b600061267a61267584612636565b61261b565b9050808382526020820190506020840283018581111561269d5761269c612662565b5b835b818110156126c657806126b28882612341565b84526020840193505060208101905061269f565b5050509392505050565b600082601f8301126126e5576126e46125b6565b5b81356126f5848260208601612667565b91505092915050565b600080fd5b600067ffffffffffffffff82111561271e5761271d6125bb565b5b612727826124f7565b9050602081019050919050565b82818337600083830152505050565b600061275661275184612703565b61261b565b905082815260208101848484011115612772576127716126fe565b5b61277d848285612734565b509392505050565b600082601f83011261279a576127996125b6565b5b81356127aa848260208601612743565b91505092915050565b600080600080600060a086880312156127cf576127ce6122b8565b5b60006127dd8882890161230b565b95505060206127ee8882890161230b565b945050604086013567ffffffffffffffff81111561280f5761280e6122bd565b5b61281b888289016126d0565b935050606086013567ffffffffffffffff81111561283c5761283b6122bd565b5b612848888289016126d0565b925050608086013567ffffffffffffffff811115612869576128686122bd565b5b61287588828901612785565b9150509295509295909350565b61288b816122e2565b82525050565b60006020820190506128a66000830184612882565b92915050565b600067ffffffffffffffff8211156128c7576128c66125bb565b5b602082029050602081019050919050565b60006128eb6128e6846128ac565b61261b565b9050808382526020820190506020840283018581111561290e5761290d612662565b5b835b818110156129375780612923888261230b565b845260208401935050602081019050612910565b5050509392505050565b600082601f830112612956576129556125b6565b5b81356129668482602086016128d8565b91505092915050565b60008060408385031215612986576129856122b8565b5b600083013567ffffffffffffffff8111156129a4576129a36122bd565b5b6129b085828601612941565b925050602083013567ffffffffffffffff8111156129d1576129d06122bd565b5b6129dd858286016126d0565b9150509250929050565b600081519050919050565b600082825260208201905092915050565b6000819050602082019050919050565b612a1c81612320565b82525050565b6000612a2e8383612a13565b60208301905092915050565b6000602082019050919050565b6000612a52826129e7565b612a5c81856129f2565b9350612a6783612a03565b8060005b83811015612a98578151612a7f8882612a22565b9750612a8a83612a3a565b925050600181019050612a6b565b5085935050505092915050565b60006020820190508181036000830152612abf8184612a47565b905092915050565b600060208284031215612add57612adc6122b8565b5b6000612aeb8482850161230b565b91505092915050565b612afd81612445565b8114612b0857600080fd5b50565b600081359050612b1a81612af4565b92915050565b60008060408385031215612b3757612b366122b8565b5b6000612b458582860161230b565b9250506020612b5685828601612b0b565b9150509250929050565b60008060408385031215612b7757612b766122b8565b5b6000612b858582860161230b565b9250506020612b968582860161230b565b9150509250929050565b600080600080600060a08688031215612bbc57612bbb6122b8565b5b6000612bca8882890161230b565b9550506020612bdb8882890161230b565b9450506040612bec88828901612341565b9350506060612bfd88828901612341565b925050608086013567ffffffffffffffff811115612c1e57612c1d6122bd565b5b612c2a88828901612785565b9150509295509295909350565b7f455243313135353a2062616c616e636520717565727920666f7220746865207a60008201527f65726f2061646472657373000000000000000000000000000000000000000000602082015250565b6000612c93602b836124b3565b9150612c9e82612c37565b604082019050919050565b60006020820190508181036000830152612cc281612c86565b9050919050565b7f4e487b7100000000000000000000000000000000000000000000000000000000600052602260045260246000fd5b60006002820490506001821680612d1057607f821691505b60208210811415612d2457612d23612cc9565b5b50919050565b7f4f776e61626c653a2063616c6c6572206973206e6f7420746865206f776e6572600082015250565b6000612d606020836124b3565b9150612d6b82612d2a565b602082019050919050565b60006020820190508181036000830152612d8f81612d53565b9050919050565b7f455243313135353a207472616e736665722063616c6c6572206973206e6f742060008201527f6f776e6572206e6f7220617070726f7665640000000000000000000000000000602082015250565b6000612df26032836124b3565b9150612dfd82612d96565b604082019050919050565b60006020820190508181036000830152612e2181612de5565b9050919050565b7f455243313135353a206163636f756e747320616e6420696473206c656e67746860008201527f206d69736d617463680000000000000000000000000000000000000000000000602082015250565b6000612e846029836124b3565b9150612e8f82612e28565b604082019050919050565b60006020820190508181036000830152612eb381612e77565b9050919050565b7f4e487b7100000000000000000000000000000000000000000000000000000000600052603260045260246000fd5b7f4e487b7100000000000000000000000000000000000000000000000000000000600052601160045260246000fd5b6000612f2382612320565b91507fffffffffffffffffffffffffffffffffffffffffffffffffffffffffffffffff821415612f5657612f55612ee9565b5b600182019050919050565b7f43616c6c6572206973206e6f74207468652067616d6500000000000000000000600082015250565b6000612f976016836124b3565b9150612fa282612f61565b602082019050919050565b60006020820190508181036000830152612fc681612f8a565b9050919050565b7f455243313135353a2063616c6c6572206973206e6f74206f776e6572206e6f7260008201527f20617070726f7665640000000000000000000000000000000000000000000000602082015250565b60006130296029836124b3565b915061303482612fcd565b604082019050919050565b600060208201905081810360008301526130588161301c565b9050919050565b7f4f776e61626c653a206e6577206f776e657220697320746865207a65726f206160008201527f6464726573730000000000000000000000000000000000000000000000000000602082015250565b60006130bb6026836124b3565b91506130c68261305f565b604082019050919050565b600060208201905081810360008301526130ea816130ae565b9050919050565b7f455243313135353a206d696e7420746f20746865207a65726f2061646472657360008201527f7300000000000000000000000000000000000000000000000000000000000000602082015250565b600061314d6021836124b3565b9150613158826130f1565b604082019050919050565b6000602082019050818103600083015261317c81613140565b9050919050565b600061318e82612320565b915061319983612320565b9250827fffffffffffffffffffffffffffffffffffffffffffffffffffffffffffffffff038211156131ce576131cd612ee9565b5b828201905092915050565b60006040820190506131ee6000830185612396565b6131fb6020830184612396565b9392505050565b7f455243313135353a2069647320616e6420616d6f756e7473206c656e6774682060008201527f6d69736d61746368000000000000000000000000000000000000000000000000602082015250565b600061325e6028836124b3565b915061326982613202565b604082019050919050565b6000602082019050818103600083015261328d81613251565b9050919050565b7f455243313135353a207472616e7366657220746f20746865207a65726f20616460008201527f6472657373000000000000000000000000000000000000000000000000000000602082015250565b60006132f06025836124b3565b91506132fb82613294565b604082019050919050565b6000602082019050818103600083015261331f816132e3565b9050919050565b7f455243313135353a20696e73756666696369656e742062616c616e636520666f60008201527f72207472616e7366657200000000000000000000000000000000000000000000602082015250565b6000613382602a836124b3565b915061338d82613326565b604082019050919050565b600060208201905081810360008301526133b181613375565b9050919050565b600060408201905081810360008301526133d28185612a47565b905081810360208301526133e68184612a47565b90509392505050565b7f455243313135353a2073657474696e6720617070726f76616c2073746174757360008201527f20666f722073656c660000000000000000000000000000000000000000000000602082015250565b600061344b6029836124b3565b9150613456826133ef565b604082019050919050565b6000602082019050818103600083015261347a8161343e565b9050919050565b7f455243313135353a206275726e2066726f6d20746865207a65726f206164647260008201527f6573730000000000000000000000000000000000000000000000000000000000602082015250565b60006134dd6023836124b3565b91506134e882613481565b604082019050919050565b6000602082019050818103600083015261350c816134d0565b9050919050565b7f455243313135353a206275726e20616d6f756e7420657863656564732062616c60008201527f616e636500000000000000000000000000000000000000000000000000000000602082015250565b600061356f6024836124b3565b915061357a82613513565b604082019050919050565b6000602082019050818103600083015261359e81613562565b9050919050565b600081519050919050565b600082825260208201905092915050565b60006135cc826135a5565b6135d681856135b0565b93506135e68185602086016124c4565b6135ef816124f7565b840191505092915050565b600060a08201905061360f6000830188612882565b61361c6020830187612882565b6136296040830186612396565b6136366060830185612396565b818103608083015261364881846135c1565b90509695505050505050565b600081519050613663816123ec565b92915050565b60006020828403121561367f5761367e6122b8565b5b600061368d84828501613654565b91505092915050565b60008160e01c9050919050565b600060033d11156136c25760046000803e6136bf600051613696565b90505b90565b600060443d10156136d557613758565b6136dd6122ae565b60043d036004823e80513d602482011167ffffffffffffffff82111715613705575050613758565b808201805167ffffffffffffffff8111156137235750505050613758565b80602083010160043d038501811115613740575050505050613758565b61374f826020018501866125ea565b82955050505050505b90565b7f455243313135353a207472616e7366657220746f206e6f6e204552433131353560008201527f526563656976657220696d706c656d656e746572000000000000000000000000602082015250565b60006137b76034836124b3565b91506137c28261375b565b604082019050919050565b600060208201905081810360008301526137e6816137aa565b9050919050565b7f455243313135353a204552433131353552656365697665722072656a6563746560008201527f6420746f6b656e73000000000000000000000000000000000000000000000000602082015250565b60006138496028836124b3565b9150613854826137ed565b604082019050919050565b600060208201905081810360008301526138788161383c565b9050919050565b600060a0820190506138946000830188612882565b6138a16020830187612882565b81810360408301526138b38186612a47565b905081810360608301526138c78185612a47565b905081810360808301526138db81846135c1565b9050969550505050505056fea2646970667358221220395b528fbd19331c2579fd9f626a8991aed6dd28b90f91de883964d08fda6d3e64736f6c634300080a0033687474703a2f2f6c6f63616c686f73743a383038302f6170692f6974656d2f6a736f6e2f7b69647d2e6a736f6e",
  "immutableReferences": {},
  "source": "// SPDX-License-Identifier: MIT\r\npragma solidity ^0.8.7;\r\n\r\nimport \"./IotaHeroFactory.sol\";\r\nimport \"@openzeppelin/contracts/token/ERC1155/ERC1155.sol\";\r\n\r\ncontract IotaHeroGameTokens is ERC1155, Ownable {\r\n    address public game;\r\n\r\n    uint256 public constant GOLD = 0;\r\n    uint256 public constant BONES = 1;\r\n    uint256 public constant HEALING_POTION = 2;\r\n    uint256 public constant RING_OF_INVISIBILITY = 3;\r\n    uint256 public constant BOOTS_OF_SWIFTNESS = 4;\r\n\r\n    constructor() ERC1155(\"http://localhost:8080/api/item/json/{id}.json\") {\r\n        _mint(address(this), GOLD, 10**18, \"\");\r\n        // _mint(address(this), BONES, 10**27, \"\");\r\n        // _mint(address(this), RING_OF_INVISIBILITY, 1, \"\");\r\n        // _mint(address(this), HEALING_POTION, 10**9, \"\");\r\n        // _mint(address(this), BOOTS_OF_SWIFTNESS, 10**5, \"\");\r\n    }\r\n\r\n    function setGame(address _game) public onlyOwner {\r\n        game = _game;\r\n    }\r\n\r\n    function getGame() public view returns (address) {\r\n        return game;\r\n    }\r\n\r\n    modifier onlyGame() {\r\n        require(_msgSender() == game, \"Caller is not the game\");\r\n        _;\r\n    }\r\n\r\n    // Game is always approved to transfer tokens\r\n    function isApprovedForAll(address account, address operator)\r\n        public\r\n        view\r\n        virtual\r\n        override\r\n        returns (bool)\r\n    {\r\n        return\r\n            _msgSender() == game || super.isApprovedForAll(account, operator);\r\n    }\r\n\r\n    function mint(\r\n        address account,\r\n        uint256 id,\r\n        uint256 amount\r\n    ) public onlyOwner {\r\n        _mint(account, id, amount, \"\");\r\n    }\r\n\r\n    function burn(\r\n        address account,\r\n        uint256 id,\r\n        uint256 amount\r\n    ) public {\r\n        require(msg.sender == account);\r\n        _burn(account, id, amount);\r\n    }\r\n\r\n    function awardAdventurer(address _recipient) public payable onlyGame {\r\n        uint256[] memory arrLoot = new uint256[](2);\r\n        arrLoot[0] = GOLD;\r\n        arrLoot[1] = BONES;\r\n        uint256[] memory arrAmount = new uint256[](2);\r\n        arrAmount[0] = 100;\r\n        arrAmount[1] = 1;\r\n        _mintBatch(_recipient, arrLoot, arrAmount, \"\");\r\n    }\r\n}\r\n",
  "sourcePath": "C:\\Users\\creld\\source\\repos\\IotaHeroes\\smartcontracts\\contracts\\IotaHeroGameTokens.sol",
  "compiler": {
    "name": "solc",
    "version": "0.8.10+commit.fc410830.Emscripten.clang"
  },
  "schemaVersion": "3.4.4",
  "updatedAt": "2022-01-16T00:05:53.652Z",
  "networkType": "ethereum",
  "devdoc": {
    "kind": "dev",
    "methods": {
      "balanceOf(address,uint256)": {
        "details": "See {IERC1155-balanceOf}. Requirements: - `account` cannot be the zero address."
      },
      "balanceOfBatch(address[],uint256[])": {
        "details": "See {IERC1155-balanceOfBatch}. Requirements: - `accounts` and `ids` must have the same length."
      },
      "isApprovedForAll(address,address)": {
        "details": "See {IERC1155-isApprovedForAll}."
      },
      "owner()": {
        "details": "Returns the address of the current owner."
      },
      "renounceOwnership()": {
        "details": "Leaves the contract without owner. It will not be possible to call `onlyOwner` functions anymore. Can only be called by the current owner. NOTE: Renouncing ownership will leave the contract without an owner, thereby removing any functionality that is only available to the owner."
      },
      "safeBatchTransferFrom(address,address,uint256[],uint256[],bytes)": {
        "details": "See {IERC1155-safeBatchTransferFrom}."
      },
      "safeTransferFrom(address,address,uint256,uint256,bytes)": {
        "details": "See {IERC1155-safeTransferFrom}."
      },
      "setApprovalForAll(address,bool)": {
        "details": "See {IERC1155-setApprovalForAll}."
      },
      "supportsInterface(bytes4)": {
        "details": "See {IERC165-supportsInterface}."
      },
      "transferOwnership(address)": {
        "details": "Transfers ownership of the contract to a new account (`newOwner`). Can only be called by the current owner."
      },
      "uri(uint256)": {
        "details": "See {IERC1155MetadataURI-uri}. This implementation returns the same URI for *all* token types. It relies on the token type ID substitution mechanism https://eips.ethereum.org/EIPS/eip-1155#metadata[defined in the EIP]. Clients calling this function must replace the `\\{id\\}` substring with the actual token type ID."
      }
    },
    "version": 1
  },
  "userdoc": {
    "kind": "user",
    "methods": {},
    "version": 1
  }
}