{
  "contractName": "IotaHeroFactory",
  "abi": [
    {
      "inputs": [],
      "stateMutability": "nonpayable",
      "type": "constructor"
    },
    {
      "anonymous": false,
      "inputs": [
        {
          "indexed": true,
          "internalType": "address",
          "name": "owner",
          "type": "address"
        },
        {
          "indexed": true,
          "internalType": "address",
          "name": "approved",
          "type": "address"
        },
        {
          "indexed": true,
          "internalType": "uint256",
          "name": "tokenId",
          "type": "uint256"
        }
      ],
      "name": "Approval",
      "type": "event"
    },
    {
      "anonymous": false,
      "inputs": [
        {
          "indexed": true,
          "internalType": "address",
          "name": "owner",
          "type": "address"
        },
        {
          "indexed": true,
          "internalType": "address",
          "name": "operator",
          "type": "address"
        },
        {
          "indexed": false,
          "internalType": "bool",
          "name": "approved",
          "type": "bool"
        }
      ],
      "name": "ApprovalForAll",
      "type": "event"
    },
    {
      "anonymous": false,
      "inputs": [
        {
          "indexed": true,
          "internalType": "address",
          "name": "owner",
          "type": "address"
        },
        {
          "indexed": false,
          "internalType": "uint256",
          "name": "id",
          "type": "uint256"
        },
        {
          "indexed": false,
          "internalType": "uint256",
          "name": "dna",
          "type": "uint256"
        }
      ],
      "name": "HeroMinted",
      "type": "event"
    },
    {
      "anonymous": false,
      "inputs": [
        {
          "indexed": true,
          "internalType": "address",
          "name": "previousOwner",
          "type": "address"
        },
        {
          "indexed": true,
          "internalType": "address",
          "name": "newOwner",
          "type": "address"
        }
      ],
      "name": "OwnershipTransferred",
      "type": "event"
    },
    {
      "anonymous": false,
      "inputs": [
        {
          "indexed": true,
          "internalType": "address",
          "name": "from",
          "type": "address"
        },
        {
          "indexed": true,
          "internalType": "address",
          "name": "to",
          "type": "address"
        },
        {
          "indexed": true,
          "internalType": "uint256",
          "name": "tokenId",
          "type": "uint256"
        }
      ],
      "name": "Transfer",
      "type": "event"
    },
    {
      "inputs": [
        {
          "internalType": "address",
          "name": "",
          "type": "address"
        }
      ],
      "name": "addressToId",
      "outputs": [
        {
          "internalType": "uint256",
          "name": "",
          "type": "uint256"
        }
      ],
      "stateMutability": "view",
      "type": "function",
      "constant": true
    },
    {
      "inputs": [
        {
          "internalType": "address",
          "name": "to",
          "type": "address"
        },
        {
          "internalType": "uint256",
          "name": "tokenId",
          "type": "uint256"
        }
      ],
      "name": "approve",
      "outputs": [],
      "stateMutability": "nonpayable",
      "type": "function"
    },
    {
      "inputs": [
        {
          "internalType": "address",
          "name": "owner",
          "type": "address"
        }
      ],
      "name": "balanceOf",
      "outputs": [
        {
          "internalType": "uint256",
          "name": "",
          "type": "uint256"
        }
      ],
      "stateMutability": "view",
      "type": "function",
      "constant": true
    },
    {
      "inputs": [],
      "name": "currentUserCount",
      "outputs": [
        {
          "internalType": "uint256",
          "name": "",
          "type": "uint256"
        }
      ],
      "stateMutability": "view",
      "type": "function",
      "constant": true
    },
    {
      "inputs": [
        {
          "internalType": "string",
          "name": "_username",
          "type": "string"
        }
      ],
      "name": "getAddressForUsername",
      "outputs": [
        {
          "internalType": "address",
          "name": "",
          "type": "address"
        }
      ],
      "stateMutability": "view",
      "type": "function",
      "constant": true
    },
    {
      "inputs": [
        {
          "internalType": "uint256",
          "name": "tokenId",
          "type": "uint256"
        }
      ],
      "name": "getApproved",
      "outputs": [
        {
          "internalType": "address",
          "name": "",
          "type": "address"
        }
      ],
      "stateMutability": "view",
      "type": "function",
      "constant": true
    },
    {
      "inputs": [],
      "name": "getUsername",
      "outputs": [
        {
          "internalType": "string",
          "name": "",
          "type": "string"
        }
      ],
      "stateMutability": "view",
      "type": "function",
      "constant": true
    },
    {
      "inputs": [
        {
          "internalType": "address",
          "name": "_address",
          "type": "address"
        }
      ],
      "name": "getUsernameByAddress",
      "outputs": [
        {
          "internalType": "string",
          "name": "",
          "type": "string"
        }
      ],
      "stateMutability": "view",
      "type": "function",
      "constant": true
    },
    {
      "inputs": [],
      "name": "getUsernameLength",
      "outputs": [
        {
          "internalType": "uint256",
          "name": "",
          "type": "uint256"
        }
      ],
      "stateMutability": "view",
      "type": "function",
      "constant": true
    },
    {
      "inputs": [
        {
          "internalType": "uint256",
          "name": "",
          "type": "uint256"
        }
      ],
      "name": "heroes",
      "outputs": [
        {
          "internalType": "uint256",
          "name": "id",
          "type": "uint256"
        },
        {
          "internalType": "uint256",
          "name": "dna",
          "type": "uint256"
        },
        {
          "internalType": "uint256",
          "name": "constitution",
          "type": "uint256"
        },
        {
          "internalType": "uint256",
          "name": "strength",
          "type": "uint256"
        },
        {
          "internalType": "uint256",
          "name": "agility",
          "type": "uint256"
        },
        {
          "internalType": "uint256",
          "name": "intelligence",
          "type": "uint256"
        },
        {
          "internalType": "string",
          "name": "name",
          "type": "string"
        }
      ],
      "stateMutability": "view",
      "type": "function",
      "constant": true
    },
    {
      "inputs": [
        {
          "internalType": "uint256",
          "name": "",
          "type": "uint256"
        }
      ],
      "name": "idToAddress",
      "outputs": [
        {
          "internalType": "address",
          "name": "",
          "type": "address"
        }
      ],
      "stateMutability": "view",
      "type": "function",
      "constant": true
    },
    {
      "inputs": [
        {
          "internalType": "uint256",
          "name": "",
          "type": "uint256"
        }
      ],
      "name": "idToUsername",
      "outputs": [
        {
          "internalType": "string",
          "name": "",
          "type": "string"
        }
      ],
      "stateMutability": "view",
      "type": "function",
      "constant": true
    },
    {
      "inputs": [
        {
          "internalType": "address",
          "name": "owner",
          "type": "address"
        },
        {
          "internalType": "address",
          "name": "operator",
          "type": "address"
        }
      ],
      "name": "isApprovedForAll",
      "outputs": [
        {
          "internalType": "bool",
          "name": "",
          "type": "bool"
        }
      ],
      "stateMutability": "view",
      "type": "function",
      "constant": true
    },
    {
      "inputs": [],
      "name": "isSignedUp",
      "outputs": [
        {
          "internalType": "bool",
          "name": "",
          "type": "bool"
        }
      ],
      "stateMutability": "view",
      "type": "function",
      "constant": true
    },
    {
      "inputs": [],
      "name": "name",
      "outputs": [
        {
          "internalType": "string",
          "name": "",
          "type": "string"
        }
      ],
      "stateMutability": "view",
      "type": "function",
      "constant": true
    },
    {
      "inputs": [],
      "name": "owner",
      "outputs": [
        {
          "internalType": "address",
          "name": "",
          "type": "address"
        }
      ],
      "stateMutability": "view",
      "type": "function",
      "constant": true
    },
    {
      "inputs": [
        {
          "internalType": "uint256",
          "name": "tokenId",
          "type": "uint256"
        }
      ],
      "name": "ownerOf",
      "outputs": [
        {
          "internalType": "address",
          "name": "",
          "type": "address"
        }
      ],
      "stateMutability": "view",
      "type": "function",
      "constant": true
    },
    {
      "inputs": [],
      "name": "renounceOwnership",
      "outputs": [],
      "stateMutability": "nonpayable",
      "type": "function"
    },
    {
      "inputs": [
        {
          "internalType": "address",
          "name": "from",
          "type": "address"
        },
        {
          "internalType": "address",
          "name": "to",
          "type": "address"
        },
        {
          "internalType": "uint256",
          "name": "tokenId",
          "type": "uint256"
        }
      ],
      "name": "safeTransferFrom",
      "outputs": [],
      "stateMutability": "nonpayable",
      "type": "function"
    },
    {
      "inputs": [
        {
          "internalType": "address",
          "name": "from",
          "type": "address"
        },
        {
          "internalType": "address",
          "name": "to",
          "type": "address"
        },
        {
          "internalType": "uint256",
          "name": "tokenId",
          "type": "uint256"
        },
        {
          "internalType": "bytes",
          "name": "_data",
          "type": "bytes"
        }
      ],
      "name": "safeTransferFrom",
      "outputs": [],
      "stateMutability": "nonpayable",
      "type": "function"
    },
    {
      "inputs": [
        {
          "internalType": "address",
          "name": "operator",
          "type": "address"
        },
        {
          "internalType": "bool",
          "name": "approved",
          "type": "bool"
        }
      ],
      "name": "setApprovalForAll",
      "outputs": [],
      "stateMutability": "nonpayable",
      "type": "function"
    },
    {
      "inputs": [
        {
          "internalType": "string",
          "name": "_username",
          "type": "string"
        }
      ],
      "name": "signUp",
      "outputs": [],
      "stateMutability": "nonpayable",
      "type": "function"
    },
    {
      "inputs": [
        {
          "internalType": "bytes4",
          "name": "interfaceId",
          "type": "bytes4"
        }
      ],
      "name": "supportsInterface",
      "outputs": [
        {
          "internalType": "bool",
          "name": "",
          "type": "bool"
        }
      ],
      "stateMutability": "view",
      "type": "function",
      "constant": true
    },
    {
      "inputs": [],
      "name": "symbol",
      "outputs": [
        {
          "internalType": "string",
          "name": "",
          "type": "string"
        }
      ],
      "stateMutability": "view",
      "type": "function",
      "constant": true
    },
    {
      "inputs": [
        {
          "internalType": "uint256",
          "name": "tokenId",
          "type": "uint256"
        }
      ],
      "name": "tokenURI",
      "outputs": [
        {
          "internalType": "string",
          "name": "",
          "type": "string"
        }
      ],
      "stateMutability": "view",
      "type": "function",
      "constant": true
    },
    {
      "inputs": [
        {
          "internalType": "address",
          "name": "from",
          "type": "address"
        },
        {
          "internalType": "address",
          "name": "to",
          "type": "address"
        },
        {
          "internalType": "uint256",
          "name": "tokenId",
          "type": "uint256"
        }
      ],
      "name": "transferFrom",
      "outputs": [],
      "stateMutability": "nonpayable",
      "type": "function"
    },
    {
      "inputs": [
        {
          "internalType": "address",
          "name": "newOwner",
          "type": "address"
        }
      ],
      "name": "transferOwnership",
      "outputs": [],
      "stateMutability": "nonpayable",
      "type": "function"
    },
    {
      "inputs": [
        {
          "internalType": "string",
          "name": "_username",
          "type": "string"
        }
      ],
      "name": "usernameExists",
      "outputs": [
        {
          "internalType": "bool",
          "name": "",
          "type": "bool"
        }
      ],
      "stateMutability": "view",
      "type": "function",
      "constant": true
    },
    {
      "inputs": [
        {
          "internalType": "string",
          "name": "",
          "type": "string"
        }
      ],
      "name": "usernameToId",
      "outputs": [
        {
          "internalType": "uint256",
          "name": "",
          "type": "uint256"
        }
      ],
      "stateMutability": "view",
      "type": "function",
      "constant": true
    },
    {
      "inputs": [
        {
          "internalType": "address",
          "name": "statManipulator",
          "type": "address"
        }
      ],
      "name": "addStatManipulator",
      "outputs": [],
      "stateMutability": "nonpayable",
      "type": "function"
    },
    {
      "inputs": [
        {
          "internalType": "address",
          "name": "statManipulator",
          "type": "address"
        }
      ],
      "name": "removeStatManipulator",
      "outputs": [],
      "stateMutability": "nonpayable",
      "type": "function"
    },
    {
      "inputs": [
        {
          "internalType": "uint256",
          "name": "_heroId",
          "type": "uint256"
        },
        {
          "internalType": "string",
          "name": "_name",
          "type": "string"
        }
      ],
      "name": "nameChange",
      "outputs": [],
      "stateMutability": "nonpayable",
      "type": "function"
    },
    {
      "inputs": [],
      "name": "spawnHero",
      "outputs": [],
      "stateMutability": "nonpayable",
      "type": "function"
    },
    {
      "inputs": [
        {
          "internalType": "uint256",
          "name": "_heroId",
          "type": "uint256"
        },
        {
          "internalType": "uint256",
          "name": "cons",
          "type": "uint256"
        },
        {
          "internalType": "uint256",
          "name": "str",
          "type": "uint256"
        },
        {
          "internalType": "uint256",
          "name": "agi",
          "type": "uint256"
        },
        {
          "internalType": "uint256",
          "name": "intel",
          "type": "uint256"
        }
      ],
      "name": "skillUp",
      "outputs": [],
      "stateMutability": "nonpayable",
      "type": "function"
    },
    {
      "inputs": [],
      "name": "withdraw",
      "outputs": [],
      "stateMutability": "payable",
      "type": "function",
      "payable": true
    },
    {
      "inputs": [],
      "name": "getHeroes",
      "outputs": [
        {
          "components": [
            {
              "internalType": "uint256",
              "name": "id",
              "type": "uint256"
            },
            {
              "internalType": "uint256",
              "name": "dna",
              "type": "uint256"
            },
            {
              "internalType": "uint256",
              "name": "constitution",
              "type": "uint256"
            },
            {
              "internalType": "uint256",
              "name": "strength",
              "type": "uint256"
            },
            {
              "internalType": "uint256",
              "name": "agility",
              "type": "uint256"
            },
            {
              "internalType": "uint256",
              "name": "intelligence",
              "type": "uint256"
            },
            {
              "internalType": "string",
              "name": "name",
              "type": "string"
            }
          ],
          "internalType": "struct IotaHeroFactory.Hero[]",
          "name": "",
          "type": "tuple[]"
        }
      ],
      "stateMutability": "view",
      "type": "function",
      "constant": true
    },
    {
      "inputs": [
        {
          "internalType": "address",
          "name": "_owner",
          "type": "address"
        }
      ],
      "name": "getOwnerHeroes",
      "outputs": [
        {
          "components": [
            {
              "internalType": "uint256",
              "name": "id",
              "type": "uint256"
            },
            {
              "internalType": "uint256",
              "name": "dna",
              "type": "uint256"
            },
            {
              "internalType": "uint256",
              "name": "constitution",
              "type": "uint256"
            },
            {
              "internalType": "uint256",
              "name": "strength",
              "type": "uint256"
            },
            {
              "internalType": "uint256",
              "name": "agility",
              "type": "uint256"
            },
            {
              "internalType": "uint256",
              "name": "intelligence",
              "type": "uint256"
            },
            {
              "internalType": "string",
              "name": "name",
              "type": "string"
            }
          ],
          "internalType": "struct IotaHeroFactory.Hero[]",
          "name": "",
          "type": "tuple[]"
        }
      ],
      "stateMutability": "view",
      "type": "function",
      "constant": true
    }
  ],
  "bytecode": "0x608060405260016007556000600d553480156200001b57600080fd5b506040518060400160405280600881526020017f496f74614865726f0000000000000000000000000000000000000000000000008152506040518060400160405280600281526020017f49480000000000000000000000000000000000000000000000000000000000008152508160009080519060200190620000a0929190620001b0565b508060019080519060200190620000b9929190620001b0565b505050620000dc620000d0620000e260201b60201c565b620000ea60201b60201c565b620002c5565b600033905090565b6000600660009054906101000a900473ffffffffffffffffffffffffffffffffffffffff16905081600660006101000a81548173ffffffffffffffffffffffffffffffffffffffff021916908373ffffffffffffffffffffffffffffffffffffffff1602179055508173ffffffffffffffffffffffffffffffffffffffff168173ffffffffffffffffffffffffffffffffffffffff167f8be0079c531659141344cd1fd0a4f28419497f9722a3daafe3b4186f6b6457e060405160405180910390a35050565b828054620001be906200028f565b90600052602060002090601f016020900481019282620001e257600085556200022e565b82601f10620001fd57805160ff19168380011785556200022e565b828001600101855582156200022e579182015b828111156200022d57825182559160200191906001019062000210565b5b5090506200023d919062000241565b5090565b5b808211156200025c57600081600090555060010162000242565b5090565b7f4e487b7100000000000000000000000000000000000000000000000000000000600052602260045260246000fd5b60006002820490506001821680620002a857607f821691505b60208210811415620002bf57620002be62000260565b5b50919050565b614c3280620002d56000396000f3fe60806040526004361061021a5760003560e01c806370a0823111610123578063b88d4fde116100ab578063ed1a998d1161006f578063ed1a998d14610814578063f1c4660614610851578063f2fde38b1461087c578063f309e3f9146108a5578063f7dfd479146108e25761021a565b8063b88d4fde146106f7578063c87b56dd14610720578063cb0e0d7d1461075d578063ddf368a21461079a578063e985e9c5146107d75761021a565b80639a8d2882116100f25780639a8d2882146106205780639f72ed761461064b578063a22cb46514610662578063a8d4a03b1461068b578063adcfb4fc146106ce5761021a565b806370a0823114610576578063715018a6146105b35780638da5cb5b146105ca57806395d89b41146105f55761021a565b8063346a6ef4116101a657806348646f7b1161017557806348646f7b1461047d5780635e1fe1db146104a65780636352211e146104e3578063681f3e6d146105205780636d0cac8e1461054b5761021a565b8063346a6ef4146103e457806339bdca1f1461040d5780633ccfd60b1461044a57806342842e0e146104545761021a565b8063095ea7b3116101ed578063095ea7b314610301578063191d1cb41461032a57806323b872dd146103555780632a2d0c471461037e5780632ce7c9c3146103bb5761021a565b806301ffc9a71461021f57806306fdde031461025c578063081812fc14610287578063095a0535146102c4575b600080fd5b34801561022b57600080fd5b50610246600480360381019061024191906133c3565b61090b565b604051610253919061340b565b60405180910390f35b34801561026857600080fd5b506102716109ed565b60405161027e91906134bf565b60405180910390f35b34801561029357600080fd5b506102ae60048036038101906102a99190613517565b610a7f565b6040516102bb9190613585565b60405180910390f35b3480156102d057600080fd5b506102eb60048036038101906102e691906136d5565b610b04565b6040516102f89190613585565b60405180910390f35b34801561030d57600080fd5b506103286004803603810190610323919061374a565b610b5f565b005b34801561033657600080fd5b5061033f610c77565b60405161034c919061340b565b60405180910390f35b34801561036157600080fd5b5061037c6004803603810190610377919061378a565b610cc1565b005b34801561038a57600080fd5b506103a560048036038101906103a09190613517565b610d21565b6040516103b29190613585565b60405180910390f35b3480156103c757600080fd5b506103e260048036038101906103dd91906137dd565b610d54565b005b3480156103f057600080fd5b5061040b6004803603810190610406919061380a565b610e2b565b005b34801561041957600080fd5b50610434600480360381019061042f9190613517565b610f32565b60405161044191906134bf565b60405180910390f35b610452610fd2565b005b34801561046057600080fd5b5061047b6004803603810190610476919061378a565b6110a4565b005b34801561048957600080fd5b506104a4600480360381019061049f9190613885565b6110c4565b005b3480156104b257600080fd5b506104cd60048036038101906104c891906136d5565b6111f7565b6040516104da91906138f0565b60405180910390f35b3480156104ef57600080fd5b5061050a60048036038101906105059190613517565b611225565b6040516105179190613585565b60405180910390f35b34801561052c57600080fd5b506105356112d7565b60405161054291906134bf565b60405180910390f35b34801561055757600080fd5b506105606113b9565b60405161056d91906138f0565b60405180910390f35b34801561058257600080fd5b5061059d600480360381019061059891906137dd565b6113cf565b6040516105aa91906138f0565b60405180910390f35b3480156105bf57600080fd5b506105c8611487565b005b3480156105d657600080fd5b506105df61150f565b6040516105ec9190613585565b60405180910390f35b34801561060157600080fd5b5061060a611539565b60405161061791906134bf565b60405180910390f35b34801561062c57600080fd5b506106356115cb565b6040516106429190613ac2565b60405180910390f35b34801561065757600080fd5b506106606116f8565b005b34801561066e57600080fd5b5061068960048036038101906106849190613b10565b611761565b005b34801561069757600080fd5b506106b260048036038101906106ad9190613517565b611777565b6040516106c59796959493929190613b50565b60405180910390f35b3480156106da57600080fd5b506106f560048036038101906106f091906136d5565b611851565b005b34801561070357600080fd5b5061071e60048036038101906107199190613c67565b611a99565b005b34801561072c57600080fd5b5061074760048036038101906107429190613517565b611afb565b60405161075491906134bf565b60405180910390f35b34801561076957600080fd5b50610784600480360381019061077f91906137dd565b611ba2565b60405161079191906138f0565b60405180910390f35b3480156107a657600080fd5b506107c160048036038101906107bc91906137dd565b611bba565b6040516107ce9190613ac2565b60405180910390f35b3480156107e357600080fd5b506107fe60048036038101906107f99190613cea565b611db3565b60405161080b919061340b565b60405180910390f35b34801561082057600080fd5b5061083b600480360381019061083691906137dd565b611e47565b60405161084891906134bf565b60405180910390f35b34801561085d57600080fd5b50610866611f2b565b60405161087391906138f0565b60405180910390f35b34801561088857600080fd5b506108a3600480360381019061089e91906137dd565b611f47565b005b3480156108b157600080fd5b506108cc60048036038101906108c791906136d5565b61203f565b6040516108d9919061340b565b60405180910390f35b3480156108ee57600080fd5b50610909600480360381019061090491906137dd565b61206a565b005b60007f80ac58cd000000000000000000000000000000000000000000000000000000007bffffffffffffffffffffffffffffffffffffffffffffffffffffffff1916827bffffffffffffffffffffffffffffffffffffffffffffffffffffffff191614806109d657507f5b5e139f000000000000000000000000000000000000000000000000000000007bffffffffffffffffffffffffffffffffffffffffffffffffffffffff1916827bffffffffffffffffffffffffffffffffffffffffffffffffffffffff1916145b806109e657506109e582612141565b5b9050919050565b6060600080546109fc90613d59565b80601f0160208091040260200160405190810160405280929190818152602001828054610a2890613d59565b8015610a755780601f10610a4a57610100808354040283529160200191610a75565b820191906000526020600020905b815481529060010190602001808311610a5857829003601f168201915b5050505050905090565b6000610a8a826121ab565b610ac9576040517f08c379a0000000000000000000000000000000000000000000000000000000008152600401610ac090613dfd565b60405180910390fd5b6004600083815260200190815260200160002060009054906101000a900473ffffffffffffffffffffffffffffffffffffffff169050919050565b600060086000600b84604051610b1a9190613e59565b908152602001604051809103902054815260200190815260200160002060009054906101000a900473ffffffffffffffffffffffffffffffffffffffff169050919050565b6000610b6a82611225565b90508073ffffffffffffffffffffffffffffffffffffffff168373ffffffffffffffffffffffffffffffffffffffff161415610bdb576040517f08c379a0000000000000000000000000000000000000000000000000000000008152600401610bd290613ee2565b60405180910390fd5b8073ffffffffffffffffffffffffffffffffffffffff16610bfa612217565b73ffffffffffffffffffffffffffffffffffffffff161480610c295750610c2881610c23612217565b611db3565b5b610c68576040517f08c379a0000000000000000000000000000000000000000000000000000000008152600401610c5f90613f74565b60405180910390fd5b610c72838361221f565b505050565b600080600a60003273ffffffffffffffffffffffffffffffffffffffff1673ffffffffffffffffffffffffffffffffffffffff168152602001908152602001600020541415905090565b610cd2610ccc612217565b826122d8565b610d11576040517f08c379a0000000000000000000000000000000000000000000000000000000008152600401610d0890614006565b60405180910390fd5b610d1c8383836123b6565b505050565b60086020528060005260406000206000915054906101000a900473ffffffffffffffffffffffffffffffffffffffff1681565b610d5c612217565b73ffffffffffffffffffffffffffffffffffffffff16610d7a61150f565b73ffffffffffffffffffffffffffffffffffffffff1614610dd0576040517f08c379a0000000000000000000000000000000000000000000000000000000008152600401610dc790614072565b60405180910390fd5b6001600f60008373ffffffffffffffffffffffffffffffffffffffff1673ffffffffffffffffffffffffffffffffffffffff16815260200190815260200160002060006101000a81548160ff02191690831515021790555050565b60011515600f60003373ffffffffffffffffffffffffffffffffffffffff1673ffffffffffffffffffffffffffffffffffffffff16815260200190815260200160002060009054906101000a900460ff16151514610e8857600080fd5b6000600e8681548110610e9e57610e9d614092565b5b90600052602060002090600702019050610ec585826002015461261290919063ffffffff16565b8160020181905550610ee484826003015461261290919063ffffffff16565b8160030181905550610f0383826004015461261290919063ffffffff16565b8160040181905550610f2282826005015461261290919063ffffffff16565b8160050181905550505050505050565b60096020528060005260406000206000915090508054610f5190613d59565b80601f0160208091040260200160405190810160405280929190818152602001828054610f7d90613d59565b8015610fca5780601f10610f9f57610100808354040283529160200191610fca565b820191906000526020600020905b815481529060010190602001808311610fad57829003601f168201915b505050505081565b610fda612217565b73ffffffffffffffffffffffffffffffffffffffff16610ff861150f565b73ffffffffffffffffffffffffffffffffffffffff161461104e576040517f08c379a000000000000000000000000000000000000000000000000000000000815260040161104590614072565b60405180910390fd5b600061105861150f565b90508073ffffffffffffffffffffffffffffffffffffffff166108fc479081150290604051600060405180830381858888f193505050501580156110a0573d6000803e3d6000fd5b5050565b6110bf83838360405180602001604052806000815250611a99565b505050565b600115156110d0610c77565b151514611112576040517f08c379a00000000000000000000000000000000000000000000000000000000081526004016111099061410d565b60405180910390fd5b8161111c81611225565b73ffffffffffffffffffffffffffffffffffffffff163373ffffffffffffffffffffffffffffffffffffffff161461115357600080fd5b81600061115f82612628565b9050600d811080156111715750600281115b6111b0576040517f08c379a00000000000000000000000000000000000000000000000000000000081526004016111a79061419f565b60405180910390fd5b6000600e86815481106111c6576111c5614092565b5b90600052602060002090600702019050848160060190805190602001906111ee929190613277565b50505050505050565b600b818051602081018201805184825260208301602085012081835280955050505050506000915090505481565b6000806002600084815260200190815260200160002060009054906101000a900473ffffffffffffffffffffffffffffffffffffffff169050600073ffffffffffffffffffffffffffffffffffffffff168173ffffffffffffffffffffffffffffffffffffffff1614156112ce576040517f08c379a00000000000000000000000000000000000000000000000000000000081526004016112c590614231565b60405180910390fd5b80915050919050565b606060096000600a60003373ffffffffffffffffffffffffffffffffffffffff1673ffffffffffffffffffffffffffffffffffffffff168152602001908152602001600020548152602001908152602001600020805461133690613d59565b80601f016020809104026020016040519081016040528092919081815260200182805461136290613d59565b80156113af5780601f10611384576101008083540402835291602001916113af565b820191906000526020600020905b81548152906001019060200180831161139257829003601f168201915b5050505050905090565b600060016007546113ca9190614280565b905090565b60008073ffffffffffffffffffffffffffffffffffffffff168273ffffffffffffffffffffffffffffffffffffffff161415611440576040517f08c379a000000000000000000000000000000000000000000000000000000000815260040161143790614326565b60405180910390fd5b600360008373ffffffffffffffffffffffffffffffffffffffff1673ffffffffffffffffffffffffffffffffffffffff168152602001908152602001600020549050919050565b61148f612217565b73ffffffffffffffffffffffffffffffffffffffff166114ad61150f565b73ffffffffffffffffffffffffffffffffffffffff1614611503576040517f08c379a00000000000000000000000000000000000000000000000000000000081526004016114fa90614072565b60405180910390fd5b61150d60006128e5565b565b6000600660009054906101000a900473ffffffffffffffffffffffffffffffffffffffff16905090565b60606001805461154890613d59565b80601f016020809104026020016040519081016040528092919081815260200182805461157490613d59565b80156115c15780601f10611596576101008083540402835291602001916115c1565b820191906000526020600020905b8154815290600101906020018083116115a457829003601f168201915b5050505050905090565b6060600e805480602002602001604051908101604052809291908181526020016000905b828210156116ef57838290600052602060002090600702016040518060e001604052908160008201548152602001600182015481526020016002820154815260200160038201548152602001600482015481526020016005820154815260200160068201805461165e90613d59565b80601f016020809104026020016040519081016040528092919081815260200182805461168a90613d59565b80156116d75780601f106116ac576101008083540402835291602001916116d7565b820191906000526020600020905b8154815290600101906020018083116116ba57829003601f168201915b505050505081525050815260200190600101906115ef565b50505050905090565b60011515611704610c77565b151514611746576040517f08c379a000000000000000000000000000000000000000000000000000000000815260040161173d9061410d565b60405180910390fd5b6000611753600d546129ab565b905061175e816129fe565b50565b61177361176c612217565b8383612b4f565b5050565b600e818154811061178757600080fd5b90600052602060002090600702016000915090508060000154908060010154908060020154908060030154908060040154908060050154908060060180546117ce90613d59565b80601f01602080910402602001604051908101604052809291908181526020018280546117fa90613d59565b80156118475780601f1061181c57610100808354040283529160200191611847565b820191906000526020600020905b81548152906001019060200180831161182a57829003601f168201915b5050505050905087565b806000600b826040516118649190613e59565b908152602001604051809103902054146118b3576040517f08c379a00000000000000000000000000000000000000000000000000000000081526004016118aa90614392565b60405180910390fd5b6000600a60003373ffffffffffffffffffffffffffffffffffffffff1673ffffffffffffffffffffffffffffffffffffffff1681526020019081526020016000205414611935576040517f08c379a000000000000000000000000000000000000000000000000000000000815260040161192c906143fe565b60405180910390fd5b81600061194182612628565b9050600d811080156119535750600281115b611992576040517f08c379a000000000000000000000000000000000000000000000000000000000815260040161198990614490565b60405180910390fd5b600754600a60003373ffffffffffffffffffffffffffffffffffffffff1673ffffffffffffffffffffffffffffffffffffffff168152602001908152602001600020819055503360086000600754815260200190815260200160002060006101000a81548173ffffffffffffffffffffffffffffffffffffffff021916908373ffffffffffffffffffffffffffffffffffffffff160217905550836009600060075481526020019081526020016000209080519060200190611a55929190613277565b50600754600b85604051611a699190613e59565b90815260200160405180910390208190555060076000815480929190611a8e906144b0565b919050555050505050565b611aaa611aa4612217565b836122d8565b611ae9576040517f08c379a0000000000000000000000000000000000000000000000000000000008152600401611ae090614006565b60405180910390fd5b611af584848484612cbc565b50505050565b6060611b06826121ab565b611b45576040517f08c379a0000000000000000000000000000000000000000000000000000000008152600401611b3c9061456b565b60405180910390fd5b6000611b4f612d18565b90506000815111611b6f5760405180602001604052806000815250611b9a565b80611b7984612d2f565b604051602001611b8a92919061458b565b6040516020818303038152906040525b915050919050565b600a6020528060005260406000206000915090505481565b60606000611bc7836113cf565b67ffffffffffffffff811115611be057611bdf6135aa565b5b604051908082528060200260200182016040528015611c1957816020015b611c066132fd565b815260200190600190039081611bfe5790505b509050600080600090505b600e80549050811015611da8578473ffffffffffffffffffffffffffffffffffffffff16611c5182611225565b73ffffffffffffffffffffffffffffffffffffffff161415611d9557600e8181548110611c8157611c80614092565b5b90600052602060002090600702016040518060e0016040529081600082015481526020016001820154815260200160028201548152602001600382015481526020016004820154815260200160058201548152602001600682018054611ce690613d59565b80601f0160208091040260200160405190810160405280929190818152602001828054611d1290613d59565b8015611d5f5780601f10611d3457610100808354040283529160200191611d5f565b820191906000526020600020905b815481529060010190602001808311611d4257829003601f168201915b505050505081525050838381518110611d7b57611d7a614092565b5b60200260200101819052508180611d91906144b0565b9250505b8080611da0906144b0565b915050611c24565b508192505050919050565b6000600560008473ffffffffffffffffffffffffffffffffffffffff1673ffffffffffffffffffffffffffffffffffffffff16815260200190815260200160002060008373ffffffffffffffffffffffffffffffffffffffff1673ffffffffffffffffffffffffffffffffffffffff16815260200190815260200160002060009054906101000a900460ff16905092915050565b606060096000600a60008573ffffffffffffffffffffffffffffffffffffffff1673ffffffffffffffffffffffffffffffffffffffff1681526020019081526020016000205481526020019081526020016000208054611ea690613d59565b80601f0160208091040260200160405190810160405280929190818152602001828054611ed290613d59565b8015611f1f5780601f10611ef457610100808354040283529160200191611f1f565b820191906000526020600020905b815481529060010190602001808311611f0257829003601f168201915b50505050509050919050565b600080611f366112d7565b9050611f4181612628565b91505090565b611f4f612217565b73ffffffffffffffffffffffffffffffffffffffff16611f6d61150f565b73ffffffffffffffffffffffffffffffffffffffff1614611fc3576040517f08c379a0000000000000000000000000000000000000000000000000000000008152600401611fba90614072565b60405180910390fd5b600073ffffffffffffffffffffffffffffffffffffffff168173ffffffffffffffffffffffffffffffffffffffff161415612033576040517f08c379a000000000000000000000000000000000000000000000000000000000815260040161202a90614621565b60405180910390fd5b61203c816128e5565b50565b600080600b836040516120529190613e59565b90815260200160405180910390205414159050919050565b612072612217565b73ffffffffffffffffffffffffffffffffffffffff1661209061150f565b73ffffffffffffffffffffffffffffffffffffffff16146120e6576040517f08c379a00000000000000000000000000000000000000000000000000000000081526004016120dd90614072565b60405180910390fd5b6000600f60008373ffffffffffffffffffffffffffffffffffffffff1673ffffffffffffffffffffffffffffffffffffffff16815260200190815260200160002060006101000a81548160ff02191690831515021790555050565b60007f01ffc9a7000000000000000000000000000000000000000000000000000000007bffffffffffffffffffffffffffffffffffffffffffffffffffffffff1916827bffffffffffffffffffffffffffffffffffffffffffffffffffffffff1916149050919050565b60008073ffffffffffffffffffffffffffffffffffffffff166002600084815260200190815260200160002060009054906101000a900473ffffffffffffffffffffffffffffffffffffffff1673ffffffffffffffffffffffffffffffffffffffff1614159050919050565b600033905090565b816004600083815260200190815260200160002060006101000a81548173ffffffffffffffffffffffffffffffffffffffff021916908373ffffffffffffffffffffffffffffffffffffffff160217905550808273ffffffffffffffffffffffffffffffffffffffff1661229283611225565b73ffffffffffffffffffffffffffffffffffffffff167f8c5be1e5ebec7d5bd14f71427d1e84f3dd0314c0f7b2291e5b200ac8c7c3b92560405160405180910390a45050565b60006122e3826121ab565b612322576040517f08c379a0000000000000000000000000000000000000000000000000000000008152600401612319906146b3565b60405180910390fd5b600061232d83611225565b90508073ffffffffffffffffffffffffffffffffffffffff168473ffffffffffffffffffffffffffffffffffffffff16148061239c57508373ffffffffffffffffffffffffffffffffffffffff1661238484610a7f565b73ffffffffffffffffffffffffffffffffffffffff16145b806123ad57506123ac8185611db3565b5b91505092915050565b8273ffffffffffffffffffffffffffffffffffffffff166123d682611225565b73ffffffffffffffffffffffffffffffffffffffff161461242c576040517f08c379a000000000000000000000000000000000000000000000000000000000815260040161242390614745565b60405180910390fd5b600073ffffffffffffffffffffffffffffffffffffffff168273ffffffffffffffffffffffffffffffffffffffff16141561249c576040517f08c379a0000000000000000000000000000000000000000000000000000000008152600401612493906147d7565b60405180910390fd5b6124a7838383612e90565b6124b260008261221f565b6001600360008573ffffffffffffffffffffffffffffffffffffffff1673ffffffffffffffffffffffffffffffffffffffff16815260200190815260200160002060008282546125029190614280565b925050819055506001600360008473ffffffffffffffffffffffffffffffffffffffff1673ffffffffffffffffffffffffffffffffffffffff168152602001908152602001600020600082825461255991906147f7565b92505081905550816002600083815260200190815260200160002060006101000a81548173ffffffffffffffffffffffffffffffffffffffff021916908373ffffffffffffffffffffffffffffffffffffffff160217905550808273ffffffffffffffffffffffffffffffffffffffff168473ffffffffffffffffffffffffffffffffffffffff167fddf252ad1be2c89b69c2b068fc378daa952ba7f163c4a11628f55a4df523b3ef60405160405180910390a4505050565b6000818361262091906147f7565b905092915050565b6000806000905060008390505b80518210156128de57600060f81b600782848151811061265857612657614092565b5b602001015160f81c60f81b7effffffffffffffffffffffffffffffffffffffffffffffffffffffffffffff1916901c7effffffffffffffffffffffffffffffffffffffffffffffffffffffffffffff191614156126c3576001826126bc91906147f7565b91506128cb565b600660f81b7effffffffffffffffffffffffffffffffffffffffffffffffffffffffffffff191660058284815181106126ff576126fe614092565b5b602001015160f81c60f81b7effffffffffffffffffffffffffffffffffffffffffffffffffffffffffffff1916901c7effffffffffffffffffffffffffffffffffffffffffffffffffffffffffffff1916141561276a5760028261276391906147f7565b91506128ca565b600e60f81b7effffffffffffffffffffffffffffffffffffffffffffffffffffffffffffff191660048284815181106127a6576127a5614092565b5b602001015160f81c60f81b7effffffffffffffffffffffffffffffffffffffffffffffffffffffffffffff1916901c7effffffffffffffffffffffffffffffffffffffffffffffffffffffffffffff191614156128115760038261280a91906147f7565b91506128c9565b601e60f81b7effffffffffffffffffffffffffffffffffffffffffffffffffffffffffffff1916600382848151811061284d5761284c614092565b5b602001015160f81c60f81b7effffffffffffffffffffffffffffffffffffffffffffffffffffffffffffff1916901c7effffffffffffffffffffffffffffffffffffffffffffffffffffffffffffff191614156128b8576004826128b191906147f7565b91506128c8565b6001826128c591906147f7565b91505b5b5b5b82806128d6906144b0565b935050612635565b5050919050565b6000600660009054906101000a900473ffffffffffffffffffffffffffffffffffffffff16905081600660006101000a81548173ffffffffffffffffffffffffffffffffffffffff021916908373ffffffffffffffffffffffffffffffffffffffff1602179055508173ffffffffffffffffffffffffffffffffffffffff168173ffffffffffffffffffffffffffffffffffffffff167f8be0079c531659141344cd1fd0a4f28419497f9722a3daafe3b4186f6b6457e060405160405180910390a35050565b60008082426129ba91906147f7565b6040516020016129ca919061486e565b6040516020818303038152906040528051906020012060001c905064e8d4a51000816129f691906148b8565b915050919050565b60006040518060e00160405280600d54815260200183815260200160148152602001600a8152602001600a8152602001600a8152602001604051806020016040528060008152508152509050600e819080600181540180825580915050600190039060005260206000209060070201600090919091909150600082015181600001556020820151816001015560408201518160020155606082015181600301556080820151816004015560a0820151816005015560c0820151816006019080519060200190612ace929190613277565b505050612add33600d54612e95565b3373ffffffffffffffffffffffffffffffffffffffff167fad1c7ab5bfbe86a51764200b1532f3893b41563e78abe6d6eac4bbd987f38c68600d5484604051612b279291906148e9565b60405180910390a2612b456001600d5461261290919063ffffffff16565b600d819055505050565b8173ffffffffffffffffffffffffffffffffffffffff168373ffffffffffffffffffffffffffffffffffffffff161415612bbe576040517f08c379a0000000000000000000000000000000000000000000000000000000008152600401612bb59061495e565b60405180910390fd5b80600560008573ffffffffffffffffffffffffffffffffffffffff1673ffffffffffffffffffffffffffffffffffffffff16815260200190815260200160002060008473ffffffffffffffffffffffffffffffffffffffff1673ffffffffffffffffffffffffffffffffffffffff16815260200190815260200160002060006101000a81548160ff0219169083151502179055508173ffffffffffffffffffffffffffffffffffffffff168373ffffffffffffffffffffffffffffffffffffffff167f17307eab39ab6107e8899845ad3d59bd9653f200f220920489ca2b5937696c3183604051612caf919061340b565b60405180910390a3505050565b612cc78484846123b6565b612cd384848484612eb3565b612d12576040517f08c379a0000000000000000000000000000000000000000000000000000000008152600401612d09906149f0565b60405180910390fd5b50505050565b606060405180602001604052806000815250905090565b60606000821415612d77576040518060400160405280600181526020017f30000000000000000000000000000000000000000000000000000000000000008152509050612e8b565b600082905060005b60008214612da9578080612d92906144b0565b915050600a82612da29190614a10565b9150612d7f565b60008167ffffffffffffffff811115612dc557612dc46135aa565b5b6040519080825280601f01601f191660200182016040528015612df75781602001600182028036833780820191505090505b5090505b60008514612e8457600182612e109190614280565b9150600a85612e1f91906148b8565b6030612e2b91906147f7565b60f81b818381518110612e4157612e40614092565b5b60200101907effffffffffffffffffffffffffffffffffffffffffffffffffffffffffffff1916908160001a905350600a85612e7d9190614a10565b9450612dfb565b8093505050505b919050565b505050565b612eaf82826040518060200160405280600081525061303b565b5050565b6000612ed48473ffffffffffffffffffffffffffffffffffffffff16613096565b1561302e578373ffffffffffffffffffffffffffffffffffffffff1663150b7a02612efd612217565b8786866040518563ffffffff1660e01b8152600401612f1f9493929190614a96565b6020604051808303816000875af1925050508015612f5b57506040513d601f19601f82011682018060405250810190612f589190614af7565b60015b612fde573d8060008114612f8b576040519150601f19603f3d011682016040523d82523d6000602084013e612f90565b606091505b50600081511415612fd6576040517f08c379a0000000000000000000000000000000000000000000000000000000008152600401612fcd906149f0565b60405180910390fd5b805181602001fd5b63150b7a0260e01b7bffffffffffffffffffffffffffffffffffffffffffffffffffffffff1916817bffffffffffffffffffffffffffffffffffffffffffffffffffffffff191614915050613033565b600190505b949350505050565b61304583836130a9565b6130526000848484612eb3565b613091576040517f08c379a0000000000000000000000000000000000000000000000000000000008152600401613088906149f0565b60405180910390fd5b505050565b600080823b905060008111915050919050565b600073ffffffffffffffffffffffffffffffffffffffff168273ffffffffffffffffffffffffffffffffffffffff161415613119576040517f08c379a000000000000000000000000000000000000000000000000000000000815260040161311090614b70565b60405180910390fd5b613122816121ab565b15613162576040517f08c379a000000000000000000000000000000000000000000000000000000000815260040161315990614bdc565b60405180910390fd5b61316e60008383612e90565b6001600360008473ffffffffffffffffffffffffffffffffffffffff1673ffffffffffffffffffffffffffffffffffffffff16815260200190815260200160002060008282546131be91906147f7565b92505081905550816002600083815260200190815260200160002060006101000a81548173ffffffffffffffffffffffffffffffffffffffff021916908373ffffffffffffffffffffffffffffffffffffffff160217905550808273ffffffffffffffffffffffffffffffffffffffff16600073ffffffffffffffffffffffffffffffffffffffff167fddf252ad1be2c89b69c2b068fc378daa952ba7f163c4a11628f55a4df523b3ef60405160405180910390a45050565b82805461328390613d59565b90600052602060002090601f0160209004810192826132a557600085556132ec565b82601f106132be57805160ff19168380011785556132ec565b828001600101855582156132ec579182015b828111156132eb5782518255916020019190600101906132d0565b5b5090506132f9919061333a565b5090565b6040518060e00160405280600081526020016000815260200160008152602001600081526020016000815260200160008152602001606081525090565b5b8082111561335357600081600090555060010161333b565b5090565b6000604051905090565b600080fd5b600080fd5b60007fffffffff0000000000000000000000000000000000000000000000000000000082169050919050565b6133a08161336b565b81146133ab57600080fd5b50565b6000813590506133bd81613397565b92915050565b6000602082840312156133d9576133d8613361565b5b60006133e7848285016133ae565b91505092915050565b60008115159050919050565b613405816133f0565b82525050565b600060208201905061342060008301846133fc565b92915050565b600081519050919050565b600082825260208201905092915050565b60005b83811015613460578082015181840152602081019050613445565b8381111561346f576000848401525b50505050565b6000601f19601f8301169050919050565b600061349182613426565b61349b8185613431565b93506134ab818560208601613442565b6134b481613475565b840191505092915050565b600060208201905081810360008301526134d98184613486565b905092915050565b6000819050919050565b6134f4816134e1565b81146134ff57600080fd5b50565b600081359050613511816134eb565b92915050565b60006020828403121561352d5761352c613361565b5b600061353b84828501613502565b91505092915050565b600073ffffffffffffffffffffffffffffffffffffffff82169050919050565b600061356f82613544565b9050919050565b61357f81613564565b82525050565b600060208201905061359a6000830184613576565b92915050565b600080fd5b600080fd5b7f4e487b7100000000000000000000000000000000000000000000000000000000600052604160045260246000fd5b6135e282613475565b810181811067ffffffffffffffff82111715613601576136006135aa565b5b80604052505050565b6000613614613357565b905061362082826135d9565b919050565b600067ffffffffffffffff8211156136405761363f6135aa565b5b61364982613475565b9050602081019050919050565b82818337600083830152505050565b600061367861367384613625565b61360a565b905082815260208101848484011115613694576136936135a5565b5b61369f848285613656565b509392505050565b600082601f8301126136bc576136bb6135a0565b5b81356136cc848260208601613665565b91505092915050565b6000602082840312156136eb576136ea613361565b5b600082013567ffffffffffffffff81111561370957613708613366565b5b613715848285016136a7565b91505092915050565b61372781613564565b811461373257600080fd5b50565b6000813590506137448161371e565b92915050565b6000806040838503121561376157613760613361565b5b600061376f85828601613735565b925050602061378085828601613502565b9150509250929050565b6000806000606084860312156137a3576137a2613361565b5b60006137b186828701613735565b93505060206137c286828701613735565b92505060406137d386828701613502565b9150509250925092565b6000602082840312156137f3576137f2613361565b5b600061380184828501613735565b91505092915050565b600080600080600060a0868803121561382657613825613361565b5b600061383488828901613502565b955050602061384588828901613502565b945050604061385688828901613502565b935050606061386788828901613502565b925050608061387888828901613502565b9150509295509295909350565b6000806040838503121561389c5761389b613361565b5b60006138aa85828601613502565b925050602083013567ffffffffffffffff8111156138cb576138ca613366565b5b6138d7858286016136a7565b9150509250929050565b6138ea816134e1565b82525050565b600060208201905061390560008301846138e1565b92915050565b600081519050919050565b600082825260208201905092915050565b6000819050602082019050919050565b613940816134e1565b82525050565b600082825260208201905092915050565b600061396282613426565b61396c8185613946565b935061397c818560208601613442565b61398581613475565b840191505092915050565b600060e0830160008301516139a86000860182613937565b5060208301516139bb6020860182613937565b5060408301516139ce6040860182613937565b5060608301516139e16060860182613937565b5060808301516139f46080860182613937565b5060a0830151613a0760a0860182613937565b5060c083015184820360c0860152613a1f8282613957565b9150508091505092915050565b6000613a388383613990565b905092915050565b6000602082019050919050565b6000613a588261390b565b613a628185613916565b935083602082028501613a7485613927565b8060005b85811015613ab05784840389528151613a918582613a2c565b9450613a9c83613a40565b925060208a01995050600181019050613a78565b50829750879550505050505092915050565b60006020820190508181036000830152613adc8184613a4d565b905092915050565b613aed816133f0565b8114613af857600080fd5b50565b600081359050613b0a81613ae4565b92915050565b60008060408385031215613b2757613b26613361565b5b6000613b3585828601613735565b9250506020613b4685828601613afb565b9150509250929050565b600060e082019050613b65600083018a6138e1565b613b7260208301896138e1565b613b7f60408301886138e1565b613b8c60608301876138e1565b613b9960808301866138e1565b613ba660a08301856138e1565b81810360c0830152613bb88184613486565b905098975050505050505050565b600067ffffffffffffffff821115613be157613be06135aa565b5b613bea82613475565b9050602081019050919050565b6000613c0a613c0584613bc6565b61360a565b905082815260208101848484011115613c2657613c256135a5565b5b613c31848285613656565b509392505050565b600082601f830112613c4e57613c4d6135a0565b5b8135613c5e848260208601613bf7565b91505092915050565b60008060008060808587031215613c8157613c80613361565b5b6000613c8f87828801613735565b9450506020613ca087828801613735565b9350506040613cb187828801613502565b925050606085013567ffffffffffffffff811115613cd257613cd1613366565b5b613cde87828801613c39565b91505092959194509250565b60008060408385031215613d0157613d00613361565b5b6000613d0f85828601613735565b9250506020613d2085828601613735565b9150509250929050565b7f4e487b7100000000000000000000000000000000000000000000000000000000600052602260045260246000fd5b60006002820490506001821680613d7157607f821691505b60208210811415613d8557613d84613d2a565b5b50919050565b7f4552433732313a20617070726f76656420717565727920666f72206e6f6e657860008201527f697374656e7420746f6b656e0000000000000000000000000000000000000000602082015250565b6000613de7602c83613431565b9150613df282613d8b565b604082019050919050565b60006020820190508181036000830152613e1681613dda565b9050919050565b600081905092915050565b6000613e3382613426565b613e3d8185613e1d565b9350613e4d818560208601613442565b80840191505092915050565b6000613e658284613e28565b915081905092915050565b7f4552433732313a20617070726f76616c20746f2063757272656e74206f776e6560008201527f7200000000000000000000000000000000000000000000000000000000000000602082015250565b6000613ecc602183613431565b9150613ed782613e70565b604082019050919050565b60006020820190508181036000830152613efb81613ebf565b9050919050565b7f4552433732313a20617070726f76652063616c6c6572206973206e6f74206f7760008201527f6e6572206e6f7220617070726f76656420666f7220616c6c0000000000000000602082015250565b6000613f5e603883613431565b9150613f6982613f02565b604082019050919050565b60006020820190508181036000830152613f8d81613f51565b9050919050565b7f4552433732313a207472616e736665722063616c6c6572206973206e6f74206f60008201527f776e6572206e6f7220617070726f766564000000000000000000000000000000602082015250565b6000613ff0603183613431565b9150613ffb82613f94565b604082019050919050565b6000602082019050818103600083015261401f81613fe3565b9050919050565b7f4f776e61626c653a2063616c6c6572206973206e6f7420746865206f776e6572600082015250565b600061405c602083613431565b915061406782614026565b602082019050919050565b6000602082019050818103600083015261408b8161404f565b9050919050565b7f4e487b7100000000000000000000000000000000000000000000000000000000600052603260045260246000fd5b7f596f7520646f6e2774206861766520616e206163636f756e7400000000000000600082015250565b60006140f7601983613431565b9150614102826140c1565b602082019050919050565b60006020820190508181036000830152614126816140ea565b9050919050565b7f546865206865726f206e616d65206d757374206265206265747765656e20332060008201527f616e642031322063686172616374657273000000000000000000000000000000602082015250565b6000614189603183613431565b91506141948261412d565b604082019050919050565b600060208201905081810360008301526141b88161417c565b9050919050565b7f4552433732313a206f776e657220717565727920666f72206e6f6e657869737460008201527f656e7420746f6b656e0000000000000000000000000000000000000000000000602082015250565b600061421b602983613431565b9150614226826141bf565b604082019050919050565b6000602082019050818103600083015261424a8161420e565b9050919050565b7f4e487b7100000000000000000000000000000000000000000000000000000000600052601160045260246000fd5b600061428b826134e1565b9150614296836134e1565b9250828210156142a9576142a8614251565b5b828203905092915050565b7f4552433732313a2062616c616e636520717565727920666f7220746865207a6560008201527f726f206164647265737300000000000000000000000000000000000000000000602082015250565b6000614310602a83613431565b915061431b826142b4565b604082019050919050565b6000602082019050818103600083015261433f81614303565b9050919050565b7f557365726e616d652069732074616b656e000000000000000000000000000000600082015250565b600061437c601183613431565b915061438782614346565b602082019050919050565b600060208201905081810360008301526143ab8161436f565b9050919050565b7f596f7520616c7265616479206861766520616e206163636f756e742100000000600082015250565b60006143e8601c83613431565b91506143f3826143b2565b602082019050919050565b60006020820190508181036000830152614417816143db565b9050919050565b7f557365726e616d65206d757374206265206265747765656e203320616e64203160008201527f3220636861726163746572730000000000000000000000000000000000000000602082015250565b600061447a602c83613431565b91506144858261441e565b604082019050919050565b600060208201905081810360008301526144a98161446d565b9050919050565b60006144bb826134e1565b91507fffffffffffffffffffffffffffffffffffffffffffffffffffffffffffffffff8214156144ee576144ed614251565b5b600182019050919050565b7f4552433732314d657461646174613a2055524920717565727920666f72206e6f60008201527f6e6578697374656e7420746f6b656e0000000000000000000000000000000000602082015250565b6000614555602f83613431565b9150614560826144f9565b604082019050919050565b6000602082019050818103600083015261458481614548565b9050919050565b60006145978285613e28565b91506145a38284613e28565b91508190509392505050565b7f4f776e61626c653a206e6577206f776e657220697320746865207a65726f206160008201527f6464726573730000000000000000000000000000000000000000000000000000602082015250565b600061460b602683613431565b9150614616826145af565b604082019050919050565b6000602082019050818103600083015261463a816145fe565b9050919050565b7f4552433732313a206f70657261746f7220717565727920666f72206e6f6e657860008201527f697374656e7420746f6b656e0000000000000000000000000000000000000000602082015250565b600061469d602c83613431565b91506146a882614641565b604082019050919050565b600060208201905081810360008301526146cc81614690565b9050919050565b7f4552433732313a207472616e73666572206f6620746f6b656e2074686174206960008201527f73206e6f74206f776e0000000000000000000000000000000000000000000000602082015250565b600061472f602983613431565b915061473a826146d3565b604082019050919050565b6000602082019050818103600083015261475e81614722565b9050919050565b7f4552433732313a207472616e7366657220746f20746865207a65726f2061646460008201527f7265737300000000000000000000000000000000000000000000000000000000602082015250565b60006147c1602483613431565b91506147cc82614765565b604082019050919050565b600060208201905081810360008301526147f0816147b4565b9050919050565b6000614802826134e1565b915061480d836134e1565b9250827fffffffffffffffffffffffffffffffffffffffffffffffffffffffffffffffff0382111561484257614841614251565b5b828201905092915050565b6000819050919050565b614868614863826134e1565b61484d565b82525050565b600061487a8284614857565b60208201915081905092915050565b7f4e487b7100000000000000000000000000000000000000000000000000000000600052601260045260246000fd5b60006148c3826134e1565b91506148ce836134e1565b9250826148de576148dd614889565b5b828206905092915050565b60006040820190506148fe60008301856138e1565b61490b60208301846138e1565b9392505050565b7f4552433732313a20617070726f766520746f2063616c6c657200000000000000600082015250565b6000614948601983613431565b915061495382614912565b602082019050919050565b600060208201905081810360008301526149778161493b565b9050919050565b7f4552433732313a207472616e7366657220746f206e6f6e20455243373231526560008201527f63656976657220696d706c656d656e7465720000000000000000000000000000602082015250565b60006149da603283613431565b91506149e58261497e565b604082019050919050565b60006020820190508181036000830152614a09816149cd565b9050919050565b6000614a1b826134e1565b9150614a26836134e1565b925082614a3657614a35614889565b5b828204905092915050565b600081519050919050565b600082825260208201905092915050565b6000614a6882614a41565b614a728185614a4c565b9350614a82818560208601613442565b614a8b81613475565b840191505092915050565b6000608082019050614aab6000830187613576565b614ab86020830186613576565b614ac560408301856138e1565b8181036060830152614ad78184614a5d565b905095945050505050565b600081519050614af181613397565b92915050565b600060208284031215614b0d57614b0c613361565b5b6000614b1b84828501614ae2565b91505092915050565b7f4552433732313a206d696e7420746f20746865207a65726f2061646472657373600082015250565b6000614b5a602083613431565b9150614b6582614b24565b602082019050919050565b60006020820190508181036000830152614b8981614b4d565b9050919050565b7f4552433732313a20746f6b656e20616c7265616479206d696e74656400000000600082015250565b6000614bc6601c83613431565b9150614bd182614b90565b602082019050919050565b60006020820190508181036000830152614bf581614bb9565b905091905056fea2646970667358221220550c373860b347437c320e12c557363eabf0dd52a202d368e4d66a1b6156dfb064736f6c634300080a0033",
  "immutableReferences": {},
  "source": "// SPDX-License-Identifier: MIT\r\npragma solidity ^0.8.7;\r\n\r\nimport \"@openzeppelin/contracts/token/ERC721/ERC721.sol\";\r\nimport \"@openzeppelin/contracts/access/Ownable.sol\";\r\nimport \"@openzeppelin/contracts/utils/math/SafeMath.sol\";\r\nimport \"./IotaHeroAccount.sol\";\r\nimport \"./IotaHeroGameTokens.sol\";\r\n\r\ncontract IotaHeroFactory is ERC721, Ownable, IotaHeroAccount {\r\n    constructor() ERC721(\"IotaHero\", \"IH\") {}\r\n\r\n    using SafeMath for uint256;\r\n    address[] statManipulators;\r\n\r\n    uint256 heroIdCounter = 0;\r\n    struct Hero {\r\n        uint256 id;\r\n        uint256 dna;\r\n        uint256 constitution;\r\n        uint256 strength;\r\n        uint256 agility;\r\n        uint256 intelligence;\r\n        string name;\r\n    }\r\n\r\n    Hero[] public heroes;\r\n\r\n    mapping(address => bool) isStatManipulator;\r\n\r\n    modifier onlyStatManipulators() {\r\n        require(isStatManipulator[msg.sender] == true);\r\n        _;\r\n    }\r\n    modifier onlyOwnerOf(uint256 _heroId) {\r\n        require(msg.sender == ERC721.ownerOf(_heroId));\r\n        _;\r\n    }\r\n    modifier nameValidLength(string memory _name) {\r\n        uint256 stringLength = utfStringLength(_name);\r\n        require(\r\n            stringLength < 13 && stringLength > 2,\r\n            \"The hero name must be between 3 and 12 characters\"\r\n        );\r\n        _;\r\n    }\r\n\r\n    function addStatManipulator(address statManipulator) external onlyOwner {\r\n        isStatManipulator[statManipulator] = true;\r\n    }\r\n\r\n    function removeStatManipulator(address statManipulator) external onlyOwner {\r\n        isStatManipulator[statManipulator] = false;\r\n    }\r\n\r\n    function nameChange(uint256 _heroId, string memory _name)\r\n        public\r\n        hasAccount\r\n        onlyOwnerOf(_heroId)\r\n        nameValidLength(_name)\r\n    {\r\n        Hero storage hero = heroes[_heroId];\r\n        hero.name = _name;\r\n    }\r\n\r\n    function _pseudoRandom(uint256 nonce) internal view returns (uint256) {\r\n        uint256 psrand = uint256(\r\n            keccak256(abi.encodePacked(block.timestamp + nonce))\r\n        );\r\n        return psrand % 10**12;\r\n    }\r\n\r\n    event HeroMinted(address indexed owner, uint256 id, uint256 dna);\r\n\r\n    function _mintHero(uint256 _dna) internal {\r\n        Hero memory hero = Hero(heroIdCounter, _dna, 20, 10, 10, 10, \"\");\r\n        heroes.push(hero);\r\n        _safeMint(msg.sender, heroIdCounter);\r\n        emit HeroMinted(msg.sender, heroIdCounter, _dna);\r\n        heroIdCounter = heroIdCounter.add(1);\r\n    }\r\n\r\n    function spawnHero() external hasAccount {\r\n        uint256 dna = _pseudoRandom(heroIdCounter);\r\n        _mintHero(dna);\r\n    }\r\n\r\n    function skillUp(\r\n        uint256 _heroId,\r\n        uint256 cons,\r\n        uint256 str,\r\n        uint256 agi,\r\n        uint256 intel\r\n    ) external onlyStatManipulators {\r\n        Hero storage hero = heroes[_heroId];\r\n        hero.constitution = hero.constitution.add(cons);\r\n        hero.strength = hero.strength.add(str);\r\n        hero.agility = hero.agility.add(agi);\r\n        hero.intelligence = hero.intelligence.add(intel);\r\n    }\r\n\r\n    function withdraw() external payable onlyOwner {\r\n        address payable _owner = payable(owner());\r\n        _owner.transfer(address(this).balance);\r\n    }\r\n\r\n    function getHeroes() external view returns (Hero[] memory) {\r\n        return heroes;\r\n    }\r\n\r\n    function getOwnerHeroes(address _owner)\r\n        external\r\n        view\r\n        returns (Hero[] memory)\r\n    {\r\n        Hero[] memory ownedHeroes = new Hero[](balanceOf(_owner));\r\n        uint256 c;\r\n        for (uint256 i = 0; i < heroes.length; i++) {\r\n            if (ownerOf(i) == _owner) {\r\n                ownedHeroes[c] = heroes[i];\r\n                c++;\r\n            }\r\n        }\r\n        return ownedHeroes;\r\n    }\r\n}\r\n",
  "sourcePath": "C:\\Users\\creld\\source\\repos\\IotaHeroesAzure\\smartcontracts\\contracts\\IotaHeroFactory.sol",
  "compiler": {
    "name": "solc",
    "version": "0.8.10+commit.fc410830.Emscripten.clang"
  },
  "schemaVersion": "3.4.4",
  "updatedAt": "2022-04-23T19:54:07.028Z",
  "networkType": "ethereum",
  "devdoc": {
    "kind": "dev",
    "methods": {
      "approve(address,uint256)": {
        "details": "See {IERC721-approve}."
      },
      "balanceOf(address)": {
        "details": "See {IERC721-balanceOf}."
      },
      "getApproved(uint256)": {
        "details": "See {IERC721-getApproved}."
      },
      "isApprovedForAll(address,address)": {
        "details": "See {IERC721-isApprovedForAll}."
      },
      "name()": {
        "details": "See {IERC721Metadata-name}."
      },
      "owner()": {
        "details": "Returns the address of the current owner."
      },
      "ownerOf(uint256)": {
        "details": "See {IERC721-ownerOf}."
      },
      "renounceOwnership()": {
        "details": "Leaves the contract without owner. It will not be possible to call `onlyOwner` functions anymore. Can only be called by the current owner. NOTE: Renouncing ownership will leave the contract without an owner, thereby removing any functionality that is only available to the owner."
      },
      "safeTransferFrom(address,address,uint256)": {
        "details": "See {IERC721-safeTransferFrom}."
      },
      "safeTransferFrom(address,address,uint256,bytes)": {
        "details": "See {IERC721-safeTransferFrom}."
      },
      "setApprovalForAll(address,bool)": {
        "details": "See {IERC721-setApprovalForAll}."
      },
      "supportsInterface(bytes4)": {
        "details": "See {IERC165-supportsInterface}."
      },
      "symbol()": {
        "details": "See {IERC721Metadata-symbol}."
      },
      "tokenURI(uint256)": {
        "details": "See {IERC721Metadata-tokenURI}."
      },
      "transferFrom(address,address,uint256)": {
        "details": "See {IERC721-transferFrom}."
      },
      "transferOwnership(address)": {
        "details": "Transfers ownership of the contract to a new account (`newOwner`). Can only be called by the current owner."
      }
    },
    "version": 1
  },
  "userdoc": {
    "kind": "user",
    "methods": {},
    "version": 1
  }
}