{
  "contractName": "IotaHeroFactory",
  "abi": [
    {
      "inputs": [],
      "stateMutability": "nonpayable",
      "type": "constructor"
    },
    {
      "anonymous": false,
      "inputs": [
        {
          "indexed": true,
          "internalType": "address",
          "name": "owner",
          "type": "address"
        },
        {
          "indexed": true,
          "internalType": "address",
          "name": "approved",
          "type": "address"
        },
        {
          "indexed": true,
          "internalType": "uint256",
          "name": "tokenId",
          "type": "uint256"
        }
      ],
      "name": "Approval",
      "type": "event"
    },
    {
      "anonymous": false,
      "inputs": [
        {
          "indexed": true,
          "internalType": "address",
          "name": "owner",
          "type": "address"
        },
        {
          "indexed": true,
          "internalType": "address",
          "name": "operator",
          "type": "address"
        },
        {
          "indexed": false,
          "internalType": "bool",
          "name": "approved",
          "type": "bool"
        }
      ],
      "name": "ApprovalForAll",
      "type": "event"
    },
    {
      "anonymous": false,
      "inputs": [
        {
          "indexed": true,
          "internalType": "address",
          "name": "owner",
          "type": "address"
        },
        {
          "indexed": false,
          "internalType": "uint256",
          "name": "id",
          "type": "uint256"
        },
        {
          "indexed": false,
          "internalType": "uint256",
          "name": "dna",
          "type": "uint256"
        }
      ],
      "name": "HeroMinted",
      "type": "event"
    },
    {
      "anonymous": false,
      "inputs": [
        {
          "indexed": true,
          "internalType": "address",
          "name": "previousOwner",
          "type": "address"
        },
        {
          "indexed": true,
          "internalType": "address",
          "name": "newOwner",
          "type": "address"
        }
      ],
      "name": "OwnershipTransferred",
      "type": "event"
    },
    {
      "anonymous": false,
      "inputs": [
        {
          "indexed": true,
          "internalType": "address",
          "name": "from",
          "type": "address"
        },
        {
          "indexed": true,
          "internalType": "address",
          "name": "to",
          "type": "address"
        },
        {
          "indexed": true,
          "internalType": "uint256",
          "name": "tokenId",
          "type": "uint256"
        }
      ],
      "name": "Transfer",
      "type": "event"
    },
    {
      "inputs": [
        {
          "internalType": "address",
          "name": "",
          "type": "address"
        }
      ],
      "name": "addressToId",
      "outputs": [
        {
          "internalType": "uint256",
          "name": "",
          "type": "uint256"
        }
      ],
      "stateMutability": "view",
      "type": "function"
    },
    {
      "inputs": [
        {
          "internalType": "address",
          "name": "to",
          "type": "address"
        },
        {
          "internalType": "uint256",
          "name": "tokenId",
          "type": "uint256"
        }
      ],
      "name": "approve",
      "outputs": [],
      "stateMutability": "nonpayable",
      "type": "function"
    },
    {
      "inputs": [
        {
          "internalType": "address",
          "name": "owner",
          "type": "address"
        }
      ],
      "name": "balanceOf",
      "outputs": [
        {
          "internalType": "uint256",
          "name": "",
          "type": "uint256"
        }
      ],
      "stateMutability": "view",
      "type": "function"
    },
    {
      "inputs": [],
      "name": "currentUserCount",
      "outputs": [
        {
          "internalType": "uint256",
          "name": "",
          "type": "uint256"
        }
      ],
      "stateMutability": "view",
      "type": "function"
    },
    {
      "inputs": [
        {
          "internalType": "uint256",
          "name": "tokenId",
          "type": "uint256"
        }
      ],
      "name": "getApproved",
      "outputs": [
        {
          "internalType": "address",
          "name": "",
          "type": "address"
        }
      ],
      "stateMutability": "view",
      "type": "function"
    },
    {
      "inputs": [],
      "name": "getUsername",
      "outputs": [
        {
          "internalType": "string",
          "name": "",
          "type": "string"
        }
      ],
      "stateMutability": "view",
      "type": "function"
    },
    {
      "inputs": [
        {
          "internalType": "address",
          "name": "_address",
          "type": "address"
        }
      ],
      "name": "getUsernameByAddress",
      "outputs": [
        {
          "internalType": "string",
          "name": "",
          "type": "string"
        }
      ],
      "stateMutability": "view",
      "type": "function"
    },
    {
      "inputs": [],
      "name": "getUsernameLength",
      "outputs": [
        {
          "internalType": "uint256",
          "name": "",
          "type": "uint256"
        }
      ],
      "stateMutability": "view",
      "type": "function"
    },
    {
      "inputs": [
        {
          "internalType": "uint256",
          "name": "",
          "type": "uint256"
        }
      ],
      "name": "heroes",
      "outputs": [
        {
          "internalType": "uint256",
          "name": "id",
          "type": "uint256"
        },
        {
          "internalType": "uint256",
          "name": "dna",
          "type": "uint256"
        },
        {
          "internalType": "uint256",
          "name": "xp",
          "type": "uint256"
        },
        {
          "internalType": "uint256",
          "name": "mental",
          "type": "uint256"
        },
        {
          "internalType": "uint256",
          "name": "physical",
          "type": "uint256"
        },
        {
          "internalType": "uint16",
          "name": "level",
          "type": "uint16"
        },
        {
          "internalType": "uint256",
          "name": "restingTill",
          "type": "uint256"
        },
        {
          "internalType": "uint256",
          "name": "debug",
          "type": "uint256"
        },
        {
          "internalType": "string",
          "name": "name",
          "type": "string"
        }
      ],
      "stateMutability": "view",
      "type": "function"
    },
    {
      "inputs": [
        {
          "internalType": "uint256",
          "name": "",
          "type": "uint256"
        }
      ],
      "name": "idToAddress",
      "outputs": [
        {
          "internalType": "address",
          "name": "",
          "type": "address"
        }
      ],
      "stateMutability": "view",
      "type": "function"
    },
    {
      "inputs": [
        {
          "internalType": "uint256",
          "name": "",
          "type": "uint256"
        }
      ],
      "name": "idToUsername",
      "outputs": [
        {
          "internalType": "string",
          "name": "",
          "type": "string"
        }
      ],
      "stateMutability": "view",
      "type": "function"
    },
    {
      "inputs": [
        {
          "internalType": "address",
          "name": "owner",
          "type": "address"
        },
        {
          "internalType": "address",
          "name": "operator",
          "type": "address"
        }
      ],
      "name": "isApprovedForAll",
      "outputs": [
        {
          "internalType": "bool",
          "name": "",
          "type": "bool"
        }
      ],
      "stateMutability": "view",
      "type": "function"
    },
    {
      "inputs": [],
      "name": "isSignedUp",
      "outputs": [
        {
          "internalType": "bool",
          "name": "",
          "type": "bool"
        }
      ],
      "stateMutability": "view",
      "type": "function"
    },
    {
      "inputs": [],
      "name": "name",
      "outputs": [
        {
          "internalType": "string",
          "name": "",
          "type": "string"
        }
      ],
      "stateMutability": "view",
      "type": "function"
    },
    {
      "inputs": [],
      "name": "owner",
      "outputs": [
        {
          "internalType": "address",
          "name": "",
          "type": "address"
        }
      ],
      "stateMutability": "view",
      "type": "function"
    },
    {
      "inputs": [
        {
          "internalType": "uint256",
          "name": "tokenId",
          "type": "uint256"
        }
      ],
      "name": "ownerOf",
      "outputs": [
        {
          "internalType": "address",
          "name": "",
          "type": "address"
        }
      ],
      "stateMutability": "view",
      "type": "function"
    },
    {
      "inputs": [],
      "name": "renounceOwnership",
      "outputs": [],
      "stateMutability": "nonpayable",
      "type": "function"
    },
    {
      "inputs": [
        {
          "internalType": "address",
          "name": "from",
          "type": "address"
        },
        {
          "internalType": "address",
          "name": "to",
          "type": "address"
        },
        {
          "internalType": "uint256",
          "name": "tokenId",
          "type": "uint256"
        }
      ],
      "name": "safeTransferFrom",
      "outputs": [],
      "stateMutability": "nonpayable",
      "type": "function"
    },
    {
      "inputs": [
        {
          "internalType": "address",
          "name": "from",
          "type": "address"
        },
        {
          "internalType": "address",
          "name": "to",
          "type": "address"
        },
        {
          "internalType": "uint256",
          "name": "tokenId",
          "type": "uint256"
        },
        {
          "internalType": "bytes",
          "name": "_data",
          "type": "bytes"
        }
      ],
      "name": "safeTransferFrom",
      "outputs": [],
      "stateMutability": "nonpayable",
      "type": "function"
    },
    {
      "inputs": [
        {
          "internalType": "address",
          "name": "operator",
          "type": "address"
        },
        {
          "internalType": "bool",
          "name": "approved",
          "type": "bool"
        }
      ],
      "name": "setApprovalForAll",
      "outputs": [],
      "stateMutability": "nonpayable",
      "type": "function"
    },
    {
      "inputs": [
        {
          "internalType": "string",
          "name": "_username",
          "type": "string"
        }
      ],
      "name": "signUp",
      "outputs": [],
      "stateMutability": "nonpayable",
      "type": "function"
    },
    {
      "inputs": [
        {
          "internalType": "bytes4",
          "name": "interfaceId",
          "type": "bytes4"
        }
      ],
      "name": "supportsInterface",
      "outputs": [
        {
          "internalType": "bool",
          "name": "",
          "type": "bool"
        }
      ],
      "stateMutability": "view",
      "type": "function"
    },
    {
      "inputs": [],
      "name": "symbol",
      "outputs": [
        {
          "internalType": "string",
          "name": "",
          "type": "string"
        }
      ],
      "stateMutability": "view",
      "type": "function"
    },
    {
      "inputs": [
        {
          "internalType": "uint256",
          "name": "tokenId",
          "type": "uint256"
        }
      ],
      "name": "tokenURI",
      "outputs": [
        {
          "internalType": "string",
          "name": "",
          "type": "string"
        }
      ],
      "stateMutability": "view",
      "type": "function"
    },
    {
      "inputs": [
        {
          "internalType": "address",
          "name": "from",
          "type": "address"
        },
        {
          "internalType": "address",
          "name": "to",
          "type": "address"
        },
        {
          "internalType": "uint256",
          "name": "tokenId",
          "type": "uint256"
        }
      ],
      "name": "transferFrom",
      "outputs": [],
      "stateMutability": "nonpayable",
      "type": "function"
    },
    {
      "inputs": [
        {
          "internalType": "address",
          "name": "newOwner",
          "type": "address"
        }
      ],
      "name": "transferOwnership",
      "outputs": [],
      "stateMutability": "nonpayable",
      "type": "function"
    },
    {
      "inputs": [
        {
          "internalType": "string",
          "name": "",
          "type": "string"
        }
      ],
      "name": "usernameToId",
      "outputs": [
        {
          "internalType": "uint256",
          "name": "",
          "type": "uint256"
        }
      ],
      "stateMutability": "view",
      "type": "function"
    },
    {
      "inputs": [
        {
          "internalType": "uint256",
          "name": "_heroId",
          "type": "uint256"
        },
        {
          "internalType": "string",
          "name": "_name",
          "type": "string"
        }
      ],
      "name": "nameChange",
      "outputs": [],
      "stateMutability": "nonpayable",
      "type": "function"
    },
    {
      "inputs": [],
      "name": "spawnHero",
      "outputs": [],
      "stateMutability": "nonpayable",
      "type": "function"
    }
  ],
  "bytecode": "0x608060405260016007556000600c55601e600d553480156200002057600080fd5b506040518060400160405280600881526020017f496f74614865726f0000000000000000000000000000000000000000000000008152506040518060400160405280600281526020017f49480000000000000000000000000000000000000000000000000000000000008152508160009080519060200190620000a5929190620001b5565b508060019080519060200190620000be929190620001b5565b505050620000e1620000d5620000e760201b60201c565b620000ef60201b60201c565b620002ca565b600033905090565b6000600660009054906101000a900473ffffffffffffffffffffffffffffffffffffffff16905081600660006101000a81548173ffffffffffffffffffffffffffffffffffffffff021916908373ffffffffffffffffffffffffffffffffffffffff1602179055508173ffffffffffffffffffffffffffffffffffffffff168173ffffffffffffffffffffffffffffffffffffffff167f8be0079c531659141344cd1fd0a4f28419497f9722a3daafe3b4186f6b6457e060405160405180910390a35050565b828054620001c39062000294565b90600052602060002090601f016020900481019282620001e7576000855562000233565b82601f106200020257805160ff191683800117855562000233565b8280016001018555821562000233579182015b828111156200023257825182559160200191906001019062000215565b5b50905062000242919062000246565b5090565b5b808211156200026157600081600090555060010162000247565b5090565b7f4e487b7100000000000000000000000000000000000000000000000000000000600052602260045260246000fd5b60006002820490506001821680620002ad57607f821691505b60208210811415620002c457620002c362000265565b5b50919050565b61404580620002da6000396000f3fe608060405234801561001057600080fd5b50600436106101cf5760003560e01c806370a0823111610104578063adcfb4fc116100a2578063e985e9c511610071578063e985e9c514610548578063ed1a998d14610578578063f1c46606146105a8578063f2fde38b146105c6576101cf565b8063adcfb4fc146104b0578063b88d4fde146104cc578063c87b56dd146104e8578063cb0e0d7d14610518576101cf565b806395d89b41116100de57806395d89b41146104345780639f72ed7614610452578063a22cb4651461045c578063a8d4a03b14610478576101cf565b806370a08231146103dc578063715018a61461040c5780638da5cb5b14610416576101cf565b806339bdca1f116101715780635e1fe1db1161014b5780635e1fe1db146103405780636352211e14610370578063681f3e6d146103a05780636d0cac8e146103be576101cf565b806339bdca1f146102d857806342842e0e1461030857806348646f7b14610324576101cf565b8063095ea7b3116101ad578063095ea7b314610252578063191d1cb41461026e57806323b872dd1461028c5780632a2d0c47146102a8576101cf565b806301ffc9a7146101d457806306fdde0314610204578063081812fc14610222575b600080fd5b6101ee60048036038101906101e991906129ef565b6105e2565b6040516101fb9190612a37565b60405180910390f35b61020c6106c4565b6040516102199190612aeb565b60405180910390f35b61023c60048036038101906102379190612b43565b610756565b6040516102499190612bb1565b60405180910390f35b61026c60048036038101906102679190612bf8565b6107db565b005b6102766108f3565b6040516102839190612a37565b60405180910390f35b6102a660048036038101906102a19190612c38565b61093d565b005b6102c260048036038101906102bd9190612b43565b61099d565b6040516102cf9190612bb1565b60405180910390f35b6102f260048036038101906102ed9190612b43565b6109d0565b6040516102ff9190612aeb565b60405180910390f35b610322600480360381019061031d9190612c38565b610a70565b005b61033e60048036038101906103399190612dc0565b610a90565b005b61035a60048036038101906103559190612e1c565b610bf8565b6040516103679190612e74565b60405180910390f35b61038a60048036038101906103859190612b43565b610c26565b6040516103979190612bb1565b60405180910390f35b6103a8610cd8565b6040516103b59190612aeb565b60405180910390f35b6103c6610dba565b6040516103d39190612e74565b60405180910390f35b6103f660048036038101906103f19190612e8f565b610dd0565b6040516104039190612e74565b60405180910390f35b610414610e88565b005b61041e610f10565b60405161042b9190612bb1565b60405180910390f35b61043c610f3a565b6040516104499190612aeb565b60405180910390f35b61045a610fcc565b005b61047660048036038101906104719190612ee8565b61106a565b005b610492600480360381019061048d9190612b43565b611080565b6040516104a799989796959493929190612f45565b60405180910390f35b6104ca60048036038101906104c59190612e1c565b611174565b005b6104e660048036038101906104e1919061307a565b6113bc565b005b61050260048036038101906104fd9190612b43565b61141e565b60405161050f9190612aeb565b60405180910390f35b610532600480360381019061052d9190612e8f565b6114c5565b60405161053f9190612e74565b60405180910390f35b610562600480360381019061055d91906130fd565b6114dd565b60405161056f9190612a37565b60405180910390f35b610592600480360381019061058d9190612e8f565b611571565b60405161059f9190612aeb565b60405180910390f35b6105b0611655565b6040516105bd9190612e74565b60405180910390f35b6105e060048036038101906105db9190612e8f565b611671565b005b60007f80ac58cd000000000000000000000000000000000000000000000000000000007bffffffffffffffffffffffffffffffffffffffffffffffffffffffff1916827bffffffffffffffffffffffffffffffffffffffffffffffffffffffff191614806106ad57507f5b5e139f000000000000000000000000000000000000000000000000000000007bffffffffffffffffffffffffffffffffffffffffffffffffffffffff1916827bffffffffffffffffffffffffffffffffffffffffffffffffffffffff1916145b806106bd57506106bc82611769565b5b9050919050565b6060600080546106d39061316c565b80601f01602080910402602001604051908101604052809291908181526020018280546106ff9061316c565b801561074c5780601f106107215761010080835404028352916020019161074c565b820191906000526020600020905b81548152906001019060200180831161072f57829003601f168201915b5050505050905090565b6000610761826117d3565b6107a0576040517f08c379a000000000000000000000000000000000000000000000000000000000815260040161079790613210565b60405180910390fd5b6004600083815260200190815260200160002060009054906101000a900473ffffffffffffffffffffffffffffffffffffffff169050919050565b60006107e682610c26565b90508073ffffffffffffffffffffffffffffffffffffffff168373ffffffffffffffffffffffffffffffffffffffff161415610857576040517f08c379a000000000000000000000000000000000000000000000000000000000815260040161084e906132a2565b60405180910390fd5b8073ffffffffffffffffffffffffffffffffffffffff1661087661183f565b73ffffffffffffffffffffffffffffffffffffffff1614806108a557506108a48161089f61183f565b6114dd565b5b6108e4576040517f08c379a00000000000000000000000000000000000000000000000000000000081526004016108db90613334565b60405180910390fd5b6108ee8383611847565b505050565b600080600a60003373ffffffffffffffffffffffffffffffffffffffff1673ffffffffffffffffffffffffffffffffffffffff168152602001908152602001600020541415905090565b61094e61094861183f565b82611900565b61098d576040517f08c379a0000000000000000000000000000000000000000000000000000000008152600401610984906133c6565b60405180910390fd5b6109988383836119de565b505050565b60086020528060005260406000206000915054906101000a900473ffffffffffffffffffffffffffffffffffffffff1681565b600960205280600052604060002060009150905080546109ef9061316c565b80601f0160208091040260200160405190810160405280929190818152602001828054610a1b9061316c565b8015610a685780601f10610a3d57610100808354040283529160200191610a68565b820191906000526020600020905b815481529060010190602001808311610a4b57829003601f168201915b505050505081565b610a8b838383604051806020016040528060008152506113bc565b505050565b6000600a60003373ffffffffffffffffffffffffffffffffffffffff1673ffffffffffffffffffffffffffffffffffffffff168152602001908152602001600020541415610b13576040517f08c379a0000000000000000000000000000000000000000000000000000000008152600401610b0a90613432565b60405180910390fd5b81610b1d81610c26565b73ffffffffffffffffffffffffffffffffffffffff163373ffffffffffffffffffffffffffffffffffffffff1614610b5457600080fd5b816000610b6082611c3a565b9050600d81108015610b725750600281115b610bb1576040517f08c379a0000000000000000000000000000000000000000000000000000000008152600401610ba8906134c4565b60405180910390fd5b6000600e8681548110610bc757610bc66134e4565b5b9060005260206000209060090201905084816008019080519060200190610bef9291906128e0565b50505050505050565b600b818051602081018201805184825260208301602085012081835280955050505050506000915090505481565b6000806002600084815260200190815260200160002060009054906101000a900473ffffffffffffffffffffffffffffffffffffffff169050600073ffffffffffffffffffffffffffffffffffffffff168173ffffffffffffffffffffffffffffffffffffffff161415610ccf576040517f08c379a0000000000000000000000000000000000000000000000000000000008152600401610cc690613585565b60405180910390fd5b80915050919050565b606060096000600a60003373ffffffffffffffffffffffffffffffffffffffff1673ffffffffffffffffffffffffffffffffffffffff1681526020019081526020016000205481526020019081526020016000208054610d379061316c565b80601f0160208091040260200160405190810160405280929190818152602001828054610d639061316c565b8015610db05780601f10610d8557610100808354040283529160200191610db0565b820191906000526020600020905b815481529060010190602001808311610d9357829003601f168201915b5050505050905090565b60006001600754610dcb91906135d4565b905090565b60008073ffffffffffffffffffffffffffffffffffffffff168273ffffffffffffffffffffffffffffffffffffffff161415610e41576040517f08c379a0000000000000000000000000000000000000000000000000000000008152600401610e389061367a565b60405180910390fd5b600360008373ffffffffffffffffffffffffffffffffffffffff1673ffffffffffffffffffffffffffffffffffffffff168152602001908152602001600020549050919050565b610e9061183f565b73ffffffffffffffffffffffffffffffffffffffff16610eae610f10565b73ffffffffffffffffffffffffffffffffffffffff1614610f04576040517f08c379a0000000000000000000000000000000000000000000000000000000008152600401610efb906136e6565b60405180910390fd5b610f0e6000611ef7565b565b6000600660009054906101000a900473ffffffffffffffffffffffffffffffffffffffff16905090565b606060018054610f499061316c565b80601f0160208091040260200160405190810160405280929190818152602001828054610f759061316c565b8015610fc25780601f10610f9757610100808354040283529160200191610fc2565b820191906000526020600020905b815481529060010190602001808311610fa557829003601f168201915b5050505050905090565b6000600a60003373ffffffffffffffffffffffffffffffffffffffff1673ffffffffffffffffffffffffffffffffffffffff16815260200190815260200160002054141561104f576040517f08c379a000000000000000000000000000000000000000000000000000000000815260040161104690613432565b60405180910390fd5b600061105c600c54611fbd565b905061106781612010565b50565b61107c61107561183f565b83836121a2565b5050565b600e818154811061109057600080fd5b90600052602060002090600902016000915090508060000154908060010154908060020154908060030154908060040154908060050160009054906101000a900461ffff16908060060154908060070154908060080180546110f19061316c565b80601f016020809104026020016040519081016040528092919081815260200182805461111d9061316c565b801561116a5780601f1061113f5761010080835404028352916020019161116a565b820191906000526020600020905b81548152906001019060200180831161114d57829003601f168201915b5050505050905089565b806000600b826040516111879190613742565b908152602001604051809103902054146111d6576040517f08c379a00000000000000000000000000000000000000000000000000000000081526004016111cd906137a5565b60405180910390fd5b6000600a60003373ffffffffffffffffffffffffffffffffffffffff1673ffffffffffffffffffffffffffffffffffffffff1681526020019081526020016000205414611258576040517f08c379a000000000000000000000000000000000000000000000000000000000815260040161124f90613811565b60405180910390fd5b81600061126482611c3a565b9050600d811080156112765750600281115b6112b5576040517f08c379a00000000000000000000000000000000000000000000000000000000081526004016112ac906138a3565b60405180910390fd5b600754600a60003373ffffffffffffffffffffffffffffffffffffffff1673ffffffffffffffffffffffffffffffffffffffff168152602001908152602001600020819055503360086000600754815260200190815260200160002060006101000a81548173ffffffffffffffffffffffffffffffffffffffff021916908373ffffffffffffffffffffffffffffffffffffffff1602179055508360096000600754815260200190815260200160002090805190602001906113789291906128e0565b50600754600b8560405161138c9190613742565b908152602001604051809103902081905550600760008154809291906113b1906138c3565b919050555050505050565b6113cd6113c761183f565b83611900565b61140c576040517f08c379a0000000000000000000000000000000000000000000000000000000008152600401611403906133c6565b60405180910390fd5b6114188484848461230f565b50505050565b6060611429826117d3565b611468576040517f08c379a000000000000000000000000000000000000000000000000000000000815260040161145f9061397e565b60405180910390fd5b600061147261236b565b9050600081511161149257604051806020016040528060008152506114bd565b8061149c84612382565b6040516020016114ad92919061399e565b6040516020818303038152906040525b915050919050565b600a6020528060005260406000206000915090505481565b6000600560008473ffffffffffffffffffffffffffffffffffffffff1673ffffffffffffffffffffffffffffffffffffffff16815260200190815260200160002060008373ffffffffffffffffffffffffffffffffffffffff1673ffffffffffffffffffffffffffffffffffffffff16815260200190815260200160002060009054906101000a900460ff16905092915050565b606060096000600a60008573ffffffffffffffffffffffffffffffffffffffff1673ffffffffffffffffffffffffffffffffffffffff16815260200190815260200160002054815260200190815260200160002080546115d09061316c565b80601f01602080910402602001604051908101604052809291908181526020018280546115fc9061316c565b80156116495780601f1061161e57610100808354040283529160200191611649565b820191906000526020600020905b81548152906001019060200180831161162c57829003601f168201915b50505050509050919050565b600080611660610cd8565b905061166b81611c3a565b91505090565b61167961183f565b73ffffffffffffffffffffffffffffffffffffffff16611697610f10565b73ffffffffffffffffffffffffffffffffffffffff16146116ed576040517f08c379a00000000000000000000000000000000000000000000000000000000081526004016116e4906136e6565b60405180910390fd5b600073ffffffffffffffffffffffffffffffffffffffff168173ffffffffffffffffffffffffffffffffffffffff16141561175d576040517f08c379a000000000000000000000000000000000000000000000000000000000815260040161175490613a34565b60405180910390fd5b61176681611ef7565b50565b60007f01ffc9a7000000000000000000000000000000000000000000000000000000007bffffffffffffffffffffffffffffffffffffffffffffffffffffffff1916827bffffffffffffffffffffffffffffffffffffffffffffffffffffffff1916149050919050565b60008073ffffffffffffffffffffffffffffffffffffffff166002600084815260200190815260200160002060009054906101000a900473ffffffffffffffffffffffffffffffffffffffff1673ffffffffffffffffffffffffffffffffffffffff1614159050919050565b600033905090565b816004600083815260200190815260200160002060006101000a81548173ffffffffffffffffffffffffffffffffffffffff021916908373ffffffffffffffffffffffffffffffffffffffff160217905550808273ffffffffffffffffffffffffffffffffffffffff166118ba83610c26565b73ffffffffffffffffffffffffffffffffffffffff167f8c5be1e5ebec7d5bd14f71427d1e84f3dd0314c0f7b2291e5b200ac8c7c3b92560405160405180910390a45050565b600061190b826117d3565b61194a576040517f08c379a000000000000000000000000000000000000000000000000000000000815260040161194190613ac6565b60405180910390fd5b600061195583610c26565b90508073ffffffffffffffffffffffffffffffffffffffff168473ffffffffffffffffffffffffffffffffffffffff1614806119c457508373ffffffffffffffffffffffffffffffffffffffff166119ac84610756565b73ffffffffffffffffffffffffffffffffffffffff16145b806119d557506119d481856114dd565b5b91505092915050565b8273ffffffffffffffffffffffffffffffffffffffff166119fe82610c26565b73ffffffffffffffffffffffffffffffffffffffff1614611a54576040517f08c379a0000000000000000000000000000000000000000000000000000000008152600401611a4b90613b58565b60405180910390fd5b600073ffffffffffffffffffffffffffffffffffffffff168273ffffffffffffffffffffffffffffffffffffffff161415611ac4576040517f08c379a0000000000000000000000000000000000000000000000000000000008152600401611abb90613bea565b60405180910390fd5b611acf8383836124e3565b611ada600082611847565b6001600360008573ffffffffffffffffffffffffffffffffffffffff1673ffffffffffffffffffffffffffffffffffffffff1681526020019081526020016000206000828254611b2a91906135d4565b925050819055506001600360008473ffffffffffffffffffffffffffffffffffffffff1673ffffffffffffffffffffffffffffffffffffffff1681526020019081526020016000206000828254611b819190613c0a565b92505081905550816002600083815260200190815260200160002060006101000a81548173ffffffffffffffffffffffffffffffffffffffff021916908373ffffffffffffffffffffffffffffffffffffffff160217905550808273ffffffffffffffffffffffffffffffffffffffff168473ffffffffffffffffffffffffffffffffffffffff167fddf252ad1be2c89b69c2b068fc378daa952ba7f163c4a11628f55a4df523b3ef60405160405180910390a4505050565b6000806000905060008390505b8051821015611ef057600060f81b6007828481518110611c6a57611c696134e4565b5b602001015160f81c60f81b7effffffffffffffffffffffffffffffffffffffffffffffffffffffffffffff1916901c7effffffffffffffffffffffffffffffffffffffffffffffffffffffffffffff19161415611cd557600182611cce9190613c0a565b9150611edd565b600660f81b7effffffffffffffffffffffffffffffffffffffffffffffffffffffffffffff19166005828481518110611d1157611d106134e4565b5b602001015160f81c60f81b7effffffffffffffffffffffffffffffffffffffffffffffffffffffffffffff1916901c7effffffffffffffffffffffffffffffffffffffffffffffffffffffffffffff19161415611d7c57600282611d759190613c0a565b9150611edc565b600e60f81b7effffffffffffffffffffffffffffffffffffffffffffffffffffffffffffff19166004828481518110611db857611db76134e4565b5b602001015160f81c60f81b7effffffffffffffffffffffffffffffffffffffffffffffffffffffffffffff1916901c7effffffffffffffffffffffffffffffffffffffffffffffffffffffffffffff19161415611e2357600382611e1c9190613c0a565b9150611edb565b601e60f81b7effffffffffffffffffffffffffffffffffffffffffffffffffffffffffffff19166003828481518110611e5f57611e5e6134e4565b5b602001015160f81c60f81b7effffffffffffffffffffffffffffffffffffffffffffffffffffffffffffff1916901c7effffffffffffffffffffffffffffffffffffffffffffffffffffffffffffff19161415611eca57600482611ec39190613c0a565b9150611eda565b600182611ed79190613c0a565b91505b5b5b5b8280611ee8906138c3565b935050611c47565b5050919050565b6000600660009054906101000a900473ffffffffffffffffffffffffffffffffffffffff16905081600660006101000a81548173ffffffffffffffffffffffffffffffffffffffff021916908373ffffffffffffffffffffffffffffffffffffffff1602179055508173ffffffffffffffffffffffffffffffffffffffff168173ffffffffffffffffffffffffffffffffffffffff167f8be0079c531659141344cd1fd0a4f28419497f9722a3daafe3b4186f6b6457e060405160405180910390a35050565b6000808242611fcc9190613c0a565b604051602001611fdc9190613c81565b6040516020818303038152906040528051906020012060001c905064e8d4a51000816120089190613ccb565b915050919050565b6000604051806101200160405280600c5481526020018381526020016101f48152602001600a8152602001600a8152602001600161ffff16815260200142815260200160008152602001604051806020016040528060008152508152509050600e819080600181540180825580915050600190039060005260206000209060090201600090919091909150600082015181600001556020820151816001015560408201518160020155606082015181600301556080820151816004015560a08201518160050160006101000a81548161ffff021916908361ffff16021790555060c0820151816006015560e082015181600701556101008201518160080190805190602001906121219291906128e0565b50505061213033600c546124e8565b3373ffffffffffffffffffffffffffffffffffffffff167fad1c7ab5bfbe86a51764200b1532f3893b41563e78abe6d6eac4bbd987f38c68600c548460405161217a929190613cfc565b60405180910390a26121986001600c5461250690919063ffffffff16565b600c819055505050565b8173ffffffffffffffffffffffffffffffffffffffff168373ffffffffffffffffffffffffffffffffffffffff161415612211576040517f08c379a000000000000000000000000000000000000000000000000000000000815260040161220890613d71565b60405180910390fd5b80600560008573ffffffffffffffffffffffffffffffffffffffff1673ffffffffffffffffffffffffffffffffffffffff16815260200190815260200160002060008473ffffffffffffffffffffffffffffffffffffffff1673ffffffffffffffffffffffffffffffffffffffff16815260200190815260200160002060006101000a81548160ff0219169083151502179055508173ffffffffffffffffffffffffffffffffffffffff168373ffffffffffffffffffffffffffffffffffffffff167f17307eab39ab6107e8899845ad3d59bd9653f200f220920489ca2b5937696c31836040516123029190612a37565b60405180910390a3505050565b61231a8484846119de565b6123268484848461251c565b612365576040517f08c379a000000000000000000000000000000000000000000000000000000000815260040161235c90613e03565b60405180910390fd5b50505050565b606060405180602001604052806000815250905090565b606060008214156123ca576040518060400160405280600181526020017f300000000000000000000000000000000000000000000000000000000000000081525090506124de565b600082905060005b600082146123fc5780806123e5906138c3565b915050600a826123f59190613e23565b91506123d2565b60008167ffffffffffffffff81111561241857612417612c95565b5b6040519080825280601f01601f19166020018201604052801561244a5781602001600182028036833780820191505090505b5090505b600085146124d75760018261246391906135d4565b9150600a856124729190613ccb565b603061247e9190613c0a565b60f81b818381518110612494576124936134e4565b5b60200101907effffffffffffffffffffffffffffffffffffffffffffffffffffffffffffff1916908160001a905350600a856124d09190613e23565b945061244e565b8093505050505b919050565b505050565b6125028282604051806020016040528060008152506126a4565b5050565b600081836125149190613c0a565b905092915050565b600061253d8473ffffffffffffffffffffffffffffffffffffffff166126ff565b15612697578373ffffffffffffffffffffffffffffffffffffffff1663150b7a0261256661183f565b8786866040518563ffffffff1660e01b81526004016125889493929190613ea9565b6020604051808303816000875af19250505080156125c457506040513d601f19601f820116820180604052508101906125c19190613f0a565b60015b612647573d80600081146125f4576040519150601f19603f3d011682016040523d82523d6000602084013e6125f9565b606091505b5060008151141561263f576040517f08c379a000000000000000000000000000000000000000000000000000000000815260040161263690613e03565b60405180910390fd5b805181602001fd5b63150b7a0260e01b7bffffffffffffffffffffffffffffffffffffffffffffffffffffffff1916817bffffffffffffffffffffffffffffffffffffffffffffffffffffffff19161491505061269c565b600190505b949350505050565b6126ae8383612712565b6126bb600084848461251c565b6126fa576040517f08c379a00000000000000000000000000000000000000000000000000000000081526004016126f190613e03565b60405180910390fd5b505050565b600080823b905060008111915050919050565b600073ffffffffffffffffffffffffffffffffffffffff168273ffffffffffffffffffffffffffffffffffffffff161415612782576040517f08c379a000000000000000000000000000000000000000000000000000000000815260040161277990613f83565b60405180910390fd5b61278b816117d3565b156127cb576040517f08c379a00000000000000000000000000000000000000000000000000000000081526004016127c290613fef565b60405180910390fd5b6127d7600083836124e3565b6001600360008473ffffffffffffffffffffffffffffffffffffffff1673ffffffffffffffffffffffffffffffffffffffff16815260200190815260200160002060008282546128279190613c0a565b92505081905550816002600083815260200190815260200160002060006101000a81548173ffffffffffffffffffffffffffffffffffffffff021916908373ffffffffffffffffffffffffffffffffffffffff160217905550808273ffffffffffffffffffffffffffffffffffffffff16600073ffffffffffffffffffffffffffffffffffffffff167fddf252ad1be2c89b69c2b068fc378daa952ba7f163c4a11628f55a4df523b3ef60405160405180910390a45050565b8280546128ec9061316c565b90600052602060002090601f01602090048101928261290e5760008555612955565b82601f1061292757805160ff1916838001178555612955565b82800160010185558215612955579182015b82811115612954578251825591602001919060010190612939565b5b5090506129629190612966565b5090565b5b8082111561297f576000816000905550600101612967565b5090565b6000604051905090565b600080fd5b600080fd5b60007fffffffff0000000000000000000000000000000000000000000000000000000082169050919050565b6129cc81612997565b81146129d757600080fd5b50565b6000813590506129e9816129c3565b92915050565b600060208284031215612a0557612a0461298d565b5b6000612a13848285016129da565b91505092915050565b60008115159050919050565b612a3181612a1c565b82525050565b6000602082019050612a4c6000830184612a28565b92915050565b600081519050919050565b600082825260208201905092915050565b60005b83811015612a8c578082015181840152602081019050612a71565b83811115612a9b576000848401525b50505050565b6000601f19601f8301169050919050565b6000612abd82612a52565b612ac78185612a5d565b9350612ad7818560208601612a6e565b612ae081612aa1565b840191505092915050565b60006020820190508181036000830152612b058184612ab2565b905092915050565b6000819050919050565b612b2081612b0d565b8114612b2b57600080fd5b50565b600081359050612b3d81612b17565b92915050565b600060208284031215612b5957612b5861298d565b5b6000612b6784828501612b2e565b91505092915050565b600073ffffffffffffffffffffffffffffffffffffffff82169050919050565b6000612b9b82612b70565b9050919050565b612bab81612b90565b82525050565b6000602082019050612bc66000830184612ba2565b92915050565b612bd581612b90565b8114612be057600080fd5b50565b600081359050612bf281612bcc565b92915050565b60008060408385031215612c0f57612c0e61298d565b5b6000612c1d85828601612be3565b9250506020612c2e85828601612b2e565b9150509250929050565b600080600060608486031215612c5157612c5061298d565b5b6000612c5f86828701612be3565b9350506020612c7086828701612be3565b9250506040612c8186828701612b2e565b9150509250925092565b600080fd5b600080fd5b7f4e487b7100000000000000000000000000000000000000000000000000000000600052604160045260246000fd5b612ccd82612aa1565b810181811067ffffffffffffffff82111715612cec57612ceb612c95565b5b80604052505050565b6000612cff612983565b9050612d0b8282612cc4565b919050565b600067ffffffffffffffff821115612d2b57612d2a612c95565b5b612d3482612aa1565b9050602081019050919050565b82818337600083830152505050565b6000612d63612d5e84612d10565b612cf5565b905082815260208101848484011115612d7f57612d7e612c90565b5b612d8a848285612d41565b509392505050565b600082601f830112612da757612da6612c8b565b5b8135612db7848260208601612d50565b91505092915050565b60008060408385031215612dd757612dd661298d565b5b6000612de585828601612b2e565b925050602083013567ffffffffffffffff811115612e0657612e05612992565b5b612e1285828601612d92565b9150509250929050565b600060208284031215612e3257612e3161298d565b5b600082013567ffffffffffffffff811115612e5057612e4f612992565b5b612e5c84828501612d92565b91505092915050565b612e6e81612b0d565b82525050565b6000602082019050612e896000830184612e65565b92915050565b600060208284031215612ea557612ea461298d565b5b6000612eb384828501612be3565b91505092915050565b612ec581612a1c565b8114612ed057600080fd5b50565b600081359050612ee281612ebc565b92915050565b60008060408385031215612eff57612efe61298d565b5b6000612f0d85828601612be3565b9250506020612f1e85828601612ed3565b9150509250929050565b600061ffff82169050919050565b612f3f81612f28565b82525050565b600061012082019050612f5b600083018c612e65565b612f68602083018b612e65565b612f75604083018a612e65565b612f826060830189612e65565b612f8f6080830188612e65565b612f9c60a0830187612f36565b612fa960c0830186612e65565b612fb660e0830185612e65565b818103610100830152612fc98184612ab2565b90509a9950505050505050505050565b600067ffffffffffffffff821115612ff457612ff3612c95565b5b612ffd82612aa1565b9050602081019050919050565b600061301d61301884612fd9565b612cf5565b90508281526020810184848401111561303957613038612c90565b5b613044848285612d41565b509392505050565b600082601f83011261306157613060612c8b565b5b813561307184826020860161300a565b91505092915050565b600080600080608085870312156130945761309361298d565b5b60006130a287828801612be3565b94505060206130b387828801612be3565b93505060406130c487828801612b2e565b925050606085013567ffffffffffffffff8111156130e5576130e4612992565b5b6130f18782880161304c565b91505092959194509250565b600080604083850312156131145761311361298d565b5b600061312285828601612be3565b925050602061313385828601612be3565b9150509250929050565b7f4e487b7100000000000000000000000000000000000000000000000000000000600052602260045260246000fd5b6000600282049050600182168061318457607f821691505b602082108114156131985761319761313d565b5b50919050565b7f4552433732313a20617070726f76656420717565727920666f72206e6f6e657860008201527f697374656e7420746f6b656e0000000000000000000000000000000000000000602082015250565b60006131fa602c83612a5d565b91506132058261319e565b604082019050919050565b60006020820190508181036000830152613229816131ed565b9050919050565b7f4552433732313a20617070726f76616c20746f2063757272656e74206f776e6560008201527f7200000000000000000000000000000000000000000000000000000000000000602082015250565b600061328c602183612a5d565b915061329782613230565b604082019050919050565b600060208201905081810360008301526132bb8161327f565b9050919050565b7f4552433732313a20617070726f76652063616c6c6572206973206e6f74206f7760008201527f6e6572206e6f7220617070726f76656420666f7220616c6c0000000000000000602082015250565b600061331e603883612a5d565b9150613329826132c2565b604082019050919050565b6000602082019050818103600083015261334d81613311565b9050919050565b7f4552433732313a207472616e736665722063616c6c6572206973206e6f74206f60008201527f776e6572206e6f7220617070726f766564000000000000000000000000000000602082015250565b60006133b0603183612a5d565b91506133bb82613354565b604082019050919050565b600060208201905081810360008301526133df816133a3565b9050919050565b7f596f7520646f6e2774206861766520616e206163636f756e7400000000000000600082015250565b600061341c601983612a5d565b9150613427826133e6565b602082019050919050565b6000602082019050818103600083015261344b8161340f565b9050919050565b7f546865206865726f206e616d65206d757374206265206265747765656e20332060008201527f616e642031322063686172616374657273000000000000000000000000000000602082015250565b60006134ae603183612a5d565b91506134b982613452565b604082019050919050565b600060208201905081810360008301526134dd816134a1565b9050919050565b7f4e487b7100000000000000000000000000000000000000000000000000000000600052603260045260246000fd5b7f4552433732313a206f776e657220717565727920666f72206e6f6e657869737460008201527f656e7420746f6b656e0000000000000000000000000000000000000000000000602082015250565b600061356f602983612a5d565b915061357a82613513565b604082019050919050565b6000602082019050818103600083015261359e81613562565b9050919050565b7f4e487b7100000000000000000000000000000000000000000000000000000000600052601160045260246000fd5b60006135df82612b0d565b91506135ea83612b0d565b9250828210156135fd576135fc6135a5565b5b828203905092915050565b7f4552433732313a2062616c616e636520717565727920666f7220746865207a6560008201527f726f206164647265737300000000000000000000000000000000000000000000602082015250565b6000613664602a83612a5d565b915061366f82613608565b604082019050919050565b6000602082019050818103600083015261369381613657565b9050919050565b7f4f776e61626c653a2063616c6c6572206973206e6f7420746865206f776e6572600082015250565b60006136d0602083612a5d565b91506136db8261369a565b602082019050919050565b600060208201905081810360008301526136ff816136c3565b9050919050565b600081905092915050565b600061371c82612a52565b6137268185613706565b9350613736818560208601612a6e565b80840191505092915050565b600061374e8284613711565b915081905092915050565b7f557365726e616d652069732074616b656e000000000000000000000000000000600082015250565b600061378f601183612a5d565b915061379a82613759565b602082019050919050565b600060208201905081810360008301526137be81613782565b9050919050565b7f596f7520616c7265616479206861766520616e206163636f756e742100000000600082015250565b60006137fb601c83612a5d565b9150613806826137c5565b602082019050919050565b6000602082019050818103600083015261382a816137ee565b9050919050565b7f557365726e616d65206d757374206265206265747765656e203320616e64203160008201527f3220636861726163746572730000000000000000000000000000000000000000602082015250565b600061388d602c83612a5d565b915061389882613831565b604082019050919050565b600060208201905081810360008301526138bc81613880565b9050919050565b60006138ce82612b0d565b91507fffffffffffffffffffffffffffffffffffffffffffffffffffffffffffffffff821415613901576139006135a5565b5b600182019050919050565b7f4552433732314d657461646174613a2055524920717565727920666f72206e6f60008201527f6e6578697374656e7420746f6b656e0000000000000000000000000000000000602082015250565b6000613968602f83612a5d565b91506139738261390c565b604082019050919050565b600060208201905081810360008301526139978161395b565b9050919050565b60006139aa8285613711565b91506139b68284613711565b91508190509392505050565b7f4f776e61626c653a206e6577206f776e657220697320746865207a65726f206160008201527f6464726573730000000000000000000000000000000000000000000000000000602082015250565b6000613a1e602683612a5d565b9150613a29826139c2565b604082019050919050565b60006020820190508181036000830152613a4d81613a11565b9050919050565b7f4552433732313a206f70657261746f7220717565727920666f72206e6f6e657860008201527f697374656e7420746f6b656e0000000000000000000000000000000000000000602082015250565b6000613ab0602c83612a5d565b9150613abb82613a54565b604082019050919050565b60006020820190508181036000830152613adf81613aa3565b9050919050565b7f4552433732313a207472616e73666572206f6620746f6b656e2074686174206960008201527f73206e6f74206f776e0000000000000000000000000000000000000000000000602082015250565b6000613b42602983612a5d565b9150613b4d82613ae6565b604082019050919050565b60006020820190508181036000830152613b7181613b35565b9050919050565b7f4552433732313a207472616e7366657220746f20746865207a65726f2061646460008201527f7265737300000000000000000000000000000000000000000000000000000000602082015250565b6000613bd4602483612a5d565b9150613bdf82613b78565b604082019050919050565b60006020820190508181036000830152613c0381613bc7565b9050919050565b6000613c1582612b0d565b9150613c2083612b0d565b9250827fffffffffffffffffffffffffffffffffffffffffffffffffffffffffffffffff03821115613c5557613c546135a5565b5b828201905092915050565b6000819050919050565b613c7b613c7682612b0d565b613c60565b82525050565b6000613c8d8284613c6a565b60208201915081905092915050565b7f4e487b7100000000000000000000000000000000000000000000000000000000600052601260045260246000fd5b6000613cd682612b0d565b9150613ce183612b0d565b925082613cf157613cf0613c9c565b5b828206905092915050565b6000604082019050613d116000830185612e65565b613d1e6020830184612e65565b9392505050565b7f4552433732313a20617070726f766520746f2063616c6c657200000000000000600082015250565b6000613d5b601983612a5d565b9150613d6682613d25565b602082019050919050565b60006020820190508181036000830152613d8a81613d4e565b9050919050565b7f4552433732313a207472616e7366657220746f206e6f6e20455243373231526560008201527f63656976657220696d706c656d656e7465720000000000000000000000000000602082015250565b6000613ded603283612a5d565b9150613df882613d91565b604082019050919050565b60006020820190508181036000830152613e1c81613de0565b9050919050565b6000613e2e82612b0d565b9150613e3983612b0d565b925082613e4957613e48613c9c565b5b828204905092915050565b600081519050919050565b600082825260208201905092915050565b6000613e7b82613e54565b613e858185613e5f565b9350613e95818560208601612a6e565b613e9e81612aa1565b840191505092915050565b6000608082019050613ebe6000830187612ba2565b613ecb6020830186612ba2565b613ed86040830185612e65565b8181036060830152613eea8184613e70565b905095945050505050565b600081519050613f04816129c3565b92915050565b600060208284031215613f2057613f1f61298d565b5b6000613f2e84828501613ef5565b91505092915050565b7f4552433732313a206d696e7420746f20746865207a65726f2061646472657373600082015250565b6000613f6d602083612a5d565b9150613f7882613f37565b602082019050919050565b60006020820190508181036000830152613f9c81613f60565b9050919050565b7f4552433732313a20746f6b656e20616c7265616479206d696e74656400000000600082015250565b6000613fd9601c83612a5d565b9150613fe482613fa3565b602082019050919050565b6000602082019050818103600083015261400881613fcc565b905091905056fea26469706673582212209e1f04a334755b25d86664461e72e7eb32cab2581844aa32f84c57595a4b5d8c64736f6c634300080a0033",
  "immutableReferences": {},
  "source": "// SPDX-License-Identifier: MIT\r\npragma solidity ^0.8.7;\r\n\r\nimport \"@openzeppelin/contracts/token/ERC721/ERC721.sol\";\r\nimport \"@openzeppelin/contracts/access/Ownable.sol\";\r\nimport \"@openzeppelin/contracts/utils/math/SafeMath.sol\";\r\nimport \"./IotaHeroAccount.sol\";\r\n\r\ncontract IotaHeroFactory is ERC721, Ownable, IotaHeroAccount {\r\n    constructor() ERC721(\"IotaHero\", \"IH\") {}\r\n\r\n    using SafeMath for uint256;\r\n\r\n    uint256 heroIdCounter = 0;\r\n    uint256 adventureCoolDown = 30 seconds;\r\n    struct Hero {\r\n        uint256 id;\r\n        uint256 dna;\r\n        uint256 xp;\r\n        uint256 mental;\r\n        uint256 physical;\r\n        uint16 level;\r\n        uint256 restingTill;\r\n        uint256 debug;\r\n        string name;\r\n    }\r\n\r\n    Hero[] public heroes;\r\n\r\n    modifier aboveLevel(uint256 _level, uint256 _heroId) {\r\n        require(heroes[_heroId].level >= _level);\r\n        _;\r\n    }\r\n    modifier onlyOwnerOf(uint256 _heroId) {\r\n        require(msg.sender == ERC721.ownerOf(_heroId));\r\n        _;\r\n    }\r\n    modifier nameValidLength(string memory _name) {\r\n        uint stringLength = utfStringLength(_name);\r\n        require(stringLength < 13 && stringLength > 2, \"The hero name must be between 3 and 12 characters\");\r\n        _;\r\n    } \r\n    function nameChange(uint256 _heroId, string memory _name)\r\n        public\r\n        hasAccount()\r\n        onlyOwnerOf(_heroId)\r\n        nameValidLength(_name)\r\n    {\r\n        Hero storage hero = heroes[_heroId];\r\n        hero.name = _name;\r\n    }\r\n\r\n    function heroIsReady(Hero memory hero) internal view returns (bool) {\r\n        return (hero.restingTill <= block.timestamp);\r\n    }\r\n\r\n    function _pseudoRandom(uint256 nonce) internal view returns (uint256) {\r\n        uint256 psrand = uint256(\r\n            keccak256(abi.encodePacked(block.timestamp + nonce))\r\n        );\r\n        return psrand % 10**12;\r\n    }\r\n\r\n    event HeroMinted(address indexed owner, uint256 id, uint256 dna);\r\n\r\n    function _mintHero(uint256 _dna) internal {\r\n        Hero memory hero = Hero(\r\n            heroIdCounter,\r\n            _dna,\r\n            500,\r\n            10,\r\n            10,\r\n            1,\r\n            block.timestamp,\r\n            0,\r\n            \"\"\r\n        );\r\n        heroes.push(hero);\r\n        _safeMint(msg.sender, heroIdCounter);\r\n        emit HeroMinted(msg.sender, heroIdCounter, _dna);\r\n        heroIdCounter = heroIdCounter.add(1);\r\n    }\r\n\r\n    function spawnHero() public hasAccount() {\r\n        uint256 dna = _pseudoRandom(heroIdCounter);\r\n        _mintHero(dna);\r\n    }\r\n\r\n}\r\n",
  "sourcePath": "C:\\Users\\creld\\source\\repos\\IotaHeroes\\smartcontracts\\contracts\\IotaHeroFactory.sol",
  "compiler": {
    "name": "solc",
    "version": "0.8.10+commit.fc410830.Emscripten.clang"
  },
  "schemaVersion": "3.4.4",
  "updatedAt": "2022-01-15T12:55:16.079Z",
  "devdoc": {
    "kind": "dev",
    "methods": {
      "approve(address,uint256)": {
        "details": "See {IERC721-approve}."
      },
      "balanceOf(address)": {
        "details": "See {IERC721-balanceOf}."
      },
      "getApproved(uint256)": {
        "details": "See {IERC721-getApproved}."
      },
      "isApprovedForAll(address,address)": {
        "details": "See {IERC721-isApprovedForAll}."
      },
      "name()": {
        "details": "See {IERC721Metadata-name}."
      },
      "owner()": {
        "details": "Returns the address of the current owner."
      },
      "ownerOf(uint256)": {
        "details": "See {IERC721-ownerOf}."
      },
      "renounceOwnership()": {
        "details": "Leaves the contract without owner. It will not be possible to call `onlyOwner` functions anymore. Can only be called by the current owner. NOTE: Renouncing ownership will leave the contract without an owner, thereby removing any functionality that is only available to the owner."
      },
      "safeTransferFrom(address,address,uint256)": {
        "details": "See {IERC721-safeTransferFrom}."
      },
      "safeTransferFrom(address,address,uint256,bytes)": {
        "details": "See {IERC721-safeTransferFrom}."
      },
      "setApprovalForAll(address,bool)": {
        "details": "See {IERC721-setApprovalForAll}."
      },
      "supportsInterface(bytes4)": {
        "details": "See {IERC165-supportsInterface}."
      },
      "symbol()": {
        "details": "See {IERC721Metadata-symbol}."
      },
      "tokenURI(uint256)": {
        "details": "See {IERC721Metadata-tokenURI}."
      },
      "transferFrom(address,address,uint256)": {
        "details": "See {IERC721-transferFrom}."
      },
      "transferOwnership(address)": {
        "details": "Transfers ownership of the contract to a new account (`newOwner`). Can only be called by the current owner."
      }
    },
    "version": 1
  },
  "userdoc": {
    "kind": "user",
    "methods": {},
    "version": 1
  }
}