{
  "contractName": "IotaHeroAdventure",
  "abi": [
    {
      "anonymous": false,
      "inputs": [
        {
          "indexed": true,
          "internalType": "address",
          "name": "player",
          "type": "address"
        },
        {
          "indexed": true,
          "internalType": "uint256",
          "name": "heroId",
          "type": "uint256"
        },
        {
          "indexed": false,
          "internalType": "string",
          "name": "name",
          "type": "string"
        },
        {
          "indexed": false,
          "internalType": "enum IotaHeroAdventure.AdventureType",
          "name": "adventureType",
          "type": "uint8"
        },
        {
          "indexed": false,
          "internalType": "uint256",
          "name": "rand",
          "type": "uint256"
        }
      ],
      "name": "AdventureCompleted",
      "type": "event"
    },
    {
      "anonymous": false,
      "inputs": [
        {
          "indexed": true,
          "internalType": "address",
          "name": "owner",
          "type": "address"
        },
        {
          "indexed": true,
          "internalType": "address",
          "name": "approved",
          "type": "address"
        },
        {
          "indexed": true,
          "internalType": "uint256",
          "name": "tokenId",
          "type": "uint256"
        }
      ],
      "name": "Approval",
      "type": "event"
    },
    {
      "anonymous": false,
      "inputs": [
        {
          "indexed": true,
          "internalType": "address",
          "name": "owner",
          "type": "address"
        },
        {
          "indexed": true,
          "internalType": "address",
          "name": "operator",
          "type": "address"
        },
        {
          "indexed": false,
          "internalType": "bool",
          "name": "approved",
          "type": "bool"
        }
      ],
      "name": "ApprovalForAll",
      "type": "event"
    },
    {
      "anonymous": false,
      "inputs": [
        {
          "indexed": true,
          "internalType": "address",
          "name": "owner",
          "type": "address"
        },
        {
          "indexed": false,
          "internalType": "uint256",
          "name": "id",
          "type": "uint256"
        },
        {
          "indexed": false,
          "internalType": "uint256",
          "name": "dna",
          "type": "uint256"
        }
      ],
      "name": "HeroMinted",
      "type": "event"
    },
    {
      "anonymous": false,
      "inputs": [
        {
          "indexed": true,
          "internalType": "address",
          "name": "previousOwner",
          "type": "address"
        },
        {
          "indexed": true,
          "internalType": "address",
          "name": "newOwner",
          "type": "address"
        }
      ],
      "name": "OwnershipTransferred",
      "type": "event"
    },
    {
      "anonymous": false,
      "inputs": [
        {
          "indexed": true,
          "internalType": "address",
          "name": "from",
          "type": "address"
        },
        {
          "indexed": true,
          "internalType": "address",
          "name": "to",
          "type": "address"
        },
        {
          "indexed": true,
          "internalType": "uint256",
          "name": "tokenId",
          "type": "uint256"
        }
      ],
      "name": "Transfer",
      "type": "event"
    },
    {
      "inputs": [
        {
          "internalType": "address",
          "name": "",
          "type": "address"
        }
      ],
      "name": "addressToId",
      "outputs": [
        {
          "internalType": "uint256",
          "name": "",
          "type": "uint256"
        }
      ],
      "stateMutability": "view",
      "type": "function",
      "constant": true
    },
    {
      "inputs": [
        {
          "internalType": "uint256",
          "name": "",
          "type": "uint256"
        }
      ],
      "name": "adventures",
      "outputs": [
        {
          "internalType": "uint256",
          "name": "id",
          "type": "uint256"
        },
        {
          "internalType": "string",
          "name": "name",
          "type": "string"
        },
        {
          "internalType": "uint256",
          "name": "xpRequirement",
          "type": "uint256"
        },
        {
          "internalType": "uint8",
          "name": "difficulty",
          "type": "uint8"
        },
        {
          "internalType": "string",
          "name": "description",
          "type": "string"
        },
        {
          "internalType": "enum IotaHeroAdventure.AdventureType",
          "name": "adventureType",
          "type": "uint8"
        }
      ],
      "stateMutability": "view",
      "type": "function",
      "constant": true
    },
    {
      "inputs": [
        {
          "internalType": "address",
          "name": "to",
          "type": "address"
        },
        {
          "internalType": "uint256",
          "name": "tokenId",
          "type": "uint256"
        }
      ],
      "name": "approve",
      "outputs": [],
      "stateMutability": "nonpayable",
      "type": "function"
    },
    {
      "inputs": [
        {
          "internalType": "address",
          "name": "owner",
          "type": "address"
        }
      ],
      "name": "balanceOf",
      "outputs": [
        {
          "internalType": "uint256",
          "name": "",
          "type": "uint256"
        }
      ],
      "stateMutability": "view",
      "type": "function",
      "constant": true
    },
    {
      "inputs": [],
      "name": "currentUserCount",
      "outputs": [
        {
          "internalType": "uint256",
          "name": "",
          "type": "uint256"
        }
      ],
      "stateMutability": "view",
      "type": "function",
      "constant": true
    },
    {
      "inputs": [
        {
          "internalType": "uint256",
          "name": "tokenId",
          "type": "uint256"
        }
      ],
      "name": "getApproved",
      "outputs": [
        {
          "internalType": "address",
          "name": "",
          "type": "address"
        }
      ],
      "stateMutability": "view",
      "type": "function",
      "constant": true
    },
    {
      "inputs": [],
      "name": "getHeroes",
      "outputs": [
        {
          "components": [
            {
              "internalType": "uint256",
              "name": "id",
              "type": "uint256"
            },
            {
              "internalType": "uint256",
              "name": "dna",
              "type": "uint256"
            },
            {
              "internalType": "uint256",
              "name": "xp",
              "type": "uint256"
            },
            {
              "internalType": "uint256",
              "name": "mental",
              "type": "uint256"
            },
            {
              "internalType": "uint256",
              "name": "physical",
              "type": "uint256"
            },
            {
              "internalType": "uint16",
              "name": "level",
              "type": "uint16"
            },
            {
              "internalType": "uint256",
              "name": "restingTill",
              "type": "uint256"
            },
            {
              "internalType": "uint256",
              "name": "debug",
              "type": "uint256"
            },
            {
              "internalType": "string",
              "name": "name",
              "type": "string"
            }
          ],
          "internalType": "struct IotaHeroFactory.Hero[]",
          "name": "",
          "type": "tuple[]"
        }
      ],
      "stateMutability": "view",
      "type": "function",
      "constant": true
    },
    {
      "inputs": [
        {
          "internalType": "address",
          "name": "_owner",
          "type": "address"
        }
      ],
      "name": "getOwnerHeroes",
      "outputs": [
        {
          "components": [
            {
              "internalType": "uint256",
              "name": "id",
              "type": "uint256"
            },
            {
              "internalType": "uint256",
              "name": "dna",
              "type": "uint256"
            },
            {
              "internalType": "uint256",
              "name": "xp",
              "type": "uint256"
            },
            {
              "internalType": "uint256",
              "name": "mental",
              "type": "uint256"
            },
            {
              "internalType": "uint256",
              "name": "physical",
              "type": "uint256"
            },
            {
              "internalType": "uint16",
              "name": "level",
              "type": "uint16"
            },
            {
              "internalType": "uint256",
              "name": "restingTill",
              "type": "uint256"
            },
            {
              "internalType": "uint256",
              "name": "debug",
              "type": "uint256"
            },
            {
              "internalType": "string",
              "name": "name",
              "type": "string"
            }
          ],
          "internalType": "struct IotaHeroFactory.Hero[]",
          "name": "",
          "type": "tuple[]"
        }
      ],
      "stateMutability": "view",
      "type": "function",
      "constant": true
    },
    {
      "inputs": [],
      "name": "getUsername",
      "outputs": [
        {
          "internalType": "string",
          "name": "",
          "type": "string"
        }
      ],
      "stateMutability": "view",
      "type": "function",
      "constant": true
    },
    {
      "inputs": [
        {
          "internalType": "address",
          "name": "_address",
          "type": "address"
        }
      ],
      "name": "getUsernameByAddress",
      "outputs": [
        {
          "internalType": "string",
          "name": "",
          "type": "string"
        }
      ],
      "stateMutability": "view",
      "type": "function",
      "constant": true
    },
    {
      "inputs": [],
      "name": "getUsernameLength",
      "outputs": [
        {
          "internalType": "uint256",
          "name": "",
          "type": "uint256"
        }
      ],
      "stateMutability": "view",
      "type": "function",
      "constant": true
    },
    {
      "inputs": [
        {
          "internalType": "uint256",
          "name": "",
          "type": "uint256"
        }
      ],
      "name": "heroes",
      "outputs": [
        {
          "internalType": "uint256",
          "name": "id",
          "type": "uint256"
        },
        {
          "internalType": "uint256",
          "name": "dna",
          "type": "uint256"
        },
        {
          "internalType": "uint256",
          "name": "xp",
          "type": "uint256"
        },
        {
          "internalType": "uint256",
          "name": "mental",
          "type": "uint256"
        },
        {
          "internalType": "uint256",
          "name": "physical",
          "type": "uint256"
        },
        {
          "internalType": "uint16",
          "name": "level",
          "type": "uint16"
        },
        {
          "internalType": "uint256",
          "name": "restingTill",
          "type": "uint256"
        },
        {
          "internalType": "uint256",
          "name": "debug",
          "type": "uint256"
        },
        {
          "internalType": "string",
          "name": "name",
          "type": "string"
        }
      ],
      "stateMutability": "view",
      "type": "function",
      "constant": true
    },
    {
      "inputs": [
        {
          "internalType": "uint256",
          "name": "",
          "type": "uint256"
        }
      ],
      "name": "idToAddress",
      "outputs": [
        {
          "internalType": "address",
          "name": "",
          "type": "address"
        }
      ],
      "stateMutability": "view",
      "type": "function",
      "constant": true
    },
    {
      "inputs": [
        {
          "internalType": "uint256",
          "name": "",
          "type": "uint256"
        }
      ],
      "name": "idToUsername",
      "outputs": [
        {
          "internalType": "string",
          "name": "",
          "type": "string"
        }
      ],
      "stateMutability": "view",
      "type": "function",
      "constant": true
    },
    {
      "inputs": [
        {
          "internalType": "address",
          "name": "owner",
          "type": "address"
        },
        {
          "internalType": "address",
          "name": "operator",
          "type": "address"
        }
      ],
      "name": "isApprovedForAll",
      "outputs": [
        {
          "internalType": "bool",
          "name": "",
          "type": "bool"
        }
      ],
      "stateMutability": "view",
      "type": "function",
      "constant": true
    },
    {
      "inputs": [],
      "name": "isSignedUp",
      "outputs": [
        {
          "internalType": "bool",
          "name": "",
          "type": "bool"
        }
      ],
      "stateMutability": "view",
      "type": "function",
      "constant": true
    },
    {
      "inputs": [],
      "name": "name",
      "outputs": [
        {
          "internalType": "string",
          "name": "",
          "type": "string"
        }
      ],
      "stateMutability": "view",
      "type": "function",
      "constant": true
    },
    {
      "inputs": [
        {
          "internalType": "uint256",
          "name": "_heroId",
          "type": "uint256"
        },
        {
          "internalType": "string",
          "name": "_name",
          "type": "string"
        }
      ],
      "name": "nameChange",
      "outputs": [],
      "stateMutability": "nonpayable",
      "type": "function"
    },
    {
      "inputs": [],
      "name": "owner",
      "outputs": [
        {
          "internalType": "address",
          "name": "",
          "type": "address"
        }
      ],
      "stateMutability": "view",
      "type": "function",
      "constant": true
    },
    {
      "inputs": [
        {
          "internalType": "uint256",
          "name": "tokenId",
          "type": "uint256"
        }
      ],
      "name": "ownerOf",
      "outputs": [
        {
          "internalType": "address",
          "name": "",
          "type": "address"
        }
      ],
      "stateMutability": "view",
      "type": "function",
      "constant": true
    },
    {
      "inputs": [],
      "name": "renounceOwnership",
      "outputs": [],
      "stateMutability": "nonpayable",
      "type": "function"
    },
    {
      "inputs": [
        {
          "internalType": "address",
          "name": "from",
          "type": "address"
        },
        {
          "internalType": "address",
          "name": "to",
          "type": "address"
        },
        {
          "internalType": "uint256",
          "name": "tokenId",
          "type": "uint256"
        }
      ],
      "name": "safeTransferFrom",
      "outputs": [],
      "stateMutability": "nonpayable",
      "type": "function"
    },
    {
      "inputs": [
        {
          "internalType": "address",
          "name": "from",
          "type": "address"
        },
        {
          "internalType": "address",
          "name": "to",
          "type": "address"
        },
        {
          "internalType": "uint256",
          "name": "tokenId",
          "type": "uint256"
        },
        {
          "internalType": "bytes",
          "name": "_data",
          "type": "bytes"
        }
      ],
      "name": "safeTransferFrom",
      "outputs": [],
      "stateMutability": "nonpayable",
      "type": "function"
    },
    {
      "inputs": [
        {
          "internalType": "address",
          "name": "operator",
          "type": "address"
        },
        {
          "internalType": "bool",
          "name": "approved",
          "type": "bool"
        }
      ],
      "name": "setApprovalForAll",
      "outputs": [],
      "stateMutability": "nonpayable",
      "type": "function"
    },
    {
      "inputs": [
        {
          "internalType": "string",
          "name": "_username",
          "type": "string"
        }
      ],
      "name": "signUp",
      "outputs": [],
      "stateMutability": "nonpayable",
      "type": "function"
    },
    {
      "inputs": [],
      "name": "spawnHero",
      "outputs": [],
      "stateMutability": "nonpayable",
      "type": "function"
    },
    {
      "inputs": [
        {
          "internalType": "bytes4",
          "name": "interfaceId",
          "type": "bytes4"
        }
      ],
      "name": "supportsInterface",
      "outputs": [
        {
          "internalType": "bool",
          "name": "",
          "type": "bool"
        }
      ],
      "stateMutability": "view",
      "type": "function",
      "constant": true
    },
    {
      "inputs": [],
      "name": "symbol",
      "outputs": [
        {
          "internalType": "string",
          "name": "",
          "type": "string"
        }
      ],
      "stateMutability": "view",
      "type": "function",
      "constant": true
    },
    {
      "inputs": [
        {
          "internalType": "uint256",
          "name": "tokenId",
          "type": "uint256"
        }
      ],
      "name": "tokenURI",
      "outputs": [
        {
          "internalType": "string",
          "name": "",
          "type": "string"
        }
      ],
      "stateMutability": "view",
      "type": "function",
      "constant": true
    },
    {
      "inputs": [],
      "name": "tokens",
      "outputs": [
        {
          "internalType": "contract IotaHeroGameTokens",
          "name": "",
          "type": "address"
        }
      ],
      "stateMutability": "view",
      "type": "function",
      "constant": true
    },
    {
      "inputs": [
        {
          "internalType": "address",
          "name": "from",
          "type": "address"
        },
        {
          "internalType": "address",
          "name": "to",
          "type": "address"
        },
        {
          "internalType": "uint256",
          "name": "tokenId",
          "type": "uint256"
        }
      ],
      "name": "transferFrom",
      "outputs": [],
      "stateMutability": "nonpayable",
      "type": "function"
    },
    {
      "inputs": [
        {
          "internalType": "address",
          "name": "newOwner",
          "type": "address"
        }
      ],
      "name": "transferOwnership",
      "outputs": [],
      "stateMutability": "nonpayable",
      "type": "function"
    },
    {
      "inputs": [
        {
          "internalType": "string",
          "name": "",
          "type": "string"
        }
      ],
      "name": "usernameToId",
      "outputs": [
        {
          "internalType": "uint256",
          "name": "",
          "type": "uint256"
        }
      ],
      "stateMutability": "view",
      "type": "function",
      "constant": true
    },
    {
      "inputs": [],
      "name": "withdraw",
      "outputs": [],
      "stateMutability": "payable",
      "type": "function",
      "payable": true
    },
    {
      "inputs": [
        {
          "internalType": "address",
          "name": "tokensAddress",
          "type": "address"
        }
      ],
      "name": "setTokens",
      "outputs": [],
      "stateMutability": "nonpayable",
      "type": "function"
    },
    {
      "inputs": [],
      "name": "getTokenAddress",
      "outputs": [
        {
          "internalType": "address",
          "name": "",
          "type": "address"
        }
      ],
      "stateMutability": "view",
      "type": "function",
      "constant": true
    },
    {
      "inputs": [
        {
          "components": [
            {
              "internalType": "uint256",
              "name": "id",
              "type": "uint256"
            },
            {
              "internalType": "string",
              "name": "name",
              "type": "string"
            },
            {
              "internalType": "uint256",
              "name": "xpRequirement",
              "type": "uint256"
            },
            {
              "internalType": "uint8",
              "name": "difficulty",
              "type": "uint8"
            },
            {
              "internalType": "string",
              "name": "description",
              "type": "string"
            },
            {
              "internalType": "enum IotaHeroAdventure.AdventureType",
              "name": "adventureType",
              "type": "uint8"
            }
          ],
          "internalType": "struct IotaHeroAdventure.Adventure[]",
          "name": "_adventures",
          "type": "tuple[]"
        }
      ],
      "name": "addAdventures",
      "outputs": [],
      "stateMutability": "nonpayable",
      "type": "function"
    },
    {
      "inputs": [
        {
          "internalType": "uint256",
          "name": "_heroId",
          "type": "uint256"
        }
      ],
      "name": "goAdventure",
      "outputs": [],
      "stateMutability": "nonpayable",
      "type": "function"
    }
  ],
  "bytecode": "0x608060405260016007556000600c55601e600d55600060105560006011553480156200002a57600080fd5b506040518060400160405280600881526020017f496f74614865726f0000000000000000000000000000000000000000000000008152506040518060400160405280600281526020017f49480000000000000000000000000000000000000000000000000000000000008152508160009080519060200190620000af929190620001bf565b508060019080519060200190620000c8929190620001bf565b505050620000eb620000df620000f160201b60201c565b620000f960201b60201c565b620002d4565b600033905090565b6000600660009054906101000a900473ffffffffffffffffffffffffffffffffffffffff16905081600660006101000a81548173ffffffffffffffffffffffffffffffffffffffff021916908373ffffffffffffffffffffffffffffffffffffffff1602179055508173ffffffffffffffffffffffffffffffffffffffff168173ffffffffffffffffffffffffffffffffffffffff167f8be0079c531659141344cd1fd0a4f28419497f9722a3daafe3b4186f6b6457e060405160405180910390a35050565b828054620001cd906200029e565b90600052602060002090601f016020900481019282620001f157600085556200023d565b82601f106200020c57805160ff19168380011785556200023d565b828001600101855582156200023d579182015b828111156200023c5782518255916020019190600101906200021f565b5b5090506200024c919062000250565b5090565b5b808211156200026b57600081600090555060010162000251565b5090565b7f4e487b7100000000000000000000000000000000000000000000000000000000600052602260045260246000fd5b60006002820490506001821680620002b757607f821691505b60208210811415620002ce57620002cd6200026f565b5b50919050565b615b8180620002e46000396000f3fe6080604052600436106102255760003560e01c80638da5cb5b11610123578063adcfb4fc116100ab578063e985e9c51161006f578063e985e9c51461083f578063eb76bfb01461087c578063ed1a998d146108a5578063f1c46606146108e2578063f2fde38b1461090d57610225565b8063adcfb4fc14610736578063b88d4fde1461075f578063c87b56dd14610788578063cb0e0d7d146107c5578063ddf368a21461080257610225565b80639f72ed76116100f25780639f72ed7614610646578063a22cb4651461065d578063a639eb4d14610686578063a8d4a03b146106af578063aa761a91146106f457610225565b80638da5cb5b1461059a57806395d89b41146105c55780639a8d2882146105f05780639d63848a1461061b57610225565b80633ccfd60b116101b1578063681f3e6d11610175578063681f3e6d146104c75780636d0cac8e146104f257806370a082311461051d578063715018a61461055a5780637fadea0e1461057157610225565b80633ccfd60b146103f157806342842e0e146103fb57806348646f7b146104245780635e1fe1db1461044d5780636352211e1461048a57610225565b806310fe9ae8116101f857806310fe9ae8146102f8578063191d1cb41461032357806323b872dd1461034e5780632a2d0c471461037757806339bdca1f146103b457610225565b806301ffc9a71461022a57806306fdde0314610267578063081812fc14610292578063095ea7b3146102cf575b600080fd5b34801561023657600080fd5b50610251600480360381019061024c9190613e47565b610936565b60405161025e9190613e8f565b60405180910390f35b34801561027357600080fd5b5061027c610a18565b6040516102899190613f43565b60405180910390f35b34801561029e57600080fd5b506102b960048036038101906102b49190613f9b565b610aaa565b6040516102c69190614009565b60405180910390f35b3480156102db57600080fd5b506102f660048036038101906102f19190614050565b610b2f565b005b34801561030457600080fd5b5061030d610c47565b60405161031a9190614009565b60405180910390f35b34801561032f57600080fd5b50610338610c71565b6040516103459190613e8f565b60405180910390f35b34801561035a57600080fd5b5061037560048036038101906103709190614090565b610cbb565b005b34801561038357600080fd5b5061039e60048036038101906103999190613f9b565b610d1b565b6040516103ab9190614009565b60405180910390f35b3480156103c057600080fd5b506103db60048036038101906103d69190613f9b565b610d4e565b6040516103e89190613f43565b60405180910390f35b6103f9610dee565b005b34801561040757600080fd5b50610422600480360381019061041d9190614090565b610ec0565b005b34801561043057600080fd5b5061044b60048036038101906104469190614218565b610ee0565b005b34801561045957600080fd5b50610474600480360381019061046f9190614274565b611048565b60405161048191906142cc565b60405180910390f35b34801561049657600080fd5b506104b160048036038101906104ac9190613f9b565b611076565b6040516104be9190614009565b60405180910390f35b3480156104d357600080fd5b506104dc611128565b6040516104e99190613f43565b60405180910390f35b3480156104fe57600080fd5b5061050761120a565b60405161051491906142cc565b60405180910390f35b34801561052957600080fd5b50610544600480360381019061053f91906142e7565b611220565b60405161055191906142cc565b60405180910390f35b34801561056657600080fd5b5061056f6112d8565b005b34801561057d57600080fd5b5061059860048036038101906105939190613f9b565b611360565b005b3480156105a657600080fd5b506105af611a41565b6040516105bc9190614009565b60405180910390f35b3480156105d157600080fd5b506105da611a6b565b6040516105e79190613f43565b60405180910390f35b3480156105fc57600080fd5b50610605611afd565b6040516106129190614511565b60405180910390f35b34801561062757600080fd5b50610630611c55565b60405161063d9190614592565b60405180910390f35b34801561065257600080fd5b5061065b611c7b565b005b34801561066957600080fd5b50610684600480360381019061067f91906145d9565b611d19565b005b34801561069257600080fd5b506106ad60048036038101906106a891906142e7565b611d2f565b005b3480156106bb57600080fd5b506106d660048036038101906106d19190613f9b565b611def565b6040516106eb99989796959493929190614628565b60405180910390f35b34801561070057600080fd5b5061071b60048036038101906107169190613f9b565b611ee3565b60405161072d9695949392919061474f565b60405180910390f35b34801561074257600080fd5b5061075d60048036038101906107589190614274565b612059565b005b34801561076b57600080fd5b506107866004803603810190610781919061485f565b6122a1565b005b34801561079457600080fd5b506107af60048036038101906107aa9190613f9b565b612303565b6040516107bc9190613f43565b60405180910390f35b3480156107d157600080fd5b506107ec60048036038101906107e791906142e7565b6123aa565b6040516107f991906142cc565b60405180910390f35b34801561080e57600080fd5b50610829600480360381019061082491906142e7565b6123c2565b6040516108369190614511565b60405180910390f35b34801561084b57600080fd5b50610866600480360381019061086191906148e2565b6125e2565b6040516108739190613e8f565b60405180910390f35b34801561088857600080fd5b506108a3600480360381019061089e9190614982565b612676565b005b3480156108b157600080fd5b506108cc60048036038101906108c791906142e7565b612745565b6040516108d99190613f43565b60405180910390f35b3480156108ee57600080fd5b506108f7612829565b60405161090491906142cc565b60405180910390f35b34801561091957600080fd5b50610934600480360381019061092f91906142e7565b612845565b005b60007f80ac58cd000000000000000000000000000000000000000000000000000000007bffffffffffffffffffffffffffffffffffffffffffffffffffffffff1916827bffffffffffffffffffffffffffffffffffffffffffffffffffffffff19161480610a0157507f5b5e139f000000000000000000000000000000000000000000000000000000007bffffffffffffffffffffffffffffffffffffffffffffffffffffffff1916827bffffffffffffffffffffffffffffffffffffffffffffffffffffffff1916145b80610a115750610a108261293d565b5b9050919050565b606060008054610a27906149fe565b80601f0160208091040260200160405190810160405280929190818152602001828054610a53906149fe565b8015610aa05780601f10610a7557610100808354040283529160200191610aa0565b820191906000526020600020905b815481529060010190602001808311610a8357829003601f168201915b5050505050905090565b6000610ab5826129a7565b610af4576040517f08c379a0000000000000000000000000000000000000000000000000000000008152600401610aeb90614aa2565b60405180910390fd5b6004600083815260200190815260200160002060009054906101000a900473ffffffffffffffffffffffffffffffffffffffff169050919050565b6000610b3a82611076565b90508073ffffffffffffffffffffffffffffffffffffffff168373ffffffffffffffffffffffffffffffffffffffff161415610bab576040517f08c379a0000000000000000000000000000000000000000000000000000000008152600401610ba290614b34565b60405180910390fd5b8073ffffffffffffffffffffffffffffffffffffffff16610bca612a13565b73ffffffffffffffffffffffffffffffffffffffff161480610bf95750610bf881610bf3612a13565b6125e2565b5b610c38576040517f08c379a0000000000000000000000000000000000000000000000000000000008152600401610c2f90614bc6565b60405180910390fd5b610c428383612a1b565b505050565b6000600f60009054906101000a900473ffffffffffffffffffffffffffffffffffffffff16905090565b600080600a60003373ffffffffffffffffffffffffffffffffffffffff1673ffffffffffffffffffffffffffffffffffffffff168152602001908152602001600020541415905090565b610ccc610cc6612a13565b82612ad4565b610d0b576040517f08c379a0000000000000000000000000000000000000000000000000000000008152600401610d0290614c58565b60405180910390fd5b610d16838383612bb2565b505050565b60086020528060005260406000206000915054906101000a900473ffffffffffffffffffffffffffffffffffffffff1681565b60096020528060005260406000206000915090508054610d6d906149fe565b80601f0160208091040260200160405190810160405280929190818152602001828054610d99906149fe565b8015610de65780601f10610dbb57610100808354040283529160200191610de6565b820191906000526020600020905b815481529060010190602001808311610dc957829003601f168201915b505050505081565b610df6612a13565b73ffffffffffffffffffffffffffffffffffffffff16610e14611a41565b73ffffffffffffffffffffffffffffffffffffffff1614610e6a576040517f08c379a0000000000000000000000000000000000000000000000000000000008152600401610e6190614cc4565b60405180910390fd5b6000610e74611a41565b90508073ffffffffffffffffffffffffffffffffffffffff166108fc479081150290604051600060405180830381858888f19350505050158015610ebc573d6000803e3d6000fd5b5050565b610edb838383604051806020016040528060008152506122a1565b505050565b6000600a60003373ffffffffffffffffffffffffffffffffffffffff1673ffffffffffffffffffffffffffffffffffffffff168152602001908152602001600020541415610f63576040517f08c379a0000000000000000000000000000000000000000000000000000000008152600401610f5a90614d30565b60405180910390fd5b81610f6d81611076565b73ffffffffffffffffffffffffffffffffffffffff163373ffffffffffffffffffffffffffffffffffffffff1614610fa457600080fd5b816000610fb082612e0e565b9050600d81108015610fc25750600281115b611001576040517f08c379a0000000000000000000000000000000000000000000000000000000008152600401610ff890614dc2565b60405180910390fd5b6000600e868154811061101757611016614de2565b5b906000526020600020906009020190508481600801908051906020019061103f929190613ce8565b50505050505050565b600b818051602081018201805184825260208301602085012081835280955050505050506000915090505481565b6000806002600084815260200190815260200160002060009054906101000a900473ffffffffffffffffffffffffffffffffffffffff169050600073ffffffffffffffffffffffffffffffffffffffff168173ffffffffffffffffffffffffffffffffffffffff16141561111f576040517f08c379a000000000000000000000000000000000000000000000000000000000815260040161111690614e83565b60405180910390fd5b80915050919050565b606060096000600a60003373ffffffffffffffffffffffffffffffffffffffff1673ffffffffffffffffffffffffffffffffffffffff1681526020019081526020016000205481526020019081526020016000208054611187906149fe565b80601f01602080910402602001604051908101604052809291908181526020018280546111b3906149fe565b80156112005780601f106111d557610100808354040283529160200191611200565b820191906000526020600020905b8154815290600101906020018083116111e357829003601f168201915b5050505050905090565b6000600160075461121b9190614ed2565b905090565b60008073ffffffffffffffffffffffffffffffffffffffff168273ffffffffffffffffffffffffffffffffffffffff161415611291576040517f08c379a000000000000000000000000000000000000000000000000000000000815260040161128890614f78565b60405180910390fd5b600360008373ffffffffffffffffffffffffffffffffffffffff1673ffffffffffffffffffffffffffffffffffffffff168152602001908152602001600020549050919050565b6112e0612a13565b73ffffffffffffffffffffffffffffffffffffffff166112fe611a41565b73ffffffffffffffffffffffffffffffffffffffff1614611354576040517f08c379a000000000000000000000000000000000000000000000000000000000815260040161134b90614cc4565b60405180910390fd5b61135e60006130cb565b565b6000600a60003373ffffffffffffffffffffffffffffffffffffffff1673ffffffffffffffffffffffffffffffffffffffff1681526020019081526020016000205414156113e3576040517f08c379a00000000000000000000000000000000000000000000000000000000081526004016113da90614d30565b60405180910390fd5b806113ed81611076565b73ffffffffffffffffffffffffffffffffffffffff163373ffffffffffffffffffffffffffffffffffffffff161461142457600080fd5b6000600e838154811061143a57611439614de2565b5b90600052602060002090600902019050611557816040518061012001604052908160008201548152602001600182015481526020016002820154815260200160038201548152602001600482015481526020016005820160009054906101000a900461ffff1661ffff1661ffff16815260200160068201548152602001600782015481526020016008820180546114d0906149fe565b80601f01602080910402602001604051908101604052809291908181526020018280546114fc906149fe565b80156115495780601f1061151e57610100808354040283529160200191611549565b820191906000526020600020905b81548152906001019060200180831161152c57829003601f168201915b505050505081525050613191565b611596576040517f08c379a000000000000000000000000000000000000000000000000000000000815260040161158d9061500a565b60405180910390fd5b600060646115a56010546131a2565b6115af9190615059565b905060006115bc826131a2565b9050600060128080549050836115d29190615059565b815481106115e3576115e2614de2565b5b9060005260206000209060060201905060006005811115611607576116066146d8565b5b8160050160009054906101000a900460ff16600581111561162b5761162a6146d8565b5b14156117125760328310156116ec57611652606485600201546131f590919063ffffffff16565b8460020181905550600f60009054906101000a900473ffffffffffffffffffffffffffffffffffffffff1673ffffffffffffffffffffffffffffffffffffffff1663e51bcfd2336040518263ffffffff1660e01b81526004016116b59190614009565b600060405180830381600087803b1580156116cf57600080fd5b505af11580156116e3573d6000803e3d6000fd5b5050505061170d565b6117046002856002015461320b90919063ffffffff16565b84600201819055505b611991565b60046005811115611726576117256146d8565b5b8160050160009054906101000a900460ff16600581111561174a576117496146d8565b5b14156117e257600f60009054906101000a900473ffffffffffffffffffffffffffffffffffffffff1673ffffffffffffffffffffffffffffffffffffffff1663e51bcfd2336040518263ffffffff1660e01b81526004016117ab9190614009565b600060405180830381600087803b1580156117c557600080fd5b505af11580156117d9573d6000803e3d6000fd5b50505050611990565b6005808111156117f5576117f46146d8565b5b8160050160009054906101000a900460ff166005811115611819576118186146d8565b5b141561187357603283101561184d57611840600185600401546131f590919063ffffffff16565b846004018190555061186e565b6118656001856004015461322190919063ffffffff16565b84600401819055505b61198f565b60016005811115611887576118866146d8565b5b8160050160009054906101000a900460ff1660058111156118ab576118aa6146d8565b5b14156118b65761198e565b600260058111156118ca576118c96146d8565b5b8160050160009054906101000a900460ff1660058111156118ee576118ed6146d8565b5b141561192357603283101561191e57611915600185600301546131f590919063ffffffff16565b84600301819055505b61198d565b60036005811115611937576119366146d8565b5b8160050160009054906101000a900460ff16600581111561195b5761195a6146d8565b5b141561198c57603283101561198b57611982600185600401546131f590919063ffffffff16565b84600401819055505b5b5b5b5b5b5b828460070181905550600d54426119a8919061508a565b63ffffffff1684600601819055506119cc60016010546131f590919063ffffffff16565b601081905550853373ffffffffffffffffffffffffffffffffffffffff167f77e7f22c561a1fe25ae0fe4ab7fae668a036026e1e75ee2387811cb34aa1f0d2836001018460050160009054906101000a900460ff1687604051611a3193929190615175565b60405180910390a3505050505050565b6000600660009054906101000a900473ffffffffffffffffffffffffffffffffffffffff16905090565b606060018054611a7a906149fe565b80601f0160208091040260200160405190810160405280929190818152602001828054611aa6906149fe565b8015611af35780601f10611ac857610100808354040283529160200191611af3565b820191906000526020600020905b815481529060010190602001808311611ad657829003601f168201915b5050505050905090565b6060600e805480602002602001604051908101604052809291908181526020016000905b82821015611c4c57838290600052602060002090600902016040518061012001604052908160008201548152602001600182015481526020016002820154815260200160038201548152602001600482015481526020016005820160009054906101000a900461ffff1661ffff1661ffff1681526020016006820154815260200160078201548152602001600882018054611bbb906149fe565b80601f0160208091040260200160405190810160405280929190818152602001828054611be7906149fe565b8015611c345780601f10611c0957610100808354040283529160200191611c34565b820191906000526020600020905b815481529060010190602001808311611c1757829003601f168201915b50505050508152505081526020019060010190611b21565b50505050905090565b600f60009054906101000a900473ffffffffffffffffffffffffffffffffffffffff1681565b6000600a60003373ffffffffffffffffffffffffffffffffffffffff1673ffffffffffffffffffffffffffffffffffffffff168152602001908152602001600020541415611cfe576040517f08c379a0000000000000000000000000000000000000000000000000000000008152600401611cf590614d30565b60405180910390fd5b6000611d0b600c546131a2565b9050611d1681613237565b50565b611d2b611d24612a13565b83836133c9565b5050565b611d37612a13565b73ffffffffffffffffffffffffffffffffffffffff16611d55611a41565b73ffffffffffffffffffffffffffffffffffffffff1614611dab576040517f08c379a0000000000000000000000000000000000000000000000000000000008152600401611da290614cc4565b60405180910390fd5b80600f60006101000a81548173ffffffffffffffffffffffffffffffffffffffff021916908373ffffffffffffffffffffffffffffffffffffffff16021790555050565b600e8181548110611dff57600080fd5b90600052602060002090600902016000915090508060000154908060010154908060020154908060030154908060040154908060050160009054906101000a900461ffff1690806006015490806007015490806008018054611e60906149fe565b80601f0160208091040260200160405190810160405280929190818152602001828054611e8c906149fe565b8015611ed95780601f10611eae57610100808354040283529160200191611ed9565b820191906000526020600020905b815481529060010190602001808311611ebc57829003601f168201915b5050505050905089565b60128181548110611ef357600080fd5b9060005260206000209060060201600091509050806000015490806001018054611f1c906149fe565b80601f0160208091040260200160405190810160405280929190818152602001828054611f48906149fe565b8015611f955780601f10611f6a57610100808354040283529160200191611f95565b820191906000526020600020905b815481529060010190602001808311611f7857829003601f168201915b5050505050908060020154908060030160009054906101000a900460ff1690806004018054611fc3906149fe565b80601f0160208091040260200160405190810160405280929190818152602001828054611fef906149fe565b801561203c5780601f106120115761010080835404028352916020019161203c565b820191906000526020600020905b81548152906001019060200180831161201f57829003601f168201915b5050505050908060050160009054906101000a900460ff16905086565b806000600b8260405161206c91906151ef565b908152602001604051809103902054146120bb576040517f08c379a00000000000000000000000000000000000000000000000000000000081526004016120b290615252565b60405180910390fd5b6000600a60003373ffffffffffffffffffffffffffffffffffffffff1673ffffffffffffffffffffffffffffffffffffffff168152602001908152602001600020541461213d576040517f08c379a0000000000000000000000000000000000000000000000000000000008152600401612134906152be565b60405180910390fd5b81600061214982612e0e565b9050600d8110801561215b5750600281115b61219a576040517f08c379a000000000000000000000000000000000000000000000000000000000815260040161219190615350565b60405180910390fd5b600754600a60003373ffffffffffffffffffffffffffffffffffffffff1673ffffffffffffffffffffffffffffffffffffffff168152602001908152602001600020819055503360086000600754815260200190815260200160002060006101000a81548173ffffffffffffffffffffffffffffffffffffffff021916908373ffffffffffffffffffffffffffffffffffffffff16021790555083600960006007548152602001908152602001600020908051906020019061225d929190613ce8565b50600754600b8560405161227191906151ef565b9081526020016040518091039020819055506007600081548092919061229690615370565b919050555050505050565b6122b26122ac612a13565b83612ad4565b6122f1576040517f08c379a00000000000000000000000000000000000000000000000000000000081526004016122e890614c58565b60405180910390fd5b6122fd84848484613536565b50505050565b606061230e826129a7565b61234d576040517f08c379a00000000000000000000000000000000000000000000000000000000081526004016123449061542b565b60405180910390fd5b6000612357613592565b9050600081511161237757604051806020016040528060008152506123a2565b80612381846135a9565b60405160200161239292919061544b565b6040516020818303038152906040525b915050919050565b600a6020528060005260406000206000915090505481565b606060006123cf83611220565b67ffffffffffffffff8111156123e8576123e76140ed565b5b60405190808252806020026020018201604052801561242157816020015b61240e613d6e565b8152602001906001900390816124065790505b5090506000805b600e805490508110156125d7578473ffffffffffffffffffffffffffffffffffffffff1661245582611076565b73ffffffffffffffffffffffffffffffffffffffff1614156125c457600e818154811061248557612484614de2565b5b90600052602060002090600902016040518061012001604052908160008201548152602001600182015481526020016002820154815260200160038201548152602001600482015481526020016005820160009054906101000a900461ffff1661ffff1661ffff1681526020016006820154815260200160078201548152602001600882018054612515906149fe565b80601f0160208091040260200160405190810160405280929190818152602001828054612541906149fe565b801561258e5780601f106125635761010080835404028352916020019161258e565b820191906000526020600020905b81548152906001019060200180831161257157829003601f168201915b5050505050815250508383815181106125aa576125a9614de2565b5b602002602001018190525081806125c090615370565b9250505b80806125cf90615370565b915050612428565b508192505050919050565b6000600560008473ffffffffffffffffffffffffffffffffffffffff1673ffffffffffffffffffffffffffffffffffffffff16815260200190815260200160002060008373ffffffffffffffffffffffffffffffffffffffff1673ffffffffffffffffffffffffffffffffffffffff16815260200190815260200160002060009054906101000a900460ff16905092915050565b61267e612a13565b73ffffffffffffffffffffffffffffffffffffffff1661269c611a41565b73ffffffffffffffffffffffffffffffffffffffff16146126f2576040517f08c379a00000000000000000000000000000000000000000000000000000000081526004016126e990614cc4565b60405180910390fd5b60005b828290508110156127405761272d83838381811061271657612715614de2565b5b9050602002810190612728919061547e565b61370a565b808061273890615370565b9150506126f5565b505050565b606060096000600a60008573ffffffffffffffffffffffffffffffffffffffff1673ffffffffffffffffffffffffffffffffffffffff16815260200190815260200160002054815260200190815260200160002080546127a4906149fe565b80601f01602080910402602001604051908101604052809291908181526020018280546127d0906149fe565b801561281d5780601f106127f25761010080835404028352916020019161281d565b820191906000526020600020905b81548152906001019060200180831161280057829003601f168201915b50505050509050919050565b600080612834611128565b905061283f81612e0e565b91505090565b61284d612a13565b73ffffffffffffffffffffffffffffffffffffffff1661286b611a41565b73ffffffffffffffffffffffffffffffffffffffff16146128c1576040517f08c379a00000000000000000000000000000000000000000000000000000000081526004016128b890614cc4565b60405180910390fd5b600073ffffffffffffffffffffffffffffffffffffffff168173ffffffffffffffffffffffffffffffffffffffff161415612931576040517f08c379a000000000000000000000000000000000000000000000000000000000815260040161292890615518565b60405180910390fd5b61293a816130cb565b50565b60007f01ffc9a7000000000000000000000000000000000000000000000000000000007bffffffffffffffffffffffffffffffffffffffffffffffffffffffff1916827bffffffffffffffffffffffffffffffffffffffffffffffffffffffff1916149050919050565b60008073ffffffffffffffffffffffffffffffffffffffff166002600084815260200190815260200160002060009054906101000a900473ffffffffffffffffffffffffffffffffffffffff1673ffffffffffffffffffffffffffffffffffffffff1614159050919050565b600033905090565b816004600083815260200190815260200160002060006101000a81548173ffffffffffffffffffffffffffffffffffffffff021916908373ffffffffffffffffffffffffffffffffffffffff160217905550808273ffffffffffffffffffffffffffffffffffffffff16612a8e83611076565b73ffffffffffffffffffffffffffffffffffffffff167f8c5be1e5ebec7d5bd14f71427d1e84f3dd0314c0f7b2291e5b200ac8c7c3b92560405160405180910390a45050565b6000612adf826129a7565b612b1e576040517f08c379a0000000000000000000000000000000000000000000000000000000008152600401612b15906155aa565b60405180910390fd5b6000612b2983611076565b90508073ffffffffffffffffffffffffffffffffffffffff168473ffffffffffffffffffffffffffffffffffffffff161480612b9857508373ffffffffffffffffffffffffffffffffffffffff16612b8084610aaa565b73ffffffffffffffffffffffffffffffffffffffff16145b80612ba95750612ba881856125e2565b5b91505092915050565b8273ffffffffffffffffffffffffffffffffffffffff16612bd282611076565b73ffffffffffffffffffffffffffffffffffffffff1614612c28576040517f08c379a0000000000000000000000000000000000000000000000000000000008152600401612c1f9061563c565b60405180910390fd5b600073ffffffffffffffffffffffffffffffffffffffff168273ffffffffffffffffffffffffffffffffffffffff161415612c98576040517f08c379a0000000000000000000000000000000000000000000000000000000008152600401612c8f906156ce565b60405180910390fd5b612ca3838383613901565b612cae600082612a1b565b6001600360008573ffffffffffffffffffffffffffffffffffffffff1673ffffffffffffffffffffffffffffffffffffffff1681526020019081526020016000206000828254612cfe9190614ed2565b925050819055506001600360008473ffffffffffffffffffffffffffffffffffffffff1673ffffffffffffffffffffffffffffffffffffffff1681526020019081526020016000206000828254612d55919061508a565b92505081905550816002600083815260200190815260200160002060006101000a81548173ffffffffffffffffffffffffffffffffffffffff021916908373ffffffffffffffffffffffffffffffffffffffff160217905550808273ffffffffffffffffffffffffffffffffffffffff168473ffffffffffffffffffffffffffffffffffffffff167fddf252ad1be2c89b69c2b068fc378daa952ba7f163c4a11628f55a4df523b3ef60405160405180910390a4505050565b6000806000905060008390505b80518210156130c457600060f81b6007828481518110612e3e57612e3d614de2565b5b602001015160f81c60f81b7effffffffffffffffffffffffffffffffffffffffffffffffffffffffffffff1916901c7effffffffffffffffffffffffffffffffffffffffffffffffffffffffffffff19161415612ea957600182612ea2919061508a565b91506130b1565b600660f81b7effffffffffffffffffffffffffffffffffffffffffffffffffffffffffffff19166005828481518110612ee557612ee4614de2565b5b602001015160f81c60f81b7effffffffffffffffffffffffffffffffffffffffffffffffffffffffffffff1916901c7effffffffffffffffffffffffffffffffffffffffffffffffffffffffffffff19161415612f5057600282612f49919061508a565b91506130b0565b600e60f81b7effffffffffffffffffffffffffffffffffffffffffffffffffffffffffffff19166004828481518110612f8c57612f8b614de2565b5b602001015160f81c60f81b7effffffffffffffffffffffffffffffffffffffffffffffffffffffffffffff1916901c7effffffffffffffffffffffffffffffffffffffffffffffffffffffffffffff19161415612ff757600382612ff0919061508a565b91506130af565b601e60f81b7effffffffffffffffffffffffffffffffffffffffffffffffffffffffffffff1916600382848151811061303357613032614de2565b5b602001015160f81c60f81b7effffffffffffffffffffffffffffffffffffffffffffffffffffffffffffff1916901c7effffffffffffffffffffffffffffffffffffffffffffffffffffffffffffff1916141561309e57600482613097919061508a565b91506130ae565b6001826130ab919061508a565b91505b5b5b5b82806130bc90615370565b935050612e1b565b5050919050565b6000600660009054906101000a900473ffffffffffffffffffffffffffffffffffffffff16905081600660006101000a81548173ffffffffffffffffffffffffffffffffffffffff021916908373ffffffffffffffffffffffffffffffffffffffff1602179055508173ffffffffffffffffffffffffffffffffffffffff168173ffffffffffffffffffffffffffffffffffffffff167f8be0079c531659141344cd1fd0a4f28419497f9722a3daafe3b4186f6b6457e060405160405180910390a35050565b6000428260c0015111159050919050565b60008082426131b1919061508a565b6040516020016131c1919061570f565b6040516020818303038152906040528051906020012060001c905064e8d4a51000816131ed9190615059565b915050919050565b60008183613203919061508a565b905092915050565b60008183613219919061572a565b905092915050565b6000818361322f9190614ed2565b905092915050565b6000604051806101200160405280600c5481526020018381526020016101f48152602001600a8152602001600a8152602001600161ffff16815260200142815260200160008152602001604051806020016040528060008152508152509050600e819080600181540180825580915050600190039060005260206000209060090201600090919091909150600082015181600001556020820151816001015560408201518160020155606082015181600301556080820151816004015560a08201518160050160006101000a81548161ffff021916908361ffff16021790555060c0820151816006015560e08201518160070155610100820151816008019080519060200190613348929190613ce8565b50505061335733600c54613906565b3373ffffffffffffffffffffffffffffffffffffffff167fad1c7ab5bfbe86a51764200b1532f3893b41563e78abe6d6eac4bbd987f38c68600c54846040516133a192919061575b565b60405180910390a26133bf6001600c546131f590919063ffffffff16565b600c819055505050565b8173ffffffffffffffffffffffffffffffffffffffff168373ffffffffffffffffffffffffffffffffffffffff161415613438576040517f08c379a000000000000000000000000000000000000000000000000000000000815260040161342f906157d0565b60405180910390fd5b80600560008573ffffffffffffffffffffffffffffffffffffffff1673ffffffffffffffffffffffffffffffffffffffff16815260200190815260200160002060008473ffffffffffffffffffffffffffffffffffffffff1673ffffffffffffffffffffffffffffffffffffffff16815260200190815260200160002060006101000a81548160ff0219169083151502179055508173ffffffffffffffffffffffffffffffffffffffff168373ffffffffffffffffffffffffffffffffffffffff167f17307eab39ab6107e8899845ad3d59bd9653f200f220920489ca2b5937696c31836040516135299190613e8f565b60405180910390a3505050565b613541848484612bb2565b61354d84848484613924565b61358c576040517f08c379a000000000000000000000000000000000000000000000000000000000815260040161358390615862565b60405180910390fd5b50505050565b606060405180602001604052806000815250905090565b606060008214156135f1576040518060400160405280600181526020017f30000000000000000000000000000000000000000000000000000000000000008152509050613705565b600082905060005b6000821461362357808061360c90615370565b915050600a8261361c919061572a565b91506135f9565b60008167ffffffffffffffff81111561363f5761363e6140ed565b5b6040519080825280601f01601f1916602001820160405280156136715781602001600182028036833780820191505090505b5090505b600085146136fe5760018261368a9190614ed2565b9150600a856136999190615059565b60306136a5919061508a565b60f81b8183815181106136bb576136ba614de2565b5b60200101907effffffffffffffffffffffffffffffffffffffffffffffffffffffffffffff1916908160001a905350600a856136f7919061572a565b9450613675565b8093505050505b919050565b60126040518060c00160405280601154815260200183806020019061372f9190615882565b8080601f016020809104026020016040519081016040528093929190818152602001838380828437600081840152601f19601f820116905080830192505050505050508152602001836040013581526020018360600160208101906137949190615911565b60ff1681526020018380608001906137ac9190615882565b8080601f016020809104026020016040519081016040528093929190818152602001838380828437600081840152601f19601f8201169050808301925050505050505081526020018360a00160208101906138079190615963565b6005811115613819576138186146d8565b5b815250908060018154018082558091505060019003906000526020600020906006020160009091909190915060008201518160000155602082015181600101908051906020019061386b929190613ce8565b506040820151816002015560608201518160030160006101000a81548160ff021916908360ff16021790555060808201518160040190805190602001906138b3929190613ce8565b5060a08201518160050160006101000a81548160ff021916908360058111156138df576138de6146d8565b5b02179055505050601160008154809291906138f990615370565b919050555050565b505050565b613920828260405180602001604052806000815250613aac565b5050565b60006139458473ffffffffffffffffffffffffffffffffffffffff16613b07565b15613a9f578373ffffffffffffffffffffffffffffffffffffffff1663150b7a0261396e612a13565b8786866040518563ffffffff1660e01b815260040161399094939291906159e5565b6020604051808303816000875af19250505080156139cc57506040513d601f19601f820116820180604052508101906139c99190615a46565b60015b613a4f573d80600081146139fc576040519150601f19603f3d011682016040523d82523d6000602084013e613a01565b606091505b50600081511415613a47576040517f08c379a0000000000000000000000000000000000000000000000000000000008152600401613a3e90615862565b60405180910390fd5b805181602001fd5b63150b7a0260e01b7bffffffffffffffffffffffffffffffffffffffffffffffffffffffff1916817bffffffffffffffffffffffffffffffffffffffffffffffffffffffff191614915050613aa4565b600190505b949350505050565b613ab68383613b1a565b613ac36000848484613924565b613b02576040517f08c379a0000000000000000000000000000000000000000000000000000000008152600401613af990615862565b60405180910390fd5b505050565b600080823b905060008111915050919050565b600073ffffffffffffffffffffffffffffffffffffffff168273ffffffffffffffffffffffffffffffffffffffff161415613b8a576040517f08c379a0000000000000000000000000000000000000000000000000000000008152600401613b8190615abf565b60405180910390fd5b613b93816129a7565b15613bd3576040517f08c379a0000000000000000000000000000000000000000000000000000000008152600401613bca90615b2b565b60405180910390fd5b613bdf60008383613901565b6001600360008473ffffffffffffffffffffffffffffffffffffffff1673ffffffffffffffffffffffffffffffffffffffff1681526020019081526020016000206000828254613c2f919061508a565b92505081905550816002600083815260200190815260200160002060006101000a81548173ffffffffffffffffffffffffffffffffffffffff021916908373ffffffffffffffffffffffffffffffffffffffff160217905550808273ffffffffffffffffffffffffffffffffffffffff16600073ffffffffffffffffffffffffffffffffffffffff167fddf252ad1be2c89b69c2b068fc378daa952ba7f163c4a11628f55a4df523b3ef60405160405180910390a45050565b828054613cf4906149fe565b90600052602060002090601f016020900481019282613d165760008555613d5d565b82601f10613d2f57805160ff1916838001178555613d5d565b82800160010185558215613d5d579182015b82811115613d5c578251825591602001919060010190613d41565b5b509050613d6a9190613dbe565b5090565b6040518061012001604052806000815260200160008152602001600081526020016000815260200160008152602001600061ffff1681526020016000815260200160008152602001606081525090565b5b80821115613dd7576000816000905550600101613dbf565b5090565b6000604051905090565b600080fd5b600080fd5b60007fffffffff0000000000000000000000000000000000000000000000000000000082169050919050565b613e2481613def565b8114613e2f57600080fd5b50565b600081359050613e4181613e1b565b92915050565b600060208284031215613e5d57613e5c613de5565b5b6000613e6b84828501613e32565b91505092915050565b60008115159050919050565b613e8981613e74565b82525050565b6000602082019050613ea46000830184613e80565b92915050565b600081519050919050565b600082825260208201905092915050565b60005b83811015613ee4578082015181840152602081019050613ec9565b83811115613ef3576000848401525b50505050565b6000601f19601f8301169050919050565b6000613f1582613eaa565b613f1f8185613eb5565b9350613f2f818560208601613ec6565b613f3881613ef9565b840191505092915050565b60006020820190508181036000830152613f5d8184613f0a565b905092915050565b6000819050919050565b613f7881613f65565b8114613f8357600080fd5b50565b600081359050613f9581613f6f565b92915050565b600060208284031215613fb157613fb0613de5565b5b6000613fbf84828501613f86565b91505092915050565b600073ffffffffffffffffffffffffffffffffffffffff82169050919050565b6000613ff382613fc8565b9050919050565b61400381613fe8565b82525050565b600060208201905061401e6000830184613ffa565b92915050565b61402d81613fe8565b811461403857600080fd5b50565b60008135905061404a81614024565b92915050565b6000806040838503121561406757614066613de5565b5b60006140758582860161403b565b925050602061408685828601613f86565b9150509250929050565b6000806000606084860312156140a9576140a8613de5565b5b60006140b78682870161403b565b93505060206140c88682870161403b565b92505060406140d986828701613f86565b9150509250925092565b600080fd5b600080fd5b7f4e487b7100000000000000000000000000000000000000000000000000000000600052604160045260246000fd5b61412582613ef9565b810181811067ffffffffffffffff82111715614144576141436140ed565b5b80604052505050565b6000614157613ddb565b9050614163828261411c565b919050565b600067ffffffffffffffff821115614183576141826140ed565b5b61418c82613ef9565b9050602081019050919050565b82818337600083830152505050565b60006141bb6141b684614168565b61414d565b9050828152602081018484840111156141d7576141d66140e8565b5b6141e2848285614199565b509392505050565b600082601f8301126141ff576141fe6140e3565b5b813561420f8482602086016141a8565b91505092915050565b6000806040838503121561422f5761422e613de5565b5b600061423d85828601613f86565b925050602083013567ffffffffffffffff81111561425e5761425d613dea565b5b61426a858286016141ea565b9150509250929050565b60006020828403121561428a57614289613de5565b5b600082013567ffffffffffffffff8111156142a8576142a7613dea565b5b6142b4848285016141ea565b91505092915050565b6142c681613f65565b82525050565b60006020820190506142e160008301846142bd565b92915050565b6000602082840312156142fd576142fc613de5565b5b600061430b8482850161403b565b91505092915050565b600081519050919050565b600082825260208201905092915050565b6000819050602082019050919050565b61434981613f65565b82525050565b600061ffff82169050919050565b6143668161434f565b82525050565b600082825260208201905092915050565b600061438882613eaa565b614392818561436c565b93506143a2818560208601613ec6565b6143ab81613ef9565b840191505092915050565b6000610120830160008301516143cf6000860182614340565b5060208301516143e26020860182614340565b5060408301516143f56040860182614340565b5060608301516144086060860182614340565b50608083015161441b6080860182614340565b5060a083015161442e60a086018261435d565b5060c083015161444160c0860182614340565b5060e083015161445460e0860182614340565b5061010083015184820361010086015261446e828261437d565b9150508091505092915050565b600061448783836143b6565b905092915050565b6000602082019050919050565b60006144a782614314565b6144b1818561431f565b9350836020820285016144c385614330565b8060005b858110156144ff57848403895281516144e0858261447b565b94506144eb8361448f565b925060208a019950506001810190506144c7565b50829750879550505050505092915050565b6000602082019050818103600083015261452b818461449c565b905092915050565b6000819050919050565b600061455861455361454e84613fc8565b614533565b613fc8565b9050919050565b600061456a8261453d565b9050919050565b600061457c8261455f565b9050919050565b61458c81614571565b82525050565b60006020820190506145a76000830184614583565b92915050565b6145b681613e74565b81146145c157600080fd5b50565b6000813590506145d3816145ad565b92915050565b600080604083850312156145f0576145ef613de5565b5b60006145fe8582860161403b565b925050602061460f858286016145c4565b9150509250929050565b6146228161434f565b82525050565b60006101208201905061463e600083018c6142bd565b61464b602083018b6142bd565b614658604083018a6142bd565b61466560608301896142bd565b61467260808301886142bd565b61467f60a0830187614619565b61468c60c08301866142bd565b61469960e08301856142bd565b8181036101008301526146ac8184613f0a565b90509a9950505050505050505050565b600060ff82169050919050565b6146d2816146bc565b82525050565b7f4e487b7100000000000000000000000000000000000000000000000000000000600052602160045260246000fd5b60068110614718576147176146d8565b5b50565b600081905061472982614707565b919050565b60006147398261471b565b9050919050565b6147498161472e565b82525050565b600060c08201905061476460008301896142bd565b81810360208301526147768188613f0a565b905061478560408301876142bd565b61479260608301866146c9565b81810360808301526147a48185613f0a565b90506147b360a0830184614740565b979650505050505050565b600067ffffffffffffffff8211156147d9576147d86140ed565b5b6147e282613ef9565b9050602081019050919050565b60006148026147fd846147be565b61414d565b90508281526020810184848401111561481e5761481d6140e8565b5b614829848285614199565b509392505050565b600082601f830112614846576148456140e3565b5b81356148568482602086016147ef565b91505092915050565b6000806000806080858703121561487957614878613de5565b5b60006148878782880161403b565b94505060206148988782880161403b565b93505060406148a987828801613f86565b925050606085013567ffffffffffffffff8111156148ca576148c9613dea565b5b6148d687828801614831565b91505092959194509250565b600080604083850312156148f9576148f8613de5565b5b60006149078582860161403b565b92505060206149188582860161403b565b9150509250929050565b600080fd5b600080fd5b60008083601f840112614942576149416140e3565b5b8235905067ffffffffffffffff81111561495f5761495e614922565b5b60208301915083602082028301111561497b5761497a614927565b5b9250929050565b6000806020838503121561499957614998613de5565b5b600083013567ffffffffffffffff8111156149b7576149b6613dea565b5b6149c38582860161492c565b92509250509250929050565b7f4e487b7100000000000000000000000000000000000000000000000000000000600052602260045260246000fd5b60006002820490506001821680614a1657607f821691505b60208210811415614a2a57614a296149cf565b5b50919050565b7f4552433732313a20617070726f76656420717565727920666f72206e6f6e657860008201527f697374656e7420746f6b656e0000000000000000000000000000000000000000602082015250565b6000614a8c602c83613eb5565b9150614a9782614a30565b604082019050919050565b60006020820190508181036000830152614abb81614a7f565b9050919050565b7f4552433732313a20617070726f76616c20746f2063757272656e74206f776e6560008201527f7200000000000000000000000000000000000000000000000000000000000000602082015250565b6000614b1e602183613eb5565b9150614b2982614ac2565b604082019050919050565b60006020820190508181036000830152614b4d81614b11565b9050919050565b7f4552433732313a20617070726f76652063616c6c6572206973206e6f74206f7760008201527f6e6572206e6f7220617070726f76656420666f7220616c6c0000000000000000602082015250565b6000614bb0603883613eb5565b9150614bbb82614b54565b604082019050919050565b60006020820190508181036000830152614bdf81614ba3565b9050919050565b7f4552433732313a207472616e736665722063616c6c6572206973206e6f74206f60008201527f776e6572206e6f7220617070726f766564000000000000000000000000000000602082015250565b6000614c42603183613eb5565b9150614c4d82614be6565b604082019050919050565b60006020820190508181036000830152614c7181614c35565b9050919050565b7f4f776e61626c653a2063616c6c6572206973206e6f7420746865206f776e6572600082015250565b6000614cae602083613eb5565b9150614cb982614c78565b602082019050919050565b60006020820190508181036000830152614cdd81614ca1565b9050919050565b7f596f7520646f6e2774206861766520616e206163636f756e7400000000000000600082015250565b6000614d1a601983613eb5565b9150614d2582614ce4565b602082019050919050565b60006020820190508181036000830152614d4981614d0d565b9050919050565b7f546865206865726f206e616d65206d757374206265206265747765656e20332060008201527f616e642031322063686172616374657273000000000000000000000000000000602082015250565b6000614dac603183613eb5565b9150614db782614d50565b604082019050919050565b60006020820190508181036000830152614ddb81614d9f565b9050919050565b7f4e487b7100000000000000000000000000000000000000000000000000000000600052603260045260246000fd5b7f4552433732313a206f776e657220717565727920666f72206e6f6e657869737460008201527f656e7420746f6b656e0000000000000000000000000000000000000000000000602082015250565b6000614e6d602983613eb5565b9150614e7882614e11565b604082019050919050565b60006020820190508181036000830152614e9c81614e60565b9050919050565b7f4e487b7100000000000000000000000000000000000000000000000000000000600052601160045260246000fd5b6000614edd82613f65565b9150614ee883613f65565b925082821015614efb57614efa614ea3565b5b828203905092915050565b7f4552433732313a2062616c616e636520717565727920666f7220746865207a6560008201527f726f206164647265737300000000000000000000000000000000000000000000602082015250565b6000614f62602a83613eb5565b9150614f6d82614f06565b604082019050919050565b60006020820190508181036000830152614f9181614f55565b9050919050565b7f4865726f206973206e6f7420726561647920746f20676f2061206e657720616460008201527f76656e74757265207965742e2e00000000000000000000000000000000000000602082015250565b6000614ff4602d83613eb5565b9150614fff82614f98565b604082019050919050565b6000602082019050818103600083015261502381614fe7565b9050919050565b7f4e487b7100000000000000000000000000000000000000000000000000000000600052601260045260246000fd5b600061506482613f65565b915061506f83613f65565b92508261507f5761507e61502a565b5b828206905092915050565b600061509582613f65565b91506150a083613f65565b9250827fffffffffffffffffffffffffffffffffffffffffffffffffffffffffffffffff038211156150d5576150d4614ea3565b5b828201905092915050565b60008190508160005260206000209050919050565b60008154615102816149fe565b61510c8186613eb5565b9450600182166000811461512757600181146151395761516c565b60ff198316865260208601935061516c565b615142856150e0565b60005b8381101561516457815481890152600182019150602081019050615145565b808801955050505b50505092915050565b6000606082019050818103600083015261518f81866150f5565b905061519e6020830185614740565b6151ab60408301846142bd565b949350505050565b600081905092915050565b60006151c982613eaa565b6151d381856151b3565b93506151e3818560208601613ec6565b80840191505092915050565b60006151fb82846151be565b915081905092915050565b7f557365726e616d652069732074616b656e000000000000000000000000000000600082015250565b600061523c601183613eb5565b915061524782615206565b602082019050919050565b6000602082019050818103600083015261526b8161522f565b9050919050565b7f596f7520616c7265616479206861766520616e206163636f756e742100000000600082015250565b60006152a8601c83613eb5565b91506152b382615272565b602082019050919050565b600060208201905081810360008301526152d78161529b565b9050919050565b7f557365726e616d65206d757374206265206265747765656e203320616e64203160008201527f3220636861726163746572730000000000000000000000000000000000000000602082015250565b600061533a602c83613eb5565b9150615345826152de565b604082019050919050565b600060208201905081810360008301526153698161532d565b9050919050565b600061537b82613f65565b91507fffffffffffffffffffffffffffffffffffffffffffffffffffffffffffffffff8214156153ae576153ad614ea3565b5b600182019050919050565b7f4552433732314d657461646174613a2055524920717565727920666f72206e6f60008201527f6e6578697374656e7420746f6b656e0000000000000000000000000000000000602082015250565b6000615415602f83613eb5565b9150615420826153b9565b604082019050919050565b6000602082019050818103600083015261544481615408565b9050919050565b600061545782856151be565b915061546382846151be565b91508190509392505050565b600080fd5b600080fd5b600080fd5b60008235600160c00383360303811261549a5761549961546f565b5b80830191505092915050565b7f4f776e61626c653a206e6577206f776e657220697320746865207a65726f206160008201527f6464726573730000000000000000000000000000000000000000000000000000602082015250565b6000615502602683613eb5565b915061550d826154a6565b604082019050919050565b60006020820190508181036000830152615531816154f5565b9050919050565b7f4552433732313a206f70657261746f7220717565727920666f72206e6f6e657860008201527f697374656e7420746f6b656e0000000000000000000000000000000000000000602082015250565b6000615594602c83613eb5565b915061559f82615538565b604082019050919050565b600060208201905081810360008301526155c381615587565b9050919050565b7f4552433732313a207472616e73666572206f6620746f6b656e2074686174206960008201527f73206e6f74206f776e0000000000000000000000000000000000000000000000602082015250565b6000615626602983613eb5565b9150615631826155ca565b604082019050919050565b6000602082019050818103600083015261565581615619565b9050919050565b7f4552433732313a207472616e7366657220746f20746865207a65726f2061646460008201527f7265737300000000000000000000000000000000000000000000000000000000602082015250565b60006156b8602483613eb5565b91506156c38261565c565b604082019050919050565b600060208201905081810360008301526156e7816156ab565b9050919050565b6000819050919050565b61570961570482613f65565b6156ee565b82525050565b600061571b82846156f8565b60208201915081905092915050565b600061573582613f65565b915061574083613f65565b9250826157505761574f61502a565b5b828204905092915050565b600060408201905061577060008301856142bd565b61577d60208301846142bd565b9392505050565b7f4552433732313a20617070726f766520746f2063616c6c657200000000000000600082015250565b60006157ba601983613eb5565b91506157c582615784565b602082019050919050565b600060208201905081810360008301526157e9816157ad565b9050919050565b7f4552433732313a207472616e7366657220746f206e6f6e20455243373231526560008201527f63656976657220696d706c656d656e7465720000000000000000000000000000602082015250565b600061584c603283613eb5565b9150615857826157f0565b604082019050919050565b6000602082019050818103600083015261587b8161583f565b9050919050565b6000808335600160200384360303811261589f5761589e61546f565b5b80840192508235915067ffffffffffffffff8211156158c1576158c0615474565b5b6020830192506001820236038313156158dd576158dc615479565b5b509250929050565b6158ee816146bc565b81146158f957600080fd5b50565b60008135905061590b816158e5565b92915050565b60006020828403121561592757615926613de5565b5b6000615935848285016158fc565b91505092915050565b6006811061594b57600080fd5b50565b60008135905061595d8161593e565b92915050565b60006020828403121561597957615978613de5565b5b60006159878482850161594e565b91505092915050565b600081519050919050565b600082825260208201905092915050565b60006159b782615990565b6159c1818561599b565b93506159d1818560208601613ec6565b6159da81613ef9565b840191505092915050565b60006080820190506159fa6000830187613ffa565b615a076020830186613ffa565b615a1460408301856142bd565b8181036060830152615a2681846159ac565b905095945050505050565b600081519050615a4081613e1b565b92915050565b600060208284031215615a5c57615a5b613de5565b5b6000615a6a84828501615a31565b91505092915050565b7f4552433732313a206d696e7420746f20746865207a65726f2061646472657373600082015250565b6000615aa9602083613eb5565b9150615ab482615a73565b602082019050919050565b60006020820190508181036000830152615ad881615a9c565b9050919050565b7f4552433732313a20746f6b656e20616c7265616479206d696e74656400000000600082015250565b6000615b15601c83613eb5565b9150615b2082615adf565b602082019050919050565b60006020820190508181036000830152615b4481615b08565b905091905056fea264697066735822122069102d3021923a5a399b6d10119b1d252386da4b83cf4d8e44b7374a11165d3d64736f6c634300080a0033",
  "immutableReferences": {},
  "source": "// SPDX-License-Identifier: MIT\r\npragma solidity ^0.8.7;\r\nimport \"./IotaHeroUtil.sol\";\r\nimport \"./IotaHeroGameTokens.sol\";\r\n\r\ncontract IotaHeroAdventure is IotaHeroUtil {\r\n    IotaHeroGameTokens public tokens;\r\n    using SafeMath for uint256;\r\n    uint256 randomNonce = 0;\r\n    uint256 adventureCounter = 0;\r\n\r\n    enum AdventureType {\r\n        MONSTER,\r\n        EMPTY,\r\n        MENTAL_TRAINING,\r\n        PHYSICAL_TRAINING,\r\n        FRIENDLY,\r\n        ENVIRONMENT\r\n    }\r\n\r\n    struct Adventure {\r\n        uint256 id;\r\n        string name;\r\n        uint256 xpRequirement;\r\n        uint8 difficulty;\r\n        string description;\r\n        AdventureType adventureType;\r\n    }\r\n    Adventure[] public adventures;\r\n\r\n    function setTokens(address tokensAddress) public onlyOwner {\r\n        tokens = IotaHeroGameTokens(tokensAddress);\r\n    }\r\n\r\n    function getTokenAddress() public view returns (address) {\r\n        return address(tokens);\r\n    }\r\n\r\n    function addAdventures(Adventure[] calldata _adventures) public onlyOwner {\r\n        for (uint256 i = 0; i < _adventures.length; i++) {\r\n            _addAdventure(_adventures[i]);\r\n        }\r\n    }\r\n\r\n    function _addAdventure(Adventure calldata _adventure) internal {\r\n        adventures.push(\r\n            Adventure(\r\n                adventureCounter,\r\n                _adventure.name,\r\n                _adventure.xpRequirement,\r\n                _adventure.difficulty,\r\n                _adventure.description,\r\n                _adventure.adventureType\r\n            )\r\n        );\r\n        adventureCounter++;\r\n    }\r\n\r\n    event AdventureCompleted(\r\n        address indexed player,\r\n        uint256 indexed heroId,\r\n        string name,\r\n        AdventureType adventureType,\r\n        uint256 rand\r\n    );\r\n\r\n    function goAdventure(uint256 _heroId)\r\n        external\r\n        hasAccount\r\n        onlyOwnerOf(_heroId)\r\n    {\r\n        Hero storage myHero = heroes[_heroId];\r\n        require(\r\n            heroIsReady(myHero),\r\n            \"Hero is not ready to go a new adventure yet..\"\r\n        );\r\n\r\n        uint256 rand = _pseudoRandom(randomNonce) % 100;\r\n        uint256 rand2 = _pseudoRandom(rand);\r\n        Adventure storage adv = adventures[rand2 % adventures.length];\r\n        if (adv.adventureType == AdventureType.MONSTER) {\r\n            if (rand < 50) {\r\n                myHero.xp = myHero.xp.add(100);\r\n                tokens.awardAdventurer(msg.sender);\r\n            } else {\r\n                myHero.xp = myHero.xp.div(2);\r\n            }\r\n        } else if (adv.adventureType == AdventureType.FRIENDLY) {\r\n            tokens.awardAdventurer(msg.sender);\r\n        } else if (adv.adventureType == AdventureType.ENVIRONMENT) {\r\n            if (rand < 50) {\r\n                myHero.physical = myHero.physical.add(1);\r\n            } else {\r\n                myHero.physical = myHero.physical.sub(1);\r\n            }\r\n        } else if (adv.adventureType == AdventureType.EMPTY) {\r\n            // do nothing\r\n        } else if (adv.adventureType == AdventureType.MENTAL_TRAINING) {\r\n            if (rand < 50) {\r\n                myHero.mental = myHero.mental.add(1);\r\n            }\r\n        } else if (adv.adventureType == AdventureType.PHYSICAL_TRAINING) {\r\n            if (rand < 50) {\r\n                myHero.physical = myHero.physical.add(1);\r\n            }\r\n        }\r\n        myHero.debug = rand;\r\n        myHero.restingTill = uint32(block.timestamp + adventureCoolDown);\r\n        randomNonce = randomNonce.add(1);\r\n        emit AdventureCompleted(\r\n            msg.sender,\r\n            _heroId,\r\n            adv.name,\r\n            adv.adventureType,\r\n            rand\r\n        );\r\n    }\r\n}\r\n",
  "sourcePath": "C:\\Users\\creld\\source\\repos\\IotaHeroes\\smartcontracts\\contracts\\IotaHeroAdventure.sol",
  "compiler": {
    "name": "solc",
    "version": "0.8.10+commit.fc410830.Emscripten.clang"
  },
  "schemaVersion": "3.4.4",
  "updatedAt": "2022-01-15T12:55:23.104Z",
  "networkType": "ethereum",
  "devdoc": {
    "kind": "dev",
    "methods": {
      "approve(address,uint256)": {
        "details": "See {IERC721-approve}."
      },
      "balanceOf(address)": {
        "details": "See {IERC721-balanceOf}."
      },
      "getApproved(uint256)": {
        "details": "See {IERC721-getApproved}."
      },
      "isApprovedForAll(address,address)": {
        "details": "See {IERC721-isApprovedForAll}."
      },
      "name()": {
        "details": "See {IERC721Metadata-name}."
      },
      "owner()": {
        "details": "Returns the address of the current owner."
      },
      "ownerOf(uint256)": {
        "details": "See {IERC721-ownerOf}."
      },
      "renounceOwnership()": {
        "details": "Leaves the contract without owner. It will not be possible to call `onlyOwner` functions anymore. Can only be called by the current owner. NOTE: Renouncing ownership will leave the contract without an owner, thereby removing any functionality that is only available to the owner."
      },
      "safeTransferFrom(address,address,uint256)": {
        "details": "See {IERC721-safeTransferFrom}."
      },
      "safeTransferFrom(address,address,uint256,bytes)": {
        "details": "See {IERC721-safeTransferFrom}."
      },
      "setApprovalForAll(address,bool)": {
        "details": "See {IERC721-setApprovalForAll}."
      },
      "supportsInterface(bytes4)": {
        "details": "See {IERC165-supportsInterface}."
      },
      "symbol()": {
        "details": "See {IERC721Metadata-symbol}."
      },
      "tokenURI(uint256)": {
        "details": "See {IERC721Metadata-tokenURI}."
      },
      "transferFrom(address,address,uint256)": {
        "details": "See {IERC721-transferFrom}."
      },
      "transferOwnership(address)": {
        "details": "Transfers ownership of the contract to a new account (`newOwner`). Can only be called by the current owner."
      }
    },
    "version": 1
  },
  "userdoc": {
    "kind": "user",
    "methods": {},
    "version": 1
  }
}