{
  "contractName": "IotaHeroUtil",
  "abi": [
    {
      "anonymous": false,
      "inputs": [
        {
          "indexed": true,
          "internalType": "address",
          "name": "owner",
          "type": "address"
        },
        {
          "indexed": true,
          "internalType": "address",
          "name": "approved",
          "type": "address"
        },
        {
          "indexed": true,
          "internalType": "uint256",
          "name": "tokenId",
          "type": "uint256"
        }
      ],
      "name": "Approval",
      "type": "event"
    },
    {
      "anonymous": false,
      "inputs": [
        {
          "indexed": true,
          "internalType": "address",
          "name": "owner",
          "type": "address"
        },
        {
          "indexed": true,
          "internalType": "address",
          "name": "operator",
          "type": "address"
        },
        {
          "indexed": false,
          "internalType": "bool",
          "name": "approved",
          "type": "bool"
        }
      ],
      "name": "ApprovalForAll",
      "type": "event"
    },
    {
      "anonymous": false,
      "inputs": [
        {
          "indexed": true,
          "internalType": "address",
          "name": "owner",
          "type": "address"
        },
        {
          "indexed": false,
          "internalType": "uint256",
          "name": "id",
          "type": "uint256"
        },
        {
          "indexed": false,
          "internalType": "uint256",
          "name": "dna",
          "type": "uint256"
        }
      ],
      "name": "HeroMinted",
      "type": "event"
    },
    {
      "anonymous": false,
      "inputs": [
        {
          "indexed": true,
          "internalType": "address",
          "name": "previousOwner",
          "type": "address"
        },
        {
          "indexed": true,
          "internalType": "address",
          "name": "newOwner",
          "type": "address"
        }
      ],
      "name": "OwnershipTransferred",
      "type": "event"
    },
    {
      "anonymous": false,
      "inputs": [
        {
          "indexed": true,
          "internalType": "address",
          "name": "from",
          "type": "address"
        },
        {
          "indexed": true,
          "internalType": "address",
          "name": "to",
          "type": "address"
        },
        {
          "indexed": true,
          "internalType": "uint256",
          "name": "tokenId",
          "type": "uint256"
        }
      ],
      "name": "Transfer",
      "type": "event"
    },
    {
      "inputs": [
        {
          "internalType": "address",
          "name": "",
          "type": "address"
        }
      ],
      "name": "addressToId",
      "outputs": [
        {
          "internalType": "uint256",
          "name": "",
          "type": "uint256"
        }
      ],
      "stateMutability": "view",
      "type": "function"
    },
    {
      "inputs": [
        {
          "internalType": "address",
          "name": "to",
          "type": "address"
        },
        {
          "internalType": "uint256",
          "name": "tokenId",
          "type": "uint256"
        }
      ],
      "name": "approve",
      "outputs": [],
      "stateMutability": "nonpayable",
      "type": "function"
    },
    {
      "inputs": [
        {
          "internalType": "address",
          "name": "owner",
          "type": "address"
        }
      ],
      "name": "balanceOf",
      "outputs": [
        {
          "internalType": "uint256",
          "name": "",
          "type": "uint256"
        }
      ],
      "stateMutability": "view",
      "type": "function"
    },
    {
      "inputs": [],
      "name": "currentUserCount",
      "outputs": [
        {
          "internalType": "uint256",
          "name": "",
          "type": "uint256"
        }
      ],
      "stateMutability": "view",
      "type": "function"
    },
    {
      "inputs": [
        {
          "internalType": "uint256",
          "name": "tokenId",
          "type": "uint256"
        }
      ],
      "name": "getApproved",
      "outputs": [
        {
          "internalType": "address",
          "name": "",
          "type": "address"
        }
      ],
      "stateMutability": "view",
      "type": "function"
    },
    {
      "inputs": [],
      "name": "getUsername",
      "outputs": [
        {
          "internalType": "string",
          "name": "",
          "type": "string"
        }
      ],
      "stateMutability": "view",
      "type": "function"
    },
    {
      "inputs": [
        {
          "internalType": "address",
          "name": "_address",
          "type": "address"
        }
      ],
      "name": "getUsernameByAddress",
      "outputs": [
        {
          "internalType": "string",
          "name": "",
          "type": "string"
        }
      ],
      "stateMutability": "view",
      "type": "function"
    },
    {
      "inputs": [],
      "name": "getUsernameLength",
      "outputs": [
        {
          "internalType": "uint256",
          "name": "",
          "type": "uint256"
        }
      ],
      "stateMutability": "view",
      "type": "function"
    },
    {
      "inputs": [
        {
          "internalType": "uint256",
          "name": "",
          "type": "uint256"
        }
      ],
      "name": "heroes",
      "outputs": [
        {
          "internalType": "uint256",
          "name": "id",
          "type": "uint256"
        },
        {
          "internalType": "uint256",
          "name": "dna",
          "type": "uint256"
        },
        {
          "internalType": "uint256",
          "name": "constitution",
          "type": "uint256"
        },
        {
          "internalType": "uint256",
          "name": "strength",
          "type": "uint256"
        },
        {
          "internalType": "uint256",
          "name": "agility",
          "type": "uint256"
        },
        {
          "internalType": "uint256",
          "name": "intelligence",
          "type": "uint256"
        },
        {
          "internalType": "uint256",
          "name": "restingTill",
          "type": "uint256"
        },
        {
          "internalType": "string",
          "name": "name",
          "type": "string"
        }
      ],
      "stateMutability": "view",
      "type": "function"
    },
    {
      "inputs": [
        {
          "internalType": "uint256",
          "name": "",
          "type": "uint256"
        }
      ],
      "name": "idToAddress",
      "outputs": [
        {
          "internalType": "address",
          "name": "",
          "type": "address"
        }
      ],
      "stateMutability": "view",
      "type": "function"
    },
    {
      "inputs": [
        {
          "internalType": "uint256",
          "name": "",
          "type": "uint256"
        }
      ],
      "name": "idToUsername",
      "outputs": [
        {
          "internalType": "string",
          "name": "",
          "type": "string"
        }
      ],
      "stateMutability": "view",
      "type": "function"
    },
    {
      "inputs": [
        {
          "internalType": "address",
          "name": "owner",
          "type": "address"
        },
        {
          "internalType": "address",
          "name": "operator",
          "type": "address"
        }
      ],
      "name": "isApprovedForAll",
      "outputs": [
        {
          "internalType": "bool",
          "name": "",
          "type": "bool"
        }
      ],
      "stateMutability": "view",
      "type": "function"
    },
    {
      "inputs": [],
      "name": "isSignedUp",
      "outputs": [
        {
          "internalType": "bool",
          "name": "",
          "type": "bool"
        }
      ],
      "stateMutability": "view",
      "type": "function"
    },
    {
      "inputs": [],
      "name": "name",
      "outputs": [
        {
          "internalType": "string",
          "name": "",
          "type": "string"
        }
      ],
      "stateMutability": "view",
      "type": "function"
    },
    {
      "inputs": [
        {
          "internalType": "uint256",
          "name": "_heroId",
          "type": "uint256"
        },
        {
          "internalType": "string",
          "name": "_name",
          "type": "string"
        }
      ],
      "name": "nameChange",
      "outputs": [],
      "stateMutability": "nonpayable",
      "type": "function"
    },
    {
      "inputs": [],
      "name": "owner",
      "outputs": [
        {
          "internalType": "address",
          "name": "",
          "type": "address"
        }
      ],
      "stateMutability": "view",
      "type": "function"
    },
    {
      "inputs": [
        {
          "internalType": "uint256",
          "name": "tokenId",
          "type": "uint256"
        }
      ],
      "name": "ownerOf",
      "outputs": [
        {
          "internalType": "address",
          "name": "",
          "type": "address"
        }
      ],
      "stateMutability": "view",
      "type": "function"
    },
    {
      "inputs": [],
      "name": "renounceOwnership",
      "outputs": [],
      "stateMutability": "nonpayable",
      "type": "function"
    },
    {
      "inputs": [
        {
          "internalType": "address",
          "name": "from",
          "type": "address"
        },
        {
          "internalType": "address",
          "name": "to",
          "type": "address"
        },
        {
          "internalType": "uint256",
          "name": "tokenId",
          "type": "uint256"
        }
      ],
      "name": "safeTransferFrom",
      "outputs": [],
      "stateMutability": "nonpayable",
      "type": "function"
    },
    {
      "inputs": [
        {
          "internalType": "address",
          "name": "from",
          "type": "address"
        },
        {
          "internalType": "address",
          "name": "to",
          "type": "address"
        },
        {
          "internalType": "uint256",
          "name": "tokenId",
          "type": "uint256"
        },
        {
          "internalType": "bytes",
          "name": "_data",
          "type": "bytes"
        }
      ],
      "name": "safeTransferFrom",
      "outputs": [],
      "stateMutability": "nonpayable",
      "type": "function"
    },
    {
      "inputs": [
        {
          "internalType": "address",
          "name": "operator",
          "type": "address"
        },
        {
          "internalType": "bool",
          "name": "approved",
          "type": "bool"
        }
      ],
      "name": "setApprovalForAll",
      "outputs": [],
      "stateMutability": "nonpayable",
      "type": "function"
    },
    {
      "inputs": [
        {
          "internalType": "string",
          "name": "_username",
          "type": "string"
        }
      ],
      "name": "signUp",
      "outputs": [],
      "stateMutability": "nonpayable",
      "type": "function"
    },
    {
      "inputs": [],
      "name": "spawnHero",
      "outputs": [],
      "stateMutability": "nonpayable",
      "type": "function"
    },
    {
      "inputs": [
        {
          "internalType": "bytes4",
          "name": "interfaceId",
          "type": "bytes4"
        }
      ],
      "name": "supportsInterface",
      "outputs": [
        {
          "internalType": "bool",
          "name": "",
          "type": "bool"
        }
      ],
      "stateMutability": "view",
      "type": "function"
    },
    {
      "inputs": [],
      "name": "symbol",
      "outputs": [
        {
          "internalType": "string",
          "name": "",
          "type": "string"
        }
      ],
      "stateMutability": "view",
      "type": "function"
    },
    {
      "inputs": [
        {
          "internalType": "uint256",
          "name": "tokenId",
          "type": "uint256"
        }
      ],
      "name": "tokenURI",
      "outputs": [
        {
          "internalType": "string",
          "name": "",
          "type": "string"
        }
      ],
      "stateMutability": "view",
      "type": "function"
    },
    {
      "inputs": [
        {
          "internalType": "address",
          "name": "from",
          "type": "address"
        },
        {
          "internalType": "address",
          "name": "to",
          "type": "address"
        },
        {
          "internalType": "uint256",
          "name": "tokenId",
          "type": "uint256"
        }
      ],
      "name": "transferFrom",
      "outputs": [],
      "stateMutability": "nonpayable",
      "type": "function"
    },
    {
      "inputs": [
        {
          "internalType": "address",
          "name": "newOwner",
          "type": "address"
        }
      ],
      "name": "transferOwnership",
      "outputs": [],
      "stateMutability": "nonpayable",
      "type": "function"
    },
    {
      "inputs": [
        {
          "internalType": "string",
          "name": "_username",
          "type": "string"
        }
      ],
      "name": "usernameExists",
      "outputs": [
        {
          "internalType": "bool",
          "name": "",
          "type": "bool"
        }
      ],
      "stateMutability": "view",
      "type": "function"
    },
    {
      "inputs": [
        {
          "internalType": "string",
          "name": "",
          "type": "string"
        }
      ],
      "name": "usernameToId",
      "outputs": [
        {
          "internalType": "uint256",
          "name": "",
          "type": "uint256"
        }
      ],
      "stateMutability": "view",
      "type": "function"
    },
    {
      "inputs": [],
      "name": "withdraw",
      "outputs": [],
      "stateMutability": "payable",
      "type": "function"
    },
    {
      "inputs": [],
      "name": "getHeroes",
      "outputs": [
        {
          "components": [
            {
              "internalType": "uint256",
              "name": "id",
              "type": "uint256"
            },
            {
              "internalType": "uint256",
              "name": "dna",
              "type": "uint256"
            },
            {
              "internalType": "uint256",
              "name": "constitution",
              "type": "uint256"
            },
            {
              "internalType": "uint256",
              "name": "strength",
              "type": "uint256"
            },
            {
              "internalType": "uint256",
              "name": "agility",
              "type": "uint256"
            },
            {
              "internalType": "uint256",
              "name": "intelligence",
              "type": "uint256"
            },
            {
              "internalType": "uint256",
              "name": "restingTill",
              "type": "uint256"
            },
            {
              "internalType": "string",
              "name": "name",
              "type": "string"
            }
          ],
          "internalType": "struct IotaHeroFactory.Hero[]",
          "name": "",
          "type": "tuple[]"
        }
      ],
      "stateMutability": "view",
      "type": "function"
    },
    {
      "inputs": [
        {
          "internalType": "address",
          "name": "_owner",
          "type": "address"
        }
      ],
      "name": "getOwnerHeroes",
      "outputs": [
        {
          "components": [
            {
              "internalType": "uint256",
              "name": "id",
              "type": "uint256"
            },
            {
              "internalType": "uint256",
              "name": "dna",
              "type": "uint256"
            },
            {
              "internalType": "uint256",
              "name": "constitution",
              "type": "uint256"
            },
            {
              "internalType": "uint256",
              "name": "strength",
              "type": "uint256"
            },
            {
              "internalType": "uint256",
              "name": "agility",
              "type": "uint256"
            },
            {
              "internalType": "uint256",
              "name": "intelligence",
              "type": "uint256"
            },
            {
              "internalType": "uint256",
              "name": "restingTill",
              "type": "uint256"
            },
            {
              "internalType": "string",
              "name": "name",
              "type": "string"
            }
          ],
          "internalType": "struct IotaHeroFactory.Hero[]",
          "name": "",
          "type": "tuple[]"
        }
      ],
      "stateMutability": "view",
      "type": "function"
    }
  ],
  "bytecode": "0x608060405260016007556000600c55601e600d553480156200002057600080fd5b506040518060400160405280600881526020017f496f74614865726f0000000000000000000000000000000000000000000000008152506040518060400160405280600281526020017f49480000000000000000000000000000000000000000000000000000000000008152508160009080519060200190620000a5929190620001b5565b508060019080519060200190620000be929190620001b5565b505050620000e1620000d5620000e760201b60201c565b620000ef60201b60201c565b620002ca565b600033905090565b6000600660009054906101000a900473ffffffffffffffffffffffffffffffffffffffff16905081600660006101000a81548173ffffffffffffffffffffffffffffffffffffffff021916908373ffffffffffffffffffffffffffffffffffffffff1602179055508173ffffffffffffffffffffffffffffffffffffffff168173ffffffffffffffffffffffffffffffffffffffff167f8be0079c531659141344cd1fd0a4f28419497f9722a3daafe3b4186f6b6457e060405160405180910390a35050565b828054620001c39062000294565b90600052602060002090601f016020900481019282620001e7576000855562000233565b82601f106200020257805160ff191683800117855562000233565b8280016001018555821562000233579182015b828111156200023257825182559160200191906001019062000215565b5b50905062000242919062000246565b5090565b5b808211156200026157600081600090555060010162000247565b5090565b7f4e487b7100000000000000000000000000000000000000000000000000000000600052602260045260246000fd5b60006002820490506001821680620002ad57607f821691505b60208210811415620002c457620002c362000265565b5b50919050565b61488280620002da6000396000f3fe6080604052600436106101ee5760003560e01c8063715018a61161010d578063b88d4fde116100a0578063e985e9c51161006f578063e985e9c51461071d578063ed1a998d1461075a578063f1c4660614610797578063f2fde38b146107c2578063f309e3f9146107eb576101ee565b8063b88d4fde1461063d578063c87b56dd14610666578063cb0e0d7d146106a3578063ddf368a2146106e0576101ee565b80639f72ed76116100dc5780639f72ed7614610590578063a22cb465146105a7578063a8d4a03b146105d0578063adcfb4fc14610614576101ee565b8063715018a6146104f85780638da5cb5b1461050f57806395d89b411461053a5780639a8d288214610565576101ee565b80633ccfd60b116101855780636352211e116101545780636352211e14610428578063681f3e6d146104655780636d0cac8e1461049057806370a08231146104bb576101ee565b80633ccfd60b1461038f57806342842e0e1461039957806348646f7b146103c25780635e1fe1db146103eb576101ee565b8063191d1cb4116101c1578063191d1cb4146102c157806323b872dd146102ec5780632a2d0c471461031557806339bdca1f14610352576101ee565b806301ffc9a7146101f357806306fdde0314610230578063081812fc1461025b578063095ea7b314610298575b600080fd5b3480156101ff57600080fd5b5061021a6004803603810190610215919061306b565b610828565b60405161022791906130b3565b60405180910390f35b34801561023c57600080fd5b5061024561090a565b6040516102529190613167565b60405180910390f35b34801561026757600080fd5b50610282600480360381019061027d91906131bf565b61099c565b60405161028f919061322d565b60405180910390f35b3480156102a457600080fd5b506102bf60048036038101906102ba9190613274565b610a21565b005b3480156102cd57600080fd5b506102d6610b39565b6040516102e391906130b3565b60405180910390f35b3480156102f857600080fd5b50610313600480360381019061030e91906132b4565b610b83565b005b34801561032157600080fd5b5061033c600480360381019061033791906131bf565b610be3565b604051610349919061322d565b60405180910390f35b34801561035e57600080fd5b50610379600480360381019061037491906131bf565b610c16565b6040516103869190613167565b60405180910390f35b610397610cb6565b005b3480156103a557600080fd5b506103c060048036038101906103bb91906132b4565b610d88565b005b3480156103ce57600080fd5b506103e960048036038101906103e4919061343c565b610da8565b005b3480156103f757600080fd5b50610412600480360381019061040d9190613498565b610f10565b60405161041f91906134f0565b60405180910390f35b34801561043457600080fd5b5061044f600480360381019061044a91906131bf565b610f3e565b60405161045c919061322d565b60405180910390f35b34801561047157600080fd5b5061047a610ff0565b6040516104879190613167565b60405180910390f35b34801561049c57600080fd5b506104a56110d2565b6040516104b291906134f0565b60405180910390f35b3480156104c757600080fd5b506104e260048036038101906104dd919061350b565b6110e8565b6040516104ef91906134f0565b60405180910390f35b34801561050457600080fd5b5061050d6111a0565b005b34801561051b57600080fd5b50610524611228565b604051610531919061322d565b60405180910390f35b34801561054657600080fd5b5061054f611252565b60405161055c9190613167565b60405180910390f35b34801561057157600080fd5b5061057a6112e4565b6040516105879190613703565b60405180910390f35b34801561059c57600080fd5b506105a561141c565b005b3480156105b357600080fd5b506105ce60048036038101906105c99190613751565b6114ba565b005b3480156105dc57600080fd5b506105f760048036038101906105f291906131bf565b6114d0565b60405161060b989796959493929190613791565b60405180910390f35b34801561062057600080fd5b5061063b60048036038101906106369190613498565b6115b0565b005b34801561064957600080fd5b50610664600480360381019061065f91906138b7565b6117f8565b005b34801561067257600080fd5b5061068d600480360381019061068891906131bf565b61185a565b60405161069a9190613167565b60405180910390f35b3480156106af57600080fd5b506106ca60048036038101906106c5919061350b565b611901565b6040516106d791906134f0565b60405180910390f35b3480156106ec57600080fd5b506107076004803603810190610702919061350b565b611919565b6040516107149190613703565b60405180910390f35b34801561072957600080fd5b50610744600480360381019061073f919061393a565b611b19565b60405161075191906130b3565b60405180910390f35b34801561076657600080fd5b50610781600480360381019061077c919061350b565b611bad565b60405161078e9190613167565b60405180910390f35b3480156107a357600080fd5b506107ac611c91565b6040516107b991906134f0565b60405180910390f35b3480156107ce57600080fd5b506107e960048036038101906107e4919061350b565b611cad565b005b3480156107f757600080fd5b50610812600480360381019061080d9190613498565b611da5565b60405161081f91906130b3565b60405180910390f35b60007f80ac58cd000000000000000000000000000000000000000000000000000000007bffffffffffffffffffffffffffffffffffffffffffffffffffffffff1916827bffffffffffffffffffffffffffffffffffffffffffffffffffffffff191614806108f357507f5b5e139f000000000000000000000000000000000000000000000000000000007bffffffffffffffffffffffffffffffffffffffffffffffffffffffff1916827bffffffffffffffffffffffffffffffffffffffffffffffffffffffff1916145b80610903575061090282611dd0565b5b9050919050565b606060008054610919906139a9565b80601f0160208091040260200160405190810160405280929190818152602001828054610945906139a9565b80156109925780601f1061096757610100808354040283529160200191610992565b820191906000526020600020905b81548152906001019060200180831161097557829003601f168201915b5050505050905090565b60006109a782611e3a565b6109e6576040517f08c379a00000000000000000000000000000000000000000000000000000000081526004016109dd90613a4d565b60405180910390fd5b6004600083815260200190815260200160002060009054906101000a900473ffffffffffffffffffffffffffffffffffffffff169050919050565b6000610a2c82610f3e565b90508073ffffffffffffffffffffffffffffffffffffffff168373ffffffffffffffffffffffffffffffffffffffff161415610a9d576040517f08c379a0000000000000000000000000000000000000000000000000000000008152600401610a9490613adf565b60405180910390fd5b8073ffffffffffffffffffffffffffffffffffffffff16610abc611ea6565b73ffffffffffffffffffffffffffffffffffffffff161480610aeb5750610aea81610ae5611ea6565b611b19565b5b610b2a576040517f08c379a0000000000000000000000000000000000000000000000000000000008152600401610b2190613b71565b60405180910390fd5b610b348383611eae565b505050565b600080600a60003373ffffffffffffffffffffffffffffffffffffffff1673ffffffffffffffffffffffffffffffffffffffff168152602001908152602001600020541415905090565b610b94610b8e611ea6565b82611f67565b610bd3576040517f08c379a0000000000000000000000000000000000000000000000000000000008152600401610bca90613c03565b60405180910390fd5b610bde838383612045565b505050565b60086020528060005260406000206000915054906101000a900473ffffffffffffffffffffffffffffffffffffffff1681565b60096020528060005260406000206000915090508054610c35906139a9565b80601f0160208091040260200160405190810160405280929190818152602001828054610c61906139a9565b8015610cae5780601f10610c8357610100808354040283529160200191610cae565b820191906000526020600020905b815481529060010190602001808311610c9157829003601f168201915b505050505081565b610cbe611ea6565b73ffffffffffffffffffffffffffffffffffffffff16610cdc611228565b73ffffffffffffffffffffffffffffffffffffffff1614610d32576040517f08c379a0000000000000000000000000000000000000000000000000000000008152600401610d2990613c6f565b60405180910390fd5b6000610d3c611228565b90508073ffffffffffffffffffffffffffffffffffffffff166108fc479081150290604051600060405180830381858888f19350505050158015610d84573d6000803e3d6000fd5b5050565b610da3838383604051806020016040528060008152506117f8565b505050565b6000600a60003373ffffffffffffffffffffffffffffffffffffffff1673ffffffffffffffffffffffffffffffffffffffff168152602001908152602001600020541415610e2b576040517f08c379a0000000000000000000000000000000000000000000000000000000008152600401610e2290613cdb565b60405180910390fd5b81610e3581610f3e565b73ffffffffffffffffffffffffffffffffffffffff163373ffffffffffffffffffffffffffffffffffffffff1614610e6c57600080fd5b816000610e78826122a1565b9050600d81108015610e8a5750600281115b610ec9576040517f08c379a0000000000000000000000000000000000000000000000000000000008152600401610ec090613d6d565b60405180910390fd5b6000600e8681548110610edf57610ede613d8d565b5b9060005260206000209060080201905084816007019080519060200190610f07929190612f17565b50505050505050565b600b818051602081018201805184825260208301602085012081835280955050505050506000915090505481565b6000806002600084815260200190815260200160002060009054906101000a900473ffffffffffffffffffffffffffffffffffffffff169050600073ffffffffffffffffffffffffffffffffffffffff168173ffffffffffffffffffffffffffffffffffffffff161415610fe7576040517f08c379a0000000000000000000000000000000000000000000000000000000008152600401610fde90613e2e565b60405180910390fd5b80915050919050565b606060096000600a60003373ffffffffffffffffffffffffffffffffffffffff1673ffffffffffffffffffffffffffffffffffffffff168152602001908152602001600020548152602001908152602001600020805461104f906139a9565b80601f016020809104026020016040519081016040528092919081815260200182805461107b906139a9565b80156110c85780601f1061109d576101008083540402835291602001916110c8565b820191906000526020600020905b8154815290600101906020018083116110ab57829003601f168201915b5050505050905090565b600060016007546110e39190613e7d565b905090565b60008073ffffffffffffffffffffffffffffffffffffffff168273ffffffffffffffffffffffffffffffffffffffff161415611159576040517f08c379a000000000000000000000000000000000000000000000000000000000815260040161115090613f23565b60405180910390fd5b600360008373ffffffffffffffffffffffffffffffffffffffff1673ffffffffffffffffffffffffffffffffffffffff168152602001908152602001600020549050919050565b6111a8611ea6565b73ffffffffffffffffffffffffffffffffffffffff166111c6611228565b73ffffffffffffffffffffffffffffffffffffffff161461121c576040517f08c379a000000000000000000000000000000000000000000000000000000000815260040161121390613c6f565b60405180910390fd5b611226600061255e565b565b6000600660009054906101000a900473ffffffffffffffffffffffffffffffffffffffff16905090565b606060018054611261906139a9565b80601f016020809104026020016040519081016040528092919081815260200182805461128d906139a9565b80156112da5780601f106112af576101008083540402835291602001916112da565b820191906000526020600020905b8154815290600101906020018083116112bd57829003601f168201915b5050505050905090565b6060600e805480602002602001604051908101604052809291908181526020016000905b8282101561141357838290600052602060002090600802016040518061010001604052908160008201548152602001600182015481526020016002820154815260200160038201548152602001600482015481526020016005820154815260200160068201548152602001600782018054611382906139a9565b80601f01602080910402602001604051908101604052809291908181526020018280546113ae906139a9565b80156113fb5780601f106113d0576101008083540402835291602001916113fb565b820191906000526020600020905b8154815290600101906020018083116113de57829003601f168201915b50505050508152505081526020019060010190611308565b50505050905090565b6000600a60003373ffffffffffffffffffffffffffffffffffffffff1673ffffffffffffffffffffffffffffffffffffffff16815260200190815260200160002054141561149f576040517f08c379a000000000000000000000000000000000000000000000000000000000815260040161149690613cdb565b60405180910390fd5b60006114ac600c54612624565b90506114b781612677565b50565b6114cc6114c5611ea6565b83836127d9565b5050565b600e81815481106114e057600080fd5b906000526020600020906008020160009150905080600001549080600101549080600201549080600301549080600401549080600501549080600601549080600701805461152d906139a9565b80601f0160208091040260200160405190810160405280929190818152602001828054611559906139a9565b80156115a65780601f1061157b576101008083540402835291602001916115a6565b820191906000526020600020905b81548152906001019060200180831161158957829003601f168201915b5050505050905088565b806000600b826040516115c39190613f7f565b90815260200160405180910390205414611612576040517f08c379a000000000000000000000000000000000000000000000000000000000815260040161160990613fe2565b60405180910390fd5b6000600a60003373ffffffffffffffffffffffffffffffffffffffff1673ffffffffffffffffffffffffffffffffffffffff1681526020019081526020016000205414611694576040517f08c379a000000000000000000000000000000000000000000000000000000000815260040161168b9061404e565b60405180910390fd5b8160006116a0826122a1565b9050600d811080156116b25750600281115b6116f1576040517f08c379a00000000000000000000000000000000000000000000000000000000081526004016116e8906140e0565b60405180910390fd5b600754600a60003373ffffffffffffffffffffffffffffffffffffffff1673ffffffffffffffffffffffffffffffffffffffff168152602001908152602001600020819055503360086000600754815260200190815260200160002060006101000a81548173ffffffffffffffffffffffffffffffffffffffff021916908373ffffffffffffffffffffffffffffffffffffffff1602179055508360096000600754815260200190815260200160002090805190602001906117b4929190612f17565b50600754600b856040516117c89190613f7f565b908152602001604051809103902081905550600760008154809291906117ed90614100565b919050555050505050565b611809611803611ea6565b83611f67565b611848576040517f08c379a000000000000000000000000000000000000000000000000000000000815260040161183f90613c03565b60405180910390fd5b61185484848484612946565b50505050565b606061186582611e3a565b6118a4576040517f08c379a000000000000000000000000000000000000000000000000000000000815260040161189b906141bb565b60405180910390fd5b60006118ae6129a2565b905060008151116118ce57604051806020016040528060008152506118f9565b806118d8846129b9565b6040516020016118e99291906141db565b6040516020818303038152906040525b915050919050565b600a6020528060005260406000206000915090505481565b60606000611926836110e8565b67ffffffffffffffff81111561193f5761193e613311565b5b60405190808252806020026020018201604052801561197857816020015b611965612f9d565b81526020019060019003908161195d5790505b5090506000805b600e80549050811015611b0e578473ffffffffffffffffffffffffffffffffffffffff166119ac82610f3e565b73ffffffffffffffffffffffffffffffffffffffff161415611afb57600e81815481106119dc576119db613d8d565b5b90600052602060002090600802016040518061010001604052908160008201548152602001600182015481526020016002820154815260200160038201548152602001600482015481526020016005820154815260200160068201548152602001600782018054611a4c906139a9565b80601f0160208091040260200160405190810160405280929190818152602001828054611a78906139a9565b8015611ac55780601f10611a9a57610100808354040283529160200191611ac5565b820191906000526020600020905b815481529060010190602001808311611aa857829003601f168201915b505050505081525050838381518110611ae157611ae0613d8d565b5b60200260200101819052508180611af790614100565b9250505b8080611b0690614100565b91505061197f565b508192505050919050565b6000600560008473ffffffffffffffffffffffffffffffffffffffff1673ffffffffffffffffffffffffffffffffffffffff16815260200190815260200160002060008373ffffffffffffffffffffffffffffffffffffffff1673ffffffffffffffffffffffffffffffffffffffff16815260200190815260200160002060009054906101000a900460ff16905092915050565b606060096000600a60008573ffffffffffffffffffffffffffffffffffffffff1673ffffffffffffffffffffffffffffffffffffffff1681526020019081526020016000205481526020019081526020016000208054611c0c906139a9565b80601f0160208091040260200160405190810160405280929190818152602001828054611c38906139a9565b8015611c855780601f10611c5a57610100808354040283529160200191611c85565b820191906000526020600020905b815481529060010190602001808311611c6857829003601f168201915b50505050509050919050565b600080611c9c610ff0565b9050611ca7816122a1565b91505090565b611cb5611ea6565b73ffffffffffffffffffffffffffffffffffffffff16611cd3611228565b73ffffffffffffffffffffffffffffffffffffffff1614611d29576040517f08c379a0000000000000000000000000000000000000000000000000000000008152600401611d2090613c6f565b60405180910390fd5b600073ffffffffffffffffffffffffffffffffffffffff168173ffffffffffffffffffffffffffffffffffffffff161415611d99576040517f08c379a0000000000000000000000000000000000000000000000000000000008152600401611d9090614271565b60405180910390fd5b611da28161255e565b50565b600080600b83604051611db89190613f7f565b90815260200160405180910390205414159050919050565b60007f01ffc9a7000000000000000000000000000000000000000000000000000000007bffffffffffffffffffffffffffffffffffffffffffffffffffffffff1916827bffffffffffffffffffffffffffffffffffffffffffffffffffffffff1916149050919050565b60008073ffffffffffffffffffffffffffffffffffffffff166002600084815260200190815260200160002060009054906101000a900473ffffffffffffffffffffffffffffffffffffffff1673ffffffffffffffffffffffffffffffffffffffff1614159050919050565b600033905090565b816004600083815260200190815260200160002060006101000a81548173ffffffffffffffffffffffffffffffffffffffff021916908373ffffffffffffffffffffffffffffffffffffffff160217905550808273ffffffffffffffffffffffffffffffffffffffff16611f2183610f3e565b73ffffffffffffffffffffffffffffffffffffffff167f8c5be1e5ebec7d5bd14f71427d1e84f3dd0314c0f7b2291e5b200ac8c7c3b92560405160405180910390a45050565b6000611f7282611e3a565b611fb1576040517f08c379a0000000000000000000000000000000000000000000000000000000008152600401611fa890614303565b60405180910390fd5b6000611fbc83610f3e565b90508073ffffffffffffffffffffffffffffffffffffffff168473ffffffffffffffffffffffffffffffffffffffff16148061202b57508373ffffffffffffffffffffffffffffffffffffffff166120138461099c565b73ffffffffffffffffffffffffffffffffffffffff16145b8061203c575061203b8185611b19565b5b91505092915050565b8273ffffffffffffffffffffffffffffffffffffffff1661206582610f3e565b73ffffffffffffffffffffffffffffffffffffffff16146120bb576040517f08c379a00000000000000000000000000000000000000000000000000000000081526004016120b290614395565b60405180910390fd5b600073ffffffffffffffffffffffffffffffffffffffff168273ffffffffffffffffffffffffffffffffffffffff16141561212b576040517f08c379a000000000000000000000000000000000000000000000000000000000815260040161212290614427565b60405180910390fd5b612136838383612b1a565b612141600082611eae565b6001600360008573ffffffffffffffffffffffffffffffffffffffff1673ffffffffffffffffffffffffffffffffffffffff16815260200190815260200160002060008282546121919190613e7d565b925050819055506001600360008473ffffffffffffffffffffffffffffffffffffffff1673ffffffffffffffffffffffffffffffffffffffff16815260200190815260200160002060008282546121e89190614447565b92505081905550816002600083815260200190815260200160002060006101000a81548173ffffffffffffffffffffffffffffffffffffffff021916908373ffffffffffffffffffffffffffffffffffffffff160217905550808273ffffffffffffffffffffffffffffffffffffffff168473ffffffffffffffffffffffffffffffffffffffff167fddf252ad1be2c89b69c2b068fc378daa952ba7f163c4a11628f55a4df523b3ef60405160405180910390a4505050565b6000806000905060008390505b805182101561255757600060f81b60078284815181106122d1576122d0613d8d565b5b602001015160f81c60f81b7effffffffffffffffffffffffffffffffffffffffffffffffffffffffffffff1916901c7effffffffffffffffffffffffffffffffffffffffffffffffffffffffffffff1916141561233c576001826123359190614447565b9150612544565b600660f81b7effffffffffffffffffffffffffffffffffffffffffffffffffffffffffffff1916600582848151811061237857612377613d8d565b5b602001015160f81c60f81b7effffffffffffffffffffffffffffffffffffffffffffffffffffffffffffff1916901c7effffffffffffffffffffffffffffffffffffffffffffffffffffffffffffff191614156123e3576002826123dc9190614447565b9150612543565b600e60f81b7effffffffffffffffffffffffffffffffffffffffffffffffffffffffffffff1916600482848151811061241f5761241e613d8d565b5b602001015160f81c60f81b7effffffffffffffffffffffffffffffffffffffffffffffffffffffffffffff1916901c7effffffffffffffffffffffffffffffffffffffffffffffffffffffffffffff1916141561248a576003826124839190614447565b9150612542565b601e60f81b7effffffffffffffffffffffffffffffffffffffffffffffffffffffffffffff191660038284815181106124c6576124c5613d8d565b5b602001015160f81c60f81b7effffffffffffffffffffffffffffffffffffffffffffffffffffffffffffff1916901c7effffffffffffffffffffffffffffffffffffffffffffffffffffffffffffff191614156125315760048261252a9190614447565b9150612541565b60018261253e9190614447565b91505b5b5b5b828061254f90614100565b9350506122ae565b5050919050565b6000600660009054906101000a900473ffffffffffffffffffffffffffffffffffffffff16905081600660006101000a81548173ffffffffffffffffffffffffffffffffffffffff021916908373ffffffffffffffffffffffffffffffffffffffff1602179055508173ffffffffffffffffffffffffffffffffffffffff168173ffffffffffffffffffffffffffffffffffffffff167f8be0079c531659141344cd1fd0a4f28419497f9722a3daafe3b4186f6b6457e060405160405180910390a35050565b60008082426126339190614447565b60405160200161264391906144be565b6040516020818303038152906040528051906020012060001c905064e8d4a510008161266f9190614508565b915050919050565b6000604051806101000160405280600c54815260200183815260200160148152602001600a8152602001600a8152602001600a8152602001428152602001604051806020016040528060008152508152509050600e819080600181540180825580915050600190039060005260206000209060080201600090919091909150600082015181600001556020820151816001015560408201518160020155606082015181600301556080820151816004015560a0820151816005015560c0820151816006015560e0820151816007019080519060200190612758929190612f17565b50505061276733600c54612b1f565b3373ffffffffffffffffffffffffffffffffffffffff167fad1c7ab5bfbe86a51764200b1532f3893b41563e78abe6d6eac4bbd987f38c68600c54846040516127b1929190614539565b60405180910390a26127cf6001600c54612b3d90919063ffffffff16565b600c819055505050565b8173ffffffffffffffffffffffffffffffffffffffff168373ffffffffffffffffffffffffffffffffffffffff161415612848576040517f08c379a000000000000000000000000000000000000000000000000000000000815260040161283f906145ae565b60405180910390fd5b80600560008573ffffffffffffffffffffffffffffffffffffffff1673ffffffffffffffffffffffffffffffffffffffff16815260200190815260200160002060008473ffffffffffffffffffffffffffffffffffffffff1673ffffffffffffffffffffffffffffffffffffffff16815260200190815260200160002060006101000a81548160ff0219169083151502179055508173ffffffffffffffffffffffffffffffffffffffff168373ffffffffffffffffffffffffffffffffffffffff167f17307eab39ab6107e8899845ad3d59bd9653f200f220920489ca2b5937696c318360405161293991906130b3565b60405180910390a3505050565b612951848484612045565b61295d84848484612b53565b61299c576040517f08c379a000000000000000000000000000000000000000000000000000000000815260040161299390614640565b60405180910390fd5b50505050565b606060405180602001604052806000815250905090565b60606000821415612a01576040518060400160405280600181526020017f30000000000000000000000000000000000000000000000000000000000000008152509050612b15565b600082905060005b60008214612a33578080612a1c90614100565b915050600a82612a2c9190614660565b9150612a09565b60008167ffffffffffffffff811115612a4f57612a4e613311565b5b6040519080825280601f01601f191660200182016040528015612a815781602001600182028036833780820191505090505b5090505b60008514612b0e57600182612a9a9190613e7d565b9150600a85612aa99190614508565b6030612ab59190614447565b60f81b818381518110612acb57612aca613d8d565b5b60200101907effffffffffffffffffffffffffffffffffffffffffffffffffffffffffffff1916908160001a905350600a85612b079190614660565b9450612a85565b8093505050505b919050565b505050565b612b39828260405180602001604052806000815250612cdb565b5050565b60008183612b4b9190614447565b905092915050565b6000612b748473ffffffffffffffffffffffffffffffffffffffff16612d36565b15612cce578373ffffffffffffffffffffffffffffffffffffffff1663150b7a02612b9d611ea6565b8786866040518563ffffffff1660e01b8152600401612bbf94939291906146e6565b6020604051808303816000875af1925050508015612bfb57506040513d601f19601f82011682018060405250810190612bf89190614747565b60015b612c7e573d8060008114612c2b576040519150601f19603f3d011682016040523d82523d6000602084013e612c30565b606091505b50600081511415612c76576040517f08c379a0000000000000000000000000000000000000000000000000000000008152600401612c6d90614640565b60405180910390fd5b805181602001fd5b63150b7a0260e01b7bffffffffffffffffffffffffffffffffffffffffffffffffffffffff1916817bffffffffffffffffffffffffffffffffffffffffffffffffffffffff191614915050612cd3565b600190505b949350505050565b612ce58383612d49565b612cf26000848484612b53565b612d31576040517f08c379a0000000000000000000000000000000000000000000000000000000008152600401612d2890614640565b60405180910390fd5b505050565b600080823b905060008111915050919050565b600073ffffffffffffffffffffffffffffffffffffffff168273ffffffffffffffffffffffffffffffffffffffff161415612db9576040517f08c379a0000000000000000000000000000000000000000000000000000000008152600401612db0906147c0565b60405180910390fd5b612dc281611e3a565b15612e02576040517f08c379a0000000000000000000000000000000000000000000000000000000008152600401612df99061482c565b60405180910390fd5b612e0e60008383612b1a565b6001600360008473ffffffffffffffffffffffffffffffffffffffff1673ffffffffffffffffffffffffffffffffffffffff1681526020019081526020016000206000828254612e5e9190614447565b92505081905550816002600083815260200190815260200160002060006101000a81548173ffffffffffffffffffffffffffffffffffffffff021916908373ffffffffffffffffffffffffffffffffffffffff160217905550808273ffffffffffffffffffffffffffffffffffffffff16600073ffffffffffffffffffffffffffffffffffffffff167fddf252ad1be2c89b69c2b068fc378daa952ba7f163c4a11628f55a4df523b3ef60405160405180910390a45050565b828054612f23906139a9565b90600052602060002090601f016020900481019282612f455760008555612f8c565b82601f10612f5e57805160ff1916838001178555612f8c565b82800160010185558215612f8c579182015b82811115612f8b578251825591602001919060010190612f70565b5b509050612f999190612fe2565b5090565b60405180610100016040528060008152602001600081526020016000815260200160008152602001600081526020016000815260200160008152602001606081525090565b5b80821115612ffb576000816000905550600101612fe3565b5090565b6000604051905090565b600080fd5b600080fd5b60007fffffffff0000000000000000000000000000000000000000000000000000000082169050919050565b61304881613013565b811461305357600080fd5b50565b6000813590506130658161303f565b92915050565b60006020828403121561308157613080613009565b5b600061308f84828501613056565b91505092915050565b60008115159050919050565b6130ad81613098565b82525050565b60006020820190506130c860008301846130a4565b92915050565b600081519050919050565b600082825260208201905092915050565b60005b838110156131085780820151818401526020810190506130ed565b83811115613117576000848401525b50505050565b6000601f19601f8301169050919050565b6000613139826130ce565b61314381856130d9565b93506131538185602086016130ea565b61315c8161311d565b840191505092915050565b60006020820190508181036000830152613181818461312e565b905092915050565b6000819050919050565b61319c81613189565b81146131a757600080fd5b50565b6000813590506131b981613193565b92915050565b6000602082840312156131d5576131d4613009565b5b60006131e3848285016131aa565b91505092915050565b600073ffffffffffffffffffffffffffffffffffffffff82169050919050565b6000613217826131ec565b9050919050565b6132278161320c565b82525050565b6000602082019050613242600083018461321e565b92915050565b6132518161320c565b811461325c57600080fd5b50565b60008135905061326e81613248565b92915050565b6000806040838503121561328b5761328a613009565b5b60006132998582860161325f565b92505060206132aa858286016131aa565b9150509250929050565b6000806000606084860312156132cd576132cc613009565b5b60006132db8682870161325f565b93505060206132ec8682870161325f565b92505060406132fd868287016131aa565b9150509250925092565b600080fd5b600080fd5b7f4e487b7100000000000000000000000000000000000000000000000000000000600052604160045260246000fd5b6133498261311d565b810181811067ffffffffffffffff8211171561336857613367613311565b5b80604052505050565b600061337b612fff565b90506133878282613340565b919050565b600067ffffffffffffffff8211156133a7576133a6613311565b5b6133b08261311d565b9050602081019050919050565b82818337600083830152505050565b60006133df6133da8461338c565b613371565b9050828152602081018484840111156133fb576133fa61330c565b5b6134068482856133bd565b509392505050565b600082601f83011261342357613422613307565b5b81356134338482602086016133cc565b91505092915050565b6000806040838503121561345357613452613009565b5b6000613461858286016131aa565b925050602083013567ffffffffffffffff8111156134825761348161300e565b5b61348e8582860161340e565b9150509250929050565b6000602082840312156134ae576134ad613009565b5b600082013567ffffffffffffffff8111156134cc576134cb61300e565b5b6134d88482850161340e565b91505092915050565b6134ea81613189565b82525050565b600060208201905061350560008301846134e1565b92915050565b60006020828403121561352157613520613009565b5b600061352f8482850161325f565b91505092915050565b600081519050919050565b600082825260208201905092915050565b6000819050602082019050919050565b61356d81613189565b82525050565b600082825260208201905092915050565b600061358f826130ce565b6135998185613573565b93506135a98185602086016130ea565b6135b28161311d565b840191505092915050565b6000610100830160008301516135d66000860182613564565b5060208301516135e96020860182613564565b5060408301516135fc6040860182613564565b50606083015161360f6060860182613564565b5060808301516136226080860182613564565b5060a083015161363560a0860182613564565b5060c083015161364860c0860182613564565b5060e083015184820360e08601526136608282613584565b9150508091505092915050565b600061367983836135bd565b905092915050565b6000602082019050919050565b600061369982613538565b6136a38185613543565b9350836020820285016136b585613554565b8060005b858110156136f157848403895281516136d2858261366d565b94506136dd83613681565b925060208a019950506001810190506136b9565b50829750879550505050505092915050565b6000602082019050818103600083015261371d818461368e565b905092915050565b61372e81613098565b811461373957600080fd5b50565b60008135905061374b81613725565b92915050565b6000806040838503121561376857613767613009565b5b60006137768582860161325f565b92505060206137878582860161373c565b9150509250929050565b6000610100820190506137a7600083018b6134e1565b6137b4602083018a6134e1565b6137c160408301896134e1565b6137ce60608301886134e1565b6137db60808301876134e1565b6137e860a08301866134e1565b6137f560c08301856134e1565b81810360e0830152613807818461312e565b90509998505050505050505050565b600067ffffffffffffffff82111561383157613830613311565b5b61383a8261311d565b9050602081019050919050565b600061385a61385584613816565b613371565b9050828152602081018484840111156138765761387561330c565b5b6138818482856133bd565b509392505050565b600082601f83011261389e5761389d613307565b5b81356138ae848260208601613847565b91505092915050565b600080600080608085870312156138d1576138d0613009565b5b60006138df8782880161325f565b94505060206138f08782880161325f565b9350506040613901878288016131aa565b925050606085013567ffffffffffffffff8111156139225761392161300e565b5b61392e87828801613889565b91505092959194509250565b6000806040838503121561395157613950613009565b5b600061395f8582860161325f565b92505060206139708582860161325f565b9150509250929050565b7f4e487b7100000000000000000000000000000000000000000000000000000000600052602260045260246000fd5b600060028204905060018216806139c157607f821691505b602082108114156139d5576139d461397a565b5b50919050565b7f4552433732313a20617070726f76656420717565727920666f72206e6f6e657860008201527f697374656e7420746f6b656e0000000000000000000000000000000000000000602082015250565b6000613a37602c836130d9565b9150613a42826139db565b604082019050919050565b60006020820190508181036000830152613a6681613a2a565b9050919050565b7f4552433732313a20617070726f76616c20746f2063757272656e74206f776e6560008201527f7200000000000000000000000000000000000000000000000000000000000000602082015250565b6000613ac96021836130d9565b9150613ad482613a6d565b604082019050919050565b60006020820190508181036000830152613af881613abc565b9050919050565b7f4552433732313a20617070726f76652063616c6c6572206973206e6f74206f7760008201527f6e6572206e6f7220617070726f76656420666f7220616c6c0000000000000000602082015250565b6000613b5b6038836130d9565b9150613b6682613aff565b604082019050919050565b60006020820190508181036000830152613b8a81613b4e565b9050919050565b7f4552433732313a207472616e736665722063616c6c6572206973206e6f74206f60008201527f776e6572206e6f7220617070726f766564000000000000000000000000000000602082015250565b6000613bed6031836130d9565b9150613bf882613b91565b604082019050919050565b60006020820190508181036000830152613c1c81613be0565b9050919050565b7f4f776e61626c653a2063616c6c6572206973206e6f7420746865206f776e6572600082015250565b6000613c596020836130d9565b9150613c6482613c23565b602082019050919050565b60006020820190508181036000830152613c8881613c4c565b9050919050565b7f596f7520646f6e2774206861766520616e206163636f756e7400000000000000600082015250565b6000613cc56019836130d9565b9150613cd082613c8f565b602082019050919050565b60006020820190508181036000830152613cf481613cb8565b9050919050565b7f546865206865726f206e616d65206d757374206265206265747765656e20332060008201527f616e642031322063686172616374657273000000000000000000000000000000602082015250565b6000613d576031836130d9565b9150613d6282613cfb565b604082019050919050565b60006020820190508181036000830152613d8681613d4a565b9050919050565b7f4e487b7100000000000000000000000000000000000000000000000000000000600052603260045260246000fd5b7f4552433732313a206f776e657220717565727920666f72206e6f6e657869737460008201527f656e7420746f6b656e0000000000000000000000000000000000000000000000602082015250565b6000613e186029836130d9565b9150613e2382613dbc565b604082019050919050565b60006020820190508181036000830152613e4781613e0b565b9050919050565b7f4e487b7100000000000000000000000000000000000000000000000000000000600052601160045260246000fd5b6000613e8882613189565b9150613e9383613189565b925082821015613ea657613ea5613e4e565b5b828203905092915050565b7f4552433732313a2062616c616e636520717565727920666f7220746865207a6560008201527f726f206164647265737300000000000000000000000000000000000000000000602082015250565b6000613f0d602a836130d9565b9150613f1882613eb1565b604082019050919050565b60006020820190508181036000830152613f3c81613f00565b9050919050565b600081905092915050565b6000613f59826130ce565b613f638185613f43565b9350613f738185602086016130ea565b80840191505092915050565b6000613f8b8284613f4e565b915081905092915050565b7f557365726e616d652069732074616b656e000000000000000000000000000000600082015250565b6000613fcc6011836130d9565b9150613fd782613f96565b602082019050919050565b60006020820190508181036000830152613ffb81613fbf565b9050919050565b7f596f7520616c7265616479206861766520616e206163636f756e742100000000600082015250565b6000614038601c836130d9565b915061404382614002565b602082019050919050565b600060208201905081810360008301526140678161402b565b9050919050565b7f557365726e616d65206d757374206265206265747765656e203320616e64203160008201527f3220636861726163746572730000000000000000000000000000000000000000602082015250565b60006140ca602c836130d9565b91506140d58261406e565b604082019050919050565b600060208201905081810360008301526140f9816140bd565b9050919050565b600061410b82613189565b91507fffffffffffffffffffffffffffffffffffffffffffffffffffffffffffffffff82141561413e5761413d613e4e565b5b600182019050919050565b7f4552433732314d657461646174613a2055524920717565727920666f72206e6f60008201527f6e6578697374656e7420746f6b656e0000000000000000000000000000000000602082015250565b60006141a5602f836130d9565b91506141b082614149565b604082019050919050565b600060208201905081810360008301526141d481614198565b9050919050565b60006141e78285613f4e565b91506141f38284613f4e565b91508190509392505050565b7f4f776e61626c653a206e6577206f776e657220697320746865207a65726f206160008201527f6464726573730000000000000000000000000000000000000000000000000000602082015250565b600061425b6026836130d9565b9150614266826141ff565b604082019050919050565b6000602082019050818103600083015261428a8161424e565b9050919050565b7f4552433732313a206f70657261746f7220717565727920666f72206e6f6e657860008201527f697374656e7420746f6b656e0000000000000000000000000000000000000000602082015250565b60006142ed602c836130d9565b91506142f882614291565b604082019050919050565b6000602082019050818103600083015261431c816142e0565b9050919050565b7f4552433732313a207472616e73666572206f6620746f6b656e2074686174206960008201527f73206e6f74206f776e0000000000000000000000000000000000000000000000602082015250565b600061437f6029836130d9565b915061438a82614323565b604082019050919050565b600060208201905081810360008301526143ae81614372565b9050919050565b7f4552433732313a207472616e7366657220746f20746865207a65726f2061646460008201527f7265737300000000000000000000000000000000000000000000000000000000602082015250565b60006144116024836130d9565b915061441c826143b5565b604082019050919050565b6000602082019050818103600083015261444081614404565b9050919050565b600061445282613189565b915061445d83613189565b9250827fffffffffffffffffffffffffffffffffffffffffffffffffffffffffffffffff0382111561449257614491613e4e565b5b828201905092915050565b6000819050919050565b6144b86144b382613189565b61449d565b82525050565b60006144ca82846144a7565b60208201915081905092915050565b7f4e487b7100000000000000000000000000000000000000000000000000000000600052601260045260246000fd5b600061451382613189565b915061451e83613189565b92508261452e5761452d6144d9565b5b828206905092915050565b600060408201905061454e60008301856134e1565b61455b60208301846134e1565b9392505050565b7f4552433732313a20617070726f766520746f2063616c6c657200000000000000600082015250565b60006145986019836130d9565b91506145a382614562565b602082019050919050565b600060208201905081810360008301526145c78161458b565b9050919050565b7f4552433732313a207472616e7366657220746f206e6f6e20455243373231526560008201527f63656976657220696d706c656d656e7465720000000000000000000000000000602082015250565b600061462a6032836130d9565b9150614635826145ce565b604082019050919050565b600060208201905081810360008301526146598161461d565b9050919050565b600061466b82613189565b915061467683613189565b925082614686576146856144d9565b5b828204905092915050565b600081519050919050565b600082825260208201905092915050565b60006146b882614691565b6146c2818561469c565b93506146d28185602086016130ea565b6146db8161311d565b840191505092915050565b60006080820190506146fb600083018761321e565b614708602083018661321e565b61471560408301856134e1565b818103606083015261472781846146ad565b905095945050505050565b6000815190506147418161303f565b92915050565b60006020828403121561475d5761475c613009565b5b600061476b84828501614732565b91505092915050565b7f4552433732313a206d696e7420746f20746865207a65726f2061646472657373600082015250565b60006147aa6020836130d9565b91506147b582614774565b602082019050919050565b600060208201905081810360008301526147d98161479d565b9050919050565b7f4552433732313a20746f6b656e20616c7265616479206d696e74656400000000600082015250565b6000614816601c836130d9565b9150614821826147e0565b602082019050919050565b6000602082019050818103600083015261484581614809565b905091905056fea2646970667358221220eac54cba066988038e6e94df54ffc98e8220fac2a95bbe1255e26519abb4158664736f6c634300080a0033",
  "immutableReferences": {},
  "source": "// SPDX-License-Identifier: MIT\r\npragma solidity ^0.8.7;\r\nimport \"./IotaHeroFactory.sol\";\r\n\r\ncontract IotaHeroUtil is IotaHeroFactory {\r\n    function withdraw() external payable onlyOwner {\r\n        address payable _owner = payable(owner());\r\n        _owner.transfer(address(this).balance);\r\n    }\r\n\r\n    function getHeroes() public view returns (Hero[] memory) {\r\n        return heroes;\r\n    }\r\n\r\n    function getOwnerHeroes(address _owner)\r\n        public\r\n        view\r\n        returns (Hero[] memory)\r\n    {\r\n        Hero[] memory ownedHeroes = new Hero[](balanceOf(_owner));\r\n        uint256 c = 0;\r\n        for (uint256 i = 0; i < heroes.length; i++) {\r\n            if (ownerOf(i) == _owner) {\r\n                ownedHeroes[c] = heroes[i];\r\n                c++;\r\n            }\r\n        }\r\n        return ownedHeroes;\r\n    }\r\n\r\n}\r\n",
  "sourcePath": "C:\\Users\\creld\\source\\repos\\IotaHeroes\\smartcontracts\\contracts\\IotaHeroUtil.sol",
  "compiler": {
    "name": "solc",
    "version": "0.8.10+commit.fc410830.Emscripten.clang"
  },
  "schemaVersion": "3.4.4",
  "updatedAt": "2022-01-20T21:31:54.147Z",
  "devdoc": {
    "kind": "dev",
    "methods": {
      "approve(address,uint256)": {
        "details": "See {IERC721-approve}."
      },
      "balanceOf(address)": {
        "details": "See {IERC721-balanceOf}."
      },
      "getApproved(uint256)": {
        "details": "See {IERC721-getApproved}."
      },
      "isApprovedForAll(address,address)": {
        "details": "See {IERC721-isApprovedForAll}."
      },
      "name()": {
        "details": "See {IERC721Metadata-name}."
      },
      "owner()": {
        "details": "Returns the address of the current owner."
      },
      "ownerOf(uint256)": {
        "details": "See {IERC721-ownerOf}."
      },
      "renounceOwnership()": {
        "details": "Leaves the contract without owner. It will not be possible to call `onlyOwner` functions anymore. Can only be called by the current owner. NOTE: Renouncing ownership will leave the contract without an owner, thereby removing any functionality that is only available to the owner."
      },
      "safeTransferFrom(address,address,uint256)": {
        "details": "See {IERC721-safeTransferFrom}."
      },
      "safeTransferFrom(address,address,uint256,bytes)": {
        "details": "See {IERC721-safeTransferFrom}."
      },
      "setApprovalForAll(address,bool)": {
        "details": "See {IERC721-setApprovalForAll}."
      },
      "supportsInterface(bytes4)": {
        "details": "See {IERC165-supportsInterface}."
      },
      "symbol()": {
        "details": "See {IERC721Metadata-symbol}."
      },
      "tokenURI(uint256)": {
        "details": "See {IERC721Metadata-tokenURI}."
      },
      "transferFrom(address,address,uint256)": {
        "details": "See {IERC721-transferFrom}."
      },
      "transferOwnership(address)": {
        "details": "Transfers ownership of the contract to a new account (`newOwner`). Can only be called by the current owner."
      }
    },
    "version": 1
  },
  "userdoc": {
    "kind": "user",
    "methods": {},
    "version": 1
  }
}