{
  "contractName": "IotaHeroTokenTrade",
  "abi": [
    {
      "anonymous": false,
      "inputs": [
        {
          "indexed": true,
          "internalType": "address",
          "name": "previousOwner",
          "type": "address"
        },
        {
          "indexed": true,
          "internalType": "address",
          "name": "newOwner",
          "type": "address"
        }
      ],
      "name": "OwnershipTransferred",
      "type": "event"
    },
    {
      "anonymous": false,
      "inputs": [
        {
          "indexed": true,
          "internalType": "uint256",
          "name": "tradeId",
          "type": "uint256"
        },
        {
          "indexed": true,
          "internalType": "address",
          "name": "creator",
          "type": "address"
        },
        {
          "indexed": false,
          "internalType": "uint256[]",
          "name": "tokenIdForSale",
          "type": "uint256[]"
        },
        {
          "indexed": false,
          "internalType": "uint256[]",
          "name": "amountsToSell",
          "type": "uint256[]"
        },
        {
          "indexed": false,
          "internalType": "uint256[]",
          "name": "tokenIdWanted",
          "type": "uint256[]"
        },
        {
          "indexed": false,
          "internalType": "uint256[]",
          "name": "amountsWanted",
          "type": "uint256[]"
        }
      ],
      "name": "TradeCreated",
      "type": "event"
    },
    {
      "anonymous": false,
      "inputs": [
        {
          "indexed": true,
          "internalType": "uint256",
          "name": "tradeId",
          "type": "uint256"
        },
        {
          "indexed": true,
          "internalType": "address",
          "name": "updater",
          "type": "address"
        },
        {
          "indexed": false,
          "internalType": "enum IotaHeroTokenTrade.TradeStatus",
          "name": "updatedStatus",
          "type": "uint8"
        }
      ],
      "name": "TradeUpdated",
      "type": "event"
    },
    {
      "inputs": [],
      "name": "owner",
      "outputs": [
        {
          "internalType": "address",
          "name": "",
          "type": "address"
        }
      ],
      "stateMutability": "view",
      "type": "function",
      "constant": true
    },
    {
      "inputs": [],
      "name": "renounceOwnership",
      "outputs": [],
      "stateMutability": "nonpayable",
      "type": "function"
    },
    {
      "inputs": [],
      "name": "tokens",
      "outputs": [
        {
          "internalType": "contract IotaHeroGameTokens",
          "name": "",
          "type": "address"
        }
      ],
      "stateMutability": "view",
      "type": "function",
      "constant": true
    },
    {
      "inputs": [
        {
          "internalType": "uint256",
          "name": "",
          "type": "uint256"
        }
      ],
      "name": "tradeToOwner",
      "outputs": [
        {
          "internalType": "address",
          "name": "",
          "type": "address"
        }
      ],
      "stateMutability": "view",
      "type": "function",
      "constant": true
    },
    {
      "inputs": [
        {
          "internalType": "uint256",
          "name": "",
          "type": "uint256"
        }
      ],
      "name": "trades",
      "outputs": [
        {
          "internalType": "uint256",
          "name": "tradeId",
          "type": "uint256"
        },
        {
          "internalType": "address",
          "name": "tradeInitiator",
          "type": "address"
        },
        {
          "internalType": "enum IotaHeroTokenTrade.TradeStatus",
          "name": "tradeStatus",
          "type": "uint8"
        }
      ],
      "stateMutability": "view",
      "type": "function",
      "constant": true
    },
    {
      "inputs": [
        {
          "internalType": "address",
          "name": "newOwner",
          "type": "address"
        }
      ],
      "name": "transferOwnership",
      "outputs": [],
      "stateMutability": "nonpayable",
      "type": "function"
    },
    {
      "inputs": [
        {
          "internalType": "address",
          "name": "_tokenAddress",
          "type": "address"
        }
      ],
      "name": "setTokenAddress",
      "outputs": [],
      "stateMutability": "nonpayable",
      "type": "function"
    },
    {
      "inputs": [],
      "name": "getTokenAddress",
      "outputs": [
        {
          "internalType": "address",
          "name": "",
          "type": "address"
        }
      ],
      "stateMutability": "view",
      "type": "function",
      "constant": true
    },
    {
      "inputs": [],
      "name": "getOpenTrades",
      "outputs": [
        {
          "components": [
            {
              "internalType": "uint256",
              "name": "tradeId",
              "type": "uint256"
            },
            {
              "internalType": "address",
              "name": "tradeInitiator",
              "type": "address"
            },
            {
              "internalType": "uint256[]",
              "name": "tokenIdsForSale",
              "type": "uint256[]"
            },
            {
              "internalType": "uint256[]",
              "name": "amountsToSell",
              "type": "uint256[]"
            },
            {
              "internalType": "uint256[]",
              "name": "tokenIdsWanted",
              "type": "uint256[]"
            },
            {
              "internalType": "uint256[]",
              "name": "amountsWanted",
              "type": "uint256[]"
            },
            {
              "internalType": "enum IotaHeroTokenTrade.TradeStatus",
              "name": "tradeStatus",
              "type": "uint8"
            }
          ],
          "internalType": "struct IotaHeroTokenTrade.Trade[]",
          "name": "",
          "type": "tuple[]"
        }
      ],
      "stateMutability": "view",
      "type": "function",
      "constant": true
    },
    {
      "inputs": [
        {
          "internalType": "uint256[]",
          "name": "tokenIdsForSale",
          "type": "uint256[]"
        },
        {
          "internalType": "uint256[]",
          "name": "amountToSell",
          "type": "uint256[]"
        },
        {
          "internalType": "uint256[]",
          "name": "tokenIdsWanted",
          "type": "uint256[]"
        },
        {
          "internalType": "uint256[]",
          "name": "amountWanted",
          "type": "uint256[]"
        }
      ],
      "name": "setTradeOffer",
      "outputs": [],
      "stateMutability": "nonpayable",
      "type": "function"
    },
    {
      "inputs": [
        {
          "internalType": "uint256",
          "name": "_tradeId",
          "type": "uint256"
        }
      ],
      "name": "cancelTradeOffer",
      "outputs": [],
      "stateMutability": "nonpayable",
      "type": "function"
    },
    {
      "inputs": [
        {
          "internalType": "uint256",
          "name": "_tradeId",
          "type": "uint256"
        }
      ],
      "name": "fulfillTradeOffer",
      "outputs": [],
      "stateMutability": "nonpayable",
      "type": "function"
    }
  ],
  "bytecode": "0x608060405260006003553480156200001657600080fd5b50620000376200002b6200003d60201b60201c565b6200004560201b60201c565b62000109565b600033905090565b60008060009054906101000a900473ffffffffffffffffffffffffffffffffffffffff169050816000806101000a81548173ffffffffffffffffffffffffffffffffffffffff021916908373ffffffffffffffffffffffffffffffffffffffff1602179055508173ffffffffffffffffffffffffffffffffffffffff168173ffffffffffffffffffffffffffffffffffffffff167f8be0079c531659141344cd1fd0a4f28419497f9722a3daafe3b4186f6b6457e060405160405180910390a35050565b612b3780620001196000396000f3fe608060405234801561001057600080fd5b50600436106100b45760003560e01c80638da5cb5b116100715780638da5cb5b146101695780639d63848a14610187578063aa2b2bd9146101a5578063dbe451b1146101c1578063ecd87095146101dd578063f2fde38b1461020d576100b4565b806310fe9ae8146100b95780631e6c598e146100d757806326a4e8d21461010957806363b1726114610125578063715018a6146101435780638a3fb66b1461014d575b600080fd5b6100c1610229565b6040516100ce9190611a0d565b60405180910390f35b6100f160048036038101906100ec9190611a72565b610253565b60405161010093929190611b25565b60405180910390f35b610123600480360381019061011e9190611b88565b6102ba565b005b61012d61037a565b60405161013a9190611e04565b60405180910390f35b61014b61074d565b005b61016760048036038101906101629190611e8b565b6107d5565b005b610171610d36565b60405161017e9190611a0d565b60405180910390f35b61018f610d5f565b60405161019c9190611fd3565b60405180910390f35b6101bf60048036038101906101ba9190611a72565b610d85565b005b6101db60048036038101906101d69190611a72565b610f11565b005b6101f760048036038101906101f29190611a72565b61151a565b6040516102049190611a0d565b60405180910390f35b61022760048036038101906102229190611b88565b61154d565b005b6000600160009054906101000a900473ffffffffffffffffffffffffffffffffffffffff16905090565b6002818154811061026357600080fd5b90600052602060002090600702016000915090508060000154908060010160009054906101000a900473ffffffffffffffffffffffffffffffffffffffff16908060060160009054906101000a900460ff16905083565b6102c2611645565b73ffffffffffffffffffffffffffffffffffffffff166102e0610d36565b73ffffffffffffffffffffffffffffffffffffffff1614610336576040517f08c379a000000000000000000000000000000000000000000000000000000000815260040161032d9061204b565b60405180910390fd5b80600160006101000a81548173ffffffffffffffffffffffffffffffffffffffff021916908373ffffffffffffffffffffffffffffffffffffffff16021790555050565b6060600080600090505b60028054905081101561041257600060028111156103a5576103a4611aae565b5b600282815481106103b9576103b861206b565b5b906000526020600020906007020160060160009054906101000a900460ff1660028111156103ea576103e9611aae565b5b14156103ff5781806103fb906120c9565b9250505b808061040a906120c9565b915050610384565b5060008167ffffffffffffffff81111561042f5761042e612112565b5b60405190808252806020026020018201604052801561046857816020015b6104556118fd565b81526020019060019003908161044d5790505b5090506000805b60028054905081101561074357600060028111156104905761048f611aae565b5b600282815481106104a4576104a361206b565b5b906000526020600020906007020160060160009054906101000a900460ff1660028111156104d5576104d4611aae565b5b141561073057600281815481106104ef576104ee61206b565b5b90600052602060002090600702016040518060e0016040529081600082015481526020016001820160009054906101000a900473ffffffffffffffffffffffffffffffffffffffff1673ffffffffffffffffffffffffffffffffffffffff1673ffffffffffffffffffffffffffffffffffffffff168152602001600282018054806020026020016040519081016040528092919081815260200182805480156105b757602002820191906000526020600020905b8154815260200190600101908083116105a3575b505050505081526020016003820180548060200260200160405190810160405280929190818152602001828054801561060f57602002820191906000526020600020905b8154815260200190600101908083116105fb575b505050505081526020016004820180548060200260200160405190810160405280929190818152602001828054801561066757602002820191906000526020600020905b815481526020019060010190808311610653575b50505050508152602001600582018054806020026020016040519081016040528092919081815260200182805480156106bf57602002820191906000526020600020905b8154815260200190600101908083116106ab575b505050505081526020016006820160009054906101000a900460ff1660028111156106ed576106ec611aae565b5b60028111156106ff576106fe611aae565b5b815250508383815181106107165761071561206b565b5b6020026020010181905250818061072c906120c9565b9250505b808061073b906120c9565b91505061046f565b5081935050505090565b610755611645565b73ffffffffffffffffffffffffffffffffffffffff16610773610d36565b73ffffffffffffffffffffffffffffffffffffffff16146107c9576040517f08c379a00000000000000000000000000000000000000000000000000000000081526004016107c09061204b565b60405180910390fd5b6107d3600061164d565b565b85859050888890501480156107ef57508181905084849050145b61082e576040517f08c379a00000000000000000000000000000000000000000000000000000000081526004016108259061218d565b60405180910390fd5b600160009054906101000a900473ffffffffffffffffffffffffffffffffffffffff1673ffffffffffffffffffffffffffffffffffffffff1663e985e9c533306040518363ffffffff1660e01b815260040161088b9291906121ad565b602060405180830381865afa1580156108a8573d6000803e3d6000fd5b505050506040513d601f19601f820116820180604052508101906108cc919061220e565b61090b576040517f08c379a000000000000000000000000000000000000000000000000000000000815260040161090290612287565b60405180910390fd5b61099833898980806020026020016040519081016040528093929190818152602001838360200280828437600081840152601f19601f82011690508083019250505050505050888880806020026020016040519081016040528093929190818152602001838360200280828437600081840152601f19601f82011690508083019250505050505050611711565b6109d7576040517f08c379a00000000000000000000000000000000000000000000000000000000081526004016109ce90612319565b60405180910390fd5b60006040518060e0016040528060035481526020013373ffffffffffffffffffffffffffffffffffffffff1681526020018a8a80806020026020016040519081016040528093929190818152602001838360200280828437600081840152601f19601f820116905080830192505050505050508152602001888880806020026020016040519081016040528093929190818152602001838360200280828437600081840152601f19601f820116905080830192505050505050508152602001868680806020026020016040519081016040528093929190818152602001838360200280828437600081840152601f19601f820116905080830192505050505050508152602001848480806020026020016040519081016040528093929190818152602001838360200280828437600081840152601f19601f82011690508083019250505050505050815260200160006002811115610b3857610b37611aae565b5b815250905060028190806001815401808255809150506001900390600052602060002090600702016000909190919091506000820151816000015560208201518160010160006101000a81548173ffffffffffffffffffffffffffffffffffffffff021916908373ffffffffffffffffffffffffffffffffffffffff1602179055506040820151816002019080519060200190610bd6929190611962565b506060820151816003019080519060200190610bf3929190611962565b506080820151816004019080519060200190610c10929190611962565b5060a0820151816005019080519060200190610c2d929190611962565b5060c08201518160060160006101000a81548160ff02191690836002811115610c5957610c58611aae565b5b021790555050503360046000600354815260200190815260200160002060006101000a81548173ffffffffffffffffffffffffffffffffffffffff021916908373ffffffffffffffffffffffffffffffffffffffff1602179055503373ffffffffffffffffffffffffffffffffffffffff166003547fee9c34460e8ee443f03e0289107bb49bce5e3175dea84c2f73d4ed4cf08aaca78b8b8b8b8b8b8b8b604051610d0b9897969594939291906123ba565b60405180910390a360036000815480929190610d26906120c9565b9190505550505050505050505050565b60008060009054906101000a900473ffffffffffffffffffffffffffffffffffffffff16905090565b600160009054906101000a900473ffffffffffffffffffffffffffffffffffffffff1681565b803373ffffffffffffffffffffffffffffffffffffffff166004600083815260200190815260200160002060009054906101000a900473ffffffffffffffffffffffffffffffffffffffff1673ffffffffffffffffffffffffffffffffffffffff1614610df157600080fd5b600060028381548110610e0757610e0661206b565b5b9060005260206000209060070201905060006002811115610e2b57610e2a611aae565b5b8160060160009054906101000a900460ff166002811115610e4f57610e4e611aae565b5b14610e8f576040517f08c379a0000000000000000000000000000000000000000000000000000000008152600401610e869061246f565b60405180910390fd5b60028160060160006101000a81548160ff02191690836002811115610eb757610eb6611aae565b5b02179055503373ffffffffffffffffffffffffffffffffffffffff16837f580958e7d2b78e6e91069e3a54d87713100ef5a99d53edaf3b8062a175ca730e6002604051610f04919061248f565b60405180910390a3505050565b600060028281548110610f2757610f2661206b565b5b90600052602060002090600702019050610fe63382600401805480602002602001604051908101604052809291908181526020018280548015610f8957602002820191906000526020600020905b815481526020019060010190808311610f75575b505050505083600501805480602002602001604051908101604052809291908181526020018280548015610fdc57602002820191906000526020600020905b815481526020019060010190808311610fc8575b5050505050611711565b611025576040517f08c379a000000000000000000000000000000000000000000000000000000000815260040161101c90612319565b60405180910390fd5b6110f88160010160009054906101000a900473ffffffffffffffffffffffffffffffffffffffff168260020180548060200260200160405190810160405280929190818152602001828054801561109b57602002820191906000526020600020905b815481526020019060010190808311611087575b5050505050836003018054806020026020016040519081016040528092919081815260200182805480156110ee57602002820191906000526020600020905b8154815260200190600101908083116110da575b5050505050611711565b611137576040517f08c379a000000000000000000000000000000000000000000000000000000000815260040161112e9061251c565b60405180910390fd5b6000600281111561114b5761114a611aae565b5b8160060160009054906101000a900460ff16600281111561116f5761116e611aae565b5b146111af576040517f08c379a00000000000000000000000000000000000000000000000000000000081526004016111a690612588565b60405180910390fd5b600160009054906101000a900473ffffffffffffffffffffffffffffffffffffffff1673ffffffffffffffffffffffffffffffffffffffff1663e985e9c533306040518363ffffffff1660e01b815260040161120c9291906121ad565b602060405180830381865afa158015611229573d6000803e3d6000fd5b505050506040513d601f19601f8201168201806040525081019061124d919061220e565b61128c576040517f08c379a000000000000000000000000000000000000000000000000000000000815260040161128390612287565b60405180910390fd5b3373ffffffffffffffffffffffffffffffffffffffff168160010160009054906101000a900473ffffffffffffffffffffffffffffffffffffffff1673ffffffffffffffffffffffffffffffffffffffff16141561131f576040517f08c379a00000000000000000000000000000000000000000000000000000000081526004016113169061261a565b60405180910390fd5b60018160060160006101000a81548160ff0219169083600281111561134757611346611aae565b5b0217905550600160009054906101000a900473ffffffffffffffffffffffffffffffffffffffff1673ffffffffffffffffffffffffffffffffffffffff16632eb2c2d6338360010160009054906101000a900473ffffffffffffffffffffffffffffffffffffffff1684600401856005016040518563ffffffff1660e01b81526004016113d79493929190612747565b600060405180830381600087803b1580156113f157600080fd5b505af1158015611405573d6000803e3d6000fd5b50505050600160009054906101000a900473ffffffffffffffffffffffffffffffffffffffff1673ffffffffffffffffffffffffffffffffffffffff16632eb2c2d68260010160009054906101000a900473ffffffffffffffffffffffffffffffffffffffff163384600201856003016040518563ffffffff1660e01b81526004016114949493929190612747565b600060405180830381600087803b1580156114ae57600080fd5b505af11580156114c2573d6000803e3d6000fd5b505050503373ffffffffffffffffffffffffffffffffffffffff16827f580958e7d2b78e6e91069e3a54d87713100ef5a99d53edaf3b8062a175ca730e600160405161150e919061248f565b60405180910390a35050565b60046020528060005260406000206000915054906101000a900473ffffffffffffffffffffffffffffffffffffffff1681565b611555611645565b73ffffffffffffffffffffffffffffffffffffffff16611573610d36565b73ffffffffffffffffffffffffffffffffffffffff16146115c9576040517f08c379a00000000000000000000000000000000000000000000000000000000081526004016115c09061204b565b60405180910390fd5b600073ffffffffffffffffffffffffffffffffffffffff168173ffffffffffffffffffffffffffffffffffffffff161415611639576040517f08c379a00000000000000000000000000000000000000000000000000000000081526004016116309061281f565b60405180910390fd5b6116428161164d565b50565b600033905090565b60008060009054906101000a900473ffffffffffffffffffffffffffffffffffffffff169050816000806101000a81548173ffffffffffffffffffffffffffffffffffffffff021916908373ffffffffffffffffffffffffffffffffffffffff1602179055508173ffffffffffffffffffffffffffffffffffffffff168173ffffffffffffffffffffffffffffffffffffffff167f8be0079c531659141344cd1fd0a4f28419497f9722a3daafe3b4186f6b6457e060405160405180910390a35050565b600080600160009054906101000a900473ffffffffffffffffffffffffffffffffffffffff1673ffffffffffffffffffffffffffffffffffffffff16634e1273f461175d865188611837565b866040518363ffffffff1660e01b815260040161177b92919061294c565b600060405180830381865afa158015611798573d6000803e3d6000fd5b505050506040513d6000823e3d601f19601f820116820180604052508101906117c19190612ab8565b905060005b8451811015611829578381815181106117e2576117e161206b565b5b60200260200101518282815181106117fd576117fc61206b565b5b6020026020010151101561181657600092505050611830565b8080611821906120c9565b9150506117c6565b5060019150505b9392505050565b606060008367ffffffffffffffff81111561185557611854612112565b5b6040519080825280602002602001820160405280156118835781602001602082028036833780820191505090505b50905060005b848110156118f257838282815181106118a5576118a461206b565b5b602002602001019073ffffffffffffffffffffffffffffffffffffffff16908173ffffffffffffffffffffffffffffffffffffffff168152505080806118ea906120c9565b915050611889565b508091505092915050565b6040518060e0016040528060008152602001600073ffffffffffffffffffffffffffffffffffffffff168152602001606081526020016060815260200160608152602001606081526020016000600281111561195c5761195b611aae565b5b81525090565b82805482825590600052602060002090810192821561199e579160200282015b8281111561199d578251825591602001919060010190611982565b5b5090506119ab91906119af565b5090565b5b808211156119c85760008160009055506001016119b0565b5090565b600073ffffffffffffffffffffffffffffffffffffffff82169050919050565b60006119f7826119cc565b9050919050565b611a07816119ec565b82525050565b6000602082019050611a2260008301846119fe565b92915050565b6000604051905090565b600080fd5b600080fd5b6000819050919050565b611a4f81611a3c565b8114611a5a57600080fd5b50565b600081359050611a6c81611a46565b92915050565b600060208284031215611a8857611a87611a32565b5b6000611a9684828501611a5d565b91505092915050565b611aa881611a3c565b82525050565b7f4e487b7100000000000000000000000000000000000000000000000000000000600052602160045260246000fd5b60038110611aee57611aed611aae565b5b50565b6000819050611aff82611add565b919050565b6000611b0f82611af1565b9050919050565b611b1f81611b04565b82525050565b6000606082019050611b3a6000830186611a9f565b611b4760208301856119fe565b611b546040830184611b16565b949350505050565b611b65816119ec565b8114611b7057600080fd5b50565b600081359050611b8281611b5c565b92915050565b600060208284031215611b9e57611b9d611a32565b5b6000611bac84828501611b73565b91505092915050565b600081519050919050565b600082825260208201905092915050565b6000819050602082019050919050565b611bea81611a3c565b82525050565b611bf9816119ec565b82525050565b600081519050919050565b600082825260208201905092915050565b6000819050602082019050919050565b6000611c378383611be1565b60208301905092915050565b6000602082019050919050565b6000611c5b82611bff565b611c658185611c0a565b9350611c7083611c1b565b8060005b83811015611ca1578151611c888882611c2b565b9750611c9383611c43565b925050600181019050611c74565b5085935050505092915050565b611cb781611b04565b82525050565b600060e083016000830151611cd56000860182611be1565b506020830151611ce86020860182611bf0565b5060408301518482036040860152611d008282611c50565b91505060608301518482036060860152611d1a8282611c50565b91505060808301518482036080860152611d348282611c50565b91505060a083015184820360a0860152611d4e8282611c50565b91505060c0830151611d6360c0860182611cae565b508091505092915050565b6000611d7a8383611cbd565b905092915050565b6000602082019050919050565b6000611d9a82611bb5565b611da48185611bc0565b935083602082028501611db685611bd1565b8060005b85811015611df25784840389528151611dd38582611d6e565b9450611dde83611d82565b925060208a01995050600181019050611dba565b50829750879550505050505092915050565b60006020820190508181036000830152611e1e8184611d8f565b905092915050565b600080fd5b600080fd5b600080fd5b60008083601f840112611e4b57611e4a611e26565b5b8235905067ffffffffffffffff811115611e6857611e67611e2b565b5b602083019150836020820283011115611e8457611e83611e30565b5b9250929050565b6000806000806000806000806080898b031215611eab57611eaa611a32565b5b600089013567ffffffffffffffff811115611ec957611ec8611a37565b5b611ed58b828c01611e35565b9850985050602089013567ffffffffffffffff811115611ef857611ef7611a37565b5b611f048b828c01611e35565b9650965050604089013567ffffffffffffffff811115611f2757611f26611a37565b5b611f338b828c01611e35565b9450945050606089013567ffffffffffffffff811115611f5657611f55611a37565b5b611f628b828c01611e35565b92509250509295985092959890939650565b6000819050919050565b6000611f99611f94611f8f846119cc565b611f74565b6119cc565b9050919050565b6000611fab82611f7e565b9050919050565b6000611fbd82611fa0565b9050919050565b611fcd81611fb2565b82525050565b6000602082019050611fe86000830184611fc4565b92915050565b600082825260208201905092915050565b7f4f776e61626c653a2063616c6c6572206973206e6f7420746865206f776e6572600082015250565b6000612035602083611fee565b915061204082611fff565b602082019050919050565b6000602082019050818103600083015261206481612028565b9050919050565b7f4e487b7100000000000000000000000000000000000000000000000000000000600052603260045260246000fd5b7f4e487b7100000000000000000000000000000000000000000000000000000000600052601160045260246000fd5b60006120d482611a3c565b91507fffffffffffffffffffffffffffffffffffffffffffffffffffffffffffffffff8214156121075761210661209a565b5b600182019050919050565b7f4e487b7100000000000000000000000000000000000000000000000000000000600052604160045260246000fd5b7f4172726179206c656e6774687320646f6e2774206d6174636800000000000000600082015250565b6000612177601983611fee565b915061218282612141565b602082019050919050565b600060208201905081810360008301526121a68161216a565b9050919050565b60006040820190506121c260008301856119fe565b6121cf60208301846119fe565b9392505050565b60008115159050919050565b6121eb816121d6565b81146121f657600080fd5b50565b600081519050612208816121e2565b92915050565b60006020828403121561222457612223611a32565b5b6000612232848285016121f9565b91505092915050565b7f596f75206d75737420617070726f766520666972737400000000000000000000600082015250565b6000612271601683611fee565b915061227c8261223b565b602082019050919050565b600060208201905081810360008301526122a081612264565b9050919050565b7f596f7520646f6e277420686176652073756666696369656e742062616c616e6360008201527f6500000000000000000000000000000000000000000000000000000000000000602082015250565b6000612303602183611fee565b915061230e826122a7565b604082019050919050565b60006020820190508181036000830152612332816122f6565b9050919050565b600082825260208201905092915050565b600080fd5b82818337600083830152505050565b600061236a8385612339565b93507f07ffffffffffffffffffffffffffffffffffffffffffffffffffffffffffffff83111561239d5761239c61234a565b5b6020830292506123ae83858461234f565b82840190509392505050565b600060808201905081810360008301526123d5818a8c61235e565b905081810360208301526123ea81888a61235e565b905081810360408301526123ff81868861235e565b9050818103606083015261241481848661235e565b90509998505050505050505050565b7f54686973207472616465206973206e6f742063757272656e746c79206f70656e600082015250565b6000612459602083611fee565b915061246482612423565b602082019050919050565b600060208201905081810360008301526124888161244c565b9050919050565b60006020820190506124a46000830184611b16565b92915050565b7f547261646520696e69746961746f7220646f65736e277420686176652073756660008201527f66696369656e742062616c616e63650000000000000000000000000000000000602082015250565b6000612506602f83611fee565b9150612511826124aa565b604082019050919050565b60006020820190508181036000830152612535816124f9565b9050919050565b7f54726164652069736e27742061637469766520616e796d6f7265000000000000600082015250565b6000612572601a83611fee565b915061257d8261253c565b602082019050919050565b600060208201905081810360008301526125a181612565565b9050919050565b7f596f752063616e27742066756c66696c6c20796f7572206f776e20747261646560008201527f7300000000000000000000000000000000000000000000000000000000000000602082015250565b6000612604602183611fee565b915061260f826125a8565b604082019050919050565b60006020820190508181036000830152612633816125f7565b9050919050565b600081549050919050565b60008190508160005260206000209050919050565b60008160001c9050919050565b6000819050919050565b600061268461267f8361265a565b612667565b9050919050565b60006126978254612671565b9050919050565b6000600182019050919050565b60006126b68261263a565b6126c08185612339565b93506126cb83612645565b8060005b83811015612703576126e08261268b565b6126ea8882611c2b565b97506126f58361269e565b9250506001810190506126cf565b5085935050505092915050565b600082825260208201905092915050565b50565b6000612731600083612710565b915061273c82612721565b600082019050919050565b600060a08201905061275c60008301876119fe565b61276960208301866119fe565b818103604083015261277b81856126ab565b9050818103606083015261278f81846126ab565b905081810360808301526127a281612724565b905095945050505050565b7f4f776e61626c653a206e6577206f776e657220697320746865207a65726f206160008201527f6464726573730000000000000000000000000000000000000000000000000000602082015250565b6000612809602683611fee565b9150612814826127ad565b604082019050919050565b60006020820190508181036000830152612838816127fc565b9050919050565b600081519050919050565b600082825260208201905092915050565b6000819050602082019050919050565b60006128778383611bf0565b60208301905092915050565b6000602082019050919050565b600061289b8261283f565b6128a5818561284a565b93506128b08361285b565b8060005b838110156128e15781516128c8888261286b565b97506128d383612883565b9250506001810190506128b4565b5085935050505092915050565b60006128f982611bff565b6129038185612339565b935061290e83611c1b565b8060005b8381101561293f5781516129268882611c2b565b975061293183611c43565b925050600181019050612912565b5085935050505092915050565b600060408201905081810360008301526129668185612890565b9050818103602083015261297a81846128ee565b90509392505050565b6000601f19601f8301169050919050565b61299d82612983565b810181811067ffffffffffffffff821117156129bc576129bb612112565b5b80604052505050565b60006129cf611a28565b90506129db8282612994565b919050565b600067ffffffffffffffff8211156129fb576129fa612112565b5b602082029050602081019050919050565b600081519050612a1b81611a46565b92915050565b6000612a34612a2f846129e0565b6129c5565b90508083825260208201905060208402830185811115612a5757612a56611e30565b5b835b81811015612a805780612a6c8882612a0c565b845260208401935050602081019050612a59565b5050509392505050565b600082601f830112612a9f57612a9e611e26565b5b8151612aaf848260208601612a21565b91505092915050565b600060208284031215612ace57612acd611a32565b5b600082015167ffffffffffffffff811115612aec57612aeb611a37565b5b612af884828501612a8a565b9150509291505056fea264697066735822122041ba1f7dbcec72a3db3c4dbf54ee953413fedf8f4c599984e44f0f13a9e7967464736f6c634300080a0033",
  "immutableReferences": {},
  "source": "// SPDX-License-Identifier: MIT\r\npragma solidity ^0.8.7;\r\n\r\nimport \"./IotaHeroFactory.sol\";\r\nimport \"./IotaHeroGameTokens.sol\";\r\n\r\ncontract IotaHeroTokenTrade is Ownable {\r\n    IotaHeroGameTokens public tokens;\r\n\r\n    Trade[] public trades;\r\n    uint256 tradeCounter = 0;\r\n    enum TradeStatus {\r\n        OPEN,\r\n        FULFILLED,\r\n        CANCELLED\r\n    }\r\n    struct Trade {\r\n        uint256 tradeId;\r\n        address tradeInitiator;\r\n        uint256[] tokenIdsForSale;\r\n        uint256[] amountsToSell;\r\n        uint256[] tokenIdsWanted;\r\n        uint256[] amountsWanted;\r\n        TradeStatus tradeStatus;\r\n    }\r\n    mapping(uint256 => address) public tradeToOwner;\r\n\r\n    event TradeCreated(\r\n        uint256 indexed tradeId,\r\n        address indexed creator,\r\n        uint256[] tokenIdForSale,\r\n        uint256[] amountsToSell,\r\n        uint256[] tokenIdWanted,\r\n        uint256[] amountsWanted\r\n    );\r\n    event TradeUpdated(\r\n        uint256 indexed tradeId,\r\n        address indexed updater,\r\n        TradeStatus updatedStatus\r\n    );\r\n\r\n    modifier onlyOwnerOf(uint256 _tradeId) {\r\n        require(tradeToOwner[_tradeId] == msg.sender);\r\n        _;\r\n    }\r\n\r\n    function setTokenAddress(address _tokenAddress) public onlyOwner {\r\n        tokens = IotaHeroGameTokens(_tokenAddress);\r\n    }\r\n\r\n    function getTokenAddress() public view returns (address) {\r\n        return address(tokens);\r\n    }\r\n\r\n    function getOpenTrades() public view returns (Trade[] memory) {\r\n        uint256 resultCount;\r\n        for (uint256 i = 0; i < trades.length; i++) {\r\n            if (trades[i].tradeStatus == TradeStatus.OPEN) {\r\n                resultCount++;\r\n            }\r\n        }\r\n        Trade[] memory openTrades = new Trade[](resultCount);\r\n        uint256 c = 0;\r\n        for (uint256 i = 0; i < trades.length; i++) {\r\n            if (trades[i].tradeStatus == TradeStatus.OPEN) {\r\n                openTrades[c] = trades[i];\r\n                c++;\r\n            }\r\n        }\r\n        return openTrades;\r\n    }\r\n\r\n    function _checkBalances(\r\n        address addr,\r\n        uint256[] memory tokenArr,\r\n        uint256[] memory balanceArr\r\n    ) internal view returns (bool) {\r\n        uint256[] memory balancesAtAddr = tokens.balanceOfBatch(\r\n            _initArray(tokenArr.length, addr),\r\n            tokenArr\r\n        );\r\n        for (uint256 i = 0; i < tokenArr.length; i++) {\r\n            if (balancesAtAddr[i] < balanceArr[i]) {\r\n                return false;\r\n            }\r\n        }\r\n        return true;\r\n    }\r\n\r\n    function _initArray(uint256 length, address value)\r\n        internal\r\n        pure\r\n        returns (address[] memory)\r\n    {\r\n        address[] memory arr = new address[](length);\r\n        for (uint256 i = 0; i < length; i++) {\r\n            arr[i] = value;\r\n        }\r\n        return arr;\r\n    }\r\n\r\n    function setTradeOffer(\r\n        uint256[] calldata tokenIdsForSale,\r\n        uint256[] calldata amountToSell,\r\n        uint256[] calldata tokenIdsWanted,\r\n        uint256[] calldata amountWanted\r\n    ) public {\r\n        require(\r\n            tokenIdsForSale.length == amountToSell.length &&\r\n                tokenIdsWanted.length == amountWanted.length,\r\n            \"Array lengths don't match\"\r\n        );\r\n        require(\r\n            tokens.isApprovedForAll(msg.sender, address(this)),\r\n            \"You must approve first\"\r\n        );\r\n        require(\r\n            _checkBalances(msg.sender, tokenIdsForSale, amountToSell),\r\n            \"You don't have sufficient balance\"\r\n        );\r\n\r\n        Trade memory trade = Trade(\r\n            tradeCounter,\r\n            msg.sender,\r\n            tokenIdsForSale,\r\n            amountToSell,\r\n            tokenIdsWanted,\r\n            amountWanted,\r\n            TradeStatus.OPEN\r\n        );\r\n        trades.push(trade);\r\n        tradeToOwner[tradeCounter] = msg.sender;\r\n\r\n        emit TradeCreated(\r\n            tradeCounter,\r\n            msg.sender,\r\n            tokenIdsForSale,\r\n            amountToSell,\r\n            tokenIdsWanted,\r\n            amountWanted\r\n        );\r\n        tradeCounter++;\r\n    }\r\n\r\n    function cancelTradeOffer(uint256 _tradeId) public onlyOwnerOf(_tradeId) {\r\n        Trade storage trade = trades[_tradeId];\r\n        require(\r\n            trade.tradeStatus == TradeStatus.OPEN,\r\n            \"This trade is not currently open\"\r\n        );\r\n\r\n        trade.tradeStatus = TradeStatus.CANCELLED;\r\n        emit TradeUpdated(_tradeId, msg.sender, TradeStatus.CANCELLED);\r\n    }\r\n\r\n    function fulfillTradeOffer(uint256 _tradeId) public {\r\n        Trade storage trade = trades[_tradeId];\r\n        require(\r\n            _checkBalances(\r\n                msg.sender,\r\n                trade.tokenIdsWanted,\r\n                trade.amountsWanted\r\n            ),\r\n            \"You don't have sufficient balance\"\r\n        );\r\n        require(\r\n            _checkBalances(\r\n                trade.tradeInitiator,\r\n                trade.tokenIdsForSale,\r\n                trade.amountsToSell\r\n            ),\r\n            \"Trade initiator doesn't have sufficient balance\"\r\n        ); // check that trader has the required tokens\r\n        require(\r\n            trade.tradeStatus == TradeStatus.OPEN,\r\n            \"Trade isn't active anymore\"\r\n        );\r\n        require(\r\n            tokens.isApprovedForAll(msg.sender, address(this)),\r\n            \"You must approve first\"\r\n        );\r\n        require(\r\n            trade.tradeInitiator != msg.sender,\r\n            \"You can't fulfill your own trades\"\r\n        );\r\n        trade.tradeStatus = TradeStatus.FULFILLED;\r\n        tokens.safeBatchTransferFrom(\r\n            msg.sender,\r\n            trade.tradeInitiator,\r\n            trade.tokenIdsWanted,\r\n            trade.amountsWanted,\r\n            \"\"\r\n        );\r\n        tokens.safeBatchTransferFrom(\r\n            trade.tradeInitiator,\r\n            msg.sender,\r\n            trade.tokenIdsForSale,\r\n            trade.amountsToSell,\r\n            \"\"\r\n        );\r\n        emit TradeUpdated(_tradeId, msg.sender, TradeStatus.FULFILLED);\r\n    }\r\n}\r\n",
  "sourcePath": "C:\\Users\\creld\\source\\repos\\IotaHeroesAzure\\smartcontracts\\contracts\\IotaHeroTokenTrade.sol",
  "compiler": {
    "name": "solc",
    "version": "0.8.10+commit.fc410830.Emscripten.clang"
  },
  "schemaVersion": "3.4.4",
  "updatedAt": "2022-04-14T16:55:10.630Z",
  "networkType": "ethereum",
  "devdoc": {
    "kind": "dev",
    "methods": {
      "owner()": {
        "details": "Returns the address of the current owner."
      },
      "renounceOwnership()": {
        "details": "Leaves the contract without owner. It will not be possible to call `onlyOwner` functions anymore. Can only be called by the current owner. NOTE: Renouncing ownership will leave the contract without an owner, thereby removing any functionality that is only available to the owner."
      },
      "transferOwnership(address)": {
        "details": "Transfers ownership of the contract to a new account (`newOwner`). Can only be called by the current owner."
      }
    },
    "version": 1
  },
  "userdoc": {
    "kind": "user",
    "methods": {},
    "version": 1
  }
}