{
  "contractName": "IotaHeroAccount",
  "abi": [
    {
      "inputs": [
        {
          "internalType": "address",
          "name": "",
          "type": "address"
        }
      ],
      "name": "addressToId",
      "outputs": [
        {
          "internalType": "uint256",
          "name": "",
          "type": "uint256"
        }
      ],
      "stateMutability": "view",
      "type": "function"
    },
    {
      "inputs": [
        {
          "internalType": "uint256",
          "name": "",
          "type": "uint256"
        }
      ],
      "name": "idToAddress",
      "outputs": [
        {
          "internalType": "address",
          "name": "",
          "type": "address"
        }
      ],
      "stateMutability": "view",
      "type": "function"
    },
    {
      "inputs": [
        {
          "internalType": "uint256",
          "name": "",
          "type": "uint256"
        }
      ],
      "name": "idToUsername",
      "outputs": [
        {
          "internalType": "string",
          "name": "",
          "type": "string"
        }
      ],
      "stateMutability": "view",
      "type": "function"
    },
    {
      "inputs": [
        {
          "internalType": "string",
          "name": "",
          "type": "string"
        }
      ],
      "name": "usernameToId",
      "outputs": [
        {
          "internalType": "uint256",
          "name": "",
          "type": "uint256"
        }
      ],
      "stateMutability": "view",
      "type": "function"
    },
    {
      "inputs": [
        {
          "internalType": "string",
          "name": "_username",
          "type": "string"
        }
      ],
      "name": "signUp",
      "outputs": [],
      "stateMutability": "nonpayable",
      "type": "function"
    },
    {
      "inputs": [
        {
          "internalType": "string",
          "name": "_username",
          "type": "string"
        }
      ],
      "name": "usernameExists",
      "outputs": [
        {
          "internalType": "bool",
          "name": "",
          "type": "bool"
        }
      ],
      "stateMutability": "view",
      "type": "function"
    },
    {
      "inputs": [],
      "name": "isSignedUp",
      "outputs": [
        {
          "internalType": "bool",
          "name": "",
          "type": "bool"
        }
      ],
      "stateMutability": "view",
      "type": "function"
    },
    {
      "inputs": [],
      "name": "getUsername",
      "outputs": [
        {
          "internalType": "string",
          "name": "",
          "type": "string"
        }
      ],
      "stateMutability": "view",
      "type": "function"
    },
    {
      "inputs": [
        {
          "internalType": "address",
          "name": "_address",
          "type": "address"
        }
      ],
      "name": "getUsernameByAddress",
      "outputs": [
        {
          "internalType": "string",
          "name": "",
          "type": "string"
        }
      ],
      "stateMutability": "view",
      "type": "function"
    },
    {
      "inputs": [],
      "name": "getUsernameLength",
      "outputs": [
        {
          "internalType": "uint256",
          "name": "",
          "type": "uint256"
        }
      ],
      "stateMutability": "view",
      "type": "function"
    },
    {
      "inputs": [],
      "name": "currentUserCount",
      "outputs": [
        {
          "internalType": "uint256",
          "name": "",
          "type": "uint256"
        }
      ],
      "stateMutability": "view",
      "type": "function"
    }
  ],
  "bytecode": "0x6080604052600160005534801561001557600080fd5b506112d7806100256000396000f3fe608060405234801561001057600080fd5b50600436106100a95760003560e01c80636d0cac8e116100715780636d0cac8e1461017a578063adcfb4fc14610198578063cb0e0d7d146101b4578063ed1a998d146101e4578063f1c4660614610214578063f309e3f914610232576100a9565b8063191d1cb4146100ae5780632a2d0c47146100cc57806339bdca1f146100fc5780635e1fe1db1461012c578063681f3e6d1461015c575b600080fd5b6100b6610262565b6040516100c39190610ba8565b60405180910390f35b6100e660048036038101906100e19190610c0d565b6102ac565b6040516100f39190610c7b565b60405180910390f35b61011660048036038101906101119190610c0d565b6102df565b6040516101239190610d2f565b60405180910390f35b61014660048036038101906101419190610e86565b61037f565b6040516101539190610ede565b60405180910390f35b6101646103ad565b6040516101719190610d2f565b60405180910390f35b61018261048f565b60405161018f9190610ede565b60405180910390f35b6101b260048036038101906101ad9190610e86565b6104a5565b005b6101ce60048036038101906101c99190610f25565b6106ea565b6040516101db9190610ede565b60405180910390f35b6101fe60048036038101906101f99190610f25565b610702565b60405161020b9190610d2f565b60405180910390f35b61021c6107e6565b6040516102299190610ede565b60405180910390f35b61024c60048036038101906102479190610e86565b610802565b6040516102599190610ba8565b60405180910390f35b600080600360003373ffffffffffffffffffffffffffffffffffffffff1673ffffffffffffffffffffffffffffffffffffffff168152602001908152602001600020541415905090565b60016020528060005260406000206000915054906101000a900473ffffffffffffffffffffffffffffffffffffffff1681565b600260205280600052604060002060009150905080546102fe90610f81565b80601f016020809104026020016040519081016040528092919081815260200182805461032a90610f81565b80156103775780601f1061034c57610100808354040283529160200191610377565b820191906000526020600020905b81548152906001019060200180831161035a57829003601f168201915b505050505081565b6004818051602081018201805184825260208301602085012081835280955050505050506000915090505481565b606060026000600360003373ffffffffffffffffffffffffffffffffffffffff1673ffffffffffffffffffffffffffffffffffffffff168152602001908152602001600020548152602001908152602001600020805461040c90610f81565b80601f016020809104026020016040519081016040528092919081815260200182805461043890610f81565b80156104855780601f1061045a57610100808354040283529160200191610485565b820191906000526020600020905b81548152906001019060200180831161046857829003601f168201915b5050505050905090565b600060016000546104a09190610fe2565b905090565b8060006004826040516104b89190611052565b90815260200160405180910390205414610507576040517f08c379a00000000000000000000000000000000000000000000000000000000081526004016104fe906110b5565b60405180910390fd5b6000600360003373ffffffffffffffffffffffffffffffffffffffff1673ffffffffffffffffffffffffffffffffffffffff1681526020019081526020016000205414610589576040517f08c379a000000000000000000000000000000000000000000000000000000000815260040161058090611121565b60405180910390fd5b8160006105958261082d565b9050600d811080156105a75750600281115b6105e6576040517f08c379a00000000000000000000000000000000000000000000000000000000081526004016105dd906111b3565b60405180910390fd5b600054600360003373ffffffffffffffffffffffffffffffffffffffff1673ffffffffffffffffffffffffffffffffffffffff1681526020019081526020016000208190555033600160008054815260200190815260200160002060006101000a81548173ffffffffffffffffffffffffffffffffffffffff021916908373ffffffffffffffffffffffffffffffffffffffff16021790555083600260008054815260200190815260200160002090805190602001906106a7929190610aea565b506000546004856040516106bb9190611052565b9081526020016040518091039020819055506000808154809291906106df906111d3565b919050555050505050565b60036020528060005260406000206000915090505481565b606060026000600360008573ffffffffffffffffffffffffffffffffffffffff1673ffffffffffffffffffffffffffffffffffffffff168152602001908152602001600020548152602001908152602001600020805461076190610f81565b80601f016020809104026020016040519081016040528092919081815260200182805461078d90610f81565b80156107da5780601f106107af576101008083540402835291602001916107da565b820191906000526020600020905b8154815290600101906020018083116107bd57829003601f168201915b50505050509050919050565b6000806107f16103ad565b90506107fc8161082d565b91505090565b6000806004836040516108159190611052565b90815260200160405180910390205414159050919050565b6000806000905060008390505b8051821015610ae357600060f81b600782848151811061085d5761085c61121c565b5b602001015160f81c60f81b7effffffffffffffffffffffffffffffffffffffffffffffffffffffffffffff1916901c7effffffffffffffffffffffffffffffffffffffffffffffffffffffffffffff191614156108c8576001826108c1919061124b565b9150610ad0565b600660f81b7effffffffffffffffffffffffffffffffffffffffffffffffffffffffffffff191660058284815181106109045761090361121c565b5b602001015160f81c60f81b7effffffffffffffffffffffffffffffffffffffffffffffffffffffffffffff1916901c7effffffffffffffffffffffffffffffffffffffffffffffffffffffffffffff1916141561096f57600282610968919061124b565b9150610acf565b600e60f81b7effffffffffffffffffffffffffffffffffffffffffffffffffffffffffffff191660048284815181106109ab576109aa61121c565b5b602001015160f81c60f81b7effffffffffffffffffffffffffffffffffffffffffffffffffffffffffffff1916901c7effffffffffffffffffffffffffffffffffffffffffffffffffffffffffffff19161415610a1657600382610a0f919061124b565b9150610ace565b601e60f81b7effffffffffffffffffffffffffffffffffffffffffffffffffffffffffffff19166003828481518110610a5257610a5161121c565b5b602001015160f81c60f81b7effffffffffffffffffffffffffffffffffffffffffffffffffffffffffffff1916901c7effffffffffffffffffffffffffffffffffffffffffffffffffffffffffffff19161415610abd57600482610ab6919061124b565b9150610acd565b600182610aca919061124b565b91505b5b5b5b8280610adb906111d3565b93505061083a565b5050919050565b828054610af690610f81565b90600052602060002090601f016020900481019282610b185760008555610b5f565b82601f10610b3157805160ff1916838001178555610b5f565b82800160010185558215610b5f579182015b82811115610b5e578251825591602001919060010190610b43565b5b509050610b6c9190610b70565b5090565b5b80821115610b89576000816000905550600101610b71565b5090565b60008115159050919050565b610ba281610b8d565b82525050565b6000602082019050610bbd6000830184610b99565b92915050565b6000604051905090565b600080fd5b600080fd5b6000819050919050565b610bea81610bd7565b8114610bf557600080fd5b50565b600081359050610c0781610be1565b92915050565b600060208284031215610c2357610c22610bcd565b5b6000610c3184828501610bf8565b91505092915050565b600073ffffffffffffffffffffffffffffffffffffffff82169050919050565b6000610c6582610c3a565b9050919050565b610c7581610c5a565b82525050565b6000602082019050610c906000830184610c6c565b92915050565b600081519050919050565b600082825260208201905092915050565b60005b83811015610cd0578082015181840152602081019050610cb5565b83811115610cdf576000848401525b50505050565b6000601f19601f8301169050919050565b6000610d0182610c96565b610d0b8185610ca1565b9350610d1b818560208601610cb2565b610d2481610ce5565b840191505092915050565b60006020820190508181036000830152610d498184610cf6565b905092915050565b600080fd5b600080fd5b7f4e487b7100000000000000000000000000000000000000000000000000000000600052604160045260246000fd5b610d9382610ce5565b810181811067ffffffffffffffff82111715610db257610db1610d5b565b5b80604052505050565b6000610dc5610bc3565b9050610dd18282610d8a565b919050565b600067ffffffffffffffff821115610df157610df0610d5b565b5b610dfa82610ce5565b9050602081019050919050565b82818337600083830152505050565b6000610e29610e2484610dd6565b610dbb565b905082815260208101848484011115610e4557610e44610d56565b5b610e50848285610e07565b509392505050565b600082601f830112610e6d57610e6c610d51565b5b8135610e7d848260208601610e16565b91505092915050565b600060208284031215610e9c57610e9b610bcd565b5b600082013567ffffffffffffffff811115610eba57610eb9610bd2565b5b610ec684828501610e58565b91505092915050565b610ed881610bd7565b82525050565b6000602082019050610ef36000830184610ecf565b92915050565b610f0281610c5a565b8114610f0d57600080fd5b50565b600081359050610f1f81610ef9565b92915050565b600060208284031215610f3b57610f3a610bcd565b5b6000610f4984828501610f10565b91505092915050565b7f4e487b7100000000000000000000000000000000000000000000000000000000600052602260045260246000fd5b60006002820490506001821680610f9957607f821691505b60208210811415610fad57610fac610f52565b5b50919050565b7f4e487b7100000000000000000000000000000000000000000000000000000000600052601160045260246000fd5b6000610fed82610bd7565b9150610ff883610bd7565b92508282101561100b5761100a610fb3565b5b828203905092915050565b600081905092915050565b600061102c82610c96565b6110368185611016565b9350611046818560208601610cb2565b80840191505092915050565b600061105e8284611021565b915081905092915050565b7f557365726e616d652069732074616b656e000000000000000000000000000000600082015250565b600061109f601183610ca1565b91506110aa82611069565b602082019050919050565b600060208201905081810360008301526110ce81611092565b9050919050565b7f596f7520616c7265616479206861766520616e206163636f756e742100000000600082015250565b600061110b601c83610ca1565b9150611116826110d5565b602082019050919050565b6000602082019050818103600083015261113a816110fe565b9050919050565b7f557365726e616d65206d757374206265206265747765656e203320616e64203160008201527f3220636861726163746572730000000000000000000000000000000000000000602082015250565b600061119d602c83610ca1565b91506111a882611141565b604082019050919050565b600060208201905081810360008301526111cc81611190565b9050919050565b60006111de82610bd7565b91507fffffffffffffffffffffffffffffffffffffffffffffffffffffffffffffffff82141561121157611210610fb3565b5b600182019050919050565b7f4e487b7100000000000000000000000000000000000000000000000000000000600052603260045260246000fd5b600061125682610bd7565b915061126183610bd7565b9250827fffffffffffffffffffffffffffffffffffffffffffffffffffffffffffffffff0382111561129657611295610fb3565b5b82820190509291505056fea26469706673582212204691da0c2aaea43aab4f1308fa003204cc52a2c1c6458099a1288a9cbc30f88064736f6c634300080a0033",
  "immutableReferences": {},
  "source": "// SPDX-License-Identifier: MIT\r\npragma solidity ^0.8.7;\r\n\r\ncontract IotaHeroAccount {\r\n    uint256 nextAccountId = 1;\r\n\r\n    mapping(uint256 => address) public idToAddress;\r\n    mapping(uint256 => string) public idToUsername;\r\n    mapping(address => uint256) public addressToId;\r\n    mapping(string => uint256) public usernameToId;\r\n\r\n    function signUp(string memory _username)\r\n        public\r\n        usernameNotTaken(_username)\r\n        noAccount\r\n        usernameHasValidLength(_username)\r\n    {\r\n        addressToId[msg.sender] = nextAccountId;\r\n        idToAddress[nextAccountId] = msg.sender;\r\n        idToUsername[nextAccountId] = _username;\r\n        usernameToId[_username] = nextAccountId;\r\n        nextAccountId++;\r\n    }\r\n\r\n    modifier usernameNotTaken(string memory _username) {\r\n        require(usernameToId[_username] == 0, \"Username is taken\");\r\n        _;\r\n    }\r\n    modifier hasAccount() {\r\n        require(addressToId[msg.sender] != 0, \"You don't have an account\");\r\n        _;\r\n    }\r\n    modifier noAccount() {\r\n        require(addressToId[msg.sender] == 0, \"You already have an account!\");\r\n        _;\r\n    }\r\n    modifier usernameHasValidLength(string memory _username) {\r\n        uint256 length = utfStringLength(_username);\r\n        require(\r\n            length < 13 && length > 2,\r\n            \"Username must be between 3 and 12 characters\"\r\n        );\r\n        _;\r\n    }\r\n\r\n    function usernameExists(string memory _username)\r\n        public\r\n        view\r\n        returns (bool)\r\n    {\r\n        return (usernameToId[_username] != 0);\r\n    }\r\n\r\n    function isSignedUp() public view returns (bool) {\r\n        return addressToId[msg.sender] != 0;\r\n    }\r\n\r\n    function getUsername() public view returns (string memory) {\r\n        return idToUsername[addressToId[msg.sender]];\r\n    }\r\n\r\n    function getUsernameByAddress(address _address)\r\n        public\r\n        view\r\n        returns (string memory)\r\n    {\r\n        return idToUsername[addressToId[_address]];\r\n    }\r\n\r\n    function getUsernameLength() public view returns (uint256) {\r\n        string memory username = getUsername();\r\n        return utfStringLength(username);\r\n    }\r\n\r\n    function currentUserCount() public view returns (uint256) {\r\n        return (nextAccountId - 1);\r\n    }\r\n\r\n    function utfStringLength(string memory str)\r\n        internal\r\n        pure\r\n        returns (uint256 length)\r\n    {\r\n        uint256 i = 0;\r\n        bytes memory string_rep = bytes(str);\r\n\r\n        while (i < string_rep.length) {\r\n            if (string_rep[i] >> 7 == 0) i += 1;\r\n            else if (string_rep[i] >> 5 == bytes1(uint8(0x6))) i += 2;\r\n            else if (string_rep[i] >> 4 == bytes1(uint8(0xE))) i += 3;\r\n            else if (string_rep[i] >> 3 == bytes1(uint8(0x1E)))\r\n                i += 4;\r\n                //For safety\r\n            else i += 1;\r\n\r\n            length++;\r\n        }\r\n    }\r\n}\r\n",
  "sourcePath": "C:\\Users\\creld\\source\\repos\\IotaHeroes\\smartcontracts\\contracts\\IotaHeroAccount.sol",
  "compiler": {
    "name": "solc",
    "version": "0.8.10+commit.fc410830.Emscripten.clang"
  },
  "schemaVersion": "3.4.4",
  "updatedAt": "2022-01-16T00:13:43.745Z",
  "devdoc": {
    "kind": "dev",
    "methods": {},
    "version": 1
  },
  "userdoc": {
    "kind": "user",
    "methods": {},
    "version": 1
  }
}