{
  "contractName": "IotaHeroStore",
  "abi": [
    {
      "anonymous": false,
      "inputs": [
        {
          "indexed": true,
          "internalType": "address",
          "name": "buyer",
          "type": "address"
        },
        {
          "indexed": true,
          "internalType": "uint256",
          "name": "storeId",
          "type": "uint256"
        },
        {
          "indexed": false,
          "internalType": "uint256",
          "name": "tokenId",
          "type": "uint256"
        },
        {
          "indexed": false,
          "internalType": "uint256",
          "name": "amount",
          "type": "uint256"
        }
      ],
      "name": "ItemBought",
      "type": "event"
    },
    {
      "anonymous": false,
      "inputs": [
        {
          "indexed": true,
          "internalType": "address",
          "name": "previousOwner",
          "type": "address"
        },
        {
          "indexed": true,
          "internalType": "address",
          "name": "newOwner",
          "type": "address"
        }
      ],
      "name": "OwnershipTransferred",
      "type": "event"
    },
    {
      "inputs": [],
      "name": "owner",
      "outputs": [
        {
          "internalType": "address",
          "name": "",
          "type": "address"
        }
      ],
      "stateMutability": "view",
      "type": "function",
      "constant": true
    },
    {
      "inputs": [],
      "name": "renounceOwnership",
      "outputs": [],
      "stateMutability": "nonpayable",
      "type": "function"
    },
    {
      "inputs": [
        {
          "internalType": "uint256",
          "name": "",
          "type": "uint256"
        }
      ],
      "name": "stores",
      "outputs": [
        {
          "internalType": "uint256",
          "name": "id",
          "type": "uint256"
        },
        {
          "internalType": "string",
          "name": "name",
          "type": "string"
        },
        {
          "internalType": "enum IotaHeroStore.StoreStatus",
          "name": "status",
          "type": "uint8"
        },
        {
          "internalType": "uint256",
          "name": "nextProductLineId",
          "type": "uint256"
        }
      ],
      "stateMutability": "view",
      "type": "function",
      "constant": true
    },
    {
      "inputs": [
        {
          "internalType": "bytes4",
          "name": "interfaceId",
          "type": "bytes4"
        }
      ],
      "name": "supportsInterface",
      "outputs": [
        {
          "internalType": "bool",
          "name": "",
          "type": "bool"
        }
      ],
      "stateMutability": "view",
      "type": "function",
      "constant": true
    },
    {
      "inputs": [],
      "name": "tokens",
      "outputs": [
        {
          "internalType": "contract IotaHeroGameTokens",
          "name": "",
          "type": "address"
        }
      ],
      "stateMutability": "view",
      "type": "function",
      "constant": true
    },
    {
      "inputs": [
        {
          "internalType": "address",
          "name": "newOwner",
          "type": "address"
        }
      ],
      "name": "transferOwnership",
      "outputs": [],
      "stateMutability": "nonpayable",
      "type": "function"
    },
    {
      "inputs": [
        {
          "internalType": "uint256",
          "name": "storeId",
          "type": "uint256"
        },
        {
          "internalType": "uint256",
          "name": "tokenId",
          "type": "uint256"
        }
      ],
      "name": "getTokensBalance",
      "outputs": [
        {
          "internalType": "uint256",
          "name": "",
          "type": "uint256"
        }
      ],
      "stateMutability": "view",
      "type": "function",
      "constant": true
    },
    {
      "inputs": [
        {
          "internalType": "address",
          "name": "_tokenAddress",
          "type": "address"
        }
      ],
      "name": "setTokenAddress",
      "outputs": [],
      "stateMutability": "nonpayable",
      "type": "function"
    },
    {
      "inputs": [],
      "name": "getTokenAddress",
      "outputs": [
        {
          "internalType": "address",
          "name": "",
          "type": "address"
        }
      ],
      "stateMutability": "view",
      "type": "function",
      "constant": true
    },
    {
      "inputs": [
        {
          "internalType": "uint256",
          "name": "storeId",
          "type": "uint256"
        }
      ],
      "name": "getProducts",
      "outputs": [
        {
          "components": [
            {
              "internalType": "uint256",
              "name": "id",
              "type": "uint256"
            },
            {
              "internalType": "uint256",
              "name": "tokenId",
              "type": "uint256"
            },
            {
              "internalType": "uint256",
              "name": "amount",
              "type": "uint256"
            },
            {
              "internalType": "uint256",
              "name": "price",
              "type": "uint256"
            },
            {
              "internalType": "uint32",
              "name": "limit",
              "type": "uint32"
            }
          ],
          "internalType": "struct IotaHeroStore.ProductLine[]",
          "name": "",
          "type": "tuple[]"
        }
      ],
      "stateMutability": "view",
      "type": "function",
      "constant": true
    },
    {
      "inputs": [
        {
          "internalType": "uint256",
          "name": "storeId",
          "type": "uint256"
        },
        {
          "internalType": "uint256",
          "name": "productLineId",
          "type": "uint256"
        },
        {
          "internalType": "uint256",
          "name": "amount",
          "type": "uint256"
        }
      ],
      "name": "buyProduct",
      "outputs": [],
      "stateMutability": "payable",
      "type": "function",
      "payable": true
    },
    {
      "inputs": [
        {
          "internalType": "uint256",
          "name": "storeId",
          "type": "uint256"
        },
        {
          "internalType": "uint256",
          "name": "tokenId",
          "type": "uint256"
        },
        {
          "internalType": "uint256",
          "name": "amount",
          "type": "uint256"
        },
        {
          "internalType": "uint256",
          "name": "price",
          "type": "uint256"
        },
        {
          "internalType": "uint32",
          "name": "limit",
          "type": "uint32"
        }
      ],
      "name": "addProductLineToStore",
      "outputs": [],
      "stateMutability": "nonpayable",
      "type": "function"
    },
    {
      "inputs": [
        {
          "internalType": "string",
          "name": "name",
          "type": "string"
        },
        {
          "internalType": "enum IotaHeroStore.StoreStatus",
          "name": "status",
          "type": "uint8"
        }
      ],
      "name": "createStore",
      "outputs": [],
      "stateMutability": "nonpayable",
      "type": "function"
    },
    {
      "inputs": [
        {
          "internalType": "uint256",
          "name": "_storeId",
          "type": "uint256"
        },
        {
          "internalType": "enum IotaHeroStore.StoreStatus",
          "name": "status",
          "type": "uint8"
        }
      ],
      "name": "changeStoreStatus",
      "outputs": [],
      "stateMutability": "nonpayable",
      "type": "function"
    },
    {
      "inputs": [
        {
          "internalType": "uint256",
          "name": "_storeId",
          "type": "uint256"
        },
        {
          "internalType": "address[]",
          "name": "addressesToWhitelist",
          "type": "address[]"
        }
      ],
      "name": "addToWhiteList",
      "outputs": [],
      "stateMutability": "nonpayable",
      "type": "function"
    },
    {
      "inputs": [
        {
          "internalType": "uint256",
          "name": "num",
          "type": "uint256"
        }
      ],
      "name": "formatBytes",
      "outputs": [
        {
          "internalType": "bytes",
          "name": "",
          "type": "bytes"
        }
      ],
      "stateMutability": "pure",
      "type": "function",
      "constant": true
    },
    {
      "inputs": [
        {
          "internalType": "address",
          "name": "",
          "type": "address"
        },
        {
          "internalType": "address",
          "name": "",
          "type": "address"
        },
        {
          "internalType": "uint256",
          "name": "tokenId",
          "type": "uint256"
        },
        {
          "internalType": "uint256",
          "name": "amount",
          "type": "uint256"
        },
        {
          "internalType": "bytes",
          "name": "data",
          "type": "bytes"
        }
      ],
      "name": "onERC1155Received",
      "outputs": [
        {
          "internalType": "bytes4",
          "name": "",
          "type": "bytes4"
        }
      ],
      "stateMutability": "nonpayable",
      "type": "function"
    },
    {
      "inputs": [
        {
          "internalType": "address",
          "name": "",
          "type": "address"
        },
        {
          "internalType": "address",
          "name": "",
          "type": "address"
        },
        {
          "internalType": "uint256[]",
          "name": "ids",
          "type": "uint256[]"
        },
        {
          "internalType": "uint256[]",
          "name": "amounts",
          "type": "uint256[]"
        },
        {
          "internalType": "bytes",
          "name": "data",
          "type": "bytes"
        }
      ],
      "name": "onERC1155BatchReceived",
      "outputs": [
        {
          "internalType": "bytes4",
          "name": "",
          "type": "bytes4"
        }
      ],
      "stateMutability": "nonpayable",
      "type": "function"
    }
  ],
  "bytecode": "0x608060405260006002553480156200001657600080fd5b50620000376200002b6200003d60201b60201c565b6200004560201b60201c565b62000109565b600033905090565b60008060009054906101000a900473ffffffffffffffffffffffffffffffffffffffff169050816000806101000a81548173ffffffffffffffffffffffffffffffffffffffff021916908373ffffffffffffffffffffffffffffffffffffffff1602179055508173ffffffffffffffffffffffffffffffffffffffff168173ffffffffffffffffffffffffffffffffffffffff167f8be0079c531659141344cd1fd0a4f28419497f9722a3daafe3b4186f6b6457e060405160405180910390a35050565b61310580620001196000396000f3fe6080604052600436106101095760003560e01c80639d63848a11610095578063debad27f11610064578063debad27f1461035a578063e8a59cd814610397578063e92ad54d146103d7578063f23a6e6114610400578063f2fde38b1461043d57610109565b80639d63848a146102ad578063b6ac9dea146102d8578063bc197c8114610301578063beff95771461033e57610109565b806336799ca8116100dc57806336799ca8146101c85780634b91ecbe146101f1578063715018a61461022e5780638a4be5a7146102455780638da5cb5b1461028257610109565b806301ffc9a71461010e5780630a6e33831461014b57806310fe9ae81461017457806326a4e8d21461019f575b600080fd5b34801561011a57600080fd5b5061013560048036038101906101309190611bfd565b610466565b6040516101429190611c45565b60405180910390f35b34801561015757600080fd5b50610172600480360381019061016d9190611cbb565b6104e0565b005b34801561018057600080fd5b506101896105b3565b6040516101969190611d3c565b60405180910390f35b3480156101ab57600080fd5b506101c660048036038101906101c19190611d83565b6105dd565b005b3480156101d457600080fd5b506101ef60048036038101906101ea9190611f09565b61069d565b005b3480156101fd57600080fd5b5061021860048036038101906102139190611f65565b6107c1565b604051610225919061201a565b60405180910390f35b34801561023a57600080fd5b506102436107ea565b005b34801561025157600080fd5b5061026c6004803603810190610267919061203c565b610872565b604051610279919061208b565b60405180910390f35b34801561028e57600080fd5b506102976108a1565b6040516102a49190611d3c565b60405180910390f35b3480156102b957600080fd5b506102c26108ca565b6040516102cf9190612105565b60405180910390f35b3480156102e457600080fd5b506102ff60048036038101906102fa919061215c565b6108f0565b005b34801561030d57600080fd5b506103286004803603810190610323919061234f565b610b71565b604051610335919061242d565b60405180910390f35b61035860048036038101906103539190612448565b610ce2565b005b34801561036657600080fd5b50610381600480360381019061037c9190611f65565b6111b8565b60405161038e91906125d0565b60405180910390f35b3480156103a357600080fd5b506103be60048036038101906103b99190611f65565b6112f0565b6040516103ce94939291906126be565b60405180910390f35b3480156103e357600080fd5b506103fe60048036038101906103f991906127ab565b6113c5565b005b34801561040c57600080fd5b5061042760048036038101906104229190612807565b611571565b604051610434919061242d565b60405180910390f35b34801561044957600080fd5b50610464600480360381019061045f9190611d83565b61168f565b005b60007f4e2312e0000000000000000000000000000000000000000000000000000000007bffffffffffffffffffffffffffffffffffffffffffffffffffffffff1916827bffffffffffffffffffffffffffffffffffffffffffffffffffffffff191614806104d957506104d882611787565b5b9050919050565b6104e86117f1565b73ffffffffffffffffffffffffffffffffffffffff166105066108a1565b73ffffffffffffffffffffffffffffffffffffffff161461055c576040517f08c379a0000000000000000000000000000000000000000000000000000000008152600401610553906128ea565b60405180910390fd5b6000600383815481106105725761057161290a565b5b90600052602060002090600502019050818160020160006101000a81548160ff021916908360028111156105a9576105a8612647565b5b0217905550505050565b6000600160009054906101000a900473ffffffffffffffffffffffffffffffffffffffff16905090565b6105e56117f1565b73ffffffffffffffffffffffffffffffffffffffff166106036108a1565b73ffffffffffffffffffffffffffffffffffffffff1614610659576040517f08c379a0000000000000000000000000000000000000000000000000000000008152600401610650906128ea565b60405180910390fd5b80600160006101000a81548173ffffffffffffffffffffffffffffffffffffffff021916908373ffffffffffffffffffffffffffffffffffffffff16021790555050565b6106a56117f1565b73ffffffffffffffffffffffffffffffffffffffff166106c36108a1565b73ffffffffffffffffffffffffffffffffffffffff1614610719576040517f08c379a0000000000000000000000000000000000000000000000000000000008152600401610710906128ea565b60405180910390fd5b6004600083815260200190815260200160002060009054906101000a900460ff16610779576040517f08c379a000000000000000000000000000000000000000000000000000000000815260040161077090612985565b60405180910390fd5b60005b81518110156107bc576107a98383838151811061079c5761079b61290a565b5b60200260200101516117f9565b80806107b4906129d4565b91505061077c565b505050565b6060816040516020016107d49190612a3e565b6040516020818303038152906040529050919050565b6107f26117f1565b73ffffffffffffffffffffffffffffffffffffffff166108106108a1565b73ffffffffffffffffffffffffffffffffffffffff1614610866576040517f08c379a000000000000000000000000000000000000000000000000000000000815260040161085d906128ea565b60405180910390fd5b61087060006119b9565b565b600060086000848152602001908152602001600020600083815260200190815260200160002054905092915050565b60008060009054906101000a900473ffffffffffffffffffffffffffffffffffffffff16905090565b600160009054906101000a900473ffffffffffffffffffffffffffffffffffffffff1681565b6108f86117f1565b73ffffffffffffffffffffffffffffffffffffffff166109166108a1565b73ffffffffffffffffffffffffffffffffffffffff161461096c576040517f08c379a0000000000000000000000000000000000000000000000000000000008152600401610963906128ea565b60405180910390fd5b6004600086815260200190815260200160002060009054906101000a900460ff166109cc576040517f08c379a00000000000000000000000000000000000000000000000000000000081526004016109c390612985565b60405180910390fd5b82600860008781526020019081526020016000206000868152602001908152602001600020541015610a33576040517f08c379a0000000000000000000000000000000000000000000000000000000008152600401610a2a90612acb565b60405180910390fd5b600060038681548110610a4957610a4861290a565b5b9060005260206000209060050201905060006040518060a00160405280836004015481526020018781526020018681526020018581526020018463ffffffff168152509050816003018190806001815401808255809150506001900390600052602060002090600502016000909190919091506000820151816000015560208201518160010155604082015181600201556060820151816003015560808201518160040160006101000a81548163ffffffff021916908363ffffffff160217905550505060016005600089815260200190815260200160002060008460040154815260200190815260200160002060006101000a81548160ff021916908315150217905550816004016000815480929190610b63906129d4565b919050555050505050505050565b600080610b7d83611a7d565b9050600160009054906101000a900473ffffffffffffffffffffffffffffffffffffffff1673ffffffffffffffffffffffffffffffffffffffff163373ffffffffffffffffffffffffffffffffffffffff1614610c0f576040517f08c379a0000000000000000000000000000000000000000000000000000000008152600401610c0690612b37565b60405180910390fd5b6004600082815260200190815260200160002060009054906101000a900460ff16610c6f576040517f08c379a0000000000000000000000000000000000000000000000000000000008152600401610c6690612985565b60405180910390fd5b60005b8551811015610ccd57610cba82878381518110610c9257610c9161290a565b5b6020026020010151878481518110610cad57610cac61290a565b5b6020026020010151611a8b565b8080610cc5906129d4565b915050610c72565b5063bc197c8160e01b91505095945050505050565b6004600084815260200190815260200160002060009054906101000a900460ff16610d42576040517f08c379a0000000000000000000000000000000000000000000000000000000008152600401610d3990612985565b60405180910390fd5b60056000848152602001908152602001600020600083815260200190815260200160002060009054906101000a900460ff16610db3576040517f08c379a0000000000000000000000000000000000000000000000000000000008152600401610daa90612bc9565b60405180910390fd5b600060038481548110610dc957610dc861290a565b5b90600052602060002090600502019050600280811115610dec57610deb612647565b5b8160020160009054906101000a900460ff166002811115610e1057610e0f612647565b5b1415610eb8576007600085815260200190815260200160002060003373ffffffffffffffffffffffffffffffffffffffff1673ffffffffffffffffffffffffffffffffffffffff16815260200190815260200160002060009054906101000a900460ff16610eb3576040517f08c379a0000000000000000000000000000000000000000000000000000000008152600401610eaa90612c35565b60405180910390fd5b610f31565b60006002811115610ecc57610ecb612647565b5b8160020160009054906101000a900460ff166002811115610ef057610eef612647565b5b14610f30576040517f08c379a0000000000000000000000000000000000000000000000000000000008152600401610f2790612ca1565b60405180910390fd5b5b6000816003018481548110610f4957610f4861290a565b5b90600052602060002090600502019050828160040160009054906101000a900463ffffffff1663ffffffff161015610fb6576040517f08c379a0000000000000000000000000000000000000000000000000000000008152600401610fad90612d33565b60405180910390fd5b8281600201541015610ffd576040517f08c379a0000000000000000000000000000000000000000000000000000000008152600401610ff490612dc5565b60405180910390fd5b82816003015461100d9190612de5565b34101561104f576040517f08c379a000000000000000000000000000000000000000000000000000000000815260040161104690612e8b565b60405180910390fd5b82816002015461105f9190612eab565b81600201819055506000600860008781526020019081526020016000206000868152602001908152602001600020549050838161109c9190612eab565b60086000888152602001908152602001600020600087815260200190815260200160002081905550600160009054906101000a900473ffffffffffffffffffffffffffffffffffffffff1673ffffffffffffffffffffffffffffffffffffffff1663f242432a30338560010154886040518563ffffffff1660e01b81526004016111299493929190612f05565b600060405180830381600087803b15801561114357600080fd5b505af1158015611157573d6000803e3d6000fd5b50505050853373ffffffffffffffffffffffffffffffffffffffff167fe75ef3a0d768e0e8037e4b80e42d2f8a3c797998ec29cacf84fa87766ff8de5e8460010154876040516111a8929190612f5d565b60405180910390a3505050505050565b60606004600083815260200190815260200160002060009054906101000a900460ff1661121a576040517f08c379a000000000000000000000000000000000000000000000000000000000815260040161121190612985565b60405180910390fd5b6000600383815481106112305761122f61290a565b5b9060005260206000209060050201905080600301805480602002602001604051908101604052809291908181526020016000905b828210156112e457838290600052602060002090600502016040518060a0016040529081600082015481526020016001820154815260200160028201548152602001600382015481526020016004820160009054906101000a900463ffffffff1663ffffffff1663ffffffff168152505081526020019060010190611264565b50505050915050919050565b6003818154811061130057600080fd5b906000526020600020906005020160009150905080600001549080600101805461132990612fb5565b80601f016020809104026020016040519081016040528092919081815260200182805461135590612fb5565b80156113a25780601f10611377576101008083540402835291602001916113a2565b820191906000526020600020905b81548152906001019060200180831161138557829003601f168201915b5050505050908060020160009054906101000a900460ff16908060040154905084565b6113cd6117f1565b73ffffffffffffffffffffffffffffffffffffffff166113eb6108a1565b73ffffffffffffffffffffffffffffffffffffffff1614611441576040517f08c379a0000000000000000000000000000000000000000000000000000000008152600401611438906128ea565b60405180910390fd5b600360018160018154018082558091505003906000526020600020905050600060016003805490506114739190612eab565b90506002546003828154811061148c5761148b61290a565b5b90600052602060002090600502016000018190555082600382815481106114b6576114b561290a565b5b906000526020600020906005020160010190805190602001906114da929190611aee565b5081600382815481106114f0576114ef61290a565b5b906000526020600020906005020160020160006101000a81548160ff0219169083600281111561152357611522612647565b5b021790555060016004600083815260200190815260200160002060006101000a81548160ff02191690831515021790555060026000815480929190611567906129d4565b9190505550505050565b6000600160009054906101000a900473ffffffffffffffffffffffffffffffffffffffff1673ffffffffffffffffffffffffffffffffffffffff163373ffffffffffffffffffffffffffffffffffffffff1614611603576040517f08c379a00000000000000000000000000000000000000000000000000000000081526004016115fa90612b37565b60405180910390fd5b600061160e83611a7d565b90506004600082815260200190815260200160002060009054906101000a900460ff16611670576040517f08c379a000000000000000000000000000000000000000000000000000000000815260040161166790612985565b60405180910390fd5b61167b818686611a8b565b63f23a6e6160e01b91505095945050505050565b6116976117f1565b73ffffffffffffffffffffffffffffffffffffffff166116b56108a1565b73ffffffffffffffffffffffffffffffffffffffff161461170b576040517f08c379a0000000000000000000000000000000000000000000000000000000008152600401611702906128ea565b60405180910390fd5b600073ffffffffffffffffffffffffffffffffffffffff168173ffffffffffffffffffffffffffffffffffffffff16141561177b576040517f08c379a000000000000000000000000000000000000000000000000000000000815260040161177290613059565b60405180910390fd5b611784816119b9565b50565b60007f01ffc9a7000000000000000000000000000000000000000000000000000000007bffffffffffffffffffffffffffffffffffffffffffffffffffffffff1916827bffffffffffffffffffffffffffffffffffffffffffffffffffffffff1916149050919050565b600033905090565b6118016117f1565b73ffffffffffffffffffffffffffffffffffffffff1661181f6108a1565b73ffffffffffffffffffffffffffffffffffffffff1614611875576040517f08c379a000000000000000000000000000000000000000000000000000000000815260040161186c906128ea565b60405180910390fd5b6007600083815260200190815260200160002060008273ffffffffffffffffffffffffffffffffffffffff1673ffffffffffffffffffffffffffffffffffffffff16815260200190815260200160002060009054906101000a900460ff166119b55760066000838152602001908152602001600020819080600181540180825580915050600190039060005260206000200160009091909190916101000a81548173ffffffffffffffffffffffffffffffffffffffff021916908373ffffffffffffffffffffffffffffffffffffffff16021790555060016007600084815260200190815260200160002060008373ffffffffffffffffffffffffffffffffffffffff1673ffffffffffffffffffffffffffffffffffffffff16815260200190815260200160002060006101000a81548160ff0219169083151502179055505b5050565b60008060009054906101000a900473ffffffffffffffffffffffffffffffffffffffff169050816000806101000a81548173ffffffffffffffffffffffffffffffffffffffff021916908373ffffffffffffffffffffffffffffffffffffffff1602179055508173ffffffffffffffffffffffffffffffffffffffff168173ffffffffffffffffffffffffffffffffffffffff167f8be0079c531659141344cd1fd0a4f28419497f9722a3daafe3b4186f6b6457e060405160405180910390a35050565b600060208201519050919050565b60006008600085815260200190815260200160002060008481526020019081526020016000205490508181611ac09190613079565b6008600086815260200190815260200160002060008581526020019081526020016000208190555050505050565b828054611afa90612fb5565b90600052602060002090601f016020900481019282611b1c5760008555611b63565b82601f10611b3557805160ff1916838001178555611b63565b82800160010185558215611b63579182015b82811115611b62578251825591602001919060010190611b47565b5b509050611b709190611b74565b5090565b5b80821115611b8d576000816000905550600101611b75565b5090565b6000604051905090565b600080fd5b600080fd5b60007fffffffff0000000000000000000000000000000000000000000000000000000082169050919050565b611bda81611ba5565b8114611be557600080fd5b50565b600081359050611bf781611bd1565b92915050565b600060208284031215611c1357611c12611b9b565b5b6000611c2184828501611be8565b91505092915050565b60008115159050919050565b611c3f81611c2a565b82525050565b6000602082019050611c5a6000830184611c36565b92915050565b6000819050919050565b611c7381611c60565b8114611c7e57600080fd5b50565b600081359050611c9081611c6a565b92915050565b60038110611ca357600080fd5b50565b600081359050611cb581611c96565b92915050565b60008060408385031215611cd257611cd1611b9b565b5b6000611ce085828601611c81565b9250506020611cf185828601611ca6565b9150509250929050565b600073ffffffffffffffffffffffffffffffffffffffff82169050919050565b6000611d2682611cfb565b9050919050565b611d3681611d1b565b82525050565b6000602082019050611d516000830184611d2d565b92915050565b611d6081611d1b565b8114611d6b57600080fd5b50565b600081359050611d7d81611d57565b92915050565b600060208284031215611d9957611d98611b9b565b5b6000611da784828501611d6e565b91505092915050565b600080fd5b6000601f19601f8301169050919050565b7f4e487b7100000000000000000000000000000000000000000000000000000000600052604160045260246000fd5b611dfe82611db5565b810181811067ffffffffffffffff82111715611e1d57611e1c611dc6565b5b80604052505050565b6000611e30611b91565b9050611e3c8282611df5565b919050565b600067ffffffffffffffff821115611e5c57611e5b611dc6565b5b602082029050602081019050919050565b600080fd5b6000611e85611e8084611e41565b611e26565b90508083825260208201905060208402830185811115611ea857611ea7611e6d565b5b835b81811015611ed15780611ebd8882611d6e565b845260208401935050602081019050611eaa565b5050509392505050565b600082601f830112611ef057611eef611db0565b5b8135611f00848260208601611e72565b91505092915050565b60008060408385031215611f2057611f1f611b9b565b5b6000611f2e85828601611c81565b925050602083013567ffffffffffffffff811115611f4f57611f4e611ba0565b5b611f5b85828601611edb565b9150509250929050565b600060208284031215611f7b57611f7a611b9b565b5b6000611f8984828501611c81565b91505092915050565b600081519050919050565b600082825260208201905092915050565b60005b83811015611fcc578082015181840152602081019050611fb1565b83811115611fdb576000848401525b50505050565b6000611fec82611f92565b611ff68185611f9d565b9350612006818560208601611fae565b61200f81611db5565b840191505092915050565b600060208201905081810360008301526120348184611fe1565b905092915050565b6000806040838503121561205357612052611b9b565b5b600061206185828601611c81565b925050602061207285828601611c81565b9150509250929050565b61208581611c60565b82525050565b60006020820190506120a0600083018461207c565b92915050565b6000819050919050565b60006120cb6120c66120c184611cfb565b6120a6565b611cfb565b9050919050565b60006120dd826120b0565b9050919050565b60006120ef826120d2565b9050919050565b6120ff816120e4565b82525050565b600060208201905061211a60008301846120f6565b92915050565b600063ffffffff82169050919050565b61213981612120565b811461214457600080fd5b50565b60008135905061215681612130565b92915050565b600080600080600060a0868803121561217857612177611b9b565b5b600061218688828901611c81565b955050602061219788828901611c81565b94505060406121a888828901611c81565b93505060606121b988828901611c81565b92505060806121ca88828901612147565b9150509295509295909350565b600067ffffffffffffffff8211156121f2576121f1611dc6565b5b602082029050602081019050919050565b6000612216612211846121d7565b611e26565b9050808382526020820190506020840283018581111561223957612238611e6d565b5b835b81811015612262578061224e8882611c81565b84526020840193505060208101905061223b565b5050509392505050565b600082601f83011261228157612280611db0565b5b8135612291848260208601612203565b91505092915050565b600080fd5b600067ffffffffffffffff8211156122ba576122b9611dc6565b5b6122c382611db5565b9050602081019050919050565b82818337600083830152505050565b60006122f26122ed8461229f565b611e26565b90508281526020810184848401111561230e5761230d61229a565b5b6123198482856122d0565b509392505050565b600082601f83011261233657612335611db0565b5b81356123468482602086016122df565b91505092915050565b600080600080600060a0868803121561236b5761236a611b9b565b5b600061237988828901611d6e565b955050602061238a88828901611d6e565b945050604086013567ffffffffffffffff8111156123ab576123aa611ba0565b5b6123b78882890161226c565b935050606086013567ffffffffffffffff8111156123d8576123d7611ba0565b5b6123e48882890161226c565b925050608086013567ffffffffffffffff81111561240557612404611ba0565b5b61241188828901612321565b9150509295509295909350565b61242781611ba5565b82525050565b6000602082019050612442600083018461241e565b92915050565b60008060006060848603121561246157612460611b9b565b5b600061246f86828701611c81565b935050602061248086828701611c81565b925050604061249186828701611c81565b9150509250925092565b600081519050919050565b600082825260208201905092915050565b6000819050602082019050919050565b6124d081611c60565b82525050565b6124df81612120565b82525050565b60a0820160008201516124fb60008501826124c7565b50602082015161250e60208501826124c7565b50604082015161252160408501826124c7565b50606082015161253460608501826124c7565b50608082015161254760808501826124d6565b50505050565b600061255983836124e5565b60a08301905092915050565b6000602082019050919050565b600061257d8261249b565b61258781856124a6565b9350612592836124b7565b8060005b838110156125c35781516125aa888261254d565b97506125b583612565565b925050600181019050612596565b5085935050505092915050565b600060208201905081810360008301526125ea8184612572565b905092915050565b600081519050919050565b600082825260208201905092915050565b6000612619826125f2565b61262381856125fd565b9350612633818560208601611fae565b61263c81611db5565b840191505092915050565b7f4e487b7100000000000000000000000000000000000000000000000000000000600052602160045260246000fd5b6003811061268757612686612647565b5b50565b600081905061269882612676565b919050565b60006126a88261268a565b9050919050565b6126b88161269d565b82525050565b60006080820190506126d3600083018761207c565b81810360208301526126e5818661260e565b90506126f460408301856126af565b612701606083018461207c565b95945050505050565b600067ffffffffffffffff82111561272557612724611dc6565b5b61272e82611db5565b9050602081019050919050565b600061274e6127498461270a565b611e26565b90508281526020810184848401111561276a5761276961229a565b5b6127758482856122d0565b509392505050565b600082601f83011261279257612791611db0565b5b81356127a284826020860161273b565b91505092915050565b600080604083850312156127c2576127c1611b9b565b5b600083013567ffffffffffffffff8111156127e0576127df611ba0565b5b6127ec8582860161277d565b92505060206127fd85828601611ca6565b9150509250929050565b600080600080600060a0868803121561282357612822611b9b565b5b600061283188828901611d6e565b955050602061284288828901611d6e565b945050604061285388828901611c81565b935050606061286488828901611c81565b925050608086013567ffffffffffffffff81111561288557612884611ba0565b5b61289188828901612321565b9150509295509295909350565b7f4f776e61626c653a2063616c6c6572206973206e6f7420746865206f776e6572600082015250565b60006128d46020836125fd565b91506128df8261289e565b602082019050919050565b60006020820190508181036000830152612903816128c7565b9050919050565b7f4e487b7100000000000000000000000000000000000000000000000000000000600052603260045260246000fd5b7f73746f726520646f6573206e6f74206578697374000000000000000000000000600082015250565b600061296f6014836125fd565b915061297a82612939565b602082019050919050565b6000602082019050818103600083015261299e81612962565b9050919050565b7f4e487b7100000000000000000000000000000000000000000000000000000000600052601160045260246000fd5b60006129df82611c60565b91507fffffffffffffffffffffffffffffffffffffffffffffffffffffffffffffffff821415612a1257612a116129a5565b5b600182019050919050565b6000819050919050565b612a38612a3382611c60565b612a1d565b82525050565b6000612a4a8284612a27565b60208201915081905092915050565b7f53746f726520646f65736e277420686176652073756666696369656e7420746f60008201527f6b656e7300000000000000000000000000000000000000000000000000000000602082015250565b6000612ab56024836125fd565b9150612ac082612a59565b604082019050919050565b60006020820190508181036000830152612ae481612aa8565b9050919050565b7f57726f6e6720746f6b656e20636f6e7472616374000000000000000000000000600082015250565b6000612b216014836125fd565b9150612b2c82612aeb565b602082019050919050565b60006020820190508181036000830152612b5081612b14565b9050919050565b7f50726f647563746c696e6520646f6573206e6f7420657869737420696e20746860008201527f69732073746f7265000000000000000000000000000000000000000000000000602082015250565b6000612bb36028836125fd565b9150612bbe82612b57565b604082019050919050565b60006020820190508181036000830152612be281612ba6565b9050919050565b7f55736572206973206e6f742077686974656c6973746564000000000000000000600082015250565b6000612c1f6017836125fd565b9150612c2a82612be9565b602082019050919050565b60006020820190508181036000830152612c4e81612c12565b9050919050565b7f73746f7265206973206e6f74206f70656e000000000000000000000000000000600082015250565b6000612c8b6011836125fd565b9150612c9682612c55565b602082019050919050565b60006020820190508181036000830152612cba81612c7e565b9050919050565b7f796f752063616e74206275792074686174206d616e792064756520746f20697460008201527f656d206c696d6974000000000000000000000000000000000000000000000000602082015250565b6000612d1d6028836125fd565b9150612d2882612cc1565b604082019050919050565b60006020820190508181036000830152612d4c81612d10565b9050919050565b7f50726f64756374206c696e6520646f65736e2774206861766520656e6f75676860008201527f20746f6b656e7300000000000000000000000000000000000000000000000000602082015250565b6000612daf6027836125fd565b9150612dba82612d53565b604082019050919050565b60006020820190508181036000830152612dde81612da2565b9050919050565b6000612df082611c60565b9150612dfb83611c60565b9250817fffffffffffffffffffffffffffffffffffffffffffffffffffffffffffffffff0483118215151615612e3457612e336129a5565b5b828202905092915050565b7f6469646e74207265636569766520656e6f7567682076616c7565000000000000600082015250565b6000612e75601a836125fd565b9150612e8082612e3f565b602082019050919050565b60006020820190508181036000830152612ea481612e68565b9050919050565b6000612eb682611c60565b9150612ec183611c60565b925082821015612ed457612ed36129a5565b5b828203905092915050565b50565b6000612eef600083611f9d565b9150612efa82612edf565b600082019050919050565b600060a082019050612f1a6000830187611d2d565b612f276020830186611d2d565b612f34604083018561207c565b612f41606083018461207c565b8181036080830152612f5281612ee2565b905095945050505050565b6000604082019050612f72600083018561207c565b612f7f602083018461207c565b9392505050565b7f4e487b7100000000000000000000000000000000000000000000000000000000600052602260045260246000fd5b60006002820490506001821680612fcd57607f821691505b60208210811415612fe157612fe0612f86565b5b50919050565b7f4f776e61626c653a206e6577206f776e657220697320746865207a65726f206160008201527f6464726573730000000000000000000000000000000000000000000000000000602082015250565b60006130436026836125fd565b915061304e82612fe7565b604082019050919050565b6000602082019050818103600083015261307281613036565b9050919050565b600061308482611c60565b915061308f83611c60565b9250827fffffffffffffffffffffffffffffffffffffffffffffffffffffffffffffffff038211156130c4576130c36129a5565b5b82820190509291505056fea264697066735822122036fdf006a4100f4ff32ce7e6d3911e10ca3aa27f6f7a8d895e5ddbee8b9b0c0964736f6c634300080a0033",
  "immutableReferences": {},
  "source": "// SPDX-License-Identifier: MIT\r\npragma solidity ^0.8.7;\r\n\r\nimport \"./IotaHeroFactory.sol\";\r\nimport \"./IotaHeroGameTokens.sol\";\r\nimport \"@openzeppelin/contracts/token/ERC1155/utils/ERC1155Receiver.sol\";\r\n\r\ncontract IotaHeroStore is Ownable, ERC1155Receiver {\r\n    IotaHeroGameTokens public tokens;\r\n\r\n    enum StoreStatus {\r\n        OPEN,\r\n        CLOSED,\r\n        WHITELISTONLY\r\n    }\r\n    uint256 nextStoreId = 0;\r\n\r\n    struct Store {\r\n        uint256 id;\r\n        string name;\r\n        StoreStatus status;\r\n        ProductLine[] productLines;\r\n        uint256 nextProductLineId;\r\n    }\r\n    Store[] public stores;\r\n\r\n    struct ProductLine {\r\n        uint256 id;\r\n        uint256 tokenId;\r\n        uint256 amount;\r\n        uint256 price;\r\n        uint32 limit;\r\n    }\r\n\r\n    mapping(uint256 => bool) storeIdExists;\r\n    mapping(uint256 => mapping(uint256 => bool)) storeIdToProductLineExists;\r\n    mapping(uint256 => address[]) storeIdToWhiteList;\r\n    mapping(uint256 => mapping(address => bool)) storeIdToUserInWhitelist;\r\n    mapping(uint256 => mapping(uint256 => uint256)) storeIdToTokenIdAmountHeld;\r\n\r\n    event ItemBought(\r\n        address indexed buyer,\r\n        uint256 indexed storeId,\r\n        uint256 tokenId,\r\n        uint256 amount\r\n    );\r\n\r\n    function getTokensBalance(uint256 storeId, uint256 tokenId)\r\n        public\r\n        view\r\n        returns (uint256)\r\n    {\r\n        return storeIdToTokenIdAmountHeld[storeId][tokenId];\r\n    }\r\n\r\n    function setTokenAddress(address _tokenAddress) public onlyOwner {\r\n        tokens = IotaHeroGameTokens(_tokenAddress);\r\n    }\r\n\r\n    function getTokenAddress() public view returns (address) {\r\n        return address(tokens);\r\n    }\r\n\r\n    function getProducts(uint256 storeId)\r\n        public\r\n        view\r\n        returns (ProductLine[] memory)\r\n    {\r\n        require(storeIdExists[storeId], \"store does not exist\");\r\n        Store storage store = stores[storeId];\r\n        return store.productLines;\r\n    }\r\n\r\n    function buyProduct(\r\n        uint256 storeId,\r\n        uint256 productLineId,\r\n        uint256 amount\r\n    ) public payable {\r\n        require(storeIdExists[storeId], \"store does not exist\");\r\n        require(\r\n            storeIdToProductLineExists[storeId][productLineId],\r\n            \"Productline does not exist in this store\"\r\n        );\r\n        Store storage store = stores[storeId];\r\n        if (store.status == StoreStatus.WHITELISTONLY) {\r\n            require(\r\n                storeIdToUserInWhitelist[storeId][msg.sender],\r\n                \"User is not whitelisted\"\r\n            );\r\n        } else {\r\n            require(store.status == StoreStatus.OPEN, \"store is not open\");\r\n        }\r\n        ProductLine storage pl = store.productLines[productLineId];\r\n        require(pl.limit >= amount, \"you cant buy that many due to item limit\");\r\n        require(pl.amount >= amount, \"Product line doesn't have enough tokens\");\r\n        require(msg.value >= pl.price * amount, \"didnt receive enough value\");\r\n        pl.amount = pl.amount - amount;\r\n        uint256 prevBalance = storeIdToTokenIdAmountHeld[storeId][\r\n            productLineId\r\n        ];\r\n        storeIdToTokenIdAmountHeld[storeId][productLineId] =\r\n            prevBalance -\r\n            amount;\r\n        tokens.safeTransferFrom(\r\n            address(this),\r\n            msg.sender,\r\n            pl.tokenId,\r\n            amount,\r\n            \"\"\r\n        );\r\n        emit ItemBought(msg.sender, storeId, pl.tokenId, amount);\r\n    }\r\n\r\n    function addProductLineToStore(\r\n        uint256 storeId,\r\n        uint256 tokenId,\r\n        uint256 amount,\r\n        uint256 price,\r\n        uint32 limit\r\n    ) public onlyOwner {\r\n        require(storeIdExists[storeId], \"store does not exist\");\r\n        require(\r\n            storeIdToTokenIdAmountHeld[storeId][tokenId] >= amount,\r\n            \"Store doesn't have sufficient tokens\"\r\n        );\r\n        // TODO Need to check if the token is already part of one productline so we dont put too many for sale, maybe change storeIdToTokenIdAmountHeld -> storeIdToTokenIdAmountAvailToCreateSalesItems\r\n        Store storage store = stores[storeId];\r\n        ProductLine memory pl = ProductLine(\r\n            store.nextProductLineId,\r\n            tokenId,\r\n            amount,\r\n            price,\r\n            limit\r\n        );\r\n        store.productLines.push(pl);\r\n        storeIdToProductLineExists[storeId][store.nextProductLineId] = true;\r\n        store.nextProductLineId++;\r\n    }\r\n\r\n    function createStore(string memory name, StoreStatus status)\r\n        public\r\n        onlyOwner\r\n    {\r\n        stores.push();\r\n        uint256 newIndex = stores.length - 1;\r\n        stores[newIndex].id = nextStoreId;\r\n        stores[newIndex].name = name;\r\n        stores[newIndex].status = status;\r\n        storeIdExists[newIndex] = true;\r\n        nextStoreId++;\r\n    }\r\n\r\n    function changeStoreStatus(uint256 _storeId, StoreStatus status)\r\n        public\r\n        onlyOwner\r\n    {\r\n        Store storage store = stores[_storeId];\r\n        store.status = status;\r\n    }\r\n\r\n    function _addToWhiteList(uint256 _storeId, address addressToAdd)\r\n        internal\r\n        onlyOwner\r\n    {\r\n        if (!storeIdToUserInWhitelist[_storeId][addressToAdd]) {\r\n            storeIdToWhiteList[_storeId].push(addressToAdd);\r\n            storeIdToUserInWhitelist[_storeId][addressToAdd] = true;\r\n        }\r\n    }\r\n\r\n    function addToWhiteList(\r\n        uint256 _storeId,\r\n        address[] memory addressesToWhitelist\r\n    ) public onlyOwner {\r\n        require(storeIdExists[_storeId], \"store does not exist\");\r\n        for (uint256 i = 0; i < addressesToWhitelist.length; i++) {\r\n            _addToWhiteList(_storeId, addressesToWhitelist[i]);\r\n        }\r\n    }\r\n\r\n    function formatBytes(uint256 num) public pure returns (bytes memory) {\r\n        return abi.encodePacked(num);\r\n    }\r\n\r\n    function onERC1155Received(\r\n        address,\r\n        address,\r\n        uint256 tokenId,\r\n        uint256 amount,\r\n        bytes memory data\r\n    ) public virtual override returns (bytes4) {\r\n        require(msg.sender == address(tokens), \"Wrong token contract\");\r\n        uint256 storeId = toUint256(data);\r\n        require(storeIdExists[storeId], \"store does not exist\");\r\n        _addBalanceToStore(storeId, tokenId, amount);\r\n        return this.onERC1155Received.selector;\r\n    }\r\n\r\n    function onERC1155BatchReceived(\r\n        address,\r\n        address,\r\n        uint256[] memory ids,\r\n        uint256[] memory amounts,\r\n        bytes memory data\r\n    ) public virtual override returns (bytes4) {\r\n        uint256 storeId = toUint256(data);\r\n        require(msg.sender == address(tokens), \"Wrong token contract\");\r\n        require(storeIdExists[storeId], \"store does not exist\");\r\n        for (uint256 i = 0; i < ids.length; i++) {\r\n            _addBalanceToStore(storeId, ids[i], amounts[i]);\r\n        }\r\n        return this.onERC1155BatchReceived.selector;\r\n    }\r\n\r\n    function _addBalanceToStore(\r\n        uint256 _storeId,\r\n        uint256 tokenId,\r\n        uint256 amount\r\n    ) internal {\r\n        uint256 currentAmount = storeIdToTokenIdAmountHeld[_storeId][tokenId];\r\n        storeIdToTokenIdAmountHeld[_storeId][tokenId] = currentAmount + amount;\r\n    }\r\n\r\n    function toUint256(bytes memory _bytes)\r\n        internal\r\n        pure\r\n        returns (uint256 value)\r\n    {\r\n        assembly {\r\n            value := mload(add(_bytes, 0x20))\r\n        }\r\n    }\r\n}\r\n",
  "sourcePath": "C:\\Users\\creld\\source\\repos\\IotaHeroes\\smartcontracts\\contracts\\IotaHeroStore.sol",
  "compiler": {
    "name": "solc",
    "version": "0.8.10+commit.fc410830.Emscripten.clang"
  },
  "schemaVersion": "3.4.4",
  "updatedAt": "2022-01-20T21:32:09.378Z",
  "networkType": "ethereum",
  "devdoc": {
    "kind": "dev",
    "methods": {
      "owner()": {
        "details": "Returns the address of the current owner."
      },
      "renounceOwnership()": {
        "details": "Leaves the contract without owner. It will not be possible to call `onlyOwner` functions anymore. Can only be called by the current owner. NOTE: Renouncing ownership will leave the contract without an owner, thereby removing any functionality that is only available to the owner."
      },
      "supportsInterface(bytes4)": {
        "details": "See {IERC165-supportsInterface}."
      },
      "transferOwnership(address)": {
        "details": "Transfers ownership of the contract to a new account (`newOwner`). Can only be called by the current owner."
      }
    },
    "version": 1
  },
  "userdoc": {
    "kind": "user",
    "methods": {},
    "version": 1
  }
}