{
  "contractName": "IotaHeroAdventure",
  "abi": [
    {
      "anonymous": false,
      "inputs": [
        {
          "indexed": true,
          "internalType": "address",
          "name": "player",
          "type": "address"
        },
        {
          "indexed": true,
          "internalType": "uint256",
          "name": "heroId",
          "type": "uint256"
        },
        {
          "indexed": false,
          "internalType": "uint256",
          "name": "adventureId",
          "type": "uint256"
        }
      ],
      "name": "AdventureCompleted",
      "type": "event"
    },
    {
      "anonymous": false,
      "inputs": [
        {
          "indexed": false,
          "internalType": "address",
          "name": "player",
          "type": "address"
        },
        {
          "indexed": false,
          "internalType": "uint256",
          "name": "heroId",
          "type": "uint256"
        },
        {
          "indexed": false,
          "internalType": "uint256",
          "name": "adventureId",
          "type": "uint256"
        }
      ],
      "name": "AdventureInitiated",
      "type": "event"
    },
    {
      "anonymous": false,
      "inputs": [
        {
          "indexed": true,
          "internalType": "address",
          "name": "owner",
          "type": "address"
        },
        {
          "indexed": true,
          "internalType": "address",
          "name": "approved",
          "type": "address"
        },
        {
          "indexed": true,
          "internalType": "uint256",
          "name": "tokenId",
          "type": "uint256"
        }
      ],
      "name": "Approval",
      "type": "event"
    },
    {
      "anonymous": false,
      "inputs": [
        {
          "indexed": true,
          "internalType": "address",
          "name": "owner",
          "type": "address"
        },
        {
          "indexed": true,
          "internalType": "address",
          "name": "operator",
          "type": "address"
        },
        {
          "indexed": false,
          "internalType": "bool",
          "name": "approved",
          "type": "bool"
        }
      ],
      "name": "ApprovalForAll",
      "type": "event"
    },
    {
      "anonymous": false,
      "inputs": [
        {
          "indexed": true,
          "internalType": "address",
          "name": "owner",
          "type": "address"
        },
        {
          "indexed": false,
          "internalType": "uint256",
          "name": "id",
          "type": "uint256"
        },
        {
          "indexed": false,
          "internalType": "uint256",
          "name": "dna",
          "type": "uint256"
        }
      ],
      "name": "HeroMinted",
      "type": "event"
    },
    {
      "anonymous": false,
      "inputs": [
        {
          "indexed": true,
          "internalType": "address",
          "name": "previousOwner",
          "type": "address"
        },
        {
          "indexed": true,
          "internalType": "address",
          "name": "newOwner",
          "type": "address"
        }
      ],
      "name": "OwnershipTransferred",
      "type": "event"
    },
    {
      "anonymous": false,
      "inputs": [
        {
          "indexed": true,
          "internalType": "address",
          "name": "from",
          "type": "address"
        },
        {
          "indexed": true,
          "internalType": "address",
          "name": "to",
          "type": "address"
        },
        {
          "indexed": true,
          "internalType": "uint256",
          "name": "tokenId",
          "type": "uint256"
        }
      ],
      "name": "Transfer",
      "type": "event"
    },
    {
      "inputs": [
        {
          "internalType": "address",
          "name": "",
          "type": "address"
        }
      ],
      "name": "addressToId",
      "outputs": [
        {
          "internalType": "uint256",
          "name": "",
          "type": "uint256"
        }
      ],
      "stateMutability": "view",
      "type": "function",
      "constant": true
    },
    {
      "inputs": [
        {
          "internalType": "address",
          "name": "to",
          "type": "address"
        },
        {
          "internalType": "uint256",
          "name": "tokenId",
          "type": "uint256"
        }
      ],
      "name": "approve",
      "outputs": [],
      "stateMutability": "nonpayable",
      "type": "function"
    },
    {
      "inputs": [
        {
          "internalType": "address",
          "name": "owner",
          "type": "address"
        }
      ],
      "name": "balanceOf",
      "outputs": [
        {
          "internalType": "uint256",
          "name": "",
          "type": "uint256"
        }
      ],
      "stateMutability": "view",
      "type": "function",
      "constant": true
    },
    {
      "inputs": [],
      "name": "currentUserCount",
      "outputs": [
        {
          "internalType": "uint256",
          "name": "",
          "type": "uint256"
        }
      ],
      "stateMutability": "view",
      "type": "function",
      "constant": true
    },
    {
      "inputs": [
        {
          "internalType": "uint256",
          "name": "tokenId",
          "type": "uint256"
        }
      ],
      "name": "getApproved",
      "outputs": [
        {
          "internalType": "address",
          "name": "",
          "type": "address"
        }
      ],
      "stateMutability": "view",
      "type": "function",
      "constant": true
    },
    {
      "inputs": [],
      "name": "getHeroes",
      "outputs": [
        {
          "components": [
            {
              "internalType": "uint256",
              "name": "id",
              "type": "uint256"
            },
            {
              "internalType": "uint256",
              "name": "dna",
              "type": "uint256"
            },
            {
              "internalType": "uint256",
              "name": "constitution",
              "type": "uint256"
            },
            {
              "internalType": "uint256",
              "name": "strength",
              "type": "uint256"
            },
            {
              "internalType": "uint256",
              "name": "agility",
              "type": "uint256"
            },
            {
              "internalType": "uint256",
              "name": "intelligence",
              "type": "uint256"
            },
            {
              "internalType": "uint256",
              "name": "restingTill",
              "type": "uint256"
            },
            {
              "internalType": "string",
              "name": "name",
              "type": "string"
            }
          ],
          "internalType": "struct IotaHeroFactory.Hero[]",
          "name": "",
          "type": "tuple[]"
        }
      ],
      "stateMutability": "view",
      "type": "function",
      "constant": true
    },
    {
      "inputs": [
        {
          "internalType": "address",
          "name": "_owner",
          "type": "address"
        }
      ],
      "name": "getOwnerHeroes",
      "outputs": [
        {
          "components": [
            {
              "internalType": "uint256",
              "name": "id",
              "type": "uint256"
            },
            {
              "internalType": "uint256",
              "name": "dna",
              "type": "uint256"
            },
            {
              "internalType": "uint256",
              "name": "constitution",
              "type": "uint256"
            },
            {
              "internalType": "uint256",
              "name": "strength",
              "type": "uint256"
            },
            {
              "internalType": "uint256",
              "name": "agility",
              "type": "uint256"
            },
            {
              "internalType": "uint256",
              "name": "intelligence",
              "type": "uint256"
            },
            {
              "internalType": "uint256",
              "name": "restingTill",
              "type": "uint256"
            },
            {
              "internalType": "string",
              "name": "name",
              "type": "string"
            }
          ],
          "internalType": "struct IotaHeroFactory.Hero[]",
          "name": "",
          "type": "tuple[]"
        }
      ],
      "stateMutability": "view",
      "type": "function",
      "constant": true
    },
    {
      "inputs": [],
      "name": "getUsername",
      "outputs": [
        {
          "internalType": "string",
          "name": "",
          "type": "string"
        }
      ],
      "stateMutability": "view",
      "type": "function",
      "constant": true
    },
    {
      "inputs": [
        {
          "internalType": "address",
          "name": "_address",
          "type": "address"
        }
      ],
      "name": "getUsernameByAddress",
      "outputs": [
        {
          "internalType": "string",
          "name": "",
          "type": "string"
        }
      ],
      "stateMutability": "view",
      "type": "function",
      "constant": true
    },
    {
      "inputs": [],
      "name": "getUsernameLength",
      "outputs": [
        {
          "internalType": "uint256",
          "name": "",
          "type": "uint256"
        }
      ],
      "stateMutability": "view",
      "type": "function",
      "constant": true
    },
    {
      "inputs": [
        {
          "internalType": "uint256",
          "name": "",
          "type": "uint256"
        }
      ],
      "name": "heroes",
      "outputs": [
        {
          "internalType": "uint256",
          "name": "id",
          "type": "uint256"
        },
        {
          "internalType": "uint256",
          "name": "dna",
          "type": "uint256"
        },
        {
          "internalType": "uint256",
          "name": "constitution",
          "type": "uint256"
        },
        {
          "internalType": "uint256",
          "name": "strength",
          "type": "uint256"
        },
        {
          "internalType": "uint256",
          "name": "agility",
          "type": "uint256"
        },
        {
          "internalType": "uint256",
          "name": "intelligence",
          "type": "uint256"
        },
        {
          "internalType": "uint256",
          "name": "restingTill",
          "type": "uint256"
        },
        {
          "internalType": "string",
          "name": "name",
          "type": "string"
        }
      ],
      "stateMutability": "view",
      "type": "function",
      "constant": true
    },
    {
      "inputs": [
        {
          "internalType": "uint256",
          "name": "",
          "type": "uint256"
        }
      ],
      "name": "idToAddress",
      "outputs": [
        {
          "internalType": "address",
          "name": "",
          "type": "address"
        }
      ],
      "stateMutability": "view",
      "type": "function",
      "constant": true
    },
    {
      "inputs": [
        {
          "internalType": "uint256",
          "name": "",
          "type": "uint256"
        }
      ],
      "name": "idToUsername",
      "outputs": [
        {
          "internalType": "string",
          "name": "",
          "type": "string"
        }
      ],
      "stateMutability": "view",
      "type": "function",
      "constant": true
    },
    {
      "inputs": [
        {
          "internalType": "address",
          "name": "owner",
          "type": "address"
        },
        {
          "internalType": "address",
          "name": "operator",
          "type": "address"
        }
      ],
      "name": "isApprovedForAll",
      "outputs": [
        {
          "internalType": "bool",
          "name": "",
          "type": "bool"
        }
      ],
      "stateMutability": "view",
      "type": "function",
      "constant": true
    },
    {
      "inputs": [],
      "name": "isSignedUp",
      "outputs": [
        {
          "internalType": "bool",
          "name": "",
          "type": "bool"
        }
      ],
      "stateMutability": "view",
      "type": "function",
      "constant": true
    },
    {
      "inputs": [],
      "name": "name",
      "outputs": [
        {
          "internalType": "string",
          "name": "",
          "type": "string"
        }
      ],
      "stateMutability": "view",
      "type": "function",
      "constant": true
    },
    {
      "inputs": [
        {
          "internalType": "uint256",
          "name": "_heroId",
          "type": "uint256"
        },
        {
          "internalType": "string",
          "name": "_name",
          "type": "string"
        }
      ],
      "name": "nameChange",
      "outputs": [],
      "stateMutability": "nonpayable",
      "type": "function"
    },
    {
      "inputs": [],
      "name": "owner",
      "outputs": [
        {
          "internalType": "address",
          "name": "",
          "type": "address"
        }
      ],
      "stateMutability": "view",
      "type": "function",
      "constant": true
    },
    {
      "inputs": [
        {
          "internalType": "uint256",
          "name": "tokenId",
          "type": "uint256"
        }
      ],
      "name": "ownerOf",
      "outputs": [
        {
          "internalType": "address",
          "name": "",
          "type": "address"
        }
      ],
      "stateMutability": "view",
      "type": "function",
      "constant": true
    },
    {
      "inputs": [],
      "name": "renounceOwnership",
      "outputs": [],
      "stateMutability": "nonpayable",
      "type": "function"
    },
    {
      "inputs": [
        {
          "internalType": "address",
          "name": "from",
          "type": "address"
        },
        {
          "internalType": "address",
          "name": "to",
          "type": "address"
        },
        {
          "internalType": "uint256",
          "name": "tokenId",
          "type": "uint256"
        }
      ],
      "name": "safeTransferFrom",
      "outputs": [],
      "stateMutability": "nonpayable",
      "type": "function"
    },
    {
      "inputs": [
        {
          "internalType": "address",
          "name": "from",
          "type": "address"
        },
        {
          "internalType": "address",
          "name": "to",
          "type": "address"
        },
        {
          "internalType": "uint256",
          "name": "tokenId",
          "type": "uint256"
        },
        {
          "internalType": "bytes",
          "name": "_data",
          "type": "bytes"
        }
      ],
      "name": "safeTransferFrom",
      "outputs": [],
      "stateMutability": "nonpayable",
      "type": "function"
    },
    {
      "inputs": [
        {
          "internalType": "address",
          "name": "operator",
          "type": "address"
        },
        {
          "internalType": "bool",
          "name": "approved",
          "type": "bool"
        }
      ],
      "name": "setApprovalForAll",
      "outputs": [],
      "stateMutability": "nonpayable",
      "type": "function"
    },
    {
      "inputs": [
        {
          "internalType": "string",
          "name": "_username",
          "type": "string"
        }
      ],
      "name": "signUp",
      "outputs": [],
      "stateMutability": "nonpayable",
      "type": "function"
    },
    {
      "inputs": [],
      "name": "spawnHero",
      "outputs": [],
      "stateMutability": "nonpayable",
      "type": "function"
    },
    {
      "inputs": [
        {
          "internalType": "bytes4",
          "name": "interfaceId",
          "type": "bytes4"
        }
      ],
      "name": "supportsInterface",
      "outputs": [
        {
          "internalType": "bool",
          "name": "",
          "type": "bool"
        }
      ],
      "stateMutability": "view",
      "type": "function",
      "constant": true
    },
    {
      "inputs": [],
      "name": "symbol",
      "outputs": [
        {
          "internalType": "string",
          "name": "",
          "type": "string"
        }
      ],
      "stateMutability": "view",
      "type": "function",
      "constant": true
    },
    {
      "inputs": [
        {
          "internalType": "uint256",
          "name": "tokenId",
          "type": "uint256"
        }
      ],
      "name": "tokenURI",
      "outputs": [
        {
          "internalType": "string",
          "name": "",
          "type": "string"
        }
      ],
      "stateMutability": "view",
      "type": "function",
      "constant": true
    },
    {
      "inputs": [],
      "name": "tokens",
      "outputs": [
        {
          "internalType": "contract IotaHeroGameTokens",
          "name": "",
          "type": "address"
        }
      ],
      "stateMutability": "view",
      "type": "function",
      "constant": true
    },
    {
      "inputs": [
        {
          "internalType": "address",
          "name": "from",
          "type": "address"
        },
        {
          "internalType": "address",
          "name": "to",
          "type": "address"
        },
        {
          "internalType": "uint256",
          "name": "tokenId",
          "type": "uint256"
        }
      ],
      "name": "transferFrom",
      "outputs": [],
      "stateMutability": "nonpayable",
      "type": "function"
    },
    {
      "inputs": [
        {
          "internalType": "address",
          "name": "newOwner",
          "type": "address"
        }
      ],
      "name": "transferOwnership",
      "outputs": [],
      "stateMutability": "nonpayable",
      "type": "function"
    },
    {
      "inputs": [
        {
          "internalType": "string",
          "name": "_username",
          "type": "string"
        }
      ],
      "name": "usernameExists",
      "outputs": [
        {
          "internalType": "bool",
          "name": "",
          "type": "bool"
        }
      ],
      "stateMutability": "view",
      "type": "function",
      "constant": true
    },
    {
      "inputs": [
        {
          "internalType": "string",
          "name": "",
          "type": "string"
        }
      ],
      "name": "usernameToId",
      "outputs": [
        {
          "internalType": "uint256",
          "name": "",
          "type": "uint256"
        }
      ],
      "stateMutability": "view",
      "type": "function",
      "constant": true
    },
    {
      "inputs": [],
      "name": "withdraw",
      "outputs": [],
      "stateMutability": "payable",
      "type": "function",
      "payable": true
    },
    {
      "inputs": [
        {
          "internalType": "address",
          "name": "tokensAddress",
          "type": "address"
        }
      ],
      "name": "setTokens",
      "outputs": [],
      "stateMutability": "nonpayable",
      "type": "function"
    },
    {
      "inputs": [],
      "name": "getTokenAddress",
      "outputs": [
        {
          "internalType": "address",
          "name": "",
          "type": "address"
        }
      ],
      "stateMutability": "view",
      "type": "function",
      "constant": true
    },
    {
      "inputs": [
        {
          "internalType": "address",
          "name": "_player",
          "type": "address"
        },
        {
          "internalType": "uint256",
          "name": "_heroId",
          "type": "uint256"
        },
        {
          "internalType": "uint256",
          "name": "adventureId",
          "type": "uint256"
        },
        {
          "internalType": "uint256[]",
          "name": "lootTokenIds",
          "type": "uint256[]"
        },
        {
          "internalType": "uint256[]",
          "name": "lootAmounts",
          "type": "uint256[]"
        }
      ],
      "name": "completeAdventure",
      "outputs": [],
      "stateMutability": "nonpayable",
      "type": "function"
    },
    {
      "inputs": [
        {
          "internalType": "uint256",
          "name": "_heroId",
          "type": "uint256"
        }
      ],
      "name": "isHeroAdventuring",
      "outputs": [
        {
          "internalType": "bool",
          "name": "",
          "type": "bool"
        }
      ],
      "stateMutability": "view",
      "type": "function",
      "constant": true
    },
    {
      "inputs": [
        {
          "internalType": "uint256",
          "name": "_adventureId",
          "type": "uint256"
        }
      ],
      "name": "isAdventureCompleted",
      "outputs": [
        {
          "internalType": "bool",
          "name": "",
          "type": "bool"
        }
      ],
      "stateMutability": "view",
      "type": "function",
      "constant": true
    },
    {
      "inputs": [
        {
          "internalType": "uint256",
          "name": "_heroId",
          "type": "uint256"
        }
      ],
      "name": "goAdventure",
      "outputs": [],
      "stateMutability": "nonpayable",
      "type": "function"
    }
  ],
  "bytecode": "0x608060405260016007556000600c55601e600d55600060105560006011553480156200002a57600080fd5b506040518060400160405280600881526020017f496f74614865726f0000000000000000000000000000000000000000000000008152506040518060400160405280600281526020017f49480000000000000000000000000000000000000000000000000000000000008152508160009080519060200190620000af929190620001bf565b508060019080519060200190620000c8929190620001bf565b505050620000eb620000df620000f160201b60201c565b620000f960201b60201c565b620002d4565b600033905090565b6000600660009054906101000a900473ffffffffffffffffffffffffffffffffffffffff16905081600660006101000a81548173ffffffffffffffffffffffffffffffffffffffff021916908373ffffffffffffffffffffffffffffffffffffffff1602179055508173ffffffffffffffffffffffffffffffffffffffff168173ffffffffffffffffffffffffffffffffffffffff167f8be0079c531659141344cd1fd0a4f28419497f9722a3daafe3b4186f6b6457e060405160405180910390a35050565b828054620001cd906200029e565b90600052602060002090601f016020900481019282620001f157600085556200023d565b82601f106200020c57805160ff19168380011785556200023d565b828001600101855582156200023d579182015b828111156200023c5782518255916020019190600101906200021f565b5b5090506200024c919062000250565b5090565b5b808211156200026b57600081600090555060010162000251565b5090565b7f4e487b7100000000000000000000000000000000000000000000000000000000600052602260045260246000fd5b60006002820490506001821680620002b757607f821691505b60208210811415620002ce57620002cd6200026f565b5b50919050565b61552a80620002e46000396000f3fe60806040526004361061023b5760003560e01c806395d89b411161012e578063c87b56dd116100ab578063e985e9c51161006f578063e985e9c5146108b5578063ed1a998d146108f2578063f1c466061461092f578063f2fde38b1461095a578063f309e3f9146109835761023b565b8063c87b56dd14610798578063c8c13fa4146107d5578063cb0e0d7d14610812578063d2b2bd6c1461084f578063ddf368a2146108785761023b565b8063a639eb4d116100f2578063a639eb4d1461069c578063a6fc19e3146106c5578063a8d4a03b14610702578063adcfb4fc14610746578063b88d4fde1461076f5761023b565b806395d89b41146105db5780639a8d2882146106065780639d63848a146106315780639f72ed761461065c578063a22cb465146106735761023b565b806342842e0e116101bc5780636d0cac8e116101805780636d0cac8e1461050857806370a0823114610533578063715018a6146105705780637fadea0e146105875780638da5cb5b146105b05761023b565b806342842e0e1461041157806348646f7b1461043a5780635e1fe1db146104635780636352211e146104a0578063681f3e6d146104dd5761023b565b8063191d1cb411610203578063191d1cb41461033957806323b872dd146103645780632a2d0c471461038d57806339bdca1f146103ca5780633ccfd60b146104075761023b565b806301ffc9a71461024057806306fdde031461027d578063081812fc146102a8578063095ea7b3146102e557806310fe9ae81461030e575b600080fd5b34801561024c57600080fd5b50610267600480360381019061026291906138fb565b6109c0565b6040516102749190613943565b60405180910390f35b34801561028957600080fd5b50610292610aa2565b60405161029f91906139f7565b60405180910390f35b3480156102b457600080fd5b506102cf60048036038101906102ca9190613a4f565b610b34565b6040516102dc9190613abd565b60405180910390f35b3480156102f157600080fd5b5061030c60048036038101906103079190613b04565b610bb9565b005b34801561031a57600080fd5b50610323610cd1565b6040516103309190613abd565b60405180910390f35b34801561034557600080fd5b5061034e610cfb565b60405161035b9190613943565b60405180910390f35b34801561037057600080fd5b5061038b60048036038101906103869190613b44565b610d45565b005b34801561039957600080fd5b506103b460048036038101906103af9190613a4f565b610da5565b6040516103c19190613abd565b60405180910390f35b3480156103d657600080fd5b506103f160048036038101906103ec9190613a4f565b610dd8565b6040516103fe91906139f7565b60405180910390f35b61040f610e78565b005b34801561041d57600080fd5b5061043860048036038101906104339190613b44565b610f4a565b005b34801561044657600080fd5b50610461600480360381019061045c9190613ccc565b610f6a565b005b34801561046f57600080fd5b5061048a60048036038101906104859190613d28565b6110d2565b6040516104979190613d80565b60405180910390f35b3480156104ac57600080fd5b506104c760048036038101906104c29190613a4f565b611100565b6040516104d49190613abd565b60405180910390f35b3480156104e957600080fd5b506104f26111b2565b6040516104ff91906139f7565b60405180910390f35b34801561051457600080fd5b5061051d611294565b60405161052a9190613d80565b60405180910390f35b34801561053f57600080fd5b5061055a60048036038101906105559190613d9b565b6112aa565b6040516105679190613d80565b60405180910390f35b34801561057c57600080fd5b50610585611362565b005b34801561059357600080fd5b506105ae60048036038101906105a99190613a4f565b6113ea565b005b3480156105bc57600080fd5b506105c56116ea565b6040516105d29190613abd565b60405180910390f35b3480156105e757600080fd5b506105f0611714565b6040516105fd91906139f7565b60405180910390f35b34801561061257600080fd5b5061061b6117a6565b6040516106289190613f93565b60405180910390f35b34801561063d57600080fd5b506106466118de565b6040516106539190614014565b60405180910390f35b34801561066857600080fd5b50610671611904565b005b34801561067f57600080fd5b5061069a6004803603810190610695919061405b565b6119a2565b005b3480156106a857600080fd5b506106c360048036038101906106be9190613d9b565b6119b8565b005b3480156106d157600080fd5b506106ec60048036038101906106e79190613a4f565b611a78565b6040516106f99190613943565b60405180910390f35b34801561070e57600080fd5b5061072960048036038101906107249190613a4f565b611aa2565b60405161073d98979695949392919061409b565b60405180910390f35b34801561075257600080fd5b5061076d60048036038101906107689190613d28565b611b82565b005b34801561077b57600080fd5b50610796600480360381019061079191906141c1565b611dca565b005b3480156107a457600080fd5b506107bf60048036038101906107ba9190613a4f565b611e2c565b6040516107cc91906139f7565b60405180910390f35b3480156107e157600080fd5b506107fc60048036038101906107f79190613a4f565b611ed3565b6040516108099190613943565b60405180910390f35b34801561081e57600080fd5b5061083960048036038101906108349190613d9b565b611efd565b6040516108469190613d80565b60405180910390f35b34801561085b57600080fd5b50610876600480360381019061087191906142a4565b611f15565b005b34801561088457600080fd5b5061089f600480360381019061089a9190613d9b565b612198565b6040516108ac9190613f93565b60405180910390f35b3480156108c157600080fd5b506108dc60048036038101906108d79190614360565b612398565b6040516108e99190613943565b60405180910390f35b3480156108fe57600080fd5b5061091960048036038101906109149190613d9b565b61242c565b60405161092691906139f7565b60405180910390f35b34801561093b57600080fd5b50610944612510565b6040516109519190613d80565b60405180910390f35b34801561096657600080fd5b50610981600480360381019061097c9190613d9b565b61252c565b005b34801561098f57600080fd5b506109aa60048036038101906109a59190613d28565b612624565b6040516109b79190613943565b60405180910390f35b60007f80ac58cd000000000000000000000000000000000000000000000000000000007bffffffffffffffffffffffffffffffffffffffffffffffffffffffff1916827bffffffffffffffffffffffffffffffffffffffffffffffffffffffff19161480610a8b57507f5b5e139f000000000000000000000000000000000000000000000000000000007bffffffffffffffffffffffffffffffffffffffffffffffffffffffff1916827bffffffffffffffffffffffffffffffffffffffffffffffffffffffff1916145b80610a9b5750610a9a8261264f565b5b9050919050565b606060008054610ab1906143cf565b80601f0160208091040260200160405190810160405280929190818152602001828054610add906143cf565b8015610b2a5780601f10610aff57610100808354040283529160200191610b2a565b820191906000526020600020905b815481529060010190602001808311610b0d57829003601f168201915b5050505050905090565b6000610b3f826126b9565b610b7e576040517f08c379a0000000000000000000000000000000000000000000000000000000008152600401610b7590614473565b60405180910390fd5b6004600083815260200190815260200160002060009054906101000a900473ffffffffffffffffffffffffffffffffffffffff169050919050565b6000610bc482611100565b90508073ffffffffffffffffffffffffffffffffffffffff168373ffffffffffffffffffffffffffffffffffffffff161415610c35576040517f08c379a0000000000000000000000000000000000000000000000000000000008152600401610c2c90614505565b60405180910390fd5b8073ffffffffffffffffffffffffffffffffffffffff16610c54612725565b73ffffffffffffffffffffffffffffffffffffffff161480610c835750610c8281610c7d612725565b612398565b5b610cc2576040517f08c379a0000000000000000000000000000000000000000000000000000000008152600401610cb990614597565b60405180910390fd5b610ccc838361272d565b505050565b6000600f60009054906101000a900473ffffffffffffffffffffffffffffffffffffffff16905090565b600080600a60003373ffffffffffffffffffffffffffffffffffffffff1673ffffffffffffffffffffffffffffffffffffffff168152602001908152602001600020541415905090565b610d56610d50612725565b826127e6565b610d95576040517f08c379a0000000000000000000000000000000000000000000000000000000008152600401610d8c90614629565b60405180910390fd5b610da08383836128c4565b505050565b60086020528060005260406000206000915054906101000a900473ffffffffffffffffffffffffffffffffffffffff1681565b60096020528060005260406000206000915090508054610df7906143cf565b80601f0160208091040260200160405190810160405280929190818152602001828054610e23906143cf565b8015610e705780601f10610e4557610100808354040283529160200191610e70565b820191906000526020600020905b815481529060010190602001808311610e5357829003601f168201915b505050505081565b610e80612725565b73ffffffffffffffffffffffffffffffffffffffff16610e9e6116ea565b73ffffffffffffffffffffffffffffffffffffffff1614610ef4576040517f08c379a0000000000000000000000000000000000000000000000000000000008152600401610eeb90614695565b60405180910390fd5b6000610efe6116ea565b90508073ffffffffffffffffffffffffffffffffffffffff166108fc479081150290604051600060405180830381858888f19350505050158015610f46573d6000803e3d6000fd5b5050565b610f6583838360405180602001604052806000815250611dca565b505050565b6000600a60003373ffffffffffffffffffffffffffffffffffffffff1673ffffffffffffffffffffffffffffffffffffffff168152602001908152602001600020541415610fed576040517f08c379a0000000000000000000000000000000000000000000000000000000008152600401610fe490614701565b60405180910390fd5b81610ff781611100565b73ffffffffffffffffffffffffffffffffffffffff163373ffffffffffffffffffffffffffffffffffffffff161461102e57600080fd5b81600061103a82612b20565b9050600d8110801561104c5750600281115b61108b576040517f08c379a000000000000000000000000000000000000000000000000000000000815260040161108290614793565b60405180910390fd5b6000600e86815481106110a1576110a06147b3565b5b90600052602060002090600802019050848160070190805190602001906110c99291906137a7565b50505050505050565b600b818051602081018201805184825260208301602085012081835280955050505050506000915090505481565b6000806002600084815260200190815260200160002060009054906101000a900473ffffffffffffffffffffffffffffffffffffffff169050600073ffffffffffffffffffffffffffffffffffffffff168173ffffffffffffffffffffffffffffffffffffffff1614156111a9576040517f08c379a00000000000000000000000000000000000000000000000000000000081526004016111a090614854565b60405180910390fd5b80915050919050565b606060096000600a60003373ffffffffffffffffffffffffffffffffffffffff1673ffffffffffffffffffffffffffffffffffffffff1681526020019081526020016000205481526020019081526020016000208054611211906143cf565b80601f016020809104026020016040519081016040528092919081815260200182805461123d906143cf565b801561128a5780601f1061125f5761010080835404028352916020019161128a565b820191906000526020600020905b81548152906001019060200180831161126d57829003601f168201915b5050505050905090565b600060016007546112a591906148a3565b905090565b60008073ffffffffffffffffffffffffffffffffffffffff168273ffffffffffffffffffffffffffffffffffffffff16141561131b576040517f08c379a000000000000000000000000000000000000000000000000000000000815260040161131290614949565b60405180910390fd5b600360008373ffffffffffffffffffffffffffffffffffffffff1673ffffffffffffffffffffffffffffffffffffffff168152602001908152602001600020549050919050565b61136a612725565b73ffffffffffffffffffffffffffffffffffffffff166113886116ea565b73ffffffffffffffffffffffffffffffffffffffff16146113de576040517f08c379a00000000000000000000000000000000000000000000000000000000081526004016113d590614695565b60405180910390fd5b6113e86000612ddd565b565b6000600a60003373ffffffffffffffffffffffffffffffffffffffff1673ffffffffffffffffffffffffffffffffffffffff16815260200190815260200160002054141561146d576040517f08c379a000000000000000000000000000000000000000000000000000000000815260040161146490614701565b60405180910390fd5b8061147781611100565b73ffffffffffffffffffffffffffffffffffffffff163373ffffffffffffffffffffffffffffffffffffffff16146114ae57600080fd5b6000600e83815481106114c4576114c36147b3565b5b906000526020600020906008020190506115c181604051806101000160405290816000820154815260200160018201548152602001600282015481526020016003820154815260200160048201548152602001600582015481526020016006820154815260200160078201805461153a906143cf565b80601f0160208091040260200160405190810160405280929190818152602001828054611566906143cf565b80156115b35780601f10611588576101008083540402835291602001916115b3565b820191906000526020600020905b81548152906001019060200180831161159657829003601f168201915b505050505081525050612ea3565b611600576040517f08c379a00000000000000000000000000000000000000000000000000000000081526004016115f7906149db565b60405180910390fd5b600d544261160e91906149fb565b63ffffffff1681600601819055506011600081548092919061162f90614a51565b91905055508260126000601154815260200190815260200160002081905550600060146000601154815260200190815260200160002060006101000a81548160ff02191690831515021790555060016013600085815260200190815260200160002060006101000a81548160ff0219169083151502179055507f86e3966eac95125f1d265e0199935edf15bc4146fb0a2db534a3207b87e5e7c533846011546040516116dd93929190614a9a565b60405180910390a1505050565b6000600660009054906101000a900473ffffffffffffffffffffffffffffffffffffffff16905090565b606060018054611723906143cf565b80601f016020809104026020016040519081016040528092919081815260200182805461174f906143cf565b801561179c5780601f106117715761010080835404028352916020019161179c565b820191906000526020600020905b81548152906001019060200180831161177f57829003601f168201915b5050505050905090565b6060600e805480602002602001604051908101604052809291908181526020016000905b828210156118d557838290600052602060002090600802016040518061010001604052908160008201548152602001600182015481526020016002820154815260200160038201548152602001600482015481526020016005820154815260200160068201548152602001600782018054611844906143cf565b80601f0160208091040260200160405190810160405280929190818152602001828054611870906143cf565b80156118bd5780601f10611892576101008083540402835291602001916118bd565b820191906000526020600020905b8154815290600101906020018083116118a057829003601f168201915b505050505081525050815260200190600101906117ca565b50505050905090565b600f60009054906101000a900473ffffffffffffffffffffffffffffffffffffffff1681565b6000600a60003373ffffffffffffffffffffffffffffffffffffffff1673ffffffffffffffffffffffffffffffffffffffff168152602001908152602001600020541415611987576040517f08c379a000000000000000000000000000000000000000000000000000000000815260040161197e90614701565b60405180910390fd5b6000611994600c54612eb4565b905061199f81612f07565b50565b6119b46119ad612725565b8383613069565b5050565b6119c0612725565b73ffffffffffffffffffffffffffffffffffffffff166119de6116ea565b73ffffffffffffffffffffffffffffffffffffffff1614611a34576040517f08c379a0000000000000000000000000000000000000000000000000000000008152600401611a2b90614695565b60405180910390fd5b80600f60006101000a81548173ffffffffffffffffffffffffffffffffffffffff021916908373ffffffffffffffffffffffffffffffffffffffff16021790555050565b60006013600083815260200190815260200160002060009054906101000a900460ff169050919050565b600e8181548110611ab257600080fd5b9060005260206000209060080201600091509050806000015490806001015490806002015490806003015490806004015490806005015490806006015490806007018054611aff906143cf565b80601f0160208091040260200160405190810160405280929190818152602001828054611b2b906143cf565b8015611b785780601f10611b4d57610100808354040283529160200191611b78565b820191906000526020600020905b815481529060010190602001808311611b5b57829003601f168201915b5050505050905088565b806000600b82604051611b959190614b0d565b90815260200160405180910390205414611be4576040517f08c379a0000000000000000000000000000000000000000000000000000000008152600401611bdb90614b70565b60405180910390fd5b6000600a60003373ffffffffffffffffffffffffffffffffffffffff1673ffffffffffffffffffffffffffffffffffffffff1681526020019081526020016000205414611c66576040517f08c379a0000000000000000000000000000000000000000000000000000000008152600401611c5d90614bdc565b60405180910390fd5b816000611c7282612b20565b9050600d81108015611c845750600281115b611cc3576040517f08c379a0000000000000000000000000000000000000000000000000000000008152600401611cba90614c6e565b60405180910390fd5b600754600a60003373ffffffffffffffffffffffffffffffffffffffff1673ffffffffffffffffffffffffffffffffffffffff168152602001908152602001600020819055503360086000600754815260200190815260200160002060006101000a81548173ffffffffffffffffffffffffffffffffffffffff021916908373ffffffffffffffffffffffffffffffffffffffff160217905550836009600060075481526020019081526020016000209080519060200190611d869291906137a7565b50600754600b85604051611d9a9190614b0d565b90815260200160405180910390208190555060076000815480929190611dbf90614a51565b919050555050505050565b611ddb611dd5612725565b836127e6565b611e1a576040517f08c379a0000000000000000000000000000000000000000000000000000000008152600401611e1190614629565b60405180910390fd5b611e26848484846131d6565b50505050565b6060611e37826126b9565b611e76576040517f08c379a0000000000000000000000000000000000000000000000000000000008152600401611e6d90614d00565b60405180910390fd5b6000611e80613232565b90506000815111611ea05760405180602001604052806000815250611ecb565b80611eaa84613249565b604051602001611ebb929190614d20565b6040516020818303038152906040525b915050919050565b60006014600083815260200190815260200160002060009054906101000a900460ff169050919050565b600a6020528060005260406000206000915090505481565b611f1d612725565b73ffffffffffffffffffffffffffffffffffffffff16611f3b6116ea565b73ffffffffffffffffffffffffffffffffffffffff1614611f91576040517f08c379a0000000000000000000000000000000000000000000000000000000008152600401611f8890614695565b60405180910390fd5b84600015156014600083815260200190815260200160002060009054906101000a900460ff16151514611ff9576040517f08c379a0000000000000000000000000000000000000000000000000000000008152600401611ff090614d90565b60405180910390fd5b868681601260008381526020019081526020016000205414612050576040517f08c379a000000000000000000000000000000000000000000000000000000000815260040161204790614e22565b60405180910390fd5b6001601460008a815260200190815260200160002060006101000a81548160ff0219169083151502179055506000601360008b815260200190815260200160002060006101000a81548160ff021916908315150217905550600f60009054906101000a900473ffffffffffffffffffffffffffffffffffffffff1673ffffffffffffffffffffffffffffffffffffffff1663a46abae733898989896040518663ffffffff1660e01b815260040161210b959493929190614eb4565b600060405180830381600087803b15801561212557600080fd5b505af1158015612139573d6000803e3d6000fd5b50505050888a73ffffffffffffffffffffffffffffffffffffffff167fbcb585d59fbf23e95ea561b810c6f7b83b556ddc1c9d222aefcaeb7d324aaccc8a6040516121849190613d80565b60405180910390a350505050505050505050565b606060006121a5836112aa565b67ffffffffffffffff8111156121be576121bd613ba1565b5b6040519080825280602002602001820160405280156121f757816020015b6121e461382d565b8152602001906001900390816121dc5790505b5090506000805b600e8054905081101561238d578473ffffffffffffffffffffffffffffffffffffffff1661222b82611100565b73ffffffffffffffffffffffffffffffffffffffff16141561237a57600e818154811061225b5761225a6147b3565b5b906000526020600020906008020160405180610100016040529081600082015481526020016001820154815260200160028201548152602001600382015481526020016004820154815260200160058201548152602001600682015481526020016007820180546122cb906143cf565b80601f01602080910402602001604051908101604052809291908181526020018280546122f7906143cf565b80156123445780601f1061231957610100808354040283529160200191612344565b820191906000526020600020905b81548152906001019060200180831161232757829003601f168201915b5050505050815250508383815181106123605761235f6147b3565b5b6020026020010181905250818061237690614a51565b9250505b808061238590614a51565b9150506121fe565b508192505050919050565b6000600560008473ffffffffffffffffffffffffffffffffffffffff1673ffffffffffffffffffffffffffffffffffffffff16815260200190815260200160002060008373ffffffffffffffffffffffffffffffffffffffff1673ffffffffffffffffffffffffffffffffffffffff16815260200190815260200160002060009054906101000a900460ff16905092915050565b606060096000600a60008573ffffffffffffffffffffffffffffffffffffffff1673ffffffffffffffffffffffffffffffffffffffff168152602001908152602001600020548152602001908152602001600020805461248b906143cf565b80601f01602080910402602001604051908101604052809291908181526020018280546124b7906143cf565b80156125045780601f106124d957610100808354040283529160200191612504565b820191906000526020600020905b8154815290600101906020018083116124e757829003601f168201915b50505050509050919050565b60008061251b6111b2565b905061252681612b20565b91505090565b612534612725565b73ffffffffffffffffffffffffffffffffffffffff166125526116ea565b73ffffffffffffffffffffffffffffffffffffffff16146125a8576040517f08c379a000000000000000000000000000000000000000000000000000000000815260040161259f90614695565b60405180910390fd5b600073ffffffffffffffffffffffffffffffffffffffff168173ffffffffffffffffffffffffffffffffffffffff161415612618576040517f08c379a000000000000000000000000000000000000000000000000000000000815260040161260f90614f6f565b60405180910390fd5b61262181612ddd565b50565b600080600b836040516126379190614b0d565b90815260200160405180910390205414159050919050565b60007f01ffc9a7000000000000000000000000000000000000000000000000000000007bffffffffffffffffffffffffffffffffffffffffffffffffffffffff1916827bffffffffffffffffffffffffffffffffffffffffffffffffffffffff1916149050919050565b60008073ffffffffffffffffffffffffffffffffffffffff166002600084815260200190815260200160002060009054906101000a900473ffffffffffffffffffffffffffffffffffffffff1673ffffffffffffffffffffffffffffffffffffffff1614159050919050565b600033905090565b816004600083815260200190815260200160002060006101000a81548173ffffffffffffffffffffffffffffffffffffffff021916908373ffffffffffffffffffffffffffffffffffffffff160217905550808273ffffffffffffffffffffffffffffffffffffffff166127a083611100565b73ffffffffffffffffffffffffffffffffffffffff167f8c5be1e5ebec7d5bd14f71427d1e84f3dd0314c0f7b2291e5b200ac8c7c3b92560405160405180910390a45050565b60006127f1826126b9565b612830576040517f08c379a000000000000000000000000000000000000000000000000000000000815260040161282790615001565b60405180910390fd5b600061283b83611100565b90508073ffffffffffffffffffffffffffffffffffffffff168473ffffffffffffffffffffffffffffffffffffffff1614806128aa57508373ffffffffffffffffffffffffffffffffffffffff1661289284610b34565b73ffffffffffffffffffffffffffffffffffffffff16145b806128bb57506128ba8185612398565b5b91505092915050565b8273ffffffffffffffffffffffffffffffffffffffff166128e482611100565b73ffffffffffffffffffffffffffffffffffffffff161461293a576040517f08c379a000000000000000000000000000000000000000000000000000000000815260040161293190615093565b60405180910390fd5b600073ffffffffffffffffffffffffffffffffffffffff168273ffffffffffffffffffffffffffffffffffffffff1614156129aa576040517f08c379a00000000000000000000000000000000000000000000000000000000081526004016129a190615125565b60405180910390fd5b6129b58383836133aa565b6129c060008261272d565b6001600360008573ffffffffffffffffffffffffffffffffffffffff1673ffffffffffffffffffffffffffffffffffffffff1681526020019081526020016000206000828254612a1091906148a3565b925050819055506001600360008473ffffffffffffffffffffffffffffffffffffffff1673ffffffffffffffffffffffffffffffffffffffff1681526020019081526020016000206000828254612a6791906149fb565b92505081905550816002600083815260200190815260200160002060006101000a81548173ffffffffffffffffffffffffffffffffffffffff021916908373ffffffffffffffffffffffffffffffffffffffff160217905550808273ffffffffffffffffffffffffffffffffffffffff168473ffffffffffffffffffffffffffffffffffffffff167fddf252ad1be2c89b69c2b068fc378daa952ba7f163c4a11628f55a4df523b3ef60405160405180910390a4505050565b6000806000905060008390505b8051821015612dd657600060f81b6007828481518110612b5057612b4f6147b3565b5b602001015160f81c60f81b7effffffffffffffffffffffffffffffffffffffffffffffffffffffffffffff1916901c7effffffffffffffffffffffffffffffffffffffffffffffffffffffffffffff19161415612bbb57600182612bb491906149fb565b9150612dc3565b600660f81b7effffffffffffffffffffffffffffffffffffffffffffffffffffffffffffff19166005828481518110612bf757612bf66147b3565b5b602001015160f81c60f81b7effffffffffffffffffffffffffffffffffffffffffffffffffffffffffffff1916901c7effffffffffffffffffffffffffffffffffffffffffffffffffffffffffffff19161415612c6257600282612c5b91906149fb565b9150612dc2565b600e60f81b7effffffffffffffffffffffffffffffffffffffffffffffffffffffffffffff19166004828481518110612c9e57612c9d6147b3565b5b602001015160f81c60f81b7effffffffffffffffffffffffffffffffffffffffffffffffffffffffffffff1916901c7effffffffffffffffffffffffffffffffffffffffffffffffffffffffffffff19161415612d0957600382612d0291906149fb565b9150612dc1565b601e60f81b7effffffffffffffffffffffffffffffffffffffffffffffffffffffffffffff19166003828481518110612d4557612d446147b3565b5b602001015160f81c60f81b7effffffffffffffffffffffffffffffffffffffffffffffffffffffffffffff1916901c7effffffffffffffffffffffffffffffffffffffffffffffffffffffffffffff19161415612db057600482612da991906149fb565b9150612dc0565b600182612dbd91906149fb565b91505b5b5b5b8280612dce90614a51565b935050612b2d565b5050919050565b6000600660009054906101000a900473ffffffffffffffffffffffffffffffffffffffff16905081600660006101000a81548173ffffffffffffffffffffffffffffffffffffffff021916908373ffffffffffffffffffffffffffffffffffffffff1602179055508173ffffffffffffffffffffffffffffffffffffffff168173ffffffffffffffffffffffffffffffffffffffff167f8be0079c531659141344cd1fd0a4f28419497f9722a3daafe3b4186f6b6457e060405160405180910390a35050565b6000428260c0015111159050919050565b6000808242612ec391906149fb565b604051602001612ed39190615166565b6040516020818303038152906040528051906020012060001c905064e8d4a5100081612eff91906151b0565b915050919050565b6000604051806101000160405280600c54815260200183815260200160148152602001600a8152602001600a8152602001600a8152602001428152602001604051806020016040528060008152508152509050600e819080600181540180825580915050600190039060005260206000209060080201600090919091909150600082015181600001556020820151816001015560408201518160020155606082015181600301556080820151816004015560a0820151816005015560c0820151816006015560e0820151816007019080519060200190612fe89291906137a7565b505050612ff733600c546133af565b3373ffffffffffffffffffffffffffffffffffffffff167fad1c7ab5bfbe86a51764200b1532f3893b41563e78abe6d6eac4bbd987f38c68600c54846040516130419291906151e1565b60405180910390a261305f6001600c546133cd90919063ffffffff16565b600c819055505050565b8173ffffffffffffffffffffffffffffffffffffffff168373ffffffffffffffffffffffffffffffffffffffff1614156130d8576040517f08c379a00000000000000000000000000000000000000000000000000000000081526004016130cf90615256565b60405180910390fd5b80600560008573ffffffffffffffffffffffffffffffffffffffff1673ffffffffffffffffffffffffffffffffffffffff16815260200190815260200160002060008473ffffffffffffffffffffffffffffffffffffffff1673ffffffffffffffffffffffffffffffffffffffff16815260200190815260200160002060006101000a81548160ff0219169083151502179055508173ffffffffffffffffffffffffffffffffffffffff168373ffffffffffffffffffffffffffffffffffffffff167f17307eab39ab6107e8899845ad3d59bd9653f200f220920489ca2b5937696c31836040516131c99190613943565b60405180910390a3505050565b6131e18484846128c4565b6131ed848484846133e3565b61322c576040517f08c379a0000000000000000000000000000000000000000000000000000000008152600401613223906152e8565b60405180910390fd5b50505050565b606060405180602001604052806000815250905090565b60606000821415613291576040518060400160405280600181526020017f300000000000000000000000000000000000000000000000000000000000000081525090506133a5565b600082905060005b600082146132c35780806132ac90614a51565b915050600a826132bc9190615308565b9150613299565b60008167ffffffffffffffff8111156132df576132de613ba1565b5b6040519080825280601f01601f1916602001820160405280156133115781602001600182028036833780820191505090505b5090505b6000851461339e5760018261332a91906148a3565b9150600a8561333991906151b0565b603061334591906149fb565b60f81b81838151811061335b5761335a6147b3565b5b60200101907effffffffffffffffffffffffffffffffffffffffffffffffffffffffffffff1916908160001a905350600a856133979190615308565b9450613315565b8093505050505b919050565b505050565b6133c982826040518060200160405280600081525061356b565b5050565b600081836133db91906149fb565b905092915050565b60006134048473ffffffffffffffffffffffffffffffffffffffff166135c6565b1561355e578373ffffffffffffffffffffffffffffffffffffffff1663150b7a0261342d612725565b8786866040518563ffffffff1660e01b815260040161344f949392919061538e565b6020604051808303816000875af192505050801561348b57506040513d601f19601f8201168201806040525081019061348891906153ef565b60015b61350e573d80600081146134bb576040519150601f19603f3d011682016040523d82523d6000602084013e6134c0565b606091505b50600081511415613506576040517f08c379a00000000000000000000000000000000000000000000000000000000081526004016134fd906152e8565b60405180910390fd5b805181602001fd5b63150b7a0260e01b7bffffffffffffffffffffffffffffffffffffffffffffffffffffffff1916817bffffffffffffffffffffffffffffffffffffffffffffffffffffffff191614915050613563565b600190505b949350505050565b61357583836135d9565b61358260008484846133e3565b6135c1576040517f08c379a00000000000000000000000000000000000000000000000000000000081526004016135b8906152e8565b60405180910390fd5b505050565b600080823b905060008111915050919050565b600073ffffffffffffffffffffffffffffffffffffffff168273ffffffffffffffffffffffffffffffffffffffff161415613649576040517f08c379a000000000000000000000000000000000000000000000000000000000815260040161364090615468565b60405180910390fd5b613652816126b9565b15613692576040517f08c379a0000000000000000000000000000000000000000000000000000000008152600401613689906154d4565b60405180910390fd5b61369e600083836133aa565b6001600360008473ffffffffffffffffffffffffffffffffffffffff1673ffffffffffffffffffffffffffffffffffffffff16815260200190815260200160002060008282546136ee91906149fb565b92505081905550816002600083815260200190815260200160002060006101000a81548173ffffffffffffffffffffffffffffffffffffffff021916908373ffffffffffffffffffffffffffffffffffffffff160217905550808273ffffffffffffffffffffffffffffffffffffffff16600073ffffffffffffffffffffffffffffffffffffffff167fddf252ad1be2c89b69c2b068fc378daa952ba7f163c4a11628f55a4df523b3ef60405160405180910390a45050565b8280546137b3906143cf565b90600052602060002090601f0160209004810192826137d5576000855561381c565b82601f106137ee57805160ff191683800117855561381c565b8280016001018555821561381c579182015b8281111561381b578251825591602001919060010190613800565b5b5090506138299190613872565b5090565b60405180610100016040528060008152602001600081526020016000815260200160008152602001600081526020016000815260200160008152602001606081525090565b5b8082111561388b576000816000905550600101613873565b5090565b6000604051905090565b600080fd5b600080fd5b60007fffffffff0000000000000000000000000000000000000000000000000000000082169050919050565b6138d8816138a3565b81146138e357600080fd5b50565b6000813590506138f5816138cf565b92915050565b60006020828403121561391157613910613899565b5b600061391f848285016138e6565b91505092915050565b60008115159050919050565b61393d81613928565b82525050565b60006020820190506139586000830184613934565b92915050565b600081519050919050565b600082825260208201905092915050565b60005b8381101561399857808201518184015260208101905061397d565b838111156139a7576000848401525b50505050565b6000601f19601f8301169050919050565b60006139c98261395e565b6139d38185613969565b93506139e381856020860161397a565b6139ec816139ad565b840191505092915050565b60006020820190508181036000830152613a1181846139be565b905092915050565b6000819050919050565b613a2c81613a19565b8114613a3757600080fd5b50565b600081359050613a4981613a23565b92915050565b600060208284031215613a6557613a64613899565b5b6000613a7384828501613a3a565b91505092915050565b600073ffffffffffffffffffffffffffffffffffffffff82169050919050565b6000613aa782613a7c565b9050919050565b613ab781613a9c565b82525050565b6000602082019050613ad26000830184613aae565b92915050565b613ae181613a9c565b8114613aec57600080fd5b50565b600081359050613afe81613ad8565b92915050565b60008060408385031215613b1b57613b1a613899565b5b6000613b2985828601613aef565b9250506020613b3a85828601613a3a565b9150509250929050565b600080600060608486031215613b5d57613b5c613899565b5b6000613b6b86828701613aef565b9350506020613b7c86828701613aef565b9250506040613b8d86828701613a3a565b9150509250925092565b600080fd5b600080fd5b7f4e487b7100000000000000000000000000000000000000000000000000000000600052604160045260246000fd5b613bd9826139ad565b810181811067ffffffffffffffff82111715613bf857613bf7613ba1565b5b80604052505050565b6000613c0b61388f565b9050613c178282613bd0565b919050565b600067ffffffffffffffff821115613c3757613c36613ba1565b5b613c40826139ad565b9050602081019050919050565b82818337600083830152505050565b6000613c6f613c6a84613c1c565b613c01565b905082815260208101848484011115613c8b57613c8a613b9c565b5b613c96848285613c4d565b509392505050565b600082601f830112613cb357613cb2613b97565b5b8135613cc3848260208601613c5c565b91505092915050565b60008060408385031215613ce357613ce2613899565b5b6000613cf185828601613a3a565b925050602083013567ffffffffffffffff811115613d1257613d1161389e565b5b613d1e85828601613c9e565b9150509250929050565b600060208284031215613d3e57613d3d613899565b5b600082013567ffffffffffffffff811115613d5c57613d5b61389e565b5b613d6884828501613c9e565b91505092915050565b613d7a81613a19565b82525050565b6000602082019050613d956000830184613d71565b92915050565b600060208284031215613db157613db0613899565b5b6000613dbf84828501613aef565b91505092915050565b600081519050919050565b600082825260208201905092915050565b6000819050602082019050919050565b613dfd81613a19565b82525050565b600082825260208201905092915050565b6000613e1f8261395e565b613e298185613e03565b9350613e3981856020860161397a565b613e42816139ad565b840191505092915050565b600061010083016000830151613e666000860182613df4565b506020830151613e796020860182613df4565b506040830151613e8c6040860182613df4565b506060830151613e9f6060860182613df4565b506080830151613eb26080860182613df4565b5060a0830151613ec560a0860182613df4565b5060c0830151613ed860c0860182613df4565b5060e083015184820360e0860152613ef08282613e14565b9150508091505092915050565b6000613f098383613e4d565b905092915050565b6000602082019050919050565b6000613f2982613dc8565b613f338185613dd3565b935083602082028501613f4585613de4565b8060005b85811015613f815784840389528151613f628582613efd565b9450613f6d83613f11565b925060208a01995050600181019050613f49565b50829750879550505050505092915050565b60006020820190508181036000830152613fad8184613f1e565b905092915050565b6000819050919050565b6000613fda613fd5613fd084613a7c565b613fb5565b613a7c565b9050919050565b6000613fec82613fbf565b9050919050565b6000613ffe82613fe1565b9050919050565b61400e81613ff3565b82525050565b60006020820190506140296000830184614005565b92915050565b61403881613928565b811461404357600080fd5b50565b6000813590506140558161402f565b92915050565b6000806040838503121561407257614071613899565b5b600061408085828601613aef565b925050602061409185828601614046565b9150509250929050565b6000610100820190506140b1600083018b613d71565b6140be602083018a613d71565b6140cb6040830189613d71565b6140d86060830188613d71565b6140e56080830187613d71565b6140f260a0830186613d71565b6140ff60c0830185613d71565b81810360e083015261411181846139be565b90509998505050505050505050565b600067ffffffffffffffff82111561413b5761413a613ba1565b5b614144826139ad565b9050602081019050919050565b600061416461415f84614120565b613c01565b9050828152602081018484840111156141805761417f613b9c565b5b61418b848285613c4d565b509392505050565b600082601f8301126141a8576141a7613b97565b5b81356141b8848260208601614151565b91505092915050565b600080600080608085870312156141db576141da613899565b5b60006141e987828801613aef565b94505060206141fa87828801613aef565b935050604061420b87828801613a3a565b925050606085013567ffffffffffffffff81111561422c5761422b61389e565b5b61423887828801614193565b91505092959194509250565b600080fd5b600080fd5b60008083601f84011261426457614263613b97565b5b8235905067ffffffffffffffff81111561428157614280614244565b5b60208301915083602082028301111561429d5761429c614249565b5b9250929050565b600080600080600080600060a0888a0312156142c3576142c2613899565b5b60006142d18a828b01613aef565b97505060206142e28a828b01613a3a565b96505060406142f38a828b01613a3a565b955050606088013567ffffffffffffffff8111156143145761431361389e565b5b6143208a828b0161424e565b9450945050608088013567ffffffffffffffff8111156143435761434261389e565b5b61434f8a828b0161424e565b925092505092959891949750929550565b6000806040838503121561437757614376613899565b5b600061438585828601613aef565b925050602061439685828601613aef565b9150509250929050565b7f4e487b7100000000000000000000000000000000000000000000000000000000600052602260045260246000fd5b600060028204905060018216806143e757607f821691505b602082108114156143fb576143fa6143a0565b5b50919050565b7f4552433732313a20617070726f76656420717565727920666f72206e6f6e657860008201527f697374656e7420746f6b656e0000000000000000000000000000000000000000602082015250565b600061445d602c83613969565b915061446882614401565b604082019050919050565b6000602082019050818103600083015261448c81614450565b9050919050565b7f4552433732313a20617070726f76616c20746f2063757272656e74206f776e6560008201527f7200000000000000000000000000000000000000000000000000000000000000602082015250565b60006144ef602183613969565b91506144fa82614493565b604082019050919050565b6000602082019050818103600083015261451e816144e2565b9050919050565b7f4552433732313a20617070726f76652063616c6c6572206973206e6f74206f7760008201527f6e6572206e6f7220617070726f76656420666f7220616c6c0000000000000000602082015250565b6000614581603883613969565b915061458c82614525565b604082019050919050565b600060208201905081810360008301526145b081614574565b9050919050565b7f4552433732313a207472616e736665722063616c6c6572206973206e6f74206f60008201527f776e6572206e6f7220617070726f766564000000000000000000000000000000602082015250565b6000614613603183613969565b915061461e826145b7565b604082019050919050565b6000602082019050818103600083015261464281614606565b9050919050565b7f4f776e61626c653a2063616c6c6572206973206e6f7420746865206f776e6572600082015250565b600061467f602083613969565b915061468a82614649565b602082019050919050565b600060208201905081810360008301526146ae81614672565b9050919050565b7f596f7520646f6e2774206861766520616e206163636f756e7400000000000000600082015250565b60006146eb601983613969565b91506146f6826146b5565b602082019050919050565b6000602082019050818103600083015261471a816146de565b9050919050565b7f546865206865726f206e616d65206d757374206265206265747765656e20332060008201527f616e642031322063686172616374657273000000000000000000000000000000602082015250565b600061477d603183613969565b915061478882614721565b604082019050919050565b600060208201905081810360008301526147ac81614770565b9050919050565b7f4e487b7100000000000000000000000000000000000000000000000000000000600052603260045260246000fd5b7f4552433732313a206f776e657220717565727920666f72206e6f6e657869737460008201527f656e7420746f6b656e0000000000000000000000000000000000000000000000602082015250565b600061483e602983613969565b9150614849826147e2565b604082019050919050565b6000602082019050818103600083015261486d81614831565b9050919050565b7f4e487b7100000000000000000000000000000000000000000000000000000000600052601160045260246000fd5b60006148ae82613a19565b91506148b983613a19565b9250828210156148cc576148cb614874565b5b828203905092915050565b7f4552433732313a2062616c616e636520717565727920666f7220746865207a6560008201527f726f206164647265737300000000000000000000000000000000000000000000602082015250565b6000614933602a83613969565b915061493e826148d7565b604082019050919050565b6000602082019050818103600083015261496281614926565b9050919050565b7f4865726f206973206e6f7420726561647920746f20676f2061206e657720616460008201527f76656e74757265207965742e2e00000000000000000000000000000000000000602082015250565b60006149c5602d83613969565b91506149d082614969565b604082019050919050565b600060208201905081810360008301526149f4816149b8565b9050919050565b6000614a0682613a19565b9150614a1183613a19565b9250827fffffffffffffffffffffffffffffffffffffffffffffffffffffffffffffffff03821115614a4657614a45614874565b5b828201905092915050565b6000614a5c82613a19565b91507fffffffffffffffffffffffffffffffffffffffffffffffffffffffffffffffff821415614a8f57614a8e614874565b5b600182019050919050565b6000606082019050614aaf6000830186613aae565b614abc6020830185613d71565b614ac96040830184613d71565b949350505050565b600081905092915050565b6000614ae78261395e565b614af18185614ad1565b9350614b0181856020860161397a565b80840191505092915050565b6000614b198284614adc565b915081905092915050565b7f557365726e616d652069732074616b656e000000000000000000000000000000600082015250565b6000614b5a601183613969565b9150614b6582614b24565b602082019050919050565b60006020820190508181036000830152614b8981614b4d565b9050919050565b7f596f7520616c7265616479206861766520616e206163636f756e742100000000600082015250565b6000614bc6601c83613969565b9150614bd182614b90565b602082019050919050565b60006020820190508181036000830152614bf581614bb9565b9050919050565b7f557365726e616d65206d757374206265206265747765656e203320616e64203160008201527f3220636861726163746572730000000000000000000000000000000000000000602082015250565b6000614c58602c83613969565b9150614c6382614bfc565b604082019050919050565b60006020820190508181036000830152614c8781614c4b565b9050919050565b7f4552433732314d657461646174613a2055524920717565727920666f72206e6f60008201527f6e6578697374656e7420746f6b656e0000000000000000000000000000000000602082015250565b6000614cea602f83613969565b9150614cf582614c8e565b604082019050919050565b60006020820190508181036000830152614d1981614cdd565b9050919050565b6000614d2c8285614adc565b9150614d388284614adc565b91508190509392505050565b7f416476656e7475726520616c726561647920636f6d706c657465640000000000600082015250565b6000614d7a601b83613969565b9150614d8582614d44565b602082019050919050565b60006020820190508181036000830152614da981614d6d565b9050919050565b7f54686973206865726f206973206e6f74206f6e207468697320616476656e747560008201527f7265000000000000000000000000000000000000000000000000000000000000602082015250565b6000614e0c602283613969565b9150614e1782614db0565b604082019050919050565b60006020820190508181036000830152614e3b81614dff565b9050919050565b600082825260208201905092915050565b600080fd5b6000614e648385614e42565b93507f07ffffffffffffffffffffffffffffffffffffffffffffffffffffffffffffff831115614e9757614e96614e53565b5b602083029250614ea8838584613c4d565b82840190509392505050565b6000606082019050614ec96000830188613aae565b8181036020830152614edc818688614e58565b90508181036040830152614ef1818486614e58565b90509695505050505050565b7f4f776e61626c653a206e6577206f776e657220697320746865207a65726f206160008201527f6464726573730000000000000000000000000000000000000000000000000000602082015250565b6000614f59602683613969565b9150614f6482614efd565b604082019050919050565b60006020820190508181036000830152614f8881614f4c565b9050919050565b7f4552433732313a206f70657261746f7220717565727920666f72206e6f6e657860008201527f697374656e7420746f6b656e0000000000000000000000000000000000000000602082015250565b6000614feb602c83613969565b9150614ff682614f8f565b604082019050919050565b6000602082019050818103600083015261501a81614fde565b9050919050565b7f4552433732313a207472616e73666572206f6620746f6b656e2074686174206960008201527f73206e6f74206f776e0000000000000000000000000000000000000000000000602082015250565b600061507d602983613969565b915061508882615021565b604082019050919050565b600060208201905081810360008301526150ac81615070565b9050919050565b7f4552433732313a207472616e7366657220746f20746865207a65726f2061646460008201527f7265737300000000000000000000000000000000000000000000000000000000602082015250565b600061510f602483613969565b915061511a826150b3565b604082019050919050565b6000602082019050818103600083015261513e81615102565b9050919050565b6000819050919050565b61516061515b82613a19565b615145565b82525050565b6000615172828461514f565b60208201915081905092915050565b7f4e487b7100000000000000000000000000000000000000000000000000000000600052601260045260246000fd5b60006151bb82613a19565b91506151c683613a19565b9250826151d6576151d5615181565b5b828206905092915050565b60006040820190506151f66000830185613d71565b6152036020830184613d71565b9392505050565b7f4552433732313a20617070726f766520746f2063616c6c657200000000000000600082015250565b6000615240601983613969565b915061524b8261520a565b602082019050919050565b6000602082019050818103600083015261526f81615233565b9050919050565b7f4552433732313a207472616e7366657220746f206e6f6e20455243373231526560008201527f63656976657220696d706c656d656e7465720000000000000000000000000000602082015250565b60006152d2603283613969565b91506152dd82615276565b604082019050919050565b60006020820190508181036000830152615301816152c5565b9050919050565b600061531382613a19565b915061531e83613a19565b92508261532e5761532d615181565b5b828204905092915050565b600081519050919050565b600082825260208201905092915050565b600061536082615339565b61536a8185615344565b935061537a81856020860161397a565b615383816139ad565b840191505092915050565b60006080820190506153a36000830187613aae565b6153b06020830186613aae565b6153bd6040830185613d71565b81810360608301526153cf8184615355565b905095945050505050565b6000815190506153e9816138cf565b92915050565b60006020828403121561540557615404613899565b5b6000615413848285016153da565b91505092915050565b7f4552433732313a206d696e7420746f20746865207a65726f2061646472657373600082015250565b6000615452602083613969565b915061545d8261541c565b602082019050919050565b6000602082019050818103600083015261548181615445565b9050919050565b7f4552433732313a20746f6b656e20616c7265616479206d696e74656400000000600082015250565b60006154be601c83613969565b91506154c982615488565b602082019050919050565b600060208201905081810360008301526154ed816154b1565b905091905056fea26469706673582212209c64de4f01fdc85c4734625ee0c09f6b5a2b85288ed02a126c2adb636360338964736f6c634300080a0033",
  "immutableReferences": {},
  "source": "// SPDX-License-Identifier: MIT\r\npragma solidity ^0.8.7;\r\nimport \"./IotaHeroUtil.sol\";\r\nimport \"./IotaHeroGameTokens.sol\";\r\n\r\ncontract IotaHeroAdventure is IotaHeroUtil {\r\n    IotaHeroGameTokens public tokens;\r\n    using SafeMath for uint256;\r\n    uint256 randomNonce = 0;\r\n    uint256 adventureCounter = 0;\r\n\r\n    mapping(uint256 => uint256) adventureToHero;\r\n    mapping(uint256 => bool) heroIsAdventuring;\r\n    mapping(uint256 => bool) adventureToCompleted;\r\n\r\n    modifier correctHeroForAdventure(uint256 _heroId, uint256 _adventureId) {\r\n        require(\r\n            adventureToHero[_adventureId] == _heroId,\r\n            \"This hero is not on this adventure\"\r\n        );\r\n        _;\r\n    }\r\n    modifier adventureNotCompleted(uint256 _adventureId) {\r\n        require(\r\n            adventureToCompleted[_adventureId] == false,\r\n            \"Adventure already completed\"\r\n        );\r\n        _;\r\n    }\r\n\r\n    function setTokens(address tokensAddress) public onlyOwner {\r\n        tokens = IotaHeroGameTokens(tokensAddress);\r\n    }\r\n\r\n    function getTokenAddress() public view returns (address) {\r\n        return address(tokens);\r\n    }\r\n\r\n    event AdventureInitiated(\r\n        address player,\r\n        uint256 heroId,\r\n        uint256 adventureId\r\n    );\r\n\r\n    event AdventureCompleted(\r\n        address indexed player,\r\n        uint256 indexed heroId,\r\n        uint256 adventureId\r\n    );\r\n\r\n    function completeAdventure(\r\n        address _player,\r\n        uint256 _heroId,\r\n        uint256 adventureId,\r\n        uint256[] calldata lootTokenIds,\r\n        uint256[] calldata lootAmounts\r\n    )\r\n        external\r\n        onlyOwner\r\n        adventureNotCompleted(adventureId)\r\n        correctHeroForAdventure(_heroId, adventureId)\r\n    {\r\n        adventureToCompleted[adventureId] = true;\r\n        heroIsAdventuring[_heroId] = false;\r\n        tokens.awardAdventurer(msg.sender, lootTokenIds, lootAmounts);\r\n        emit AdventureCompleted(_player, _heroId, adventureId);\r\n    }\r\n\r\n    function isHeroAdventuring(uint256 _heroId) public view returns (bool) {\r\n        return heroIsAdventuring[_heroId];\r\n    }\r\n\r\n    function isAdventureCompleted(uint256 _adventureId)\r\n        public\r\n        view\r\n        returns (bool)\r\n    {\r\n        return adventureToCompleted[_adventureId];\r\n    }\r\n\r\n    function goAdventure(uint256 _heroId)\r\n        external\r\n        hasAccount\r\n        onlyOwnerOf(_heroId)\r\n    {\r\n        Hero storage myHero = heroes[_heroId];\r\n        require(\r\n            heroIsReady(myHero),\r\n            \"Hero is not ready to go a new adventure yet..\"\r\n        );\r\n        myHero.restingTill = uint32(block.timestamp + adventureCoolDown);\r\n        adventureCounter++;\r\n        adventureToHero[adventureCounter] = _heroId;\r\n        adventureToCompleted[adventureCounter] = false;\r\n        heroIsAdventuring[_heroId] = true;\r\n        emit AdventureInitiated(msg.sender, _heroId, adventureCounter);\r\n\r\n        // uint256 rand = _pseudoRandom(randomNonce) % 100;\r\n        // uint256 rand2 = _pseudoRandom(rand);\r\n        // Adventure storage adv = adventures[rand2 % adventures.length];\r\n        // if (adv.adventureType == AdventureType.MONSTER) {\r\n        //     if (rand < 50) {\r\n        //         myHero.xp = myHero.xp.add(100);\r\n        //         tokens.awardAdventurer(msg.sender);\r\n        //     } else {\r\n        //         myHero.xp = myHero.xp.div(2);\r\n        //     }\r\n        // } else if (adv.adventureType == AdventureType.FRIENDLY) {\r\n        //     tokens.awardAdventurer(msg.sender);\r\n        // } else if (adv.adventureType == AdventureType.ENVIRONMENT) {\r\n        //     if (rand < 50) {\r\n        //         myHero.physical = myHero.physical.add(1);\r\n        //     } else {\r\n        //         myHero.physical = myHero.physical.sub(1);\r\n        //     }\r\n        // } else if (adv.adventureType == AdventureType.EMPTY) {\r\n        //     // do nothing\r\n        // } else if (adv.adventureType == AdventureType.MENTAL_TRAINING) {\r\n        //     if (rand < 50) {\r\n        //         myHero.mental = myHero.mental.add(1);\r\n        //     }\r\n        // } else if (adv.adventureType == AdventureType.PHYSICAL_TRAINING) {\r\n        //     if (rand < 50) {\r\n        //         myHero.physical = myHero.physical.add(1);\r\n        //     }\r\n        // }\r\n        // myHero.debug = rand;\r\n        // myHero.restingTill = uint32(block.timestamp + adventureCoolDown);\r\n        // randomNonce = randomNonce.add(1);\r\n    }\r\n}\r\n",
  "sourcePath": "C:\\Users\\creld\\source\\repos\\IotaHeroes\\smartcontracts\\contracts\\IotaHeroAdventure.sol",
  "compiler": {
    "name": "solc",
    "version": "0.8.10+commit.fc410830.Emscripten.clang"
  },
  "schemaVersion": "3.4.4",
  "updatedAt": "2022-01-20T21:32:04.074Z",
  "networkType": "ethereum",
  "devdoc": {
    "kind": "dev",
    "methods": {
      "approve(address,uint256)": {
        "details": "See {IERC721-approve}."
      },
      "balanceOf(address)": {
        "details": "See {IERC721-balanceOf}."
      },
      "getApproved(uint256)": {
        "details": "See {IERC721-getApproved}."
      },
      "isApprovedForAll(address,address)": {
        "details": "See {IERC721-isApprovedForAll}."
      },
      "name()": {
        "details": "See {IERC721Metadata-name}."
      },
      "owner()": {
        "details": "Returns the address of the current owner."
      },
      "ownerOf(uint256)": {
        "details": "See {IERC721-ownerOf}."
      },
      "renounceOwnership()": {
        "details": "Leaves the contract without owner. It will not be possible to call `onlyOwner` functions anymore. Can only be called by the current owner. NOTE: Renouncing ownership will leave the contract without an owner, thereby removing any functionality that is only available to the owner."
      },
      "safeTransferFrom(address,address,uint256)": {
        "details": "See {IERC721-safeTransferFrom}."
      },
      "safeTransferFrom(address,address,uint256,bytes)": {
        "details": "See {IERC721-safeTransferFrom}."
      },
      "setApprovalForAll(address,bool)": {
        "details": "See {IERC721-setApprovalForAll}."
      },
      "supportsInterface(bytes4)": {
        "details": "See {IERC165-supportsInterface}."
      },
      "symbol()": {
        "details": "See {IERC721Metadata-symbol}."
      },
      "tokenURI(uint256)": {
        "details": "See {IERC721Metadata-tokenURI}."
      },
      "transferFrom(address,address,uint256)": {
        "details": "See {IERC721-transferFrom}."
      },
      "transferOwnership(address)": {
        "details": "Transfers ownership of the contract to a new account (`newOwner`). Can only be called by the current owner."
      }
    },
    "version": 1
  },
  "userdoc": {
    "kind": "user",
    "methods": {},
    "version": 1
  }
}