{
  "contractName": "IotaHeroGameTokens",
  "abi": [
    {
      "inputs": [],
      "stateMutability": "nonpayable",
      "type": "constructor"
    },
    {
      "anonymous": false,
      "inputs": [
        {
          "indexed": true,
          "internalType": "address",
          "name": "account",
          "type": "address"
        },
        {
          "indexed": true,
          "internalType": "address",
          "name": "operator",
          "type": "address"
        },
        {
          "indexed": false,
          "internalType": "bool",
          "name": "approved",
          "type": "bool"
        }
      ],
      "name": "ApprovalForAll",
      "type": "event"
    },
    {
      "anonymous": false,
      "inputs": [
        {
          "indexed": true,
          "internalType": "address",
          "name": "previousOwner",
          "type": "address"
        },
        {
          "indexed": true,
          "internalType": "address",
          "name": "newOwner",
          "type": "address"
        }
      ],
      "name": "OwnershipTransferred",
      "type": "event"
    },
    {
      "anonymous": false,
      "inputs": [
        {
          "indexed": true,
          "internalType": "address",
          "name": "operator",
          "type": "address"
        },
        {
          "indexed": true,
          "internalType": "address",
          "name": "from",
          "type": "address"
        },
        {
          "indexed": true,
          "internalType": "address",
          "name": "to",
          "type": "address"
        },
        {
          "indexed": false,
          "internalType": "uint256[]",
          "name": "ids",
          "type": "uint256[]"
        },
        {
          "indexed": false,
          "internalType": "uint256[]",
          "name": "values",
          "type": "uint256[]"
        }
      ],
      "name": "TransferBatch",
      "type": "event"
    },
    {
      "anonymous": false,
      "inputs": [
        {
          "indexed": true,
          "internalType": "address",
          "name": "operator",
          "type": "address"
        },
        {
          "indexed": true,
          "internalType": "address",
          "name": "from",
          "type": "address"
        },
        {
          "indexed": true,
          "internalType": "address",
          "name": "to",
          "type": "address"
        },
        {
          "indexed": false,
          "internalType": "uint256",
          "name": "id",
          "type": "uint256"
        },
        {
          "indexed": false,
          "internalType": "uint256",
          "name": "value",
          "type": "uint256"
        }
      ],
      "name": "TransferSingle",
      "type": "event"
    },
    {
      "anonymous": false,
      "inputs": [
        {
          "indexed": false,
          "internalType": "string",
          "name": "value",
          "type": "string"
        },
        {
          "indexed": true,
          "internalType": "uint256",
          "name": "id",
          "type": "uint256"
        }
      ],
      "name": "URI",
      "type": "event"
    },
    {
      "inputs": [],
      "name": "BONES",
      "outputs": [
        {
          "internalType": "uint256",
          "name": "",
          "type": "uint256"
        }
      ],
      "stateMutability": "view",
      "type": "function",
      "constant": true
    },
    {
      "inputs": [],
      "name": "BOOTS_OF_SWIFTNESS",
      "outputs": [
        {
          "internalType": "uint256",
          "name": "",
          "type": "uint256"
        }
      ],
      "stateMutability": "view",
      "type": "function",
      "constant": true
    },
    {
      "inputs": [],
      "name": "GOLD",
      "outputs": [
        {
          "internalType": "uint256",
          "name": "",
          "type": "uint256"
        }
      ],
      "stateMutability": "view",
      "type": "function",
      "constant": true
    },
    {
      "inputs": [],
      "name": "HEALING_POTION",
      "outputs": [
        {
          "internalType": "uint256",
          "name": "",
          "type": "uint256"
        }
      ],
      "stateMutability": "view",
      "type": "function",
      "constant": true
    },
    {
      "inputs": [],
      "name": "RING_OF_INVISIBILITY",
      "outputs": [
        {
          "internalType": "uint256",
          "name": "",
          "type": "uint256"
        }
      ],
      "stateMutability": "view",
      "type": "function",
      "constant": true
    },
    {
      "inputs": [
        {
          "internalType": "address",
          "name": "account",
          "type": "address"
        },
        {
          "internalType": "uint256",
          "name": "id",
          "type": "uint256"
        }
      ],
      "name": "balanceOf",
      "outputs": [
        {
          "internalType": "uint256",
          "name": "",
          "type": "uint256"
        }
      ],
      "stateMutability": "view",
      "type": "function",
      "constant": true
    },
    {
      "inputs": [
        {
          "internalType": "address[]",
          "name": "accounts",
          "type": "address[]"
        },
        {
          "internalType": "uint256[]",
          "name": "ids",
          "type": "uint256[]"
        }
      ],
      "name": "balanceOfBatch",
      "outputs": [
        {
          "internalType": "uint256[]",
          "name": "",
          "type": "uint256[]"
        }
      ],
      "stateMutability": "view",
      "type": "function",
      "constant": true
    },
    {
      "inputs": [],
      "name": "game",
      "outputs": [
        {
          "internalType": "address",
          "name": "",
          "type": "address"
        }
      ],
      "stateMutability": "view",
      "type": "function",
      "constant": true
    },
    {
      "inputs": [],
      "name": "owner",
      "outputs": [
        {
          "internalType": "address",
          "name": "",
          "type": "address"
        }
      ],
      "stateMutability": "view",
      "type": "function",
      "constant": true
    },
    {
      "inputs": [],
      "name": "renounceOwnership",
      "outputs": [],
      "stateMutability": "nonpayable",
      "type": "function"
    },
    {
      "inputs": [
        {
          "internalType": "address",
          "name": "from",
          "type": "address"
        },
        {
          "internalType": "address",
          "name": "to",
          "type": "address"
        },
        {
          "internalType": "uint256[]",
          "name": "ids",
          "type": "uint256[]"
        },
        {
          "internalType": "uint256[]",
          "name": "amounts",
          "type": "uint256[]"
        },
        {
          "internalType": "bytes",
          "name": "data",
          "type": "bytes"
        }
      ],
      "name": "safeBatchTransferFrom",
      "outputs": [],
      "stateMutability": "nonpayable",
      "type": "function"
    },
    {
      "inputs": [
        {
          "internalType": "address",
          "name": "from",
          "type": "address"
        },
        {
          "internalType": "address",
          "name": "to",
          "type": "address"
        },
        {
          "internalType": "uint256",
          "name": "id",
          "type": "uint256"
        },
        {
          "internalType": "uint256",
          "name": "amount",
          "type": "uint256"
        },
        {
          "internalType": "bytes",
          "name": "data",
          "type": "bytes"
        }
      ],
      "name": "safeTransferFrom",
      "outputs": [],
      "stateMutability": "nonpayable",
      "type": "function"
    },
    {
      "inputs": [
        {
          "internalType": "address",
          "name": "operator",
          "type": "address"
        },
        {
          "internalType": "bool",
          "name": "approved",
          "type": "bool"
        }
      ],
      "name": "setApprovalForAll",
      "outputs": [],
      "stateMutability": "nonpayable",
      "type": "function"
    },
    {
      "inputs": [
        {
          "internalType": "bytes4",
          "name": "interfaceId",
          "type": "bytes4"
        }
      ],
      "name": "supportsInterface",
      "outputs": [
        {
          "internalType": "bool",
          "name": "",
          "type": "bool"
        }
      ],
      "stateMutability": "view",
      "type": "function",
      "constant": true
    },
    {
      "inputs": [
        {
          "internalType": "address",
          "name": "newOwner",
          "type": "address"
        }
      ],
      "name": "transferOwnership",
      "outputs": [],
      "stateMutability": "nonpayable",
      "type": "function"
    },
    {
      "inputs": [
        {
          "internalType": "uint256",
          "name": "",
          "type": "uint256"
        }
      ],
      "name": "uri",
      "outputs": [
        {
          "internalType": "string",
          "name": "",
          "type": "string"
        }
      ],
      "stateMutability": "view",
      "type": "function",
      "constant": true
    },
    {
      "inputs": [
        {
          "internalType": "address",
          "name": "_game",
          "type": "address"
        }
      ],
      "name": "setGame",
      "outputs": [],
      "stateMutability": "nonpayable",
      "type": "function"
    },
    {
      "inputs": [],
      "name": "getGame",
      "outputs": [
        {
          "internalType": "address",
          "name": "",
          "type": "address"
        }
      ],
      "stateMutability": "view",
      "type": "function",
      "constant": true
    },
    {
      "inputs": [
        {
          "internalType": "address",
          "name": "account",
          "type": "address"
        },
        {
          "internalType": "address",
          "name": "operator",
          "type": "address"
        }
      ],
      "name": "isApprovedForAll",
      "outputs": [
        {
          "internalType": "bool",
          "name": "",
          "type": "bool"
        }
      ],
      "stateMutability": "view",
      "type": "function",
      "constant": true
    },
    {
      "inputs": [
        {
          "internalType": "address",
          "name": "account",
          "type": "address"
        },
        {
          "internalType": "uint256",
          "name": "id",
          "type": "uint256"
        },
        {
          "internalType": "uint256",
          "name": "amount",
          "type": "uint256"
        }
      ],
      "name": "mint",
      "outputs": [],
      "stateMutability": "nonpayable",
      "type": "function"
    },
    {
      "inputs": [
        {
          "internalType": "address",
          "name": "account",
          "type": "address"
        },
        {
          "internalType": "uint256",
          "name": "id",
          "type": "uint256"
        },
        {
          "internalType": "uint256",
          "name": "amount",
          "type": "uint256"
        }
      ],
      "name": "burn",
      "outputs": [],
      "stateMutability": "nonpayable",
      "type": "function"
    },
    {
      "inputs": [
        {
          "internalType": "address",
          "name": "_recipient",
          "type": "address"
        },
        {
          "internalType": "uint256[]",
          "name": "tokenIds",
          "type": "uint256[]"
        },
        {
          "internalType": "uint256[]",
          "name": "amounts",
          "type": "uint256[]"
        }
      ],
      "name": "awardAdventurer",
      "outputs": [],
      "stateMutability": "payable",
      "type": "function",
      "payable": true
    }
  ],
  "bytecode": "0x60806040523480156200001157600080fd5b506040518060600160405280602d8152602001620046d7602d91396200003d816200009060201b60201c565b506200005e62000052620000ac60201b60201c565b620000b460201b60201c565b6200008a306000670de0b6b3a7640000604051806020016040528060008152506200017a60201b60201c565b62000d5a565b8060029080519060200190620000a8929190620005d5565b5050565b600033905090565b6000600360009054906101000a900473ffffffffffffffffffffffffffffffffffffffff16905081600360006101000a81548173ffffffffffffffffffffffffffffffffffffffff021916908373ffffffffffffffffffffffffffffffffffffffff1602179055508173ffffffffffffffffffffffffffffffffffffffff168173ffffffffffffffffffffffffffffffffffffffff167f8be0079c531659141344cd1fd0a4f28419497f9722a3daafe3b4186f6b6457e060405160405180910390a35050565b600073ffffffffffffffffffffffffffffffffffffffff168473ffffffffffffffffffffffffffffffffffffffff161415620001ed576040517f08c379a0000000000000000000000000000000000000000000000000000000008152600401620001e4906200070c565b60405180910390fd5b6000620001ff620000ac60201b60201c565b905062000238816000876200021a886200033f60201b60201c565b6200022b886200033f60201b60201c565b87620003c060201b60201c565b8260008086815260200190815260200160002060008773ffffffffffffffffffffffffffffffffffffffff1673ffffffffffffffffffffffffffffffffffffffff168152602001908152602001600020600082825462000299919062000767565b925050819055508473ffffffffffffffffffffffffffffffffffffffff16600073ffffffffffffffffffffffffffffffffffffffff168273ffffffffffffffffffffffffffffffffffffffff167fc3d58168c5ae7397731d063d5bbf3d657854427343f4c083240f7aacaa2d0f62878760405162000319929190620007d5565b60405180910390a46200033881600087878787620003c860201b60201c565b5050505050565b60606000600167ffffffffffffffff81111562000361576200036062000802565b5b604051908082528060200260200182016040528015620003905781602001602082028036833780820191505090505b5090508281600081518110620003ab57620003aa62000831565b5b60200260200101818152505080915050919050565b505050505050565b620003f48473ffffffffffffffffffffffffffffffffffffffff16620005c260201b62000f291760201c565b15620005ba578373ffffffffffffffffffffffffffffffffffffffff1663f23a6e6187878686866040518663ffffffff1660e01b81526004016200043d95949392919062000949565b6020604051808303816000875af19250505080156200047c57506040513d601f19601f8201168201806040525081019062000479919062000a19565b60015b6200052e576200048b62000a58565b806308c379a01415620004ef5750620004a362000ab3565b80620004b05750620004f1565b806040517f08c379a0000000000000000000000000000000000000000000000000000000008152600401620004e6919062000ba1565b60405180910390fd5b505b6040517f08c379a0000000000000000000000000000000000000000000000000000000008152600401620005259062000c3b565b60405180910390fd5b63f23a6e6160e01b7bffffffffffffffffffffffffffffffffffffffffffffffffffffffff1916817bffffffffffffffffffffffffffffffffffffffffffffffffffffffff191614620005b8576040517f08c379a0000000000000000000000000000000000000000000000000000000008152600401620005af9062000cd3565b60405180910390fd5b505b505050505050565b600080823b905060008111915050919050565b828054620005e39062000d24565b90600052602060002090601f01602090048101928262000607576000855562000653565b82601f106200062257805160ff191683800117855562000653565b8280016001018555821562000653579182015b828111156200065257825182559160200191906001019062000635565b5b50905062000662919062000666565b5090565b5b808211156200068157600081600090555060010162000667565b5090565b600082825260208201905092915050565b7f455243313135353a206d696e7420746f20746865207a65726f2061646472657360008201527f7300000000000000000000000000000000000000000000000000000000000000602082015250565b6000620006f460218362000685565b9150620007018262000696565b604082019050919050565b600060208201905081810360008301526200072781620006e5565b9050919050565b6000819050919050565b7f4e487b7100000000000000000000000000000000000000000000000000000000600052601160045260246000fd5b600062000774826200072e565b915062000781836200072e565b9250827fffffffffffffffffffffffffffffffffffffffffffffffffffffffffffffffff03821115620007b957620007b862000738565b5b828201905092915050565b620007cf816200072e565b82525050565b6000604082019050620007ec6000830185620007c4565b620007fb6020830184620007c4565b9392505050565b7f4e487b7100000000000000000000000000000000000000000000000000000000600052604160045260246000fd5b7f4e487b7100000000000000000000000000000000000000000000000000000000600052603260045260246000fd5b600073ffffffffffffffffffffffffffffffffffffffff82169050919050565b60006200088d8262000860565b9050919050565b6200089f8162000880565b82525050565b600081519050919050565b600082825260208201905092915050565b60005b83811015620008e1578082015181840152602081019050620008c4565b83811115620008f1576000848401525b50505050565b6000601f19601f8301169050919050565b60006200091582620008a5565b620009218185620008b0565b935062000933818560208601620008c1565b6200093e81620008f7565b840191505092915050565b600060a08201905062000960600083018862000894565b6200096f602083018762000894565b6200097e6040830186620007c4565b6200098d6060830185620007c4565b8181036080830152620009a1818462000908565b90509695505050505050565b6000604051905090565b600080fd5b60007fffffffff0000000000000000000000000000000000000000000000000000000082169050919050565b620009f381620009bc565b8114620009ff57600080fd5b50565b60008151905062000a1381620009e8565b92915050565b60006020828403121562000a325762000a31620009b7565b5b600062000a428482850162000a02565b91505092915050565b60008160e01c9050919050565b600060033d111562000a7a5760046000803e62000a7760005162000a4b565b90505b90565b62000a8882620008f7565b810181811067ffffffffffffffff8211171562000aaa5762000aa962000802565b5b80604052505050565b600060443d101562000ac55762000b52565b62000acf620009ad565b60043d036004823e80513d602482011167ffffffffffffffff8211171562000af957505062000b52565b808201805167ffffffffffffffff81111562000b19575050505062000b52565b80602083010160043d03850181111562000b3857505050505062000b52565b62000b498260200185018662000a7d565b82955050505050505b90565b600081519050919050565b600062000b6d8262000b55565b62000b79818562000685565b935062000b8b818560208601620008c1565b62000b9681620008f7565b840191505092915050565b6000602082019050818103600083015262000bbd818462000b60565b905092915050565b7f455243313135353a207472616e7366657220746f206e6f6e204552433131353560008201527f526563656976657220696d706c656d656e746572000000000000000000000000602082015250565b600062000c2360348362000685565b915062000c308262000bc5565b604082019050919050565b6000602082019050818103600083015262000c568162000c14565b9050919050565b7f455243313135353a204552433131353552656365697665722072656a6563746560008201527f6420746f6b656e73000000000000000000000000000000000000000000000000602082015250565b600062000cbb60288362000685565b915062000cc88262000c5d565b604082019050919050565b6000602082019050818103600083015262000cee8162000cac565b9050919050565b7f4e487b7100000000000000000000000000000000000000000000000000000000600052602260045260246000fd5b6000600282049050600182168062000d3d57607f821691505b6020821081141562000d545762000d5362000cf5565b5b50919050565b61396d8062000d6a6000396000f3fe6080604052600436106101345760003560e01c8063715018a6116100ab578063c3fe3e281161006f578063c3fe3e2814610406578063d687133514610431578063e985e9c51461045c578063f242432a14610499578063f2fde38b146104c2578063f5298aca146104eb57610134565b8063715018a614610356578063819912a21461036d5780638da5cb5b14610396578063a22cb465146103c1578063a46abae7146103ea57610134565b806326591e79116100fd57806326591e79146102445780632eb2c2d61461026f5780633e4bee38146102985780634494fd9f146102c35780634e1273f4146102ee57806357b1a8391461032b57610134565b8062fdd58e1461013957806301ffc9a7146101765780630e89341c146101b3578063156e29f6146101f05780632166389314610219575b600080fd5b34801561014557600080fd5b50610160600480360381019061015b91906122b6565b610514565b60405161016d9190612305565b60405180910390f35b34801561018257600080fd5b5061019d60048036038101906101989190612378565b6105dd565b6040516101aa91906123c0565b60405180910390f35b3480156101bf57600080fd5b506101da60048036038101906101d591906123db565b6106bf565b6040516101e791906124a1565b60405180910390f35b3480156101fc57600080fd5b50610217600480360381019061021291906124c3565b610753565b005b34801561022557600080fd5b5061022e6107ef565b60405161023b9190612305565b60405180910390f35b34801561025057600080fd5b506102596107f4565b6040516102669190612305565b60405180910390f35b34801561027b57600080fd5b5061029660048036038101906102919190612713565b6107f9565b005b3480156102a457600080fd5b506102ad61089a565b6040516102ba9190612305565b60405180910390f35b3480156102cf57600080fd5b506102d861089f565b6040516102e591906127f1565b60405180910390f35b3480156102fa57600080fd5b50610315600480360381019061031091906128cf565b6108c9565b6040516103229190612a05565b60405180910390f35b34801561033757600080fd5b506103406109e2565b60405161034d9190612305565b60405180910390f35b34801561036257600080fd5b5061036b6109e7565b005b34801561037957600080fd5b50610394600480360381019061038f9190612a27565b610a6f565b005b3480156103a257600080fd5b506103ab610b2f565b6040516103b891906127f1565b60405180910390f35b3480156103cd57600080fd5b506103e860048036038101906103e39190612a80565b610b59565b005b61040460048036038101906103ff9190612b1b565b610b6f565b005b34801561041257600080fd5b5061041b610caa565b60405161042891906127f1565b60405180910390f35b34801561043d57600080fd5b50610446610cd0565b6040516104539190612305565b60405180910390f35b34801561046857600080fd5b50610483600480360381019061047e9190612bb0565b610cd5565b60405161049091906123c0565b60405180910390f35b3480156104a557600080fd5b506104c060048036038101906104bb9190612bf0565b610d48565b005b3480156104ce57600080fd5b506104e960048036038101906104e49190612a27565b610de9565b005b3480156104f757600080fd5b50610512600480360381019061050d91906124c3565b610ee1565b005b60008073ffffffffffffffffffffffffffffffffffffffff168373ffffffffffffffffffffffffffffffffffffffff161415610585576040517f08c379a000000000000000000000000000000000000000000000000000000000815260040161057c90612cf9565b60405180910390fd5b60008083815260200190815260200160002060008473ffffffffffffffffffffffffffffffffffffffff1673ffffffffffffffffffffffffffffffffffffffff16815260200190815260200160002054905092915050565b60007fd9b67a26000000000000000000000000000000000000000000000000000000007bffffffffffffffffffffffffffffffffffffffffffffffffffffffff1916827bffffffffffffffffffffffffffffffffffffffffffffffffffffffff191614806106a857507f0e89341c000000000000000000000000000000000000000000000000000000007bffffffffffffffffffffffffffffffffffffffffffffffffffffffff1916827bffffffffffffffffffffffffffffffffffffffffffffffffffffffff1916145b806106b857506106b782610f3c565b5b9050919050565b6060600280546106ce90612d48565b80601f01602080910402602001604051908101604052809291908181526020018280546106fa90612d48565b80156107475780601f1061071c57610100808354040283529160200191610747565b820191906000526020600020905b81548152906001019060200180831161072a57829003601f168201915b50505050509050919050565b61075b610fa6565b73ffffffffffffffffffffffffffffffffffffffff16610779610b2f565b73ffffffffffffffffffffffffffffffffffffffff16146107cf576040517f08c379a00000000000000000000000000000000000000000000000000000000081526004016107c690612dc6565b60405180910390fd5b6107ea83838360405180602001604052806000815250610fae565b505050565b600281565b600181565b610801610fa6565b73ffffffffffffffffffffffffffffffffffffffff168573ffffffffffffffffffffffffffffffffffffffff161480610847575061084685610841610fa6565b610cd5565b5b610886576040517f08c379a000000000000000000000000000000000000000000000000000000000815260040161087d90612e58565b60405180910390fd5b6108938585858585611144565b5050505050565b600081565b6000600460009054906101000a900473ffffffffffffffffffffffffffffffffffffffff16905090565b6060815183511461090f576040517f08c379a000000000000000000000000000000000000000000000000000000000815260040161090690612eea565b60405180910390fd5b6000835167ffffffffffffffff81111561092c5761092b61251b565b5b60405190808252806020026020018201604052801561095a5781602001602082028036833780820191505090505b50905060005b84518110156109d7576109a785828151811061097f5761097e612f0a565b5b602002602001015185838151811061099a57610999612f0a565b5b6020026020010151610514565b8282815181106109ba576109b9612f0a565b5b602002602001018181525050806109d090612f68565b9050610960565b508091505092915050565b600481565b6109ef610fa6565b73ffffffffffffffffffffffffffffffffffffffff16610a0d610b2f565b73ffffffffffffffffffffffffffffffffffffffff1614610a63576040517f08c379a0000000000000000000000000000000000000000000000000000000008152600401610a5a90612dc6565b60405180910390fd5b610a6d6000611458565b565b610a77610fa6565b73ffffffffffffffffffffffffffffffffffffffff16610a95610b2f565b73ffffffffffffffffffffffffffffffffffffffff1614610aeb576040517f08c379a0000000000000000000000000000000000000000000000000000000008152600401610ae290612dc6565b60405180910390fd5b80600460006101000a81548173ffffffffffffffffffffffffffffffffffffffff021916908373ffffffffffffffffffffffffffffffffffffffff16021790555050565b6000600360009054906101000a900473ffffffffffffffffffffffffffffffffffffffff16905090565b610b6b610b64610fa6565b838361151e565b5050565b600460009054906101000a900473ffffffffffffffffffffffffffffffffffffffff1673ffffffffffffffffffffffffffffffffffffffff16610bb0610fa6565b73ffffffffffffffffffffffffffffffffffffffff1614610c06576040517f08c379a0000000000000000000000000000000000000000000000000000000008152600401610bfd90612ffd565b60405180910390fd5b610ca385858580806020026020016040519081016040528093929190818152602001838360200280828437600081840152601f19601f82011690508083019250505050505050848480806020026020016040519081016040528093929190818152602001838360200280828437600081840152601f19601f820116905080830192505050505050506040518060200160405280600081525061168b565b5050505050565b600460009054906101000a900473ffffffffffffffffffffffffffffffffffffffff1681565b600381565b6000600460009054906101000a900473ffffffffffffffffffffffffffffffffffffffff1673ffffffffffffffffffffffffffffffffffffffff16610d18610fa6565b73ffffffffffffffffffffffffffffffffffffffff161480610d405750610d3f83836118a9565b5b905092915050565b610d50610fa6565b73ffffffffffffffffffffffffffffffffffffffff168573ffffffffffffffffffffffffffffffffffffffff161480610d965750610d9585610d90610fa6565b610cd5565b5b610dd5576040517f08c379a0000000000000000000000000000000000000000000000000000000008152600401610dcc9061308f565b60405180910390fd5b610de2858585858561193d565b5050505050565b610df1610fa6565b73ffffffffffffffffffffffffffffffffffffffff16610e0f610b2f565b73ffffffffffffffffffffffffffffffffffffffff1614610e65576040517f08c379a0000000000000000000000000000000000000000000000000000000008152600401610e5c90612dc6565b60405180910390fd5b600073ffffffffffffffffffffffffffffffffffffffff168173ffffffffffffffffffffffffffffffffffffffff161415610ed5576040517f08c379a0000000000000000000000000000000000000000000000000000000008152600401610ecc90613121565b60405180910390fd5b610ede81611458565b50565b8273ffffffffffffffffffffffffffffffffffffffff163373ffffffffffffffffffffffffffffffffffffffff1614610f1957600080fd5b610f24838383611bbf565b505050565b600080823b905060008111915050919050565b60007f01ffc9a7000000000000000000000000000000000000000000000000000000007bffffffffffffffffffffffffffffffffffffffffffffffffffffffff1916827bffffffffffffffffffffffffffffffffffffffffffffffffffffffff1916149050919050565b600033905090565b600073ffffffffffffffffffffffffffffffffffffffff168473ffffffffffffffffffffffffffffffffffffffff16141561101e576040517f08c379a0000000000000000000000000000000000000000000000000000000008152600401611015906131b3565b60405180910390fd5b6000611028610fa6565b90506110498160008761103a88611ddc565b61104388611ddc565b87611e56565b8260008086815260200190815260200160002060008773ffffffffffffffffffffffffffffffffffffffff1673ffffffffffffffffffffffffffffffffffffffff16815260200190815260200160002060008282546110a891906131d3565b925050819055508473ffffffffffffffffffffffffffffffffffffffff16600073ffffffffffffffffffffffffffffffffffffffff168273ffffffffffffffffffffffffffffffffffffffff167fc3d58168c5ae7397731d063d5bbf3d657854427343f4c083240f7aacaa2d0f628787604051611126929190613229565b60405180910390a461113d81600087878787611e5e565b5050505050565b8151835114611188576040517f08c379a000000000000000000000000000000000000000000000000000000000815260040161117f906132c4565b60405180910390fd5b600073ffffffffffffffffffffffffffffffffffffffff168473ffffffffffffffffffffffffffffffffffffffff1614156111f8576040517f08c379a00000000000000000000000000000000000000000000000000000000081526004016111ef90613356565b60405180910390fd5b6000611202610fa6565b9050611212818787878787611e56565b60005b84518110156113c357600085828151811061123357611232612f0a565b5b60200260200101519050600085838151811061125257611251612f0a565b5b60200260200101519050600080600084815260200190815260200160002060008b73ffffffffffffffffffffffffffffffffffffffff1673ffffffffffffffffffffffffffffffffffffffff168152602001908152602001600020549050818110156112f3576040517f08c379a00000000000000000000000000000000000000000000000000000000081526004016112ea906133e8565b60405180910390fd5b81810360008085815260200190815260200160002060008c73ffffffffffffffffffffffffffffffffffffffff1673ffffffffffffffffffffffffffffffffffffffff168152602001908152602001600020819055508160008085815260200190815260200160002060008b73ffffffffffffffffffffffffffffffffffffffff1673ffffffffffffffffffffffffffffffffffffffff16815260200190815260200160002060008282546113a891906131d3565b92505081905550505050806113bc90612f68565b9050611215565b508473ffffffffffffffffffffffffffffffffffffffff168673ffffffffffffffffffffffffffffffffffffffff168273ffffffffffffffffffffffffffffffffffffffff167f4a39dc06d4c0dbc64b70af90fd698a233a518aa5d07e595d983b8c0526c8f7fb878760405161143a929190613408565b60405180910390a4611450818787878787612036565b505050505050565b6000600360009054906101000a900473ffffffffffffffffffffffffffffffffffffffff16905081600360006101000a81548173ffffffffffffffffffffffffffffffffffffffff021916908373ffffffffffffffffffffffffffffffffffffffff1602179055508173ffffffffffffffffffffffffffffffffffffffff168173ffffffffffffffffffffffffffffffffffffffff167f8be0079c531659141344cd1fd0a4f28419497f9722a3daafe3b4186f6b6457e060405160405180910390a35050565b8173ffffffffffffffffffffffffffffffffffffffff168373ffffffffffffffffffffffffffffffffffffffff16141561158d576040517f08c379a0000000000000000000000000000000000000000000000000000000008152600401611584906134b1565b60405180910390fd5b80600160008573ffffffffffffffffffffffffffffffffffffffff1673ffffffffffffffffffffffffffffffffffffffff16815260200190815260200160002060008473ffffffffffffffffffffffffffffffffffffffff1673ffffffffffffffffffffffffffffffffffffffff16815260200190815260200160002060006101000a81548160ff0219169083151502179055508173ffffffffffffffffffffffffffffffffffffffff168373ffffffffffffffffffffffffffffffffffffffff167f17307eab39ab6107e8899845ad3d59bd9653f200f220920489ca2b5937696c318360405161167e91906123c0565b60405180910390a3505050565b600073ffffffffffffffffffffffffffffffffffffffff168473ffffffffffffffffffffffffffffffffffffffff1614156116fb576040517f08c379a00000000000000000000000000000000000000000000000000000000081526004016116f2906131b3565b60405180910390fd5b815183511461173f576040517f08c379a0000000000000000000000000000000000000000000000000000000008152600401611736906132c4565b60405180910390fd5b6000611749610fa6565b905061175a81600087878787611e56565b60005b84518110156118135783818151811061177957611778612f0a565b5b602002602001015160008087848151811061179757611796612f0a565b5b6020026020010151815260200190815260200160002060008873ffffffffffffffffffffffffffffffffffffffff1673ffffffffffffffffffffffffffffffffffffffff16815260200190815260200160002060008282546117f991906131d3565b92505081905550808061180b90612f68565b91505061175d565b508473ffffffffffffffffffffffffffffffffffffffff16600073ffffffffffffffffffffffffffffffffffffffff168273ffffffffffffffffffffffffffffffffffffffff167f4a39dc06d4c0dbc64b70af90fd698a233a518aa5d07e595d983b8c0526c8f7fb878760405161188b929190613408565b60405180910390a46118a281600087878787612036565b5050505050565b6000600160008473ffffffffffffffffffffffffffffffffffffffff1673ffffffffffffffffffffffffffffffffffffffff16815260200190815260200160002060008373ffffffffffffffffffffffffffffffffffffffff1673ffffffffffffffffffffffffffffffffffffffff16815260200190815260200160002060009054906101000a900460ff16905092915050565b600073ffffffffffffffffffffffffffffffffffffffff168473ffffffffffffffffffffffffffffffffffffffff1614156119ad576040517f08c379a00000000000000000000000000000000000000000000000000000000081526004016119a490613356565b60405180910390fd5b60006119b7610fa6565b90506119d78187876119c888611ddc565b6119d188611ddc565b87611e56565b600080600086815260200190815260200160002060008873ffffffffffffffffffffffffffffffffffffffff1673ffffffffffffffffffffffffffffffffffffffff16815260200190815260200160002054905083811015611a6e576040517f08c379a0000000000000000000000000000000000000000000000000000000008152600401611a65906133e8565b60405180910390fd5b83810360008087815260200190815260200160002060008973ffffffffffffffffffffffffffffffffffffffff1673ffffffffffffffffffffffffffffffffffffffff168152602001908152602001600020819055508360008087815260200190815260200160002060008873ffffffffffffffffffffffffffffffffffffffff1673ffffffffffffffffffffffffffffffffffffffff1681526020019081526020016000206000828254611b2391906131d3565b925050819055508573ffffffffffffffffffffffffffffffffffffffff168773ffffffffffffffffffffffffffffffffffffffff168373ffffffffffffffffffffffffffffffffffffffff167fc3d58168c5ae7397731d063d5bbf3d657854427343f4c083240f7aacaa2d0f628888604051611ba0929190613229565b60405180910390a4611bb6828888888888611e5e565b50505050505050565b600073ffffffffffffffffffffffffffffffffffffffff168373ffffffffffffffffffffffffffffffffffffffff161415611c2f576040517f08c379a0000000000000000000000000000000000000000000000000000000008152600401611c2690613543565b60405180910390fd5b6000611c39610fa6565b9050611c6981856000611c4b87611ddc565b611c5487611ddc565b60405180602001604052806000815250611e56565b600080600085815260200190815260200160002060008673ffffffffffffffffffffffffffffffffffffffff1673ffffffffffffffffffffffffffffffffffffffff16815260200190815260200160002054905082811015611d00576040517f08c379a0000000000000000000000000000000000000000000000000000000008152600401611cf7906135d5565b60405180910390fd5b82810360008086815260200190815260200160002060008773ffffffffffffffffffffffffffffffffffffffff1673ffffffffffffffffffffffffffffffffffffffff16815260200190815260200160002081905550600073ffffffffffffffffffffffffffffffffffffffff168573ffffffffffffffffffffffffffffffffffffffff168373ffffffffffffffffffffffffffffffffffffffff167fc3d58168c5ae7397731d063d5bbf3d657854427343f4c083240f7aacaa2d0f628787604051611dcd929190613229565b60405180910390a45050505050565b60606000600167ffffffffffffffff811115611dfb57611dfa61251b565b5b604051908082528060200260200182016040528015611e295781602001602082028036833780820191505090505b5090508281600081518110611e4157611e40612f0a565b5b60200260200101818152505080915050919050565b505050505050565b611e7d8473ffffffffffffffffffffffffffffffffffffffff16610f29565b1561202e578373ffffffffffffffffffffffffffffffffffffffff1663f23a6e6187878686866040518663ffffffff1660e01b8152600401611ec395949392919061364a565b6020604051808303816000875af1925050508015611eff57506040513d601f19601f82011682018060405250810190611efc91906136b9565b60015b611fa557611f0b6136f3565b806308c379a01415611f685750611f20613715565b80611f2b5750611f6a565b806040517f08c379a0000000000000000000000000000000000000000000000000000000008152600401611f5f91906124a1565b60405180910390fd5b505b6040517f08c379a0000000000000000000000000000000000000000000000000000000008152600401611f9c9061381d565b60405180910390fd5b63f23a6e6160e01b7bffffffffffffffffffffffffffffffffffffffffffffffffffffffff1916817bffffffffffffffffffffffffffffffffffffffffffffffffffffffff19161461202c576040517f08c379a0000000000000000000000000000000000000000000000000000000008152600401612023906138af565b60405180910390fd5b505b505050505050565b6120558473ffffffffffffffffffffffffffffffffffffffff16610f29565b15612206578373ffffffffffffffffffffffffffffffffffffffff1663bc197c8187878686866040518663ffffffff1660e01b815260040161209b9594939291906138cf565b6020604051808303816000875af19250505080156120d757506040513d601f19601f820116820180604052508101906120d491906136b9565b60015b61217d576120e36136f3565b806308c379a0141561214057506120f8613715565b806121035750612142565b806040517f08c379a000000000000000000000000000000000000000000000000000000000815260040161213791906124a1565b60405180910390fd5b505b6040517f08c379a00000000000000000000000000000000000000000000000000000000081526004016121749061381d565b60405180910390fd5b63bc197c8160e01b7bffffffffffffffffffffffffffffffffffffffffffffffffffffffff1916817bffffffffffffffffffffffffffffffffffffffffffffffffffffffff191614612204576040517f08c379a00000000000000000000000000000000000000000000000000000000081526004016121fb906138af565b60405180910390fd5b505b505050505050565b6000604051905090565b600080fd5b600080fd5b600073ffffffffffffffffffffffffffffffffffffffff82169050919050565b600061224d82612222565b9050919050565b61225d81612242565b811461226857600080fd5b50565b60008135905061227a81612254565b92915050565b6000819050919050565b61229381612280565b811461229e57600080fd5b50565b6000813590506122b08161228a565b92915050565b600080604083850312156122cd576122cc612218565b5b60006122db8582860161226b565b92505060206122ec858286016122a1565b9150509250929050565b6122ff81612280565b82525050565b600060208201905061231a60008301846122f6565b92915050565b60007fffffffff0000000000000000000000000000000000000000000000000000000082169050919050565b61235581612320565b811461236057600080fd5b50565b6000813590506123728161234c565b92915050565b60006020828403121561238e5761238d612218565b5b600061239c84828501612363565b91505092915050565b60008115159050919050565b6123ba816123a5565b82525050565b60006020820190506123d560008301846123b1565b92915050565b6000602082840312156123f1576123f0612218565b5b60006123ff848285016122a1565b91505092915050565b600081519050919050565b600082825260208201905092915050565b60005b83811015612442578082015181840152602081019050612427565b83811115612451576000848401525b50505050565b6000601f19601f8301169050919050565b600061247382612408565b61247d8185612413565b935061248d818560208601612424565b61249681612457565b840191505092915050565b600060208201905081810360008301526124bb8184612468565b905092915050565b6000806000606084860312156124dc576124db612218565b5b60006124ea8682870161226b565b93505060206124fb868287016122a1565b925050604061250c868287016122a1565b9150509250925092565b600080fd5b7f4e487b7100000000000000000000000000000000000000000000000000000000600052604160045260246000fd5b61255382612457565b810181811067ffffffffffffffff821117156125725761257161251b565b5b80604052505050565b600061258561220e565b9050612591828261254a565b919050565b600067ffffffffffffffff8211156125b1576125b061251b565b5b602082029050602081019050919050565b600080fd5b60006125da6125d584612596565b61257b565b905080838252602082019050602084028301858111156125fd576125fc6125c2565b5b835b81811015612626578061261288826122a1565b8452602084019350506020810190506125ff565b5050509392505050565b600082601f83011261264557612644612516565b5b81356126558482602086016125c7565b91505092915050565b600080fd5b600067ffffffffffffffff82111561267e5761267d61251b565b5b61268782612457565b9050602081019050919050565b82818337600083830152505050565b60006126b66126b184612663565b61257b565b9050828152602081018484840111156126d2576126d161265e565b5b6126dd848285612694565b509392505050565b600082601f8301126126fa576126f9612516565b5b813561270a8482602086016126a3565b91505092915050565b600080600080600060a0868803121561272f5761272e612218565b5b600061273d8882890161226b565b955050602061274e8882890161226b565b945050604086013567ffffffffffffffff81111561276f5761276e61221d565b5b61277b88828901612630565b935050606086013567ffffffffffffffff81111561279c5761279b61221d565b5b6127a888828901612630565b925050608086013567ffffffffffffffff8111156127c9576127c861221d565b5b6127d5888289016126e5565b9150509295509295909350565b6127eb81612242565b82525050565b600060208201905061280660008301846127e2565b92915050565b600067ffffffffffffffff8211156128275761282661251b565b5b602082029050602081019050919050565b600061284b6128468461280c565b61257b565b9050808382526020820190506020840283018581111561286e5761286d6125c2565b5b835b818110156128975780612883888261226b565b845260208401935050602081019050612870565b5050509392505050565b600082601f8301126128b6576128b5612516565b5b81356128c6848260208601612838565b91505092915050565b600080604083850312156128e6576128e5612218565b5b600083013567ffffffffffffffff8111156129045761290361221d565b5b612910858286016128a1565b925050602083013567ffffffffffffffff8111156129315761293061221d565b5b61293d85828601612630565b9150509250929050565b600081519050919050565b600082825260208201905092915050565b6000819050602082019050919050565b61297c81612280565b82525050565b600061298e8383612973565b60208301905092915050565b6000602082019050919050565b60006129b282612947565b6129bc8185612952565b93506129c783612963565b8060005b838110156129f85781516129df8882612982565b97506129ea8361299a565b9250506001810190506129cb565b5085935050505092915050565b60006020820190508181036000830152612a1f81846129a7565b905092915050565b600060208284031215612a3d57612a3c612218565b5b6000612a4b8482850161226b565b91505092915050565b612a5d816123a5565b8114612a6857600080fd5b50565b600081359050612a7a81612a54565b92915050565b60008060408385031215612a9757612a96612218565b5b6000612aa58582860161226b565b9250506020612ab685828601612a6b565b9150509250929050565b600080fd5b60008083601f840112612adb57612ada612516565b5b8235905067ffffffffffffffff811115612af857612af7612ac0565b5b602083019150836020820283011115612b1457612b136125c2565b5b9250929050565b600080600080600060608688031215612b3757612b36612218565b5b6000612b458882890161226b565b955050602086013567ffffffffffffffff811115612b6657612b6561221d565b5b612b7288828901612ac5565b9450945050604086013567ffffffffffffffff811115612b9557612b9461221d565b5b612ba188828901612ac5565b92509250509295509295909350565b60008060408385031215612bc757612bc6612218565b5b6000612bd58582860161226b565b9250506020612be68582860161226b565b9150509250929050565b600080600080600060a08688031215612c0c57612c0b612218565b5b6000612c1a8882890161226b565b9550506020612c2b8882890161226b565b9450506040612c3c888289016122a1565b9350506060612c4d888289016122a1565b925050608086013567ffffffffffffffff811115612c6e57612c6d61221d565b5b612c7a888289016126e5565b9150509295509295909350565b7f455243313135353a2062616c616e636520717565727920666f7220746865207a60008201527f65726f2061646472657373000000000000000000000000000000000000000000602082015250565b6000612ce3602b83612413565b9150612cee82612c87565b604082019050919050565b60006020820190508181036000830152612d1281612cd6565b9050919050565b7f4e487b7100000000000000000000000000000000000000000000000000000000600052602260045260246000fd5b60006002820490506001821680612d6057607f821691505b60208210811415612d7457612d73612d19565b5b50919050565b7f4f776e61626c653a2063616c6c6572206973206e6f7420746865206f776e6572600082015250565b6000612db0602083612413565b9150612dbb82612d7a565b602082019050919050565b60006020820190508181036000830152612ddf81612da3565b9050919050565b7f455243313135353a207472616e736665722063616c6c6572206973206e6f742060008201527f6f776e6572206e6f7220617070726f7665640000000000000000000000000000602082015250565b6000612e42603283612413565b9150612e4d82612de6565b604082019050919050565b60006020820190508181036000830152612e7181612e35565b9050919050565b7f455243313135353a206163636f756e747320616e6420696473206c656e67746860008201527f206d69736d617463680000000000000000000000000000000000000000000000602082015250565b6000612ed4602983612413565b9150612edf82612e78565b604082019050919050565b60006020820190508181036000830152612f0381612ec7565b9050919050565b7f4e487b7100000000000000000000000000000000000000000000000000000000600052603260045260246000fd5b7f4e487b7100000000000000000000000000000000000000000000000000000000600052601160045260246000fd5b6000612f7382612280565b91507fffffffffffffffffffffffffffffffffffffffffffffffffffffffffffffffff821415612fa657612fa5612f39565b5b600182019050919050565b7f43616c6c6572206973206e6f74207468652067616d6500000000000000000000600082015250565b6000612fe7601683612413565b9150612ff282612fb1565b602082019050919050565b6000602082019050818103600083015261301681612fda565b9050919050565b7f455243313135353a2063616c6c6572206973206e6f74206f776e6572206e6f7260008201527f20617070726f7665640000000000000000000000000000000000000000000000602082015250565b6000613079602983612413565b91506130848261301d565b604082019050919050565b600060208201905081810360008301526130a88161306c565b9050919050565b7f4f776e61626c653a206e6577206f776e657220697320746865207a65726f206160008201527f6464726573730000000000000000000000000000000000000000000000000000602082015250565b600061310b602683612413565b9150613116826130af565b604082019050919050565b6000602082019050818103600083015261313a816130fe565b9050919050565b7f455243313135353a206d696e7420746f20746865207a65726f2061646472657360008201527f7300000000000000000000000000000000000000000000000000000000000000602082015250565b600061319d602183612413565b91506131a882613141565b604082019050919050565b600060208201905081810360008301526131cc81613190565b9050919050565b60006131de82612280565b91506131e983612280565b9250827fffffffffffffffffffffffffffffffffffffffffffffffffffffffffffffffff0382111561321e5761321d612f39565b5b828201905092915050565b600060408201905061323e60008301856122f6565b61324b60208301846122f6565b9392505050565b7f455243313135353a2069647320616e6420616d6f756e7473206c656e6774682060008201527f6d69736d61746368000000000000000000000000000000000000000000000000602082015250565b60006132ae602883612413565b91506132b982613252565b604082019050919050565b600060208201905081810360008301526132dd816132a1565b9050919050565b7f455243313135353a207472616e7366657220746f20746865207a65726f20616460008201527f6472657373000000000000000000000000000000000000000000000000000000602082015250565b6000613340602583612413565b915061334b826132e4565b604082019050919050565b6000602082019050818103600083015261336f81613333565b9050919050565b7f455243313135353a20696e73756666696369656e742062616c616e636520666f60008201527f72207472616e7366657200000000000000000000000000000000000000000000602082015250565b60006133d2602a83612413565b91506133dd82613376565b604082019050919050565b60006020820190508181036000830152613401816133c5565b9050919050565b6000604082019050818103600083015261342281856129a7565b9050818103602083015261343681846129a7565b90509392505050565b7f455243313135353a2073657474696e6720617070726f76616c2073746174757360008201527f20666f722073656c660000000000000000000000000000000000000000000000602082015250565b600061349b602983612413565b91506134a68261343f565b604082019050919050565b600060208201905081810360008301526134ca8161348e565b9050919050565b7f455243313135353a206275726e2066726f6d20746865207a65726f206164647260008201527f6573730000000000000000000000000000000000000000000000000000000000602082015250565b600061352d602383612413565b9150613538826134d1565b604082019050919050565b6000602082019050818103600083015261355c81613520565b9050919050565b7f455243313135353a206275726e20616d6f756e7420657863656564732062616c60008201527f616e636500000000000000000000000000000000000000000000000000000000602082015250565b60006135bf602483612413565b91506135ca82613563565b604082019050919050565b600060208201905081810360008301526135ee816135b2565b9050919050565b600081519050919050565b600082825260208201905092915050565b600061361c826135f5565b6136268185613600565b9350613636818560208601612424565b61363f81612457565b840191505092915050565b600060a08201905061365f60008301886127e2565b61366c60208301876127e2565b61367960408301866122f6565b61368660608301856122f6565b81810360808301526136988184613611565b90509695505050505050565b6000815190506136b38161234c565b92915050565b6000602082840312156136cf576136ce612218565b5b60006136dd848285016136a4565b91505092915050565b60008160e01c9050919050565b600060033d11156137125760046000803e61370f6000516136e6565b90505b90565b600060443d1015613725576137a8565b61372d61220e565b60043d036004823e80513d602482011167ffffffffffffffff821117156137555750506137a8565b808201805167ffffffffffffffff81111561377357505050506137a8565b80602083010160043d0385018111156137905750505050506137a8565b61379f8260200185018661254a565b82955050505050505b90565b7f455243313135353a207472616e7366657220746f206e6f6e204552433131353560008201527f526563656976657220696d706c656d656e746572000000000000000000000000602082015250565b6000613807603483612413565b9150613812826137ab565b604082019050919050565b60006020820190508181036000830152613836816137fa565b9050919050565b7f455243313135353a204552433131353552656365697665722072656a6563746560008201527f6420746f6b656e73000000000000000000000000000000000000000000000000602082015250565b6000613899602883612413565b91506138a48261383d565b604082019050919050565b600060208201905081810360008301526138c88161388c565b9050919050565b600060a0820190506138e460008301886127e2565b6138f160208301876127e2565b818103604083015261390381866129a7565b9050818103606083015261391781856129a7565b9050818103608083015261392b8184613611565b9050969550505050505056fea264697066735822122099de2a1eb5a35d7490f55af5edb22ae98de3f3b5e3efe590129a12586ab9820b64736f6c634300080a0033687474703a2f2f6c6f63616c686f73743a383038302f6170692f6974656d2f6a736f6e2f7b69647d2e6a736f6e",
  "immutableReferences": {},
  "source": "// SPDX-License-Identifier: MIT\r\npragma solidity ^0.8.7;\r\n\r\nimport \"./IotaHeroFactory.sol\";\r\nimport \"@openzeppelin/contracts/token/ERC1155/ERC1155.sol\";\r\nimport \"@openzeppelin/contracts/access/Ownable.sol\";\r\n\r\ncontract IotaHeroGameTokens is ERC1155, Ownable {\r\n    address public game;\r\n\r\n    uint256 public constant GOLD = 0;\r\n    uint256 public constant BONES = 1;\r\n    uint256 public constant HEALING_POTION = 2;\r\n    uint256 public constant RING_OF_INVISIBILITY = 3;\r\n    uint256 public constant BOOTS_OF_SWIFTNESS = 4;\r\n\r\n    constructor() ERC1155(\"http://localhost:8080/api/item/json/{id}.json\") {\r\n        _mint(address(this), GOLD, 10**18, \"\");\r\n        // _mint(address(this), BONES, 10**27, \"\");\r\n        // _mint(address(this), RING_OF_INVISIBILITY, 1, \"\");\r\n        // _mint(address(this), HEALING_POTION, 10**9, \"\");\r\n        // _mint(address(this), BOOTS_OF_SWIFTNESS, 10**5, \"\");\r\n    }\r\n\r\n    function setGame(address _game) public onlyOwner {\r\n        game = _game;\r\n    }\r\n\r\n    function getGame() public view returns (address) {\r\n        return game;\r\n    }\r\n\r\n    modifier onlyGame() {\r\n        require(_msgSender() == game, \"Caller is not the game\");\r\n        _;\r\n    }\r\n\r\n    // Game is always approved to transfer tokens\r\n    function isApprovedForAll(address account, address operator)\r\n        public\r\n        view\r\n        virtual\r\n        override\r\n        returns (bool)\r\n    {\r\n        return\r\n            _msgSender() == game || super.isApprovedForAll(account, operator);\r\n    }\r\n\r\n    function mint(\r\n        address account,\r\n        uint256 id,\r\n        uint256 amount\r\n    ) public onlyOwner {\r\n        _mint(account, id, amount, \"\");\r\n    }\r\n\r\n    function burn(\r\n        address account,\r\n        uint256 id,\r\n        uint256 amount\r\n    ) public {\r\n        require(msg.sender == account);\r\n        _burn(account, id, amount);\r\n    }\r\n\r\n    function awardAdventurer(\r\n        address _recipient,\r\n        uint256[] calldata tokenIds,\r\n        uint256[] calldata amounts\r\n    ) public payable onlyGame {\r\n        _mintBatch(_recipient, tokenIds, amounts, \"\");\r\n    }\r\n}\r\n",
  "sourcePath": "C:\\Users\\creld\\source\\repos\\IotaHeroesAzure\\smartcontracts\\contracts\\IotaHeroGameTokens.sol",
  "compiler": {
    "name": "solc",
    "version": "0.8.10+commit.fc410830.Emscripten.clang"
  },
  "schemaVersion": "3.4.4",
  "updatedAt": "2022-02-05T19:57:55.208Z",
  "networkType": "ethereum",
  "devdoc": {
    "kind": "dev",
    "methods": {
      "balanceOf(address,uint256)": {
        "details": "See {IERC1155-balanceOf}. Requirements: - `account` cannot be the zero address."
      },
      "balanceOfBatch(address[],uint256[])": {
        "details": "See {IERC1155-balanceOfBatch}. Requirements: - `accounts` and `ids` must have the same length."
      },
      "isApprovedForAll(address,address)": {
        "details": "See {IERC1155-isApprovedForAll}."
      },
      "owner()": {
        "details": "Returns the address of the current owner."
      },
      "renounceOwnership()": {
        "details": "Leaves the contract without owner. It will not be possible to call `onlyOwner` functions anymore. Can only be called by the current owner. NOTE: Renouncing ownership will leave the contract without an owner, thereby removing any functionality that is only available to the owner."
      },
      "safeBatchTransferFrom(address,address,uint256[],uint256[],bytes)": {
        "details": "See {IERC1155-safeBatchTransferFrom}."
      },
      "safeTransferFrom(address,address,uint256,uint256,bytes)": {
        "details": "See {IERC1155-safeTransferFrom}."
      },
      "setApprovalForAll(address,bool)": {
        "details": "See {IERC1155-setApprovalForAll}."
      },
      "supportsInterface(bytes4)": {
        "details": "See {IERC165-supportsInterface}."
      },
      "transferOwnership(address)": {
        "details": "Transfers ownership of the contract to a new account (`newOwner`). Can only be called by the current owner."
      },
      "uri(uint256)": {
        "details": "See {IERC1155MetadataURI-uri}. This implementation returns the same URI for *all* token types. It relies on the token type ID substitution mechanism https://eips.ethereum.org/EIPS/eip-1155#metadata[defined in the EIP]. Clients calling this function must replace the `\\{id\\}` substring with the actual token type ID."
      }
    },
    "version": 1
  },
  "userdoc": {
    "kind": "user",
    "methods": {},
    "version": 1
  }
}