{
  "contractName": "IotaHeroFactory",
  "abi": [
    {
      "inputs": [],
      "stateMutability": "nonpayable",
      "type": "constructor"
    },
    {
      "anonymous": false,
      "inputs": [
        {
          "indexed": true,
          "internalType": "address",
          "name": "owner",
          "type": "address"
        },
        {
          "indexed": true,
          "internalType": "address",
          "name": "approved",
          "type": "address"
        },
        {
          "indexed": true,
          "internalType": "uint256",
          "name": "tokenId",
          "type": "uint256"
        }
      ],
      "name": "Approval",
      "type": "event"
    },
    {
      "anonymous": false,
      "inputs": [
        {
          "indexed": true,
          "internalType": "address",
          "name": "owner",
          "type": "address"
        },
        {
          "indexed": true,
          "internalType": "address",
          "name": "operator",
          "type": "address"
        },
        {
          "indexed": false,
          "internalType": "bool",
          "name": "approved",
          "type": "bool"
        }
      ],
      "name": "ApprovalForAll",
      "type": "event"
    },
    {
      "anonymous": false,
      "inputs": [
        {
          "indexed": true,
          "internalType": "address",
          "name": "owner",
          "type": "address"
        },
        {
          "indexed": false,
          "internalType": "uint256",
          "name": "id",
          "type": "uint256"
        },
        {
          "indexed": false,
          "internalType": "uint256",
          "name": "dna",
          "type": "uint256"
        }
      ],
      "name": "HeroMinted",
      "type": "event"
    },
    {
      "anonymous": false,
      "inputs": [
        {
          "indexed": true,
          "internalType": "address",
          "name": "previousOwner",
          "type": "address"
        },
        {
          "indexed": true,
          "internalType": "address",
          "name": "newOwner",
          "type": "address"
        }
      ],
      "name": "OwnershipTransferred",
      "type": "event"
    },
    {
      "anonymous": false,
      "inputs": [
        {
          "indexed": true,
          "internalType": "address",
          "name": "from",
          "type": "address"
        },
        {
          "indexed": true,
          "internalType": "address",
          "name": "to",
          "type": "address"
        },
        {
          "indexed": true,
          "internalType": "uint256",
          "name": "tokenId",
          "type": "uint256"
        }
      ],
      "name": "Transfer",
      "type": "event"
    },
    {
      "inputs": [
        {
          "internalType": "address",
          "name": "",
          "type": "address"
        }
      ],
      "name": "addressToId",
      "outputs": [
        {
          "internalType": "uint256",
          "name": "",
          "type": "uint256"
        }
      ],
      "stateMutability": "view",
      "type": "function",
      "constant": true
    },
    {
      "inputs": [
        {
          "internalType": "address",
          "name": "to",
          "type": "address"
        },
        {
          "internalType": "uint256",
          "name": "tokenId",
          "type": "uint256"
        }
      ],
      "name": "approve",
      "outputs": [],
      "stateMutability": "nonpayable",
      "type": "function"
    },
    {
      "inputs": [
        {
          "internalType": "address",
          "name": "owner",
          "type": "address"
        }
      ],
      "name": "balanceOf",
      "outputs": [
        {
          "internalType": "uint256",
          "name": "",
          "type": "uint256"
        }
      ],
      "stateMutability": "view",
      "type": "function",
      "constant": true
    },
    {
      "inputs": [],
      "name": "currentUserCount",
      "outputs": [
        {
          "internalType": "uint256",
          "name": "",
          "type": "uint256"
        }
      ],
      "stateMutability": "view",
      "type": "function",
      "constant": true
    },
    {
      "inputs": [
        {
          "internalType": "uint256",
          "name": "tokenId",
          "type": "uint256"
        }
      ],
      "name": "getApproved",
      "outputs": [
        {
          "internalType": "address",
          "name": "",
          "type": "address"
        }
      ],
      "stateMutability": "view",
      "type": "function",
      "constant": true
    },
    {
      "inputs": [],
      "name": "getUsername",
      "outputs": [
        {
          "internalType": "string",
          "name": "",
          "type": "string"
        }
      ],
      "stateMutability": "view",
      "type": "function",
      "constant": true
    },
    {
      "inputs": [
        {
          "internalType": "address",
          "name": "_address",
          "type": "address"
        }
      ],
      "name": "getUsernameByAddress",
      "outputs": [
        {
          "internalType": "string",
          "name": "",
          "type": "string"
        }
      ],
      "stateMutability": "view",
      "type": "function",
      "constant": true
    },
    {
      "inputs": [],
      "name": "getUsernameLength",
      "outputs": [
        {
          "internalType": "uint256",
          "name": "",
          "type": "uint256"
        }
      ],
      "stateMutability": "view",
      "type": "function",
      "constant": true
    },
    {
      "inputs": [
        {
          "internalType": "uint256",
          "name": "",
          "type": "uint256"
        }
      ],
      "name": "heroes",
      "outputs": [
        {
          "internalType": "uint256",
          "name": "id",
          "type": "uint256"
        },
        {
          "internalType": "uint256",
          "name": "dna",
          "type": "uint256"
        },
        {
          "internalType": "uint256",
          "name": "constitution",
          "type": "uint256"
        },
        {
          "internalType": "uint256",
          "name": "strength",
          "type": "uint256"
        },
        {
          "internalType": "uint256",
          "name": "agility",
          "type": "uint256"
        },
        {
          "internalType": "uint256",
          "name": "intelligence",
          "type": "uint256"
        },
        {
          "internalType": "string",
          "name": "name",
          "type": "string"
        }
      ],
      "stateMutability": "view",
      "type": "function",
      "constant": true
    },
    {
      "inputs": [
        {
          "internalType": "uint256",
          "name": "",
          "type": "uint256"
        }
      ],
      "name": "idToAddress",
      "outputs": [
        {
          "internalType": "address",
          "name": "",
          "type": "address"
        }
      ],
      "stateMutability": "view",
      "type": "function",
      "constant": true
    },
    {
      "inputs": [
        {
          "internalType": "uint256",
          "name": "",
          "type": "uint256"
        }
      ],
      "name": "idToUsername",
      "outputs": [
        {
          "internalType": "string",
          "name": "",
          "type": "string"
        }
      ],
      "stateMutability": "view",
      "type": "function",
      "constant": true
    },
    {
      "inputs": [
        {
          "internalType": "address",
          "name": "owner",
          "type": "address"
        },
        {
          "internalType": "address",
          "name": "operator",
          "type": "address"
        }
      ],
      "name": "isApprovedForAll",
      "outputs": [
        {
          "internalType": "bool",
          "name": "",
          "type": "bool"
        }
      ],
      "stateMutability": "view",
      "type": "function",
      "constant": true
    },
    {
      "inputs": [],
      "name": "isSignedUp",
      "outputs": [
        {
          "internalType": "bool",
          "name": "",
          "type": "bool"
        }
      ],
      "stateMutability": "view",
      "type": "function",
      "constant": true
    },
    {
      "inputs": [],
      "name": "name",
      "outputs": [
        {
          "internalType": "string",
          "name": "",
          "type": "string"
        }
      ],
      "stateMutability": "view",
      "type": "function",
      "constant": true
    },
    {
      "inputs": [],
      "name": "owner",
      "outputs": [
        {
          "internalType": "address",
          "name": "",
          "type": "address"
        }
      ],
      "stateMutability": "view",
      "type": "function",
      "constant": true
    },
    {
      "inputs": [
        {
          "internalType": "uint256",
          "name": "tokenId",
          "type": "uint256"
        }
      ],
      "name": "ownerOf",
      "outputs": [
        {
          "internalType": "address",
          "name": "",
          "type": "address"
        }
      ],
      "stateMutability": "view",
      "type": "function",
      "constant": true
    },
    {
      "inputs": [],
      "name": "renounceOwnership",
      "outputs": [],
      "stateMutability": "nonpayable",
      "type": "function"
    },
    {
      "inputs": [
        {
          "internalType": "address",
          "name": "from",
          "type": "address"
        },
        {
          "internalType": "address",
          "name": "to",
          "type": "address"
        },
        {
          "internalType": "uint256",
          "name": "tokenId",
          "type": "uint256"
        }
      ],
      "name": "safeTransferFrom",
      "outputs": [],
      "stateMutability": "nonpayable",
      "type": "function"
    },
    {
      "inputs": [
        {
          "internalType": "address",
          "name": "from",
          "type": "address"
        },
        {
          "internalType": "address",
          "name": "to",
          "type": "address"
        },
        {
          "internalType": "uint256",
          "name": "tokenId",
          "type": "uint256"
        },
        {
          "internalType": "bytes",
          "name": "_data",
          "type": "bytes"
        }
      ],
      "name": "safeTransferFrom",
      "outputs": [],
      "stateMutability": "nonpayable",
      "type": "function"
    },
    {
      "inputs": [
        {
          "internalType": "address",
          "name": "operator",
          "type": "address"
        },
        {
          "internalType": "bool",
          "name": "approved",
          "type": "bool"
        }
      ],
      "name": "setApprovalForAll",
      "outputs": [],
      "stateMutability": "nonpayable",
      "type": "function"
    },
    {
      "inputs": [
        {
          "internalType": "string",
          "name": "_username",
          "type": "string"
        }
      ],
      "name": "signUp",
      "outputs": [],
      "stateMutability": "nonpayable",
      "type": "function"
    },
    {
      "inputs": [
        {
          "internalType": "bytes4",
          "name": "interfaceId",
          "type": "bytes4"
        }
      ],
      "name": "supportsInterface",
      "outputs": [
        {
          "internalType": "bool",
          "name": "",
          "type": "bool"
        }
      ],
      "stateMutability": "view",
      "type": "function",
      "constant": true
    },
    {
      "inputs": [],
      "name": "symbol",
      "outputs": [
        {
          "internalType": "string",
          "name": "",
          "type": "string"
        }
      ],
      "stateMutability": "view",
      "type": "function",
      "constant": true
    },
    {
      "inputs": [
        {
          "internalType": "uint256",
          "name": "tokenId",
          "type": "uint256"
        }
      ],
      "name": "tokenURI",
      "outputs": [
        {
          "internalType": "string",
          "name": "",
          "type": "string"
        }
      ],
      "stateMutability": "view",
      "type": "function",
      "constant": true
    },
    {
      "inputs": [
        {
          "internalType": "address",
          "name": "from",
          "type": "address"
        },
        {
          "internalType": "address",
          "name": "to",
          "type": "address"
        },
        {
          "internalType": "uint256",
          "name": "tokenId",
          "type": "uint256"
        }
      ],
      "name": "transferFrom",
      "outputs": [],
      "stateMutability": "nonpayable",
      "type": "function"
    },
    {
      "inputs": [
        {
          "internalType": "address",
          "name": "newOwner",
          "type": "address"
        }
      ],
      "name": "transferOwnership",
      "outputs": [],
      "stateMutability": "nonpayable",
      "type": "function"
    },
    {
      "inputs": [
        {
          "internalType": "string",
          "name": "_username",
          "type": "string"
        }
      ],
      "name": "usernameExists",
      "outputs": [
        {
          "internalType": "bool",
          "name": "",
          "type": "bool"
        }
      ],
      "stateMutability": "view",
      "type": "function",
      "constant": true
    },
    {
      "inputs": [
        {
          "internalType": "string",
          "name": "",
          "type": "string"
        }
      ],
      "name": "usernameToId",
      "outputs": [
        {
          "internalType": "uint256",
          "name": "",
          "type": "uint256"
        }
      ],
      "stateMutability": "view",
      "type": "function",
      "constant": true
    },
    {
      "inputs": [
        {
          "internalType": "address",
          "name": "statManipulator",
          "type": "address"
        }
      ],
      "name": "addStatManipulator",
      "outputs": [],
      "stateMutability": "nonpayable",
      "type": "function"
    },
    {
      "inputs": [
        {
          "internalType": "address",
          "name": "statManipulator",
          "type": "address"
        }
      ],
      "name": "removeStatManipulator",
      "outputs": [],
      "stateMutability": "nonpayable",
      "type": "function"
    },
    {
      "inputs": [
        {
          "internalType": "uint256",
          "name": "_heroId",
          "type": "uint256"
        },
        {
          "internalType": "string",
          "name": "_name",
          "type": "string"
        }
      ],
      "name": "nameChange",
      "outputs": [],
      "stateMutability": "nonpayable",
      "type": "function"
    },
    {
      "inputs": [],
      "name": "spawnHero",
      "outputs": [],
      "stateMutability": "nonpayable",
      "type": "function"
    },
    {
      "inputs": [
        {
          "internalType": "uint256",
          "name": "_heroId",
          "type": "uint256"
        },
        {
          "internalType": "uint256",
          "name": "cons",
          "type": "uint256"
        },
        {
          "internalType": "uint256",
          "name": "str",
          "type": "uint256"
        },
        {
          "internalType": "uint256",
          "name": "agi",
          "type": "uint256"
        },
        {
          "internalType": "uint256",
          "name": "intel",
          "type": "uint256"
        }
      ],
      "name": "skillUp",
      "outputs": [],
      "stateMutability": "nonpayable",
      "type": "function"
    },
    {
      "inputs": [],
      "name": "withdraw",
      "outputs": [],
      "stateMutability": "payable",
      "type": "function",
      "payable": true
    },
    {
      "inputs": [],
      "name": "getHeroes",
      "outputs": [
        {
          "components": [
            {
              "internalType": "uint256",
              "name": "id",
              "type": "uint256"
            },
            {
              "internalType": "uint256",
              "name": "dna",
              "type": "uint256"
            },
            {
              "internalType": "uint256",
              "name": "constitution",
              "type": "uint256"
            },
            {
              "internalType": "uint256",
              "name": "strength",
              "type": "uint256"
            },
            {
              "internalType": "uint256",
              "name": "agility",
              "type": "uint256"
            },
            {
              "internalType": "uint256",
              "name": "intelligence",
              "type": "uint256"
            },
            {
              "internalType": "string",
              "name": "name",
              "type": "string"
            }
          ],
          "internalType": "struct IotaHeroFactory.Hero[]",
          "name": "",
          "type": "tuple[]"
        }
      ],
      "stateMutability": "view",
      "type": "function",
      "constant": true
    },
    {
      "inputs": [
        {
          "internalType": "address",
          "name": "_owner",
          "type": "address"
        }
      ],
      "name": "getOwnerHeroes",
      "outputs": [
        {
          "components": [
            {
              "internalType": "uint256",
              "name": "id",
              "type": "uint256"
            },
            {
              "internalType": "uint256",
              "name": "dna",
              "type": "uint256"
            },
            {
              "internalType": "uint256",
              "name": "constitution",
              "type": "uint256"
            },
            {
              "internalType": "uint256",
              "name": "strength",
              "type": "uint256"
            },
            {
              "internalType": "uint256",
              "name": "agility",
              "type": "uint256"
            },
            {
              "internalType": "uint256",
              "name": "intelligence",
              "type": "uint256"
            },
            {
              "internalType": "string",
              "name": "name",
              "type": "string"
            }
          ],
          "internalType": "struct IotaHeroFactory.Hero[]",
          "name": "",
          "type": "tuple[]"
        }
      ],
      "stateMutability": "view",
      "type": "function",
      "constant": true
    }
  ],
  "bytecode": "0x608060405260016007556000600d553480156200001b57600080fd5b506040518060400160405280600881526020017f496f74614865726f0000000000000000000000000000000000000000000000008152506040518060400160405280600281526020017f49480000000000000000000000000000000000000000000000000000000000008152508160009080519060200190620000a0929190620001b0565b508060019080519060200190620000b9929190620001b0565b505050620000dc620000d0620000e260201b60201c565b620000ea60201b60201c565b620002c5565b600033905090565b6000600660009054906101000a900473ffffffffffffffffffffffffffffffffffffffff16905081600660006101000a81548173ffffffffffffffffffffffffffffffffffffffff021916908373ffffffffffffffffffffffffffffffffffffffff1602179055508173ffffffffffffffffffffffffffffffffffffffff168173ffffffffffffffffffffffffffffffffffffffff167f8be0079c531659141344cd1fd0a4f28419497f9722a3daafe3b4186f6b6457e060405160405180910390a35050565b828054620001be906200028f565b90600052602060002090601f016020900481019282620001e257600085556200022e565b82601f10620001fd57805160ff19168380011785556200022e565b828001600101855582156200022e579182015b828111156200022d57825182559160200191906001019062000210565b5b5090506200023d919062000241565b5090565b5b808211156200025c57600081600090555060010162000242565b5090565b7f4e487b7100000000000000000000000000000000000000000000000000000000600052602260045260246000fd5b60006002820490506001821680620002a857607f821691505b60208210811415620002bf57620002be62000260565b5b50919050565b614b8f80620002d56000396000f3fe60806040526004361061020f5760003560e01c8063715018a611610118578063c87b56dd116100a0578063ed1a998d1161006f578063ed1a998d146107cc578063f1c4660614610809578063f2fde38b14610834578063f309e3f91461085d578063f7dfd4791461089a5761020f565b8063c87b56dd146106d8578063cb0e0d7d14610715578063ddf368a214610752578063e985e9c51461078f5761020f565b80639f72ed76116100e75780639f72ed7614610603578063a22cb4651461061a578063a8d4a03b14610643578063adcfb4fc14610686578063b88d4fde146106af5761020f565b8063715018a61461056b5780638da5cb5b1461058257806395d89b41146105ad5780639a8d2882146105d85761020f565b806339bdca1f1161019b5780635e1fe1db1161016a5780635e1fe1db1461045e5780636352211e1461049b578063681f3e6d146104d85780636d0cac8e1461050357806370a082311461052e5761020f565b806339bdca1f146103c55780633ccfd60b1461040257806342842e0e1461040c57806348646f7b146104355761020f565b8063191d1cb4116101e2578063191d1cb4146102e257806323b872dd1461030d5780632a2d0c47146103365780632ce7c9c314610373578063346a6ef41461039c5761020f565b806301ffc9a71461021457806306fdde0314610251578063081812fc1461027c578063095ea7b3146102b9575b600080fd5b34801561022057600080fd5b5061023b60048036038101906102369190613320565b6108c3565b6040516102489190613368565b60405180910390f35b34801561025d57600080fd5b506102666109a5565b604051610273919061341c565b60405180910390f35b34801561028857600080fd5b506102a3600480360381019061029e9190613474565b610a37565b6040516102b091906134e2565b60405180910390f35b3480156102c557600080fd5b506102e060048036038101906102db9190613529565b610abc565b005b3480156102ee57600080fd5b506102f7610bd4565b6040516103049190613368565b60405180910390f35b34801561031957600080fd5b50610334600480360381019061032f9190613569565b610c1e565b005b34801561034257600080fd5b5061035d60048036038101906103589190613474565b610c7e565b60405161036a91906134e2565b60405180910390f35b34801561037f57600080fd5b5061039a600480360381019061039591906135bc565b610cb1565b005b3480156103a857600080fd5b506103c360048036038101906103be91906135e9565b610d88565b005b3480156103d157600080fd5b506103ec60048036038101906103e79190613474565b610e8f565b6040516103f9919061341c565b60405180910390f35b61040a610f2f565b005b34801561041857600080fd5b50610433600480360381019061042e9190613569565b611001565b005b34801561044157600080fd5b5061045c60048036038101906104579190613799565b611021565b005b34801561046a57600080fd5b50610485600480360381019061048091906137f5565b611154565b604051610492919061384d565b60405180910390f35b3480156104a757600080fd5b506104c260048036038101906104bd9190613474565b611182565b6040516104cf91906134e2565b60405180910390f35b3480156104e457600080fd5b506104ed611234565b6040516104fa919061341c565b60405180910390f35b34801561050f57600080fd5b50610518611316565b604051610525919061384d565b60405180910390f35b34801561053a57600080fd5b50610555600480360381019061055091906135bc565b61132c565b604051610562919061384d565b60405180910390f35b34801561057757600080fd5b506105806113e4565b005b34801561058e57600080fd5b5061059761146c565b6040516105a491906134e2565b60405180910390f35b3480156105b957600080fd5b506105c2611496565b6040516105cf919061341c565b60405180910390f35b3480156105e457600080fd5b506105ed611528565b6040516105fa9190613a1f565b60405180910390f35b34801561060f57600080fd5b50610618611655565b005b34801561062657600080fd5b50610641600480360381019061063c9190613a6d565b6116be565b005b34801561064f57600080fd5b5061066a60048036038101906106659190613474565b6116d4565b60405161067d9796959493929190613aad565b60405180910390f35b34801561069257600080fd5b506106ad60048036038101906106a891906137f5565b6117ae565b005b3480156106bb57600080fd5b506106d660048036038101906106d19190613bc4565b6119f6565b005b3480156106e457600080fd5b506106ff60048036038101906106fa9190613474565b611a58565b60405161070c919061341c565b60405180910390f35b34801561072157600080fd5b5061073c600480360381019061073791906135bc565b611aff565b604051610749919061384d565b60405180910390f35b34801561075e57600080fd5b50610779600480360381019061077491906135bc565b611b17565b6040516107869190613a1f565b60405180910390f35b34801561079b57600080fd5b506107b660048036038101906107b19190613c47565b611d10565b6040516107c39190613368565b60405180910390f35b3480156107d857600080fd5b506107f360048036038101906107ee91906135bc565b611da4565b604051610800919061341c565b60405180910390f35b34801561081557600080fd5b5061081e611e88565b60405161082b919061384d565b60405180910390f35b34801561084057600080fd5b5061085b600480360381019061085691906135bc565b611ea4565b005b34801561086957600080fd5b50610884600480360381019061087f91906137f5565b611f9c565b6040516108919190613368565b60405180910390f35b3480156108a657600080fd5b506108c160048036038101906108bc91906135bc565b611fc7565b005b60007f80ac58cd000000000000000000000000000000000000000000000000000000007bffffffffffffffffffffffffffffffffffffffffffffffffffffffff1916827bffffffffffffffffffffffffffffffffffffffffffffffffffffffff1916148061098e57507f5b5e139f000000000000000000000000000000000000000000000000000000007bffffffffffffffffffffffffffffffffffffffffffffffffffffffff1916827bffffffffffffffffffffffffffffffffffffffffffffffffffffffff1916145b8061099e575061099d8261209e565b5b9050919050565b6060600080546109b490613cb6565b80601f01602080910402602001604051908101604052809291908181526020018280546109e090613cb6565b8015610a2d5780601f10610a0257610100808354040283529160200191610a2d565b820191906000526020600020905b815481529060010190602001808311610a1057829003601f168201915b5050505050905090565b6000610a4282612108565b610a81576040517f08c379a0000000000000000000000000000000000000000000000000000000008152600401610a7890613d5a565b60405180910390fd5b6004600083815260200190815260200160002060009054906101000a900473ffffffffffffffffffffffffffffffffffffffff169050919050565b6000610ac782611182565b90508073ffffffffffffffffffffffffffffffffffffffff168373ffffffffffffffffffffffffffffffffffffffff161415610b38576040517f08c379a0000000000000000000000000000000000000000000000000000000008152600401610b2f90613dec565b60405180910390fd5b8073ffffffffffffffffffffffffffffffffffffffff16610b57612174565b73ffffffffffffffffffffffffffffffffffffffff161480610b865750610b8581610b80612174565b611d10565b5b610bc5576040517f08c379a0000000000000000000000000000000000000000000000000000000008152600401610bbc90613e7e565b60405180910390fd5b610bcf838361217c565b505050565b600080600a60003273ffffffffffffffffffffffffffffffffffffffff1673ffffffffffffffffffffffffffffffffffffffff168152602001908152602001600020541415905090565b610c2f610c29612174565b82612235565b610c6e576040517f08c379a0000000000000000000000000000000000000000000000000000000008152600401610c6590613f10565b60405180910390fd5b610c79838383612313565b505050565b60086020528060005260406000206000915054906101000a900473ffffffffffffffffffffffffffffffffffffffff1681565b610cb9612174565b73ffffffffffffffffffffffffffffffffffffffff16610cd761146c565b73ffffffffffffffffffffffffffffffffffffffff1614610d2d576040517f08c379a0000000000000000000000000000000000000000000000000000000008152600401610d2490613f7c565b60405180910390fd5b6001600f60008373ffffffffffffffffffffffffffffffffffffffff1673ffffffffffffffffffffffffffffffffffffffff16815260200190815260200160002060006101000a81548160ff02191690831515021790555050565b60011515600f60003373ffffffffffffffffffffffffffffffffffffffff1673ffffffffffffffffffffffffffffffffffffffff16815260200190815260200160002060009054906101000a900460ff16151514610de557600080fd5b6000600e8681548110610dfb57610dfa613f9c565b5b90600052602060002090600702019050610e2285826002015461256f90919063ffffffff16565b8160020181905550610e4184826003015461256f90919063ffffffff16565b8160030181905550610e6083826004015461256f90919063ffffffff16565b8160040181905550610e7f82826005015461256f90919063ffffffff16565b8160050181905550505050505050565b60096020528060005260406000206000915090508054610eae90613cb6565b80601f0160208091040260200160405190810160405280929190818152602001828054610eda90613cb6565b8015610f275780601f10610efc57610100808354040283529160200191610f27565b820191906000526020600020905b815481529060010190602001808311610f0a57829003601f168201915b505050505081565b610f37612174565b73ffffffffffffffffffffffffffffffffffffffff16610f5561146c565b73ffffffffffffffffffffffffffffffffffffffff1614610fab576040517f08c379a0000000000000000000000000000000000000000000000000000000008152600401610fa290613f7c565b60405180910390fd5b6000610fb561146c565b90508073ffffffffffffffffffffffffffffffffffffffff166108fc479081150290604051600060405180830381858888f19350505050158015610ffd573d6000803e3d6000fd5b5050565b61101c838383604051806020016040528060008152506119f6565b505050565b6001151561102d610bd4565b15151461106f576040517f08c379a000000000000000000000000000000000000000000000000000000000815260040161106690614017565b60405180910390fd5b8161107981611182565b73ffffffffffffffffffffffffffffffffffffffff163373ffffffffffffffffffffffffffffffffffffffff16146110b057600080fd5b8160006110bc82612585565b9050600d811080156110ce5750600281115b61110d576040517f08c379a0000000000000000000000000000000000000000000000000000000008152600401611104906140a9565b60405180910390fd5b6000600e868154811061112357611122613f9c565b5b906000526020600020906007020190508481600601908051906020019061114b9291906131d4565b50505050505050565b600b818051602081018201805184825260208301602085012081835280955050505050506000915090505481565b6000806002600084815260200190815260200160002060009054906101000a900473ffffffffffffffffffffffffffffffffffffffff169050600073ffffffffffffffffffffffffffffffffffffffff168173ffffffffffffffffffffffffffffffffffffffff16141561122b576040517f08c379a00000000000000000000000000000000000000000000000000000000081526004016112229061413b565b60405180910390fd5b80915050919050565b606060096000600a60003373ffffffffffffffffffffffffffffffffffffffff1673ffffffffffffffffffffffffffffffffffffffff168152602001908152602001600020548152602001908152602001600020805461129390613cb6565b80601f01602080910402602001604051908101604052809291908181526020018280546112bf90613cb6565b801561130c5780601f106112e15761010080835404028352916020019161130c565b820191906000526020600020905b8154815290600101906020018083116112ef57829003601f168201915b5050505050905090565b60006001600754611327919061418a565b905090565b60008073ffffffffffffffffffffffffffffffffffffffff168273ffffffffffffffffffffffffffffffffffffffff16141561139d576040517f08c379a000000000000000000000000000000000000000000000000000000000815260040161139490614230565b60405180910390fd5b600360008373ffffffffffffffffffffffffffffffffffffffff1673ffffffffffffffffffffffffffffffffffffffff168152602001908152602001600020549050919050565b6113ec612174565b73ffffffffffffffffffffffffffffffffffffffff1661140a61146c565b73ffffffffffffffffffffffffffffffffffffffff1614611460576040517f08c379a000000000000000000000000000000000000000000000000000000000815260040161145790613f7c565b60405180910390fd5b61146a6000612842565b565b6000600660009054906101000a900473ffffffffffffffffffffffffffffffffffffffff16905090565b6060600180546114a590613cb6565b80601f01602080910402602001604051908101604052809291908181526020018280546114d190613cb6565b801561151e5780601f106114f35761010080835404028352916020019161151e565b820191906000526020600020905b81548152906001019060200180831161150157829003601f168201915b5050505050905090565b6060600e805480602002602001604051908101604052809291908181526020016000905b8282101561164c57838290600052602060002090600702016040518060e00160405290816000820154815260200160018201548152602001600282015481526020016003820154815260200160048201548152602001600582015481526020016006820180546115bb90613cb6565b80601f01602080910402602001604051908101604052809291908181526020018280546115e790613cb6565b80156116345780601f1061160957610100808354040283529160200191611634565b820191906000526020600020905b81548152906001019060200180831161161757829003601f168201915b5050505050815250508152602001906001019061154c565b50505050905090565b60011515611661610bd4565b1515146116a3576040517f08c379a000000000000000000000000000000000000000000000000000000000815260040161169a90614017565b60405180910390fd5b60006116b0600d54612908565b90506116bb8161295b565b50565b6116d06116c9612174565b8383612aac565b5050565b600e81815481106116e457600080fd5b906000526020600020906007020160009150905080600001549080600101549080600201549080600301549080600401549080600501549080600601805461172b90613cb6565b80601f016020809104026020016040519081016040528092919081815260200182805461175790613cb6565b80156117a45780601f10611779576101008083540402835291602001916117a4565b820191906000526020600020905b81548152906001019060200180831161178757829003601f168201915b5050505050905087565b806000600b826040516117c1919061428c565b90815260200160405180910390205414611810576040517f08c379a0000000000000000000000000000000000000000000000000000000008152600401611807906142ef565b60405180910390fd5b6000600a60003373ffffffffffffffffffffffffffffffffffffffff1673ffffffffffffffffffffffffffffffffffffffff1681526020019081526020016000205414611892576040517f08c379a00000000000000000000000000000000000000000000000000000000081526004016118899061435b565b60405180910390fd5b81600061189e82612585565b9050600d811080156118b05750600281115b6118ef576040517f08c379a00000000000000000000000000000000000000000000000000000000081526004016118e6906143ed565b60405180910390fd5b600754600a60003373ffffffffffffffffffffffffffffffffffffffff1673ffffffffffffffffffffffffffffffffffffffff168152602001908152602001600020819055503360086000600754815260200190815260200160002060006101000a81548173ffffffffffffffffffffffffffffffffffffffff021916908373ffffffffffffffffffffffffffffffffffffffff1602179055508360096000600754815260200190815260200160002090805190602001906119b29291906131d4565b50600754600b856040516119c6919061428c565b908152602001604051809103902081905550600760008154809291906119eb9061440d565b919050555050505050565b611a07611a01612174565b83612235565b611a46576040517f08c379a0000000000000000000000000000000000000000000000000000000008152600401611a3d90613f10565b60405180910390fd5b611a5284848484612c19565b50505050565b6060611a6382612108565b611aa2576040517f08c379a0000000000000000000000000000000000000000000000000000000008152600401611a99906144c8565b60405180910390fd5b6000611aac612c75565b90506000815111611acc5760405180602001604052806000815250611af7565b80611ad684612c8c565b604051602001611ae79291906144e8565b6040516020818303038152906040525b915050919050565b600a6020528060005260406000206000915090505481565b60606000611b248361132c565b67ffffffffffffffff811115611b3d57611b3c61366e565b5b604051908082528060200260200182016040528015611b7657816020015b611b6361325a565b815260200190600190039081611b5b5790505b509050600080600090505b600e80549050811015611d05578473ffffffffffffffffffffffffffffffffffffffff16611bae82611182565b73ffffffffffffffffffffffffffffffffffffffff161415611cf257600e8181548110611bde57611bdd613f9c565b5b90600052602060002090600702016040518060e0016040529081600082015481526020016001820154815260200160028201548152602001600382015481526020016004820154815260200160058201548152602001600682018054611c4390613cb6565b80601f0160208091040260200160405190810160405280929190818152602001828054611c6f90613cb6565b8015611cbc5780601f10611c9157610100808354040283529160200191611cbc565b820191906000526020600020905b815481529060010190602001808311611c9f57829003601f168201915b505050505081525050838381518110611cd857611cd7613f9c565b5b60200260200101819052508180611cee9061440d565b9250505b8080611cfd9061440d565b915050611b81565b508192505050919050565b6000600560008473ffffffffffffffffffffffffffffffffffffffff1673ffffffffffffffffffffffffffffffffffffffff16815260200190815260200160002060008373ffffffffffffffffffffffffffffffffffffffff1673ffffffffffffffffffffffffffffffffffffffff16815260200190815260200160002060009054906101000a900460ff16905092915050565b606060096000600a60008573ffffffffffffffffffffffffffffffffffffffff1673ffffffffffffffffffffffffffffffffffffffff1681526020019081526020016000205481526020019081526020016000208054611e0390613cb6565b80601f0160208091040260200160405190810160405280929190818152602001828054611e2f90613cb6565b8015611e7c5780601f10611e5157610100808354040283529160200191611e7c565b820191906000526020600020905b815481529060010190602001808311611e5f57829003601f168201915b50505050509050919050565b600080611e93611234565b9050611e9e81612585565b91505090565b611eac612174565b73ffffffffffffffffffffffffffffffffffffffff16611eca61146c565b73ffffffffffffffffffffffffffffffffffffffff1614611f20576040517f08c379a0000000000000000000000000000000000000000000000000000000008152600401611f1790613f7c565b60405180910390fd5b600073ffffffffffffffffffffffffffffffffffffffff168173ffffffffffffffffffffffffffffffffffffffff161415611f90576040517f08c379a0000000000000000000000000000000000000000000000000000000008152600401611f879061457e565b60405180910390fd5b611f9981612842565b50565b600080600b83604051611faf919061428c565b90815260200160405180910390205414159050919050565b611fcf612174565b73ffffffffffffffffffffffffffffffffffffffff16611fed61146c565b73ffffffffffffffffffffffffffffffffffffffff1614612043576040517f08c379a000000000000000000000000000000000000000000000000000000000815260040161203a90613f7c565b60405180910390fd5b6000600f60008373ffffffffffffffffffffffffffffffffffffffff1673ffffffffffffffffffffffffffffffffffffffff16815260200190815260200160002060006101000a81548160ff02191690831515021790555050565b60007f01ffc9a7000000000000000000000000000000000000000000000000000000007bffffffffffffffffffffffffffffffffffffffffffffffffffffffff1916827bffffffffffffffffffffffffffffffffffffffffffffffffffffffff1916149050919050565b60008073ffffffffffffffffffffffffffffffffffffffff166002600084815260200190815260200160002060009054906101000a900473ffffffffffffffffffffffffffffffffffffffff1673ffffffffffffffffffffffffffffffffffffffff1614159050919050565b600033905090565b816004600083815260200190815260200160002060006101000a81548173ffffffffffffffffffffffffffffffffffffffff021916908373ffffffffffffffffffffffffffffffffffffffff160217905550808273ffffffffffffffffffffffffffffffffffffffff166121ef83611182565b73ffffffffffffffffffffffffffffffffffffffff167f8c5be1e5ebec7d5bd14f71427d1e84f3dd0314c0f7b2291e5b200ac8c7c3b92560405160405180910390a45050565b600061224082612108565b61227f576040517f08c379a000000000000000000000000000000000000000000000000000000000815260040161227690614610565b60405180910390fd5b600061228a83611182565b90508073ffffffffffffffffffffffffffffffffffffffff168473ffffffffffffffffffffffffffffffffffffffff1614806122f957508373ffffffffffffffffffffffffffffffffffffffff166122e184610a37565b73ffffffffffffffffffffffffffffffffffffffff16145b8061230a57506123098185611d10565b5b91505092915050565b8273ffffffffffffffffffffffffffffffffffffffff1661233382611182565b73ffffffffffffffffffffffffffffffffffffffff1614612389576040517f08c379a0000000000000000000000000000000000000000000000000000000008152600401612380906146a2565b60405180910390fd5b600073ffffffffffffffffffffffffffffffffffffffff168273ffffffffffffffffffffffffffffffffffffffff1614156123f9576040517f08c379a00000000000000000000000000000000000000000000000000000000081526004016123f090614734565b60405180910390fd5b612404838383612ded565b61240f60008261217c565b6001600360008573ffffffffffffffffffffffffffffffffffffffff1673ffffffffffffffffffffffffffffffffffffffff168152602001908152602001600020600082825461245f919061418a565b925050819055506001600360008473ffffffffffffffffffffffffffffffffffffffff1673ffffffffffffffffffffffffffffffffffffffff16815260200190815260200160002060008282546124b69190614754565b92505081905550816002600083815260200190815260200160002060006101000a81548173ffffffffffffffffffffffffffffffffffffffff021916908373ffffffffffffffffffffffffffffffffffffffff160217905550808273ffffffffffffffffffffffffffffffffffffffff168473ffffffffffffffffffffffffffffffffffffffff167fddf252ad1be2c89b69c2b068fc378daa952ba7f163c4a11628f55a4df523b3ef60405160405180910390a4505050565b6000818361257d9190614754565b905092915050565b6000806000905060008390505b805182101561283b57600060f81b60078284815181106125b5576125b4613f9c565b5b602001015160f81c60f81b7effffffffffffffffffffffffffffffffffffffffffffffffffffffffffffff1916901c7effffffffffffffffffffffffffffffffffffffffffffffffffffffffffffff19161415612620576001826126199190614754565b9150612828565b600660f81b7effffffffffffffffffffffffffffffffffffffffffffffffffffffffffffff1916600582848151811061265c5761265b613f9c565b5b602001015160f81c60f81b7effffffffffffffffffffffffffffffffffffffffffffffffffffffffffffff1916901c7effffffffffffffffffffffffffffffffffffffffffffffffffffffffffffff191614156126c7576002826126c09190614754565b9150612827565b600e60f81b7effffffffffffffffffffffffffffffffffffffffffffffffffffffffffffff1916600482848151811061270357612702613f9c565b5b602001015160f81c60f81b7effffffffffffffffffffffffffffffffffffffffffffffffffffffffffffff1916901c7effffffffffffffffffffffffffffffffffffffffffffffffffffffffffffff1916141561276e576003826127679190614754565b9150612826565b601e60f81b7effffffffffffffffffffffffffffffffffffffffffffffffffffffffffffff191660038284815181106127aa576127a9613f9c565b5b602001015160f81c60f81b7effffffffffffffffffffffffffffffffffffffffffffffffffffffffffffff1916901c7effffffffffffffffffffffffffffffffffffffffffffffffffffffffffffff191614156128155760048261280e9190614754565b9150612825565b6001826128229190614754565b91505b5b5b5b82806128339061440d565b935050612592565b5050919050565b6000600660009054906101000a900473ffffffffffffffffffffffffffffffffffffffff16905081600660006101000a81548173ffffffffffffffffffffffffffffffffffffffff021916908373ffffffffffffffffffffffffffffffffffffffff1602179055508173ffffffffffffffffffffffffffffffffffffffff168173ffffffffffffffffffffffffffffffffffffffff167f8be0079c531659141344cd1fd0a4f28419497f9722a3daafe3b4186f6b6457e060405160405180910390a35050565b60008082426129179190614754565b60405160200161292791906147cb565b6040516020818303038152906040528051906020012060001c905064e8d4a51000816129539190614815565b915050919050565b60006040518060e00160405280600d54815260200183815260200160148152602001600a8152602001600a8152602001600a8152602001604051806020016040528060008152508152509050600e819080600181540180825580915050600190039060005260206000209060070201600090919091909150600082015181600001556020820151816001015560408201518160020155606082015181600301556080820151816004015560a0820151816005015560c0820151816006019080519060200190612a2b9291906131d4565b505050612a3a33600d54612df2565b3373ffffffffffffffffffffffffffffffffffffffff167fad1c7ab5bfbe86a51764200b1532f3893b41563e78abe6d6eac4bbd987f38c68600d5484604051612a84929190614846565b60405180910390a2612aa26001600d5461256f90919063ffffffff16565b600d819055505050565b8173ffffffffffffffffffffffffffffffffffffffff168373ffffffffffffffffffffffffffffffffffffffff161415612b1b576040517f08c379a0000000000000000000000000000000000000000000000000000000008152600401612b12906148bb565b60405180910390fd5b80600560008573ffffffffffffffffffffffffffffffffffffffff1673ffffffffffffffffffffffffffffffffffffffff16815260200190815260200160002060008473ffffffffffffffffffffffffffffffffffffffff1673ffffffffffffffffffffffffffffffffffffffff16815260200190815260200160002060006101000a81548160ff0219169083151502179055508173ffffffffffffffffffffffffffffffffffffffff168373ffffffffffffffffffffffffffffffffffffffff167f17307eab39ab6107e8899845ad3d59bd9653f200f220920489ca2b5937696c3183604051612c0c9190613368565b60405180910390a3505050565b612c24848484612313565b612c3084848484612e10565b612c6f576040517f08c379a0000000000000000000000000000000000000000000000000000000008152600401612c669061494d565b60405180910390fd5b50505050565b606060405180602001604052806000815250905090565b60606000821415612cd4576040518060400160405280600181526020017f30000000000000000000000000000000000000000000000000000000000000008152509050612de8565b600082905060005b60008214612d06578080612cef9061440d565b915050600a82612cff919061496d565b9150612cdc565b60008167ffffffffffffffff811115612d2257612d2161366e565b5b6040519080825280601f01601f191660200182016040528015612d545781602001600182028036833780820191505090505b5090505b60008514612de157600182612d6d919061418a565b9150600a85612d7c9190614815565b6030612d889190614754565b60f81b818381518110612d9e57612d9d613f9c565b5b60200101907effffffffffffffffffffffffffffffffffffffffffffffffffffffffffffff1916908160001a905350600a85612dda919061496d565b9450612d58565b8093505050505b919050565b505050565b612e0c828260405180602001604052806000815250612f98565b5050565b6000612e318473ffffffffffffffffffffffffffffffffffffffff16612ff3565b15612f8b578373ffffffffffffffffffffffffffffffffffffffff1663150b7a02612e5a612174565b8786866040518563ffffffff1660e01b8152600401612e7c94939291906149f3565b6020604051808303816000875af1925050508015612eb857506040513d601f19601f82011682018060405250810190612eb59190614a54565b60015b612f3b573d8060008114612ee8576040519150601f19603f3d011682016040523d82523d6000602084013e612eed565b606091505b50600081511415612f33576040517f08c379a0000000000000000000000000000000000000000000000000000000008152600401612f2a9061494d565b60405180910390fd5b805181602001fd5b63150b7a0260e01b7bffffffffffffffffffffffffffffffffffffffffffffffffffffffff1916817bffffffffffffffffffffffffffffffffffffffffffffffffffffffff191614915050612f90565b600190505b949350505050565b612fa28383613006565b612faf6000848484612e10565b612fee576040517f08c379a0000000000000000000000000000000000000000000000000000000008152600401612fe59061494d565b60405180910390fd5b505050565b600080823b905060008111915050919050565b600073ffffffffffffffffffffffffffffffffffffffff168273ffffffffffffffffffffffffffffffffffffffff161415613076576040517f08c379a000000000000000000000000000000000000000000000000000000000815260040161306d90614acd565b60405180910390fd5b61307f81612108565b156130bf576040517f08c379a00000000000000000000000000000000000000000000000000000000081526004016130b690614b39565b60405180910390fd5b6130cb60008383612ded565b6001600360008473ffffffffffffffffffffffffffffffffffffffff1673ffffffffffffffffffffffffffffffffffffffff168152602001908152602001600020600082825461311b9190614754565b92505081905550816002600083815260200190815260200160002060006101000a81548173ffffffffffffffffffffffffffffffffffffffff021916908373ffffffffffffffffffffffffffffffffffffffff160217905550808273ffffffffffffffffffffffffffffffffffffffff16600073ffffffffffffffffffffffffffffffffffffffff167fddf252ad1be2c89b69c2b068fc378daa952ba7f163c4a11628f55a4df523b3ef60405160405180910390a45050565b8280546131e090613cb6565b90600052602060002090601f0160209004810192826132025760008555613249565b82601f1061321b57805160ff1916838001178555613249565b82800160010185558215613249579182015b8281111561324857825182559160200191906001019061322d565b5b5090506132569190613297565b5090565b6040518060e00160405280600081526020016000815260200160008152602001600081526020016000815260200160008152602001606081525090565b5b808211156132b0576000816000905550600101613298565b5090565b6000604051905090565b600080fd5b600080fd5b60007fffffffff0000000000000000000000000000000000000000000000000000000082169050919050565b6132fd816132c8565b811461330857600080fd5b50565b60008135905061331a816132f4565b92915050565b600060208284031215613336576133356132be565b5b60006133448482850161330b565b91505092915050565b60008115159050919050565b6133628161334d565b82525050565b600060208201905061337d6000830184613359565b92915050565b600081519050919050565b600082825260208201905092915050565b60005b838110156133bd5780820151818401526020810190506133a2565b838111156133cc576000848401525b50505050565b6000601f19601f8301169050919050565b60006133ee82613383565b6133f8818561338e565b935061340881856020860161339f565b613411816133d2565b840191505092915050565b6000602082019050818103600083015261343681846133e3565b905092915050565b6000819050919050565b6134518161343e565b811461345c57600080fd5b50565b60008135905061346e81613448565b92915050565b60006020828403121561348a576134896132be565b5b60006134988482850161345f565b91505092915050565b600073ffffffffffffffffffffffffffffffffffffffff82169050919050565b60006134cc826134a1565b9050919050565b6134dc816134c1565b82525050565b60006020820190506134f760008301846134d3565b92915050565b613506816134c1565b811461351157600080fd5b50565b600081359050613523816134fd565b92915050565b600080604083850312156135405761353f6132be565b5b600061354e85828601613514565b925050602061355f8582860161345f565b9150509250929050565b600080600060608486031215613582576135816132be565b5b600061359086828701613514565b93505060206135a186828701613514565b92505060406135b28682870161345f565b9150509250925092565b6000602082840312156135d2576135d16132be565b5b60006135e084828501613514565b91505092915050565b600080600080600060a08688031215613605576136046132be565b5b60006136138882890161345f565b95505060206136248882890161345f565b94505060406136358882890161345f565b93505060606136468882890161345f565b92505060806136578882890161345f565b9150509295509295909350565b600080fd5b600080fd5b7f4e487b7100000000000000000000000000000000000000000000000000000000600052604160045260246000fd5b6136a6826133d2565b810181811067ffffffffffffffff821117156136c5576136c461366e565b5b80604052505050565b60006136d86132b4565b90506136e4828261369d565b919050565b600067ffffffffffffffff8211156137045761370361366e565b5b61370d826133d2565b9050602081019050919050565b82818337600083830152505050565b600061373c613737846136e9565b6136ce565b90508281526020810184848401111561375857613757613669565b5b61376384828561371a565b509392505050565b600082601f8301126137805761377f613664565b5b8135613790848260208601613729565b91505092915050565b600080604083850312156137b0576137af6132be565b5b60006137be8582860161345f565b925050602083013567ffffffffffffffff8111156137df576137de6132c3565b5b6137eb8582860161376b565b9150509250929050565b60006020828403121561380b5761380a6132be565b5b600082013567ffffffffffffffff811115613829576138286132c3565b5b6138358482850161376b565b91505092915050565b6138478161343e565b82525050565b6000602082019050613862600083018461383e565b92915050565b600081519050919050565b600082825260208201905092915050565b6000819050602082019050919050565b61389d8161343e565b82525050565b600082825260208201905092915050565b60006138bf82613383565b6138c981856138a3565b93506138d981856020860161339f565b6138e2816133d2565b840191505092915050565b600060e0830160008301516139056000860182613894565b5060208301516139186020860182613894565b50604083015161392b6040860182613894565b50606083015161393e6060860182613894565b5060808301516139516080860182613894565b5060a083015161396460a0860182613894565b5060c083015184820360c086015261397c82826138b4565b9150508091505092915050565b600061399583836138ed565b905092915050565b6000602082019050919050565b60006139b582613868565b6139bf8185613873565b9350836020820285016139d185613884565b8060005b85811015613a0d57848403895281516139ee8582613989565b94506139f98361399d565b925060208a019950506001810190506139d5565b50829750879550505050505092915050565b60006020820190508181036000830152613a3981846139aa565b905092915050565b613a4a8161334d565b8114613a5557600080fd5b50565b600081359050613a6781613a41565b92915050565b60008060408385031215613a8457613a836132be565b5b6000613a9285828601613514565b9250506020613aa385828601613a58565b9150509250929050565b600060e082019050613ac2600083018a61383e565b613acf602083018961383e565b613adc604083018861383e565b613ae9606083018761383e565b613af6608083018661383e565b613b0360a083018561383e565b81810360c0830152613b1581846133e3565b905098975050505050505050565b600067ffffffffffffffff821115613b3e57613b3d61366e565b5b613b47826133d2565b9050602081019050919050565b6000613b67613b6284613b23565b6136ce565b905082815260208101848484011115613b8357613b82613669565b5b613b8e84828561371a565b509392505050565b600082601f830112613bab57613baa613664565b5b8135613bbb848260208601613b54565b91505092915050565b60008060008060808587031215613bde57613bdd6132be565b5b6000613bec87828801613514565b9450506020613bfd87828801613514565b9350506040613c0e8782880161345f565b925050606085013567ffffffffffffffff811115613c2f57613c2e6132c3565b5b613c3b87828801613b96565b91505092959194509250565b60008060408385031215613c5e57613c5d6132be565b5b6000613c6c85828601613514565b9250506020613c7d85828601613514565b9150509250929050565b7f4e487b7100000000000000000000000000000000000000000000000000000000600052602260045260246000fd5b60006002820490506001821680613cce57607f821691505b60208210811415613ce257613ce1613c87565b5b50919050565b7f4552433732313a20617070726f76656420717565727920666f72206e6f6e657860008201527f697374656e7420746f6b656e0000000000000000000000000000000000000000602082015250565b6000613d44602c8361338e565b9150613d4f82613ce8565b604082019050919050565b60006020820190508181036000830152613d7381613d37565b9050919050565b7f4552433732313a20617070726f76616c20746f2063757272656e74206f776e6560008201527f7200000000000000000000000000000000000000000000000000000000000000602082015250565b6000613dd660218361338e565b9150613de182613d7a565b604082019050919050565b60006020820190508181036000830152613e0581613dc9565b9050919050565b7f4552433732313a20617070726f76652063616c6c6572206973206e6f74206f7760008201527f6e6572206e6f7220617070726f76656420666f7220616c6c0000000000000000602082015250565b6000613e6860388361338e565b9150613e7382613e0c565b604082019050919050565b60006020820190508181036000830152613e9781613e5b565b9050919050565b7f4552433732313a207472616e736665722063616c6c6572206973206e6f74206f60008201527f776e6572206e6f7220617070726f766564000000000000000000000000000000602082015250565b6000613efa60318361338e565b9150613f0582613e9e565b604082019050919050565b60006020820190508181036000830152613f2981613eed565b9050919050565b7f4f776e61626c653a2063616c6c6572206973206e6f7420746865206f776e6572600082015250565b6000613f6660208361338e565b9150613f7182613f30565b602082019050919050565b60006020820190508181036000830152613f9581613f59565b9050919050565b7f4e487b7100000000000000000000000000000000000000000000000000000000600052603260045260246000fd5b7f596f7520646f6e2774206861766520616e206163636f756e7400000000000000600082015250565b600061400160198361338e565b915061400c82613fcb565b602082019050919050565b6000602082019050818103600083015261403081613ff4565b9050919050565b7f546865206865726f206e616d65206d757374206265206265747765656e20332060008201527f616e642031322063686172616374657273000000000000000000000000000000602082015250565b600061409360318361338e565b915061409e82614037565b604082019050919050565b600060208201905081810360008301526140c281614086565b9050919050565b7f4552433732313a206f776e657220717565727920666f72206e6f6e657869737460008201527f656e7420746f6b656e0000000000000000000000000000000000000000000000602082015250565b600061412560298361338e565b9150614130826140c9565b604082019050919050565b6000602082019050818103600083015261415481614118565b9050919050565b7f4e487b7100000000000000000000000000000000000000000000000000000000600052601160045260246000fd5b60006141958261343e565b91506141a08361343e565b9250828210156141b3576141b261415b565b5b828203905092915050565b7f4552433732313a2062616c616e636520717565727920666f7220746865207a6560008201527f726f206164647265737300000000000000000000000000000000000000000000602082015250565b600061421a602a8361338e565b9150614225826141be565b604082019050919050565b600060208201905081810360008301526142498161420d565b9050919050565b600081905092915050565b600061426682613383565b6142708185614250565b935061428081856020860161339f565b80840191505092915050565b6000614298828461425b565b915081905092915050565b7f557365726e616d652069732074616b656e000000000000000000000000000000600082015250565b60006142d960118361338e565b91506142e4826142a3565b602082019050919050565b60006020820190508181036000830152614308816142cc565b9050919050565b7f596f7520616c7265616479206861766520616e206163636f756e742100000000600082015250565b6000614345601c8361338e565b91506143508261430f565b602082019050919050565b6000602082019050818103600083015261437481614338565b9050919050565b7f557365726e616d65206d757374206265206265747765656e203320616e64203160008201527f3220636861726163746572730000000000000000000000000000000000000000602082015250565b60006143d7602c8361338e565b91506143e28261437b565b604082019050919050565b60006020820190508181036000830152614406816143ca565b9050919050565b60006144188261343e565b91507fffffffffffffffffffffffffffffffffffffffffffffffffffffffffffffffff82141561444b5761444a61415b565b5b600182019050919050565b7f4552433732314d657461646174613a2055524920717565727920666f72206e6f60008201527f6e6578697374656e7420746f6b656e0000000000000000000000000000000000602082015250565b60006144b2602f8361338e565b91506144bd82614456565b604082019050919050565b600060208201905081810360008301526144e1816144a5565b9050919050565b60006144f4828561425b565b9150614500828461425b565b91508190509392505050565b7f4f776e61626c653a206e6577206f776e657220697320746865207a65726f206160008201527f6464726573730000000000000000000000000000000000000000000000000000602082015250565b600061456860268361338e565b91506145738261450c565b604082019050919050565b600060208201905081810360008301526145978161455b565b9050919050565b7f4552433732313a206f70657261746f7220717565727920666f72206e6f6e657860008201527f697374656e7420746f6b656e0000000000000000000000000000000000000000602082015250565b60006145fa602c8361338e565b91506146058261459e565b604082019050919050565b60006020820190508181036000830152614629816145ed565b9050919050565b7f4552433732313a207472616e73666572206f6620746f6b656e2074686174206960008201527f73206e6f74206f776e0000000000000000000000000000000000000000000000602082015250565b600061468c60298361338e565b915061469782614630565b604082019050919050565b600060208201905081810360008301526146bb8161467f565b9050919050565b7f4552433732313a207472616e7366657220746f20746865207a65726f2061646460008201527f7265737300000000000000000000000000000000000000000000000000000000602082015250565b600061471e60248361338e565b9150614729826146c2565b604082019050919050565b6000602082019050818103600083015261474d81614711565b9050919050565b600061475f8261343e565b915061476a8361343e565b9250827fffffffffffffffffffffffffffffffffffffffffffffffffffffffffffffffff0382111561479f5761479e61415b565b5b828201905092915050565b6000819050919050565b6147c56147c08261343e565b6147aa565b82525050565b60006147d782846147b4565b60208201915081905092915050565b7f4e487b7100000000000000000000000000000000000000000000000000000000600052601260045260246000fd5b60006148208261343e565b915061482b8361343e565b92508261483b5761483a6147e6565b5b828206905092915050565b600060408201905061485b600083018561383e565b614868602083018461383e565b9392505050565b7f4552433732313a20617070726f766520746f2063616c6c657200000000000000600082015250565b60006148a560198361338e565b91506148b08261486f565b602082019050919050565b600060208201905081810360008301526148d481614898565b9050919050565b7f4552433732313a207472616e7366657220746f206e6f6e20455243373231526560008201527f63656976657220696d706c656d656e7465720000000000000000000000000000602082015250565b600061493760328361338e565b9150614942826148db565b604082019050919050565b600060208201905081810360008301526149668161492a565b9050919050565b60006149788261343e565b91506149838361343e565b925082614993576149926147e6565b5b828204905092915050565b600081519050919050565b600082825260208201905092915050565b60006149c58261499e565b6149cf81856149a9565b93506149df81856020860161339f565b6149e8816133d2565b840191505092915050565b6000608082019050614a0860008301876134d3565b614a1560208301866134d3565b614a22604083018561383e565b8181036060830152614a3481846149ba565b905095945050505050565b600081519050614a4e816132f4565b92915050565b600060208284031215614a6a57614a696132be565b5b6000614a7884828501614a3f565b91505092915050565b7f4552433732313a206d696e7420746f20746865207a65726f2061646472657373600082015250565b6000614ab760208361338e565b9150614ac282614a81565b602082019050919050565b60006020820190508181036000830152614ae681614aaa565b9050919050565b7f4552433732313a20746f6b656e20616c7265616479206d696e74656400000000600082015250565b6000614b23601c8361338e565b9150614b2e82614aed565b602082019050919050565b60006020820190508181036000830152614b5281614b16565b905091905056fea26469706673582212205cf9cb644a4f5c0a9ae4309c68f43fdf1a77cf54bc9abee14fe94e58f8577cda64736f6c634300080a0033",
  "immutableReferences": {},
  "source": "// SPDX-License-Identifier: MIT\r\npragma solidity ^0.8.7;\r\n\r\nimport \"@openzeppelin/contracts/token/ERC721/ERC721.sol\";\r\nimport \"@openzeppelin/contracts/access/Ownable.sol\";\r\nimport \"@openzeppelin/contracts/utils/math/SafeMath.sol\";\r\nimport \"./IotaHeroAccount.sol\";\r\nimport \"./IotaHeroGameTokens.sol\";\r\n\r\ncontract IotaHeroFactory is ERC721, Ownable, IotaHeroAccount {\r\n    constructor() ERC721(\"IotaHero\", \"IH\") {}\r\n\r\n    using SafeMath for uint256;\r\n    address[] statManipulators;\r\n\r\n    uint256 heroIdCounter = 0;\r\n    struct Hero {\r\n        uint256 id;\r\n        uint256 dna;\r\n        uint256 constitution;\r\n        uint256 strength;\r\n        uint256 agility;\r\n        uint256 intelligence;\r\n        string name;\r\n    }\r\n\r\n    Hero[] public heroes;\r\n\r\n    mapping(address => bool) isStatManipulator;\r\n\r\n    modifier onlyStatManipulators() {\r\n        require(isStatManipulator[msg.sender] == true);\r\n        _;\r\n    }\r\n    modifier onlyOwnerOf(uint256 _heroId) {\r\n        require(msg.sender == ERC721.ownerOf(_heroId));\r\n        _;\r\n    }\r\n    modifier nameValidLength(string memory _name) {\r\n        uint256 stringLength = utfStringLength(_name);\r\n        require(\r\n            stringLength < 13 && stringLength > 2,\r\n            \"The hero name must be between 3 and 12 characters\"\r\n        );\r\n        _;\r\n    }\r\n\r\n    function addStatManipulator(address statManipulator) external onlyOwner {\r\n        isStatManipulator[statManipulator] = true;\r\n    }\r\n\r\n    function removeStatManipulator(address statManipulator) external onlyOwner {\r\n        isStatManipulator[statManipulator] = false;\r\n    }\r\n\r\n    function nameChange(uint256 _heroId, string memory _name)\r\n        public\r\n        hasAccount\r\n        onlyOwnerOf(_heroId)\r\n        nameValidLength(_name)\r\n    {\r\n        Hero storage hero = heroes[_heroId];\r\n        hero.name = _name;\r\n    }\r\n\r\n    function _pseudoRandom(uint256 nonce) internal view returns (uint256) {\r\n        uint256 psrand = uint256(\r\n            keccak256(abi.encodePacked(block.timestamp + nonce))\r\n        );\r\n        return psrand % 10**12;\r\n    }\r\n\r\n    event HeroMinted(address indexed owner, uint256 id, uint256 dna);\r\n\r\n    function _mintHero(uint256 _dna) internal {\r\n        Hero memory hero = Hero(heroIdCounter, _dna, 20, 10, 10, 10, \"\");\r\n        heroes.push(hero);\r\n        _safeMint(msg.sender, heroIdCounter);\r\n        emit HeroMinted(msg.sender, heroIdCounter, _dna);\r\n        heroIdCounter = heroIdCounter.add(1);\r\n    }\r\n\r\n    function spawnHero() external hasAccount {\r\n        uint256 dna = _pseudoRandom(heroIdCounter);\r\n        _mintHero(dna);\r\n    }\r\n\r\n    function skillUp(\r\n        uint256 _heroId,\r\n        uint256 cons,\r\n        uint256 str,\r\n        uint256 agi,\r\n        uint256 intel\r\n    ) external onlyStatManipulators {\r\n        Hero storage hero = heroes[_heroId];\r\n        hero.constitution = hero.constitution.add(cons);\r\n        hero.strength = hero.strength.add(str);\r\n        hero.agility = hero.agility.add(agi);\r\n        hero.intelligence = hero.intelligence.add(intel);\r\n    }\r\n\r\n    function withdraw() external payable onlyOwner {\r\n        address payable _owner = payable(owner());\r\n        _owner.transfer(address(this).balance);\r\n    }\r\n\r\n    function getHeroes() external view returns (Hero[] memory) {\r\n        return heroes;\r\n    }\r\n\r\n    function getOwnerHeroes(address _owner)\r\n        external\r\n        view\r\n        returns (Hero[] memory)\r\n    {\r\n        Hero[] memory ownedHeroes = new Hero[](balanceOf(_owner));\r\n        uint256 c;\r\n        for (uint256 i = 0; i < heroes.length; i++) {\r\n            if (ownerOf(i) == _owner) {\r\n                ownedHeroes[c] = heroes[i];\r\n                c++;\r\n            }\r\n        }\r\n        return ownedHeroes;\r\n    }\r\n}\r\n",
  "sourcePath": "C:\\Users\\creld\\source\\repos\\IotaHeroesAzure\\smartcontracts\\contracts\\IotaHeroFactory.sol",
  "compiler": {
    "name": "solc",
    "version": "0.8.10+commit.fc410830.Emscripten.clang"
  },
  "schemaVersion": "3.4.4",
  "updatedAt": "2022-03-12T01:53:45.788Z",
  "networkType": "ethereum",
  "devdoc": {
    "kind": "dev",
    "methods": {
      "approve(address,uint256)": {
        "details": "See {IERC721-approve}."
      },
      "balanceOf(address)": {
        "details": "See {IERC721-balanceOf}."
      },
      "getApproved(uint256)": {
        "details": "See {IERC721-getApproved}."
      },
      "isApprovedForAll(address,address)": {
        "details": "See {IERC721-isApprovedForAll}."
      },
      "name()": {
        "details": "See {IERC721Metadata-name}."
      },
      "owner()": {
        "details": "Returns the address of the current owner."
      },
      "ownerOf(uint256)": {
        "details": "See {IERC721-ownerOf}."
      },
      "renounceOwnership()": {
        "details": "Leaves the contract without owner. It will not be possible to call `onlyOwner` functions anymore. Can only be called by the current owner. NOTE: Renouncing ownership will leave the contract without an owner, thereby removing any functionality that is only available to the owner."
      },
      "safeTransferFrom(address,address,uint256)": {
        "details": "See {IERC721-safeTransferFrom}."
      },
      "safeTransferFrom(address,address,uint256,bytes)": {
        "details": "See {IERC721-safeTransferFrom}."
      },
      "setApprovalForAll(address,bool)": {
        "details": "See {IERC721-setApprovalForAll}."
      },
      "supportsInterface(bytes4)": {
        "details": "See {IERC165-supportsInterface}."
      },
      "symbol()": {
        "details": "See {IERC721Metadata-symbol}."
      },
      "tokenURI(uint256)": {
        "details": "See {IERC721Metadata-tokenURI}."
      },
      "transferFrom(address,address,uint256)": {
        "details": "See {IERC721-transferFrom}."
      },
      "transferOwnership(address)": {
        "details": "Transfers ownership of the contract to a new account (`newOwner`). Can only be called by the current owner."
      }
    },
    "version": 1
  },
  "userdoc": {
    "kind": "user",
    "methods": {},
    "version": 1
  }
}